S02B00002F686F6D652F686164796C69752F776F726B53706163652F73696C6162732F4C692D4261745F4D611D
S3150800600008120020197D030859AE0A0845900008B1
S3150800601061070C086D9000088190000895900008AB
S3150800602059AE0A0859AE0A0859AE0A0839A60D0823
S31508006030A990000830150F08DDA50D08ADE40D0878
S315080060409179030859AE0A0859AE0A0859AE0A08E2
S3150800605059AE0A0859AE0A0859AE0A0859AE0A08CE
S3150800606059AE0A0859AE0A0859AE0A085D940008DE
S3150800607059AE0A0859AE0A0859AE0A0859AE0A08AE
S3150800608059AE0A0859AE0A0859AE0A0859AE0A089E
S3150800609059AE0A08E558050859AE0A0859AE0A085D
S315080060A059AE0A08B15005089150050859AE0A08B4
S315080060B059AE0A08C13B0808954408084B9C0D08C8
S315080060C0479C0D08093C0808619C0D084F9C0D0863
S315080060D065440808539C0D08D54408083D4508083A
S315080060E059AE0A0859AE0A08A991000859AE0A0815
S315080060F0E7FB0B0859AE0A0859AE0A0859AE0A0852
S3150800610059AE0A0859AE0A0859AE0A0859AE0A081D
S3150800611059AE0A0859AE0A0859AE0A0859AE0A080D
S3150800612059AE0A0859AE0A0859AE0A0859AE0A08FD
S3150800613059AE0A0859AE0A0859AE0A0859AE0A08ED
S3150800614059AE0A08BD3F060859AE0A0891F40D086B
S31508006150F125080859AE0A082B9C0D08319C0D0834
S3150800616059AE0A0859AE0A0859AE0A0859AE0A08BD
S31508006180F0B5114A114C124E00F00105E3695F079C
S3150800619013D40DB9334213D103EA00078F4207D14E
S315080061A00B4A1A40002A0CBF00206FF00100F0BD10
S315080061B0013AEBD16FF00200F9E74FF0FF30F6E74E
S315080061C06FF00100F3E700BF8096980000000350C7
S315080061D00200010070B50B4BD96911F480310DD15D
S315080061E001244FF48072084E084DF46020462C6452
S315080061F01A61FFF7C5FF3464EC6070BD6FF00100EB
S31508006200FBE700BF000003500010035000200350B6
S315080062104FF4803238B50E4B0E4C9A66E56941F656
S31508006220713315400122E3630B4B0021DA60022328
S31508006230606121202361FFF7A3FF10B92120FFF732
S315080062409FFF0122054BDA600DB10023E36338BDD9
S315080062500090005000000350001003500020035027
S3150800626070B5134C6061E3695B071ED40E4656F899
S31508006270043B8D18A361AE420BD1042300212120D3
S315080062802361FFF77DFF58B9BDE870402120FFF76D
S3150800629077BF08210846FFF773FF10B1042323616F
S315080062A070BD56F8043BA361E5E74FF0FF30F7E70A
S315080062B0000003502DE9F84315464FF48032184B79
S315080062C089469A6603F51C33DF690646174041F688
S315080062D07132DA63012203F58053DFF84C80DA6005
S315080062E055B9284601220F4BDA601FB10022A3F5E3
S315080062F00053DA63BDE8F88306F5005404EA080497
S31508006300A41BAC4228BF2C46494622463046FFF716
S31508006310A7FF0028E6D12644A1442D1BE0E700BFCD
S31508006320009000500020035000E0FFFF000000002E
S31508006330000000000000000000000000000000004F
S31508006340013800D0FCE770472DE9F04F2DED028BA0
S315080063501D4613690646052BD5B00BD8013B01220D
S315080063600024042B23D8DFE813F04100290130016B
S315080063703F0152014FF6FC72934212D04FF6FD725E
S3150800638093424FF0010340F0448102200021CDE9F9
S315080063903E0185F8443028463EA981F0F5FD306077
S315080063A086E000230022CDE93E230123F1E7CB69ED
S315080063B0284685F844202C9381F080F80028EED1F1
S315080063C03FA83E959BF07FF93EA92CA886F00EFAC9
S315080063D00446284681F0B7F82046002CDFD14FF650
S315080063E0FF7385F84C40A5F84A30D8E7D1F81C80E9
S315080063F0284685F8442081F061F80446002856D1DD
S3150800640013A812959BF05FF941460AA884F061FB30
S3150800641005232246414600930EA886F04CF92746E6
S315080064209FED7F8BDFF800A20EA90AA886F05AF91D
S31508006430044648B9284681F086F84FF6FF7385F872
S315080064404C40A5F84A3032E00AA884F012FB8DEDDC
S31508006450228B8DED248B90F88190CDE92677CDE9B6
S315080064601E77ADF880708DF8A0708DF8AC90D0E9E5
S315080064700023CDE92423B0F8823000F16004ADF89A
S315080064808030D0E9022320212046CDE92223C6F018
S31508006490F6FF4946CDE926402CAA4046CDF8B0A0DD
S315080064A094F0B4FC044658B1284681F04CF83460A0
S315080064B000233371304655B0BDEC028BBDE8F08F32
S315080064C02DAB1E9341230DF1080B1F933EABCBF862
S315080064D0003055235A4649464046CBF8043094F0D6
S315080064E024FE04460028DFD1DBF80430B3B19BE86C
S315080064F0030001238DF8103005AB83E8030004A9D7
S3150800650007A886F066F99DF81C308DF8A0302BB1E7
S3150800651029AB08AA92E8030083E803009DF8AC308B
S31508006520002B49D0DDF8489099F8452099F808B02D
S315080065300AB19B451AD1484613A981F02BF8A8B190
S3150800654099F84630D9F80010A3B1096C4FF4807257
S315080065500023CDF800B01EA8C4F0E2F904460146AF
S3150800656013AA484681F02FF8002C9DD10AA886F078
S315080065708EF859E7D9F8403009F1280207A880F0C3
S3150800658057FF044628B12146484613AA81F01BF84E
S315080065908AE7D9F800300222196C1EA80023CDF824
S315080065A000B0C4F0BDF904460028ECD1D9F80010B3
S315080065B007A880F075FFD1E7712475E7052000214B
S315080065C085F84420CDE93E01E5E6CB6993F88233A8
S315080065D0CDE93E340123284685F844303EA981F0AA
S315080065E0D3FC3471306065E7CB69284685F84420CA
S315080065F02C9380F063FF00287FF4D1AE3FA83E9528
S315080066009BF061F83EA92CA886F0F4F9E0E62B7A0F
S31508006610DEE78622C0E900234CE700BFAFF300801F
S315080066200000000000000000F0D60E080000000080
S315080066302DE9F04F2DED028B083085B00E469146B8
S31508006640DDF850809CF0B8FB0446002800F0A380D3
S315080066506F4600259FED548B4FF0010B41F2A45A6B
S3150800666010AB0FCB87E80F00514BC4E902552360E6
S31508006670C4E90455C4E906552C3363604D4B04F14F
S31508006680500C0FCB84ED108BC4E90E5584F82050BE
S3150800669084F8305084F848508CE80F00464B84F84C
S315080066A060B0A4F862A06566236704F18403C4E9B0
S315080066B02133424B1022C4F89830294684ED1A8BB0
S315080066C0C4E91D55C4E9275584F87C50C4F88C5094
S315080066D0C4F8A45004F1A800C6F0DCFF84ED308BA2
S315080066E084F8B8B0A4F8BAA0C4F8BC5004F1C8003D
S315080066F09DF0CAF94AF6C873C82284ED388B84ED32
S315080067003A8BC4E93C2304F58673C4E94055C4E9C9
S315080067104333A4F8D45084F8D650A4F8D85084F853
S315080067200851C4F814513368A3607368E360B3680A
S315080067302361F36863613369A3617369E361337E37
S3150800674084F8203033B104F1240306F11C0207CA89
S3150800675083E8070096F8283084F830300BB1F36ADE
S315080067606363304681F07BF8A8B9B9F1000F12D0FF
S31508006770B8F1000F0FD003CF3B78C4F8389084F8EF
S315080067804830012384F80031231D20646164C4F86D
S315080067909080C4F8A430204605B0BDEC028BBDE855
S315080067A0F08F00BFAFF3008000000000000000007B
S315080067B0B8520E08AC4A0120340A0F08A8520E082F
S315080067C02DE9F04F2DED028B00240025CBB099461C
S315080067D0CDE92E450023CDE93045CDE934454FF6C0
S315080067E0FF74DFF898A2064688461746CDE90C33AB
S315080067F08DF8C8303393CDF8D8A04894A2B305468F
S3150800680000F53474A54206D10B2420464BB0BDECE6
S31508006810028BBDE8F08F284681F04FF908B1903514
S31508006820F0E79FED8F8BBDF85C318DF8C880ADF829
S3150800683020318D4B4FF4C8710E93002309A8CDE97A
S3150800684009330F93CDF870A00B9385F0B8FF099C18
S3150800685014BB0B240BA880F0D6FE0AA880F0D3FE42
S3150800686009A880F0D0FED0E794F060FA044608B98B
S31508006870AC24CAE706F5347528467FF062FCB4F8FE
S3150800688082308DF8C880ADF8203121460CA894EDE9
S31508006890028B94F0B8F9CCE74FF4C8710AA885F0D2
S315080068A08EFFDDF828A0BAF1000FD2D04FF4C871D8
S315080068B00BA885F084FF0B9A002ACAD04FF4C87338
S315080068C04146CDE91332304610AA1094CDE9113A63
S315080068D0159394F08BFA04460028BBD141463046FE
S315080068E012AA94F065FA04460028B3D14146304608
S315080068F014AA94F03AFA04460028ABD110A916A8AF
S3150800690085F053FF12A918A885F04FFF14A91AA8F5
S3150800691085F04BFF36AB079330AB05930DF1B80AFC
S3150800692034ABCDE903A30DF1700B0EAB8DED008BE7
S31508006930CDF818B002931AAA18A916A81BF0BAFF20
S315080069400446002886D10BA880F05DFE0AA880F0D0
S315080069505AFE09A880F057FEB9F1000F13D1D6F8F0
S31508006960640300285ED003689B6898470346D6F8F8
S315080069706403002B4ED003685A4641465B69984724
S31508006980044688B141E7D9F8003048465B6998471C
S31508006990594694F0F8FC08B9C52436E79DF85831ED
S315080069A0CDF8CC908DF822319DF860315146B3FA76
S315080069B083F328465B098DF8233194F08BFC044653
S315080069C000287FF422AF28460CA994F061F906F551
S315080069D05D7495F881303FB302211120234A9CF05B
S315080069E0C8F9D5E900122B69CDE9012100936B6935
S315080069F0022111201E4A9CF0BCF920460F991DF071
S31508006A0071FE034630BB96F88233013386F882332B
S31508006A100024FAE603684146DB6898470028C3D194
S31508006A201024F2E60324F0E6D5E900121120CDE998
S31508006A30002102210F4A9CF09CF920460F991DF06F
S31508006A4051FE03460028E3D0012111200A4A9CF092
S31508006A5090F9DDE701211120074A9CF08AF9D2E76F
S31508006A600000000000000000E0960E08A3950E083E
S31508006A70C3950E0806960E083B960E08F0D60E0825
S31508006A802DE9F0478AB00DF10D030193152306464B
S31508006A9000934FF48072002308460C469BF043F897
S31508006AA0E8B996F8963001220093204600239AF01A
S31508006AB0C1FFA0B996F8973002220093204600231A
S31508006AC09AF0B8FF58B90DF10E0301931623032265
S31508006AD00093204600239BF026F8054610B10AB01D
S31508006AE0BDE8F0874FF0100906F1C8070DF1180840
S31508006AF0102200214046C6F0CDFD0DF10F0301938B
S31508006B0015234FF480720093204600239BF00BF860
S31508006B100028E4D196F89720EBB29A4251D917ED9E
S31508006B200C7BC44637F828ACA7F12603A7F1160E46
S31508006B30624618685968083303C273459446F7D104
S31508006B408DED007B0422002320469AF04EFF002894
S31508006B50C5D1052200232046CDF800A09AF06AFF89
S31508006B600028BCD14046494606228DE8030000238A
S31508006B702046CDE904899BF0A9F80028AFD1204624
S31508006B809DF90F109BF004F8013530370028A6D17F
S31508006B90032DADD120469DF90E109AF0F9FF002875
S31508006BA09DD1B6F88E3007220093204600239AF02E
S31508006BB041FF002893D120469DF90D109AF0E8FF71
S31508006BC08DE782469FED027BBAE700BFAFF30080F0
S31508006BD00000000000000000A0F1840050E700BF9C
S31508006BE0054B18680368D96901A3D3E90023084748
S31508006BF000E0373B015D0300840B02200000000023
S31508006C0037B5A4F01DFD044600286ED13A4B1A8804
S31508006C109B78ADF804208DF8063031F015FF32F078
S31508006C2029FC32F087FB0546344B036032F012FE2E
S31508006C30284632F01BFD00B9FEE72DA3D3E9002351
S31508006C404FF0FF314FF0FF3031F006FF32F076FBA0
S31508006C50214632F0CFFBA4F0F6FC01A832F0C8FCBE
S31508006C60044600B1FEE7264B264A98801860264B54
S31508006C7098801A60254B264A98621A60254A988099
S31508006C806FF06300DA6033F057FD0B2032F0A4FB97
S31508006C9032F002FC32F048FB00B9FEE754F066FE1B
S31508006CA02046A4F094FE08210846A4F097FE00B1F9
S31508006CB0FEE7A4F08AFE32F08DFAA4F0D5FD102185
S31508006CC01548B9F0C4FD00B9FEE714491248B9F0F1
S31508006CD0D0FD00B9FEE710218C20114A54F05EFA67
S31508006CE000B1FEE70F48A6F09AF903B030BD00BF21
S31508006CF00AE020FFE20300005D220F0801B80A0837
S31508006D0068ED0020C4FD012038ED002008ED0020C4
S31508006D1044FD0120F8EC0020D48F0120D9F00D089D
S31508006D20C48F012045970F082DE9F04389B0A4F0D8
S31508006D3078FC00B9FEE75C4D2B6803B9FEE7012233
S31508006D409B8811460DF10B008DF80B3032F006FCCE
S31508006D509DF80B102B6802390022186889B232F0A8
S31508006D60FDFB002305930793504B05AE06932B684E
S31508006D7093F82C208DF814201B681C7814F0200436
S31508006D8014D0A4F026FE00285CD0A4F022FE63F0FE
S31508006D903DFB0B46024640A1D1E9000163F0DAFC4F
S31508006DA063F048FE079B18440124079032F01AFC4A
S31508006DB09DF80B30002848D0981DC00063F036FBBC
S31508006DC037A3D3E9002363F09BFB8946804632F05C
S31508006DD009FC63F01BFB0B4602464946404663F036
S31508006DE0B9FC63F027FE079B18440790A4F020FC23
S31508006DF038B132F05DFB0020A4F016FC0020A4F0A8
S31508006E001AFC29684B6963BBA4F02EFC10B3079BD8
S31508006E10274F03F5FA7307932B681B7EBB7032F076
S31508006E2041FBF870286833463A462146807932F0A5
S31508006E3077FB58B34FF480510020D8F072F9A4F0CC
S31508006E40F2FE23E00798C030AEE70798063300EB5A
S31508006E504310CAE72B6832462146987932F056FB2A
S31508006E60E7E70022962004920A691A44114BA2F514
S31508006E709B7298800392887903AA2146009632F07D
S31508006E805DFB0028D6D10120A4F0F9FB09B0BDE8C6
S31508006E90F08300BFAFF300800000000060E36641A6
S31508006EA00000000080842E41C08F012020A1070029
S31508006EB0280C02201C0C02202DE9F3411E461C4B0F
S31508006EC0044683424FF000038B4115460AD216A3A7
S31508006ED0D3E9002363F06EFE164914460246284697
S31508006EE0A8F0F5FC144B4EF66021B4FBF3F203FB55
S31508006EF01244B4FBF1F34FF47A7801FB1344B4FB64
S31508006F00F8F728460D490097A8F0E1FC46B128464F
S31508006F1008FB17420A4902B0BDE8F041A8F0D7BC01
S31508006F2002B0BDE8F08100BF005C26050000000045
S31508006F30FF5B2605D4520F0880EE3600BE9A0E086F
S31508006F40DA520F080348044B834202D0034B03B1BD
S31508006F5018477047781702207817022000000000AB
S31508006F60064B0749C91A891048BF0131491003D091
S31508006F70044B0BB101481847704700BF7817022029
S31508006F80781702200000000010B5064C237843B994
S31508006F90FFF7D8FF044B13B10448AFF30080012371
S31508006FA0237010BDAEC001200000000024FA0F08AF
S31508006FB008B5054B1BB105490548AFF30080BDE888
S31508006FC00840FFF7CDBF00BF0000000030310120A8
S31508006FD024FA0F08A3F5803A704700BF174B002B19
S31508006FE008BF134B9D46FFF7F5FF00218B460F465A
S31508006FF01348144A121AC6F04DFB0E4B002B00D04C
S3150800700098470D4B002B00D098470020002104001C
S315080070100D000D48002802D00C48C6F0D7FA64F0D7
S31508007020D7F820002900B9F0B9FB02F0C7F800BF6D
S315080070300000080000000000000000000812002000
S315080070400812002000070220CDD50C080000000019
S3150800705008B5154B4FF4E47200211846C6F01AFB22
S3150800706009220346026142611048114A98614FF4A9
S315080070708061DA61002219629A625A62DA62C3F89A
S31508007080F0000C48C3F8F400C3F8F8100A49C3F82E
S315080070900021C3F8FC20C3F8042111F8010D985407
S315080070A00132102AF9D108BD4831012008F80D0827
S315080070B0AFC40120AFC0012021F80D082DE9F84F13
S315080070C0DFF88880824698F800308946532B1646A2
S315080070D001D0FFF7BDFF182707FB0A87D7F800512D
S315080070E0D7F8FCB05D452FD9D7F8F840D7F8F41093
S315080070F0641BB44228BF3446484629442246C6F093
S3150800710085F9D7F8F8302544AB4208BF0025A144D5
S31508007110361BABEB050B5E4528BF5E465EB11823F2
S3150800712003FB0A83D3F8F410324629444846C6F0CE
S315080071306DF93444354424B1182303FB0A88C8F88A
S3150800714000512046BDE8F88F0024E2E748310120C7
S31508007150F8B5182700FB0775124B0E461D4407FBAA
S315080071600033DB6A1446012B0AD0022B14D023B94C
S3150800717028467EF039FC844208D900242046F8BD0A
S3150800718028467EF031FC844228BF04462246314612
S3150800719028467EF032FCF1E72846BDE8F8407EF046
S315080071A047BC00BF48310120F8B50B4B04461B7895
S315080071B00D46532B164601D0FFF74AFFEFF311870A
S315080071C04FF0200181F31188324629462046FFF701
S315080071D0BFFF87F31188F8BD483101202DE9F0413A
S315080071E0164C1E4623780546532B8846174601D06B
S315080071F0FFF72EFF082D1DD8EFF3118C4FF0200155
S3150800720081F3118865B1182005FB000344F8038053
S31508007210E2180023576000FB054216629362536228
S31508007220182303FB0544069BE3628CF311880020B0
S31508007230BDE8F0814FF0FF30FAE700BF4831012082
S315080072402DE9F843174E1F4633780546532B8946D2
S31508007250904601D0FFF7FCFE082D1FD8EFF31182E8
S315080072604FF0200181F311886DB11824002304FB27
S315080072700564C4F8F090C4F8F480C4F8F870C4F84B
S315080072800031C4F8FC30182303FB0566089BC6F8D2
S31508007290043182F311880020BDE8F8834FF0FF30EF
S315080072A0FAE700BF48310120024B1B780BB10023D7
S315080072B003737047B0C8012002211D20014A9BF0C4
S315080072C058BD00BF22F80D0802211D20014A9BF077
S315080072D050BD00BF32F80D0802211D20014A9BF05F
S315080072E048BD00BF41F80D0870B5037C0446FE2B67
S315080072F022D0FF2B30D00B2B37D80B2B35D8DFE815
S3150800730003F00612063434343434343434129CF020
S3150800731000FC036841F288315D692346164AAC468B
S31508007320BDE8704060479CF0F4FB036842F21071B8
S315080073305D69114A2346F2E79CF0EBFB0368224697
S315080073405B6A0D4998479CF0E4FB03684FF47A7131
S315080073505D69094A2346E2E79CF0DBFB036822469F
S31508007360BDE870405B6A044918470221BDE87040D1
S315080073701D20024A9BF0FDBCD97200085BF80D0877
S3150800738048F2040210B5038893420DD006D803F5D7
S31508007390FF437F339BB2012B0AD910BD48F2120274
S315080073A09342FAD10F4A0CE0027A0F4B1A70F4E7AF
S315080073B090F90830012B03D090F90930012BECD154
S315080073C00A4A022121209BF0D4FC9CF0A2FB036808
S315080073D040F6B8315C69064AA446BDE81040002369
S315080073E0604700BF98F80D08B0C8012070F80D086E
S315080073F0BF5A080808B59DF0ADFF23F0FDFB23F042
S315080074002DFC094826F0D2FD00224FF46171074889
S3150800741090F052FB30B1BDE8084001212120044A12
S315080074209BF0A7BC08BD00BF80B00020A8A3002021
S31508007430D4F80D0810B500220C46134813499EF0DF
S3150800744031F818210A20124AD7F0C0FB114B1860F0
S3150800745040B921200121104A9BF08BFC40F20170B3
S315080074607EF0F0FC20460D4A0A49D7F070F840B97C
S31508007470212001210A4A9BF07CFC40F202707EF032
S31508007480E1FC002010BD00BFB0BF002081730008DA
S3150800749054FB0D083C34012002F90D0830FB0D0899
S315080074A025F90D0810B5054B054C187020469DF0BA
S315080074B024FD2046BDE810409DF077BDB0C80120E8
S315080074C080B0002008B50C489EF02BF858B10B4840
S315080074D09DF013FD09489DF068FD094825F078FAE6
S315080074E005489EF027F8074B186818B1BDE808400C
S315080074F000F0C2B908BD00BFB0BF002080B00020B0
S315080075002855012020330120014608B54FF47A7228
S3150800751000238002890D63F04DFB094B014618686C
S31508007520D7F09AF950B121200121064A9BF021FC97
S31508007530BDE8084040F205707EF084BC08BD00BF77
S31508007540443401203FF90D0808B5074A40F6B83318
S31508007550022121209BF00DFC40F6B830FFF7D4FF3E
S315080075600122024B1A7008BD58F90D08AFC8012050
S3150800757008B5094B0A211868D7F06EF950B12120D1
S315080075800121064A9BF0F5FBBDE8084040F205706C
S315080075907EF058BC08BD00BF4034012097F90D089D
S315080075A010B5044686B009489BF006FC60B1002376
S315080075B0CDE903330293064B214601930223054A7C
S315080075C00093054B07F00CF806B010BD24330120D4
S315080075D0E9720008B9720008C972000808B5094BB3
S315080075E00146186858B100231822D7F02FFB40B17E
S315080075F0054A0121BDE8084021209BF0BABB034A91
S31508007600F7E708BD3C340120AFF90D08DCF90D0891
S315080076107FB50223ADF80030044B0190684602930B
S31508007620FFF7DCFF07B05DF804FB00BF5D760008D6
S315080076308B68084603B1184702212120014A9BF0AE
S3150800764098BB00BFFDF90D0800220249024827F041
S315080076505FBD00BF29780008B0BF00200388022B51
S3150800766006D1044B1B780BB9FFF76EBFFFF7ECBFCB
S31508007670704700BFAFC8012000220249024827F020
S3150800768047BD00BFF5730008B0BF002010B5A4B011
S3150800769003AB0193812301AC029365F08FFC21466D
S315080076A066F098F928B994E803002DF021FB24B078
S315080076B010BD01212120024A9BF05BFBF7E700BFC2
S315080076C02DFA0D0800230246194610B5044620482F
S315080076D0D2F0F2FD1F4B186040B9212001211E4A45
S315080076E09BF047FB40F204707EF0ACFB0023224679
S315080076F001211A48D2F0E0FD194B186040B9212043
S315080077000121184A9BF035FB40F204707EF09AFB83
S3150800771002212120144B154A9BF02BFB0221144A07
S31508007720012321209BF025FB28F0D8F80368DB6F9E
S3150800773098470120FFF7AAFF01F0B2FB0D489DF01C
S3150800774026FC0D4B0D4918700D4893F090FB10BDA3
S31508007750117600084434012045FA0D08FB5A08083A
S31508007760403401205FFA0D0852630E0879FA0D08B5
S315080077709DFA0D0880B00020B0C8012014330120FE
S31508007780409D002038B50546FFF79CFF044638B1F2
S315080077900C4827F039F920467EF054FB204638BDC0
S315080077A02B6828469B689847044608B10648F0E7C0
S315080077B0064B1A6852F8640C1A581844526C9047CB
S315080077C0ECE700BFBAFA0D08CCFA0D08805501207F
S315080077D0482337B50E4A0F4CA2F118050093111D20
S315080077E0012328469BF0D2FA224628460A49C4F0C5
S315080077F0F3FF0023224609480949C0E90233094B29
S3150800780003603033436003B0BDE83040C4F0E4BFE2
S315080078103C33012010090220D75A080810330120EA
S31508007820B95A0808E8FA0D0810B50121094827F0E1
S315080078305BFA20B165F0C2FB0121C6F06CF8064878
S3150800784027F0BEFB28F04AF8BDE8104003689B6F96
S31508007850184700BF80550120B0BF002010B5044668
S315080078600178044827F074FAA37883F00103A3701B
S3150800787010BD00BF8055012073B503690446E3B106
S315080078804369D3B10E4B684619680B681B6998475C
S31508007890D4E90423DDE90065A178002918BF134659
S315080078A0D4E902125B1842F10002B342AA4104D29B
S315080078B02046FFF7D3FFC4E9026502B070BD00BFDA
S315080078C0840B022038B500230022C0E904330023C4
S315080078D004460D46C0E902230278024827F028FA32
S315080078E0A57038BD8055012001489DF051BC00BFE8
S315080078F080B0002001489DF04DBC00BF80B000203C
S31508007900044A08B583680260243242600BB1C5F0A8
S315080079108AFD08BD98FC0D08A0F10400F0E700BF39
S3150800792010B50446054B03604433436014F014F95C
S315080079302046FFF7E5FF204610BD00BF005B0E0896
S31508007940A0F10400ECE700BF38B5124B044603F17A
S315080079503802C26003F14C02026103F1600242611F
S3150800796042680360743383613AB183682BB153600C
S3150800797042681A600023C0E9013304F14405284629
S3150800798088F014FE28467EF0E0F8201D7EF0DDF82B
S31508007990204638BDE01D0E08A0F11400D4E7A0F17A
S315080079A01000D1E7A0F10C00CEE7A0F11800CBE754
S315080079B01F2008B502210C4A9BF0DBF90B4826F07C
S315080079C0EFFA78B90121094825F046FF50B9084869
S315080079D083F014FE1F200221064A9BF0CAF90348C9
S315080079E09DF0D4FB08BD00BF6CFB0D0880B00020DD
S315080079F0581500208AFB0D08F8B51E4C00252646AA
S31508007A001D4F1E481E4B3A461E49C0E901550360E4
S31508007A10C560057445610583C4F0DEFE1A4B294628
S31508007A2046F8D83B3246234604F1080008F06AF8BF
S31508007A3004F12003C4E93435144B3A46C4F8D83067
S31508007A40134B2046C4E9383604F1F403C4E93B3540
S31508007A5041F20A430F4984F8E85084F8F451A4F82F
S31508007A60DC30C4F0B9FE3A46BDE8F8400A490B488E
S31508007A70C4F0B2BE58150020100902205434012063
S31508007A80D8D90E08D1CE0208A81C0E08BCC50E0807
S31508007A90A0C50E08A15B0808475B08086409022010
S31508007AA07FB5044602211F20854A9BF062F92346CA
S31508007AB002211F20834A9BF05CF9834D02211F2077
S31508007AC07F4A9BF056F902211F20804A9BF051F904
S31508007AD02B784BB9284627F0C9FB00280CBF012391
S31508007AE000232B7040F0E5802146794824F06AFF90
S31508007AF065F064FA0446C5F0F6FE002840F0D98021
S31508007B00201D22F023F904F1080022F0ADF82046E2
S31508007B10C5F0FEFE6F4A704B0221002818BF1346B7
S31508007B201F206E4A9BF025F9FFF742FF002840F018
S31508007B30C0806B4B039001936A4B6B4802939DF090
S31508007B40DAF96A4C039001AB6948236327F03AF9DE
S31508007B50002840F0AE8067489DF0DEFC664DD5E80B
S31508007B60AF3FDA070BD42846A4F025F838B1634AA4
S31508007B7063496448C4F030FE2846A4F021F8624DF3
S31508007B80D5E8AF3FDB070FD42846A4F014F858B160
S31508007B905C495E4814F044F8584A5D495B48C4F0AD
S31508007BA01BFE2846A4F00CF85A4D584B2846236469
S31508007BB025F098F92369A5631BB9574B574A2361E2
S31508007BC05A60E36B53BB564D6B68002B70D105F1B9
S31508007BD0140026697EF002F805F11C007DF0FEFF10
S31508007BE0EB6803B92B7295F834304E4823F0050339
S31508007BF085F834307DF0F2FF4B487DF0EFFF95F8BD
S31508007C0034304A4823F0180385F834307DF0E6FF0F
S31508007C1000236E602B7285F83430E563236C0BB94C
S31508007C20434B2364434D444B28462169636294F0D1
S31508007C308CFB636A28462B6193F05DFD002838D1DA
S31508007C4022692562002A36D03C4B3D4D5A60636155
S31508007C5002F090FE3B4B0221A0623B4A2120E362E0
S31508007C609BF087F82846216916F082FA08BB206936
S31508007C70A56197F0C8FD354B2169606434482360D7
S31508007C809BF00CFF324822F051F81849314815F09C
S31508007C90EBFD044617489DF04DFC3CB92E4826F0EE
S31508007CA0B3FE144827F074FA044630B1204600E0C3
S31508007CB0032004B070BD2F20FBE700F0AFF8F5E70E
S31508007CC0ABFB0D08DEFB0D08A8BF0020EAFB0D087C
S31508007CD028550120A3FB0D0882A10F08FAFB0D0801
S31508007CE0E9780008F578000880B000201809022015
S31508007CF080550120B0BF00204C3401201009022015
S31508007D00495B08081409022048340120081200209B
S31508007D102179000854340120040A02206EFB012050
S31508007D20184901203C4901204449012024490120E1
S31508007D30C8730020AC460120E4090220A4460120AD
S31508007D4068460120E80902200CFC0D0810330120C2
S31508007D5064090220607700203CFC0D0810B5134822
S31508007D60FFF79EFE08B17EF06DF811489DF0D4FB32
S31508007D7065F024F900B10C301AF010FB0C489DF0A0
S31508007D80D9FB1F2002210B4A9AF0F3FF0A485EF03E
S31508007D9075FC08B17EF056F8084C2068D6F04BFC06
S31508007DA008B1C5F040FB206010BD00BF61FC0D089E
S31508007DB0B0BF00206AFC0D089CA7012050340120A2
S31508007DC010B50A489DF044FB0021094A0948D6F037
S31508007DD0BEFB094C02212060084A1F209AF0C9FF01
S31508007DE023680BB9C5F01FFB10BD00BF80550120E5
S31508007DF0D4FC0D085D7D0008503401207CFC0D087C
S31508007E00014820F081BC00BFF04A0120024B012145
S31508007E101868D6F069BC00BF7034012010B50A484E
S31508007E2020F0C4FB044608B1C5F0FDFA01F09EFD3A
S31508007E3001F0E4FD2146054A0548D6F088FB054BC6
S31508007E4018600028F0D010BDF04A012000FD0D088A
S31508007E50017E00087034012010B5044601210C206B
S31508007E60064A9AF086FF0023E068A36020B1BDE8C1
S31508007E70104003689B68184710BD00BF24FD0D0815
S31508007E80A0F10400E8E700BF10B50A4CD4E8AF3FFC
S31508007E90DB070DD42046A3F08EFE48B10648074BF3
S31508007EA0074A08490360C4F097FC2046A3F088FEF9
S31508007EB0014810BDD8340120DC3401207CBE0E08F0
S31508007EC0100902200B5C080810B504460B4B03602A
S31508007ED06433436000F50E702DF0CAFF636A23B160
S31508007EE0002204F11C0062629847236923B100222C
S31508007EF004F1080022619847204610BD58310E0843
S31508007F00A0F10400E0E700BF10B50446034B40F8B3
S31508007F10343B7DF090FE204610BD00BF542D0E0860
S31508007F2037B5C0680D46144638B901210C200E4AEB
S31508007F309AF01FFF002003B030BD1A68214601924F
S31508007F4000221A6001AA0AF0CDF801A87DF073FE96
S31508007F50A38823B9E38813B92378402BEAD02B8961
S31508007F6043F040032B81E5E737FD0D08A0F1040037
S31508007F70D6E700BF73B516480AF070FA1549164ACF
S31508007F80D1F8AC34154E164D5360A1F54051334621
S31508007F900F4800950AF03EFB124B336125F07CFA38
S31508007FA0044602460A4930460BF070FA294620462E
S31508007FB025F006F940B10C4826F026FD6D210B4B3D
S31508007FC00B4A0C4863F0FCFD6C6002B070BD00BF44
S31508007FD03018002060A700208C0902206C090220B6
S31508007FE050170020805101006AFD0D0886FD0D0816
S31508007FF09BFD0D08B9FD0D0870B500243248334BBA
S31508008000334E03606433436000F10803C0E902336A
S31508008010304BC0E90440836100F11C03C0E9073313
S315080080202D4BC0E90940C0E90B342C4BC0E90D447F
S315080080304364203383640523C0E92044C0E922440D
S31508008040C0E9644480F83C40046480F8744080F8D1
S315080080509841C0F89C4180F8A04180F8B84180F862
S31508008060D04180F8E841C0F81C321D4B32461D4904
S315080080701D4DC0F83832C0E98F4480F80042C0F878
S31508008080184280F8204280F84442C4F0A5FB3246E4
S3150800809016491748C4F0A0FB324616491648C4F0DC
S315080080A09BFB2846154B6C6040F8103B2C7227F05A
S315080080B04DFCC5E93444C5E9364432462846BDE890
S315080080C070400F49C4F088BB3018002058310E089C
S315080080D01009022065300108DD24010840FE0D085C
S315080080E0340A0F08C97E0008501700201F5C0808CC
S315080080F08C090220215C08086C090220542D0E0800
S31508008100097F0008012903BF034B00201B78A6201E
S3150800811008BF1370704700BFC1E10120022938B5B6
S3150800812014461D460FD1202200210848C5F0B2FA90
S315080081303CB1202D2A46214628BF20220348C5F0F7
S3150800814065F9002038BDA620FCE700BFA1E10120A3
S31508008150104608B56AB163B102290CD1202B28BF95
S3150800816020231A46029B05491A60C5F04FF90020DC
S3150800817008BD2F20FCE7A620FAE700BFA1E10120F1
S31508008180012905D102B11278024B00201A707047F6
S31508008190A6207047C1E101202DE9F0431D460023C2
S315080081A089B0074608460E461446CDE9053327F03A
S315080081B047F918B9D82009B0BDE8F083304605A9B3
S315080081C027F00AFA0028F6D1204627F039F90028C0
S315080081D0F0D0204606A927F0FFF90028EBD1DDE903
S315080081E00586079007A9124827F0F6F90446D8B974
S315080081F0079B18EB030902D10EB1C5F014F90093D9
S3150800820002213B461F20CDE901860A4A9AF0B1FDB4
S315080082106B689E420AD8324649462868C5F020FA55
S315080082206B689E42E9D86E602046C4E71924FBE7CE
S3150800823021720800B0FE0D08014827F01DBB00BFDB
S3150800824000720800002307B50348019301AB27F025
S3150800825017FA03B05DF804FB00720800014827F01E
S31508008260C7BA00BF0C72080010B506480C4627F0BE
S3150800827087F940F20123984202BF4FF6F173238033
S31508008280002010BD0C720800014827F0F5BA00BF9F
S315080082900D72080073B5002601AB0C480C4615464E
S315080082A0019627F0EDF940F20123984208D14CB126
S315080082B0062D09D920462946054A7DF032FD304665
S315080082C002B070BD0B20FBE71920F9E70D72080014
S315080082D0CEFE0D08014827F08BBA00BF0B720800C6
S315080082E010B506480C4627F04BF940F20123984290
S315080082F002BF48F205032380002010BD0B72080058
S31508008300014827F0B9BA00BF0E72080073B50026F7
S3150800831001AB0C480C461546019627F0B1F940F218
S315080083200123984208D14CB1062D09D92046294681
S31508008330054A7DF0F6FC304602B070BD0B20FBE71F
S315080083401920F9E70E720800D5FE0D08014827F036
S3150800835093BA00BF10720800002307B503480193BB
S3150800836001AB27F08DF903B05DF804FB1072080025
S31508008370014827F081BA00BF11720800002307B52B
S315080083800348019301AB27F07BF903B05DF804FBC2
S3150800839011720800014827F06FBA00BF1272080070
S315080083A0002307B50348019301AB27F069F903B029
S315080083B05DF804FB12720800014827F019BA00BFDD
S315080083C01872080010B506480C4627F0D9F840F28E
S315080083D00123984202BF01232380002010BD00BF5D
S315080083E018720800014827F047BA00BF0F72080044
S315080083F073B5002601AB0C480C461546019627F0C6
S315080084003FF940F20123984208D14CB10C2D09D905
S3150800841020462946054A7DF084FC304602B070BDE8
S315080084200B20FBE71920F9E70F720800DFFE0D089D
S31508008430014827F021BA00BF04720800014827F056
S315080084401FB900BF04720800014827F02FBA00BF01
S315080084501F72080007B500200090034827F066F948
S3150800846003B05DF804FB00BF1F720800014827F03F
S31508008470BFB900BF0772080013B510480C4627F0AD
S315080084807FF840F201229042034604D14FF470630C
S31508008490238000230FE070B92388B3F5805FF8D3F3
S315080084A04FF4C2732F240121CDE90034044A054B49
S315080084B09AF05FFC2346184602B010BD0772080002
S315080084C00CFF0D08ECFE0D08014827F0A9B900BFFE
S315080084D00872080010B506480C4627F07DF840F2E9
S315080084E00123984202BF4FF47A732360002010BD1F
S315080084F008720800014827F0BFB900BF09720800D2
S31508008500014827F0BDB800BF09720800014827F0E6
S31508008510B3B900BF0A720800014827F0B1B800BF16
S315080085200A7208000B4610B5084A0C46084809495D
S31508008530FFF732FED82807D119F0BCFF0368214699
S31508008540BDE810409B68184710BD00BF2772080099
S315080085501DFF0D08267208000B4610B5084A0C4682
S3150800856008480949FFF718FED82807D119F0A2FFCD
S3150800857003682146BDE810405B69184710BD00BF77
S315080085802572080039FF0D08247208000B4610B53D
S31508008590084A0C4608480949FFF7FEFDD82807D1BE
S315080085A019F088FF03682146BDE810401B69184783
S315080085B010BD00BF237208005FFF0D082272080075
S315080085C0022307B501A8D1E90012019364F018FC4B
S315080085D018B90199024827F023F903B05DF804FB9E
S315080085E0207208001FB5022003900698009003A881
S315080085F064F01EFC18B90399024827F011F905B072
S315080086005DF804FB20720800002370B5164886B092
S315080086100D461646049326F013FFE8B1124804A93E
S3150800862026F0DAFFB0B9049B3246002B08BF0223B6
S31508008630294605A8059364F063FC0446029073680E
S315080086401F2001936B6802210093084A049B9AF045
S3150800865090FB204606B070BD19F02CFF0368324621
S3150800866029469B699847E8E72072080078FF0D08B5
S31508008670014827F0D5B800BF21720800014826F046
S31508008680ABBF00BF21720800014827F0F5B800BF4C
S3150800869029720800014826F0F3BF00BF29720800B6
S315080086A0014827F003B900BF0572080007B5002086
S315080086B00090034827F03AF803B05DF804FB00BFC2
S315080086C005720800014827F07BB800BF2872080029
S315080086D0014826F029BF00BF287208000020094B70
S315080086E010B5186032B9084C2146BDE81040074855
S315080086F027F096B8A1F5005105488C189CF0B9FEEC
S31508008700F2E700BFE034012000E0170821720800F4
S315080087108055012000232DE9F04F85B080460F468D
S315080087202C4803A91546039326F056FF002838D18E
S31508008730294E039933681BB928489CF07BFE80BBF9
S31508008740D5E900143368039A02EB030B14F003030C
S315080087501BD10A462346594620489CF071FE00BBA9
S315080087604046316827F05CF8D8B93846696827F07A
S3150800877057F8B0B932686B680020134413F03F020B
S315080087801CBF40339B1A33600BE004F1040AAAEBC2
S31508008790030A5046019121F0A1FF0199814618B9B3
S315080087A0AC2005B0BDE8F08F2246C4F02FFEAAEB38
S315080087B00402FF2109EB0400C4F06CFF53464A4645
S315080087C0594606489CF03CFE0446484621F0AAFF56
S315080087D02046C4E721720800E034012080550120B4
S315080087E008B50A4602480349FFF794FF08BD00BFCB
S315080087F0227208002372080008B50A46024803498F
S31508008800FFF788FF08BD00BF24720800257208001C
S3150800881008B50A4602480349FFF77CFF08BD00BFB2
S315080088202672080027720800DFED0B7AB4EEE70A15
S31508008830F1EE10FA08B50CD9DFED087ADFED080A73
S3150800884030EE670A63F040FDDFED067A20EE270A70
S3150800885008BD9FED050AFBE7000084420000704250
S31508008860D46608BE70D9A44300007F439FED107AF2
S31508008870B4EEC70AF1EE10FAF0EE407A08B50AD857
S3150800888063F0F2FC9FED0B7ADFED0B7AE0EE077AE8
S31508008890B0EE670A08BD9FED090ADFED090A37EE53
S315080088A0C00A63F011FDDFED077A20EE270AF1E72B
S315080088B0000084420DF1C6429C1E2143000070420E
S315080088C087A79ABDA30F9043DFED117AB4EEE70AA6
S315080088D0F1EE10FA08B515DAF3EE037AB4EEE70A04
S315080088E0F1EE10FA11D9F2EE047A30EE670A63F067
S315080088F0BBFC9FED087ADFED087AE0EE077AB0EE6A
S31508008900670A08BD9FED050AFBE79FED050AF8E72C
S31508008910000084428A840A43BC85984300007F434A
S31508008920000000009FED0C7AB4EEC70AF1EE10FACB
S3150800893008B506D89FED097A60EE077AB0EE670AA1
S3150800894008BDDFED070A63F0BFFC9FED067ADFED91
S31508008950067AE0EE077AF1E7BD3A473B52B84E4150
S315080089605555D53E3D0A873FAE4761BDDFED117AC5
S3150800897020EE270A60EEA70ABCEEC07A21EE271A77
S3150800898086B08DED017ABCEEE07AFCEEC17A8DED0B
S31508008990027A0020CDED037A9DF8043063F30700D0
S315080089A09DF8083063F30F209DF80C3063F31740E9
S315080089B006B0704700007F43DFED3C7A10B5B0EE95
S315080089C0407A2DED048B20EEA70A9FED399ADFED4C
S315080089D0397A20EE899AA7EE270ADFED377AA7EECD
S315080089E0279ADFED367AA1EE279ADFED357A20EE63
S315080089F0A78ADFED347AA7EE278ADFED337AA1EE70
S31508008A00278ADFED327A82B0A1EE270A0446FFF7FD
S31508008A1089FF2046F0EE408AB0EE490AFFF782FF4A
S31508008A202046B0EE409AB0EE480AFFF77BFFF5EE17
S31508008A30C08AF1EE10FAB0EE401A2DD4F7EE007A9D
S31508008A40F4EE678AF1EE10FA77FEA88AB5EEC09AB8
S31508008A50F1EE10FA23D4F7EE007AB4EE679AF1EE47
S31508008A6010FA37FE899AB5EEC01AF1EE10FA19D443
S31508008A70F7EE007AB4EE671AF1EE10FA37FE811AAD
S31508008A80F0EE490AB0EE680A204602B0BDEC048B47
S31508008A90BDE81040FFF76ABFDFED0D8AD6E79FED08
S31508008AA00C9AE0E79FED0A1AEAE700BF86C9C4BF39
S31508008AB0C520F03F8B6C4F407E1D78BFC3642A3DAE
S31508008AC060E550BED3BC633DC74B873F8048FFBEB9
S31508008AD00000000007EE901A9FED267AF8EE677AF6
S31508008AE010B52DED048B87EE279A82B0B0EE490AB1
S31508008AF00446FFF799FE2046F0EE408AB0EE490A92
S31508008B00FFF7B4FE2046B0EE408AB0EE490AFFF7FA
S31508008B10DBFEFCEEE87A17EE903AFCEEC87A8DF8A2
S31508008B20003017EE903AFCEEC07A8DF8013017EE59
S31508008B30903A8DF8023000990022FF2320467DF0F6
S31508008B405FF98DF80000C0F30721034610468DF83B
S31508008B500110BDF80010C3F30743CAB262F3070059
S31508008B60C1F3072161F30F2063F3174002B0BDEC90
S31508008B70048B10BD00401C4606EE902A07EE103AFC
S31508008B80DFED105A07EE901AF8EE666AB8EE477AE5
S31508008B9086EEA56AF8EE677AC7EE256AB7EE001A7A
S31508008BA09FED097A31EE461AC7EE870A31EE661A44
S31508008BB080EEA60A21EE001A20EE060A82B002B05E
S31508008BC0FFF7FABE00FF7F4700007E43F7B50C4665
S31508008BD0074615461E467CF0A1FF01460B4826F0BF
S31508008BE061F888B123460221094A1D20CDE90056BD
S31508008BF09AF0BFF838467CF091FF2B46014622468C
S31508008C000248009626F058F803B0F0BD80550120BA
S31508008C10C3FF0D0807EE901A2DE9F041F8EEE77A42
S31508008C202DED068BDFED67AADFED679A07EE102AB2
S31508008C3067EEAA7AC7EEA98AF8EEC77A84B087EEF5
S31508008C40A99A80467CF06EFFB5EEC09A07EE900AA8
S31508008C50F1EE10FAF8EEE77A9FED5CAA87EEA98A9C
S31508008C6011D828EE0A8AFCEEC87ACDED017A9DF86D
S31508008C7004301A461946404604B0BDEC068BBDE8DA
S31508008C80F041FFF7A3BFF4EE6A8ADFED517AF1EE01
S31508008C9010FA67FEA88ADFED4F7AC8EEA79AFDEEAE
S31508008CA0E9AAF8EEEA7A18EE100A79EEE79A61F080
S31508008CB0CFFB044619EE100A0D4661F0C9FB0246C1
S31508008CC00B4606460F460020434961F061FA2246E4
S31508008CD02B4661F015FC61F0CDFE69EE297A08EEA7
S31508008CE0900A17EE900A61F0B3FB02460B46002085
S31508008CF0394961F04DFA22462B4661F001FC61F0D4
S31508008D00B9FE09EE100A19EE900A61F0A1FB0246B7
S31508008D100B460020304961F03BFA32463B4661F08B
S31508008D20EFFB02460B4600202B4961F031FA22463A
S31508008D302B4661F0E5FB61F09DFE1AEE902A07EEE0
S31508008D40900A042A36D8DFE802F0030720252C000B
S31508008D50B0EE489AB0EE678A68EE8A8A28EE0A8AE2
S31508008D60FCEEE87A29EE0A9ACDED017AFCEEC87A8D
S31508008D70CDED027AFCEEC97ACDED037A9DF8043082
S31508008D809DF808209DF80C1075E7B0EE689AF0EE8D
S31508008D90678AE1E7F0EE497AB0EE689AF0EE488A1B
S31508008DA0D8E7B0EE487AB0EE679AB0EE688AF0EE89
S31508008DB0478AD1E7F0EE497AB0EE489AB0EE688A6B
S31508008DC0E5E700BF0000B44300007E4300007F4390
S31508008DD000000000000070420000F03F37B50D4665
S31508008DE00446FFF777FEC0F30723C0F307428DF862
S31508008DF004008DF805308DF806202B4602211D202B
S31508008E00074A99F0B6FF20469DF806309DF80520DA
S31508008E109DF8041003B0BDE83040FFF7D7BE00BF89
S31508008E20DDFF0D087FB504460B460D4616460221A2
S31508008E3000921D200B4A99F09CFF20467CF072FE9A
S31508008E40334601462A462046FFF796FEC0F30743F7
S31508008E50C0F30722C1B2204604B0BDE87040FFF750
S31508008E60B5BE00BFF0FF0D08014822F077B800BF75
S31508008E70384C012008B500220249034899F010FC35
S31508008E80002008BD05810208E43401200A4608B915
S31508008E90FFF7F0BF0146014899F023BCE4340120EE
S31508008EA008B50222054906481FF05EFBBDE80840E2
S31508008EB00122044904481FF057BB00BFB4000E083E
S31508008EC0E4340120A8000E08F04A01200122024BD2
S31508008ED083F80421704700BFE434012000210446CA
S31508008EE000B589B01A2201A80091C4F0D3FB234625
S31508008EF0074A1E21684662F083FF6946054825F041
S31508008F0083FD68467CF0A1FFD2F038FCC4F08BFAEA
S31508008F10CC000E08E2000E082DE9F04F0446D0E911
S31508008F200076384B87B0D3F828B0D3F82CA0D3F8FE
S31508008F303490D3F83880D0E90253019303690121AC
S31508008F4002934369304A039383690493C3690020F3
S31508008F5005932E4B1B6899F00CFF5B4601210020F8
S31508008F602B4A99F006FF534601210020294A99F019
S31508008F7000FF4B4601210020274A99F0FAFE434696
S31508008F8001210020254A99F0F4FE234601210020FC
S31508008F90234A99F0EEFE00F023FB3B460121002010
S31508008FA0204A99F0E6FE3346012100201E4A99F030
S31508008FB0E0FE2B46012100201C4A99F0DAFE012129
S31508008FC00020019B1A4A99F0D4FE01210020029B39
S31508008FD0184A99F0CEFE01210020039B164A99F003
S31508008FE0C8FE01210020049B144A99F0C2FE012103
S31508008FF00020059B124A99F0BCFE00F0F1FAD5F064
S31508009000FCFEFEE700ED00E043010E08B440012037
S3150800901059010E086F010E0885010E089B010E08FE
S31508009020B1010E08C7010E08DD010E08F3010E088E
S3150800903009020E081F020E0835020E084B020E081A
S3150800904061020E08024B034A1A607CF0FFBE00BF9D
S31508009050B440012044524148024B034A1A607CF04E
S31508009060F5BE00BFB44001204655504D024B034A99
S315080090701A607CF0EBBE00BFB4400120465355424F
S31508009080024B034A1A607CF0E1BE00BFB4400120DF
S3150800909054465355024B034A1A607CF0D7BE00BFAC
S315080090A0B440012054464353024B034A1A607CF0ED
S315080090B0CDBE00BFB44001204E4D4244012108B543
S315080090C00020064B064A99F054FE00F089FAD5F0BE
S315080090D094FE0449044862F09FF8FEE777020E08FA
S315080090E0082C0F0813010E082A010E0800240D4645
S315080090F000B59BB06022214602A80194C4F0CAFAC2
S315080091002B466421094A01A862F07AFE012120460D
S31508009110074A01AB99F02DFE00F062FAD5F06DFE14
S315080091200449054862F078F8FEE700BF9A020E087F
S31508009130082C0F0813010E082A010E08034B0360BA
S31508009140034B0B604FF4A073136070475040012027
S31508009150503B0120034B0360034B0B604FF4A07395
S3150800916013607047EC3A0120EC35012000240D46C7
S3150800917000B59BB06022214602A80194C4F08AFA81
S315080091802B466421064A01A862F03AFE01212046D0
S31508009190044A01AB99F0EDFD00F022FAC4F043F958
S315080091A0AD020E08082C0F08024B034A1A607CF021
S315080091B04DBE7047B4400120474F44572A2108B591
S315080091C0024800F059F9B6F010FDFEE7BD020E0898
S315080091D0024B01211868D5F087BA00BF80410120EB
S315080091E00D4BD9889A8889B292B2914211D0D98802
S315080091F09A8889B292B291423DBF9A88D8881B89CB
S31508009200D8882DBF9B8813FA80F0801AC01A80B2BE
S3150800921070470020704700BFB8400120F8B50E46D9
S31508009220074608B9C4F0FFF8154D2C898C42F9D3C6
S31508009230FFF7D6FF201A80B286421BD8EB88E8884B
S31508009240E41AA4B2A6422B6815D92246394613FA5F
S3150800925080F0C4F0DBF82868321B3919C4F0D6F858
S31508009260EB8816FA83F12B89B1FBF3F203FB121193
S3150800927089B2E980F8BD3246394613FA80F0EDE73F
S31508009280B840012038B50446D5F0B1FF012105469E
S315080092900846D4F04FF82846D5F0A4FF0C480D4BE5
S315080092A02146B4F8002100684EF0FCFF4FF0FF326B
S315080092B000210120D5F059FAD5F099FF044600217E
S315080092C00120D4F037F82046BDE83840D5F08ABFEB
S315080092D0AC0E0220D1910008002370B5174CC2B01D
S315080092E0174DADF804318DF806314FF0FF330022E3
S315080092F0206801A9D5F0DEFC0028F6D19DF80661A4
S3150800930001A8FFF7BFFF4EB140F60D23ADF80430B4
S31508009310022301A8ADF80431FFF7B4FF2A6852B159
S31508009320084901A862F0A0FD0023ADF8040101A8D0
S315080093302B60FFF7A7FF00231A46D9E7144101203F
S3150800934018410120E7020E082DE9F843DFF850809E
S315080093501E46B8F800901546A3EB09070D4BFFB259
S315080093601C89FFF73DFF241AA4B2A74207D839463D
S3150800937005EB0900FFF752FF0023A8F8003006485E
S3150800938032462946054B00684EF0DAFEBDE8F8433A
S31508009390FEF73CBDB8400120AC0E022049930008F8
S315080093A0F8BB012070B5204E3468002C3BD14FF431
S315080093B082711E4A0A20D5F009FC1D4D1D4A2860F7
S315080093C021461D48D5F0C3F81C4B1D4A9C801A60DF
S315080093D04FF4807230601A81DC8008B9C4F023F833
S315080093E02B68002BFAD0174C8022174B1749206898
S315080093F04EF0A6FE8022144B154920684EF0A0FEBA
S315080094000B2051F03DFE0B2051F0F4FD1422114BB8
S315080094100521DA640422A3F580531A650E48BDE8CF
S315080094207040B6F001BA70BD80410120FC020E08FA
S31508009430144101201C030E08D9920008B8400120E7
S31508009440C2E10120AC0E0220499300086AF101200E
S31508009450EAF001200020015B0000015B08B5FEF779
S31508009460D5FC0421034B03F500521165D164DB6C6E
S3150800947008BD00BF0000015B70B50C460546C2B0CA
S3150800948018B94FF0FF3042B070BD4B1EFF2BF8D80D
S315080094900C4E33680BB9FFF785FF00232246294691
S315080094A001A88DF80631C3F0B1FF4FF0FF3318223B
S315080094B0306801A9ADF80441D5F0C8FB0028E0D111
S315080094C020B2E0E71441012010B50C46C2B00146AF
S315080094D0D0B1631EFF2B17D8224601A8C3F096FF0A
S315080094E001230B488DF8063118220023006801A9CC
S315080094F0ADF80441D5F0AAFB10B920B242B010BDB0
S31508009500044A1368013313604FF0FF30F6E700BFD3
S3150800951014410120184101200422F0B52C4B0C46B9
S31508009520074685B01A6500284FD000294DD0FFF7A9
S3150800953057FEA04219D2D5F06DFE05462548264E9F
S3150800954003AB01A9006802AAB6F0BFF833880299EE
S315080095508B4207D20198C91A184489B2FFF75EFEF2
S31508009560029B33802846D5F050FE1C4D2E89B44206
S3150800957001D9C3F058FFFFF733FEA04228BF2046A3
S31508009580AB8884B2F61AB6B2A6422B68A98817D257
S31508009590324613FA81F13846C3F038FF2968A21B10
S315080095A0B819C3F033FFAB882A8914FA83F3B3FBDF
S315080095B0F2F102FB11339BB2AB8020B205B0F0BDCD
S315080095C02246384613FA81F1EBE74FF0FF30F5E70C
S315080095D00010015BAC0E0220F8BB0120B840012048
S315080095E0002330B50B4CC3B00B4DADF804318DF8E4
S315080095F00631002320681A4601A9D5F05BFB08B19D
S3150800960043B030BDBDF80421286801A94EF0A4FB7B
S31508009610EFE700BF14410120AC0E02200A460146BE
S3150800962020B11AB1024B18684EF096BB704700BFBE
S31508009630AC0E022008B5082021F050F818B1002316
S315080096404360014B036008BD88030E0808B508206F
S3150800965021F044F818B100234360014B036008BDAC
S31508009660A4030E08436843B9054B0B6005234B60FA
S31508009670436801334360012070470020704700BFEC
S3150800968040030E08042370B5144645688AB0ADF841
S3150800969002302B680A4601A805499E687CF041FC01
S315080096A0224628460DF1020301A9B0470AB070BD4B
S315080096B046030E0830B54468134622688BB0156910
S315080096C001A80A4603497CF02CFC204601A9A847B4
S315080096D00BB030BD53030E0830B58DB04468019207
S315080096E023680A4603A80649DD687CF01AFC0423A9
S315080096F020460DEB030203A9A8470DB030BD00BFF5
S3150800970046030E08F0B5A3B0064617A81F460C4632
S31508009710154697F0D8FF2A2217A80CA997F0E6FF56
S315080097200DF10B03019315234FF48072009317A8CC
S31508009730002398F0F8F950BB97E80300154B8DE81D
S315080097400300D3E9002317A898F0C5FAF8B9D7E9B2
S315080097500201114B8DE80300D3E9002317A898F0FE
S31508009760BAFAA0B99DF90B1017A898F011FA70B9B2
S315080097707668224633680949DF6803A82B467CF0D9
S31508009780D0FB3046BDF874300CAA03A9B84723B0FD
S31508009790F0BD00BFF0030E08E8030E0853030E08D9
S315080097A013B5044608460A4B1146C4E9003000239F
S315080097B0C4E903330193036822815B6A01AA9847C7
S315080097C010B9019BC4E90303204602B010BD00BFCF
S315080097D06C030E082DE9F041D0E9033293420446A2
S315080097E00D469EB003D300201EB0BDE8F0812A26A0
S315080097F042683B495768ADF802603A68D2F8088073
S31508009800028910A87CF08DFB38460DF1020305AAE3
S3150800981010A9C0470028E6D110A897F097FA324653
S3150800982005A910A897F0D5FA4FF4807200231521E0
S3150800983010A897F067FE0028D5D10DF1010110A8F0
S3150800984097F09AFC0028CED1264BCDE90100D3E942
S315080098500023CDE9030010A897F047FE0028C2D1DF
S3150800986001AE314610A897F04AFD0028BBD11E4B21
S3150800987010A8D3E9002397F038FE0028B3D10DF1DC
S315080098800C08414610A897F03AFD0028ABD110A85D
S3150800989097F020FE0028A6D19DF9011010A897F090
S315080098A0C5FD00289FD196E8060004F1140704F1C7
S315080098B0250638467CF05BFB98E8060030467CF0C7
S315080098C056FB3846C3F037FEC5E900703046C3F08C
S315080098D032FEC5E90260E36801200133E36083E7ED
S315080098E053030E08F0030E08E8030E08F8B50546FC
S315080098F00E460024094FAC4206DB1EF095FF0849C8
S3150800990098F058FF0020F8BD1EF08EFF56F8242068
S31508009910394698F04FFF0134EDE700BFA6470F0818
S31508009920FA030E08F8B505460E460024064FAC4263
S3150800993001DB0020F8BD56F824303A4602211C20E7
S3150800994099F017FA0134F2E7082C0F0810B51EF043
S315080099506BFF044695F0E9F903490246204698F05C
S3150800996029FF002010BD00BFF8030E080322024994
S3150800997002481EF0F9BD00BF4C040E08F04A01204B
S315080099802DE9F04700240646E0B088464FF4BE723B
S31508009990214601A80094C3F07DFEA64228DD6D4647
S315080099A04FF0200958F824A05046C3F0C4FD60AB18
S315080099B02F189F4202461DD228465146C3F04CFD39
S315080099C07D1C60AB9D4204F101042CBF3D4687F81F
S315080099D00090A642E6D108489BF0DAFB6846CDF02F
S315080099E038F805489BF0D6FB002060B0BDE8F08744
S315080099F02F20FAE71920F8E780B000200122024953
S31508009A0002481EF0B1BD00BF98040E08F04A0120B6
S31508009A100122024B83F80421704700BF84410120CC
S31508009A2010B50446054B036000F5CF6099F0B9FF01
S31508009A3023690BB1C3F0F7FC204610BD54C20E08CB
S31508009A4070B504460B4B00F5387503F12C0203601C
S31508009A504C334260836000F11006B54207D055F8D2
S31508009A60080C283D0028F8D02BF0CEFBF5E7204659
S31508009A7070BD00BF04FB0E08A0F10400E0E7A0F1EA
S31508009A800800DDE710B5094B04460360084B836000
S31508009A90006948B143680BB9C3F0C5FC013B436094
S31508009AA013B903681B6B9847204610BD98050E0826
S31508009AB058070F0810B50446034B40F80C3BFFF750
S31508009AC0E1FF204610BD00BFBC050E08002200239A
S31508009AD010B5C0E90023C0E90223C0E904230D4BF1
S31508009AE004460021836121226030C3F0D3FD4FF67E
S31508009AF0FF720023A4F882204FF48072204684F86F
S31508009B008130A4F88420C4F888307CF01AFB2046FB
S31508009B1010BD00BFF0D60E0800F1080373B5044661
S31508009B200D46036011B91048C3F00EF80846C3F095
S31508009B3002FD0F2805EB0006019007D900222046F2
S31508009B4001A960F023F9019B2060A36032462946EB
S31508009B502068C3F047F800212046019B226863600D
S31508009B60D15402B070BD00BFA4040E0810B5044657
S31508009B70044B0360406A7CF06AFAE0687CF074FB88
S31508009B80204610BD48050E0870B5164605460C4613
S31508009B908CB0114668467CF0B9FA294630467CF006
S31508009BA027FA641B0A4BE4105C43694606A87CF056
S31508009BB0ADFA2246002106AB28467CF095FB06A89E
S31508009BC0C2F0D3FF6846C2F0D0FF0CB070BD00BF2C
S31508009BD0ABAAAAAA2DE9F04F4FF0180B0446174670
S31508009BE00E468DB000EB0B08351BB5F5C07F22DDA0
S31508009BF03F4BED105D4367BB4FF01808AF1E7F1053
S31508009C00684608FB07417CF081FA694606A87CF09D
S31508009C107DFA20462A46394606AB7CF065FB06A83F
S31508009C20C2F0A3FF57B96846C2F09FFF331B182B33
S31508009C30A6F1180607DC0DB0BDE8F08F6846013FAF
S31508009C40C2F093FFDCE7324631462046FFF79CFF19
S31508009C50ECE76D100BFB0545404629467CF03FFBBB
S31508009C60A6F11809C246494660B128467CF037FB7A
S31508009C7008B129460BE0494640467CF030FB28B13E
S31508009C80494604E040467CF02AFB10B3414620468C
S31508009C90C2F0E8FF3546504621467CF020FBD14607
S31508009CA00AF1180A0028F6D1A5F1180A51462046E5
S31508009CB07CF015FB5546AAF1180A0028F6D1A945E5
S31508009CC00ED3013F31463A464846FFF783FF4E46D4
S31508009CD08AE7494628467CF002FB0028C9D0CFE728
S31508009CE029464846C2F0BEFF09F1180AD3E700BF65
S31508009CF0ABAAAAAA2DE9F043884205460E4687B0C4
S31508009D0005D0DFF8608000F11804A64202D107B03A
S31508009D10BDE8F083294620467CF0E1FA04F11807ED
S31508009D20E0B1214668467CF0F1F9B946641BE410B7
S31508009D3008FB04F4002C08DC284669467CF058F930
S31508009D406846C2F012FF3C46DFE7A9F13001A9F1E7
S31508009D50180948467CF04CF9013CEBE720467CF0B4
S31508009D6027FBF0E7ABAAAAAA2DE9F041036886B05B
S31508009D709B6A0446984701210346394A242098F0ED
S31508009D80F8FF236821466846DB6A9847039E002445
S31508009D9030460DF10408404505D1324B9C4206DD9C
S31508009DA03148C2F0D4FEC2F075FD0134F3E7182736
S31508009DB067431CB13846B6F077FB04462546464548
S31508009DC02CD1AC4217D0294B2E1BF2105A43B2FAAB
S31508009DD082F2C2F11F02294620465200FFF7FAFE18
S31508009DE0B6F5C07F2ADD04F5C07631462046FFF772
S31508009DF081FFB5421DD12646DFF87480B54222D1CF
S31508009E002646B54227D11CB139462046B6F05CFB3A
S31508009E1002987CF01CF906B0BDE8F081284606F1E8
S31508009E2010017CF033F93046C2F034FD1835064689
S31508009E30C5E730467CF0BCFA1836DAE729462046EC
S31508009E40FFF758FFD7E742460121242056F8183B6A
S31508009E5098F08FFFD2E73046C2F087FE1836D0E773
S31508009E60D6040E085555550507050E08ABAAAAAA25
S31508009E7038050E08F8B50025474C60199035FFF7E8
S31508009E8025FEB5F5347FF8D100254448FFF71EFEB8
S31508009E900026C4E9D855C4E9DA55A4F87053C4F8BD
S31508009EA0745384F8785384F8805384F88253A4F85A
S31508009EB08453002712243A4A3A493748C2F08CFCA0
S31508009EC0394B3A4A1A6002F12C014C32C3E9022591
S31508009ED059601033102218460021C3F0DBFB41F20B
S31508009EE0A4520346013CC0E90667057442824561EF
S31508009EF0056203F12803EDD1294A2D492A48C2F003
S31508009F006BFC2C481FF078F8254A2B492948C2F0E3
S31508009F1063FC2A482CF020F9214A29492748C2F02F
S31508009F205BFC2848284B1E4A2849C0E901440360BF
S31508009F300473C2F051FC2648264B194A036000F107
S31508009F400803C0E90433244900F12003234DC0E97E
S31508009F500A330472C460846180F820404462046352
S31508009F6080F834408463C2F037FC1D4B21462B60D1
S31508009F701C4B102205F11800EB60C5E901442C6161
S31508009F80C3F088FB184BEC616B612846BDE8F840C6
S31508009F90034A1649C2F020BC18360020E8380020CB
S31508009FA0100902209F6108083833002004FB0E08B8
S31508009FB0419A0008882B0020219A0008801A002060
S31508009FC051630308F0420120340A0F08715E030842
S31508009FD0B442012048050E086D9B00088C420120FA
S31508009FE0BC050E0898050E0858070F08B59A00080C
S31508009FF070B5036805460C4616460BB1032070BDBE
S3150800A00002210D20074A98F0B4FE0CB92F20F6E776
S3150800A01023682046DB6898470028F0D1C5E9004642
S3150800A020EDE700BFC8050E082DE9F04F07460068A2
S3150800A0308BB004680D46646C90461E46A0472D28D2
S3150800A04004460ED048B19F4A9F4B0221A52808BF57
S3150800A05013460D209D4A98F08CFE20460BB0BDE8AD
S3150800A060F08F6B78202B01D10024F6E7984B3868DF
S3150800A070029358B103682A461B6C02A998470446FE
S3150800A08030B1029803689B689847E6E70324F8E727
S3150800A0904FF0000A4FF0000B8E4B0393029803A96A
S3150800A0A00368DB68984730B102210D208A4A98F088
S3150800A0B060FEA52410E08DF8060003980DF1060150
S3150800A0C00368DB689847044630B99DF80630402B8C
S3150800A0D006D0802B04D0032403A87CF078FCD0E7B4
S3150800A0E06A789A42DAD1012303988DF80730036813
S3150800A0F00DF107015B69984704460028ECD19DF8E5
S3150800A1000730082B18D8002BC8D0013B072BC5D819
S3150800A11001A252F823F000BF51A1000863A100086C
S3150800A1209DA000086FA100089DA000089DA000083A
S3150800A1309DA000088DA10008102BAFD1102E1AD0B3
S3150800A140082EABD84FF48B73F340D807A6D512E088
S3150800A15006F1FF3CDCF1000343EB0C03002B9DD01A
S3150800A16009E0731E012B8CBF00230123F6E7042E9A
S3150800A17001D0012E92D1002303980493036804A901
S3150800A1805B6A9847814648B14C46A5E7082E85D8AC
S3150800A1906FF489733341DC07EDD57FE7049B1BBB5E
S3150800A1A0002303980593036805A99B6B9847814686
S3150800A1B00028E9D1059B002B7FD100248CE74FF0BE
S3150800A1C0FF31C21C994274EB020243D39DF8062064
S3150800A1D0402A80D14FEA134C05F10C0105F1180409
S3150800A1E08C4229D109F10109049B4B457FF656AFEC
S3150800A1F0CDE906AB03984946036806AA9B6A9847C1
S3150800A200044600287FF468AFDDE906306FF0010CDC
S3150800A2105A1E40F1FF3194456FF010028A41CED3A1
S3150800A2209DF80620402A7FF456AFD5E902129042DF
S3150800A23008BF8B42D6D1B3E751F8042F002ACFD0F6
S3150800A240BCEB124FCCD198B20028C9D092B290423A
S3150800A250C6D8A5E713F5803F70F1FF32FFF43BAF90
S3150800A2609DF80620802ADEE70023039806930368F4
S3150800A2704946DB6B06AA9847044600287FF42CAFAC
S3150800A280069BD90704D5D8F800200799914212D120
S3150800A2909A0705D5BDF82010B8F8042091420AD1CE
S3150800A2A05B078AD57868B8F80420036809999B681B
S3150800A2B09847002881D109F10109059B4B45D3D858
S3150800A2C0ECE600BF10060E085BA80F08E4050E08AA
S3150800A2D0940902209809022001060E080023F0B509
S3150800A2E08BB0CDE90433054600688DF80D308DF83E
S3150800A2F00E308DF80F3003680DF10D01DB689847B5
S3150800A3000446002840F0C78028680DF10E0103684E
S3150800A3101B6998470446002840F0BD8028680DF15F
S3150800A3200F0103685B6998470446002840F0B3802C
S3150800A330286804A903685B6A98470446002840F021
S3150800A340AA80286805A903689B6B984704460028D5
S3150800A35040F0A1809DF80E30002B00F09E809DF8FD
S3150800A3600D30402B07D0802B40F09E809DF80F3093
S3150800A370102B00F09B802646049BB34207D8002684
S3150800A3804B4F059BA3423AD801200BB0F0BD286875
S3150800A3903146036806AA9B6A9847002879D19DF832
S3150800A3A00D30402B16D1DDE906326FF0010C591E2F
S3150800A3B042F1FF378C456FF01001B94108D24FF0D2
S3150800A3C0FF310332994270EB02020CD39BB253B1B0
S3150800A3D00136D1E7802B06D1069B079A13F5803FF5
S3150800A3E072F1FF32F1E7334B0446002856D00121BB
S3150800A3F00D20314A009498F0BCFC0020C5E7286877
S3150800A400069603682146DB6B06AA9847002840D1C2
S3150800A410069B03F0020103F00402DB0710D411B116
S3150800A420F2B1264BE0E7002AFBD0099B03EA0702B4
S3150800A43012F5003FF5D89BB2B3F5404FF1D215E0BF
S3150800A44009B1002AEDD1079B13F5302F4FEA134CBB
S3150800A450E7D2BCF1000F0BD11B0410D56046E0E72C
S3150800A4604FF6FF73BDF820209A42DAD0013488E708
S3150800A47040F2FE3C03F580639BB26345D1D829B10F
S3150800A4804FF6FF73BDF820109942CAD0002ACCD1E6
S3150800A490ECE70B4BA8E70A4BA9E70A4B01210D206D
S3150800A4A0094A98F066FCA8E7084BF7E7084BF5E772
S3150800A4B00000FFFF28060E0880060E0838060E085C
S3150800A4C017060E086B060E0896060E0859060E089D
S3150800A4D047060E082DE9F0430546006887B088460A
S3150800A4E01F468DF80F2020B90324204607B0BDE883
S3150800A4F0F083DFF86490AB68CDF81490EBB90026CA
S3150800A5002868394603680DF10F02DB6B9847044645
S3150800A51078B91EB133684B4508BF00260223414669
S3150800A520CDE9006328463B469DF80F207CF08AFA61
S3150800A530002405A87CF04BFAD7E79DF80F3039467A
S3150800A5408DF81330036805AA5C6B0DF11303A04759
S3150800A5500028D4D105AED3E798090220034B186822
S3150800A560034B002808BF1846704700BF0443012064
S3150800A5700843012010B5044602210D20024A98F02E
S3150800A580F8FB024B1C6010BDA8060E080443012008
S3150800A59010B5094C094922460948C2F01DF9224658
S3150800A5A008490948C2F018F92246BDE8104007498B
S3150800A5B00748C2F011B900BF100902209D690808B2
S3150800A5C008430120AF69080898090220B1690808FC
S3150800A5D0940902200023F7B5CDE900334AB96E463F
S3150800A5E001AB15240E4A013C06D11423036003B0BF
S3150800A5F0F0BD6B4601AEF4E71578002DF5D0557819
S3150800A6008D4206D107683568AF4207D0019D0135EE
S3150800A6100195009D403201350095E4E71B68E5E7A2
S3150800A620E039002007B5019021B10122097801A877
S3150800A630FFF7D0FF019813280AD8064B820103EBCF
S3150800A64080109B5C002B08BF002003B05DF804FB5C
S3150800A6500020FAE7E03900200023152010B5136022
S3150800A660074B013801D1002010BD1C78002CFAD008
S3150800A6705C7840338C4202BF146801341460F0E7FA
S3150800A680E039002000231A4610B50648B3F5A06F36
S3150800A6900A6001D1002010BD4033C45C002CF9D0FB
S3150800A6A00132F3E7A03900200868114B70B59842CB
S3150800A6B00E46154603D303F10C02904214D31B79B8
S3150800A6C0A3B90B4C03689B6898470123002D346097
S3150800A6D0237108BF00234FF00000637118BF2B7861
S3150800A6E0A06018BFA37170BD0446EBE71920FAE70E
S3150800A6F01843012002210D20014A98F03ABB00BFF9
S3150800A7002C070E0838B502210D20074A98F031FBB0
S3150800A7100024064D60194034B4F5A86F01D1002015
S3150800A72038BD7CF033FAF5E754070E08E039002007
S3150800A73038B50B4B0C46984202D30C33984201D3DA
S3150800A740C2F071FE85680FCD0FC40FCD0FC40FCDB3
S3150800A7500FC495E80F0084E80F00002038BD00BF3D
S3150800A760A00902202DE9F041144C1F460E46152378
S3150800A770A046013B01D119201EE0217871B1403471
S3150800A780F7E763783B70B6B1A4EB0804A41134600C
S3150800A7902A4630463978FFF71DFF0CE02146106837
S3150800A7A0FFF7C6FF054630B9002FEAD11EB1A4EB64
S3150800A7B00804A41134602846BDE8F081E039002079
S3150800A7C0064B984203D303F10C02904204D39B68CC
S3150800A7D00248002B18BF0020704700BFA0090220BE
S3150800A7E010B50868FFF7ECFF80B18268084B0AB11C
S3150800A7F09A4206D21B784BB9054A7CF00EFA00201D
S3150800A80010BD03F14004A242F4D2F6E71920F7E797
S3150800A810A039002038B5114A83684BB9104B8360BC
S3150800A8208468944201D0237833B982600A2038BDFF
S3150800A8309342F5D24033F2E743791BB165788379C1
S3150800A8409D42E9D10868FFF7BBFF20B122467CF09C
S3150800A850E4F90020EBE71920E9E700BFE03E002015
S3150800A860E0390020F0B50E4F84680646BC4205D391
S3150800A87007F140039C4201D20020F0BD3B7863B942
S3150800A880074D0FCC0FC50FCC0FC50FCC0FC594E8DD
S3150800A8900F0085E80F00B760EEE71920EDE700BF67
S3150800A8A0A03900202DE9F0410E4611463046FFF743
S3150800A8B0B9FE0446002842D0224FBB68984202D10E
S3150800A8C03846FFF7CFFFDFF88C80444516D204F1EF
S3150800A8D0400CC4450FD294F8403063B165460FCD9D
S3150800A8E00FC40FCD0FC40FCD0FC495E80F0084E831
S3150800A8F00F006446E9E720467CF048F9124CBB682D
S3150800A90004EB86169E4212D003D2434501D2403B41
S3150800A910BB600E4A93689E4206D8434504D2A342BA
S3150800A9200CBF0023403B93600020BDE8F0817D68A2
S3150800A930286803689B689847054B2B60E9E70A2057
S3150800A940F3E700BFA0090220E039002018430120E0
S3150800A95098090220E03E00208268054B00219A42B1
S3150800A96003D340339A4238BF11708160704700BFE5
S3150800A970A039002010B5094CD4E8AF3FDB070BD44B
S3150800A9802046A1F018F938B1054A06490648C1F02B
S3150800A99023FF2046A1F014F9034810BD14430120F3
S3150800A9A010090220636C08089C09022010B5084C9F
S3150800A9B0084922460020C1F00FFF0020064B074A2F
S3150800A9C018711A6006492246BDE81040C1F004BF56
S3150800A9D010090220696C080818430120D8070E08D8
S3150800A9E00F6D080870B5104ED6E8AF4F14F0010485
S3150800A9F018D13046A1F0DFF8A0B10C4D0C4A2B4611
S3150800AA0007CA43F8044B83E807004FF6FF722A8209
S3150800AA104FF0FF321846C5E905247CF0CDFA3046DA
S3150800AA20A1F0CEF8014870BD244301202843012037
S3150800AA306C080E0838B5054604300C467CF0BCFA9E
S3150800AA402A6813461BB9E26001202C600DE098685D
S3150800AA50A16888420ED1197909B1217931B9232023
S3150800AA600121054A98F085F9002038BDD888E18883
S3150800AA708842F4D0DB68E5E738080E082DE9FF417F
S3150800AA800A9F884616461D4698F096F904460028F9
S3150800AA903FD0D6E900010026231DD8F80020C4E9D6
S3150800AAA00133C4E906011D4B267323602661226221
S3150800AAB004F1280C95E80F008CE80F002B7C04F1B4
S3150800AAC0480084F838306B8A63876B69E363D5E995
S3150800AAD00623C4E91023124B04F1580519680B68BC
S3150800AAE09B68984700220023C4E9142301AB97E822
S3150800AAF0070083E80700012385E80700A4F87430F7
S3150800AB00084B84F8646084F8686084F86C60A6670B
S3150800AB102360204604B0BDE8F08100BFC8080E08CF
S3150800AB20840B022010090E08094A08B5026002695A
S3150800AB300AB1C2F078FC074A011D026082688A429F
S3150800AB40F7D141680029F4D04A604368136008BD0C
S3150800AB50C8080E0880080E0810B50446024B0360A4
S3150800AB60FFF7E2FF204610BD10090E08F7B50C46A0
S3150800AB70114B0546196868460B689B689847D4E9DF
S3150800AB801421009B20469F1A019B63EB01067CF06B
S3150800AB90F2FD038920469F4276F1000309D27CF034
S3150800ABA0EAFD0430036828462B6000236B6003B077
S3150800ABB0F0BD7CF0E0FDF5E7840B02202DE9F043BB
S3150800ABC007460E46154698466FF001096FF01004C1
S3150800ABD08BB094F079F8421E41F1FF33914574EB3E
S3150800ABE00303F6D300231836CDE904010293304651
S3150800ABF02B46CDF8008004AA02A9FFF73FFF0446BA
S3150800AC0050BB4FF0FF324FF0FF33CDE9062306ABBA
S3150800AC1003900893304603AB1C4A08A9099398F099
S3150800AC2033F9039C2CB900233B7038460BB0BDE8BA
S3150800AC30F083236820461B6898472146304698F0DB
S3150800AC4001F92B463046CDF8008004AA02A9FFF781
S3150800AC5015FF04460028E6D095E80F0004F12806FB
S3150800AC6086E80F002B7C204684F838306B8A638789
S3150800AC706B69E363D5E90623C4E9102301233B7016
S3150800AC8023687C60DB689847CFE700BFDD76080855
S3150800AC90084B10B5036018334360044608307CF04F
S3150800ACA0DEFD014620B9606900F5CF6098F08FFE99
S3150800ACB0204610BD58090E08A0F10400E8E700BFB9
S3150800ACC010B504460221074A0D2098F052F8FFF7FE
S3150800ACD045FC04F114017BF090FE2046BDE81040C7
S3150800ACE08CF0CBBA7C090E0800B5084B89B00493E2
S3150800ACF0042305930023039204490422009303A81E
S3150800AD008CF075FA09B05DF804FB00BF6C0A0E08F2
S3150800AD1038B50C46054602210D20084A98F029F850
S3150800AD20214628468CF0BBFA044628B9FFF716FCDC
S3150800AD3005F114017BF053FE204638BD9B090E0829
S3150800AD4000B50D4B8DB0CDE90631ADF820200023B6
S3150800AD501F22CDE90923012391F83C208DF82C30D8
S3150800AD608DF82D200093024606AB08A902A80CF020
S3150800AD70B5F80DB05DF804FB600A0E082DE9F04F32
S3150800AD8014460027B9B006461D460397FFF7E6FBAB
S3150800AD902269042A08D8042A10D8DFE812F013001A
S3150800ADA00F00F800210128014FF6FC739A4200F0C3
S3150800ADB023814FF6FD739A4200F0208140F28652B5
S3150800ADC0326064E0904B05A90493904B16A805934E
S3150800ADD07CF097FE0123284685F844307CF06EFB0C
S3150800ADE0044600284BD10BA80A9596F06CFC8848B7
S3150800ADF07CF063FE074648B1864FB7F8643907F515
S3150800AE000B6703F00503052B18BF0027002205234F
S3150800AE10DFF80482CDE908234046CDE906877CF0B1
S3150800AE204CFE10B906A87CF058FE4FF09009089C15
S3150800AE30052C0AD128467CF086FB00244FF6FF73C2
S3150800AE4085F84C40A5F84A3019E009FB048494F8C3
S3150800AE5081A047B138467CF030FE20B197F88130A2
S3150800AE60534508BF3C4694F88140FFF777FB0068D6
S3150800AE708DF8084088B928467CF065FB032405A8A8
S3150800AE807BF0A5FD049803689B6898473460002307
S3150800AE903046337139B0BDE8F08F036802AA1B6CDF
S3150800AEA004A998470446CCB158E0169B8DF808408B
S3150800AEB0186802A903681B6998479DF80830002B93
S3150800AEC063D00A9B93F84530B3B9DDF828A00BA9DF
S3150800AED050469AF808B07CF05DFBE0B9049805A9DD
S3150800AEE00368DB68984704460028DED00A2835D16F
S3150800AEF006A87CF0F2FD9AE7169B8DF808401868BC
S3150800AF0002A903681B6998470A9A9DF80830127ABD
S3150800AF109A42E3D1D9E79AF84630DAF800107BB1BD
S3150800AF20096C4FF480720023CDF800B016A88CF097
S3150800AF309DFC044601460BAA50467CF044FBB2E74A
S3150800AF40DAF840300AF1280202A87CF071FA0446C1
S3150800AF5040B1214650460BAA7CF035FB28467CF0CA
S3150800AF60F2FA8CE7DAF800300222196C16A80023E8
S3150800AF70CDF800B08CF07AFC04460028E9D1DAF85E
S3150800AF80001002A87CF08CFAD3E77124E6E7006883
S3150800AF90002836D003689B6903A99847024600280B
S3150800AFA07FF40EAF0123296885F8443005F128029D
S3150800AFB02B6C16A8039C7CF03BFA034670B92A68EA
S3150800AFC0106CCDE900430222002396F00EFD0346DD
S3150800AFD020B9296816A87CF063FA0346336056E759
S3150800AFE0006800283FF4ECAE0368DB69D4E703A9E0
S3150800AFF000687CF05CFDD1E70397D3E7022303934F
S3150800B000D0E70322DCE600BF940902209809022053
S3150800B01010A0002060970020409D00202DE9F041F7
S3150800B020D0F80C80B2B00546DDE938760C46B8F1A2
S3150800B030000F29D041B3402200216846C2F02AFBFE
S3150800B0402378012E8DF83C3002D18DF8146001E08A
S3150800B050022EFAD06378402B19D1D4E90223CDE920
S3150800B060002301238DF80830002F3FD0394610A859
S3150800B0707CF047FD10A88CF011FB034680B1012136
S3150800B0800D201C4A97F075FE32B0BDE8F081202BE2
S3150800B09001BFA368ADF8103001238DF81230E3E73D
S3150800B0A0BDF8443012AAADF8183007AB07CA83E8D2
S3150800B0B007000AAB15AA07CA83E807009DF860309F
S3150800B0C08DF834301BB19DF861308DF835309DF818
S3150800B0D0623000228DF8363001238DF83830EB685F
S3150800B0E0DB6869461868FFF72BFECDE73A46D8F8BD
S3150800B0F00C30F6E7BE090E082DE9F84391F83870CA
S3150800B10004460E464FF000080FB191F83980002525
S3150800B11004F10809484695F019FE31464846256067
S3150800B12095F029FE84F840700FB184F84180074BEA
S3150800B130A4F85050A36484F8905084F8D05084F84A
S3150800B140D85084F8DA502046BDE8F88398090220DA
S3150800B1502DE9F04190F9343006460133A6B003D103
S3150800B160002026B0BDE8F0810368002BF8D100F175
S3150800B1700808404696F08EF9074630600028EFD159
S3150800B180204C0146942201A80094C2F083FAB06CC0
S3150800B19004AD03689B6898470FCDB46406F158045C
S3150800B1A0A6F850700FC40FCD0FC40FCD0FC495E885
S3150800B1B00F0014AD84E80F000FCD06F198040FC4F4
S3150800B1C00FCD0FC40FCD0FC495E80F0084E80F000C
S3150800B1D0684686F8D87086F8DA707BF0F8FB414640
S3150800B1E006F148008CF050FA30600028B8D196F87D
S3150800B1F040302BB1B06C96F841100368DB6998476C
S3150800B2000120AEE798090220F0B5CFB007460E46F2
S3150800B2100D7AFFF7A3F9006838B1036829465B6A17
S3150800B22003AA984718B104461EE00320FBE7FFF778
S3150800B23095F904A900687CF03AFC0446A0B9BB7BE2
S3150800B240012B00F2838006A895F080FD2246214650
S3150800B25006A895F0BEFD304606A98DF850407CF04C
S3150800B26065FC074618B1044620464FB0F0BD9DF967
S3150800B2704430013321D1059006A916A8FFF73CFFF3
S3150800B28016A8FFF765FF28BB169C28A8212C2BD1EA
S3150800B2907BF09DFB06A916A8FFF72EFF06F108040A
S3150800B2A016A8FFF755FF20BB169C212C4CD0002C66
S3150800B2B04AD028A87BF08BFBD6E705A906A896F006
S3150800B2C051F90028AFD1DDE904329A42D4D940F2C7
S3150800B2D08954C9E728A8FFF701F80028D0D128A87B
S3150800B2E07BF075FB2F24BFE77BF071FB002CBBD1ED
S3150800B2F0D0E7039BBB420BD9FFF730F928AB009385
S3150800B3002A463B4621467BF0FDFB58B10446D0E76A
S3150800B310FFF724F928AB00932A46002321467BF041
S3150800B320A8FBF2E70137BBE7013B0393FFF716F9E2
S3150800B3302A463146039BFFF7CDF80028E6D1039B42
S3150800B340BB42F1D80024B4E70836F8E7042B2FD11E
S3150800B350039B049A01339342B9D8164BADF86000A3
S3150800B360169301233371337A8DF8A0008DF8E00027
S3150800B3708DF8E8008DF8EA0016AFB3B138463168A3
S3150800B3808CF082F9044670B9169816F8081F0368F7
S3150800B390DB699847FFF7E2F823462A4631460097C5
S3150800B3A07BF067FB0446384684E740F27E54FAE7AA
S3150800B3B06C2459E798090220F0B517690E46044629
S3150800B3C0194685B0BFB902F10800FFF71DFF2F28FF
S3150800B3D0034613D0D82811D00B2819D000228DF88F
S3150800B3E00C20039A2046009231463A468BF07CFFA1
S3150800B3F0204605B0F0BD4FF4B163EFE7872501217C
S3150800B4000D20044A009597F0B4FC45F4A063E5E7DF
S3150800B4108925F4E7E5090E08034B53F81C090028AB
S3150800B42018BF1846704700BF6043012008B50C488E
S3150800B43002680AB1C1F0F7FF1F21A0F11C0340E919
S3150800B44005120849C3E9073240F81C1C483140F880
S3150800B450182C40F80C2C40F8042C40F8081C08BDA1
S3150800B46060430120040A0E087FB5094B1F22019389
S3150800B4704FF00113CDE903230023ADF8080001A915
S3150800B48002A8ADF8143093F061FC07B05DF804FB30
S3150800B490940A0E0808B502487CF083FB08BD00BF75
S3150800B4A044430120024A03490348C1F095B900BF45
S3150800B4B010090220CD7B08084443012000B5084B3B
S3150800B4C089B00493032305930023039204490322B6
S3150800B4D0009303A88BF08BFE09B05DF804FB00BF50
S3150800B4E0FC0A0E0810460249022297F083BD00BFE7
S3150800B4F0EC0A0E087FB516690546022E1C464DD085
