S02B00002F686F6D652F686164796C69752F53696D706C696369747953747564696F2F76365F776F726B73702F
S31508006000081200200D7D0308C1940A08459000086F
S315080060101BED0B086D90000881900008959000080C
S31508006020C1940A08C1940A08C1940A08F1790D08AE
S31508006030A990000810E80E0895790D08B9B70D085B
S3150800604085790308C1940A08C1940A08C1940A0804
S31508006050C1940A08C1940A08C1940A08C1940A0896
S31508006060C1940A08C1940A08C1940A085D940008F4
S31508006070C1940A08C1940A08C1940A08C1940A0876
S31508006080C1940A08C1940A08C1940A08C1940A0866
S31508006090C1940A08B9580508C1940A08C1940A089F
S315080060A0C1940A088550050865500508C1940A0870
S315080060B0C1940A0829220808FD2A080805700D084F
S315080060C001700D08712208081B700D0809700D086B
S315080060D0CD2A08080D700D083D2B0808A52B0808C1
S315080060E0C1940A08C1940A08A9910008C1940A082B
S315080060F0A1E10B08C1940A08C1940A08C1940A08C8
S31508006100C1940A08C1940A08C1940A08C1940A08E5
S31508006110C1940A08C1940A08C1940A08C1940A08D5
S31508006120C1940A08C1940A08C1940A08C1940A08C5
S31508006130C1940A08C1940A08C1940A08C1940A08B5
S31508006140C1940A0889400608C1940A089DC70D0823
S31508006150590C0808C1940A08E56F0D08EB6F0D087D
S31508006160C1940A08C1940A08C1940A08C1940A0885
S31508006180F0B5114A114C124E00F00105E3695F079C
S3150800619013D40DB9334213D103EA00078F4207D14E
S315080061A00B4A1A40002A0CBF00206FF00100F0BD10
S315080061B0013AEBD16FF00200F9E74FF0FF30F6E74E
S315080061C06FF00100F3E700BF8096980000000350C7
S315080061D00200010070B50B4BD96911F480310DD15D
S315080061E001244FF48072084E084DF46020462C6452
S315080061F01A61FFF7C5FF3464EC6070BD6FF00100EB
S31508006200FBE700BF000003500010035000200350B6
S315080062104FF4803238B50E4B0E4C9A66E56941F656
S31508006220713315400122E3630B4B0021DA60022328
S31508006230606121202361FFF7A3FF10B92120FFF732
S315080062409FFF0122054BDA600DB10023E36338BDD9
S315080062500090005000000350001003500020035027
S3150800626070B5134C6061E3695B071ED40E4656F899
S31508006270043B8D18A361AE420BD1042300212120D3
S315080062802361FFF77DFF58B9BDE870402120FFF76D
S3150800629077BF08210846FFF773FF10B1042323616F
S315080062A070BD56F8043BA361E5E74FF0FF30F7E70A
S315080062B0000003502DE9F84315464FF48032184B79
S315080062C089469A6603F51C33DF690646174041F688
S315080062D07132DA63012203F58053DFF84C80DA6005
S315080062E055B9284601220F4BDA601FB10022A3F5E3
S315080062F00053DA63BDE8F88306F5005404EA080497
S31508006300A41BAC4228BF2C46494622463046FFF716
S31508006310A7FF0028E6D12644A1442D1BE0E700BFCD
S31508006320009000500020035000E0FFFF000000002E
S31508006330000000000000000000000000000000004F
S31508006340013800D0FCE770472DE9F04F2DED028BA0
S315080063501D4613690646052BD5B00BD8013B01220D
S315080063600024042B23D8DFE813F04100290130016B
S315080063703F0152014FF6FC72934212D04FF6FD725E
S3150800638093424FF0010340F0448102200021CDE9F9
S315080063903E0185F8443028463EA980F029F9306048
S315080063A086E000230022CDE93E230123F1E7CB69ED
S315080063B0284685F844202C937FF0B4FB0028EED1BC
S315080063C03FA83E9599F0B3FC3EA92CA884F042FD5F
S315080063D0044628467FF0EBFB2046002CDFD14FF61B
S315080063E0FF7385F84C40A5F84A30D8E7D1F81C80E9
S315080063F0284685F844207FF095FB0446002856D1A8
S3150800640013A8129599F093FC41460AA882F095FEC6
S3150800641005232246414600930EA884F080FC2746B1
S315080064209FED7F8BDFF800A20EA90AA884F08EFCE8
S31508006430044648B928467FF0BAFB4FF6FF7385F83D
S315080064404C40A5F84A3032E00AA882F046FE8DEDA7
S31508006450228B8DED248B90F88190CDE92677CDE9B6
S315080064601E77ADF880708DF8A0708DF8AC90D0E9E5
S315080064700023CDE92423B0F8823000F16004ADF89A
S315080064808030D0E9022320212046CDE92223C4F01A
S31508006490D3F94946CDE926402CAA4046CDF8B0A006
S315080064A092F0E8FF044658B128467FF080FB346036
S315080064B000233371304655B0BDEC028BBDE8F08F32
S315080064C02DAB1E9341230DF1080B1F933EABCBF862
S315080064D0003055235A4649464046CBF8043093F0D7
S315080064E058F904460028DFD1DBF80430B3B19BE83D
S315080064F0030001238DF8103005AB83E8030004A9D7
S3150800650007A884F09AFC9DF81C308DF8A0302BB1B2
S3150800651029AB08AA92E8030083E803009DF8AC308B
S31508006520002B49D0DDF8489099F8452099F808B02D
S315080065300AB19B451AD1484613A97FF05FFBA8B15B
S3150800654099F84630D9F80010A3B1096C4FF4807257
S315080065500023CDF800B01EA8C2F076FC044601461A
S3150800656013AA48467FF063FB002C9DD10AA884F045
S31508006570C2FB59E7D9F8403009F1280207A87FF08D
S315080065808BFA044628B12146484613AA7FF04FFBEA
S315080065908AE7D9F800300222196C1EA80023CDF824
S315080065A000B0C2F051FC04460028ECD1D9F800101E
S315080065B007A87FF0A9FAD1E7712475E7052000211D
S315080065C085F84420CDE93E01E5E6CB6993F88233A8
S315080065D0CDE93E340123284685F844303EA980F0AB
S315080065E007F83471306065E7CB69284685F844209A
S315080065F02C937FF097FA00287FF4D1AE3FA83E95FA
S3150800660099F095FB3EA92CA884F028FDE0E62B7AA4
S31508006610DEE78622C0E900234CE700BFAFF300801F
S315080066200000000000000000D0A90E0800000000CD
S315080066302DE9F04F2DED028B083085B00E469146B8
S31508006640DDF850809AF0ECFE0446002800F0A3809E
S315080066506F4600259FED548B4FF0010B41F2A45A6B
S3150800666010AB0FCB87E80F00514BC4E902552360E6
S31508006670C4E90455C4E906552C3363604D4B04F14F
S31508006680500C0FCB84ED108BC4E90E5584F82050BE
S3150800669084F8305084F848508CE80F00464B84F84C
S315080066A060B0A4F862A06566236704F18403C4E9B0
S315080066B02133424B1022C4F89830294684ED1A8BB0
S315080066C0C4E91D55C4E9275584F87C50C4F88C5094
S315080066D0C4F8A45004F1A800C4F0B9F984ED308BCD
S315080066E084F8B8B0A4F8BAA0C4F8BC5004F1C8003D
S315080066F09BF0FEFC4AF6C873C82284ED388B84EDFD
S315080067003A8BC4E93C2304F58673C4E94055C4E9C9
S315080067104333A4F8D45084F8D650A4F8D85084F853
S315080067200851C4F814513368A3607368E360B3680A
S315080067302361F36863613369A3617369E361337E37
S3150800674084F8203033B104F1240306F11C0207CA89
S3150800675083E8070096F8283084F830300BB1F36ADE
S31508006760636330467FF0AFFBA8B9B9F1000F12D0CA
S31508006770B8F1000F0FD003CF3B78C4F8389084F8EF
S315080067804830012384F80031231D20646164C4F86D
S315080067909080C4F8A430204605B0BDEC028BBDE855
S315080067A0F08F00BFAFF3008000000000000000007B
S315080067B0E0250E08AC4A012014DD0E08D0250E0887
S315080067C02DE9F04F2DED028B00240025CBB099461C
S315080067D0CDE92E450023CDE93045CDE934454FF6C0
S315080067E0FF74DFF898A2064688461746CDE90C33AB
S315080067F08DF8C8303393CDF8D8A04894A2B305468F
S3150800680000F53474A54206D10B2420464BB0BDECE6
S31508006810028BBDE8F08F28467FF083FC08B19035DF
S31508006820F0E79FED8F8BBDF85C318DF8C880ADF829
S3150800683020318D4B4FF4C8710E93002309A8CDE97A
S3150800684009330F93CDF870A00B9384F0ECFA099CEA
S3150800685014BB0B240BA87FF00AFA0AA87FF007FAE4
S3150800686009A87FF004FAD0E792F094FD044608B927
S31508006870AC24CAE706F5347528467DF096FFB4F8C9
S3150800688082308DF8C880ADF8203121460CA894EDE9
S31508006890028B92F0ECFCCCE74FF4C8710AA884F09E
S315080068A0C2FADDF828A0BAF1000FD2D04FF4C871A9
S315080068B00BA884F0B8FA0B9A002ACAD04FF4C8730A
S315080068C04146CDE91332304610AA1094CDE9113A63
S315080068D0159392F0BFFD04460028BBD141463046C9
S315080068E012AA92F099FD04460028B3D141463046D3
S315080068F014AA92F06EFD04460028ABD110A916A87A
S3150800690084F087FA12A918A884F083FA14A91AA899
S3150800691084F07FFA36AB079330AB05930DF1B80ACE
S3150800692034ABCDE903A30DF1700B0EAB8DED008BE7
S31508006930CDF818B002931AAA18A916A81BF0BAFF20
S315080069400446002886D10BA87FF091F90AA87FF0A3
S315080069508EF909A87FF08BF9B9F1000F13D1D6F893
S31508006960640300285ED003689B6898470346D6F8F8
S315080069706403002B4ED003685A4641465B69984724
S31508006980044688B141E7D9F8003048465B6998471C
S31508006990594693F02CF808B9C52436E79DF85831BE
S315080069A0CDF8CC908DF822319DF860315146B3FA76
S315080069B083F328465B098DF8233192F0BFFF04461E
S315080069C000287FF422AF28460CA992F095FC06F51C
S315080069D05D7495F881303FB302211120234A9AF05D
S315080069E0FCFCD5E900122B69CDE9012100936B69FE
S315080069F0022111201E4A9AF0F0FC20460F991DF03C
S31508006A0071FE034630BB96F88233013386F882332B
S31508006A100024FAE603684146DB6898470028C3D194
S31508006A201024F2E60324F0E6D5E900121120CDE998
S31508006A30002102210F4A9AF0D0FC20460F991DF03A
S31508006A4051FE03460028E3D0012111200A4A9AF094
S31508006A50C4FCDDE701211120074A9AF0BEFCD2E703
S31508006A600000000000000000C0690E0883680E08D8
S31508006A70A3680E08E6680E081B690E08D0A90E085A
S31508006A802DE9F0478AB00DF10D030193152306464B
S31508006A9000934FF48072002308460C4699F077FB62
S31508006AA0E8B996F89630012200932046002399F01B
S31508006AB0F5FAA0B996F897300222009320460023EB
S31508006AC099F0ECFA58B90DF10E0301931623032237
S31508006AD000932046002399F05AFB054610B10AB0E8
S31508006AE0BDE8F0874FF0100906F1C8070DF1180840
S31508006AF0102200214046C3F0AAFF0DF10F030193AF
S31508006B0015234FF4807200932046002399F03FFB2B
S31508006B100028E4D196F89720EBB29A4251D917ED9E
S31508006B200C7BC44637F828ACA7F12603A7F1160E46
S31508006B30624618685968083303C273459446F7D104
S31508006B408DED007B04220023204699F082FA002866
S31508006B50C5D1052200232046CDF800A099F09EFA5B
S31508006B600028BCD14046494606228DE8030000238A
S31508006B702046CDE9048999F0DDFB0028AFD12046EF
S31508006B809DF90F1099F038FB013530370028A6D14A
S31508006B90032DADD120469DF90E1099F02DFB002846
S31508006BA09DD1B6F88E30072200932046002399F02F
S31508006BB075FA002893D120469DF90D1099F01CFB13
S31508006BC08DE782469FED027BBAE700BFAFF30080F0
S31508006BD00000000000000000A0F1840050E700BF9C
S31508006BE0054B18680368D96901A3D3E90023084748
S31508006BF000E0373B015D0300240902200000000085
S31508006C0037B5A3F04BF8044600286ED13A4B1A88DC
S31508006C109B78ADF804208DF8063031F00FFF32F07E
S31508006C2023FC32F081FB0546344B036032F00CFE40
S31508006C30284632F015FD00B9FEE72DA3D3E9002357
S31508006C404FF0FF314FF0FF3031F000FF32F070FBAC
S31508006C50214632F0C9FBA3F024F801A832F0C2FCA1
S31508006C60044600B1FEE7264B264A98801860264B54
S31508006C7098801A60254B264A98621A60254A988099
S31508006C806FF06300DA6033F051FD0B2032F09EFBA3
S31508006C9032F0FCFB32F042FB00B9FEE754F0CCFEC2
S31508006CA02046A3F0C2F908210846A3F0C5F900B1A9
S31508006CB0FEE7A3F0B8F932F087FAA3F003F910213A
S31508006CC01548B8F0A3F800B9FEE714491248B8F019
S31508006CD0AFF800B9FEE710218C20114A54F0C4FA27
S31508006CE000B1FEE70F48A4F0C8FC03B030BD00BFF2
S31508006CF00AE020FFE203000049F50E085D9E0A0837
S31508006D0068ED00206AFB012038ED002008ED002020
S31508006D10EAFA0120F8EC0020D48F0120E5C30D081B
S31508006D20C48F01207EF40E082DE9F04389B0A2F045
S31508006D30A6FF00B9FEE75C4D2B6803B9FEE7012202
S31508006D409B8811460DF10B008DF80B3032F000FCD4
S31508006D509DF80B102B6802390022186889B232F0A8
S31508006D60F7FB002305930793504B05AE06932B6854
S31508006D7093F82C208DF814201B681C7814F0200436
S31508006D8014D0A3F054F900285CD0A3F050F961F0B0
S31508006D9071FE0B46024640A1D1E9000162F00EF8E9
S31508006DA062F07CF9079B18440124079032F014FC22
S31508006DB09DF80B30002848D0981DC00061F06AFE87
S31508006DC037A3D3E9002361F0CFFE8946804632F027
S31508006DD003FC61F04FFE0B4602464946404661F009
S31508006DE0EDFF62F05BF9079B18440790A2F04EFF8F
S31508006DF038B132F057FB0020A2F044FF0020A2F081
S31508006E0048FF29684B6963BBA2F05CFF10B3079B78
S31508006E10274F03F5FA7307932B681B7EBB7032F076
S31508006E203BFBF870286833463A462146807932F0AB
S31508006E3071FB58B34FF480510020D5F0F8FAA3F04F
S31508006E4020FA23E00798C030AEE70798063300EB30
S31508006E504310CAE72B6832462146987932F050FB30
S31508006E60E7E70022962004920A691A44114BA2F514
S31508006E709B7298800392887903AA2146009632F07D
S31508006E8057FB0028D6D10120A2F027FF09B0BDE89C
S31508006E90F08300BFAFF300800000000060E36641A6
S31508006EA00000000080842E41C08F012020A1070029
S31508006EB0C8090220BC0902202DE9F3411E461C4BD5
S31508006EC0044683424FF000038B4115460AD216A3A7
S31508006ED0D3E9002362F0A2F9164914460246284669
S31508006EE0A7F023F8144B4EF66021B4FBF3F203FB2C
S31508006EF01244B4FBF1F34FF47A7801FB1344B4FB64
S31508006F00F8F728460D490097A7F00FF846B1284626
S31508006F1008FB17420A4902B0BDE8F041A7F005B8D8
S31508006F2002B0BDE8F08100BF005C26050000000045
S31508006F30FF5B2605D4250F0880EE36009E6D0E08E9
S31508006F40DA250F080348044B834202D0034B03B1EA
S31508006F501847704720140220201402200000000061
S31508006F60064B0749C91A891048BF0131491003D091
S31508006F70044B0BB101481847704700BF2014022084
S31508006F80201402200000000010B5064C237843B9EF
S31508006F90FFF7D8FF044B13B10448AFF30080012371
S31508006FA0237010BD60BE0120000000000CB90F0858
S31508006FB008B5054B1BB105490548AFF30080BDE888
S31508006FC00840FFF7CDBF00BF0000000030310120A8
S31508006FD00CB90F08A3F5803A704700BF174B002B72
S31508006FE008BF134B9D46FFF7F5FF00218B460F465A
S31508006FF01348144A121AC3F02AFD0E4B002B00D070
S3150800700098470D4B002B00D098470020002104001C
S315080070100D000D48002802D00C48C3F0B4FC62F0FD
S315080070200BFC20002900B7F096FE02F0C7F800BF57
S315080070300000080000000000000000000812002000
S3150800704008120020A004022087A90C0800000000EE
S3150800705008B5154B4FF4E47200211846C3F0F7FC47
S3150800706009220346026142611048114A98614FF4A9
S315080070708061DA61002219629A625A62DA62C3F89A
S31508007080F0000C48C3F8F400C3F8F8100A49C3F82E
S315080070900021C3F8FC20C3F8042111F8010D985407
S315080070A00132102AF9D108BD4831012028CB0D0834
S315080070B061C2012061BE012041CB0D082DE9F84FC0
S315080070C0DFF88880824698F800308946532B1646A2
S315080070D001D0FFF7BDFF182707FB0A87D7F800512D
S315080070E0D7F8FCB05D452FD9D7F8F840D7F8F41093
S315080070F0641BB44228BF3446484629442246C3F096
S3150800710062FBD7F8F8302544AB4208BF0025A144F6
S31508007110361BABEB050B5E4528BF5E465EB11823F2
S3150800712003FB0A83D3F8F410324629444846C3F0D1
S315080071304AFB3444354424B1182303FB0A88C8F8AB
S3150800714000512046BDE8F88F0024E2E748310120C7
S31508007150F8B5182700FB0775124B0E461D4407FBAA
S315080071600033DB6A1446012B0AD0022B14D023B94C
S3150800717028467CF06DFF844208D900242046F8BDD5
S3150800718028467CF065FF844228BF044622463146DD
S3150800719028467CF066FFF1E72846BDE8F8407CF013
S315080071A07BBF00BF48310120F8B50B4B04461B785E
S315080071B00D46532B164601D0FFF74AFFEFF311870A
S315080071C04FF0200181F31188324629462046FFF701
S315080071D0BFFF87F31188F8BD483101202DE9F0413A
S315080071E0164C1E4623780546532B8846174601D06B
S315080071F0FFF72EFF082D1DD8EFF3118C4FF0200155
S3150800720081F3118865B1182005FB000344F8038053
S31508007210E2180023576000FB054216629362536228
S31508007220182303FB0544069BE3628CF311880020B0
S31508007230BDE8F0814FF0FF30FAE700BF4831012082
S315080072402DE9F843174E1F4633780546532B8946D2
S31508007250904601D0FFF7FCFE082D1FD8EFF31182E8
S315080072604FF0200181F311886DB11824002304FB27
S315080072700564C4F8F090C4F8F480C4F8F870C4F84B
S315080072800031C4F8FC30182303FB0566089BC6F8D2
S31508007290043182F311880020BDE8F8834FF0FF30EF
S315080072A0FAE700BF48310120024B1B780BB10023D7
S315080072B00373704762C6012002211D20014A9AF015
S315080072C08CB800BF42CB0D0802211D20014A9AF056
S315080072D084B800BF52CB0D0802211D20014A9AF03E
S315080072E07CB800BF61CB0D0870B5037C0446FE2B45
S315080072F022D0FF2B30D00B2B37D80B2B35D8DFE815
S3150800730003F00612063434343434343434129AF022
S3150800731034FF036841F288315D692346164AAC4654
S31508007320BDE8704060479AF028FF036842F2107182
S315080073305D69114A2346F2E79AF01FFF0368224661
S315080073405B6A0D4998479AF018FF03684FF47A71FB
S315080073505D69094A2346E2E79AF00FFF0368224669
S31508007360BDE870405B6A044918470221BDE87040D1
S315080073701D20024A9AF031B8D97200087BCB0D0855
S3150800738048F2040210B5038893420DD006D803F5D7
S31508007390FF437F339BB2012B0AD910BD48F2120274
S315080073A09342FAD10F4A0CE0027A0F4B1A70F4E7AF
S315080073B090F90830012B03D090F90930012BECD154
S315080073C00A4A022121209AF008F89AF0D6FE0368A4
S315080073D040F6B8315C69064AA446BDE81040002369
S315080073E0604700BFB8CB0D0862C6012090CB0D08D8
S315080073F02741080808B59CF0E1FA23F0FDFB23F0C5
S315080074002DFC094826F0D2FD00224FF46171074889
S315080074108EF086FE30B1BDE8084001212120044ADD
S3150800742099F0DBBF08BD00BF80B00020A8A30020EC
S31508007430F4CB0D0810B500220C46134813499CF0EE
S3150800744065FB18210A20124AD4F046FD114B186034
S3150800745040B921200121104A99F0BFFF40F201707E
S315080074607DF024F820460D4A0A49D4F0F6F940B9C9
S31508007470212001210A4A99F0B0FF40F202707DF0FE
S3150800748015F8002010BD00BFB0BF002081730008AA
S3150800749074CE0D083C34012022CC0D0850CE0D08C0
S315080074A045CC0D0810B5054B054C187020469CF0C8
S315080074B058F82046BDE810409CF0ABB862C60120DB
S315080074C080B0002008B50C489CF05FFB58B10B480B
S315080074D09CF047F809489CF09CF8094825F078FA8A
S315080074E005489CF05BFB074B186818B1BDE80840D7
S315080074F000F0C2B908BD00BFB0BF002080B00020B0
S315080075002855012020330120014608B54FF47A7228
S3150800751000238002890D61F081FE094B0146186837
S31508007520D4F020FB50B121200121064A99F055FFDD
S31508007530BDE8084040F205707CF0B8BF08BD00BF42
S31508007540443401205FCC0D0808B5074A40F6B83325
S315080075500221212099F041FF40F6B830FFF7D4FF09
S315080075600122024B1A7008BD78CC0D0861C60120AD
S3150800757008B5094B0A211868D4F0F4FA50B121204D
S315080075800121064A99F029FFBDE8084040F2057036
S315080075907CF08CBF08BD00BF40340120B7CC0D0875
S315080075A010B5044686B0094899F03AFF60B1002341
S315080075B0CDE903330293064B214601930223054A7C
S315080075C00093054B07F00CF806B010BD24330120D4
S315080075D0E9720008B9720008C972000808B5094BB3
S315080075E00146186858B100231822D4F0B5FC40B1FA
S315080075F0054A0121BDE80840212099F0EEBE034A5C
S31508007600F7E708BD3C340120CFCC0D08FCCC0D08AB
S315080076107FB50223ADF80030044B0190684602930B
S31508007620FFF7DCFF07B05DF804FB00BF5D760008D6
S315080076308B68084603B1184702212120014A99F0B0
S31508007640CCBE00BF1DCD0D0800220249024827F016
S3150800765059BD00BF29780008B0BF00200388022B57
S3150800766006D1044B1B780BB9FFF76EBFFFF7ECBFCB
S31508007670704700BF61C6012000220249024827F070
S3150800768041BD00BFF5730008B0BF002010B5A4B017
S3150800769003AB0193812301AC029363F0C3FF214638
S315080076A064F0CCFC28B994E803002DF01BFB24B049
S315080076B010BD01212120024A99F08FFEF7E700BF8D
S315080076C04DCD0D0800230246194610B5044620483C
S315080076D0CFF0CEFF1F4B186040B9212001211E4A6A
S315080076E099F07BFE40F204707CF0E0FE002322460F
S315080076F001211A48CFF0BCFF194B186040B9212068
S315080077000121184A99F069FE40F204707CF0CEFE19
S3150800771002212120144B154A99F05FFE0221144AD2
S315080077200123212099F059FE28F0D2F80368DB6F6F
S3150800773098470120FFF7AAFF01F0B2FB0D489BF01E
S315080077405AFF0D4B0D4918700D4891F0C4FE10BD37
S31508007750117600084434012065CD0D0863410808F8
S31508007760403401207FCD0D087A360E0899CD0D08D4
S31508007770BDCD0D0880B0002062C60120143301205B
S31508007780409D002038B50546FFF79CFF044638B1F2
S315080077900C4827F039F920467CF088FE204638BD8B
S315080077A02B6828469B689847044608B10648F0E7C0
S315080077B0064B1A6852F8640C1A581844526C9047CB
S315080077C0ECE700BFDACD0D08ECCD0D088055012099
S315080077D0482337B50E4A0F4CA2F118050093111D20
S315080077E00123284699F006FE224628460A49C2F091
S315080077F0D0F90023224609480949C0E90233094B52
S3150800780003603033436003B0BDE83040C2F0C1B90D
S315080078103C330120B00602203F41080810330120FE
S315080078202141080808CE0D0810B50121094827F09E
S315080078305BFA20B163F0F6FE0121C3F049FA064867
S3150800784027F0B8FB28F044F8BDE8104003689B6FA2
S31508007850184700BF80550120B0BF002010B5044668
S315080078600178044827F074FAA37883F00103A3701B
S3150800787010BD00BF8055012073B503690446E3B106
S315080078804369D3B10E4B684619680B681B6998475C
S31508007890D4E90423DDE90065A178002918BF134659
S315080078A0D4E902125B1842F10002B342AA4104D29B
S315080078B02046FFF7D3FFC4E9026502B070BD00BFDA
S315080078C02409022038B500230022C0E90433002326
S315080078D004460D46C0E902230278024827F028FA32
S315080078E0A57038BD8055012001489BF085BF00BFB3
S315080078F080B0002001489BF081BF00BF80B0002007
S31508007900044A08B583680260243242600BB1C2F0AB
S3150800791067FF08BDC0CF0D08A0F10400F0E700BF5F
S3150800792010B50446054B03604433436014F014F95C
S315080079302046FFF7E5FF204610BD00BF282E0E089B
S31508007940A0F10400ECE700BF38B5124B044603F17A
S315080079503802C26003F14C02026103F1600242611F
S3150800796042680360743383613AB183682BB153600C
S3150800797042681A600023C0E9013304F14405284629
S3150800798087F048F928467CF014FC201D7CF011FC91
S31508007990204638BD08F10D08A0F11400D4E7A0F17F
S315080079A01000D1E7A0F10C00CEE7A0F11800CBE754
S315080079B01F2008B502210C4A99F00FFD0B4826F046
S315080079C0EFFA78B90121094825F046FF50B9084869
S315080079D082F048F91F200221064A99F0FEFC034866
S315080079E09BF008FF08BD00BF8CCE0D0880B00020B4
S315080079F058150020AACE0D08F8B51E4C00252646B7
S31508007A001D4F1E481E4B3A461E49C0E901550360E4
S31508007A10C560057445610583C2F0BBF81A4B294653
S31508007A2046F8D83B3246234604F1080008F06AF8BF
S31508007A3004F12003C4E93435144B3A46C4F8D83067
S31508007A40134B2046C4E9383604F1F403C4E93B3540
S31508007A5041F20A430F4984F8E85084F8F451A4F82F
S31508007A60DC30C2F096F83A46BDE8F8400A490B48B9
S31508007A70C2F08FB858150020B006022054340120F1
S31508007A80B8AC0E08D1CE0208D0EF0D089C980E08A7
S31508007A9080980E0809420808AF4108080407022022
S31508007AA07FB5044602211F20854A99F096FC234695
S31508007AB002211F20834A99F090FC834D02211F2042
S31508007AC07F4A99F08AFC02211F20804A99F085FC9A
S31508007AD02B784BB9284627F0C3FB00280CBF012397
S31508007AE000232B7040F0E5802146794824F06AFF90
S31508007AF063F098FD0446C3F0D3F8002840F0D98017
S31508007B00201D22F023F904F1080022F0ADF82046E2
S31508007B10C3F0DBF86F4A704B0221002818BF1346E2
S31508007B201F206E4A99F059FCFFF742FF002840F0E3
S31508007B30C0806B4B039001936A4B6B4802939BF092
S31508007B400EFD6A4C039001AB6948236327F034F9AC
S31508007B50002840F0AE8067489CF012F8664DD5E8DC
S31508007B60AF3FDA070BD42846A2F053FB38B1634A75
S31508007B7063496448C2F00DF82846A2F04FFB624DEF
S31508007B80D5E8AF3FDB070FD42846A2F042FB58B131
S31508007B905C495E4814F044F8584A5D495B48C1F0B0
S31508007BA0F8FF2846A2F03AFB5A4D584B284623645C
S31508007BB025F098F92369A5631BB9574B574A2361E2
S31508007BC05A60E36B53BB564D6B68002B70D105F1B9
S31508007BD0140026697CF036FB05F11C007CF032FBAC
S31508007BE0EB6803B92B7295F834304E4823F0050339
S31508007BF085F834307CF026FB4B487CF023FB95F85F
S31508007C0034304A4823F0180385F834307CF01AFBE0
S31508007C1000236E602B7285F83430E563236C0BB94C
S31508007C20434B2364434D444B28462169636292F0D3
S31508007C30C0FE636A28462B6192F091F8002838D175
S31508007C4022692562002A36D03C4B3D4D5A60636155
S31508007C5002F090FE3B4B0221A0623B4A2120E362E0
S31508007C6099F0BBFB2846216916F082FA08BB206901
S31508007C70A56196F0FCF8354B2169606434482360A9
S31508007C809AF040FA324822F051F81849314815F06E
S31508007C90EBFD044617489BF081FF3CB92E4826F0B9
S31508007CA0B3FE144827F06EFA044630B1204600E0C9
S31508007CB0032004B070BD2F20FBE700F0AFF8F5E70E
S31508007CC0D4CE0D0807CF0D08A8BF002013CF0D0886
S31508007CD028550120C3CE0D08CBCE0D0823CF0D089D
S31508007CE0E9780008F578000880B00020B806022078
S31508007CF080550120B0BF00204C340120B006022078
S31508007D00B1410808B40602204834012008120020B0
S31508007D102179000854340120A407022014F901200F
S31508007D20184901203C4901204449012024490120E1
S31508007D30C8730020AC46012084070220A44601200F
S31508007D40684601208807022035CF0D081033012028
S31508007D50040702206077002065CF0D0810B5134888
S31508007D60FFF79EFE08B17CF0A1FB11489BF008FFC7
S31508007D7063F058FC00B10C301AF010FB0C489BF06D
S31508007D800DFF1F2002210B4A99F027FB0A485EF0D7
S31508007D90DFFC08B17CF08AFB084C2068D3F0D1FDE3
S31508007DA008B1C2F01DFD206010BD00BF8ACF0D08C6
S31508007DB0B0BF002093CF0D089CA7012050340120A6
S31508007DC010B50A489BF078FE0021094A0948D3F005
S31508007DD044FD094C02212060084A1F2099F0FDFA4B
S31508007DE023680BB9C2F0FCFC10BD00BF805501200A
S31508007DF0FCCF0D085D7D000850340120A5CF0D0885
S31508007E00014820F081BC00BFF04A0120024B012145
S31508007E101868D3F0EFBD00BF7034012010B50A48CA
S31508007E2020F0C4FB044608B1C2F0DAFC01F09EFD5E
S31508007E3001F0E4FD2146054A0548D3F00EFD054B41
S31508007E4018600028F0D010BDF04A012028D00D088F
S31508007E50017E00087034012010B5044601210C206B
S31508007E60064A99F0BAFA0023E068A36020B1BDE893
S31508007E70104003689B68184710BD00BF4CD00D081A
S31508007E80A0F10400E8E700BF10B50A4CD4E8AF3FFC
S31508007E90DB070DD42046A2F0BCF948B10648074BCB
S31508007EA0074A08490360C1F074FE2046A2F0B6F9F5
S31508007EB0014810BDD8340120DC3401205C910E083D
S31508007EC0B00602207342080810B504460B4B03603F
S31508007ED06433436000F50E702DF0C4FF636A23B166
S31508007EE0002204F11C0062629847236923B100222C
S31508007EF004F1080022619847204610BD80040E0848
S31508007F00A0F10400E0E700BF10B50446034B40F8B3
S31508007F10343B7CF0C4F9204610BD00BF7C000E0837
S31508007F2037B5C0680D46144638B901210C200E4AEB
S31508007F3099F053FA002003B030BD1A682146019221
S31508007F4000221A6001AA0AF0CDF801A87CF0A7F968
S31508007F50A38823B9E38813B92378402BEAD02B8961
S31508007F6043F040032B81E5E75FD00D08A0F104003C
S31508007F70D6E700BF73B516480AF070FA1549164ACF
S31508007F80D1F8AC34154E164D5360A1F54051334621
S31508007F900F4800950AF03EFB124B336125F07CFA38
S31508007FA0044602460A4930460BF070FA294620462E
S31508007FB025F006F940B10C4826F026FD6D210B4B3D
S31508007FC00B4A0C4862F030F96C6002B070BD00BF15
S31508007FD03018002060A700202C0702200C0702207A
S31508007FE0501700208051010092D00D08AED00D0820
S31508007FF0C3D00D08E1D00D0870B500243248334BC4
S31508008000334E03606433436000F10803C0E902336A
S31508008010304BC0E90440836100F11C03C0E9073313
S315080080202D4BC0E90940C0E90B342C4BC0E90D447F
S315080080304364203383640523C0E92044C0E922440D
S31508008040C0E9644480F83C40046480F8744080F8D1
S315080080509841C0F89C4180F8A04180F8B84180F862
S31508008060D04180F8E841C0F81C321D4B32461D4904
S315080080701D4DC0F83832C0E98F4480F80042C0F878
S31508008080184280F8204280F84442C1F082FD324608
S3150800809016491748C1F07DFD324616491648C1F003
S315080080A078FD2846154B6C6040F8103B2C7227F07B
S315080080B047FCC5E93444C5E9364432462846BDE896
S315080080C070400F49C1F065BD3018002080040E08C5
S315080080D0B006022065300108DD24010868D10D08C4
S315080080E014DD0E08C97E00085017002087420808CC
S315080080F02C070220894208080C0702207C000E087B
S31508008100097F0008012903BF034B00201B78A6201E
S3150800811008BF1370704700BF73DF0120022938B506
S3150800812014461D460FD1202200210848C2F08FFCB4
S315080081303CB1202D2A46214628BF20220348C2F0FA
S3150800814042FB002038BDA620FCE700BF53DF012014
S31508008150104608B56AB163B102290CD1202B28BF95
S3150800816020231A46029B05491A60C2F02CFB002000
S3150800817008BD2F20FCE7A620FAE700BF53DF012041
S31508008180012905D102B11278024B00201A707047F6
S31508008190A620704773DF01202DE9F0431D46002312
S315080081A089B0074608460E461446CDE9053327F03A
S315080081B041F918B9D82009B0BDE8F083304605A9B9
S315080081C027F004FA0028F6D1204627F033F90028CC
S315080081D0F0D0204606A927F0F9F90028EBD1DDE909
S315080081E00586079007A9124827F0F0F90446D8B97A
S315080081F0079B18EB030902D10EB1C2F0F1FA0093FE
S3150800820002213B461F20CDE901860A4A99F0E5F886
S315080082106B689E420AD8324649462868C2F0FDFB7A
S315080082206B689E42E9D86E602046C4E71924FBE7CE
S3150800823021720800D8D10D08014827F017BB00BFE6
S3150800824000720800002307B50348019301AB27F025
S3150800825011FA03B05DF804FB00720800014827F024
S31508008260C1BA00BF0C72080010B506480C4627F0C4
S3150800827081F940F20123984202BF4FF6F173238039
S31508008280002010BD0C720800014827F0EFBA00BFA5
S315080082900D72080073B5002601AB0C480C4615464E
S315080082A0019627F0E7F940F20123984208D14CB12C
S315080082B0062D09D920462946054A7CF066F8304637
S315080082C002B070BD0B20FBE71920F9E70D72080014
S315080082D0F6D10D08014827F085BA00BF0B720800D1
S315080082E010B506480C4627F045F940F20123984296
S315080082F002BF48F205032380002010BD0B72080058
S31508008300014827F0B3BA00BF0E72080073B50026FD
S3150800831001AB0C480C461546019627F0ABF940F21E
S315080083200123984208D14CB1062D09D92046294681
S31508008330054A7CF02AF8304602B070BD0B20FBE7F0
S315080083401920F9E70E720800FDD10D08014827F03B
S315080083508DBA00BF10720800002307B503480193C1
S3150800836001AB27F087F903B05DF804FB107208002B
S31508008370014827F07BBA00BF11720800002307B531
S315080083800348019301AB27F075F903B05DF804FBC8
S3150800839011720800014827F069BA00BF1272080076
S315080083A0002307B50348019301AB27F063F903B02F
S315080083B05DF804FB12720800014827F013BA00BFE3
S315080083C01872080010B506480C4627F0D3F840F294
S315080083D00123984202BF01232380002010BD00BF5D
S315080083E018720800014827F041BA00BF0F7208004A
S315080083F073B5002601AB0C480C461546019627F0C6
S3150800840039F940F20123984208D14CB10C2D09D90B
S3150800841020462946054A7BF0B8FF304602B070BDB3
S315080084200B20FBE71920F9E70F72080007D20D08A1
S31508008430014827F01BBA00BF04720800014827F05C
S3150800844019B900BF04720800014827F029BA00BF0D
S315080084501F72080007B500200090034827F060F94E
S3150800846003B05DF804FB00BF1F720800014827F03F
S31508008470B9B900BF0772080013B510480C4627F0B3
S3150800848079F840F201229042034604D14FF4706312
S31508008490238000230FE070B92388B3F5805FF8D3F3
S315080084A04FF4C2732F240121CDE90034044A054B49
S315080084B098F093FF2346184602B010BD07720800CD
S315080084C034D20D0814D20D08014827F0A3B900BF0D
S315080084D00872080010B506480C4627F077F840F2EF
S315080084E00123984202BF4FF47A732360002010BD1F
S315080084F008720800014827F0B9B900BF09720800D8
S31508008500014827F0B7B800BF09720800014827F0EC
S31508008510ADB900BF0A720800014827F0ABB800BF22
S315080085200A7208000B4610B5084A0C46084809495D
S31508008530FFF732FED82807D119F0BCFF0368214699
S31508008540BDE810409B68184710BD00BF2772080099
S3150800855045D20D08267208000B4610B5084A0C4687
S3150800856008480949FFF718FED82807D119F0A2FFCD
S3150800857003682146BDE810405B69184710BD00BF77
S315080085802572080061D20D08247208000B4610B542
S31508008590084A0C4608480949FFF7FEFDD82807D1BE
S315080085A019F088FF03682146BDE810401B69184783
S315080085B010BD00BF2372080087D20D08227208007A
S315080085C0022307B501A8D1E90012019362F04CFF16
S315080085D018B90199024827F01DF903B05DF804FBA4
S315080085E0207208001FB5022003900698009003A881
S315080085F062F052FF18B90399024827F00BF905B043
S315080086005DF804FB20720800002370B5164886B092
S315080086100D461646049326F00DFFE8B1124804A944
S3150800862026F0D4FFB0B9049B3246002B08BF0223BC
S31508008630294605A8059362F097FF044602907368D9
S315080086401F2001936B6802210093084A049B98F047
S31508008650C4FE204606B070BD19F02CFF03683246EA
S3150800866029469B699847E8E720720800A0D20D08BA
S31508008670014827F0CFB800BF21720800014826F04C
S31508008680A5BF00BF21720800014827F0EFB800BF58
S3150800869029720800014826F0EDBF00BF29720800BC
S315080086A0014827F0FDB800BF0572080007B500208D
S315080086B00090034827F034F803B05DF804FB00BFC8
S315080086C005720800014827F075B800BF287208002F
S315080086D0014826F023BF00BF287208000020094B76
S315080086E010B5186032B9084C2146BDE81040074855
S315080086F027F090B8A1F5005105488C189BF0EDF9C4
S31508008700F2E700BFE034012000E0170821720800F4
S315080087108055012000232DE9F04F85B080460F468D
S315080087202C4803A91546039326F050FF002838D194
S31508008730294E039933681BB928489BF0AFF980BBCB
S31508008740D5E900143368039A02EB030B14F003030C
S315080087501BD10A462346594620489BF0A5F900BB7B
S315080087604046316827F056F8D8B93846696827F080
S3150800877051F8B0B932686B680020134413F03F0211
S315080087801CBF40339B1A33600BE004F1040AAAEBC2
S31508008790030A5046019121F0A1FF0199814618B9B3
S315080087A0AC2005B0BDE8F08F2246C2F00CF8AAEB63
S315080087B00402FF2109EB0400C2F049F953464A4670
S315080087C0594606489BF070F90446484621F0AAFF28
S315080087D02046C4E721720800E034012080550120B4
S315080087E008B50A4602480349FFF794FF08BD00BFCB
S315080087F0227208002372080008B50A46024803498F
S31508008800FFF788FF08BD00BF24720800257208001C
S3150800881008B50A4602480349FFF77CFF08BD00BFB2
S315080088202672080027720800DFED0B7AB4EEE70A15
S31508008830F1EE10FA08B50CD9DFED087ADFED080A73
S3150800884030EE670A62F074F8DFED067A20EE270A42
S3150800885008BD9FED050AFBE7000084420000704250
S31508008860D46608BE70D9A44300007F439FED107AF2
S31508008870B4EEC70AF1EE10FAF0EE407A08B50AD857
S3150800888062F026F89FED0B7ADFED0B7AE0EE077AB9
S31508008890B0EE670A08BD9FED090ADFED090A37EE53
S315080088A0C00A62F045F8DFED077A20EE270AF1E7FD
S315080088B0000084420DF1C6429C1E2143000070420E
S315080088C087A79ABDA30F9043DFED117AB4EEE70AA6
S315080088D0F1EE10FA08B515DAF3EE037AB4EEE70A04
S315080088E0F1EE10FA11D9F2EE047A30EE670A61F069
S315080088F0EFFF9FED087ADFED087AE0EE077AB0EE33
S31508008900670A08BD9FED050AFBE79FED050AF8E72C
S31508008910000084428A840A43BC85984300007F434A
S31508008920000000009FED0C7AB4EEC70AF1EE10FACB
S3150800893008B506D89FED097A60EE077AB0EE670AA1
S3150800894008BDDFED070A61F0F3FF9FED067ADFED5C
S31508008950067AE0EE077AF1E7BD3A473B52B84E4150
S315080089605555D53E3D0A873FAE4761BDDFED117AC5
S3150800897020EE270A60EEA70ABCEEC07A21EE271A77
S3150800898086B08DED017ABCEEE07AFCEEC17A8DED0B
S31508008990027A0020CDED037A9DF8043063F30700D0
S315080089A09DF8083063F30F209DF80C3063F31740E9
S315080089B006B0704700007F43DFED3C7A10B5B0EE95
S315080089C0407A2DED048B20EEA70A9FED399ADFED4C
S315080089D0397A20EE899AA7EE270ADFED377AA7EECD
S315080089E0279ADFED367AA1EE279ADFED357A20EE63
S315080089F0A78ADFED347AA7EE278ADFED337AA1EE70
S31508008A00278ADFED327A82B0A1EE270A0446FFF7FD
S31508008A1089FF2046F0EE408AB0EE490AFFF782FF4A
S31508008A202046B0EE409AB0EE480AFFF77BFFF5EE17
S31508008A30C08AF1EE10FAB0EE401A2DD4F7EE007A9D
S31508008A40F4EE678AF1EE10FA77FEA88AB5EEC09AB8
S31508008A50F1EE10FA23D4F7EE007AB4EE679AF1EE47
S31508008A6010FA37FE899AB5EEC01AF1EE10FA19D443
S31508008A70F7EE007AB4EE671AF1EE10FA37FE811AAD
S31508008A80F0EE490AB0EE680A204602B0BDEC048B47
S31508008A90BDE81040FFF76ABFDFED0D8AD6E79FED08
S31508008AA00C9AE0E79FED0A1AEAE700BF86C9C4BF39
S31508008AB0C520F03F8B6C4F407E1D78BFC3642A3DAE
S31508008AC060E550BED3BC633DC74B873F8048FFBEB9
S31508008AD00000000007EE901A9FED267AF8EE677AF6
S31508008AE010B52DED048B87EE279A82B0B0EE490AB1
S31508008AF00446FFF799FE2046F0EE408AB0EE490A92
S31508008B00FFF7B4FE2046B0EE408AB0EE490AFFF7FA
S31508008B10DBFEFCEEE87A17EE903AFCEEC87A8DF8A2
S31508008B20003017EE903AFCEEC07A8DF8013017EE59
S31508008B30903A8DF8023000990022FF2320467BF0F8
S31508008B4093FC8DF80000C0F30721034610468DF804
S31508008B500110BDF80010C3F30743CAB262F3070059
S31508008B60C1F3072161F30F2063F3174002B0BDEC90
S31508008B70048B10BD00401C4606EE902A07EE103AFC
S31508008B80DFED105A07EE901AF8EE666AB8EE477AE5
S31508008B9086EEA56AF8EE677AC7EE256AB7EE001A7A
S31508008BA09FED097A31EE461AC7EE870A31EE661A44
S31508008BB080EEA60A21EE001A20EE060A82B002B05E
S31508008BC0FFF7FABE00FF7F4700007E43F7B50C4665
S31508008BD0074615461E467BF0D5FA01460B4826F091
S31508008BE061F888B123460221094A1D20CDE90056BD
S31508008BF098F0F3FB38467BF0C5FA2B460146224629
S31508008C000248009626F058F803B0F0BD80550120BA
S31508008C10EBD20D0807EE901A2DE9F041F8EEE77A47
S31508008C202DED068BDFED67AADFED679A07EE102AB2
S31508008C3067EEAA7AC7EEA98AF8EEC77A84B087EEF5
S31508008C40A99A80467BF0A2FAB5EEC09A07EE900A7A
S31508008C50F1EE10FAF8EEE77A9FED5CAA87EEA98A9C
S31508008C6011D828EE0A8AFCEEC87ACDED017A9DF86D
S31508008C7004301A461946404604B0BDEC068BBDE8DA
S31508008C80F041FFF7A3BFF4EE6A8ADFED517AF1EE01
S31508008C9010FA67FEA88ADFED4F7AC8EEA79AFDEEAE
S31508008CA0E9AAF8EEEA7A18EE100A79EEE79A5FF082
S31508008CB003FF044619EE100A0D465FF0FDFE024654
S31508008CC00B4606460F46002043495FF095FD2246AF
S31508008CD02B465FF049FF60F001FA69EE297A08EE43
S31508008CE0900A17EE900A5FF0E7FE02460B46002050
S31508008CF039495FF081FD22462B465FF035FF60F06B
S31508008D00EDF909EE100A19EE900A5FF0D5FE024653
S31508008D100B46002030495FF06FFD32463B465FF058
S31508008D2023FF02460B4600202B495FF065FD2246CD
S31508008D302B465FF019FF60F0D1F91AEE902A07EE7C
S31508008D40900A042A36D8DFE802F0030720252C000B
S31508008D50B0EE489AB0EE678A68EE8A8A28EE0A8AE2
S31508008D60FCEEE87A29EE0A9ACDED017AFCEEC87A8D
S31508008D70CDED027AFCEEC97ACDED037A9DF8043082
S31508008D809DF808209DF80C1075E7B0EE689AF0EE8D
S31508008D90678AE1E7F0EE497AB0EE689AF0EE488A1B
S31508008DA0D8E7B0EE487AB0EE679AB0EE688AF0EE89
S31508008DB0478AD1E7F0EE497AB0EE489AB0EE688A6B
S31508008DC0E5E700BF0000B44300007E4300007F4390
S31508008DD000000000000070420000F03F37B50D4665
S31508008DE00446FFF777FEC0F30723C0F307428DF862
S31508008DF004008DF805308DF806202B4602211D202B
S31508008E00074A98F0EAFA20469DF806309DF80520AC
S31508008E109DF8041003B0BDE83040FFF7D7BE00BF89
S31508008E2005D30D087FB504460B460D4616460221A6
S31508008E3000921D200B4A98F0D0FA20467BF0A6F93E
S31508008E40334601462A462046FFF796FEC0F30743F7
S31508008E50C0F30722C1B2204604B0BDE87040FFF750
S31508008E60B5BE00BF18D30D08014822F077B800BF79
S31508008E70384C012008B500220249034897F044FF00
S31508008E80002008BD05810208E43401200A4608B915
S31508008E90FFF7F0BF0146014897F057BFE4340120B9
S31508008EA008B50222054906481FF05EFBBDE80840E2
S31508008EB00122044904481FF057BB00BFDCD30D0844
S31508008EC0E4340120D0D30D08F04A01200122024BD8
S31508008ED083F80421704700BFE434012000210446CA
S31508008EE000B589B01A2201A80091C1F0B0FD234649
S31508008EF0074A1E21684661F0B7FA6946054825F013
S31508008F0083FD68467BF0D5FACFF014FEC1F068FC05
S31508008F10F4D30D080AD40D082DE9F04F0446D0E91C
S31508008F200076384B87B0D3F828B0D3F82CA0D3F8FE
S31508008F303490D3F83880D0E90253019303690121AC
S31508008F4002934369304A039383690493C3690020F3
S31508008F5005932E4B1B6898F040FA5B4601210020CA
S31508008F602B4A98F03AFA534601210020294A98F0EC
S31508008F7034FA4B4601210020274A98F02EFA434638
S31508008F8001210020254A98F028FA234601210020CD
S31508008F90234A98F022FA00F023FB3B4601210020E1
S31508008FA0204A98F01AFA3346012100201E4A98F002
S31508008FB014FA2B46012100201C4A98F00EFA0121CA
S31508008FC00020019B1A4A98F008FA01210020029B0A
S31508008FD0184A98F002FA01210020039B164A98F0D5
S31508008FE0FCF901210020049B144A98F0F6F90121A6
S31508008FF00020059B124A98F0F0F900F0F1FAD3F038
S3150800900082F8FEE700ED00E06BD40D08B4400120BD
S3150800901081D40D0897D40D08ADD40D08C3D40D0816
S31508009020D9D40D08EFD40D0805D50D081BD50D08A4
S3150800903031D50D0847D50D085DD50D0873D50D0832
S3150800904089D50D08024B034A1A607BF033BA00BF74
S31508009050B440012044524148024B034A1A607BF04F
S3150800906029BA00BFB44001204655504D024B034A69
S315080090701A607BF01FBA00BFB44001204653554220
S31508009080024B034A1A607BF015BA00BFB4400120B0
S3150800909054465355024B034A1A607BF00BBA00BF7D
S315080090A0B440012054464353024B034A1A607BF0EE
S315080090B001BA00BFB44001204E4D4244012108B513
S315080090C00020064B064A98F088F900F089FAD3F092
S315080090D01AF80449044860F0D3FBFEE79FD50D084B
S315080090E0F9FE0E083BD40D0852D40D0800240D468F
S315080090F000B59BB06022214602A80194C1F0A7FCE6
S315080091002B466421094A01A861F0AEF901212046DF
S31508009110074A01AB98F061F900F062FAD2F0F3FF62
S315080091200449054860F0ACFBFEE700BFC2D50D0850
S31508009130F9FE0E083BD40D0852D40D08034B036004
S31508009140034B0B604FF4A073136070475040012027
S31508009150503B0120034B0360034B0B604FF4A07395
S3150800916013607047EC3A0120EC35012000240D46C7
S3150800917000B59BB06022214602A80194C1F067FCA5
S315080091802B466421064A01A861F06EF901212046A2
S31508009190044A01AB98F021F900F022FAC1F020FB4D
S315080091A0D5D50D08F9FE0E08024B034A1A607BF066
S315080091B081B97047B4400120474F44572A2108B562
S315080091C0024800F059F9B4F0EDFFFEE7E5D50D08C1
S315080091D0024B01211868D2F00DBC00BF8041012066
S315080091E00D4BD9889A8889B292B2914211D0D98802
S315080091F09A8889B292B291423DBF9A88D8881B89CB
S31508009200D8882DBF9B8813FA80F0801AC01A80B2BE
S3150800921070470020704700BFB8400120F8B50E46D9
S31508009220074608B9C1F0DCFA154D2C898C42F9D3EA
S31508009230FFF7D6FF201A80B286421BD8EB88E8884B
S31508009240E41AA4B2A6422B6815D92246394613FA5F
S3150800925080F0C1F0B8FA2868321B3919C1F0B3FAA0
S31508009260EB8816FA83F12B89B1FBF3F203FB121193
S3150800927089B2E980F8BD3246394613FA80F0EDE73F
S31508009280B840012038B50446D3F037F90121054620
S315080092900846D1F017FA2846D3F02AF90C480D4BA0
S315080092A02146B4F8002100684EF0E6FF4FF0FF3281
S315080092B000210120D2F0DFFBD3F01FF9044600217C
S315080092C00120D1F0FFF92046BDE83840D3F010B9A7
S315080092D0480C0220D1910008002370B5174CC2B083
S315080092E0174DADF804318DF806314FF0FF330022E3
S315080092F0206801A9D2F064FE0028F6D19DF806611F
S3150800930001A8FFF7BFFF4EB140F60D23ADF80430B4
S31508009310022301A8ADF80431FFF7B4FF2A6852B159
S31508009320084901A861F0D4F80023ADF8040101A8A2
S315080093302B60FFF7A7FF00231A46D9E7144101203F
S31508009340184101200FD60D082DE9F843DFF85080A3
S315080093501E46B8F800901546A3EB09070D4BFFB259
S315080093601C89FFF73DFF241AA4B2A74207D839463D
S3150800937005EB0900FFF752FF0023A8F8003006485E
S3150800938032462946054B00684EF0C4FEBDE8F84350
S31508009390FEF73CBDB8400120480C0220499300085E
S315080093A088B9012070B5204E3468002C3BD14FF4A3
S315080093B082711E4A0A20D2F08FFD1D4D1D4A286073
S315080093C021461D48D2F049FA1C4B1D4A9C801A605A
S315080093D04FF4807230601A81DC8008B9C1F000FA57
S315080093E02B68002BFAD0174C8022174B1749206898
S315080093F04EF090FE8022144B154920684EF08AFEE6
S315080094000B2051F0A3FE0B2051F05AFE1422114BEB
S315080094100521DA640422A3F580531A650E48BDE8CF
S315080094207040B4F0DEBC70BD8041012024D60D0822
S315080094301441012044D60D08D9920008B8400120ED
S3150800944074DF0120480C0220499300081CEF012014
S315080094509CEE01200020015B0000015B08B5FEF7C9
S31508009460D5FC0421034B03F500521165D164DB6C6E
S3150800947008BD00BF0000015B70B50C460546C2B0CA
S3150800948018B94FF0FF3042B070BD4B1EFF2BF8D80D
S315080094900C4E33680BB9FFF785FF00232246294691
S315080094A001A88DF80631C1F08EF94FF0FF33182266
S315080094B0306801A9ADF80441D2F04EFD0028E0D18C
S315080094C020B2E0E71441012010B50C46C2B00146AF
S315080094D0D0B1631EFF2B17D8224601A8C1F073F935
S315080094E001230B488DF8063118220023006801A9CC
S315080094F0ADF80441D2F030FD10B920B242B010BD2B
S31508009500044A1368013313604FF0FF30F6E700BFD3
S3150800951014410120184101200422F0B52C4B0C46B9
S31508009520074685B01A6500284FD000294DD0FFF7A9
S3150800953057FEA04219D2D2F0F3FF05462548264E1B
S3150800954003AB01A9006802AAB4F09CFB3388029910
S315080095508B4207D20198C91A184489B2FFF75EFEF2
S31508009560029B33802846D2F0D6FF1C4D2E89B44282
S3150800957001D9C1F035F9FFF733FEA04228BF2046CE
S31508009580AB8884B2F61AB6B2A6422B68A98817D257
S31508009590324613FA81F13846C1F015F92968A21B3B
S315080095A0B819C1F010F9AB882A8914FA83F3B3FB0A
S315080095B0F2F102FB11339BB2AB8020B205B0F0BDCD
S315080095C02246384613FA81F1EBE74FF0FF30F5E70C
S315080095D00010015B480C022088B90120B840012020
S315080095E0002330B50B4CC3B00B4DADF804318DF8E4
S315080095F00631002320681A4601A9D2F0E1FC08B119
S3150800960043B030BDBDF80421286801A94EF08EFB91
S31508009610EFE700BF14410120480C02200A46014624
S3150800962020B11AB1024B18684EF080BB704700BFD4
S31508009630480C022008B5082021F050F818B100237C
S315080096404360014B036008BDB0D60D0808B5082075
S3150800965021F044F818B100234360014B036008BDAC
S31508009660CCD60D08436843B9054B0B6005234B6000
S31508009670436801334360012070470020704700BFEC
S3150800968068D60D08042370B5144645688AB0ADF847
S3150800969002302B680A4601A805499E687AF075FFCC
S315080096A0224628460DF1020301A9B0470AB070BD4B
S315080096B06ED60D0830B54468134622688BB0156916
S315080096C001A80A4603497AF060FF204601A9A8477F
S315080096D00BB030BD7BD60D0830B58DB0446801920D
S315080096E023680A4603A80649DD687AF04EFF042374
S315080096F020460DEB030203A9A8470DB030BD00BFF5
S315080097006ED60D08F0B5A3B0064617A81F460C4638
S31508009710154696F00CFB2A2217A80CA996F01AFBF8
S315080097200DF10B03019315234FF48072009317A8CC
S31508009730002396F02CFD50BB97E80300154B8DE8E7
S315080097400300D3E9002317A896F0F9FDF8B9D7E97D
S315080097500201114B8DE80300D3E9002317A896F000
S31508009760EEFDA0B99DF90B1017A896F045FD70B946
S315080097707668224633680949DF6803A82B467AF0DB
S3150800978004FF3046BDF874300CAA03A9B84723B0C5
S31508009790F0BD00BF18D70D0810D70D087BD60D08E9
S315080097A013B5044608460A4B1146C4E9003000239F
S315080097B0C4E903330193036822815B6A01AA9847C7
S315080097C010B9019BC4E90303204602B010BD00BFCF
S315080097D094D60D082DE9F041D0E9033293420446A8
S315080097E00D469EB003D300201EB0BDE8F0812A26A0
S315080097F042683B495768ADF802603A68D2F8088073
S31508009800028910A87AF0C1FE38460DF1020305AAAE
S3150800981010A9C0470028E6D110A895F0CBFD32461E
S3150800982005A910A895F009FE4FF4807200231521AA
S3150800983010A896F09BF90028D5D10DF1010110A8C2
S3150800984095F0CEFF0028CED1264BCDE90100D3E90D
S315080098500023CDE9030010A896F07BF90028C2D1B1
S3150800986001AE314610A896F07EF80028BBD11E4BF3
S3150800987010A8D3E9002396F06CF90028B3D10DF1AE
S315080098800C08414610A896F06EF80028ABD110A82F
S3150800989096F054F90028A6D19DF9011010A896F063
S315080098A0F9F800289FD196E8060004F1140704F198
S315080098B0250638467AF08FFE98E8060030467AF094
S315080098C08AFE3846C1F014F8C5E900703046C1F082
S315080098D00FF8C5E90260E36801200133E36083E716
S315080098E07BD60D0818D70D0810D70D08F8B505460C
S315080098F00E460024094FAC4206DB1EF095FF0849C8
S3150800990097F08CFA0020F8BD1EF08EFF56F824203A
S31508009910394697F083FA0134EDE700BFA21A0F081B
S3150800992022D70D08F8B505460E460024064FAC4268
S3150800993001DB0020F8BD56F824303A4602211C20E7
S3150800994097F04BFD0134F2E7F9FE0E0810B51EF04C
S315080099506BFF044693F01DFD03490246204697F027
S315080099605DFA002010BD00BF20D70D08032202496A
S3150800997002481EF0F9BD00BF74D70D08F04A012051
S315080099802DE9F04700240646E0B088464FF4BE723B
S31508009990214601A80094C1F05AF8A64228DD6D4672
S315080099A04FF0200958F824A05046C0F0A1FF60AB3C
S315080099B02F189F4202461DD228465146C0F029FF5D
S315080099C07D1C60AB9D4204F101042CBF3D4687F81F
S315080099D00090A642E6D1084899F00EFF6846CAF0FC
S315080099E015FA054899F00AFF002060B0BDE8F0872F
S315080099F02F20FAE71920F8E780B000200122024953
S31508009A0002481EF0B1BD00BFC0D70D08F04A0120BC
S31508009A100122024B83F80421704700BF84410120CC
S31508009A2010B50446054B036000F5CF6098F0EDFAD3
S31508009A3023690BB1C0F0D4FE204610BD34950E083C
S31508009A4070B504460B4B00F5387503F12C0203601C
S31508009A504C334260836000F11006B54207D055F8D2
S31508009A60080C283D0028F8D02BF0C8FBF5E720465F
S31508009A7070BD00BFE4CD0E08A0F10400E0E7A0F138
S31508009A800800DDE710B5094B04460360084B836000
S31508009A90006948B143680BB9C0F0A2FE013B4360B8
S31508009AA013B903681B6B9847204610BDC0D80D082C
S31508009AB038DA0E0810B50446034B40F80C3BFFF79E
S31508009AC0E1FF204610BD00BFE4D80D0800220023A0
S31508009AD010B5C0E90023C0E90223C0E904230D4BF1
S31508009AE004460021836121226030C0F0B0FF4FF6A2
S31508009AF0FF720023A4F882204FF48072204684F86F
S31508009B008130A4F88420C4F888307AF04EFE2046C6
S31508009B1010BD00BFD0A90E0800F1080373B50446AE
S31508009B200D46036011B91048C0F0EBF90846C0F0BD
S31508009B30DFFE0F2805EB0006019007D90022204614
S31508009B4001A95EF057FC019B2060A36032462946B6
S31508009B502068C0F024FA00212046019B2268636031
S31508009B60D15402B070BD00BFCCD70D0810B504465D
S31508009B70044B0360406A7AF09EFDE0687AF0A8FE1E
S31508009B80204610BD70D80D0870B5164605460C4619
S31508009B908CB0114668467AF0EDFD294630467AF0D3
S31508009BA05BFD641B0A4BE4105C43694606A87AF021
S31508009BB0E1FD2246002106AB28467AF0C9FE06A832
S31508009BC0C0F0B0F96846C0F0ADF90CB070BD00BF82
S31508009BD0ABAAAAAA2DE9F04F4FF0180B0446174670
S31508009BE00E468DB000EB0B08351BB5F5C07F22DDA0
S31508009BF03F4BED105D4367BB4FF01808AF1E7F1053
S31508009C00684608FB07417AF0B5FD694606A87AF06A
S31508009C10B1FD20462A46394606AB7AF099FE06A8D3
S31508009C20C0F080F957B96846C0F07CF9331B182B89
S31508009C30A6F1180607DC0DB0BDE8F08F6846013FAF
S31508009C40C0F070F9DCE7324631462046FFF79CFF44
S31508009C50ECE76D100BFB0545404629467AF073FE86
S31508009C60A6F11809C246494660B128467AF06BFE45
S31508009C7008B129460BE0494640467AF064FE28B109
S31508009C80494604E040467AF05EFE10B34146204657
S31508009C90C0F0C5F93546504621467AF054FED146FD
S31508009CA00AF1180A0028F6D1A5F1180A51462046E5
S31508009CB07AF049FE5546AAF1180A0028F6D1A945B0
S31508009CC00ED3013F31463A464846FFF783FF4E46D4
S31508009CD08AE7494628467AF036FE0028C9D0CFE7F3
S31508009CE029464846C0F09BF909F1180AD3E700BF90
S31508009CF0ABAAAAAA2DE9F043884205460E4687B0C4
S31508009D0005D0DFF8608000F11804A64202D107B03A
S31508009D10BDE8F083294620467AF015FE04F11807B7
S31508009D20E0B1214668467AF025FDB946641BE41081
S31508009D3008FB04F4002C08DC284669467AF08CFCFB
S31508009D406846C0F0EFF83C46DFE7A9F13001A9F113
S31508009D50180948467AF080FC013CEBE720467AF081
S31508009D605BFEF0E7ABAAAAAA2DE9F041036886B024
S31508009D709B6A0446984701210346394A242097F0EE
S31508009D802CFB236821466846DB6A9847039E002415
S31508009D9030460DF10408404505D1324B9C4206DD9C
S31508009DA03148C0F0B1F8BFF052FF0134F3E7182785
S31508009DB067431CB13846B4F054FE0446254646456A
S31508009DC02CD1AC4217D0294B2E1BF2105A43B2FAAB
S31508009DD082F2C2F11F02294620465200FFF7FAFE18
S31508009DE0B6F5C07F2ADD04F5C07631462046FFF772
S31508009DF081FFB5421DD12646DFF87480B54222D1CF
S31508009E002646B54227D11CB139462046B4F039FE5C
S31508009E1002987AF050FC06B0BDE8F081284606F1B3
S31508009E2010017AF067FC3046BFF011FF1835064678
S31508009E30C5E730467AF0F0FD1836DAE729462046B7
S31508009E40FFF758FFD7E742460121242056F8183B6A
S31508009E5097F0C3FAD2E73046C0F064F81836D0E770
S31508009E60FED70D08555555052FD80D08ABAAAAAA31
S31508009E7060D80D08F8B50025474C60199035FFF7EE
S31508009E8025FEB5F5347FF8D100254448FFF71EFEB8
S31508009E900026C4E9D855C4E9DA55A4F87053C4F8BD
S31508009EA0745384F8785384F8805384F88253A4F85A
S31508009EB08453002712243A4A3A493748BFF069FEC4
S31508009EC0394B3A4A1A6002F12C014C32C3E9022591
S31508009ED059601033102218460021C0F0B8FD41F22F
S31508009EE0A4520346013CC0E90667057442824561EF
S31508009EF0056203F12803EDD1294A2D492A48BFF006
S31508009F0048FE2C481FF078F8254A2B492948BFF007
S31508009F1040FE2A482CF01AF9214A29492748BFF059
S31508009F2038FE2848284B1E4A2849C0E901440360E0
S31508009F300473BFF02EFE2648264B194A036000F12B
S31508009F400803C0E90433244900F12003234DC0E97E
S31508009F500A330472C460846180F820404462046352
S31508009F6080F834408463BFF014FE1D4B21462B60F5
S31508009F701C4B102205F11800EB60C5E901442C6161
S31508009F80C0F065FD184BEC616B612846BDE8F840EA
S31508009F90034A1649BFF0FDBD18360020E8380020F0
S31508009FA0B00602200748080838330020E4CD0E081A
S31508009FB0419A0008882B0020219A0008801A002060
S31508009FC045630308F042012014DD0E08655E0308A8
S31508009FD0B442012070D80D086D9B00088C42012000
S31508009FE0E4D80D08C0D80D0838DA0E08B59A000866
S31508009FF070B5036805460C4616460BB1032070BDBE
S3150800A00002210D20074A97F0E8F90CB92F20F6E748
S3150800A01023682046DB6898470028F0D1C5E9004642
S3150800A020EDE700BFF0D80D082DE9F04F07460068A8
S3150800A0308BB004680D46646C90461E46A0472D28D2
S3150800A04004460ED048B19F4A9F4B0221A52808BF57
S3150800A05013460D209D4A97F0C0F920460BB0BDE87F
S3150800A060F08F6B78202B01D10024F6E7984B3868DF
S3150800A070029358B103682A461B6C02A998470446FE
S3150800A08030B1029803689B689847E6E70324F8E727
S3150800A0904FF0000A4FF0000B8E4B0393029803A96A
S3150800A0A00368DB68984730B102210D208A4A97F089
S3150800A0B094F9A52410E08DF8060003980DF1060121
S3150800A0C00368DB689847044630B99DF80630402B8C
S3150800A0D006D0802B04D0032403A87AF0ACFFD0E77F
S3150800A0E06A789A42DAD1012303988DF80730036813
S3150800A0F00DF107015B69984704460028ECD19DF8E5
S3150800A1000730082B18D8002BC8D0013B072BC5D819
S3150800A11001A252F823F000BF51A1000863A100086C
S3150800A1209DA000086FA100089DA000089DA000083A
S3150800A1309DA000088DA10008102BAFD1102E1AD0B3
S3150800A140082EABD84FF48B73F340D807A6D512E088
S3150800A15006F1FF3CDCF1000343EB0C03002B9DD01A
S3150800A16009E0731E012B8CBF00230123F6E7042E9A
S3150800A17001D0012E92D1002303980493036804A901
S3150800A1805B6A9847814648B14C46A5E7082E85D8AC
S3150800A1906FF489733341DC07EDD57FE7049B1BBB5E
S3150800A1A0002303980593036805A99B6B9847814686
S3150800A1B00028E9D1059B002B7FD100248CE74FF0BE
S3150800A1C0FF31C21C994274EB020243D39DF8062064
S3150800A1D0402A80D14FEA134C05F10C0105F1180409
S3150800A1E08C4229D109F10109049B4B457FF656AFEC
S3150800A1F0CDE906AB03984946036806AA9B6A9847C1
S3150800A200044600287FF468AFDDE906306FF0010CDC
S3150800A2105A1E40F1FF3194456FF010028A41CED3A1
S3150800A2209DF80620402A7FF456AFD5E902129042DF
S3150800A23008BF8B42D6D1B3E751F8042F002ACFD0F6
S3150800A240BCEB124FCCD198B20028C9D092B290423A
S3150800A250C6D8A5E713F5803F70F1FF32FFF43BAF90
S3150800A2609DF80620802ADEE70023039806930368F4
S3150800A2704946DB6B06AA9847044600287FF42CAFAC
S3150800A280069BD90704D5D8F800200799914212D120
S3150800A2909A0705D5BDF82010B8F8042091420AD1CE
S3150800A2A05B078AD57868B8F80420036809999B681B
S3150800A2B09847002881D109F10109059B4B45D3D858
S3150800A2C0ECE600BF38D90D0843670F080CD90D080E
S3150800A2D0340702203807022029D90D080023F0B5D3
S3150800A2E08BB0CDE90433054600688DF80D308DF83E
S3150800A2F00E308DF80F3003680DF10D01DB689847B5
S3150800A3000446002840F0C78028680DF10E0103684E
S3150800A3101B6998470446002840F0BD8028680DF15F
S3150800A3200F0103685B6998470446002840F0B3802C
S3150800A330286804A903685B6A98470446002840F021
S3150800A340AA80286805A903689B6B984704460028D5
S3150800A35040F0A1809DF80E30002B00F09E809DF8FD
S3150800A3600D30402B07D0802B40F09E809DF80F3093
S3150800A370102B00F09B802646049BB34207D8002684
S3150800A3804B4F059BA3423AD801200BB0F0BD286875
S3150800A3903146036806AA9B6A9847002879D19DF832
S3150800A3A00D30402B16D1DDE906326FF0010C591E2F
S3150800A3B042F1FF378C456FF01001B94108D24FF0D2
S3150800A3C0FF310332994270EB02020CD39BB253B1B0
S3150800A3D00136D1E7802B06D1069B079A13F5803FF5
S3150800A3E072F1FF32F1E7334B0446002856D00121BB
S3150800A3F00D20314A009496F0F0FF0020C5E7286842
S3150800A400069603682146DB6B06AA9847002840D1C2
S3150800A410069B03F0020103F00402DB0710D411B116
S3150800A420F2B1264BE0E7002AFBD0099B03EA0702B4
S3150800A43012F5003FF5D89BB2B3F5404FF1D215E0BF
S3150800A44009B1002AEDD1079B13F5302F4FEA134CBB
S3150800A450E7D2BCF1000F0BD11B0410D56046E0E72C
S3150800A4604FF6FF73BDF820209A42DAD0013488E708
S3150800A47040F2FE3C03F580639BB26345D1D829B10F
S3150800A4804FF6FF73BDF820109942CAD0002ACCD1E6
S3150800A490ECE70B4BA8E70A4BA9E70A4B01210D206D
S3150800A4A0094A96F09AFFA8E7084BF7E7084BF5E73D
S3150800A4B00000FFFF50D90D08A8D90D0860D90D086E
S3150800A4C03FD90D0893D90D08BED90D0881D90D08B5
S3150800A4D06FD90D082DE9F0430546006887B0884610
S3150800A4E01F468DF80F2020B90324204607B0BDE883
S3150800A4F0F083DFF86490AB68CDF81490EBB90026CA
S3150800A5002868394603680DF10F02DB6B9847044645
S3150800A51078B91EB133684B4508BF00260223414669
S3150800A520CDE9006328463B469DF80F207AF0BEFD2C
S3150800A530002405A87AF07FFDD7E79DF80F30394645
S3150800A5408DF81330036805AA5C6B0DF11303A04759
S3150800A5500028D4D105AED3E738070220034B186884
S3150800A560034B002808BF1846704700BF0443012064
S3150800A5700843012010B5044602210D20024A96F030
S3150800A5802CFF024B1C6010BDD0D90D0804430120D6
S3150800A59010B5094C094922460948BFF0FAFA22467D
S3150800A5A008490948BFF0F5FA2246BDE810400749B0
S3150800A5B00748BFF0EEBA00BFB006022005500808EB
S3150800A5C008430120175008083807022019500808C0
S3150800A5D0340702200023F7B5CDE900334AB96E46A1
S3150800A5E001AB15240E4A013C06D11423036003B0BF
S3150800A5F0F0BD6B4601AEF4E71578002DF5D0557819
S3150800A6008D4206D107683568AF4207D0019D0135EE
S3150800A6100195009D403201350095E4E71B68E5E7A2
S3150800A620E039002007B5019021B10122097801A877
S3150800A630FFF7D0FF019813280AD8064B820103EBCF
S3150800A64080109B5C002B08BF002003B05DF804FB5C
S3150800A6500020FAE7E03900200023152010B5136022
S3150800A660074B013801D1002010BD1C78002CFAD008
S3150800A6705C7840338C4202BF146801341460F0E7FA
S3150800A680E039002000231A4610B50648B3F5A06F36
S3150800A6900A6001D1002010BD4033C45C002CF9D0FB
S3150800A6A00132F3E7A03900200868114B70B59842CB
S3150800A6B00E46154603D303F10C02904214D31B79B8
S3150800A6C0A3B90B4C03689B6898470123002D346097
S3150800A6D0237108BF00234FF00000637118BF2B7861
S3150800A6E0A06018BFA37170BD0446EBE71920FAE70E
S3150800A6F01843012002210D20014A96F06EBE00BFC4
S3150800A70054DA0D0838B502210D20074A96F065FE81
S3150800A7100024064D60194034B4F5A86F01D1002015
S3150800A72038BD7AF067FDF5E77CDA0D08E0390020D8
S3150800A73038B50B4B0C46984202D30C33984201D3DA
S3150800A740C0F04EF885680FCD0FC40FCD0FC40FCDDE
S3150800A7500FC495E80F0084E80F00002038BD00BF3D
S3150800A760400702202DE9F041144C1F460E461523DA
S3150800A770A046013B01D119201EE0217871B1403471
S3150800A780F7E763783B70B6B1A4EB0804A41134600C
S3150800A7902A4630463978FFF71DFF0CE02146106837
S3150800A7A0FFF7C6FF054630B9002FEAD11EB1A4EB64
S3150800A7B00804A41134602846BDE8F081E039002079
S3150800A7C0064B984203D303F10C02904204D39B68CC
S3150800A7D00248002B18BF0020704700BF4007022020
S3150800A7E010B50868FFF7ECFF80B18268084B0AB11C
S3150800A7F09A4206D21B784BB9054A7AF042FD0020E8
S3150800A80010BD03F14004A242F4D2F6E71920F7E797
S3150800A810A039002038B5114A83684BB9104B8360BC
S3150800A8208468944201D0237833B982600A2038BDFF
S3150800A8309342F5D24033F2E743791BB165788379C1
S3150800A8409D42E9D10868FFF7BBFF20B122467AF09E
S3150800A85018FD0020EBE71920E9E700BFE03E0020DD
S3150800A860E0390020F0B50E4F84680646BC4205D391
S3150800A87007F140039C4201D20020F0BD3B7863B942
S3150800A880074D0FCC0FC50FCC0FC50FCC0FC594E8DD
S3150800A8900F0085E80F00B760EEE71920EDE700BF67
S3150800A8A0A03900202DE9F0410E4611463046FFF743
S3150800A8B0B9FE0446002842D0224FBB68984202D10E
S3150800A8C03846FFF7CFFFDFF88C80444516D204F1EF
S3150800A8D0400CC4450FD294F8403063B165460FCD9D
S3150800A8E00FC40FCD0FC40FCD0FC495E80F0084E831
S3150800A8F00F006446E9E720467AF07CFC124CBB68F8
S3150800A90004EB86169E4212D003D2434501D2403B41
S3150800A910BB600E4A93689E4206D8434504D2A342BA
S3150800A9200CBF0023403B93600020BDE8F0817D68A2
S3150800A930286803689B689847054B2B60E9E70A2057
S3150800A940F3E700BF40070220E03900201843012042
S3150800A95038070220E03E00208268054B00219A4213
S3150800A96003D340339A4238BF11708160704700BFE5
S3150800A970A039002010B5094CD4E8AF3FDB070BD44B
S3150800A98020469FF046FC38B1054A06490648BFF0FE
S3150800A99000F920469FF042FC034810BD14430120ED
S3150800A9A0B0060220CB5208083C07022010B5084C16
S3150800A9B0084922460020BFF0ECF80020064B074A5B
S3150800A9C018711A6006492246BDE81040BFF0E1B882
S3150800A9D0B0060220D15208081843012000DB0D08F2
S3150800A9E07753080870B5104ED6E8AF4F14F0010437
S3150800A9F018D130469FF00DFCA0B10C4D0C4A2B46E1
S3150800AA0007CA43F8044B83E807004FF6FF722A8209
S3150800AA104FF0FF321846C5E905247AF001FE3046A4
S3150800AA209FF0FCFB014870BD244301202843012008
S3150800AA3094DB0D0838B5054604300C467AF0F0FD6F
S3150800AA402A6813461BB9E26001202C600DE098685D
S3150800AA50A16888420ED1197909B1217931B9232023
S3150800AA600121054A96F0B9FC002038BDD888E1884E
S3150800AA708842F4D0DB68E5E760DB0D082DE9FF4185
S3150800AA800A9F884616461D4696F0CAFC04460028C4
S3150800AA903FD0D6E900010026231DD8F80020C4E9D6
S3150800AAA00133C4E906011D4B267323602661226221
S3150800AAB004F1280C95E80F008CE80F002B7C04F1B4
S3150800AAC0480084F838306B8A63876B69E363D5E995
S3150800AAD00623C4E91023124B04F1580519680B68BC
S3150800AAE09B68984700220023C4E9142301AB97E822
S3150800AAF0070083E80700012385E80700A4F87430F7
S3150800AB00084B84F8646084F8686084F86C60A6670B
S3150800AB102360204604B0BDE8F08100BFF0DB0D08D5
S3150800AB202409022038DC0D08094A08B502600269C2
S3150800AB300AB1BFF055FE074A011D026082688A42C3
S3150800AB40F7D141680029F4D04A604368136008BD0C
S3150800AB50F0DB0D08A8DB0D0810B50446024B0360B0
S3150800AB60FFF7E2FF204610BD38DC0D08F7B50C46A6
S3150800AB70114B0546196868460B689B689847D4E9DF
S3150800AB801421009B20469F1A019B63EB01067BF06C
S3150800AB9026F9038920469F4276F1000309D27BF005
S3150800ABA01EF90430036828462B6000236B6003B047
S3150800ABB0F0BD7BF014F9F5E7240902202DE9F043EE
S3150800ABC007460E46154698466FF001096FF01004C1
S3150800ABD08BB092F0ADFB421E41F1FF33914574EB09
S3150800ABE00303F6D300231836CDE904010293304651
S3150800ABF02B46CDF8008004AA02A9FFF73FFF0446BA
S3150800AC0050BB4FF0FF324FF0FF33CDE9062306ABBA
S3150800AC1003900893304603AB1C4A08A9099396F09B
S3150800AC2067FC039C2CB900233B7038460BB0BDE883
S3150800AC30F083236820461B6898472146304696F0DD
S3150800AC4035FC2B463046CDF8008004AA02A9FFF74A
S3150800AC5015FF04460028E6D095E80F0004F12806FB
S3150800AC6086E80F002B7C204684F838306B8A638789
S3150800AC706B69E363D5E90623C4E9102301233B7016
S3150800AC8023687C60DB689847CFE700BF455D080806
S3150800AC90084B10B5036018334360044608307BF050
S3150800ACA012F9014620B9606900F5CF6097F0C3F93B
S3150800ACB0204610BD80DC0D08A0F10400E8E700BFBF
S3150800ACC010B504460221074A0D2096F086FBFFF7C9
S3150800ACD045FC04F114017AF0C4F92046BDE8104099
S3150800ACE08AF0FFBDA4DC0D0800B5084B89B00493B3
S3150800ACF0042305930023039204490422009303A81E
S3150800AD008AF0A9FD09B05DF804FB00BF94DD0D08C3
S3150800AD1038B50C46054602210D20084A96F05DFB1B
S3150800AD20214628468AF0EFFD044628B9FFF716FCA7
S3150800AD3005F114017AF087F9204638BDC3DC0D0801
S3150800AD4000B50D4B8DB0CDE90631ADF820200023B6
S3150800AD501F22CDE90923012391F83C208DF82C30D8
S3150800AD608DF82D200093024606AB08A902A80CF020
S3150800AD70B5F80DB05DF804FB88DD0D082DE9F04F38
S3150800AD8014460027B9B006461D460397FFF7E6FBAB
S3150800AD902269042A08D8042A10D8DFE812F013001A
S3150800ADA00F00F800210128014FF6FC739A4200F0C3
S3150800ADB023814FF6FD739A4200F0208140F28652B5
S3150800ADC0326064E0904B05A90493904B16A805934E
S3150800ADD07BF0CBF90123284685F844307AF0A2FEA9
S3150800ADE0044600284BD10BA80A9594F0A0FF884882
S3150800ADF07BF097F9074648B1864FB7F8643907F5E7
S3150800AE000B6703F00503052B18BF0027002205234F
S3150800AE10DFF80482CDE908234046CDE906877BF0B2
S3150800AE2080F910B906A87BF08CF94FF09009089CB8
S3150800AE30052C0AD128467AF0BAFE00244FF6FF738D
S3150800AE4085F84C40A5F84A3019E009FB048494F8C3
S3150800AE5081A047B138467BF064F920B197F8813074
S3150800AE60534508BF3C4694F88140FFF777FB0068D6
S3150800AE708DF8084088B928467AF099FE032405A873
S3150800AE807AF0D9F8049803689B68984734600023D9
S3150800AE903046337139B0BDE8F08F036802AA1B6CDF
S3150800AEA004A998470446CCB158E0169B8DF808408B
S3150800AEB0186802A903681B6998479DF80830002B93
S3150800AEC063D00A9B93F84530B3B9DDF828A00BA9DF
S3150800AED050469AF808B07AF091FEE0B9049805A9A8
S3150800AEE00368DB68984704460028DED00A2835D16F
S3150800AEF006A87BF026F99AE7169B8DF8084018688D
S3150800AF0002A903681B6998470A9A9DF80830127ABD
S3150800AF109A42E3D1D9E79AF84630DAF800107BB1BD
S3150800AF20096C4FF480720023CDF800B016A88AF099
S3150800AF30D1FF044601460BAA50467AF078FEB2E7DE
S3150800AF40DAF840300AF1280202A87AF0A5FD04468C
S3150800AF5040B1214650460BAA7AF069FE28467AF097
S3150800AF6026FE8CE7DAF800300222196C16A80023B0
S3150800AF70CDF800B08AF0AEFF04460028E9D1DAF829
S3150800AF80001002A87AF0C0FDD3E77124E6E700684E
S3150800AF90002836D003689B6903A99847024600280B
S3150800AFA07FF40EAF0123296885F8443005F128029D
S3150800AFB02B6C16A8039C7AF06FFD034670B92A68B5
S3150800AFC0106CCDE900430222002395F042F80346AF
S3150800AFD020B9296816A87AF097FD0346336056E724
S3150800AFE0006800283FF4ECAE0368DB69D4E703A9E0
S3150800AFF000687BF090F8D1E70397D3E70223039321
S3150800B000D0E70322DCE600BF340702203807022017
S3150800B01010A0002060970020409D00202DE9F041F7
S3150800B020D0F80C80B2B00546DDE938760C46B8F1A2
S3150800B030000F29D041B3402200216846BFF007FD22
S3150800B0402378012E8DF83C3002D18DF8146001E08A
S3150800B050022EFAD06378402B19D1D4E90223CDE920
S3150800B060002301238DF80830002F3FD0394610A859
S3150800B0707BF07BF810A88AF045FE034680B10121D3
S3150800B0800D201C4A96F0A9F932B0BDE8F081202BB4
S3150800B09001BFA368ADF8103001238DF81230E3E73D
S3150800B0A0BDF8443012AAADF8183007AB07CA83E8D2
S3150800B0B007000AAB15AA07CA83E807009DF860309F
S3150800B0C08DF834301BB19DF861308DF835309DF818
S3150800B0D0623000228DF8363001238DF83830EB685F
S3150800B0E0DB6869461868FFF72BFECDE73A46D8F8BD
S3150800B0F00C30F6E7E6DC0D082DE9F84391F83870D0
S3150800B10004460E464FF000080FB191F83980002525
S3150800B11004F10809484694F04DF931464846256039
S3150800B12094F05DF984F840700FB184F84180074BBC
S3150800B130A4F85050A36484F8905084F8D05084F84A
S3150800B140D85084F8DA502046BDE8F883380702203C
S3150800B1502DE9F04190F9343006460133A6B003D103
S3150800B160002026B0BDE8F0810368002BF8D100F175
S3150800B1700808404694F0C2FC074630600028EFD124
S3150800B180204C0146942201A80094BFF060FCB06CE4
S3150800B19004AD03689B6898470FCDB46406F158045C
S3150800B1A0A6F850700FC40FCD0FC40FCD0FC495E885
S3150800B1B00F0014AD84E80F000FCD06F198040FC4F4
S3150800B1C00FCD0FC40FCD0FC495E80F0084E80F000C
S3150800B1D0684686F8D87086F8DA7079F02CFF41460A
S3150800B1E006F148008AF084FD30600028B8D196F848
S3150800B1F040302BB1B06C96F841100368DB6998476C
S3150800B2000120AEE738070220F0B5CFB007460E4654
S3150800B2100D7AFFF7A3F9006838B1036829465B6A17
S3150800B22003AA984718B104461EE00320FBE7FFF778
S3150800B23095F904A900687AF06EFF0446A0B9BB7BAD
S3150800B240012B00F2838006A894F0B4F82246214622
S3150800B25006A894F0F2F8304606A98DF850407AF020
S3150800B26099FF074618B1044620464FB0F0BD9DF930
S3150800B2704430013321D1059006A916A8FFF73CFFF3
S3150800B28016A8FFF765FF28BB169C28A8212C2BD1EA
S3150800B29079F0D1FE06A916A8FFF72EFF06F10804D5
S3150800B2A016A8FFF755FF20BB169C212C4CD0002C66
S3150800B2B04AD028A879F0BFFED6E705A906A894F0D3
S3150800B2C085FC0028AFD1DDE904329A42D4D940F290
S3150800B2D08954C9E728A8FFF701F80028D0D128A87B
S3150800B2E079F0A9FE2F24BFE779F0A5FE002CBBD183
S3150800B2F0D0E7039BBB420BD9FFF730F928AB009385
S3150800B3002A463B46214679F031FF58B10446D0E734
S3150800B310FFF724F928AB00932A460023214679F043
S3150800B320DCFEF2E70137BBE7013B0393FFF716F9AB
S3150800B3302A463146039BFFF7CDF80028E6D1039B42
S3150800B340BB42F1D80024B4E70836F8E7042B2FD11E
S3150800B350039B049A01339342B9D8164BADF86000A3
S3150800B360169301233371337A8DF8A0008DF8E00027
S3150800B3708DF8E8008DF8EA0016AFB3B138463168A3
S3150800B3808AF0B6FC044670B9169816F8081F0368C2
S3150800B390DB699847FFF7E2F823462A4631460097C5
S3150800B3A079F09BFE0446384684E740F27E54FAE775
S3150800B3B06C2459E738070220F0B517690E4604468B
S3150800B3C0194685B0BFB902F10800FFF71DFF2F28FF
S3150800B3D0034613D0D82811D00B2819D000228DF88F
S3150800B3E00C20039A2046009231463A468AF0B0FA73
S3150800B3F0204605B0F0BD4FF4B163EFE7872501217C
S3150800B4000D20044A009595F0E8FF45F4A063E5E7AA
S3150800B4108925F4E70DDD0D08034B53F81C090028B0
S3150800B42018BF1846704700BF6043012008B50C488E
S3150800B43002680AB1BFF0D4F91F21A0F11C0340E944
S3150800B44005120849C3E9073240F81C1C483140F880
S3150800B450182C40F80C2C40F8042C40F8081C08BDA1
S3150800B460604301202CDD0D087FB5094B1F2201938F
S3150800B4704FF00113CDE903230023ADF8080001A915
S3150800B48002A8ADF8143091F095FF07B05DF804FBFB
S3150800B490BCDD0D0808B502487AF0B7FE08BD00BF46
S3150800B4A044430120024A03490348BEF072BB00BF69
S3150800B4B0B0060220356208084443012000B5084B4F
S3150800B4C089B00493032305930023039204490322B6
S3150800B4D0009303A88AF0BFF909B05DF804FB00BF22
S3150800B4E024DE0D0810460249022296F0B7B800BFBE
S3150800B4F014DE0D087FB516690546022E1C464DD08A
