S02B00002F686F6D652F686164796C69752F776F726B53706163652F73696C6162732F4C692D4261745F4D611D
S3150800600008120020197D030865A10A0845900008B2
S3150800601061FA0B086D9000088190000895900008B9
S3150800602065A10A0865A10A0865A10A08F9950D0877
S31508006030A9900008D0040F089D950D0845D40D08B1
S315080060409179030865A10A0865A10A0865A10A08E5
S3150800605065A10A0865A10A0865A10A0865A10A08D2
S3150800606065A10A0865A10A0865A10A085D940008E1
S3150800607065A10A0865A10A0865A10A0865A10A08B2
S3150800608065A10A0865A10A0865A10A0865A10A08A2
S3150800609065A10A08E558050865A10A0865A10A0860
S315080060A065A10A08B15005089150050865A10A08B6
S315080060B065A10A08CD2E0808A13708080B8C0D081B
S315080060C0078C0D08152F0808218C0D080F8C0D0854
S315080060D071370808138C0D08E1370808493808088D
S315080060E065A10A0865A10A08A991000865A10A0818
S315080060F0E7EE0B0865A10A0865A10A0865A10A0862
S3150800610065A10A0865A10A0865A10A0865A10A0821
S3150800611065A10A0865A10A0865A10A0865A10A0811
S3150800612065A10A0865A10A0865A10A0865A10A0801
S3150800613065A10A0865A10A0865A10A0865A10A08F1
S3150800614065A10A08BD3F060865A10A0829E40D08E5
S31508006150FD18080865A10A08EB8B0D08F18B0D08D8
S3150800616065A10A0865A10A0865A10A0865A10A08C1
S31508006180F0B5114A114C124E00F00105E3695F079C
S3150800619013D40DB9334213D103EA00078F4207D14E
S315080061A00B4A1A40002A0CBF00206FF00100F0BD10
S315080061B0013AEBD16FF00200F9E74FF0FF30F6E74E
S315080061C06FF00100F3E700BF8096980000000350C7
S315080061D00200010070B50B4BD96911F480310DD15D
S315080061E001244FF48072084E084DF46020462C6452
S315080061F01A61FFF7C5FF3464EC6070BD6FF00100EB
S31508006200FBE700BF000003500010035000200350B6
S315080062104FF4803238B50E4B0E4C9A66E56941F656
S31508006220713315400122E3630B4B0021DA60022328
S31508006230606121202361FFF7A3FF10B92120FFF732
S315080062409FFF0122054BDA600DB10023E36338BDD9
S315080062500090005000000350001003500020035027
S3150800626070B5134C6061E3695B071ED40E4656F899
S31508006270043B8D18A361AE420BD1042300212120D3
S315080062802361FFF77DFF58B9BDE870402120FFF76D
S3150800629077BF08210846FFF773FF10B1042323616F
S315080062A070BD56F8043BA361E5E74FF0FF30F7E70A
S315080062B0000003502DE9F84315464FF48032184B79
S315080062C089469A6603F51C33DF690646174041F688
S315080062D07132DA63012203F58053DFF84C80DA6005
S315080062E055B9284601220F4BDA601FB10022A3F5E3
S315080062F00053DA63BDE8F88306F5005404EA080497
S31508006300A41BAC4228BF2C46494622463046FFF716
S31508006310A7FF0028E6D12644A1442D1BE0E700BFCD
S31508006320009000500020035000E0FFFF000000002E
S31508006330000000000000000000000000000000004F
S31508006340013800D0FCE770472DE9F04F2DED028BA0
S315080063501D4613690646052BD5B00BD8013B01220D
S315080063600024042B23D8DFE813F04100290130016B
S315080063703F0152014FF6FC72934212D04FF6FD725E
S3150800638093424FF0010340F0448102200021CDE9F9
S315080063903E0185F8443028463EA980F07BFF3060F0
S315080063A086E000230022CDE93E230123F1E7CB69ED
S315080063B0284685F844202C9380F006FA0028EED16A
S315080063C03FA83E959AF005FB3EA92CA885F094FBBC
S315080063D00446284680F03DFA2046002CDFD14FF6C9
S315080063E0FF7385F84C40A5F84A30D8E7D1F81C80E9
S315080063F0284685F8442080F0E7F90446002856D157
S3150800640013A812959AF0E5FA41460AA883F0E7FC24
S3150800641005232246414600930EA885F0D2FA274660
S315080064209FED7F8BDFF800A20EA90AA885F0E0FA97
S31508006430044648B9284680F00CFA4FF6FF7385F8EB
S315080064404C40A5F84A3032E00AA883F098FC8DED56
S31508006450228B8DED248B90F88190CDE92677CDE9B6
S315080064601E77ADF880708DF8A0708DF8AC90D0E9E5
S315080064700023CDE92423B0F8823000F16004ADF89A
S315080064808030D0E9022320212046CDE92223C5F019
S31508006490D6FF4946CDE926402CAA4046CDF8B0A0FD
S315080064A093F03AFE044658B1284680F0D2F9346093
S315080064B000233371304655B0BDEC028BBDE8F08F32
S315080064C02DAB1E9341230DF1080B1F933EABCBF862
S315080064D0003055235A4649464046CBF8043093F0D7
S315080064E0AAFF04460028DFD1DBF80430B3B19BE8E5
S315080064F0030001238DF8103005AB83E8030004A9D7
S3150800650007A885F0ECFA9DF81C308DF8A0302BB161
S3150800651029AB08AA92E8030083E803009DF8AC308B
S31508006520002B49D0DDF8489099F8452099F808B02D
S315080065300AB19B451AD1484613A980F0B1F9A8B10A
S3150800654099F84630D9F80010A3B1096C4FF4807257
S315080065500023CDF800B01EA8C3F017FB0446014679
S3150800656013AA484680F0B5F9002C9DD10AA885F0F3
S3150800657014FA59E7D9F8403009F1280207A880F03B
S31508006580DDF8044628B12146484613AA80F0A1F949
S315080065908AE7D9F800300222196C1EA80023CDF824
S315080065A000B0C3F0F2FA04460028ECD1D9F800107E
S315080065B007A880F0FBF8D1E7712475E705200021CC
S315080065C085F84420CDE93E01E5E6CB6993F88233A8
S315080065D0CDE93E340123284685F844303EA980F0AB
S315080065E059FE3471306065E7CB69284685F8442042
S315080065F02C9380F0E9F800287FF4D1AE3FA83E95A9
S315080066009AF0E7F93EA92CA885F07AFBE0E62B7A02
S31508006610DEE78622C0E900234CE700BFAFF300801F
S31508006620000000000000000090C60E0800000000F0
S315080066302DE9F04F2DED028B083085B00E469146B8
S31508006640DDF850809BF03EFD0446002800F0A3804C
S315080066506F4600259FED548B4FF0010B41F2A45A6B
S3150800666010AB0FCB87E80F00514BC4E902552360E6
S31508006670C4E90455C4E906552C3363604D4B04F14F
S31508006680500C0FCB84ED108BC4E90E5584F82050BE
S3150800669084F8305084F848508CE80F00464B84F84C
S315080066A060B0A4F862A06566236704F18403C4E9B0
S315080066B02133424B1022C4F89830294684ED1A8BB0
S315080066C0C4E91D55C4E9275584F87C50C4F88C5094
S315080066D0C4F8A45004F1A800C5F0BCFF84ED308BC3
S315080066E084F8B8B0A4F8BAA0C4F8BC5004F1C8003D
S315080066F09CF050FB4AF6C873C82284ED388B84EDAB
S315080067003A8BC4E93C2304F58673C4E94055C4E9C9
S315080067104333A4F8D45084F8D650A4F8D85084F853
S315080067200851C4F814513368A3607368E360B3680A
S315080067302361F36863613369A3617369E361337E37
S3150800674084F8203033B104F1240306F11C0207CA89
S3150800675083E8070096F8283084F830300BB1F36ADE
S315080067606363304680F001FAA8B9B9F1000F12D078
S31508006770B8F1000F0FD003CF3B78C4F8389084F8EF
S315080067804830012384F80031231D20646164C4F86D
S315080067909080C4F8A430204605B0BDEC028BBDE855
S315080067A0F08F00BFAFF3008000000000000000007B
S315080067B058420E08AC4A0120D4F90E0848420E0881
S315080067C02DE9F04F2DED028B00240025CBB099461C
S315080067D0CDE92E450023CDE93045CDE934454FF6C0
S315080067E0FF74DFF898A2064688461746CDE90C33AB
S315080067F08DF8C8303393CDF8D8A04894A2B305468F
S3150800680000F53474A54206D10B2420464BB0BDECE6
S31508006810028BBDE8F08F284680F0D5FA08B190358E
S31508006820F0E79FED8F8BBDF85C318DF8C880ADF829
S3150800683020318D4B4FF4C8710E93002309A8CDE97A
S3150800684009330F93CDF870A00B9385F03EF9099C98
S3150800685014BB0B240BA880F05CF80AA880F059F842
S3150800686009A880F056F8D0E793F0E6FB044608B985
S31508006870AC24CAE706F5347528467EF0E8FDB4F878
S3150800688082308DF8C880ADF8203121460CA894EDE9
S31508006890028B93F03EFBCCE74FF4C8710AA885F04B
S315080068A014F9DDF828A0BAF1000FD2D04FF4C87158
S315080068B00BA885F00AF90B9A002ACAD04FF4C873B8
S315080068C04146CDE91332304610AA1094CDE9113A63
S315080068D0159393F011FC04460028BBD14146304677
S315080068E012AA93F0EBFB04460028B3D14146304682
S315080068F014AA93F0C0FB04460028ABD110A916A829
S3150800690085F0D9F812A918A885F0D5F814A91AA8F7
S3150800691085F0D1F836AB079330AB05930DF1B80A7D
S3150800692034ABCDE903A30DF1700B0EAB8DED008BE7
S31508006930CDF818B002931AAA18A916A81BF0BAFF20
S315080069400446002886D10BA87FF0E3FF0AA87FF04B
S31508006950E0FF09A87FF0DDFFB9F1000F13D1D6F8E3
S31508006960640300285ED003689B6898470346D6F8F8
S315080069706403002B4ED003685A4641465B69984724
S31508006980044688B141E7D9F8003048465B6998471C
S31508006990594693F07EFE08B9C52436E79DF8583166
S315080069A0CDF8CC908DF822319DF860315146B3FA76
S315080069B083F328465B098DF8233193F011FE0446CC
S315080069C000287FF422AF28460CA993F0E7FA06F5CB
S315080069D05D7495F881303FB302211120234A9BF05C
S315080069E04EFBD5E900122B69CDE9012100936B69AD
S315080069F0022111201E4A9BF042FB20460F991DF0EA
S31508006A0071FE034630BB96F88233013386F882332B
S31508006A100024FAE603684146DB6898470028C3D194
S31508006A201024F2E60324F0E6D5E900121120CDE998
S31508006A30002102210F4A9BF022FB20460F991DF0E8
S31508006A4051FE03460028E3D0012111200A4A9BF093
S31508006A5016FBDDE701211120074A9BF010FBD2E760
S31508006A60000000000000000080860E0843850E081E
S31508006A7063850E08A6850E08DB850E0890C60E08E7
S31508006A802DE9F0478AB00DF10D030193152306464B
S31508006A9000934FF48072002308460C469AF0C9F911
S31508006AA0E8B996F8963001220093204600239AF01A
S31508006AB047F9A0B996F8973002220093204600239A
S31508006AC09AF03EF958B90DF10E03019316230322E5
S31508006AD00093204600239AF0ACF9054610B10AB097
S31508006AE0BDE8F0874FF0100906F1C8070DF1180840
S31508006AF0102200214046C5F0ADFD0DF10F030193AC
S31508006B0015234FF480720093204600239AF091F9DA
S31508006B100028E4D196F89720EBB29A4251D917ED9E
S31508006B200C7BC44637F828ACA7F12603A7F1160E46
S31508006B30624618685968083303C273459446F7D104
S31508006B408DED007B0422002320469AF0D4F8002815
S31508006B50C5D1052200232046CDF800A09AF0F0F80A
S31508006B600028BCD14046494606228DE8030000238A
S31508006B702046CDE904899AF02FFA0028AFD120469D
S31508006B809DF90F109AF08AF9013530370028A6D1F9
S31508006B90032DADD120469DF90E109AF07FF90028F5
S31508006BA09DD1B6F88E3007220093204600239AF02E
S31508006BB0C7F8002893D120469DF90D109AF06EF972
S31508006BC08DE782469FED027BBAE700BFAFF30080F0
S31508006BD00000000000000000A0F1840050E700BF9C
S31508006BE0054B18680368D96901A3D3E90023084748
S31508006BF000E0373B015D0300840B02200000000023
S31508006C0037B5A3F09DFE044600286ED13A4B1A8884
S31508006C109B78ADF804208DF8063031F015FF32F078
S31508006C2029FC32F087FB0546344B036032F012FE2E
S31508006C30284632F01BFD00B9FEE72DA3D3E9002351
S31508006C404FF0FF314FF0FF3031F006FF32F076FBA0
S31508006C50214632F0CFFBA3F076FE01A832F0C8FC3D
S31508006C60044600B1FEE7264B264A98801860264B54
S31508006C7098801A60254B264A98621A60254A988099
S31508006C806FF06300DA6033F057FD0B2032F0A4FB97
S31508006C9032F002FC32F048FB00B9FEE754F066FE1B
S31508006CA02046A4F014F808210846A4F017F800B105
S31508006CB0FEE7A4F00AF832F08DFAA3F055FF10218A
S31508006CC01548B8F044FF00B9FEE714491248B8F071
S31508006CD050FF00B9FEE710218C20114A54F05EFAE5
S31508006CE000B1FEE70F48A5F01AFB03B030BD00BFA0
S31508006CF00AE020FFE2030000FD110F0801AB0A08B5
S31508006D0068ED0020C0FD012038ED002008ED0020C8
S31508006D1040FD0120F8EC0020D48F012071E00D0819
S31508006D20C48F0120B2800F082DE9F04389B0A3F083
S31508006D30F8FD00B9FEE75C4D2B6803B9FEE70122B2
S31508006D409B8811460DF10B008DF80B3032F006FCCE
S31508006D509DF80B102B6802390022186889B232F0A8
S31508006D60FDFB002305930793504B05AE06932B684E
S31508006D7093F82C208DF814201B681C7814F0200436
S31508006D8014D0A3F0A6FF00285CD0A3F0A2FF62F0FF
S31508006D90C3FC0B46024640A1D1E9000162F060FE41
S31508006DA062F0CEFF079B18440124079032F01AFCC4
S31508006DB09DF80B30002848D0981DC00062F0BCFC36
S31508006DC037A3D3E9002362F021FD8946804632F0D5
S31508006DD009FC62F0A1FC0B4602464946404662F0B1
S31508006DE03FFE62F0ADFF079B18440790A3F0A0FD95
S31508006DF038B132F05DFB0020A3F096FD0020A3F029
S31508006E009AFD29684B6963BBA3F0AEFD10B3079BD7
S31508006E10274F03F5FA7307932B681B7EBB7032F076
S31508006E2041FBF870286833463A462146807932F0A5
S31508006E3077FB58B34FF480510020D7F03EF9A4F001
S31508006E4072F823E00798C030AEE70798063300EBE0
S31508006E504310CAE72B6832462146987932F056FB2A
S31508006E60E7E70022962004920A691A44114BA2F514
S31508006E709B7298800392887903AA2146009632F07D
S31508006E805DFB0028D6D10120A3F079FD09B0BDE845
S31508006E90F08300BFAFF300800000000060E36641A6
S31508006EA00000000080842E41C08F012020A1070029
S31508006EB0280C02201C0C02202DE9F3411E461C4B0F
S31508006EC0044683424FF000038B4115460AD216A3A7
S31508006ED0D3E9002362F0F4FF164914460246284611
S31508006EE0A7F075FE144B4EF66021B4FBF3F203FBD4
S31508006EF01244B4FBF1F34FF47A7801FB1344B4FB64
S31508006F00F8F728460D490097A7F061FE46B12846CE
S31508006F1008FB17420A4902B0BDE8F041A7F057BE80
S31508006F2002B0BDE8F08100BF005C26050000000045
S31508006F30FF5B260578420F0880EE36005E8A0E084B
S31508006F407E420F080348044B834202D0034B03B129
S31508006F501847704704170220041702200000000093
S31508006F60064B0749C91A891048BF0131491003D091
S31508006F70044B0BB101481847704700BF041702209D
S31508006F80041702200000000010B5064C237843B908
S31508006F90FFF7D8FF044B13B10448AFF30080012371
S31508006FA0237010BDAAC001200000000094E20F085B
S31508006FB008B5054B1BB105490548AFF30080BDE888
S31508006FC00840FFF7CDBF00BF0000000030310120A8
S31508006FD094E20F08A3F5803A704700BF174B002BC1
S31508006FE008BF134B9D46FFF7F5FF00218B460F465A
S31508006FF01348144A121AC5F02DFB0E4B002B00D06D
S3150800700098470D4B002B00D098470020002104001C
S315080070100D000D48002802D00C48C5F0B7FA63F0F9
S315080070205DFA20002900B8F039FD02F0C7F800BF64
S315080070300000080000000000000000000812002000
S3150800704008120020000702208DC50C080000000069
S3150800705008B5154B4FF4E47200211846C5F0FAFA44
S3150800706009220346026142611048114A98614FF4A9
S315080070708061DA61002219629A625A62DA62C3F89A
S31508007080F0000C48C3F8F400C3F8F8100A49C3F82E
S315080070900021C3F8FC20C3F8042111F8010D985407
S315080070A00132102AF9D108BD48310120A8E70D0898
S315080070B0ABC40120ABC00120C1E70D082DE9F84F8C
S315080070C0DFF88880824698F800308946532B1646A2
S315080070D001D0FFF7BDFF182707FB0A87D7F800512D
S315080070E0D7F8FCB05D452FD9D7F8F840D7F8F41093
S315080070F0641BB44228BF3446484629442246C5F094
S3150800710065F9D7F8F8302544AB4208BF0025A144F5
S31508007110361BABEB050B5E4528BF5E465EB11823F2
S3150800712003FB0A83D3F8F410324629444846C5F0CF
S315080071304DF93444354424B1182303FB0A88C8F8AA
S3150800714000512046BDE8F88F0024E2E748310120C7
S31508007150F8B5182700FB0775124B0E461D4407FBAA
S315080071600033DB6A1446012B0AD0022B14D023B94C
S3150800717028467DF0BFFD844208D900242046F8BD84
S3150800718028467DF0B7FD844228BF0446224631468C
S3150800719028467DF0B8FDF1E72846BDE8F8407DF0C1
S315080071A0CDBD00BF48310120F8B50B4B04461B780E
S315080071B00D46532B164601D0FFF74AFFEFF311870A
S315080071C04FF0200181F31188324629462046FFF701
S315080071D0BFFF87F31188F8BD483101202DE9F0413A
S315080071E0164C1E4623780546532B8846174601D06B
S315080071F0FFF72EFF082D1DD8EFF3118C4FF0200155
S3150800720081F3118865B1182005FB000344F8038053
S31508007210E2180023576000FB054216629362536228
S31508007220182303FB0544069BE3628CF311880020B0
S31508007230BDE8F0814FF0FF30FAE700BF4831012082
S315080072402DE9F843174E1F4633780546532B8946D2
S31508007250904601D0FFF7FCFE082D1FD8EFF31182E8
S315080072604FF0200181F311886DB11824002304FB27
S315080072700564C4F8F090C4F8F480C4F8F870C4F84B
S315080072800031C4F8FC30182303FB0566089BC6F8D2
S31508007290043182F311880020BDE8F8834FF0FF30EF
S315080072A0FAE700BF48310120024B1B780BB10023D7
S315080072B003737047ACC8012002211D20014A9AF0C9
S315080072C0DEBE00BFC2E70D0802211D20014A9AF062
S315080072D0D6BE00BFD2E70D0802211D20014A9AF04A
S315080072E0CEBE00BFE1E70D0870B5037C0446FE2B51
S315080072F022D0FF2B30D00B2B37D80B2B35D8DFE815
S3150800730003F00612063434343434343434129BF021
S3150800731086FD036841F288315D692346164AAC4604
S31508007320BDE8704060479BF07AFD036842F2107131
S315080073305D69114A2346F2E79BF071FD0368224610
S315080073405B6A0D4998479BF06AFD03684FF47A71AA
S315080073505D69094A2346E2E79BF061FD0368224618
S31508007360BDE870405B6A044918470221BDE87040D1
S315080073701D20024A9AF083BED9720008FBE70D0861
S3150800738048F2040210B5038893420DD006D803F5D7
S31508007390FF437F339BB2012B0AD910BD48F2120274
S315080073A09342FAD10F4A0CE0027A0F4B1A70F4E7AF
S315080073B090F90830012B03D090F90930012BECD154
S315080073C00A4A022121209AF05AFE9BF028FD0368FA
S315080073D040F6B8315C69064AA446BDE81040002369
S315080073E0604700BF38E80D08ACC8012010E80D0852
S315080073F0CB4D080808B59DF033F923F0FDFB23F0C3
S315080074002DFC094826F0D2FD00224FF46171074889
S315080074108FF0D8FC30B1BDE8084001212120044A8C
S315080074209AF02DBE08BD00BF80B00020A8A300209A
S3150800743074E80D0810B500220C46134813499DF050
S31508007440B7F918210A20124AD6F08CFB114B18609E
S3150800745040B921200121104A9AF011FE40F201702C
S315080074607DF076FE20460D4A0A49D6F03CF840B92A
S31508007470212001210A4A9AF002FE40F202707DF0AC
S3150800748067FE002010BD00BFB0BF00208173000852
S31508007490F4EA0D083C340120A2E80D08D0EA0D08EC
S315080074A0C5E80D0810B5054B054C187020469CF02C
S315080074B0AAFE2046BDE810409CF0FDBEACC80120DF
S315080074C080B0002008B50C489DF0B1F958B10B48BA
S315080074D09CF099FE09489CF0EEFE094825F078FADA
S315080074E005489DF0ADF9074B186818B1BDE8084086
S315080074F000F0C2B908BD00BFB0BF002080B00020B0
S315080075002855012020330120014608B54FF47A7228
S3150800751000238002890D62F0D3FC094B01461868E6
S31508007520D6F066F950B121200121064A9AF0A7FD46
S31508007530BDE8084040F205707DF00ABE08BD00BFF0
S3150800754044340120DFE80D0808B5074A40F6B83389
S31508007550022121209AF093FD40F6B830FFF7D4FFB8
S315080075600122024B1A7008BDF8E80D08ABC80120C5
S3150800757008B5094B0A211868D6F03AF950B1212006
S315080075800121064A9AF07BFDBDE8084040F20570E5
S315080075907DF0DEBD08BD00BF4034012037E90D0887
S315080075A010B5044686B009489AF08CFD60B10023F0
S315080075B0CDE903330293064B214601930223054A7C
S315080075C00093054B07F00CF806B010BD24330120D4
S315080075D0E9720008B9720008C972000808B5094BB3
S315080075E00146186858B100231822D6F0FBFA40B1B4
S315080075F0054A0121BDE8084021209AF040BD034A0A
S31508007600F7E708BD3C3401204FE90D087CE90D0871
S315080076107FB50223ADF80030044B0190684602930B
S31508007620FFF7DCFF07B05DF804FB00BF5D760008D6
S315080076308B68084603B1184702212120014A9AF0AF
S315080076401EBD00BF9DE90D0800220249024827F029
S315080076505FBD00BF29780008B0BF00200388022B51
S3150800766006D1044B1B780BB9FFF76EBFFFF7ECBFCB
S31508007670704700BFABC8012000220249024827F024
S3150800768047BD00BFF5730008B0BF002010B5A4B011
S3150800769003AB0193812301AC029364F015FE2146E6
S315080076A065F01EFB28B994E803002DF021FB24B0F1
S315080076B010BD01212120024A9AF0E1FCF7E700BF3C
S315080076C0CDE90D0800230246194610B504462048A0
S315080076D0D1F0D2FD1F4B186040B9212001211E4A66
S315080076E09AF0CDFC40F204707DF032FD002322466C
S315080076F001211A48D1F0C0FD194B186040B9212064
S315080077000121184A9AF0BBFC40F204707DF020FD76
S3150800771002212120144B154A9AF0B1FC0221144A81
S31508007720012321209AF0ABFC28F0D8F80368DB6F18
S3150800773098470120FFF7AAFF01F0B2FB0D489CF01D
S31508007740ACFD0D4B0D4918700D4892F016FD10BD95
S315080077501176000844340120E5E90D08074E0808AB
S3150800776040340120FFE90D08F2520E0819EA0D0807
S315080077703DEA0D0880B00020ACC801201433012072
S31508007780409D002038B50546FFF79CFF044638B1F2
S315080077900C4827F039F920467DF0DAFC204638BD3A
S315080077A02B6828469B689847044608B10648F0E7C0
S315080077B0064B1A6852F8640C1A581844526C9047CB
S315080077C0ECE700BF5AEA0D086CEA0D08805501205F
S315080077D0482337B50E4A0F4CA2F118050093111D20
S315080077E0012328469AF058FC224628460A49C3F03F
S315080077F0D3FF0023224609480949C0E90233094B49
S3150800780003603033436003B0BDE83040C3F0C4BF03
S315080078103C33012010090220E34D080810330120EB
S31508007820C54D080888EA0D0810B50121094827F052
S315080078305BFA20B164F048FD0121C5F04CF8064812
S3150800784027F0BEFB28F04AF8BDE8104003689B6F96
S31508007850184700BF80550120B0BF002010B5044668
S315080078600178044827F074FAA37883F00103A3701B
S3150800787010BD00BF8055012073B503690446E3B106
S315080078804369D3B10E4B684619680B681B6998475C
S31508007890D4E90423DDE90065A178002918BF134659
S315080078A0D4E902125B1842F10002B342AA4104D29B
S315080078B02046FFF7D3FFC4E9026502B070BD00BFDA
S315080078C0840B022038B500230022C0E904330023C4
S315080078D004460D46C0E902230278024827F028FA32
S315080078E0A57038BD8055012001489CF0D7BD00BF62
S315080078F080B0002001489CF0D3BD00BF80B00020B6
S31508007900044A08B583680260243242600BB1C4F0A9
S315080079106AFD08BD38EC0D08A0F10400F0E700BFC9
S3150800792010B50446054B03604433436014F014F95C
S315080079302046FFF7E5FF204610BD00BFA04A0E0807
S31508007940A0F10400ECE700BF38B5124B044603F17A
S315080079503802C26003F14C02026103F1600242611F
S3150800796042680360743383613AB183682BB153600C
S3150800797042681A600023C0E9013304F14405284629
S3150800798087F09AFF28467DF066FA201D7DF063FA97
S31508007990204638BD800D0E08A0F11400D4E7A0F1EA
S315080079A01000D1E7A0F10C00CEE7A0F11800CBE754
S315080079B01F2008B502210C4A9AF061FB0B4826F0F5
S315080079C0EFFA78B90121094825F046FF50B9084869
S315080079D082F09AFF1F200221064A9AF050FB0348BC
S315080079E09CF05AFD08BD00BF0CEB0D0880B00020C6
S315080079F0581500202AEB0D08F8B51E4C002526461A
S31508007A001D4F1E481E4B3A461E49C0E901550360E4
S31508007A10C560057445610583C3F0BEFE1A4B294649
S31508007A2046F8D83B3246234604F1080008F06AF8BF
S31508007A3004F12003C4E93435144B3A46C4F8D83067
S31508007A40134B2046C4E9383604F1F403C4E93B3540
S31508007A5041F20A430F4984F8E85084F8F451A4F82F
S31508007A60DC30C3F099FE3A46BDE8F8400A490B48AF
S31508007A70C3F092BE58150020100902205434012084
S31508007A8078C90E08D1CE0208480C0E085CB50E0857
S31508007A9040B50E08AD4E0808534E08086409022082
S31508007AA07FB5044602211F20854A9AF0E8FA234644
S31508007AB002211F20834A9AF0E2FA834D02211F20F1
S31508007AC07F4A9AF0DCFA02211F20804A9AF0D7FAF8
S31508007AD02B784BB9284627F0C9FB00280CBF012391
S31508007AE000232B7040F0E5802146794824F06AFF90
S31508007AF064F0EAFB0446C4F0D6FE002840F0D980BC
S31508007B00201D22F023F904F1080022F0ADF82046E2
S31508007B10C4F0DEFE6F4A704B0221002818BF1346D8
S31508007B201F206E4A9AF0ABFAFFF742FF002840F092
S31508007B30C0806B4B039001936A4B6B4802939CF091
S31508007B4060FB6A4C039001AB6948236327F03AF956
S31508007B50002840F0AE8067489CF064FE664DD5E884
S31508007B60AF3FDA070BD42846A3F0A5F938B1634A24
S31508007B7063496448C3F010FE2846A3F0A1F9624D94
S31508007B80D5E8AF3FDB070FD42846A3F094F958B1E0
S31508007B905C495E4814F044F8584A5D495B48C3F0AE
S31508007BA0FBFD2846A3F08CF95A4D584B284623640A
S31508007BB025F098F92369A5631BB9574B574A2361E2
S31508007BC05A60E36B53BB564D6B68002B70D105F1B9
S31508007BD0140026697DF088F905F11C007DF084F90A
S31508007BE0EB6803B92B7295F834304E4823F0050339
S31508007BF085F834307DF078F94B487DF075F995F8BD
S31508007C0034304A4823F0180385F834307DF06CF98F
S31508007C1000236E602B7285F83430E563236C0BB94C
S31508007C20434B2364434D444B28462169636293F0D2
S31508007C3012FD636A28462B6192F0E3FE002838D1CC
S31508007C4022692562002A36D03C4B3D4D5A60636155
S31508007C5002F090FE3B4B0221A0623B4A2120E362E0
S31508007C609AF00DFA2846216916F082FA08BB2069AF
S31508007C70A56196F04EFF354B216960643448236050
S31508007C809BF092F8324822F051F81849314815F01D
S31508007C90EBFD044617489CF0D3FD3CB92E4826F068
S31508007CA0B3FE144827F074FA044630B1204600E0C3
S31508007CB0032004B070BD2F20FBE700F0AFF8F5E70E
S31508007CC04BEB0D087EEB0D08A8BF00208AEB0D08CC
S31508007CD02855012043EB0D081C8A0F089AEB0D085E
S31508007CE0E9780008F578000880B000201809022015
S31508007CF080550120B0BF00204C3401201009022015
S31508007D00554E08081409022048340120081200209C
S31508007D102179000854340120040A02206AFB012054
S31508007D20184901203C4901204449012024490120E1
S31508007D30C8730020AC460120E4090220A4460120AD
S31508007D4068460120E8090220ACEB0D081033012033
S31508007D506409022060770020DCEB0D0810B5134893
S31508007D60FFF79EFE08B17DF0F3F911489CF05AFD25
S31508007D7064F0AAFA00B10C301AF010FB0C489CF01B
S31508007D805FFD1F2002210B4A9AF079F90A485EF036
S31508007D9075FC08B17DF0DCF9084C2068D5F017FCB5
S31508007DA008B1C4F020FB206010BD00BF01EC0D082F
S31508007DB0B0BF00200AEC0D089CA701205034012012
S31508007DC010B50A489CF0CAFC0021094A0948D5F0B2
S31508007DD08AFB094C02212060084A1F209AF04FF9B5
S31508007DE023680BB9C4F0FFFA10BD00BF8055012007
S31508007DF074EC0D085D7D0008503401201CEC0D085C
S31508007E00014820F081BC00BFF04A0120024B012145
S31508007E101868D5F035BC00BF7034012010B50A4883
S31508007E2020F0C4FB044608B1C4F0DDFA01F09EFD5B
S31508007E3001F0E4FD2146054A0548D5F054FB054BFB
S31508007E4018600028F0D010BDF04A0120A0EC0D08FB
S31508007E50017E00087034012010B5044601210C206B
S31508007E60064A9AF00CF90023E068A36020B1BDE841
S31508007E70104003689B68184710BD00BFC4EC0D0886
S31508007E80A0F10400E8E700BF10B50A4CD4E8AF3FFC
S31508007E90DB070DD42046A3F00EF848B10648074B79
S31508007EA0074A08490360C3F077FC2046A3F008F8A0
S31508007EB0014810BDD8340120DC3401201CAE0E0860
S31508007EC010090220174F080810B504460B4B03602B
S31508007ED06433436000F50E702DF0CAFF636A23B160
S31508007EE0002204F11C0062629847236923B100222C
S31508007EF004F1080022619847204610BDF8200E08B4
S31508007F00A0F10400E0E700BF10B50446034B40F8B3
S31508007F10343B7DF016F8204610BD00BFF41C0E0851
S31508007F2037B5C0680D46144638B901210C200E4AEB
S31508007F309AF0A5F8002003B030BD1A6821460192D0
S31508007F4000221A6001AA0AF0CDF801A87CF0F9FF10
S31508007F50A38823B9E38813B92378402BEAD02B8961
S31508007F6043F040032B81E5E7D7EC0D08A0F10400A8
S31508007F70D6E700BF73B516480AF070FA1549164ACF
S31508007F80D1F8AC34154E164D5360A1F54051334621
S31508007F900F4800950AF03EFB124B336125F07CFA38
S31508007FA0044602460A4930460BF070FA294620462E
S31508007FB025F006F940B10C4826F026FD6D210B4B3D
S31508007FC00B4A0C4862F082FF6C6002B070BD00BFBD
S31508007FD03018002060A700208C0902206C090220B6
S31508007FE050170020805101000AED0D0826ED0D08F6
S31508007FF03BED0D0859ED0D0870B500243248334B9A
S31508008000334E03606433436000F10803C0E902336A
S31508008010304BC0E90440836100F11C03C0E9073313
S315080080202D4BC0E90940C0E90B342C4BC0E90D447F
S315080080304364203383640523C0E92044C0E922440D
S31508008040C0E9644480F83C40046480F8744080F8D1
S315080080509841C0F89C4180F8A04180F8B84180F862
S31508008060D04180F8E841C0F81C321D4B32461D4904
S315080080701D4DC0F83832C0E98F4480F80042C0F878
S31508008080184280F8204280F84442C3F085FB324605
S3150800809016491748C3F080FB324616491648C3F0FE
S315080080A07BFB2846154B6C6040F8103B2C7227F07A
S315080080B04DFCC5E93444C5E9364432462846BDE890
S315080080C070400F49C3F068BB30180020F8200E082E
S315080080D01009022065300108DD240108E0ED0D08CD
S315080080E0D4F90E08C97E0008501700202B4F08083F
S315080080F08C0902202D4F08086C090220F41C0E0872
S31508008100097F0008012903BF034B00201B78A6201E
S3150800811008BF1370704700BFBDE10120022938B5BA
S3150800812014461D460FD1202200210848C4F092FAB1
S315080081303CB1202D2A46214628BF20220348C4F0F8
S3150800814045F9002038BDA620FCE700BF9DE10120C7
S31508008150104608B56AB163B102290CD1202B28BF95
S3150800816020231A46029B05491A60C4F02FF90020FD
S3150800817008BD2F20FCE7A620FAE700BF9DE10120F5
S31508008180012905D102B11278024B00201A707047F6
S31508008190A6207047BDE101202DE9F0431D460023C6
S315080081A089B0074608460E461446CDE9053327F03A
S315080081B047F918B9D82009B0BDE8F083304605A9B3
S315080081C027F00AFA0028F6D1204627F039F90028C0
S315080081D0F0D0204606A927F0FFF90028EBD1DDE903
S315080081E00586079007A9124827F0F6F90446D8B974
S315080081F0079B18EB030902D10EB1C4F0F4F80093FB
S3150800820002213B461F20CDE901860A4A99F037FF2D
S315080082106B689E420AD8324649462868C4F000FA76
S315080082206B689E42E9D86E602046C4E71924FBE7CE
S315080082302172080050EE0D08014827F01DBB00BF4B
S3150800824000720800002307B50348019301AB27F025
S3150800825017FA03B05DF804FB00720800014827F01E
S31508008260C7BA00BF0C72080010B506480C4627F0BE
S3150800827087F940F20123984202BF4FF6F173238033
S31508008280002010BD0C720800014827F0F5BA00BF9F
S315080082900D72080073B5002601AB0C480C4615464E
S315080082A0019627F0EDF940F20123984208D14CB126
S315080082B0062D09D920462946054A7CF0B8FE3046DF
S315080082C002B070BD0B20FBE71920F9E70D72080014
S315080082D06EEE0D08014827F08BBA00BF0B72080036
S315080082E010B506480C4627F04BF940F20123984290
S315080082F002BF48F205032380002010BD0B72080058
S31508008300014827F0B9BA00BF0E72080073B50026F7
S3150800831001AB0C480C461546019627F0B1F940F218
S315080083200123984208D14CB1062D09D92046294681
S31508008330054A7CF07CFE304602B070BD0B20FBE798
S315080083401920F9E70E72080075EE0D08014827F0A6
S3150800835093BA00BF10720800002307B503480193BB
S3150800836001AB27F08DF903B05DF804FB1072080025
S31508008370014827F081BA00BF11720800002307B52B
S315080083800348019301AB27F07BF903B05DF804FBC2
S3150800839011720800014827F06FBA00BF1272080070
S315080083A0002307B50348019301AB27F069F903B029
S315080083B05DF804FB12720800014827F019BA00BFDD
S315080083C01872080010B506480C4627F0D9F840F28E
S315080083D00123984202BF01232380002010BD00BF5D
S315080083E018720800014827F047BA00BF0F72080044
S315080083F073B5002601AB0C480C461546019627F0C6
S315080084003FF940F20123984208D14CB10C2D09D905
S3150800841020462946054A7CF00AFE304602B070BD61
S315080084200B20FBE71920F9E70F7208007FEE0D080D
S31508008430014827F021BA00BF04720800014827F056
S315080084401FB900BF04720800014827F02FBA00BF01
S315080084501F72080007B500200090034827F066F948
S3150800846003B05DF804FB00BF1F720800014827F03F
S31508008470BFB900BF0772080013B510480C4627F0AD
S315080084807FF840F201229042034604D14FF470630C
S31508008490238000230FE070B92388B3F5805FF8D3F3
S315080084A04FF4C2732F240121CDE90034044A054B49
S315080084B099F0E5FD2346184602B010BD077208007C
S315080084C0ACEE0D088CEE0D08014827F0A9B900BFDF
S315080084D00872080010B506480C4627F07DF840F2E9
S315080084E00123984202BF4FF47A732360002010BD1F
S315080084F008720800014827F0BFB900BF09720800D2
S31508008500014827F0BDB800BF09720800014827F0E6
S31508008510B3B900BF0A720800014827F0B1B800BF16
S315080085200A7208000B4610B5084A0C46084809495D
S31508008530FFF732FED82807D119F0BCFF0368214699
S31508008540BDE810409B68184710BD00BF2772080099
S31508008550BDEE0D08267208000B4610B5084A0C46F3
S3150800856008480949FFF718FED82807D119F0A2FFCD
S3150800857003682146BDE810405B69184710BD00BF77
S3150800858025720800D9EE0D08247208000B4610B5AE
S31508008590084A0C4608480949FFF7FEFDD82807D1BE
S315080085A019F088FF03682146BDE810401B69184783
S315080085B010BD00BF23720800FFEE0D0822720800E6
S315080085C0022307B501A8D1E90012019363F09EFDC5
S315080085D018B90199024827F023F903B05DF804FB9E
S315080085E0207208001FB5022003900698009003A881
S315080085F063F0A4FD18B90399024827F011F905B0EC
S315080086005DF804FB20720800002370B5164886B092
S315080086100D461646049326F013FFE8B1124804A93E
S3150800862026F0DAFFB0B9049B3246002B08BF0223B6
S31508008630294605A8059363F0E9FD04460290736888
S315080086401F2001936B6802210093084A049B99F046
S3150800865016FD204606B070BD19F02CFF0368324699
S3150800866029469B699847E8E72072080018EF0D0825
S31508008670014827F0D5B800BF21720800014826F046
S31508008680ABBF00BF21720800014827F0F5B800BF4C
S3150800869029720800014826F0F3BF00BF29720800B6
S315080086A0014827F003B900BF0572080007B5002086
S315080086B00090034827F03AF803B05DF804FB00BFC2
S315080086C005720800014827F07BB800BF2872080029
S315080086D0014826F029BF00BF287208000020094B70
S315080086E010B5186032B9084C2146BDE81040074855
S315080086F027F096B8A1F5005105488C189CF03FF86C
S31508008700F2E700BFE034012000E0170821720800F4
S315080087108055012000232DE9F04F85B080460F468D
S315080087202C4803A91546039326F056FF002838D18E
S31508008730294E039933681BB928489CF001F880BB79
S31508008740D5E900143368039A02EB030B14F003030C
S315080087501BD10A462346594620489BF0F7FF00BB23
S315080087604046316827F05CF8D8B93846696827F07A
S3150800877057F8B0B932686B680020134413F03F020B
S315080087801CBF40339B1A33600BE004F1040AAAEBC2
S31508008790030A5046019121F0A1FF0199814618B9B3
S315080087A0AC2005B0BDE8F08F2246C3F00FFEAAEB59
S315080087B00402FF2109EB0400C3F04CFF53464A4666
S315080087C0594606489BF0C2FF0446484621F0AAFFD0
S315080087D02046C4E721720800E034012080550120B4
S315080087E008B50A4602480349FFF794FF08BD00BFCB
S315080087F0227208002372080008B50A46024803498F
S31508008800FFF788FF08BD00BF24720800257208001C
S3150800881008B50A4602480349FFF77CFF08BD00BFB2
S315080088202672080027720800DFED0B7AB4EEE70A15
S31508008830F1EE10FA08B50CD9DFED087ADFED080A73
S3150800884030EE670A62F0C6FEDFED067A20EE270AEA
S3150800885008BD9FED050AFBE7000084420000704250
S31508008860D46608BE70D9A44300007F439FED107AF2
S31508008870B4EEC70AF1EE10FAF0EE407A08B50AD857
S3150800888062F078FE9FED0B7ADFED0B7AE0EE077A61
S31508008890B0EE670A08BD9FED090ADFED090A37EE53
S315080088A0C00A62F097FEDFED077A20EE270AF1E7A5
S315080088B0000084420DF1C6429C1E2143000070420E
S315080088C087A79ABDA30F9043DFED117AB4EEE70AA6
S315080088D0F1EE10FA08B515DAF3EE037AB4EEE70A04
S315080088E0F1EE10FA11D9F2EE047A30EE670A62F068
S315080088F041FE9FED087ADFED087AE0EE077AB0EEE2
S31508008900670A08BD9FED050AFBE79FED050AF8E72C
S31508008910000084428A840A43BC85984300007F434A
S31508008920000000009FED0C7AB4EEC70AF1EE10FACB
S3150800893008B506D89FED097A60EE077AB0EE670AA1
S3150800894008BDDFED070A62F045FE9FED067ADFED0A
S31508008950067AE0EE077AF1E7BD3A473B52B84E4150
S315080089605555D53E3D0A873FAE4761BDDFED117AC5
S3150800897020EE270A60EEA70ABCEEC07A21EE271A77
S3150800898086B08DED017ABCEEE07AFCEEC17A8DED0B
S31508008990027A0020CDED037A9DF8043063F30700D0
S315080089A09DF8083063F30F209DF80C3063F31740E9
S315080089B006B0704700007F43DFED3C7A10B5B0EE95
S315080089C0407A2DED048B20EEA70A9FED399ADFED4C
S315080089D0397A20EE899AA7EE270ADFED377AA7EECD
S315080089E0279ADFED367AA1EE279ADFED357A20EE63
S315080089F0A78ADFED347AA7EE278ADFED337AA1EE70
S31508008A00278ADFED327A82B0A1EE270A0446FFF7FD
S31508008A1089FF2046F0EE408AB0EE490AFFF782FF4A
S31508008A202046B0EE409AB0EE480AFFF77BFFF5EE17
S31508008A30C08AF1EE10FAB0EE401A2DD4F7EE007A9D
S31508008A40F4EE678AF1EE10FA77FEA88AB5EEC09AB8
S31508008A50F1EE10FA23D4F7EE007AB4EE679AF1EE47
S31508008A6010FA37FE899AB5EEC01AF1EE10FA19D443
S31508008A70F7EE007AB4EE671AF1EE10FA37FE811AAD
S31508008A80F0EE490AB0EE680A204602B0BDEC048B47
S31508008A90BDE81040FFF76ABFDFED0D8AD6E79FED08
S31508008AA00C9AE0E79FED0A1AEAE700BF86C9C4BF39
S31508008AB0C520F03F8B6C4F407E1D78BFC3642A3DAE
S31508008AC060E550BED3BC633DC74B873F8048FFBEB9
S31508008AD00000000007EE901A9FED267AF8EE677AF6
S31508008AE010B52DED048B87EE279A82B0B0EE490AB1
S31508008AF00446FFF799FE2046F0EE408AB0EE490A92
S31508008B00FFF7B4FE2046B0EE408AB0EE490AFFF7FA
S31508008B10DBFEFCEEE87A17EE903AFCEEC87A8DF8A2
S31508008B20003017EE903AFCEEC07A8DF8013017EE59
S31508008B30903A8DF8023000990022FF2320467CF0F7
S31508008B40E5FA8DF80000C0F30721034610468DF8B4
S31508008B500110BDF80010C3F30743CAB262F3070059
S31508008B60C1F3072161F30F2063F3174002B0BDEC90
S31508008B70048B10BD00401C4606EE902A07EE103AFC
S31508008B80DFED105A07EE901AF8EE666AB8EE477AE5
S31508008B9086EEA56AF8EE677AC7EE256AB7EE001A7A
S31508008BA09FED097A31EE461AC7EE870A31EE661A44
S31508008BB080EEA60A21EE001A20EE060A82B002B05E
S31508008BC0FFF7FABE00FF7F4700007E43F7B50C4665
S31508008BD0074615461E467CF027F901460B4826F03F
S31508008BE061F888B123460221094A1D20CDE90056BD
S31508008BF099F045FA38467CF017F92B460146224685
S31508008C000248009626F058F803B0F0BD80550120BA
S31508008C1063EF0D0807EE901A2DE9F041F8EEE77AB2
S31508008C202DED068BDFED67AADFED679A07EE102AB2
S31508008C3067EEAA7AC7EEA98AF8EEC77A84B087EEF5
S31508008C40A99A80467CF0F4F8B5EEC09A07EE900A29
S31508008C50F1EE10FAF8EEE77A9FED5CAA87EEA98A9C
S31508008C6011D828EE0A8AFCEEC87ACDED017A9DF86D
S31508008C7004301A461946404604B0BDEC068BBDE8DA
S31508008C80F041FFF7A3BFF4EE6A8ADFED517AF1EE01
S31508008C9010FA67FEA88ADFED4F7AC8EEA79AFDEEAE
S31508008CA0E9AAF8EEEA7A18EE100A79EEE79A60F081
S31508008CB055FD044619EE100A0D4660F04FFD0246B2
S31508008CC00B4606460F460020434960F0E7FB22465E
S31508008CD02B4660F09BFD61F053F869EE297A08EEA1
S31508008CE0900A17EE900A60F039FD02460B460020FE
S31508008CF0394960F0D3FB22462B4660F087FD61F0C8
S31508008D003FF809EE100A19EE900A60F027FD0246B0
S31508008D100B460020304960F0C1FB32463B4660F006
S31508008D2075FD02460B4600202B4960F0B7FB22462C
S31508008D302B4660F06BFD61F023F81AEE902A07EED9
S31508008D40900A042A36D8DFE802F0030720252C000B
S31508008D50B0EE489AB0EE678A68EE8A8A28EE0A8AE2
S31508008D60FCEEE87A29EE0A9ACDED017AFCEEC87A8D
S31508008D70CDED027AFCEEC97ACDED037A9DF8043082
S31508008D809DF808209DF80C1075E7B0EE689AF0EE8D
S31508008D90678AE1E7F0EE497AB0EE689AF0EE488A1B
S31508008DA0D8E7B0EE487AB0EE679AB0EE688AF0EE89
S31508008DB0478AD1E7F0EE497AB0EE489AB0EE688A6B
S31508008DC0E5E700BF0000B44300007E4300007F4390
S31508008DD000000000000070420000F03F37B50D4665
S31508008DE00446FFF777FEC0F30723C0F307428DF862
S31508008DF004008DF805308DF806202B4602211D202B
S31508008E00074A99F03CF920469DF806309DF805205A
S31508008E109DF8041003B0BDE83040FFF7D7BE00BF89
S31508008E207DEF0D087FB504460B460D461646022112
S31508008E3000921D200B4A99F022F920467BF0F8FF94
S31508008E40334601462A462046FFF796FEC0F30743F7
S31508008E50C0F30722C1B2204604B0BDE87040FFF750
S31508008E60B5BE00BF90EF0D08014822F077B800BFE5
S31508008E70384C012008B500220249034898F096FDAF
S31508008E80002008BD05810208E43401200A4608B915
S31508008E90FFF7F0BF0146014898F0A9BDE434012068
S31508008EA008B50222054906481FF05EFBBDE80840E2
S31508008EB00122044904481FF057BB00BF54F00D08AF
S31508008EC0E434012048F00D08F04A01200122024B43
S31508008ED083F80421704700BFE434012000210446CA
S31508008EE000B589B01A2201A80091C3F0B3FB234646
S31508008EF0074A1E21684662F009F96946054825F0C1
S31508008F0083FD68467CF027F9D1F018FCC3F06BFAAC
S31508008F106CF00D0882F00D082DE9F04F0446D0E9F3
S31508008F200076384B87B0D3F828B0D3F82CA0D3F8FE
S31508008F303490D3F83880D0E90253019303690121AC
S31508008F4002934369304A039383690493C3690020F3
S31508008F5005932E4B1B6899F092F85B460121002079
S31508008F602B4A99F08CF8534601210020294A99F09A
S31508008F7086F84B4601210020274A99F080F8434697
S31508008F8001210020254A99F07AF82346012100207C
S31508008F90234A99F074F800F023FB3B460121002090
S31508008FA0204A99F06CF83346012100201E4A99F0B0
S31508008FB066F82B46012100201C4A99F060F8012129
S31508008FC00020019B1A4A99F05AF801210020029BB9
S31508008FD0184A99F054F801210020039B164A99F083
S31508008FE04EF801210020049B144A99F048F8012103
S31508008FF00020059B124A99F042F800F0F1FAD4F0E5
S31508009000C8FEFEE700ED00E0E3F00D08B4400120DD
S31508009010F9F00D080FF10D0825F10D083BF10D08C3
S3150800902051F10D0867F10D087DF10D0893F10D0852
S31508009030A9F10D08BFF10D08D5F10D08EBF10D08E2
S3150800904001F20D08024B034A1A607CF085B800BF8E
S31508009050B440012044524148024B034A1A607CF04E
S315080090607BB800BFB44001204655504D024B034A19
S315080090701A607CF071B800BFB440012046535542CF
S31508009080024B034A1A607CF067B800BFB44001205F
S3150800909054465355024B034A1A607CF05DB800BF2C
S315080090A0B440012054464353024B034A1A607CF0ED
S315080090B053B800BFB44001204E4D4244012108B5C3
S315080090C00020064B064A98F0DAFF00F089FAD4F039
S315080090D060FE0449044861F025FAFEE717F20D0818
S315080090E0A81B0F08B3F00D08CAF00D0800240D469A
S315080090F000B59BB06022214602A80194C3F0AAFAE3
S315080091002B466421094A01A862F000F8012120468D
S31508009110074A01AB98F0B3FF00F062FAD4F039FEC3
S315080091200449054861F0FEF9FEE700BF3AF20D086A
S31508009130A81B0F08B3F00D08CAF00D08034B03600F
S31508009140034B0B604FF4A073136070475040012027
S31508009150503B0120034B0360034B0B604FF4A07395
S3150800916013607047EC3A0120EC35012000240D46C7
S3150800917000B59BB06022214602A80194C3F06AFAA2
S315080091802B466421064A01A861F0C0FF012120464A
S31508009190044A01AB98F073FF00F022FAC3F023F9F2
S315080091A04DF20D08A81B0F08024B034A1A607BF004
S315080091B0D3BF7047B4400120474F44572A2108B50A
S315080091C0024800F059F9B5F090FEFEE75DF20D0889
S315080091D0024B01211868D4F053BA00BF8041012020
S315080091E00D4BD9889A8889B292B2914211D0D98802
S315080091F09A8889B292B291423DBF9A88D8881B89CB
S31508009200D8882DBF9B8813FA80F0801AC01A80B2BE
S3150800921070470020704700BFB8400120F8B50E46D9
S31508009220074608B9C3F0DFF8154D2C898C42F9D3E7
S31508009230FFF7D6FF201A80B286421BD8EB88E8884B
S31508009240E41AA4B2A6422B6815D92246394613FA5F
S3150800925080F0C3F0BBF82868321B3919C3F0B6F89A
S31508009260EB8816FA83F12B89B1FBF3F203FB121193
S3150800927089B2E980F8BD3246394613FA80F0EDE73F
S31508009280B840012038B50446D4F07DFF01210546D3
S315080092900846D3F01BF82846D4F070FF0C480D4B4F
S315080092A02146B4F8002100684EF0FCFF4FF0FF326B
S315080092B000210120D4F025FAD4F065FF04460021E8
S315080092C00120D3F003F82046BDE83840D4F056BF55
S315080092D0AC0E0220D1910008002370B5174CC2B01D
S315080092E0174DADF804318DF806314FF0FF330022E3
S315080092F0206801A9D4F0AAFC0028F6D19DF80661D9
S3150800930001A8FFF7BFFF4EB140F60D23ADF80430B4
S31508009310022301A8ADF80431FFF7B4FF2A6852B159
S31508009320084901A861F026FF0023ADF8040101A849
S315080093302B60FFF7A7FF00231A46D9E7144101203F
S315080093401841012087F20D082DE9F843DFF850800F
S315080093501E46B8F800901546A3EB09070D4BFFB259
S315080093601C89FFF73DFF241AA4B2A74207D839463D
S3150800937005EB0900FFF752FF0023A8F8003006485E
S3150800938032462946054B00684EF0DAFEBDE8F8433A
S31508009390FEF73CBDB8400120AC0E022049930008F8
S315080093A0F4BB012070B5204E3468002C3BD14FF435
S315080093B082711E4A0A20D4F0D5FB1D4D1D4A28602D
S315080093C021461D48D4F08FF81C4B1D4A9C801A6014
S315080093D04FF4807230601A81DC8008B9C3F003F854
S315080093E02B68002BFAD0174C8022174B1749206898
S315080093F04EF0A6FE8022144B154920684EF0A0FEBA
S315080094000B2051F03DFE0B2051F0F4FD1422114BB8
S315080094100521DA640422A3F580531A650E48BDE8CF
S315080094207040B5F081BB70BD804101209CF20D08EB
S3150800943014410120BCF20D08D9920008B840012059
S31508009440BEE10120AC0E02204993000866F1012016
S31508009450E6F001200020015B0000015B08B5FEF77D
S31508009460D5FC0421034B03F500521165D164DB6C6E
S3150800947008BD00BF0000015B70B50C460546C2B0CA
S3150800948018B94FF0FF3042B070BD4B1EFF2BF8D80D
S315080094900C4E33680BB9FFF785FF00232246294691
S315080094A001A88DF80631C2F091FF4FF0FF3318225C
S315080094B0306801A9ADF80441D4F094FB0028E0D146
S315080094C020B2E0E71441012010B50C46C2B00146AF
S315080094D0D0B1631EFF2B17D8224601A8C2F076FF2B
S315080094E001230B488DF8063118220023006801A9CC
S315080094F0ADF80441D4F076FB10B920B242B010BDE5
S31508009500044A1368013313604FF0FF30F6E700BFD3
S3150800951014410120184101200422F0B52C4B0C46B9
S31508009520074685B01A6500284FD000294DD0FFF7A9
S3150800953057FEA04219D2D4F039FE05462548264ED4
S3150800954003AB01A9006802AAB5F03FFA338802996D
S315080095508B4207D20198C91A184489B2FFF75EFEF2
S31508009560029B33802846D4F01CFE1C4D2E89B4423B
S3150800957001D9C2F038FFFFF733FEA04228BF2046C4
S31508009580AB8884B2F61AB6B2A6422B68A98817D257
S31508009590324613FA81F13846C2F018FF2968A21B31
S315080095A0B819C2F013FFAB882A8914FA83F3B3FB00
S315080095B0F2F102FB11339BB2AB8020B205B0F0BDCD
S315080095C02246384613FA81F1EBE74FF0FF30F5E70C
S315080095D00010015BAC0E0220F4BB0120B84001204C
S315080095E0002330B50B4CC3B00B4DADF804318DF8E4
S315080095F00631002320681A4601A9D4F027FB08B1D2
S3150800960043B030BDBDF80421286801A94EF0A4FB7B
S31508009610EFE700BF14410120AC0E02200A460146BE
S3150800962020B11AB1024B18684EF096BB704700BFBE
S31508009630AC0E022008B5082021F050F818B1002316
S315080096404360014B036008BD28F30D0808B50820E0
S3150800965021F044F818B100234360014B036008BDAC
S3150800966044F30D08436843B9054B0B6005234B606B
S31508009670436801334360012070470020704700BFEC
S31508009680E0F20D08042370B5144645688AB0ADF8B3
S3150800969002302B680A4601A805499E687BF0C7FD7B
S315080096A0224628460DF1020301A9B0470AB070BD4B
S315080096B0E6F20D0830B54468134622688BB0156982
S315080096C001A80A4603497BF0B2FD204601A9A8472E
S315080096D00BB030BDF3F20D0830B58DB04468019279
S315080096E023680A4603A80649DD687BF0A0FD042323
S315080096F020460DEB030203A9A8470DB030BD00BFF5
S31508009700E6F20D08F0B5A3B0064617A81F460C46A4
S31508009710154697F05EF92A2217A80CA997F06CF956
S315080097200DF10B03019315234FF48072009317A8CC
S31508009730002397F07EFB50BB97E80300154B8DE896
S315080097400300D3E9002317A897F04BFCF8B9D7E92B
S315080097500201114B8DE80300D3E9002317A897F0FF
S3150800976040FCA0B99DF90B1017A897F097FB70B9A4
S315080097707668224633680949DF6803A82B467BF0DA
S3150800978056FD3046BDF874300CAA03A9B84723B075
S31508009790F0BD00BF90F30D0888F30D08F3F20D082D
S315080097A013B5044608460A4B1146C4E9003000239F
S315080097B0C4E903330193036822815B6A01AA9847C7
S315080097C010B9019BC4E90303204602B010BD00BFCF
S315080097D00CF30D082DE9F041D0E903329342044613
S315080097E00D469EB003D300201EB0BDE8F0812A26A0
S315080097F042683B495768ADF802603A68D2F8088073
S31508009800028910A87BF013FD38460DF1020305AA5C
S3150800981010A9C0470028E6D110A896F01DFC3246CC
S3150800982005A910A896F05BFC4FF480720023152159
S3150800983010A896F0EDFF0028D5D10DF1010110A86A
S3150800984096F020FE0028CED1264BCDE90100D3E9BB
S315080098500023CDE9030010A896F0CDFF0028C2D159
S3150800986001AE314610A896F0D0FE0028BBD11E4B9B
S3150800987010A8D3E9002396F0BEFF0028B3D10DF156
S315080098800C08414610A896F0C0FE0028ABD110A8D7
S3150800989096F0A6FF0028A6D19DF9011010A896F00B
S315080098A04BFF00289FD196E8060004F1140704F13F
S315080098B0250638467BF0E1FC98E8060030467BF042
S315080098C0DCFC3846C2F017FEC5E900703046C2F027
S315080098D012FEC5E90260E36801200133E36083E70D
S315080098E0F3F20D0890F30D0888F30D08F8B5054650
S315080098F00E460024094FAC4206DB1EF095FF0849C8
S3150800990098F0DEF80020F8BD1EF08EFF56F82420E9
S31508009910394698F0D5F80134EDE700BF4A370F0805
S315080099209AF30D08F8B505460E460024064FAC42D4
S3150800993001DB0020F8BD56F824303A4602211C20E7
S3150800994098F09DFB0134F2E7A81B0F0810B51EF02E
S315080099506BFF044694F06FFB03490246204698F0D5
S31508009960AFF8002010BD00BF98F30D080322024986
S3150800997002481EF0F9BD00BFECF30D08F04A0120BD
S315080099802DE9F04700240646E0B088464FF4BE723B
S31508009990214601A80094C2F05DFEA64228DD6D4668
S315080099A04FF0200958F824A05046C2F0A4FD60AB39
S315080099B02F189F4202461DD228465146C2F02CFD5A
S315080099C07D1C60AB9D4204F101042CBF3D4687F81F
S315080099D00090A642E6D108489AF060FD6846CCF0A9
S315080099E018F805489AF05CFD002060B0BDE8F087DD
S315080099F02F20FAE71920F8E780B000200122024953
S31508009A0002481EF0B1BD00BF38F40D08F04A012027
S31508009A100122024B83F80421704700BF84410120CC
S31508009A2010B50446054B036000F5CF6099F03FF981
S31508009A3023690BB1C2F0D7FC204610BDF4B10E085D
S31508009A4070B504460B4B00F5387503F12C0203601C
S31508009A504C334260836000F11006B54207D055F8D2
S31508009A60080C283D0028F8D02BF0CEFBF5E7204659
S31508009A7070BD00BFA4EA0E08A0F10400E0E7A0F15B
S31508009A800800DDE710B5094B04460360084B836000
S31508009A90006948B143680BB9C2F0A5FC013B4360B5
S31508009AA013B903681B6B9847204610BD38F50D0897
S31508009AB0F8F60E0810B50446034B40F80C3BFFF7C2
S31508009AC0E1FF204610BD00BF5CF50D08002200230B
S31508009AD010B5C0E90023C0E90223C0E904230D4BF1
S31508009AE004460021836121226030C2F0B3FD4FF69F
S31508009AF0FF720023A4F882204FF48072204684F86F
S31508009B008130A4F88420C4F888307BF0A0FC204675
S31508009B1010BD00BF90C60E0800F1080373B50446D1
S31508009B200D46036011B91048C1F0EEFF0846C2F0B1
S31508009B30E2FC0F2805EB0006019007D90022204613
S31508009B4001A95FF0A9FA019B2060A3603246294665
S31508009B502068C2F027F800212046019B226863602E
S31508009B60D15402B070BD00BF44F40D0810B50446C8
S31508009B70044B0360406A7BF0F0FBE0687BF0FAFC7C
S31508009B80204610BDE8F40D0870B5164605460C4685
S31508009B908CB0114668467BF03FFC294630467BF080
S31508009BA0ADFB641B0A4BE4105C43694606A87BF0D0
S31508009BB033FC2246002106AB28467BF01BFD06A88F
S31508009BC0C1F0B3FF6846C1F0B0FF0CB070BD00BF6E
S31508009BD0ABAAAAAA2DE9F04F4FF0180B0446174670
S31508009BE00E468DB000EB0B08351BB5F5C07F22DDA0
S31508009BF03F4BED105D4367BB4FF01808AF1E7F1053
S31508009C00684608FB07417BF007FC694606A87BF017
S31508009C1003FC20462A46394606AB7BF0EBFC06A831
S31508009C20C1F083FF57B96846C1F07FFF331B182B75
S31508009C30A6F1180607DC0DB0BDE8F08F6846013FAF
S31508009C40C1F073FFDCE7324631462046FFF79CFF3A
S31508009C50ECE76D100BFB0545404629467BF0C5FC35
S31508009C60A6F11809C246494660B128467BF0BDFCF4
S31508009C7008B129460BE0494640467BF0B6FC28B1B8
S31508009C80494604E040467BF0B0FC10B34146204606
S31508009C90C1F0C8FF3546504621467BF0A6FCD146A2
S31508009CA00AF1180A0028F6D1A5F1180A51462046E5
S31508009CB07BF09BFC5546AAF1180A0028F6D1A9455F
S31508009CC00ED3013F31463A464846FFF783FF4E46D4
S31508009CD08AE7494628467BF088FC0028C9D0CFE7A2
S31508009CE029464846C1F09EFF09F1180AD3E700BF86
S31508009CF0ABAAAAAA2DE9F043884205460E4687B0C4
S31508009D0005D0DFF8608000F11804A64202D107B03A
S31508009D10BDE8F083294620467BF067FC04F1180766
S31508009D20E0B1214668467BF077FBB946641BE41030
S31508009D3008FB04F4002C08DC284669467BF0DEFAAA
S31508009D406846C1F0F2FE3C46DFE7A9F13001A9F109
S31508009D50180948467BF0D2FA013CEBE720467BF02F
S31508009D60ADFCF0E7ABAAAAAA2DE9F041036886B0D4
S31508009D709B6A0446984701210346394A242098F0ED
S31508009D807EF9236821466846DB6A9847039E0024C5
S31508009D9030460DF10408404505D1324B9C4206DD9C
S31508009DA03148C1F0B4FEC1F055FD0134F3E7182778
S31508009DB067431CB13846B5F0F7FC044625464645C8
S31508009DC02CD1AC4217D0294B2E1BF2105A43B2FAAB
S31508009DD082F2C2F11F02294620465200FFF7FAFE18
S31508009DE0B6F5C07F2ADD04F5C07631462046FFF772
S31508009DF081FFB5421DD12646DFF87480B54222D1CF
S31508009E002646B54227D11CB139462046B5F0DCFCBA
S31508009E1002987BF0A2FA06B0BDE8F081284606F162
S31508009E2010017BF0B9FA3046C1F014FD1835064624
S31508009E30C5E730467BF042FC1836DAE72946204665
S31508009E40FFF758FFD7E742460121242056F8183B6A
S31508009E5098F015F9D2E73046C1F067FE1836D0E714
S31508009E6076F40D0855555505A7F40D08ABAAAAAA08
S31508009E70D8F40D08F8B50025474C60199035FFF75A
S31508009E8025FEB5F5347FF8D100254448FFF71EFEB8
S31508009E900026C4E9D855C4E9DA55A4F87053C4F8BD
S31508009EA0745384F8785384F8805384F88253A4F85A
S31508009EB08453002712243A4A3A493748C1F06CFCC1
S31508009EC0394B3A4A1A6002F12C014C32C3E9022591
S31508009ED059601033102218460021C2F0BBFB41F22C
S31508009EE0A4520346013CC0E90667057442824561EF
S31508009EF0056203F12803EDD1294A2D492A48C1F004
S31508009F004BFC2C481FF078F8254A2B492948C1F004
S31508009F1043FC2A482CF020F9214A29492748C1F050
S31508009F203BFC2848284B1E4A2849C0E901440360DF
S31508009F300473C1F031FC2648264B194A036000F128
S31508009F400803C0E90433244900F12003234DC0E97E
S31508009F500A330472C460846180F820404462046352
S31508009F6080F834408463C1F017FC1D4B21462B60F2
S31508009F701C4B102205F11800EB60C5E901442C6161
S31508009F80C2F068FB184BEC616B612846BDE8F840E7
S31508009F90034A1649C1F000BC18360020E8380020EC
S31508009FA010090220AB54080838330020A4EA0E082A
S31508009FB0419A0008882B0020219A0008801A002060
S31508009FC051630308F0420120D4F90E08715E0308B4
S31508009FD0B4420120E8F40D086D9B00088C4201206C
S31508009FE05CF50D0838F50D08F8F60E08B59A000860
S31508009FF070B5036805460C4616460BB1032070BDBE
S3150800A00002210D20074A98F03AF80CB92F20F6E7F6
S3150800A01023682046DB6898470028F0D1C5E9004642
S3150800A020EDE700BF68F50D082DE9F04F0746006813
S3150800A0308BB004680D46646C90461E46A0472D28D2
S3150800A04004460ED048B19F4A9F4B0221A52808BF57
S3150800A05013460D209D4A98F012F820460BB0BDE82D
S3150800A060F08F6B78202B01D10024F6E7984B3868DF
S3150800A070029358B103682A461B6C02A998470446FE
S3150800A08030B1029803689B689847E6E70324F8E727
S3150800A0904FF0000A4FF0000B8E4B0393029803A96A
S3150800A0A00368DB68984730B102210D208A4A97F089
S3150800A0B0E6FFA52410E08DF8060003980DF10601C9
S3150800A0C00368DB689847044630B99DF80630402B8C
S3150800A0D006D0802B04D0032403A87BF0FEFDD0E72E
S3150800A0E06A789A42DAD1012303988DF80730036813
S3150800A0F00DF107015B69984704460028ECD19DF8E5
S3150800A1000730082B18D8002BC8D0013B072BC5D819
S3150800A11001A252F823F000BF51A1000863A100086C
S3150800A1209DA000086FA100089DA000089DA000083A
S3150800A1309DA000088DA10008102BAFD1102E1AD0B3
S3150800A140082EABD84FF48B73F340D807A6D512E088
S3150800A15006F1FF3CDCF1000343EB0C03002B9DD01A
S3150800A16009E0731E012B8CBF00230123F6E7042E9A
S3150800A17001D0012E92D1002303980493036804A901
S3150800A1805B6A9847814648B14C46A5E7082E85D8AC
S3150800A1906FF489733341DC07EDD57FE7049B1BBB5E
S3150800A1A0002303980593036805A99B6B9847814686
S3150800A1B00028E9D1059B002B7FD100248CE74FF0BE
S3150800A1C0FF31C21C994274EB020243D39DF8062064
S3150800A1D0402A80D14FEA134C05F10C0105F1180409
S3150800A1E08C4229D109F10109049B4B457FF656AFEC
S3150800A1F0CDE906AB03984946036806AA9B6A9847C1
S3150800A200044600287FF468AFDDE906306FF0010CDC
S3150800A2105A1E40F1FF3194456FF010028A41CED3A1
S3150800A2209DF80620402A7FF456AFD5E902129042DF
S3150800A23008BF8B42D6D1B3E751F8042F002ACFD0F6
S3150800A240BCEB124FCCD198B20028C9D092B290423A
S3150800A250C6D8A5E713F5803F70F1FF32FFF43BAF90
S3150800A2609DF80620802ADEE70023039806930368F4
S3150800A2704946DB6B06AA9847044600287FF42CAFAC
S3150800A280069BD90704D5D8F800200799914212D120
S3150800A2909A0705D5BDF82010B8F8042091420AD1CE
S3150800A2A05B078AD57868B8F80420036809999B681B
S3150800A2B09847002881D109F10109059B4B45D3D858
S3150800A2C0ECE600BFB0F50D08CB900F0884F50D0835
S3150800A2D09409022098090220A1F50D080023F0B57B
S3150800A2E08BB0CDE90433054600688DF80D308DF83E
S3150800A2F00E308DF80F3003680DF10D01DB689847B5
S3150800A3000446002840F0C78028680DF10E0103684E
S3150800A3101B6998470446002840F0BD8028680DF15F
S3150800A3200F0103685B6998470446002840F0B3802C
S3150800A330286804A903685B6A98470446002840F021
S3150800A340AA80286805A903689B6B984704460028D5
S3150800A35040F0A1809DF80E30002B00F09E809DF8FD
S3150800A3600D30402B07D0802B40F09E809DF80F3093
S3150800A370102B00F09B802646049BB34207D8002684
S3150800A3804B4F059BA3423AD801200BB0F0BD286875
S3150800A3903146036806AA9B6A9847002879D19DF832
S3150800A3A00D30402B16D1DDE906326FF0010C591E2F
S3150800A3B042F1FF378C456FF01001B94108D24FF0D2
S3150800A3C0FF310332994270EB02020CD39BB253B1B0
S3150800A3D00136D1E7802B06D1069B079A13F5803FF5
S3150800A3E072F1FF32F1E7334B0446002856D00121BB
S3150800A3F00D20314A009497F042FE0020C5E72868F0
S3150800A400069603682146DB6B06AA9847002840D1C2
S3150800A410069B03F0020103F00402DB0710D411B116
S3150800A420F2B1264BE0E7002AFBD0099B03EA0702B4
S3150800A43012F5003FF5D89BB2B3F5404FF1D215E0BF
S3150800A44009B1002AEDD1079B13F5302F4FEA134CBB
S3150800A450E7D2BCF1000F0BD11B0410D56046E0E72C
S3150800A4604FF6FF73BDF820209A42DAD0013488E708
S3150800A47040F2FE3C03F580639BB26345D1D829B10F
S3150800A4804FF6FF73BDF820109942CAD0002ACCD1E6
S3150800A490ECE70B4BA8E70A4BA9E70A4B01210D206D
S3150800A4A0094A97F0ECFDA8E7084BF7E7084BF5E7EC
S3150800A4B00000FFFFC8F50D0820F60D08D8F50D08B1
S3150800A4C0B7F50D080BF60D0836F60D08F9F50D0863
S3150800A4D0E7F50D082DE9F0430546006887B088467C
S3150800A4E01F468DF80F2020B90324204607B0BDE883
S3150800A4F0F083DFF86490AB68CDF81490EBB90026CA
S3150800A5002868394603680DF10F02DB6B9847044645
S3150800A51078B91EB133684B4508BF00260223414669
S3150800A520CDE9006328463B469DF80F207BF010FCDA
S3150800A530002405A87BF0D1FBD7E79DF80F303946F4
S3150800A5408DF81330036805AA5C6B0DF11303A04759
S3150800A5500028D4D105AED3E798090220034B186822
S3150800A560034B002808BF1846704700BF0443012064
S3150800A5700843012010B5044602210D20024A97F02F
S3150800A5807EFD024B1C6010BD48F60D0804430120F1
S3150800A59010B5094C094922460948C1F0FDF822467A
S3150800A5A008490948C1F0F8F82246BDE810400749AD
S3150800A5B00748C1F0F1B800BF10090220A95C0808D5
S3150800A5C008430120BB5C080898090220BD5C0808FE
S3150800A5D0940902200023F7B5CDE900334AB96E463F
S3150800A5E001AB15240E4A013C06D11423036003B0BF
S3150800A5F0F0BD6B4601AEF4E71578002DF5D0557819
S3150800A6008D4206D107683568AF4207D0019D0135EE
S3150800A6100195009D403201350095E4E71B68E5E7A2
S3150800A620E039002007B5019021B10122097801A877
S3150800A630FFF7D0FF019813280AD8064B820103EBCF
S3150800A64080109B5C002B08BF002003B05DF804FB5C
S3150800A6500020FAE7E03900200023152010B5136022
S3150800A660074B013801D1002010BD1C78002CFAD008
S3150800A6705C7840338C4202BF146801341460F0E7FA
S3150800A680E039002000231A4610B50648B3F5A06F36
S3150800A6900A6001D1002010BD4033C45C002CF9D0FB
S3150800A6A00132F3E7A03900200868114B70B59842CB
S3150800A6B00E46154603D303F10C02904214D31B79B8
S3150800A6C0A3B90B4C03689B6898470123002D346097
S3150800A6D0237108BF00234FF00000637118BF2B7861
S3150800A6E0A06018BFA37170BD0446EBE71920FAE70E
S3150800A6F01843012002210D20014A97F0C0BC00BF73
S3150800A700CCF60D0838B502210D20074A97F0B7FC9C
S3150800A7100024064D60194034B4F5A86F01D1002015
S3150800A72038BD7BF0B9FBF5E7F4F60D08E0390020F3
S3150800A73038B50B4B0C46984202D30C33984201D3DA
S3150800A740C1F051FE85680FCD0FC40FCD0FC40FCDD4
S3150800A7500FC495E80F0084E80F00002038BD00BF3D
S3150800A760A00902202DE9F041144C1F460E46152378
S3150800A770A046013B01D119201EE0217871B1403471
S3150800A780F7E763783B70B6B1A4EB0804A41134600C
S3150800A7902A4630463978FFF71DFF0CE02146106837
S3150800A7A0FFF7C6FF054630B9002FEAD11EB1A4EB64
S3150800A7B00804A41134602846BDE8F081E039002079
S3150800A7C0064B984203D303F10C02904204D39B68CC
S3150800A7D00248002B18BF0020704700BFA0090220BE
S3150800A7E010B50868FFF7ECFF80B18268084B0AB11C
S3150800A7F09A4206D21B784BB9054A7BF094FB002097
S3150800A80010BD03F14004A242F4D2F6E71920F7E797
S3150800A810A039002038B5114A83684BB9104B8360BC
S3150800A8208468944201D0237833B982600A2038BDFF
S3150800A8309342F5D24033F2E743791BB165788379C1
S3150800A8409D42E9D10868FFF7BBFF20B122467BF09D
S3150800A8506AFB0020EBE71920E9E700BFE03E00208D
S3150800A860E0390020F0B50E4F84680646BC4205D391
S3150800A87007F140039C4201D20020F0BD3B7863B942
S3150800A880074D0FCC0FC50FCC0FC50FCC0FC594E8DD
S3150800A8900F0085E80F00B760EEE71920EDE700BF67
S3150800A8A0A03900202DE9F0410E4611463046FFF743
S3150800A8B0B9FE0446002842D0224FBB68984202D10E
S3150800A8C03846FFF7CFFFDFF88C80444516D204F1EF
S3150800A8D0400CC4450FD294F8403063B165460FCD9D
S3150800A8E00FC40FCD0FC40FCD0FC495E80F0084E831
S3150800A8F00F006446E9E720467BF0CEFA124CBB68A7
S3150800A90004EB86169E4212D003D2434501D2403B41
S3150800A910BB600E4A93689E4206D8434504D2A342BA
S3150800A9200CBF0023403B93600020BDE8F0817D68A2
S3150800A930286803689B689847054B2B60E9E70A2057
S3150800A940F3E700BFA0090220E039002018430120E0
S3150800A95098090220E03E00208268054B00219A42B1
S3150800A96003D340339A4238BF11708160704700BFE5
S3150800A970A039002010B5094CD4E8AF3FDB070BD44B
S3150800A9802046A0F098FA38B1054A06490648C0F0AC
S3150800A99003FF2046A0F094FA034810BD1443012093
S3150800A9A0100902206F5F08089C09022010B5084CA0
S3150800A9B0084922460020C0F0EFFE0020064B074A51
S3150800A9C018711A6006492246BDE81040C0F0E4BE78
S3150800A9D010090220755F08081843012078F70D084A
S3150800A9E01B60080870B5104ED6E8AF4F14F0010486
S3150800A9F018D13046A0F05FFAA0B10C4D0C4A2B4690
S3150800AA0007CA43F8044B83E807004FF6FF722A8209
S3150800AA104FF0FF321846C5E905247BF053FC304653
S3150800AA20A0F04EFA014870BD2443012028430120B6
S3150800AA300CF80D0838B5054604300C467BF042FC88
S3150800AA402A6813461BB9E26001202C600DE098685D
S3150800AA50A16888420ED1197909B1217931B9232023
S3150800AA600121054A97F00BFB002038BDD888E188FC
S3150800AA708842F4D0DB68E5E7D8F70D082DE9FF41F1
S3150800AA800A9F884616461D4697F01CFB0446002872
S3150800AA903FD0D6E900010026231DD8F80020C4E9D6
S3150800AAA00133C4E906011D4B267323602661226221
S3150800AAB004F1280C95E80F008CE80F002B7C04F1B4
S3150800AAC0480084F838306B8A63876B69E363D5E995
S3150800AAD00623C4E91023124B04F1580519680B68BC
S3150800AAE09B68984700220023C4E9142301AB97E822
S3150800AAF0070083E80700012385E80700A4F87430F7
S3150800AB00084B84F8646084F8686084F86C60A6670B
S3150800AB102360204604B0BDE8F08100BF68F80D0840
S3150800AB20840B0220B0F80D08094A08B502600269CC
S3150800AB300AB1C1F058FC074A011D026082688A42C0
S3150800AB40F7D141680029F4D04A604368136008BD0C
S3150800AB5068F80D0820F80D0810B50446024B036086
S3150800AB60FFF7E2FF204610BDB0F80D08F7B50C4612
S3150800AB70114B0546196868460B689B689847D4E9DF
S3150800AB801421009B20469F1A019B63EB01067BF06C
S3150800AB9078FF038920469F4276F1000309D27BF0AD
S3150800ABA070FF0430036828462B6000236B6003B0EF
S3150800ABB0F0BD7BF066FFF5E7840B02202DE9F04334
S3150800ABC007460E46154698466FF001096FF01004C1
S3150800ABD08BB093F0FFF9421E41F1FF33914574EBB8
S3150800ABE00303F6D300231836CDE904010293304651
S3150800ABF02B46CDF8008004AA02A9FFF73FFF0446BA
S3150800AC0050BB4FF0FF324FF0FF33CDE9062306ABBA
S3150800AC1003900893304603AB1C4A08A9099397F09A
S3150800AC20B9FA039C2CB900233B7038460BB0BDE833
S3150800AC30F083236820461B6898472146304697F0DC
S3150800AC4087FA2B463046CDF8008004AA02A9FFF7FA
S3150800AC5015FF04460028E6D095E80F0004F12806FB
S3150800AC6086E80F002B7C204684F838306B8A638789
S3150800AC706B69E363D5E90623C4E9102301233B7016
S3150800AC8023687C60DB689847CFE700BFE969080856
S3150800AC90084B10B5036018334360044608307BF050
S3150800ACA064FF014620B9606900F5CF6098F015F891
S3150800ACB0204610BDF8F80D08A0F10400E8E700BF2B
S3150800ACC010B504460221074A0D2097F0D8F9FFF778
S3150800ACD045FC04F114017BF016F82046BDE8104047
S3150800ACE08BF051BC1CF90D0800B5084B89B00493CC
S3150800ACF0042305930023039204490422009303A81E
S3150800AD008BF0FBFB09B05DF804FB00BF0CFA0D08DD
S3150800AD1038B50C46054602210D20084A97F0AFF9CA
S3150800AD20214628468BF041FC044628B9FFF716FC55
S3150800AD3005F114017AF0D9FF204638BD3BF90D0814
S3150800AD4000B50D4B8DB0CDE90631ADF820200023B6
S3150800AD501F22CDE90923012391F83C208DF82C30D8
S3150800AD608DF82D200093024606AB08A902A80CF020
S3150800AD70B5F80DB05DF804FB00FA0D082DE9F04FA3
S3150800AD8014460027B9B006461D460397FFF7E6FBAB
S3150800AD902269042A08D8042A10D8DFE812F013001A
S3150800ADA00F00F800210128014FF6FC739A4200F0C3
S3150800ADB023814FF6FD739A4200F0208140F28652B5
S3150800ADC0326064E0904B05A90493904B16A805934E
S3150800ADD07CF01DF80123284685F844307BF0F4FC06
S3150800ADE0044600284BD10BA80A9595F0F2FD884831
S3150800ADF07BF0E9FF074648B1864FB7F8643907F58F
S3150800AE000B6703F00503052B18BF0027002205234F
S3150800AE10DFF80482CDE908234046CDE906877BF0B2
S3150800AE20D2FF10B906A87BF0DEFF4FF09009089C08
S3150800AE30052C0AD128467BF00CFD00244FF6FF733B
S3150800AE4085F84C40A5F84A3019E009FB048494F8C3
S3150800AE5081A047B138467BF0B6FF20B197F881301C
S3150800AE60534508BF3C4694F88140FFF777FB0068D6
S3150800AE708DF8084088B928467BF0EBFC032405A822
S3150800AE807AF02BFF049803689B6898473460002380
S3150800AE903046337139B0BDE8F08F036802AA1B6CDF
S3150800AEA004A998470446CCB158E0169B8DF808408B
S3150800AEB0186802A903681B6998479DF80830002B93
S3150800AEC063D00A9B93F84530B3B9DDF828A00BA9DF
S3150800AED050469AF808B07BF0E3FCE0B9049805A957
S3150800AEE00368DB68984704460028DED00A2835D16F
S3150800AEF006A87BF078FF9AE7169B8DF80840186835
S3150800AF0002A903681B6998470A9A9DF80830127ABD
S3150800AF109A42E3D1D9E79AF84630DAF800107BB1BD
S3150800AF20096C4FF480720023CDF800B016A88BF098
S3150800AF3023FE044601460BAA50467BF0CAFCB2E73C
S3150800AF40DAF840300AF1280202A87BF0F7FB04463B
S3150800AF5040B1214650460BAA7BF0BBFC28467BF045
S3150800AF6078FC8CE7DAF800300222196C16A8002360
S3150800AF70CDF800B08BF000FE04460028E9D1DAF8D7
S3150800AF80001002A87BF012FCD3E77124E6E70068FC
S3150800AF90002836D003689B6903A99847024600280B
S3150800AFA07FF40EAF0123296885F8443005F128029D
S3150800AFB02B6C16A8039C7BF0C1FB034670B92A6864
S3150800AFC0106CCDE900430222002395F094FE034657
S3150800AFD020B9296816A87BF0E9FB0346336056E7D3
S3150800AFE0006800283FF4ECAE0368DB69D4E703A9E0
S3150800AFF000687BF0E2FED1E70397D3E702230393C9
S3150800B000D0E70322DCE600BF940902209809022053
S3150800B01010A0002060970020409D00202DE9F041F7
S3150800B020D0F80C80B2B00546DDE938760C46B8F1A2
S3150800B030000F29D041B3402200216846C1F00AFB1F
S3150800B0402378012E8DF83C3002D18DF8146001E08A
S3150800B050022EFAD06378402B19D1D4E90223CDE920
S3150800B060002301238DF80830002F3FD0394610A859
S3150800B0707BF0CDFE10A88BF097FC034680B101212A
S3150800B0800D201C4A96F0FBFF32B0BDE8F081202B5C
S3150800B09001BFA368ADF8103001238DF81230E3E73D
S3150800B0A0BDF8443012AAADF8183007AB07CA83E8D2
S3150800B0B007000AAB15AA07CA83E807009DF860309F
S3150800B0C08DF834301BB19DF861308DF835309DF818
S3150800B0D0623000228DF8363001238DF83830EB685F
S3150800B0E0DB6869461868FFF72BFECDE73A46D8F8BD
S3150800B0F00C30F6E75EF90D082DE9F84391F838703B
S3150800B10004460E464FF000080FB191F83980002525
S3150800B11004F10809484694F09FFF314648462560E1
S3150800B12094F0AFFF84F840700FB184F84180074B64
S3150800B130A4F85050A36484F8905084F8D05084F84A
S3150800B140D85084F8DA502046BDE8F88398090220DA
S3150800B1502DE9F04190F9343006460133A6B003D103
S3150800B160002026B0BDE8F0810368002BF8D100F175
S3150800B1700808404695F014FB074630600028EFD1D2
S3150800B180204C0146942201A80094C1F063FAB06CE1
S3150800B19004AD03689B6898470FCDB46406F158045C
S3150800B1A0A6F850700FC40FCD0FC40FCD0FC495E885
S3150800B1B00F0014AD84E80F000FCD06F198040FC4F4
S3150800B1C00FCD0FC40FCD0FC495E80F0084E80F000C
S3150800B1D0684686F8D87086F8DA707AF07EFD4146B9
S3150800B1E006F148008BF0D6FB30600028B8D196F8F7
S3150800B1F040302BB1B06C96F841100368DB6998476C
S3150800B2000120AEE798090220F0B5CFB007460E46F2
S3150800B2100D7AFFF7A3F9006838B1036829465B6A17
S3150800B22003AA984718B104461EE00320FBE7FFF778
S3150800B23095F904A900687BF0C0FD0446A0B9BB7B5C
S3150800B240012B00F2838006A894F006FF22462146C9
S3150800B25006A894F044FF304606A98DF850407BF0C6
S3150800B260EBFD074618B1044620464FB0F0BD9DF9E0
S3150800B2704430013321D1059006A916A8FFF73CFFF3
S3150800B28016A8FFF765FF28BB169C28A8212C2BD1EA
S3150800B2907AF023FD06A916A8FFF72EFF06F1080483
S3150800B2A016A8FFF755FF20BB169C212C4CD0002C66
S3150800B2B04AD028A87AF011FDD6E705A906A895F080
S3150800B2C0D7FA0028AFD1DDE904329A42D4D940F240
S3150800B2D08954C9E728A8FFF701F80028D0D128A87B
S3150800B2E07AF0FBFC2F24BFE77AF0F7FC002CBBD1E1
S3150800B2F0D0E7039BBB420BD9FFF730F928AB009385
S3150800B3002A463B4621467AF083FD58B10446D0E7E3
S3150800B310FFF724F928AB00932A46002321467AF042
S3150800B3202EFDF2E70137BBE7013B0393FFF716F95A
S3150800B3302A463146039BFFF7CDF80028E6D1039B42
S3150800B340BB42F1D80024B4E70836F8E7042B2FD11E
S3150800B350039B049A01339342B9D8164BADF86000A3
S3150800B360169301233371337A8DF8A0008DF8E00027
S3150800B3708DF8E8008DF8EA0016AFB3B138463168A3
S3150800B3808BF008FB044670B9169816F8081F036870
S3150800B390DB699847FFF7E2F823462A4631460097C5
S3150800B3A07AF0EDFC0446384684E740F27E54FAE724
S3150800B3B06C2459E798090220F0B517690E46044629
S3150800B3C0194685B0BFB902F10800FFF71DFF2F28FF
S3150800B3D0034613D0D82811D00B2819D000228DF88F
S3150800B3E00C20039A2046009231463A468BF002F921
S3150800B3F0204605B0F0BD4FF4B163EFE7872501217C
S3150800B4000D20044A009596F03AFE45F4A063E5E758
S3150800B4108925F4E785F90D08034B53F81C0900281C
S3150800B42018BF1846704700BF6043012008B50C488E
S3150800B43002680AB1C0F0D7FF1F21A0F11C0340E93A
S3150800B44005120849C3E9073240F81C1C483140F880
S3150800B450182C40F80C2C40F8042C40F8081C08BDA1
S3150800B46060430120A4F90D087FB5094B1F220193FB
S3150800B4704FF00113CDE903230023ADF8080001A915
S3150800B48002A8ADF8143092F0E7FD07B05DF804FBAA
S3150800B49034FA0D0808B502487BF009FD08BD00BF5F
S3150800B4A044430120024A03490348C0F075B900BF66
S3150800B4B010090220D96E08084443012000B5084B3C
S3150800B4C089B00493032305930023039204490322B6
S3150800B4D0009303A88BF011F809B05DF804FB00BFD0
S3150800B4E09CFA0D0810460249022296F009BF00BFD1
S3150800B4F08CFA0D087FB516690546022E1C464DD0F6
