S02B00002F686F6D652F686164796C69752F53696D706C696369747953747564696F2F76365F776F726B73702F
S31508006000081200200D7D0308AF9D0A084590000878
S315080060103BF60B086D9000088190000895900008E3
S31508006020AF9D0A08AF9D0A08AF9D0A08FD840D08B2
S31508006030A990000858F30E08A1840D08C5C20D08DA
S3150800604085790308AF9D0A08AF9D0A08AF9D0A081F
S31508006050AF9D0A08AF9D0A08AF9D0A08AF9D0A08BA
S31508006060AF9D0A08AF9D0A08AF9D0A085D9400080F
S31508006070AF9D0A08AF9D0A08AF9D0A08AF9D0A089A
S31508006080AF9D0A08AF9D0A08AF9D0A08AF9D0A088A
S31508006090AF9D0A08B9580508AF9D0A08AF9D0A08BA
S315080060A0AF9D0A088550050865500508AF9D0A0882
S315080060B0AF9D0A08D12A0808A53308080F7B0D08E2
S315080060C00B7B0D08192B0808257B0D08137B0D087B
S315080060D075330808177B0D08E53308084D3408089A
S315080060E0AF9D0A08AF9D0A08A9910008AF9D0A0846
S315080060F0C1EA0B08AF9D0A08AF9D0A08AF9D0A08BA
S31508006100AF9D0A08AF9D0A08AF9D0A08AF9D0A0809
S31508006110AF9D0A08AF9D0A08AF9D0A08AF9D0A08F9
S31508006120AF9D0A08AF9D0A08AF9D0A08AF9D0A08E9
S31508006130AF9D0A08AF9D0A08AF9D0A08AF9D0A08D9
S31508006140AF9D0A0889400608AF9D0A08A9D20D081E
S3150800615001150808AF9D0A08EF7A0D08F57A0D08AB
S31508006160AF9D0A08AF9D0A08AF9D0A08AF9D0A08A9
S31508006180F0B5114A114C124E00F00105E3695F079C
S3150800619013D40DB9334213D103EA00078F4207D14E
S315080061A00B4A1A40002A0CBF00206FF00100F0BD10
S315080061B0013AEBD16FF00200F9E74FF0FF30F6E74E
S315080061C06FF00100F3E700BF8096980000000350C7
S315080061D00200010070B50B4BD96911F480310DD15D
S315080061E001244FF48072084E084DF46020462C6452
S315080061F01A61FFF7C5FF3464EC6070BD6FF00100EB
S31508006200FBE700BF000003500010035000200350B6
S315080062104FF4803238B50E4B0E4C9A66E56941F656
S31508006220713315400122E3630B4B0021DA60022328
S31508006230606121202361FFF7A3FF10B92120FFF732
S315080062409FFF0122054BDA600DB10023E36338BDD9
S315080062500090005000000350001003500020035027
S3150800626070B5134C6061E3695B071ED40E4656F899
S31508006270043B8D18A361AE420BD1042300212120D3
S315080062802361FFF77DFF58B9BDE870402120FFF76D
S3150800629077BF08210846FFF773FF10B1042323616F
S315080062A070BD56F8043BA361E5E74FF0FF30F7E70A
S315080062B0000003502DE9F84315464FF48032184B79
S315080062C089469A6603F51C33DF690646174041F688
S315080062D07132DA63012203F58053DFF84C80DA6005
S315080062E055B9284601220F4BDA601FB10022A3F5E3
S315080062F00053DA63BDE8F88306F5005404EA080497
S31508006300A41BAC4228BF2C46494622463046FFF716
S31508006310A7FF0028E6D12644A1442D1BE0E700BFCD
S31508006320009000500020035000E0FFFF000000002E
S31508006330000000000000000000000000000000004F
S31508006340013800D0FCE770472DE9F04F2DED028BA0
S315080063501D4613690646052BD5B00BD8013B01220D
S315080063600024042B23D8DFE813F04100290130016B
S315080063703F0152014FF6FC72934212D04FF6FD725E
S3150800638093424FF0010340F0448102200021CDE9F9
S315080063903E0185F8443028463EA980F07DFD3060F0
S315080063A086E000230022CDE93E230123F1E7CB69ED
S315080063B0284685F844202C9380F008F80028EED16A
S315080063C03FA83E959AF02AF93EA92CA885F096F999
S315080063D00446284680F03FF82046002CDFD14FF6C9
S315080063E0FF7385F84C40A5F84A30D8E7D1F81C80E9
S315080063F0284685F844207FF0E9FF0446002856D150
S3150800640013A812959AF00AF941460AA883F0E9FA00
S3150800641005232246414600930EA885F0D4F8274660
S315080064209FED7F8BDFF800A20EA90AA885F0E2F897
S31508006430044648B9284680F00EF84FF6FF7385F8EB
S315080064404C40A5F84A3032E00AA883F09AFA8DED56
S31508006450228B8DED248B90F88190CDE92677CDE9B6
S315080064601E77ADF880708DF8A0708DF8AC90D0E9E5
S315080064700023CDE92423B0F8823000F16004ADF89A
S315080064808030D0E9022320212046CDE92223C4F01A
S315080064904AFF4946CDE926402CAA4046CDF8B0A089
S315080064A093F03CFC044658B128467FF0D4FF34608C
S315080064B000233371304655B0BDEC028BBDE8F08F32
S315080064C02DAB1E9341230DF1080B1F933EABCBF862
S315080064D0003055235A4649464046CBF8043093F0D7
S315080064E0ACFD04460028DFD1DBF80430B3B19BE8E5
S315080064F0030001238DF8103005AB83E8030004A9D7
S3150800650007A885F0EEF89DF81C308DF8A0302BB161
S3150800651029AB08AA92E8030083E803009DF8AC308B
S31508006520002B49D0DDF8489099F8452099F808B02D
S315080065300AB19B451AD1484613A97FF0B3FFA8B103
S3150800654099F84630D9F80010A3B1096C4FF4807257
S315080065500023CDF800B01EA8C3F0FBF80446014698
S3150800656013AA48467FF0B7FF002C9DD10AA885F0EC
S3150800657016F859E7D9F8403009F1280207A87FF03C
S31508006580DFFE044628B12146484613AA7FF0A3FF3A
S315080065908AE7D9F800300222196C1EA80023CDF824
S315080065A000B0C3F0D6F804460028ECD1D9F800109C
S315080065B007A87FF0FDFED1E7712475E705200021C5
S315080065C085F84420CDE93E01E5E6CB6993F88233A8
S315080065D0CDE93E340123284685F844303EA980F0AB
S315080065E05BFC3471306065E7CB69284685F8442042
S315080065F02C937FF0EBFE00287FF4D1AE3FA83E95A2
S315080066009AF00CF83EA92CA885F07CF9E0E62B7ADE
S31508006610DEE78622C0E900234CE700BFAFF300801F
S31508006620000000000000000018B50E080000000079
S315080066302DE9F04F2DED028B083085B00E469146B8
S31508006640DDF850809BF063FB0446002800F0A38029
S315080066506F4600259FED548B4FF0010B41F2A45A6B
S3150800666010AB0FCB87E80F00514BC4E902552360E6
S31508006670C4E90455C4E906552C3363604D4B04F14F
S31508006680500C0FCB84ED108BC4E90E5584F82050BE
S3150800669084F8305084F848508CE80F00464B84F84C
S315080066A060B0A4F862A06566236704F18403C4E9B0
S315080066B02133424B1022C4F89830294684ED1A8BB0
S315080066C0C4E91D55C4E9275584F87C50C4F88C5094
S315080066D0C4F8A45004F1A800C4F030FF84ED308B50
S315080066E084F8B8B0A4F8BAA0C4F8BC5004F1C8003D
S315080066F09CF075F94AF6C873C82284ED388B84ED88
S315080067003A8BC4E93C2304F58673C4E94055C4E9C9
S315080067104333A4F8D45084F8D650A4F8D85084F853
S315080067200851C4F814513368A3607368E360B3680A
S315080067302361F36863613369A3617369E361337E37
S3150800674084F8203033B104F1240306F11C0207CA89
S3150800675083E8070096F8283084F830300BB1F36ADE
S315080067606363304680F003F8A8B9B9F1000F12D078
S31508006770B8F1000F0FD003CF3B78C4F8389084F8EF
S315080067804830012384F80031231D20646164C4F86D
S315080067909080C4F8A430204605B0BDEC028BBDE855
S315080067A0F08F00BFAFF3008000000000000000007B
S315080067B0E0300E08AC4A01205CE80E08D0300E081E
S315080067C02DE9F04F2DED028B00240025CBB099461C
S315080067D0CDE92E450023CDE93045CDE934454FF6C0
S315080067E0FF74DFF898A2064688461746CDE90C33AB
S315080067F08DF8C8303393CDF8D8A04894A2B305468F
S3150800680000F53474A54206D10B2420464BB0BDECE6
S31508006810028BBDE8F08F284680F0D7F808B190358E
S31508006820F0E79FED8F8BBDF85C318DF8C880ADF829
S3150800683020318D4B4FF4C8710E93002309A8CDE97A
S3150800684009330F93CDF870A00B9384F040FF099C91
S3150800685014BB0B240BA87FF05EFE0AA87FF05BFE34
S3150800686009A87FF058FED0E793F0E8F9044608B97E
S31508006870AC24CAE706F5347528467EF0EAFBB4F878
S3150800688082308DF8C880ADF8203121460CA894EDE9
S31508006890028B93F040F9CCE74FF4C8710AA884F04C
S315080068A016FFDDF828A0BAF1000FD2D04FF4C87150
S315080068B00BA884F00CFF0B9A002ACAD04FF4C873B1
S315080068C04146CDE91332304610AA1094CDE9113A63
S315080068D0159393F013FA04460028BBD14146304677
S315080068E012AA93F0EDF904460028B3D14146304682
S315080068F014AA93F0C2F904460028ABD110A916A829
S3150800690084F0DBFE12A918A884F0D7FE14A91AA8E9
S3150800691084F0D3FE36AB079330AB05930DF1B80A76
S3150800692034ABCDE903A30DF1700B0EAB8DED008BE7
S31508006930CDF818B002931AAA18A916A81BF0BAFF20
S315080069400446002886D10BA87FF0E5FD0AA87FF04B
S31508006950E2FD09A87FF0DFFDB9F1000F13D1D6F8E3
S31508006960640300285ED003689B6898470346D6F8F8
S315080069706403002B4ED003685A4641465B69984724
S31508006980044688B141E7D9F8003048465B6998471C
S31508006990594693F0A3FC08B9C52436E79DF8583143
S315080069A0CDF8CC908DF822319DF860315146B3FA76
S315080069B083F328465B098DF8233193F036FC0446A9
S315080069C000287FF422AF28460CA993F0E9F806F5CB
S315080069D05D7495F881303FB302211120234A9BF05C
S315080069E073F9D5E900122B69CDE9012100936B698A
S315080069F0022111201E4A9BF067F920460F991DF0C7
S31508006A0071FE034630BB96F88233013386F882332B
S31508006A100024FAE603684146DB6898470028C3D194
S31508006A201024F2E60324F0E6D5E900121120CDE998
S31508006A30002102210F4A9BF047F920460F991DF0C5
S31508006A4051FE03460028E3D0012111200A4A9BF093
S31508006A503BF9DDE701211120074A9BF035F9D2E71A
S31508006A60000000000000000008750E08CB730E0831
S31508006A70EB730E082E740E0863740E0818B50E080C
S31508006A802DE9F0478AB00DF10D030193152306464B
S31508006A9000934FF48072002308460C4699F0EEFFE7
S31508006AA0E8B996F89630012200932046002399F01B
S31508006AB06CFFA0B996F8973002220093204600236F
S31508006AC099F063FF58B90DF10E03019316230322BB
S31508006AD000932046002399F0D1FF054610B10AB06D
S31508006AE0BDE8F0874FF0100906F1C8070DF1180840
S31508006AF0102200214046C4F021FD0DF10F03019339
S31508006B0015234FF4807200932046002399F0B6FFB0
S31508006B100028E4D196F89720EBB29A4251D917ED9E
S31508006B200C7BC44637F828ACA7F12603A7F1160E46
S31508006B30624618685968083303C273459446F7D104
S31508006B408DED007B04220023204699F0F9FE0028EB
S31508006B50C5D1052200232046CDF800A099F015FFDF
S31508006B600028BCD14046494606228DE8030000238A
S31508006B702046CDE904899AF054F80028AFD120467A
S31508006B809DF90F1099F0AFFF013530370028A6D1CF
S31508006B90032DADD120469DF90E1099F0A4FF0028CB
S31508006BA09DD1B6F88E30072200932046002399F02F
S31508006BB0ECFE002893D120469DF90D1099F093FF1D
S31508006BC08DE782469FED027BBAE700BFAFF30080F0
S31508006BD00000000000000000A0F1840050E700BF9C
S31508006BE0054B18680368D96901A3D3E90023084748
S31508006BF000E0373B015D0300440902200000000065
S31508006C0037B5A3F0C2FC044600286ED13A4B1A8861
S31508006C109B78ADF804208DF8063031F00FFF32F07E
S31508006C2023FC32F081FB0546344B036032F00CFE40
S31508006C30284632F015FD00B9FEE72DA3D3E9002357
S31508006C404FF0FF314FF0FF3031F000FF32F070FBAC
S31508006C50214632F0C9FBA3F09BFC01A832F0C2FC26
S31508006C60044600B1FEE7264B264A98801860264B54
S31508006C7098801A60254B264A98621A60254A988099
S31508006C806FF06300DA6033F051FD0B2032F09EFBA3
S31508006C9032F0FCFB32F042FB00B9FEE754F0CCFEC2
S31508006CA02046A3F039FE08210846A3F03CFE00B1B1
S31508006CB0FEE7A3F02FFE32F087FAA3F07AFD102143
S31508006CC01548B8F033FD00B9FEE714491248B8F084
S31508006CD03FFD00B9FEE710218C20114A54F0C4FA92
S31508006CE000B1FEE70F48A5F047F903B030BD00BF75
S31508006CF00AE020FFE203000091000F084BA70A08EC
S31508006D0068ED002092FB012038ED002008ED0020F8
S31508006D1012FB0120F8EC0020D48F0120F1CE0D08DB
S31508006D20C48F0120C6FF0E082DE9F04389B0A3F0F1
S31508006D301DFC00B9FEE75C4D2B6803B9FEE701228E
S31508006D409B8811460DF10B008DF80B3032F000FCD4
S31508006D509DF80B102B6802390022186889B232F0A8
S31508006D60F7FB002305930793504B05AE06932B6854
S31508006D7093F82C208DF814201B681C7814F0200436
S31508006D8014D0A3F0CBFD00285CD0A3F0C7FD62F0B9
S31508006D90C5FA0B46024640A1D1E9000162F062FC41
S31508006DA062F0D0FD079B18440124079032F014FCCA
S31508006DB09DF80B30002848D0981DC00062F0BEFA36
S31508006DC037A3D3E9002362F023FB8946804632F0D5
S31508006DD003FC62F0A3FA0B4602464946404662F0B7
S31508006DE041FC62F0AFFD079B18440790A3F0C5FB72
S31508006DF038B132F057FB0020A3F0BBFB0020A3F00C
S31508006E00BFFB29684B6963BBA3F0D3FB10B3079B91
S31508006E10274F03F5FA7307932B681B7EBB7032F076
S31508006E203BFBF870286833463A462146807932F0AB
S31508006E3071FB58B34FF480510020D6F07EF8A3F0CA
S31508006E4097FE23E00798C030AEE70798063300EBB5
S31508006E504310CAE72B6832462146987932F050FB30
S31508006E60E7E70022962004920A691A44114BA2F514
S31508006E709B7298800392887903AA2146009632F07D
S31508006E8057FB0028D6D10120A3F09EFB09B0BDE828
S31508006E90F08300BFAFF300800000000060E36641A6
S31508006EA00000000080842E41C08F012020A1070029
S31508006EB0E8090220DC0902202DE9F3411E461C4B95
S31508006EC0044683424FF000038B4115460AD216A3A7
S31508006ED0D3E9002362F0F6FD164914460246284611
S31508006EE0A7F0A2FC144B4EF66021B4FBF3F203FBA9
S31508006EF01244B4FBF1F34FF47A7801FB1344B4FB64
S31508006F00F8F728460D490097A7F08EFC46B12846A3
S31508006F1008FB17420A4902B0BDE8F041A7F084BC55
S31508006F2002B0BDE8F08100BF005C26050000000045
S31508006F30FF5B26051C310F0880EE3600E6780E0842
S31508006F4022310F080348044B834202D0034B03B196
S31508006F501847704744140220441402200000000019
S31508006F60064B0749C91A891048BF0131491003D091
S31508006F70044B0BB101481847704700BF4414022060
S31508006F80441402200000000010B5064C237843B9CB
S31508006F90FFF7D8FF044B13B10448AFF30080012371
S31508006FA0237010BD7CBE012000000000D4CB0F0862
S31508006FB008B5054B1BB105490548AFF30080BDE888
S31508006FC00840FFF7CDBF00BF0000000030310120A8
S31508006FD0D4CB0F08A3F5803A704700BF174B002B98
S31508006FE008BF134B9D46FFF7F5FF00218B460F465A
S31508006FF01348144A121AC4F0A1FA0E4B002B00D0FB
S3150800700098470D4B002B00D098470020002104001C
S315080070100D000D48002802D00C48C4F02BFA63F086
S315080070205FF820002900B8F026FB02F0C7F800BF79
S315080070300000080000000000000000000812002000
S3150800704008120020C004022075B40C0800000000D5
S3150800705008B5154B4FF4E47200211846C4F06EFAD1
S3150800706009220346026142611048114A98614FF4A9
S315080070708061DA61002219629A625A62DA62C3F89A
S31508007080F0000C48C3F8F400C3F8F8100A49C3F82E
S315080070900021C3F8FC20C3F8042111F8010D985407
S315080070A00132102AF9D108BD4831012028D60D0829
S315080070B07DC201207DBE012041D60D082DE9F84F7D
S315080070C0DFF88880824698F800308946532B1646A2
S315080070D001D0FFF7BDFF182707FB0A87D7F800512D
S315080070E0D7F8FCB05D452FD9D7F8F840D7F8F41093
S315080070F0641BB44228BF3446484629442246C4F095
S31508007100D9F8D7F8F8302544AB4208BF0025A14482
S31508007110361BABEB050B5E4528BF5E465EB11823F2
S3150800712003FB0A83D3F8F410324629444846C4F0D0
S31508007130C1F83444354424B1182303FB0A88C8F837
S3150800714000512046BDE8F88F0024E2E748310120C7
S31508007150F8B5182700FB0775124B0E461D4407FBAA
S315080071600033DB6A1446012B0AD0022B14D023B94C
S3150800717028467DF0C1FB844208D900242046F8BD84
S3150800718028467DF0B9FB844228BF0446224631468C
S3150800719028467DF0BAFBF1E72846BDE8F8407DF0C1
S315080071A0CFBB00BF48310120F8B50B4B04461B780E
S315080071B00D46532B164601D0FFF74AFFEFF311870A
S315080071C04FF0200181F31188324629462046FFF701
S315080071D0BFFF87F31188F8BD483101202DE9F0413A
S315080071E0164C1E4623780546532B8846174601D06B
S315080071F0FFF72EFF082D1DD8EFF3118C4FF0200155
S3150800720081F3118865B1182005FB000344F8038053
S31508007210E2180023576000FB054216629362536228
S31508007220182303FB0544069BE3628CF311880020B0
S31508007230BDE8F0814FF0FF30FAE700BF4831012082
S315080072402DE9F843174E1F4633780546532B8946D2
S31508007250904601D0FFF7FCFE082D1FD8EFF31182E8
S315080072604FF0200181F311886DB11824002304FB27
S315080072700564C4F8F090C4F8F480C4F8F870C4F84B
S315080072800031C4F8FC30182303FB0566089BC6F8D2
S31508007290043182F311880020BDE8F8834FF0FF30EF
S315080072A0FAE700BF48310120024B1B780BB10023D7
S315080072B0037370477EC6012002211D20014A9AF0F9
S315080072C003BD00BF42D60D0802211D20014A9AF0CF
S315080072D0FBBC00BF52D60D0802211D20014A9AF0B8
S315080072E0F3BC00BF61D60D0870B5037C0446FE2BBF
S315080072F022D0FF2B30D00B2B37D80B2B35D8DFE815
S3150800730003F00612063434343434343434129BF021
S31508007310ABFB036841F288315D692346164AAC46E1
S31508007320BDE8704060479BF09FFB036842F210710E
S315080073305D69114A2346F2E79BF096FB03682246ED
S315080073405B6A0D4998479BF08FFB03684FF47A7187
S315080073505D69094A2346E2E79BF086FB03682246F5
S31508007360BDE870405B6A044918470221BDE87040D1
S315080073701D20024A9AF0A8BCD97200087BD60D08CF
S3150800738048F2040210B5038893420DD006D803F5D7
S31508007390FF437F339BB2012B0AD910BD48F2120274
S315080073A09342FAD10F4A0CE0027A0F4B1A70F4E7AF
S315080073B090F90830012B03D090F90930012BECD154
S315080073C00A4A022121209AF07FFC9BF04DFB0368B4
S315080073D040F6B8315C69064AA446BDE81040002369
S315080073E0604700BFB8D60D087EC6012090D60D08A6
S315080073F0CF49080808B59CF058FF23F0FDFB23F099
S315080074002DFC094826F0D2FD00224FF46171074889
S315080074108FF0DAFA30B1BDE8084001212120044A8C
S315080074209AF052BC08BD00BF80B00020A8A3002077
S31508007430F4D60D0810B500220C46134813499CF0E3
S31508007440DCFF18210A20124AD5F0CCFA114B186035
S3150800745040B921200121104A9AF036FC40F2017009
S315080074607DF078FC20460D4A0A49D4F07CFF40B9E5
S31508007470212001210A4A9AF027FC40F202707DF089
S3150800748069FC002010BD00BFB0BF00208173000852
S3150800749074D90D083C34012022D70D0850D90D089F
S315080074A045D70D0810B5054B054C187020469CF0BD
S315080074B0CFFC2046BDE810409CF022BD7EC60120C8
S315080074C080B0002008B50C489CF0D6FF58B10B4890
S315080074D09CF0BEFC09489CF013FD094825F078FA93
S315080074E005489CF0D2FF074B186818B1BDE808405C
S315080074F000F0C2B908BD00BFB0BF002080B00020B0
S315080075002855012020330120014608B54FF47A7228
S3150800751000238002890D62F0D5FA094B01461868E6
S31508007520D5F0A6F850B121200121064A9AF0CCFBE5
S31508007530BDE8084040F205707DF00CBC08BD00BFF0
S31508007540443401205FD70D0808B5074A40F6B8331A
S31508007550022121209AF0B8FB40F6B830FFF7D4FF95
S315080075600122024B1A7008BD78D70D087DC6012086
S3150800757008B5094B0A211868D5F07AF850B12120C8
S315080075800121064A9AF0A0FBBDE8084040F20570C2
S315080075907DF0E0BB08BD00BF40340120B7D70D0819
S315080075A010B5044686B009489AF0B1FB60B10023CD
S315080075B0CDE903330293064B214601930223054A7C
S315080075C00093054B07F00CF806B010BD24330120D4
S315080075D0E9720008B9720008C972000808B5094BB3
S315080075E00146186858B100231822D5F03BFA40B175
S315080075F0054A0121BDE8084021209AF065BB034AE7
S31508007600F7E708BD3C340120CFD70D08FCD70D0895
S315080076107FB50223ADF80030044B0190684602930B
S31508007620FFF7DCFF07B05DF804FB00BF5D760008D6
S315080076308B68084603B1184702212120014A9AF0AF
S3150800764043BB00BF1DD80D0800220249024827F097
S3150800765059BD00BF29780008B0BF00200388022B57
S3150800766006D1044B1B780BB9FFF76EBFFFF7ECBFCB
S31508007670704700BF7DC6012000220249024827F054
S3150800768041BD00BFF5730008B0BF002010B5A4B017
S3150800769003AB0193812301AC029364F017FC2146E6
S315080076A065F020F928B994E803002DF01BFB24B0F7
S315080076B010BD01212120024A9AF006FBF7E700BF18
S315080076C04DD80D0800230246194610B50446204831
S315080076D0D0F054FD1F4B186040B9212001211E4AE5
S315080076E09AF0F2FA40F204707DF034FB0023224649
S315080076F001211A48D0F042FD194B186040B92120E3
S315080077000121184A9AF0E0FA40F204707DF022FB53
S3150800771002212120144B154A9AF0D6FA0221144A5E
S31508007720012321209AF0D0FA28F0D2F80368DB6FFB
S3150800773098470120FFF7AAFF01F0B2FB0D489CF01D
S31508007740D1FB0D4B0D4918700D4892F018FB10BD72
S31508007750117600084434012065D80D080B4A08083C
S31508007760403401207FD80D087A410E0899D80D08B3
S31508007770BDD80D0880B000207EC601201433012034
S31508007780409D002038B50546FFF79CFF044638B1F2
S315080077900C4827F039F920467DF0DCFA204638BD3A
S315080077A02B6828469B689847044608B10648F0E7C0
S315080077B0064B1A6852F8640C1A581844526C9047CB
S315080077C0ECE700BFDAD80D08ECD80D088055012083
S315080077D0482337B50E4A0F4CA2F118050093111D20
S315080077E0012328469AF07DFA224628460A49C2F01D
S315080077F047FF0023224609480949C0E90233094BD5
S3150800780003603033436003B0BDE83040C2F038BF90
S315080078103C330120D0060220E7490808103301202E
S31508007820C949080808D90D0810B50121094827F0E3
S315080078305BFA20B164F04AFB0121C3F0C0FF064899
S3150800784027F0B8FB28F044F8BDE8104003689B6FA2
S31508007850184700BF80550120B0BF002010B5044668
S315080078600178044827F074FAA37883F00103A3701B
S3150800787010BD00BF8055012073B503690446E3B106
S315080078804369D3B10E4B684619680B681B6998475C
S31508007890D4E90423DDE90065A178002918BF134659
S315080078A0D4E902125B1842F10002B342AA4104D29B
S315080078B02046FFF7D3FFC4E9026502B070BD00BFDA
S315080078C04409022038B500230022C0E90433002306
S315080078D004460D46C0E902230278024827F028FA32
S315080078E0A57038BD8055012001489CF0FCBB00BF3F
S315080078F080B0002001489CF0F8BB00BF80B0002093
S31508007900044A08B583680260243242600BB1C3F0AA
S31508007910DEFC08BDC0DA0D08A0F10400F0E700BFE0
S3150800792010B50446054B03604433436014F014F95C
S315080079302046FFF7E5FF204610BD00BF28390E0890
S31508007940A0F10400ECE700BF38B5124B044603F17A
S315080079503802C26003F14C02026103F1600242611F
S3150800796042680360743383613AB183682BB153600C
S3150800797042681A600023C0E9013304F14405284629
S3150800798087F09CFD28467DF068F8201D7DF065F897
S31508007990204638BD08FC0D08A0F11400D4E7A0F174
S315080079A01000D1E7A0F10C00CEE7A0F11800CBE754
S315080079B01F2008B502210C4A9AF086F90B4826F0D2
S315080079C0EFFA78B90121094825F046FF50B9084869
S315080079D082F09CFD1F200221064A9AF075F9034899
S315080079E09CF07FFB08BD00BF8CD90D0880B0002035
S315080079F058150020AAD90D08F8B51E4C00252646AC
S31508007A001D4F1E481E4B3A461E49C0E901550360E4
S31508007A10C560057445610583C2F032FE1A4B2946D6
S31508007A2046F8D83B3246234604F1080008F06AF8BF
S31508007A3004F12003C4E93435144B3A46C4F8D83067
S31508007A40134B2046C4E9383604F1F403C4E93B3540
S31508007A5041F20A430F4984F8E85084F8F451A4F82F
S31508007A60DC30C2F00DFE3A46BDE8F8400A490B483C
S31508007A70C2F006BE58150020D00602205434012054
S31508007A8000B80E08D1CE0208D0FA0D08E4A30E08F5
S31508007A90C8A30E08B14A0808574A0808240702204E
S31508007AA07FB5044602211F20854A9AF00DF9234620
S31508007AB002211F20834A9AF007F9834D02211F20CD
S31508007AC07F4A9AF001F902211F20804A9AF0FCF8B1
S31508007AD02B784BB9284627F0C3FB00280CBF012397
S31508007AE000232B7040F0E5802146794824F06AFF90
S31508007AF064F0ECF90446C3F04AFE002840F0D98049
S31508007B00201D22F023F904F1080022F0ADF82046E2
S31508007B10C3F052FE6F4A704B0221002818BF134665
S31508007B201F206E4A9AF0D0F8FFF742FF002840F06F
S31508007B30C0806B4B039001936A4B6B4802939CF091
S31508007B4085F96A4C039001AB6948236327F034F939
S31508007B50002840F0AE8067489CF089FC664DD5E861
S31508007B60AF3FDA070BD42846A2F0CAFF38B1634AFA
S31508007B7063496448C2F084FD2846A2F0C6FF624DF8
S31508007B80D5E8AF3FDB070FD42846A2F0B9FF58B1B6
S31508007B905C495E4814F044F8584A5D495B48C2F0AF
S31508007BA06FFD2846A2F0B1FF5A4D584B284623646C
S31508007BB025F098F92369A5631BB9574B574A2361E2
S31508007BC05A60E36B53BB564D6B68002B70D105F1B9
S31508007BD0140026697CF08AFF05F11C007CF086FFFC
S31508007BE0EB6803B92B7295F834304E4823F0050339
S31508007BF085F834307CF07AFF4B487CF077FF95F8AF
S31508007C0034304A4823F0180385F834307CF06EFF88
S31508007C1000236E602B7285F83430E563236C0BB94C
S31508007C20434B2364434D444B28462169636293F0D2
S31508007C3037FB636A28462B6192F008FD002838D185
S31508007C4022692562002A36D03C4B3D4D5A60636155
S31508007C5002F090FE3B4B0221A0623B4A2120E362E0
S31508007C609AF032F82846216916F082FA08BB20698C
S31508007C70A56196F073FD354B21696064344823602D
S31508007C809AF0B7FE324822F051F81849314815F0F3
S31508007C90EBFD044617489CF0F8FB3CB92E4826F045
S31508007CA0B3FE144827F06EFA044630B1204600E0C9
S31508007CB0032004B070BD2F20FBE700F0AFF8F5E70E
S31508007CC0D4D90D0807DA0D08A8BF002013DA0D0865
S31508007CD028550120C3D90D08CBD90D0823DA0D087C
S31508007CE0E9780008F578000880B00020D806022058
S31508007CF080550120B0BF00204C340120D006022058
S31508007D00594A0808D40602204834012008120020DF
S31508007D102179000854340120C40702203CF90120C7
S31508007D20184901203C4901204449012024490120E1
S31508007D30C8730020AC460120A4070220A4460120EF
S31508007D4068460120A807022035DA0D0810330120FD
S31508007D50240702206077002065DA0D0810B513485D
S31508007D60FFF79EFE08B17CF0F5FF11489CF07FFBFB
S31508007D7064F0ACF800B10C301AF010FB0C489CF01B
S31508007D8084FB1F2002210B4A99F09EFF0A485EF0E9
S31508007D90D1FC08B17CF0DEFF084C2068D4F057FB14
S31508007DA008B1C3F094FA206010BD00BF8ADA0D0846
S31508007DB0B0BF002093DA0D089CA70120503401209B
S31508007DC010B50A489CF0EFFA0021094A0948D4F090
S31508007DD0CAFA094C02212060084A1F2099F074FF4C
S31508007DE023680BB9C3F073FA10BD00BF8055012094
S31508007DF0FCDA0D085D7D000850340120A5DA0D086F
S31508007E00014820F081BC00BFF04A0120024B012145
S31508007E101868D4F075BB00BF7034012010B50A4845
S31508007E2020F0C4FB044608B1C3F051FA01F09EFDE8
S31508007E3001F0E4FD2146054A0548D4F094FA054BBD
S31508007E4018600028F0D010BDF04A012028DB0D0884
S31508007E50017E00087034012010B5044601210C206B
S31508007E60064A99F031FF0023E068A36020B1BDE817
S31508007E70104003689B68184710BD00BF4CDB0D080F
S31508007E80A0F10400E8E700BF10B50A4CD4E8AF3FFC
S31508007E90DB070DD42046A2F033FE48B10648074B4F
S31508007EA0074A08490360C2F0EBFB2046A2F02DFE04
S31508007EB0014810BDD8340120DC340120A49C0E08EA
S31508007EC0D00602201B4B080810B504460B4B03606E
S31508007ED06433436000F50E702DF0C4FF636A23B166
S31508007EE0002204F11C0062629847236923B100222C
S31508007EF004F1080022619847204610BD800F0E083D
S31508007F00A0F10400E0E700BF10B50446034B40F8B3
S31508007F10343B7CF018FE204610BD00BF7C0B0E08D3
S31508007F2037B5C0680D46144638B901210C200E4AEB
S31508007F3099F0CAFE002003B030BD1A6821460192A6
S31508007F4000221A6001AA0AF0CDF801A87CF0FBFD10
S31508007F50A38823B9E38813B92378402BEAD02B8961
S31508007F6043F040032B81E5E75FDB0D08A0F1040031
S31508007F70D6E700BF73B516480AF070FA1549164ACF
S31508007F80D1F8AC34154E164D5360A1F54051334621
S31508007F900F4800950AF03EFB124B336125F07CFA38
S31508007FA0044602460A4930460BF070FA294620462E
S31508007FB025F006F940B10C4826F026FD6D210B4B3D
S31508007FC00B4A0C4862F084FD6C6002B070BD00BFBD
S31508007FD03018002060A700204C0702202C0702203A
S31508007FE0501700208051010092DB0D08AEDB0D080A
S31508007FF0C3DB0D08E1DB0D0870B500243248334BAE
S31508008000334E03606433436000F10803C0E902336A
S31508008010304BC0E90440836100F11C03C0E9073313
S315080080202D4BC0E90940C0E90B342C4BC0E90D447F
S315080080304364203383640523C0E92044C0E922440D
S31508008040C0E9644480F83C40046480F8744080F8D1
S315080080509841C0F89C4180F8A04180F8B84180F862
S31508008060D04180F8E841C0F81C321D4B32461D4904
S315080080701D4DC0F83832C0E98F4480F80042C0F878
S31508008080184280F8204280F84442C2F0F9FA324693
S3150800809016491748C2F0F4FA324616491648C2F08D
S315080080A0EFFA2846154B6C6040F8103B2C7227F007
S315080080B047FCC5E93444C5E9364432462846BDE896
S315080080C070400F49C2F0DCBA30180020800F0E0845
S315080080D0D006022065300108DD24010868DC0D0899
S315080080E05CE80E08C97E0008501700202F4B0808C8
S315080080F04C070220314B08082C0702207C0B0E087F
S31508008100097F0008012903BF034B00201B78A6201E
S3150800811008BF1370704700BF8FDF0120022938B5EA
S3150800812014461D460FD1202200210848C3F006FA3E
S315080081303CB1202D2A46214628BF20220348C3F0F9
S31508008140B9F8002038BDA620FCE700BF6FDF012084
S31508008150104608B56AB163B102290CD1202B28BF95
S3150800816020231A46029B05491A60C3F0A3F800208B
S3150800817008BD2F20FCE7A620FAE700BF6FDF012025
S31508008180012905D102B11278024B00201A707047F6
S31508008190A62070478FDF01202DE9F0431D460023F6
S315080081A089B0074608460E461446CDE9053327F03A
S315080081B041F918B9D82009B0BDE8F083304605A9B9
S315080081C027F004FA0028F6D1204627F033F90028CC
S315080081D0F0D0204606A927F0F9F90028EBD1DDE909
S315080081E00586079007A9124827F0F0F90446D8B97A
S315080081F0079B18EB030902D10EB1C3F068F8009388
S3150800820002213B461F20CDE901860A4A99F05CFD0A
S315080082106B689E420AD8324649462868C3F074F904
S315080082206B689E42E9D86E602046C4E71924FBE7CE
S3150800823021720800D8DC0D08014827F017BB00BFDB
S3150800824000720800002307B50348019301AB27F025
S3150800825011FA03B05DF804FB00720800014827F024
S31508008260C1BA00BF0C72080010B506480C4627F0C4
S3150800827081F940F20123984202BF4FF6F173238039
S31508008280002010BD0C720800014827F0EFBA00BFA5
S315080082900D72080073B5002601AB0C480C4615464E
S315080082A0019627F0E7F940F20123984208D14CB12C
S315080082B0062D09D920462946054A7CF0BAFC3046DF
S315080082C002B070BD0B20FBE71920F9E70D72080014
S315080082D0F6DC0D08014827F085BA00BF0B720800C6
S315080082E010B506480C4627F045F940F20123984296
S315080082F002BF48F205032380002010BD0B72080058
S31508008300014827F0B3BA00BF0E72080073B50026FD
S3150800831001AB0C480C461546019627F0ABF940F21E
S315080083200123984208D14CB1062D09D92046294681
S31508008330054A7CF07EFC304602B070BD0B20FBE798
S315080083401920F9E70E720800FDDC0D08014827F030
S315080083508DBA00BF10720800002307B503480193C1
S3150800836001AB27F087F903B05DF804FB107208002B
S31508008370014827F07BBA00BF11720800002307B531
S315080083800348019301AB27F075F903B05DF804FBC8
S3150800839011720800014827F069BA00BF1272080076
S315080083A0002307B50348019301AB27F063F903B02F
S315080083B05DF804FB12720800014827F013BA00BFE3
S315080083C01872080010B506480C4627F0D3F840F294
S315080083D00123984202BF01232380002010BD00BF5D
S315080083E018720800014827F041BA00BF0F7208004A
S315080083F073B5002601AB0C480C461546019627F0C6
S3150800840039F940F20123984208D14CB10C2D09D90B
S3150800841020462946054A7CF00CFC304602B070BD61
S315080084200B20FBE71920F9E70F72080007DD0D0896
S31508008430014827F01BBA00BF04720800014827F05C
S3150800844019B900BF04720800014827F029BA00BF0D
S315080084501F72080007B500200090034827F060F94E
S3150800846003B05DF804FB00BF1F720800014827F03F
S31508008470B9B900BF0772080013B510480C4627F0B3
S3150800848079F840F201229042034604D14FF4706312
S31508008490238000230FE070B92388B3F5805FF8D3F3
S315080084A04FF4C2732F240121CDE90034044A054B49
S315080084B099F00AFC2346184602B010BD0772080058
S315080084C034DD0D0814DD0D08014827F0A3B900BFF7
S315080084D00872080010B506480C4627F077F840F2EF
S315080084E00123984202BF4FF47A732360002010BD1F
S315080084F008720800014827F0B9B900BF09720800D8
S31508008500014827F0B7B800BF09720800014827F0EC
S31508008510ADB900BF0A720800014827F0ABB800BF22
S315080085200A7208000B4610B5084A0C46084809495D
S31508008530FFF732FED82807D119F0BCFF0368214699
S31508008540BDE810409B68184710BD00BF2772080099
S3150800855045DD0D08267208000B4610B5084A0C467C
S3150800856008480949FFF718FED82807D119F0A2FFCD
S3150800857003682146BDE810405B69184710BD00BF77
S315080085802572080061DD0D08247208000B4610B537
S31508008590084A0C4608480949FFF7FEFDD82807D1BE
S315080085A019F088FF03682146BDE810401B69184783
S315080085B010BD00BF2372080087DD0D08227208006F
S315080085C0022307B501A8D1E90012019363F0A0FBC5
S315080085D018B90199024827F01DF903B05DF804FBA4
S315080085E0207208001FB5022003900698009003A881
S315080085F063F0A6FB18B90399024827F00BF905B0F2
S315080086005DF804FB20720800002370B5164886B092
S315080086100D461646049326F00DFFE8B1124804A944
S3150800862026F0D4FFB0B9049B3246002B08BF0223BC
S31508008630294605A8059363F0EBFB04460290736888
S315080086401F2001936B6802210093084A049B99F046
S315080086503BFB204606B070BD19F02CFF0368324676
S3150800866029469B699847E8E720720800A0DD0D08AF
S31508008670014827F0CFB800BF21720800014826F04C
S31508008680A5BF00BF21720800014827F0EFB800BF58
S3150800869029720800014826F0EDBF00BF29720800BC
S315080086A0014827F0FDB800BF0572080007B500208D
S315080086B00090034827F034F803B05DF804FB00BFC8
S315080086C005720800014827F075B800BF287208002F
S315080086D0014826F023BF00BF287208000020094B76
S315080086E010B5186032B9084C2146BDE81040074855
S315080086F027F090B8A1F5005105488C189BF064FE48
S31508008700F2E700BFE034012000E0170821720800F4
S315080087108055012000232DE9F04F85B080460F468D
S315080087202C4803A91546039326F050FF002838D194
S31508008730294E039933681BB928489BF026FE80BB4F
S31508008740D5E900143368039A02EB030B14F003030C
S315080087501BD10A462346594620489BF01CFE00BBFF
S315080087604046316827F056F8D8B93846696827F080
S3150800877051F8B0B932686B680020134413F03F0211
S315080087801CBF40339B1A33600BE004F1040AAAEBC2
S31508008790030A5046019121F0A1FF0199814618B9B3
S315080087A0AC2005B0BDE8F08F2246C2F083FDAAEBE7
S315080087B00402FF2109EB0400C2F0C0FE53464A46F4
S315080087C0594606489BF0E7FD0446484621F0AAFFAD
S315080087D02046C4E721720800E034012080550120B4
S315080087E008B50A4602480349FFF794FF08BD00BFCB
S315080087F0227208002372080008B50A46024803498F
S31508008800FFF788FF08BD00BF24720800257208001C
S3150800881008B50A4602480349FFF77CFF08BD00BFB2
S315080088202672080027720800DFED0B7AB4EEE70A15
S31508008830F1EE10FA08B50CD9DFED087ADFED080A73
S3150800884030EE670A62F0C8FCDFED067A20EE270AEA
S3150800885008BD9FED050AFBE7000084420000704250
S31508008860D46608BE70D9A44300007F439FED107AF2
S31508008870B4EEC70AF1EE10FAF0EE407A08B50AD857
S3150800888062F07AFC9FED0B7ADFED0B7AE0EE077A61
S31508008890B0EE670A08BD9FED090ADFED090A37EE53
S315080088A0C00A62F099FCDFED077A20EE270AF1E7A5
S315080088B0000084420DF1C6429C1E2143000070420E
S315080088C087A79ABDA30F9043DFED117AB4EEE70AA6
S315080088D0F1EE10FA08B515DAF3EE037AB4EEE70A04
S315080088E0F1EE10FA11D9F2EE047A30EE670A62F068
S315080088F043FC9FED087ADFED087AE0EE077AB0EEE2
S31508008900670A08BD9FED050AFBE79FED050AF8E72C
S31508008910000084428A840A43BC85984300007F434A
S31508008920000000009FED0C7AB4EEC70AF1EE10FACB
S3150800893008B506D89FED097A60EE077AB0EE670AA1
S3150800894008BDDFED070A62F047FC9FED067ADFED0A
S31508008950067AE0EE077AF1E7BD3A473B52B84E4150
S315080089605555D53E3D0A873FAE4761BDDFED117AC5
S3150800897020EE270A60EEA70ABCEEC07A21EE271A77
S3150800898086B08DED017ABCEEE07AFCEEC17A8DED0B
S31508008990027A0020CDED037A9DF8043063F30700D0
S315080089A09DF8083063F30F209DF80C3063F31740E9
S315080089B006B0704700007F43DFED3C7A10B5B0EE95
S315080089C0407A2DED048B20EEA70A9FED399ADFED4C
S315080089D0397A20EE899AA7EE270ADFED377AA7EECD
S315080089E0279ADFED367AA1EE279ADFED357A20EE63
S315080089F0A78ADFED347AA7EE278ADFED337AA1EE70
S31508008A00278ADFED327A82B0A1EE270A0446FFF7FD
S31508008A1089FF2046F0EE408AB0EE490AFFF782FF4A
S31508008A202046B0EE409AB0EE480AFFF77BFFF5EE17
S31508008A30C08AF1EE10FAB0EE401A2DD4F7EE007A9D
S31508008A40F4EE678AF1EE10FA77FEA88AB5EEC09AB8
S31508008A50F1EE10FA23D4F7EE007AB4EE679AF1EE47
S31508008A6010FA37FE899AB5EEC01AF1EE10FA19D443
S31508008A70F7EE007AB4EE671AF1EE10FA37FE811AAD
S31508008A80F0EE490AB0EE680A204602B0BDEC048B47
S31508008A90BDE81040FFF76ABFDFED0D8AD6E79FED08
S31508008AA00C9AE0E79FED0A1AEAE700BF86C9C4BF39
S31508008AB0C520F03F8B6C4F407E1D78BFC3642A3DAE
S31508008AC060E550BED3BC633DC74B873F8048FFBEB9
S31508008AD00000000007EE901A9FED267AF8EE677AF6
S31508008AE010B52DED048B87EE279A82B0B0EE490AB1
S31508008AF00446FFF799FE2046F0EE408AB0EE490A92
S31508008B00FFF7B4FE2046B0EE408AB0EE490AFFF7FA
S31508008B10DBFEFCEEE87A17EE903AFCEEC87A8DF8A2
S31508008B20003017EE903AFCEEC07A8DF8013017EE59
S31508008B30903A8DF8023000990022FF2320467CF0F7
S31508008B40E7F88DF80000C0F30721034610468DF8B4
S31508008B500110BDF80010C3F30743CAB262F3070059
S31508008B60C1F3072161F30F2063F3174002B0BDEC90
S31508008B70048B10BD00401C4606EE902A07EE103AFC
S31508008B80DFED105A07EE901AF8EE666AB8EE477AE5
S31508008B9086EEA56AF8EE677AC7EE256AB7EE001A7A
S31508008BA09FED097A31EE461AC7EE870A31EE661A44
S31508008BB080EEA60A21EE001A20EE060A82B002B05E
S31508008BC0FFF7FABE00FF7F4700007E43F7B50C4665
S31508008BD0074615461E467BF029FF01460B4826F038
S31508008BE061F888B123460221094A1D20CDE90056BD
S31508008BF099F06AF838467BF019FF2B46014622465B
S31508008C000248009626F058F803B0F0BD80550120BA
S31508008C10EBDD0D0807EE901A2DE9F041F8EEE77A3C
S31508008C202DED068BDFED67AADFED679A07EE102AB2
S31508008C3067EEAA7AC7EEA98AF8EEC77A84B087EEF5
S31508008C40A99A80467BF0F6FEB5EEC09A07EE900A22
S31508008C50F1EE10FAF8EEE77A9FED5CAA87EEA98A9C
S31508008C6011D828EE0A8AFCEEC87ACDED017A9DF86D
S31508008C7004301A461946404604B0BDEC068BBDE8DA
S31508008C80F041FFF7A3BFF4EE6A8ADFED517AF1EE01
S31508008C9010FA67FEA88ADFED4F7AC8EEA79AFDEEAE
S31508008CA0E9AAF8EEEA7A18EE100A79EEE79A60F081
S31508008CB057FB044619EE100A0D4660F051FB0246B2
S31508008CC00B4606460F460020434960F0E9F922465E
S31508008CD02B4660F09DFB60F055FE69EE297A08EE9A
S31508008CE0900A17EE900A60F03BFB02460B460020FE
S31508008CF0394960F0D5F922462B4660F089FB60F0C9
S31508008D0041FE09EE100A19EE900A60F029FB0246A8
S31508008D100B460020304960F0C3F932463B4660F006
S31508008D2077FB02460B4600202B4960F0B9F922462C
S31508008D302B4660F06DFB60F025FE1AEE902A07EED2
S31508008D40900A042A36D8DFE802F0030720252C000B
S31508008D50B0EE489AB0EE678A68EE8A8A28EE0A8AE2
S31508008D60FCEEE87A29EE0A9ACDED017AFCEEC87A8D
S31508008D70CDED027AFCEEC97ACDED037A9DF8043082
S31508008D809DF808209DF80C1075E7B0EE689AF0EE8D
S31508008D90678AE1E7F0EE497AB0EE689AF0EE488A1B
S31508008DA0D8E7B0EE487AB0EE679AB0EE688AF0EE89
S31508008DB0478AD1E7F0EE497AB0EE489AB0EE688A6B
S31508008DC0E5E700BF0000B44300007E4300007F4390
S31508008DD000000000000070420000F03F37B50D4665
S31508008DE00446FFF777FEC0F30723C0F307428DF862
S31508008DF004008DF805308DF806202B4602211D202B
S31508008E00074A98F061FF20469DF806309DF8052030
S31508008E109DF8041003B0BDE83040FFF7D7BE00BF89
S31508008E2005DE0D087FB504460B460D46164602219B
S31508008E3000921D200B4A98F047FF20467BF0FAFD6A
S31508008E40334601462A462046FFF796FEC0F30743F7
S31508008E50C0F30722C1B2204604B0BDE87040FFF750
S31508008E60B5BE00BF18DE0D08014822F077B800BF6E
S31508008E70384C012008B500220249034898F0BBFB8C
S31508008E80002008BD05810208E43401200A4608B915
S31508008E90FFF7F0BF0146014898F0CEBBE434012045
S31508008EA008B50222054906481FF05EFBBDE80840E2
S31508008EB00122044904481FF057BB00BFDCDE0D0839
S31508008EC0E4340120D0DE0D08F04A01200122024BCD
S31508008ED083F80421704700BFE434012000210446CA
S31508008EE000B589B01A2201A80091C2F027FB2346D3
S31508008EF0074A1E21684661F00BFF6946054825F0BA
S31508008F0083FD68467BF029FFD0F09AFBC2F0DFF9B3
S31508008F10F4DE0D080ADF0D082DE9F04F0446D0E906
S31508008F200076384B87B0D3F828B0D3F82CA0D3F8FE
S31508008F303490D3F83880D0E90253019303690121AC
S31508008F4002934369304A039383690493C3690020F3
S31508008F5005932E4B1B6898F0B7FE5B46012100204F
S31508008F602B4A98F0B1FE534601210020294A98F071
S31508008F70ABFE4B4601210020274A98F0A5FE434642
S31508008F8001210020254A98F09FFE23460121002052
S31508008F90234A98F099FE00F023FB3B460121002066
S31508008FA0204A98F091FE3346012100201E4A98F087
S31508008FB08BFE2B46012100201C4A98F085FE0121D4
S31508008FC00020019B1A4A98F07FFE01210020029B8F
S31508008FD0184A98F079FE01210020039B164A98F05A
S31508008FE073FE01210020049B144A98F06DFE0121AE
S31508008FF00020059B124A98F067FE00F0F1FAD3F0BC
S3150800900008FEFEE700ED00E06BDF0D08B440012026
S3150800901081DF0D0897DF0D08ADDF0D08C3DF0D08EA
S31508009020D9DF0D08EFDF0D0805E00D081BE00D0878
S3150800903031E00D0847E00D085DE00D0873E00D0806
S3150800904089E00D08024B034A1A607BF087BE00BF11
S31508009050B440012044524148024B034A1A607BF04F
S315080090607DBE00BFB44001204655504D024B034A11
S315080090701A607BF073BE00BFB440012046535542C8
S31508009080024B034A1A607BF069BE00BFB440012058
S3150800909054465355024B034A1A607BF05FBE00BF25
S315080090A0B440012054464353024B034A1A607BF0EE
S315080090B055BE00BFB44001204E4D4244012108B5BB
S315080090C00020064B064A98F0FFFD00F089FAD3F017
S315080090D0A0FD0449044861F027F8FEE79FE00D0863
S315080090E0410A0F083BDF0D0852DF0D0800240D4624
S315080090F000B59BB06022214602A80194C2F01EFA70
S315080091002B466421094A01A861F002FE0121204686
S31508009110074A01AB98F0D8FD00F062FAD3F079FD62
S315080091200449054861F000F8FEE700BFC2E00D08F3
S31508009130410A0F083BDF0D0852DF0D08034B036099
S31508009140034B0B604FF4A073136070475040012027
S31508009150503B0120034B0360034B0B604FF4A07395
S3150800916013607047EC3A0120EC35012000240D46C7
S3150800917000B59BB06022214602A80194C2F0DEF930
S315080091802B466421064A01A861F0C2FD012120464A
S31508009190044A01AB98F098FD00F022FAC2F097F85D
S315080091A0D5E00D08410A0F08024B034A1A607BF006
S315080091B0D5BD7047B4400120474F44572A2108B50A
S315080091C0024800F059F9B5F07DFCFEE7E5E00D0828
S315080091D0024B01211868D3F093B900BF80410120E2
S315080091E00D4BD9889A8889B292B2914211D0D98802
S315080091F09A8889B292B291423DBF9A88D8881B89CB
S31508009200D8882DBF9B8813FA80F0801AC01A80B2BE
S3150800921070470020704700BFB8400120F8B50E46D9
S31508009220074608B9C2F053F8154D2C898C42F9D374
S31508009230FFF7D6FF201A80B286421BD8EB88E8884B
S31508009240E41AA4B2A6422B6815D92246394613FA5F
S3150800925080F0C2F02FF82868321B3919C2F02AF8B4
S31508009260EB8816FA83F12B89B1FBF3F203FB121193
S3150800927089B2E980F8BD3246394613FA80F0EDE73F
S31508009280B840012038B50446D3F0BDFE0121054695
S315080092900846D1F09DFF2846D3F0B0FE0C480D4B8A
S315080092A02146B4F8002100684EF0E6FF4FF0FF3281
S315080092B000210120D3F065F9D3F0A5FE044600216C
S315080092C00120D1F085FF2046BDE83840D3F096BE90
S315080092D0680C0220D1910008002370B5174CC2B063
S315080092E0174DADF804318DF806314FF0FF330022E3
S315080092F0206801A9D3F0EAFB0028F6D19DF806619B
S3150800930001A8FFF7BFFF4EB140F60D23ADF80430B4
S31508009310022301A8ADF80431FFF7B4FF2A6852B159
S31508009320084901A861F028FD0023ADF8040101A849
S315080093302B60FFF7A7FF00231A46D9E7144101203F
S31508009340184101200FE10D082DE9F843DFF8508098
S315080093501E46B8F800901546A3EB09070D4BFFB259
S315080093601C89FFF73DFF241AA4B2A74207D839463D
S3150800937005EB0900FFF752FF0023A8F8003006485E
S3150800938032462946054B00684EF0C4FEBDE8F84350
S31508009390FEF73CBDB8400120680C0220499300083E
S315080093A094B9012070B5204E3468002C3BD14FF497
S315080093B082711E4A0A20D3F015FB1D4D1D4A2860EE
S315080093C021461D48D2F0CFFF1C4B1D4A9C801A60CF
S315080093D04FF4807230601A81DC8008B9C1F077FFDB
S315080093E02B68002BFAD0174C8022174B1749206898
S315080093F04EF090FE8022144B154920684EF08AFEE6
S315080094000B2051F0A3FE0B2051F05AFE1422114BEB
S315080094100521DA640422A3F580531A650E48BDE8CF
S315080094207040B5F06EB970BD8041012024E10D0889
S315080094301441012044E10D08D9920008B8400120E2
S3150800944090DF0120680C02204993000838EF0120BC
S31508009450B8EE01200020015B0000015B08B5FEF7AD
S31508009460D5FC0421034B03F500521165D164DB6C6E
S3150800947008BD00BF0000015B70B50C460546C2B0CA
S3150800948018B94FF0FF3042B070BD4B1EFF2BF8D80D
S315080094900C4E33680BB9FFF785FF00232246294691
S315080094A001A88DF80631C1F005FF4FF0FF331822E9
S315080094B0306801A9ADF80441D3F0D4FA0028E0D108
S315080094C020B2E0E71441012010B50C46C2B00146AF
S315080094D0D0B1631EFF2B17D8224601A8C1F0EAFEB9
S315080094E001230B488DF8063118220023006801A9CC
S315080094F0ADF80441D3F0B6FA10B920B242B010BDA7
S31508009500044A1368013313604FF0FF30F6E700BFD3
S3150800951014410120184101200422F0B52C4B0C46B9
S31508009520074685B01A6500284FD000294DD0FFF7A9
S3150800953057FEA04219D2D3F079FD05462548264E96
S3150800954003AB01A9006802AAB5F02CF83388029982
S315080095508B4207D20198C91A184489B2FFF75EFEF2
S31508009560029B33802846D3F05CFD1C4D2E89B442FD
S3150800957001D9C1F0ACFEFFF733FEA04228BF204652
S31508009580AB8884B2F61AB6B2A6422B68A98817D257
S31508009590324613FA81F13846C1F08CFE2968A21BBF
S315080095A0B819C1F087FEAB882A8914FA83F3B3FB8E
S315080095B0F2F102FB11339BB2AB8020B205B0F0BDCD
S315080095C02246384613FA81F1EBE74FF0FF30F5E70C
S315080095D00010015B680C022094B90120B8400120F4
S315080095E0002330B50B4CC3B00B4DADF804318DF8E4
S315080095F00631002320681A4601A9D3F067FA08B194
S3150800960043B030BDBDF80421286801A94EF08EFB91
S31508009610EFE700BF14410120680C02200A46014604
S3150800962020B11AB1024B18684EF080BB704700BFD4
S31508009630680C022008B5082021F050F818B100235C
S315080096404360014B036008BDB0E10D0808B508206A
S3150800965021F044F818B100234360014B036008BDAC
S31508009660CCE10D08436843B9054B0B6005234B60F5
S31508009670436801334360012070470020704700BFEC
S3150800968068E10D08042370B5144645688AB0ADF83C
S3150800969002302B680A4601A805499E687BF0C9FB7B
S315080096A0224628460DF1020301A9B0470AB070BD4B
S315080096B06EE10D0830B54468134622688BB015690B
S315080096C001A80A4603497BF0B4FB204601A9A8472E
S315080096D00BB030BD7BE10D0830B58DB04468019202
S315080096E023680A4603A80649DD687BF0A2FB042323
S315080096F020460DEB030203A9A8470DB030BD00BFF5
S315080097006EE10D08F0B5A3B0064617A81F460C462D
S31508009710154696F083FF2A2217A80CA996F091FF02
S315080097200DF10B03019315234FF48072009317A8CC
S31508009730002397F0A3F950BB97E80300154B8DE873
S315080097400300D3E9002317A897F070FAF8B9D7E908
S315080097500201114B8DE80300D3E9002317A897F0FF
S3150800976065FAA0B99DF90B1017A897F0BCF970B95E
S315080097707668224633680949DF6803A82B467BF0DA
S3150800978058FB3046BDF874300CAA03A9B84723B075
S31508009790F0BD00BF18E20D0810E20D087BE10D08C8
S315080097A013B5044608460A4B1146C4E9003000239F
S315080097B0C4E903330193036822815B6A01AA9847C7
S315080097C010B9019BC4E90303204602B010BD00BFCF
S315080097D094E10D082DE9F041D0E90332934204469D
S315080097E00D469EB003D300201EB0BDE8F0812A26A0
S315080097F042683B495768ADF802603A68D2F8088073
S31508009800028910A87BF015FB38460DF1020305AA5C
S3150800981010A9C0470028E6D110A896F042FA3246A9
S3150800982005A910A896F080FA4FF480720023152136
S3150800983010A896F012FE0028D5D10DF1010110A846
S3150800984096F045FC0028CED1264BCDE90100D3E998
S315080098500023CDE9030010A896F0F2FD0028C2D136
S3150800986001AE314610A896F0F5FC0028BBD11E4B78
S3150800987010A8D3E9002396F0E3FD0028B3D10DF133
S315080098800C08414610A896F0E5FC0028ABD110A8B4
S3150800989096F0CBFD0028A6D19DF9011010A896F0E8
S315080098A070FD00289FD196E8060004F1140704F11C
S315080098B0250638467BF0E3FA98E8060030467BF042
S315080098C0DEFA3846C1F08BFDC5E900703046C1F0B6
S315080098D086FDC5E90260E36801200133E36083E79A
S315080098E07BE10D0818E20D0810E20D08F8B50546EB
S315080098F00E460024094FAC4206DB1EF095FF0849C8
S3150800990097F003FF0020F8BD1EF08EFF56F82420BE
S31508009910394697F0FAFE0134EDE700BFEA250F084D
S3150800992022E20D08F8B505460E460024064FAC425D
S3150800993001DB0020F8BD56F824303A4602211C20E7
S3150800994098F0C2F90134F2E7410A0F0810B51EF083
S315080099506BFF044694F094F903490246204697F0B3
S31508009960D4FE002010BD00BF20E20D0803220249E4
S3150800997002481EF0F9BD00BF74E20D08F04A012046
S315080099802DE9F04700240646E0B088464FF4BE723B
S31508009990214601A80094C1F0D1FDA64228DD6D46F6
S315080099A04FF0200958F824A05046C1F018FD60ABC6
S315080099B02F189F4202461DD228465146C1F0A0FCE8
S315080099C07D1C60AB9D4204F101042CBF3D4687F81F
S315080099D00090A642E6D108489AF085FB6846CAF088
S315080099E08CFF05489AF081FB002060B0BDE8F0873F
S315080099F02F20FAE71920F8E780B000200122024953
S31508009A0002481EF0B1BD00BFC0E20D08F04A0120B1
S31508009A100122024B83F80421704700BF84410120CC
S31508009A2010B50446054B036000F5CF6098F064FF57
S31508009A3023690BB1C1F04BFC204610BD7CA00E0873
S31508009A4070B504460B4B00F5387503F12C0203601C
S31508009A504C334260836000F11006B54207D055F8D2
S31508009A60080C283D0028F8D02BF0C8FBF5E720465F
S31508009A7070BD00BF2CD90E08A0F10400E0E7A0F1E4
S31508009A800800DDE710B5094B04460360084B836000
S31508009A90006948B143680BB9C1F019FC013B436042
S31508009AA013B903681B6B9847204610BDC0E30D0821
S31508009AB080E50E0810B50446034B40F80C3BFFF74B
S31508009AC0E1FF204610BD00BFE4E30D080022002395
S31508009AD010B5C0E90023C0E90223C0E904230D4BF1
S31508009AE004460021836121226030C1F027FD4FF62C
S31508009AF0FF720023A4F882204FF48072204684F86F
S31508009B008130A4F88420C4F888307BF0A2FA204675
S31508009B1010BD00BF18B50E0800F1080373B504465A
S31508009B200D46036011B91048C0F062FF0846C1F03F
S31508009B3056FC0F2805EB0006019007D9002220469F
S31508009B4001A95FF0ABF8019B2060A3603246294665
S31508009B502068C0F09BFF00212046019B22686360B5
S31508009B60D15402B070BD00BFCCE20D0810B5044652
S31508009B70044B0360406A7BF0F2F9E0687BF0FCFA7C
S31508009B80204610BD70E30D0870B5164605460C460E
S31508009B908CB0114668467BF041FA294630467BF080
S31508009BA0AFF9641B0A4BE4105C43694606A87BF0D0
S31508009BB035FA2246002106AB28467BF01DFB06A88F
S31508009BC0C0F027FF6846C0F024FF0CB070BD00BF88
S31508009BD0ABAAAAAA2DE9F04F4FF0180B0446174670
S31508009BE00E468DB000EB0B08351BB5F5C07F22DDA0
S31508009BF03F4BED105D4367BB4FF01808AF1E7F1053
S31508009C00684608FB07417BF009FA694606A87BF017
S31508009C1005FA20462A46394606AB7BF0EDFA06A831
S31508009C20C0F0F7FE57B96846C0F0F3FE331B182B91
S31508009C30A6F1180607DC0DB0BDE8F08F6846013FAF
S31508009C40C0F0E7FEDCE7324631462046FFF79CFFC8
S31508009C50ECE76D100BFB0545404629467BF0C7FA35
S31508009C60A6F11809C246494660B128467BF0BFFAF4
S31508009C7008B129460BE0494640467BF0B8FA28B1B8
S31508009C80494604E040467BF0B2FA10B34146204606
S31508009C90C0F03CFF3546504621467BF0A8FAD1462F
S31508009CA00AF1180A0028F6D1A5F1180A51462046E5
S31508009CB07BF09DFA5546AAF1180A0028F6D1A9455F
S31508009CC00ED3013F31463A464846FFF783FF4E46D4
S31508009CD08AE7494628467BF08AFA0028C9D0CFE7A2
S31508009CE029464846C0F012FF09F1180AD3E700BF13
S31508009CF0ABAAAAAA2DE9F043884205460E4687B0C4
S31508009D0005D0DFF8608000F11804A64202D107B03A
S31508009D10BDE8F083294620467BF069FA04F1180766
S31508009D20E0B1214668467BF079F9B946641BE41030
S31508009D3008FB04F4002C08DC284669467BF0E0F8AA
S31508009D406846C0F066FE3C46DFE7A9F13001A9F196
S31508009D50180948467BF0D4F8013CEBE720467BF02F
S31508009D60AFFAF0E7ABAAAAAA2DE9F041036886B0D4
S31508009D709B6A0446984701210346394A242097F0EE
S31508009D80A3FF236821466846DB6A9847039E00249A
S31508009D9030460DF10408404505D1324B9C4206DD9C
S31508009DA03148C0F028FEC0F0C9FC0134F3E7182793
S31508009DB067431CB13846B5F0E4FA044625464645DD
S31508009DC02CD1AC4217D0294B2E1BF2105A43B2FAAB
S31508009DD082F2C2F11F02294620465200FFF7FAFE18
S31508009DE0B6F5C07F2ADD04F5C07631462046FFF772
S31508009DF081FFB5421DD12646DFF87480B54222D1CF
S31508009E002646B54227D11CB139462046B5F0C9FACF
S31508009E1002987BF0A4F806B0BDE8F081284606F162
S31508009E2010017BF0BBF83046C0F088FC18350646B2
S31508009E30C5E730467BF044FA1836DAE72946204665
S31508009E40FFF758FFD7E742460121242056F8183B6A
S31508009E5097F03AFFD2E73046C0F0DBFD1836D0E778
S31508009E60FEE20D08555555052FE30D08ABAAAAAA1B
S31508009E7060E30D08F8B50025474C60199035FFF7E3
S31508009E8025FEB5F5347FF8D100254448FFF71EFEB8
S31508009E900026C4E9D855C4E9DA55A4F87053C4F8BD
S31508009EA0745384F8785384F8805384F88253A4F85A
S31508009EB08453002712243A4A3A493748C0F0E0FB4F
S31508009EC0394B3A4A1A6002F12C014C32C3E9022591
S31508009ED059601033102218460021C1F02FFB41F2B9
S31508009EE0A4520346013CC0E90667057442824561EF
S31508009EF0056203F12803EDD1294A2D492A48C0F005
S31508009F00BFFB2C481FF078F8254A2B492948C0F092
S31508009F10B7FB2A482CF01AF9214A29492748C0F0E4
S31508009F20AFFB2848284B1E4A2849C0E9014403606C
S31508009F300473C0F0A5FB2648264B194A036000F1B6
S31508009F400803C0E90433244900F12003234DC0E97E
S31508009F500A330472C460846180F820404462046352
S31508009F6080F834408463C0F08BFB1D4B21462B6080
S31508009F701C4B102205F11800EB60C5E901442C6161
S31508009F80C1F0DCFA184BEC616B612846BDE8F84075
S31508009F90034A1649C0F074BB18360020E83800207A
S31508009FA0D0060220AF500808383300202CD90E08F6
S31508009FB0419A0008882B0020219A0008801A002060
S31508009FC045630308F04201205CE80E08655E030855
S31508009FD0B442012070E30D086D9B00088C420120F5
S31508009FE0E4E30D08C0E30D0880E50E08B59A0008FD
S31508009FF070B5036805460C4616460BB1032070BDBE
S3150800A00002210D20074A97F05FFE0CB92F20F6E7CC
S3150800A01023682046DB6898470028F0D1C5E9004642
S3150800A020EDE700BFF0E30D082DE9F04F074600689D
S3150800A0308BB004680D46646C90461E46A0472D28D2
S3150800A04004460ED048B19F4A9F4B0221A52808BF57
S3150800A05013460D209D4A97F037FE20460BB0BDE803
S3150800A060F08F6B78202B01D10024F6E7984B3868DF
S3150800A070029358B103682A461B6C02A998470446FE
S3150800A08030B1029803689B689847E6E70324F8E727
S3150800A0904FF0000A4FF0000B8E4B0393029803A96A
S3150800A0A00368DB68984730B102210D208A4A97F089
S3150800A0B00BFEA52410E08DF8060003980DF10601A5
S3150800A0C00368DB689847044630B99DF80630402B8C
S3150800A0D006D0802B04D0032403A87BF000FCD0E72D
S3150800A0E06A789A42DAD1012303988DF80730036813
S3150800A0F00DF107015B69984704460028ECD19DF8E5
S3150800A1000730082B18D8002BC8D0013B072BC5D819
S3150800A11001A252F823F000BF51A1000863A100086C
S3150800A1209DA000086FA100089DA000089DA000083A
S3150800A1309DA000088DA10008102BAFD1102E1AD0B3
S3150800A140082EABD84FF48B73F340D807A6D512E088
S3150800A15006F1FF3CDCF1000343EB0C03002B9DD01A
S3150800A16009E0731E012B8CBF00230123F6E7042E9A
S3150800A17001D0012E92D1002303980493036804A901
S3150800A1805B6A9847814648B14C46A5E7082E85D8AC
S3150800A1906FF489733341DC07EDD57FE7049B1BBB5E
S3150800A1A0002303980593036805A99B6B9847814686
S3150800A1B00028E9D1059B002B7FD100248CE74FF0BE
S3150800A1C0FF31C21C994274EB020243D39DF8062064
S3150800A1D0402A80D14FEA134C05F10C0105F1180409
S3150800A1E08C4229D109F10109049B4B457FF656AFEC
S3150800A1F0CDE906AB03984946036806AA9B6A9847C1
S3150800A200044600287FF468AFDDE906306FF0010CDC
S3150800A2105A1E40F1FF3194456FF010028A41CED3A1
S3150800A2209DF80620402A7FF456AFD5E902129042DF
S3150800A23008BF8B42D6D1B3E751F8042F002ACFD0F6
S3150800A240BCEB124FCCD198B20028C9D092B290423A
S3150800A250C6D8A5E713F5803F70F1FF32FFF43BAF90
S3150800A2609DF80620802ADEE70023039806930368F4
S3150800A2704946DB6B06AA9847044600287FF42CAFAC
S3150800A280069BD90704D5D8F800200799914212D120
S3150800A2909A0705D5BDF82010B8F8042091420AD1CE
S3150800A2A05B078AD57868B8F80420036809999B681B
S3150800A2B09847002881D109F10109059B4B45D3D858
S3150800A2C0ECE600BF38E40D080B7A0F080CE40D081D
S3150800A2D0540702205807022029E40D080023F0B588
S3150800A2E08BB0CDE90433054600688DF80D308DF83E
S3150800A2F00E308DF80F3003680DF10D01DB689847B5
S3150800A3000446002840F0C78028680DF10E0103684E
S3150800A3101B6998470446002840F0BD8028680DF15F
S3150800A3200F0103685B6998470446002840F0B3802C
S3150800A330286804A903685B6A98470446002840F021
S3150800A340AA80286805A903689B6B984704460028D5
S3150800A35040F0A1809DF80E30002B00F09E809DF8FD
S3150800A3600D30402B07D0802B40F09E809DF80F3093
S3150800A370102B00F09B802646049BB34207D8002684
S3150800A3804B4F059BA3423AD801200BB0F0BD286875
S3150800A3903146036806AA9B6A9847002879D19DF832
S3150800A3A00D30402B16D1DDE906326FF0010C591E2F
S3150800A3B042F1FF378C456FF01001B94108D24FF0D2
S3150800A3C0FF310332994270EB02020CD39BB253B1B0
S3150800A3D00136D1E7802B06D1069B079A13F5803FF5
S3150800A3E072F1FF32F1E7334B0446002856D00121BB
S3150800A3F00D20314A009497F067FC0020C5E72868CD
S3150800A400069603682146DB6B06AA9847002840D1C2
S3150800A410069B03F0020103F00402DB0710D411B116
S3150800A420F2B1264BE0E7002AFBD0099B03EA0702B4
S3150800A43012F5003FF5D89BB2B3F5404FF1D215E0BF
S3150800A44009B1002AEDD1079B13F5302F4FEA134CBB
S3150800A450E7D2BCF1000F0BD11B0410D56046E0E72C
S3150800A4604FF6FF73BDF820209A42DAD0013488E708
S3150800A47040F2FE3C03F580639BB26345D1D829B10F
S3150800A4804FF6FF73BDF820109942CAD0002ACCD1E6
S3150800A490ECE70B4BA8E70A4BA9E70A4B01210D206D
S3150800A4A0094A97F011FCA8E7084BF7E7084BF5E7C8
S3150800A4B00000FFFF50E40D08A8E40D0860E40D084D
S3150800A4C03FE40D0893E40D08BEE40D0881E40D0889
S3150800A4D06FE40D082DE9F0430546006887B0884605
S3150800A4E01F468DF80F2020B90324204607B0BDE883
S3150800A4F0F083DFF86490AB68CDF81490EBB90026CA
S3150800A5002868394603680DF10F02DB6B9847044645
S3150800A51078B91EB133684B4508BF00260223414669
S3150800A520CDE9006328463B469DF80F207BF012FADA
S3150800A530002405A87BF0D3F9D7E79DF80F303946F4
S3150800A5408DF81330036805AA5C6B0DF11303A04759
S3150800A5500028D4D105AED3E758070220034B186864
S3150800A560034B002808BF1846704700BF0443012064
S3150800A5700843012010B5044602210D20024A97F02F
S3150800A580A3FB024B1C6010BDD0E40D080443012058
S3150800A59010B5094C094922460948C0F071F8224607
S3150800A5A008490948C0F06CF82246BDE8104007493A
S3150800A5B00748C0F065B800BFD0060220AD580808A5
S3150800A5C008430120BF58080858070220C158080840
S3150800A5D0540702200023F7B5CDE900334AB96E4681
S3150800A5E001AB15240E4A013C06D11423036003B0BF
S3150800A5F0F0BD6B4601AEF4E71578002DF5D0557819
S3150800A6008D4206D107683568AF4207D0019D0135EE
S3150800A6100195009D403201350095E4E71B68E5E7A2
S3150800A620E039002007B5019021B10122097801A877
S3150800A630FFF7D0FF019813280AD8064B820103EBCF
S3150800A64080109B5C002B08BF002003B05DF804FB5C
S3150800A6500020FAE7E03900200023152010B5136022
S3150800A660074B013801D1002010BD1C78002CFAD008
S3150800A6705C7840338C4202BF146801341460F0E7FA
S3150800A680E039002000231A4610B50648B3F5A06F36
S3150800A6900A6001D1002010BD4033C45C002CF9D0FB
S3150800A6A00132F3E7A03900200868114B70B59842CB
S3150800A6B00E46154603D303F10C02904214D31B79B8
S3150800A6C0A3B90B4C03689B6898470123002D346097
S3150800A6D0237108BF00234FF00000637118BF2B7861
S3150800A6E0A06018BFA37170BD0446EBE71920FAE70E
S3150800A6F01843012002210D20014A97F0E5BA00BF50
S3150800A70054E50D0838B502210D20074A97F0DCFA02
S3150800A7100024064D60194034B4F5A86F01D1002015
S3150800A72038BD7BF0BBF9F5E77CE50D08E03900207C
S3150800A73038B50B4B0C46984202D30C33984201D3DA
S3150800A740C0F0C5FD85680FCD0FC40FCD0FC40FCD62
S3150800A7500FC495E80F0084E80F00002038BD00BF3D
S3150800A760600702202DE9F041144C1F460E461523BA
S3150800A770A046013B01D119201EE0217871B1403471
S3150800A780F7E763783B70B6B1A4EB0804A41134600C
S3150800A7902A4630463978FFF71DFF0CE02146106837
S3150800A7A0FFF7C6FF054630B9002FEAD11EB1A4EB64
S3150800A7B00804A41134602846BDE8F081E039002079
S3150800A7C0064B984203D303F10C02904204D39B68CC
S3150800A7D00248002B18BF0020704700BF6007022000
S3150800A7E010B50868FFF7ECFF80B18268084B0AB11C
S3150800A7F09A4206D21B784BB9054A7BF096F9002097
S3150800A80010BD03F14004A242F4D2F6E71920F7E797
S3150800A810A039002038B5114A83684BB9104B8360BC
S3150800A8208468944201D0237833B982600A2038BDFF
S3150800A8309342F5D24033F2E743791BB165788379C1
S3150800A8409D42E9D10868FFF7BBFF20B122467BF09D
S3150800A8506CF90020EBE71920E9E700BFE03E00208D
S3150800A860E0390020F0B50E4F84680646BC4205D391
S3150800A87007F140039C4201D20020F0BD3B7863B942
S3150800A880074D0FCC0FC50FCC0FC50FCC0FC594E8DD
S3150800A8900F0085E80F00B760EEE71920EDE700BF67
S3150800A8A0A03900202DE9F0410E4611463046FFF743
S3150800A8B0B9FE0446002842D0224FBB68984202D10E
S3150800A8C03846FFF7CFFFDFF88C80444516D204F1EF
S3150800A8D0400CC4450FD294F8403063B165460FCD9D
S3150800A8E00FC40FCD0FC40FCD0FC495E80F0084E831
S3150800A8F00F006446E9E720467BF0D0F8124CBB68A7
S3150800A90004EB86169E4212D003D2434501D2403B41
S3150800A910BB600E4A93689E4206D8434504D2A342BA
S3150800A9200CBF0023403B93600020BDE8F0817D68A2
S3150800A930286803689B689847054B2B60E9E70A2057
S3150800A940F3E700BF60070220E03900201843012022
S3150800A95058070220E03E00208268054B00219A42F3
S3150800A96003D340339A4238BF11708160704700BFE5
S3150800A970A039002010B5094CD4E8AF3FDB070BD44B
S3150800A9802046A0F0BDF838B1054A06490648BFF08A
S3150800A99077FE2046A0F0B9F8034810BD14430120FD
S3150800A9A0D0060220735B08085C07022010B5084C25
S3150800A9B0084922460020BFF063FE0020064B074ADE
S3150800A9C018711A6006492246BDE81040BFF058BE05
S3150800A9D0D0060220795B08081843012000E60D0816
S3150800A9E01F5C080870B5104ED6E8AF4F14F0010486
S3150800A9F018D13046A0F084F8A0B10C4D0C4A2B466D
S3150800AA0007CA43F8044B83E807004FF6FF722A8209
S3150800AA104FF0FF321846C5E905247BF055FA304653
S3150800AA20A0F073F8014870BD244301202843012093
S3150800AA3094E60D0838B5054604300C467BF044FA12
S3150800AA402A6813461BB9E26001202C600DE098685D
S3150800AA50A16888420ED1197909B1217931B9232023
S3150800AA600121054A97F030F9002038BDD888E188D9
S3150800AA708842F4D0DB68E5E760E60D082DE9FF417A
S3150800AA800A9F884616461D4697F041F9044600284F
S3150800AA903FD0D6E900010026231DD8F80020C4E9D6
S3150800AAA00133C4E906011D4B267323602661226221
S3150800AAB004F1280C95E80F008CE80F002B7C04F1B4
S3150800AAC0480084F838306B8A63876B69E363D5E995
S3150800AAD00623C4E91023124B04F1580519680B68BC
S3150800AAE09B68984700220023C4E9142301AB97E822
S3150800AAF0070083E80700012385E80700A4F87430F7
S3150800AB00084B84F8646084F8686084F86C60A6670B
S3150800AB102360204604B0BDE8F08100BFF0E60D08CA
S3150800AB204409022038E70D08094A08B50260026997
S3150800AB300AB1C0F0CCFB074A011D026082688A424E
S3150800AB40F7D141680029F4D04A604368136008BD0C
S3150800AB50F0E60D08A8E60D0810B50446024B03609A
S3150800AB60FFF7E2FF204610BD38E70D08F7B50C469B
S3150800AB70114B0546196868460B689B689847D4E9DF
S3150800AB801421009B20469F1A019B63EB01067BF06C
S3150800AB907AFD038920469F4276F1000309D27BF0AD
S3150800ABA072FD0430036828462B6000236B6003B0EF
S3150800ABB0F0BD7BF068FDF5E7440902202DE9F04376
S3150800ABC007460E46154698466FF001096FF01004C1
S3150800ABD08BB093F024F8421E41F1FF33914574EB94
S3150800ABE00303F6D300231836CDE904010293304651
S3150800ABF02B46CDF8008004AA02A9FFF73FFF0446BA
S3150800AC0050BB4FF0FF324FF0FF33CDE9062306ABBA
S3150800AC1003900893304603AB1C4A08A9099397F09A
S3150800AC20DEF8039C2CB900233B7038460BB0BDE810
S3150800AC30F083236820461B6898472146304697F0DC
S3150800AC40ACF82B463046CDF8008004AA02A9FFF7D7
S3150800AC5015FF04460028E6D095E80F0004F12806FB
S3150800AC6086E80F002B7C204684F838306B8A638789
S3150800AC706B69E363D5E90623C4E9102301233B7016
S3150800AC8023687C60DB689847CFE700BFED65080856
S3150800AC90084B10B5036018334360044608307BF050
S3150800ACA066FD014620B9606900F5CF6097F03AFE67
S3150800ACB0204610BD80E70D08A0F10400E8E700BFB4
S3150800ACC010B504460221074A0D2096F0FDFFFFF74E
S3150800ACD045FC04F114017AF018FE2046BDE8104040
S3150800ACE08BF053BAA4E70D0800B5084B89B0049356
S3150800ACF0042305930023039204490422009303A81E
S3150800AD008BF0FDF909B05DF804FB00BF94E80D0867
S3150800AD1038B50C46054602210D20084A96F0D4FFA0
S3150800AD20214628468BF043FA044628B9FFF716FC55
S3150800AD3005F114017AF0DBFD204638BDC3E70D089E
S3150800AD4000B50D4B8DB0CDE90631ADF820200023B6
S3150800AD501F22CDE90923012391F83C208DF82C30D8
S3150800AD608DF82D200093024606AB08A902A80CF020
S3150800AD70B5F80DB05DF804FB88E80D082DE9F04F2D
S3150800AD8014460027B9B006461D460397FFF7E6FBAB
S3150800AD902269042A08D8042A10D8DFE812F013001A
S3150800ADA00F00F800210128014FF6FC739A4200F0C3
S3150800ADB023814FF6FD739A4200F0208140F28652B5
S3150800ADC0326064E0904B05A90493904B16A805934E
S3150800ADD07BF01FFE0123284685F844307BF0F6FAFF
S3150800ADE0044600284BD10BA80A9595F017FC88480D
S3150800ADF07BF0EBFD074648B1864FB7F8643907F58F
S3150800AE000B6703F00503052B18BF0027002205234F
S3150800AE10DFF80482CDE908234046CDE906877BF0B2
S3150800AE20D4FD10B906A87BF0E0FD4FF09009089C08
S3150800AE30052C0AD128467BF00EFB00244FF6FF733B
S3150800AE4085F84C40A5F84A3019E009FB048494F8C3
S3150800AE5081A047B138467BF0B8FD20B197F881301C
S3150800AE60534508BF3C4694F88140FFF777FB0068D6
S3150800AE708DF8084088B928467BF0EDFA032405A822
S3150800AE807AF02DFD049803689B6898473460002380
S3150800AE903046337139B0BDE8F08F036802AA1B6CDF
S3150800AEA004A998470446CCB158E0169B8DF808408B
S3150800AEB0186802A903681B6998479DF80830002B93
S3150800AEC063D00A9B93F84530B3B9DDF828A00BA9DF
S3150800AED050469AF808B07BF0E5FAE0B9049805A957
S3150800AEE00368DB68984704460028DED00A2835D16F
S3150800AEF006A87BF07AFD9AE7169B8DF80840186835
S3150800AF0002A903681B6998470A9A9DF80830127ABD
S3150800AF109A42E3D1D9E79AF84630DAF800107BB1BD
S3150800AF20096C4FF480720023CDF800B016A88BF098
S3150800AF3025FC044601460BAA50467BF0CCFAB2E73C
S3150800AF40DAF840300AF1280202A87BF0F9F904463B
S3150800AF5040B1214650460BAA7BF0BDFA28467BF045
S3150800AF607AFA8CE7DAF800300222196C16A8002360
S3150800AF70CDF800B08BF002FC04460028E9D1DAF8D7
S3150800AF80001002A87BF014FAD3E77124E6E70068FC
S3150800AF90002836D003689B6903A99847024600280B
S3150800AFA07FF40EAF0123296885F8443005F128029D
S3150800AFB02B6C16A8039C7BF0C3F9034670B92A6864
S3150800AFC0106CCDE900430222002395F0B9FC034634
S3150800AFD020B9296816A87BF0EBF90346336056E7D3
S3150800AFE0006800283FF4ECAE0368DB69D4E703A9E0
S3150800AFF000687BF0E4FCD1E70397D3E702230393C9
S3150800B000D0E70322DCE600BF5407022058070220D7
S3150800B01010A0002060970020409D00202DE9F041F7
S3150800B020D0F80C80B2B00546DDE938760C46B8F1A2
S3150800B030000F29D041B3402200216846C0F07EFAAD
S3150800B0402378012E8DF83C3002D18DF8146001E08A
S3150800B050022EFAD06378402B19D1D4E90223CDE920
S3150800B060002301238DF80830002F3FD0394610A859
S3150800B0707BF0CFFC10A88BF099FA034680B101212A
S3150800B0800D201C4A96F020FE32B0BDE8F081202B38
S3150800B09001BFA368ADF8103001238DF81230E3E73D
S3150800B0A0BDF8443012AAADF8183007AB07CA83E8D2
S3150800B0B007000AAB15AA07CA83E807009DF860309F
S3150800B0C08DF834301BB19DF861308DF835309DF818
S3150800B0D0623000228DF8363001238DF83830EB685F
S3150800B0E0DB6869461868FFF72BFECDE73A46D8F8BD
S3150800B0F00C30F6E7E6E70D082DE9F84391F83870C5
S3150800B10004460E464FF000080FB191F83980002525
S3150800B11004F10809484694F0C4FD314648462560BE
S3150800B12094F0D4FD84F840700FB184F84180074B41
S3150800B130A4F85050A36484F8905084F8D05084F84A
S3150800B140D85084F8DA502046BDE8F883580702201C
S3150800B1502DE9F04190F9343006460133A6B003D103
S3150800B160002026B0BDE8F0810368002BF8D100F175
S3150800B1700808404695F039F9074630600028EFD1AF
S3150800B180204C0146942201A80094C0F0D7F9B06C6F
S3150800B19004AD03689B6898470FCDB46406F158045C
S3150800B1A0A6F850700FC40FCD0FC40FCD0FC495E885
S3150800B1B00F0014AD84E80F000FCD06F198040FC4F4
S3150800B1C00FCD0FC40FCD0FC495E80F0084E80F000C
S3150800B1D0684686F8D87086F8DA707AF080FB4146B9
S3150800B1E006F148008BF0D8F930600028B8D196F8F7
S3150800B1F040302BB1B06C96F841100368DB6998476C
S3150800B2000120AEE758070220F0B5CFB007460E4634
S3150800B2100D7AFFF7A3F9006838B1036829465B6A17
S3150800B22003AA984718B104461EE00320FBE7FFF778
S3150800B23095F904A900687BF0C2FB0446A0B9BB7B5C
S3150800B240012B00F2838006A894F02BFD22462146A6
S3150800B25006A894F069FD304606A98DF850407BF0A3
S3150800B260EDFB074618B1044620464FB0F0BD9DF9E0
S3150800B2704430013321D1059006A916A8FFF73CFFF3
S3150800B28016A8FFF765FF28BB169C28A8212C2BD1EA
S3150800B2907AF025FB06A916A8FFF72EFF06F1080483
S3150800B2A016A8FFF755FF20BB169C212C4CD0002C66
S3150800B2B04AD028A87AF013FBD6E705A906A895F080
S3150800B2C0FCF80028AFD1DDE904329A42D4D940F21D
S3150800B2D08954C9E728A8FFF701F80028D0D128A87B
S3150800B2E07AF0FDFA2F24BFE77AF0F9FA002CBBD1E1
S3150800B2F0D0E7039BBB420BD9FFF730F928AB009385
S3150800B3002A463B4621467AF085FB58B10446D0E7E3
S3150800B310FFF724F928AB00932A46002321467AF042
S3150800B32030FBF2E70137BBE7013B0393FFF716F95A
S3150800B3302A463146039BFFF7CDF80028E6D1039B42
S3150800B340BB42F1D80024B4E70836F8E7042B2FD11E
S3150800B350039B049A01339342B9D8164BADF86000A3
S3150800B360169301233371337A8DF8A0008DF8E00027
S3150800B3708DF8E8008DF8EA0016AFB3B138463168A3
S3150800B3808BF00AF9044670B9169816F8081F036870
S3150800B390DB699847FFF7E2F823462A4631460097C5
S3150800B3A07AF0EFFA0446384684E740F27E54FAE724
S3150800B3B06C2459E758070220F0B517690E4604466B
S3150800B3C0194685B0BFB902F10800FFF71DFF2F28FF
S3150800B3D0034613D0D82811D00B2819D000228DF88F
S3150800B3E00C20039A2046009231463A468AF004FF1A
S3150800B3F0204605B0F0BD4FF4B163EFE7872501217C
S3150800B4000D20044A009596F05FFC45F4A063E5E735
S3150800B4108925F4E70DE80D08034B53F81C090028A5
S3150800B42018BF1846704700BF6043012008B50C488E
S3150800B43002680AB1BFF04BFF1F21A0F11C0340E9C7
S3150800B44005120849C3E9073240F81C1C483140F880
S3150800B450182C40F80C2C40F8042C40F8081C08BDA1
S3150800B460604301202CE80D087FB5094B1F22019384
S3150800B4704FF00113CDE903230023ADF8080001A915
S3150800B48002A8ADF8143092F00CFC07B05DF804FB86
S3150800B490BCE80D0808B502487BF00BFB08BD00BFE9
S3150800B4A044430120024A03490348BFF0E9B800BFF4
S3150800B4B0D0060220DD6A08084443012000B5084B7F
S3150800B4C089B00493032305930023039204490322B6
S3150800B4D0009303A88AF013FE09B05DF804FB00BFC9
S3150800B4E024E90D0810460249022296F02EBD00BF37
S3150800B4F014E90D087FB516690546022E1C464DD07F
