S02B00002F686F6D652F686164796C69752F776F726B53706163652F73696C6162732F4C692D4261745F4D611D
S3150800600008120020057D0308158B0A083D90000834
S31508006010CFE30B0865900008799000088D9000087A
S31508006020158B0A08158B0A08158B0A08AD760D0814
S31508006030A190000898E50E0851760D08F9B40D08E8
S315080060407D790308158B0A08158B0A08158B0A082B
S31508006050158B0A08158B0A08158B0A08158B0A086A
S31508006060158B0A08158B0A08158B0A08559400081B
S31508006070158B0A08158B0A08158B0A08158B0A084A
S31508006080158B0A08158B0A08158B0A08158B0A083A
S31508006090158B0A08D1580508158B0A08158B0A08A6
S315080060A0158B0A089D5005087D500508158B0A08AA
S315080060B0158B0A087D18080851210808BF6C0D08B9
S315080060C0BB6C0D08C5180808D56C0D08C36C0D08FF
S315080060D021210808C76C0D0891210808F92108082C
S315080060E0158B0A08158B0A08A1910008158B0A0852
S315080060F055D80B08158B0A08158B0A08158B0A083C
S31508006100158B0A08158B0A08158B0A08158B0A08B9
S31508006110158B0A08158B0A08158B0A08158B0A08A9
S31508006120158B0A08158B0A08158B0A08158B0A0899
S31508006130158B0A08158B0A08158B0A08158B0A0889
S31508006140158B0A085D400608158B0A08DDC40D087C
S31508006150AD020808158B0A089F6C0D08A56C0D087A
S31508006160158B0A08158B0A08158B0A08158B0A0859
S31508006180F0B5114A114C124E00F00105E3695F079C
S3150800619013D40DB9334213D103EA00078F4207D14E
S315080061A00B4A1A40002A0CBF00206FF00100F0BD10
S315080061B0013AEBD16FF00200F9E74FF0FF30F6E74E
S315080061C06FF00100F3E700BF8096980000000350C7
S315080061D00200010070B50B4BD96911F480310DD15D
S315080061E001244FF48072084E084DF46020462C6452
S315080061F01A61FFF7C5FF3464EC6070BD6FF00100EB
S31508006200FBE700BF000003500010035000200350B6
S315080062104FF4803238B50E4B0E4C9A66E56941F656
S31508006220713315400122E3630B4B0021DA60022328
S31508006230606121202361FFF7A3FF10B92120FFF732
S315080062409FFF0122054BDA600DB10023E36338BDD9
S315080062500090005000000350001003500020035027
S3150800626070B5134C6061E3695B071ED40E4656F899
S31508006270043B8D18A361AE420BD1042300212120D3
S315080062802361FFF77DFF58B9BDE870402120FFF76D
S3150800629077BF08210846FFF773FF10B1042323616F
S315080062A070BD56F8043BA361E5E74FF0FF30F7E70A
S315080062B0000003502DE9F84315464FF48032184B79
S315080062C089469A6603F51C33DF690646174041F688
S315080062D07132DA63012203F58053DFF84C80DA6005
S315080062E055B9284601220F4BDA601FB10022A3F5E3
S315080062F00053DA63BDE8F88306F5005404EA080497
S31508006300A41BAC4228BF2C46494622463046FFF716
S31508006310A7FF0028E6D12644A1442D1BE0E700BFCD
S31508006320009000500020035000E0FFFF000000002E
S31508006330000000000000000000000000000000004F
S315080063402DE9F04F2DED028B1D4613690646052BE8
S31508006350D5B00BD8013B01220024042B23D8DFE853
S3150800636013F04100290130013F0152014FF6FC723A
S31508006370934212D04FF6FD7293424FF0010340F05C
S31508006380448102200021CDE93E0185F844302846A3
S315080063903EA97FF057FC306086E000230022CDE955
S315080063A03E230123F1E7CB69284685F844202C9340
S315080063B07EF0E2FE0028EED13FA83E9598F0E1FF78
S315080063C03EA92CA884F070F8044628467EF019FFEA
S315080063D02046002CDFD14FF6FF7385F84C40A5F810
S315080063E04A30D8E7D1F81C80284685F844207EF044
S315080063F0C3FE0446002856D113A8129598F0C1FF8B
S3150800640041460AA882F0C3F905232246414600936D
S315080064100EA883F0AEFF27469FED7F8BDFF800A21C
S315080064200EA90AA883F0BCFF044648B928467EF0A0
S31508006430E8FE4FF6FF7385F84C40A5F84A3032E07F
S315080064400AA882F074F98DED228B8DED248B90F8D5
S315080064508190CDE92677CDE91E77ADF880708DF865
S31508006460A0708DF8AC90D0E90023CDE92423B0F8CC
S31508006470823000F16004ADF88030D0E90223202193
S315080064802046CDE92223C4F034F84946CDE9264012
S315080064902CAA4046CDF8B0A092F016FB044658B197
S315080064A028467EF0AEFE346000233371304655B080
S315080064B0BDEC028BBDE8F08F2DAB1E9341230DF189
S315080064C0080B1F933EABCBF8003055235A46494676
S315080064D04046CBF8043092F086FC04460028DFD10B
S315080064E0DBF80430B3B19BE8030001238DF81030C4
S315080064F005AB83E8030004A907A883F0C8FF9DF845
S315080065001C308DF8A0302BB129AB08AA92E80300FD
S3150800651083E803009DF8AC30002B49D0DDF848909D
S3150800652099F8452099F808B00AB19B451AD148460A
S3150800653013A97EF08DFEA8B199F84630D9F8001057
S31508006540A3B1096C4FF480720023CDF800B01EA8E1
S31508006550C1F0D4FF0446014613AA48467EF091FED0
S31508006560002C9DD10AA883F0F0FE59E7D9F84030EF
S3150800657009F1280207A87EF0B9FD044628B121468C
S31508006580484613AA7EF07DFE8AE7D9F80030022233
S31508006590196C1EA80023CDF800B0C1F0AFFF044661
S315080065A00028ECD1D9F8001007A87EF0D7FDD1E76E
S315080065B0712475E70520002185F84420CDE93E01C0
S315080065C0E5E6CB6993F88233CDE93E3401232846C4
S315080065D085F844303EA97FF035FB3471306065E7B5
S315080065E0CB69284685F844202C937EF0C5FD002803
S315080065F07FF4D1AE3FA83E9598F0C3FE3EA92CA8DD
S3150800660084F056F8E0E62B7ADEE78622C0E9002316
S315080066104CE700BFAFF30080000000000000000058
S3150800662058A70E08000000002DE9F04F2DED028B4B
S31508006630083085B00E469146DDF850809AF01AFA71
S315080066400446002800F0A3806F4600259FED548B72
S315080066504FF0010B41F2A45A10AB0FCB87E80F009D
S31508006660514BC4E902552360C4E90455C4E90655EB
S315080066702C3363604D4B04F1500C0FCB84ED108B1B
S31508006680C4E90E5584F8205084F8305084F84850F0
S315080066908CE80F00464B84F860B0A4F862A06566E3
S315080066A0236704F18403C4E92133424B1022C4F85A
S315080066B09830294684ED1A8BC4E91D55C4E9275537
S315080066C084F87C50C4F88C50C4F8A45004F1A8008F
S315080066D0C4F01AF884ED308B84F8B8B0A4F8BAA0E0
S315080066E0C4F8BC5004F1C8009BF02CF84AF6C873ED
S315080066F0C82284ED388B84ED3A8BC4E93C2304F533
S315080067008673C4E94055C4E94333A4F8D45084F8E1
S31508006710D650A4F8D85084F80851C4F814513368F0
S31508006720A3607368E360B3682361F36863613369E0
S31508006730A3617369E361337E84F8203033B104F1D1
S31508006740240306F11C0207CA83E8070096F82830D6
S3150800675084F830300BB1F36A636330467EF0DDFEB1
S31508006760A8B9B9F1000F12D0B8F1000F0FD003CFB6
S315080067703B78C4F8389084F84830012384F800310F
S31508006780231D20646164C4F89080C4F8A4302046B0
S3150800679005B0BDEC028BBDE8F08F00BFAFF30080FB
S315080067A0000000000000000020230E08AC4A01206B
S315080067B09CDA0E0810230E082DE9F04F2DED028BFA
S315080067C000240025CBB09946CDE92E450023CDE916
S315080067D03045CDE934454FF6FF74DFF898A20646F2
S315080067E088461746CDE90C338DF8C8303393CDF873
S315080067F0D8A04894A2B3054600F53474A54206D13C
S315080068000B2420464BB0BDEC028BBDE8F08F284622
S315080068107EF0B1FF08B19035F0E79FED8F8BBDF89C
S315080068205C318DF8C880ADF820318D4B4FF4C871B6
S315080068300E93002309A8CDE909330F93CDF870A06C
S315080068400B9383F01AFE099C14BB0B240BA87EF04D
S3150800685038FD0AA87EF035FD09A87EF032FDD0E79E
S3150800686092F0C2F8044608B9AC24CAE706F53475AE
S3150800687028467DF0C4FAB4F882308DF8C880ADF8A1
S31508006880203121460CA894ED028B92F01AF8CCE739
S315080068904FF4C8710AA883F0F0FDDDF828A0BAF114
S315080068A0000FD2D04FF4C8710BA883F0E6FD0B9AFF
S315080068B0002ACAD04FF4C8734146CDE91332304690
S315080068C010AA1094CDE9113A159392F0EDF8044602
S315080068D00028BBD14146304612AA92F0C7F80446B2
S315080068E00028B3D14146304614AA92F09CF80446D3
S315080068F00028ABD110A916A883F0B5FD12A918A8CF
S3150800690083F0B1FD14A91AA883F0ADFD36AB079341
S3150800691030AB05930DF1B80A34ABCDE903A30DF1FD
S31508006920700B0EAB8DED008BCDF818B002931AAA3A
S3150800693018A916A81BF0BAFF0446002886D10BA88A
S315080069407EF0BFFC0AA87EF0BCFC09A87EF0B9FC64
S31508006950B9F1000F13D1D6F8640300285ED0036896
S315080069609B6898470346D6F86403002B4ED0036805
S315080069705A4641465B699847044688B141E7D9F8C3
S31508006980003048465B699847594692F05AFB08B961
S31508006990C52436E79DF85831CDF8CC908DF82231CC
S315080069A09DF860315146B3FA83F328465B098DF8A2
S315080069B0233192F0EDFA044600287FF422AF2846E8
S315080069C00CA991F0C3FF06F55D7495F881303FB3C5
S315080069D002211120234A9AF02AF8D5E900122B69D8
S315080069E0CDE9012100936B69022111201E4A9AF014
S315080069F01EF820460F991DF071FE034630BB96F827
S31508006A008233013386F882330024FAE60368414666
S31508006A10DB6898470028C3D11024F2E60324F0E681
S31508006A20D5E900121120CDE9002102210F4A99F07B
S31508006A30FEFF20460F991DF051FE03460028E3D0BD
S31508006A40012111200A4A99F0F2FFDDE70121112000
S31508006A50074A99F0ECFFD2E70000000000000000AA
S31508006A6048670E080B660E082B660E086E660E083B
S31508006A70A3660E0858A70E082DE9F0478AB00DF14F
S31508006A800D0301931523064600934FF480720023E5
S31508006A9008460C4698F0A5FEE8B996F89630012205
S31508006AA000932046002398F023FEA0B996F8973065
S31508006AB0022200932046002398F01AFE58B90DF1D9
S31508006AC00E0301931623032200932046002398F011
S31508006AD088FE054610B10AB0BDE8F0874FF01009E8
S31508006AE006F1C8070DF11808102200214046C3F028
S31508006AF00BFE0DF10F03019315234FF480720093DB
S31508006B002046002398F06DFE0028E4D196F89720D9
S31508006B10EBB29A4251D917ED0C7BC44637F828AC2C
S31508006B20A7F12603A7F1160E6246186859680833B6
S31508006B3003C273459446F7D18DED007B04220023EA
S31508006B40204698F0B0FD0028C5D10522002320462E
S31508006B50CDF800A098F0CCFD0028BCD140464946A7
S31508006B6006228DE8030000232046CDE9048998F023
S31508006B700BFF0028AFD120469DF90F1098F066FE4E
S31508006B80013530370028A6D1032DADD120469DF911
S31508006B900E1098F05BFE00289DD1B6F88E300722BD
S31508006BA000932046002398F0A3FD002893D12046A1
S31508006BB09DF90D1098F04AFE8DE782469FED027BFF
S31508006BC0BAE700BFAFF30080000000000000000035
S31508006BD0A0F1840050E700BF054B18680368D9691F
S31508006BE001A3D3E90023084700E0373B015D030012
S31508006BF0040B02200000000037B5A2F079FB04461A
S31508006C0000286ED13A4B1A889B78ADF804208DF887
S31508006C10063031F00FFF32F023FC32F081FB0546D7
S31508006C20344B036032F00CFE284632F015FD00B9ED
S31508006C30FEE72DA3D3E900234FF0FF314FF0FF30D5
S31508006C4031F000FF32F070FB214632F0C9FBA2F0AA
S31508006C5052FB01A832F0C2FC044600B1FEE7264BFF
S31508006C60264A98801860264B98801A60254B264A33
S31508006C7098621A60254A98806FF06300DA6033F0EC
S31508006C8051FD0B2032F09EFB32F0FCFB32F042FB4A
S31508006C9000B9FEE754F0BAFE2046A2F0F0FC08213F
S31508006CA00846A2F0F3FC00B1FEE7A2F0E6FC32F0DB
S31508006CB087FAA2F031FC10211548B7F001FC00B99B
S31508006CC0FEE714491248B7F00DFC00B9FEE710219B
S31508006CD08C20114A54F0D4FA00B1FEE70F48A3F00D
S31508006CE0F6FF03B030BD00BF0AE020FFE203000054
S31508006CF0C5F20E08B1940A0868ED00205CFD012073
S31508006D0038ED002008ED0020DCFC0120F8EC00201E
S31508006D10D48F012025C10D08C48F0120A5600F0856
S31508006D202DE9F04389B0A2F0D4FA00B9FEE75C4D2C
S31508006D302B6803B9FEE701229B8811460DF10B006B
S31508006D408DF80B3032F000FC9DF80B102B680239D9
S31508006D500022186889B232F0F7FB002305930793DF
S31508006D60504B05AE06932B6893F82C208DF814200B
S31508006D701B681C7814F0200414D0A2F082FC0028AA
S31508006D805CD0A2F07EFC61F09FF90B46024640A15A
S31508006D90D1E9000161F03CFB61F0AAFC079B1844AD
S31508006DA00124079032F014FC9DF80B30002848D0D7
S31508006DB0981DC00061F098F937A3D3E9002361F064
S31508006DC0FDF98946804632F003FC61F07DF90B46F1
S31508006DD002464946404661F01BFB61F089FC079B69
S31508006DE018440790A2F07CFA38B132F057FB00201D
S31508006DF0A2F072FA0020A2F076FA29684B6963BB02
S31508006E00A2F08AFA10B3079B274F03F5FA73079384
S31508006E102B681B7EBB7032F03BFBF8702868334644
S31508006E203A462146807932F071FB58B34FF48051C7
S31508006E300020D5F09CF9A2F04EFD23E00798C0305B
S31508006E40AEE70798063300EB4310CAE72B683246CD
S31508006E502146987932F050FBE7E700229620049203
S31508006E600A691A44114BA2F59B7298800392887995
S31508006E7003AA2146009632F057FB0028D6D10120F6
S31508006E80A2F055FA09B0BDE8F08300BFAFF3008061
S31508006E900000000060E366410000000080842E4187
S31508006EA0C08F012020A10700A80B02209C0B0220FE
S31508006EB02DE9F3411E461C4B044683424FF000035E
S31508006EC08B4115460AD216A3D3E9002361F0D0FCFC
S31508006ED01649144602462846A6F051FB144B4EF6B0
S31508006EE06021B4FBF3F203FB1244B4FBF1F34FF455
S31508006EF07A7801FB1344B4FBF8F728460D49009746
S31508006F00A6F03DFB46B1284608FB17420A4902B0DF
S31508006F10BDE8F041A6F033BB02B0BDE8F08100BF82
S31508006F20005C260500000000FF5B26054C230F08C1
S31508006F3080EE3600266B0E0852230F080348044BD2
S31508006F40834202D0034B03B1184770470416022048
S31508006F500416022000000000064B0749C91A8910CA
S31508006F6048BF0131491003D0044B0BB101481847FB
S31508006F70704700BF04160220041602200000000015
S31508006F8010B5064C237843B9FFF7D8FF044B13B165
S31508006F900448AFF300800123237010BD46C00120CA
S31508006FA00000000028B60F0808B5054B1BB10549B7
S31508006FB00548AFF30080BDE80840FFF7CDBF00BF26
S31508006FC0000000003031012028B60F08A3F5803AEA
S31508006FD0704700BF174B002B08BF134B9D46FFF7A2
S31508006FE0F5FF00218B460F461348144A121AC3F0C0
S31508006FF08BFB0E4B002B00D098470D4B002B00D077
S3150800700098470020002104000D000D48002802D0F2
S315080070100C48C3F015FB61F039FF20002900B7F0D2
S31508007020F4F902F0C7F800BF0000080000000000ED
S315080070300000000008120020081200208006022026
S3150800704041A60C080000000008B5154B4FF4E47281
S3150800705000211846C3F058FB092203460261426123
S315080070601048114A98614FF48061DA61002219626A
S315080070709A625A62DA62C3F8F0000C48C3F8F40060
S31508007080C3F8F8100A49C3F80021C3F8FC20C3F86E
S31508007090042111F8010D98540132102AF9D108BDBE
S315080070A04831012068C80D0847C4012047C001209F
S315080070B081C80D082DE9F84FDFF88880824698F8D0
S315080070C000308946532B164601D0FFF7BDFF182717
S315080070D007FB0A87D7F80051D7F8FCB05D452FD9CA
S315080070E0D7F8F840D7F8F410641BB44228BF3446E2
S315080070F0484629442246C3F0C3F9D7F8F830254450
S31508007100AB4208BF0025A144361BABEB050B5E4519
S3150800711028BF5E465EB1182303FB0A83D3F8F41032
S31508007120324629444846C3F0ABF93444354424B1C1
S31508007130182303FB0A88C8F800512046BDE8F88FD3
S315080071400024E2E748310120F8B5182700FB077547
S31508007150124B0E461D4407FB0033DB6A1446012B0F
S315080071600AD0022B14D023B928467CF09BFA844215
S3150800717008D900242046F8BD28467CF093FA8442B4
S3150800718028BF04462246314628467CF094FAF1E7A1
S315080071902846BDE8F8407CF0A9BA00BF483101206E
S315080071A0F8B50B4B04461B780D46532B164601D0F3
S315080071B0FFF74AFFEFF311874FF0200181F311889B
S315080071C0324629462046FFF7BFFF87F31188F8BDE8
S315080071D0483101202DE9F041164C1E462378054614
S315080071E0532B8846174601D0FFF72EFF082D1DD8CA
S315080071F0EFF3118C4FF0200181F3118865B1182047
S3150800720005FB000344F80380E2180023576000FBDF
S315080072100542166293625362182303FB0544069BD4
S31508007220E3628CF311880020BDE8F0814FF0FF304F
S31508007230FAE700BF483101202DE9F843174E1F46EB
S3150800724033780546532B8946904601D0FFF7FCFE56
S31508007250082D1FD8EFF311824FF0200181F3118812
S315080072606DB11824002304FB0564C4F8F090C4F833
S31508007270F480C4F8F870C4F80031C4F8FC30182358
S3150800728003FB0566089BC6F8043182F311880020C3
S31508007290BDE8F8834FF0FF30FAE700BF4831012018
S315080072A0024B1B780BB100230373704748C80120B3
S315080072B002211D20014A99F0BABB00BF82C80D08F9
S315080072C002211D20014A99F0B2BB00BF92C80D08E1
S315080072D002211D20014A99F0AABB00BFA1C80D08CA
S315080072E070B5037C0446FE2B22D0FF2B30D00B2B27
S315080072F037D80B2B35D8DFE803F0061206343434BA
S315080073003434343434129AF062FA036841F288311C
S315080073105D692346164AAC46BDE8704060479AF058
S3150800732056FA036842F210715D69114A2346F2E77C
S315080073309AF04DFA036822465B6A0D4998479AF017
S3150800734046FA03684FF47A715D69094A2346E2E70B
S315080073509AF03DFA03682246BDE870405B6A044924
S3150800736018470221BDE870401D20024A99F05FBB0C
S31508007370D1720008BBC80D0848F2040210B503888C
S3150800738093420DD006D803F5FF437F339BB2012BFA
S315080073900AD910BD48F212029342FAD10F4A0CE0FC
S315080073A0027A0F4B1A70F4E790F90830012B03D0D4
S315080073B090F90930012BECD10A4A0221212099F0D3
S315080073C036FB9AF004FA036840F6B8315C69064A57
S315080073D0A446BDE810400023604700BFF8C80D0862
S315080073E048C80120D0C80D087B37080808B59BF0A7
S315080073F00FFE23F0FDFB23F02DFC094826F0D2FDF5
S3150800740000224FF4617107488EF0B4F930B1BDE837
S31508007410084001212120044A99F009BB08BD00BF94
S3150800742080B00020A8A3002034C90D0810B500229A
S315080074300C46134813499BF093FE18210A20124A5A
S31508007440D4F0EAFB114B186040B921200121104AFB
S3150800745099F0EDFA40F201707CF052FB20460D4A95
S315080074600A49D4F09AF840B9212001210A4A99F02C
S31508007470DEFA40F202707CF043FB002010BD00BF2C
S31508007480B0BF002079730008B4CB0D083C34012046
S3150800749062C90D0890CB0D0885C90D0810B5054BB6
S315080074A0054C187020469BF086FB2046BDE8104028
S315080074B09BF0D9BB48C8012080B0002008B50C480D
S315080074C09BF08DFE58B10B489BF075FB09489BF065
S315080074D0CAFB094825F078FA05489BF089FE074B50
S315080074E0186818B1BDE8084000F0C2B908BD00BF69
S315080074F0B0BF002080B0002028550120203301208D
S31508007500014608B54FF47A7200238002890D61F0AE
S31508007510AFF9094B01461868D4F0C4F950B12120D7
S315080075200121064A99F083FABDE8084040F2057041
S315080075307CF0E6BA08BD00BF443401209FC90D0897
S3150800754008B5074A40F6B8330221212099F06FFAA8
S3150800755040F6B830FFF7D4FF0122024B1A7008BD77
S31508007560B8C90D0847C8012008B5094B0A2118688B
S31508007570D4F098F950B121200121064A99F057FA1A
S31508007580BDE8084040F205707CF0BABA08BD00BFF5
S3150800759040340120F7C90D0810B5044686B00948DD
S315080075A099F068FA60B10023CDE903330293064BDC
S315080075B0214601930223054A0093054B07F00CF870
S315080075C006B010BD24330120E1720008B17200082C
S315080075D0C172000808B5094B0146186858B100235E
S315080075E01822D4F059FB40B1054A0121BDE80840EC
S315080075F0212099F01CBA034AF7E708BD3C3401205C
S315080076000FCA0D083CCA0D087FB50223ADF8003035
S31508007610044B019068460293FFF7DCFF07B05DF85C
S3150800762004FB00BF557600088B68084603B1184767
S3150800763002212120014A99F0FAB900BF5DCA0D0856
S3150800764000220249024827F059BD00BF21780008E8
S31508007650B0BF00200388022B06D1044B1B780BB958
S31508007660FFF76EBFFFF7ECBF704700BF47C80120A2
S3150800767000220249024827F041BD00BFED73000809
S31508007680B0BF002010B5A4B003AB0193812301ACB1
S31508007690029363F0F1FA214663F0FAFF28B994E8F9
S315080076A003002DF01BFB24B010BD01212120024A46
S315080076B099F0BDF9F7E700BF8DCA0D080023024609
S315080076C0194610B504462048CFF030FE1F4B186007
S315080076D040B9212001211E4A99F0A9F940F2047007
S315080076E07CF00EFA0023224601211A48CFF01EFE2E
S315080076F0194B186040B921200121184A99F097F9C9
S3150800770040F204707CF0FCF902212120144B154A42
S3150800771099F08DF90221144A0123212099F087F95D
S3150800772028F0D2F80368DB6F98470120FFF7AAFF15
S3150800773001F0B2FB0D489BF088FA0D4B0D49187005
S315080077400D4891F0F2F910BD09760008443401207D
S31508007750A5CA0D08B737080840340120BFCA0D0866
S31508007760BA330E08D9CA0D08FDCA0D0880B0002024
S3150800777048C8012014330120409D002038B505462D
S31508007780FFF79CFF044638B10C4827F039F9204624
S315080077907CF0B6F9204638BD2B6828469B68984782
S315080077A0044608B10648F0E7064B1A6852F8640C16
S315080077B01A581844526C9047ECE700BF1ACB0D08CC
S315080077C02CCB0D0880550120482337B50E4A0F4C9F
S315080077D0A2F118050093111D0123284699F034F9E2
S315080077E0224628460A49C2F031F8002322460948AB
S315080077F00949C0E90233094B03603033436003B0DB
S31508007800BDE83040C2F022B83C330120900802207F
S3150800781093370808103301207537080848CB0D0838
S3150800782010B50121094827F05BFA20B163F024FA64
S315080078300121C3F0AAF8064827F0B8FB28F044F857
S31508007840BDE8104003689B6F184700BF80550120AC
S31508007850B0BF002010B504460178044827F074FA32
S31508007860A37883F00103A37010BD00BF80550120E3
S3150800787073B503690446E3B14369D3B10E4B684651
S3150800788019680B681B699847D4E90423DDE9006584
S31508007890A178002918BF1346D4E902125B1842F1F1
S315080078A00002B342AA4104D22046FFF7D3FFC4E937
S315080078B0026502B070BD00BF040B022038B5002374
S315080078C00022C0E90433002304460D46C0E902231A
S315080078D00278024827F028FAA57038BD805501209D
S315080078E001489BF0B3BA00BF80B0002001489BF066
S315080078F0AFBA00BF80B00020044A08B583680260AA
S31508007900243242600BB1C2F0C8FD08BD00CD0D0897
S31508007910A0F10400F0E700BF10B50446054B03606C
S315080079204433436014F014F92046FFF7E5FF204678
S3150800793010BD00BF682B0E08A0F10400ECE700BFDD
S3150800794038B5124B044603F13802C26003F14C0203
S31508007950026103F160024261426803607433836125
S315080079603AB183682BB1536042681A600023C0E9B4
S31508007970013304F14405284686F076FC28467BF058
S3150800798042FF201D7BF03FFF204638BD48EE0D081C
S31508007990A0F11400D4E7A0F11000D1E7A0F10C0083
S315080079A0CEE7A0F11800CBE71F2008B502210C4A44
S315080079B099F03DF80B4826F0EFFA78B90121094805
S315080079C025F046FF50B9084881F076FC1F200221B1
S315080079D0064A99F02CF803489BF036FA08BD00BF12
S315080079E0CCCB0D0880B0002058150020EACB0D0836
S315080079F0F8B51E4C002526461D4F1E481E4B3A4616
S31508007A001E49C0E901550360C560057445610583D3
S31508007A10C1F01CFF1A4B294646F8D83B3246234686
S31508007A2004F1080008F06AF804F12003C4E93435C3
S31508007A30144B3A46C4F8D830134B2046C4E93836B6
S31508007A4004F1F403C4E93B3541F20A430F4984F8CB
S31508007A50E85084F8F451A4F8DC30C1F0F7FE3A4651
S31508007A60BDE8F8400A490B48C1F0F0BE5815002099
S31508007A70900802205434012040AA0E08C9CE0208F4
S31508007A8010ED0D0824960E0808960E085D380808AD
S31508007A9003380808E40802207FB5044602211F209F
S31508007AA0854A98F0C4FF234602211F20834A98F08E
S31508007AB0BEFF834D02211F207F4A98F0B8FF02219E
S31508007AC01F20804A98F0B3FF2B784BB9284627F039
S31508007AD0C3FB00280CBF012300232B7040F0E58070
S31508007AE02146794824F06AFF63F0C6F80446C2F0D6
S31508007AF034FF002840F0D980201D22F023F904F134
S31508007B00080022F0ADF82046C2F03CFF6F4A704BE1
S31508007B100221002818BF13461F206E4A98F087FFD7
S31508007B20FFF742FF002840F0C0806B4B039001939B
S31508007B306A4B6B4802939BF03CF86A4C039001AB86
S31508007B406948236327F034F9002840F0AE80674877
S31508007B509BF040FB664DD5E8AF3FDA070BD42846C5
S31508007B60A1F081FE38B1634A63496448C1F06EFEEC
S31508007B702846A1F07DFE624DD5E8AF3FDB070FD45E
S31508007B802846A1F070FE58B15C495E4814F044F8E6
S31508007B90584A5D495B48C1F059FE2846A1F068FE7F
S31508007BA05A4D584B2846236425F098F92369A5634E
S31508007BB01BB9574B574A23615A60E36B53BB564D63
S31508007BC06B68002B70D105F1140026697BF064FE02
S31508007BD005F11C007BF060FEEB6803B92B7295F883
S31508007BE034304E4823F0050385F834307BF054FED4
S31508007BF04B487BF051FE95F834304A4823F0180379
S31508007C0085F834307BF048FE00236E602B7285F8C9
S31508007C103430E563236C0BB9434B2364434D444B23
S31508007C2028462169636292F0EEF9636A28462B6159
S31508007C3091F0BFFB002838D122692562002A36D088
S31508007C403C4B3D4D5A60636102F090FE3B4B02216E
S31508007C50A0623B4A2120E36298F0E9FE28462169A2
S31508007C6016F082FA08BB2069A56195F02AFC354B07
S31508007C70216960643448236099F06EFD324822F029
S31508007C8051F81849314815F0EBFD044617489BF0A2
S31508007C90AFFA3CB92E4826F0B3FE144827F06EFA20
S31508007CA0044630B1204600E0032004B070BD2F2002
S31508007CB0FBE700F0AFF8F5E714CC0D0847CC0D0844
S31508007CC0A8BF002053CC0D082855012003CC0D0869
S31508007CD00BCC0D0863CC0D08E1780008ED78000898
S31508007CE080B000209808022080550120B0BF0020EF
S31508007CF04C34012090080220053808089408022010
S31508007D00483401200812002019790008543401204B
S31508007D108409022006FB0120184901203C4901205C
S31508007D204449012024490120C8730020AC4601209B
S31508007D3064090220A4460120684601206809022039
S31508007D4075CC0D0810330120E40802206077002066
S31508007D50A5CC0D0810B51348FFF79EFE08B17BF0B9
S31508007D60CFFE11489BF036FA62F086FF00B10C3060
S31508007D701AF010FB0C489BF03BFA1F2002210B4A15
S31508007D8098F055FE0A485EF0ADFC08B17BF0B8FEE7
S31508007D90084C2068D3F075FC08B1C2F07EFB206061
S31508007DA010BD00BFCACC0D08B0BF0020D3CC0D084B
S31508007DB09CA701205034012010B50A489BF0A6F96B
S31508007DC00021094A0948D3F0E8FB094C0221206042
S31508007DD0084A1F2098F02BFE23680BB9C2F05DFBFA
S31508007DE010BD00BF805501203CCD0D08557D00080B
S31508007DF050340120E5CC0D08014820F081BC00BFB5
S31508007E00F04A0120024B01211868D3F093BC00BF49
S31508007E107034012010B50A4820F0C4FB044608B1A6
S31508007E20C2F03BFB01F09EFD01F0E4FD2146054A48
S31508007E300548D3F0B2FB054B18600028F0D010BDFA
S31508007E40F04A012068CD0D08F97D0008703401203C
S31508007E5010B5044601210C20064A98F0E8FD0023D7
S31508007E60E068A36020B1BDE8104003689B68184726
S31508007E7010BD00BF8CCD0D08A0F10400E8E700BFD7
S31508007E8010B50A4CD4E8AF3FDB070DD42046A1F065
S31508007E90EAFC48B10648074B074A08490360C1F09F
S31508007EA0D5FC2046A1F0E4FC014810BDD8340120D9
S31508007EB0DC340120E48E0E0890080220C738080832
S31508007EC010B504460B4B03606433436000F50E702F
S31508007ED02DF0C4FF636A23B1002204F11C0062621C
S31508007EE09847236923B1002204F1080022619847C4
S31508007EF0204610BDC0010E08A0F10400E0E700BF4F
S31508007F0010B50446034B40F8343B7BF0F2FC2046A0
S31508007F1010BD00BFBCFD0D0837B5C0680D46144638
S31508007F2038B901210C200E4A98F081FD002003B0D3
S31508007F3030BD1A682146019200221A6001AA0AF089
S31508007F40CDF801A87BF0D5FCA38823B9E38813B93B
S31508007F502378402BEAD02B8943F040032B81E5E7B1
S31508007F609FCD0D08A0F10400D6E700BF73B51648EB
S31508007F700AF070FA1549164AD1F8AC34154E164D62
S31508007F805360A1F5405133460F4800950AF03EFB71
S31508007F90124B336125F07CFA044602460A493046FC
S31508007FA00BF070FA2946204625F006F940B10C4830
S31508007FB026F026FD6D210B4B0B4A0C4861F05EFC42
S31508007FC06C6002B070BD00BF3018002060A70020AA
S31508007FD00C090220EC0802205017002080510100ED
S31508007FE0D2CD0D08EECD0D0803CE0D0821CE0D0815
S31508007FF070B500243248334B334E03606433436014
S3150800800000F10803C0E90233304BC0E9044083613C
S3150800801000F11C03C0E907332D4BC0E90940C0E94C
S315080080200B342C4BC0E90D44436420338364052389
S31508008030C0E92044C0E92244C0E9644480F83C40D1
S31508008040046480F8744080F89841C0F89C4180F830
S31508008050A04180F8B84180F8D04180F8E841C0F8DE
S315080080601C321D4B32461D491D4DC0F83832C0E939
S315080080708F4480F80042C0F8184280F8204280F801
S315080080804442C1F0E3FB324616491748C1F0DEFB0D
S31508008090324616491648C1F0D9FB2846154B6C607E
S315080080A040F8103B2C7227F047FCC5E93444C5E973
S315080080B0364432462846BDE870400F49C1F0C6BB73
S315080080C030180020C0010E08900802205D30010813
S315080080D0D5240108A8CE0D089CDA0E08C17E000832
S315080080E050170020DB3808080C090220DD3808087C
S315080080F0EC080220BCFD0D08017F0008012903BF1A
S31508008100034B00201B78A62008BF1370704700BFDA
S3150800811059E10120022938B514461D460FD12022FF
S3150800812000210848C2F0F0FA3CB1202D2A46214623
S3150800813028BF20220348C2F0A3F9002038BDA62094
S31508008140FCE700BF39E10120104608B56AB163B102
S3150800815002290CD1202B28BF20231A46029B054949
S315080081601A60C2F08DF9002008BD2F20FCE7A62072
S31508008170FAE700BF39E10120012905D102B11278D9
S31508008180024B00201A707047A620704759E101205B
S315080081902DE9F0431D46002389B0074608460E46DA
S315080081A01446CDE9053327F041F918B9D82009B0A6
S315080081B0BDE8F083304605A927F004FA0028F6D171
S315080081C0204627F033F90028F0D0204606A927F0E4
S315080081D0F9F90028EBD1DDE90586079007A91248C9
S315080081E027F0F0F90446D8B9079B18EB030902D122
S315080081F00EB1C2F052F9009302213B461F20CDE989
S3150800820001860A4A98F013FC6B689E420AD83246E1
S3150800821049462868C2F05EFA6B689E42E9D86E60E5
S315080082202046C4E71924FBE72172080018CF0D0879
S31508008230014827F017BB00BF00720800002307B5E6
S315080082400348019301AB27F011FA03B05DF804FB6C
S3150800825000720800014827F0C1BA00BF0C72080076
S3150800826010B506480C4627F081F940F201239842DA
S3150800827002BF4FF6F1732380002010BD0C72080070
S31508008280014827F0EFBA00BF0D72080073B5002643
S3150800829001AB0C480C461546019627F0E7F940F263
S315080082A00123984208D14CB1062D09D92046294602
S315080082B0054A7BF094FB304602B070BD0B20FBE705
S315080082C01920F9E70D72080036CF0D08014827F086
S315080082D085BA00BF0B72080010B506480C4627F091
S315080082E045F940F20123984202BF48F2050323806C
S315080082F0002010BD0B720800014827F0B3BA00BF72
S315080083000E72080073B5002601AB0C480C461546DC
S31508008310019627F0ABF940F20123984208D14CB1F7
S31508008320062D09D920462946054A7BF058FB3046D2
S3150800833002B070BD0B20FBE71920F9E70E720800A2
S315080083403DCF0D08014827F08DBA00BF107208000E
S31508008350002307B50348019301AB27F087F903B05B
S315080083605DF804FB10720800014827F07BBA00BFCD
S3150800837011720800002307B50348019301AB27F0E3
S3150800838075F903B05DF804FB11720800014827F07F
S3150800839069BA00BF12720800002307B503480193A3
S315080083A001AB27F063F903B05DF804FB127208000D
S315080083B0014827F013BA00BF1872080010B506481E
S315080083C00C4627F0D3F840F20123984202BF012356
S315080083D02380002010BD00BF18720800014827F04E
S315080083E041BA00BF0F72080073B5002601AB0C48EE
S315080083F00C461546019627F039F940F201239842B2
S3150800840008D14CB10C2D09D920462946054A7BF0DE
S31508008410E6FA304602B070BD0B20FBE71920F9E7F3
S315080084200F72080047CF0D08014827F01BBA00BF96
S3150800843004720800014827F019B900BF0472080041
S31508008440014827F029BA00BF1F72080007B50020A7
S315080084500090034827F060F903B05DF804FB00BFFD
S315080084601F720800014827F0B9B900BF0772080053
S3150800847013B510480C4627F079F840F201229042CD
S31508008480034604D14FF47063238000230FE070B9CC
S315080084902388B3F5805FF8D34FF4C2732F240121E4
S315080084A0CDE90034044A054B98F0C1FA234618462C
S315080084B002B010BD0772080074CF0D0854CF0D081E
S315080084C0014827F0A3B900BF0872080010B506488E
S315080084D00C4627F077F840F20123984202BF4FF482
S315080084E07A732360002010BD08720800014827F03F
S315080084F0B9B900BF09720800014827F0B7B800BF2C
S3150800850009720800014827F0ADB900BF0A720800D1
S31508008510014827F0ABB800BF0A7208000B4610B531
S31508008520084A0C4608480949FFF732FED82807D1F9
S3150800853019F0BCFF03682146BDE810409B68184740
S3150800854010BD00BF2772080085CF0D0826720800E7
S315080085500B4610B5084A0C4608480949FFF718FEA5
S31508008560D82807D119F0A2FF03682146BDE81040B4
S315080085705B69184710BD00BF25720800A1CF0D081A
S31508008580247208000B4610B5084A0C4608480949E3
S31508008590FFF7FEFDD82807D119F088FF03682146A2
S315080085A0BDE810401B69184710BD00BF23720800BC
S315080085B0C7CF0D0822720800022307B501A8D1E922
S315080085C00012019362F07AFA18B90199024827F065
S315080085D01DF903B05DF804FB207208001FB50220E0
S315080085E003900698009003A862F080FA18B90399D8
S315080085F0024827F00BF905B05DF804FB2072080065
S31508008600002370B5164886B00D461646049326F024
S315080086100DFFE8B1124804A926F0D4FFB0B9049BAF
S315080086203246002B08BF0223294605A8059362F0A7
S31508008630C5FA0446029073681F2001936B680221ED
S315080086400093084A049B98F0F2F9204606B070BDDC
S3150800865019F02CFF0368324629469B699847E8E7D4
S3150800866020720800E0CF0D08014827F0CFB800BFF8
S3150800867021720800014826F0A5BF00BF2172080034
S31508008680014827F0EFB800BF29720800014826F014
S31508008690EDBF00BF29720800014827F0FDB800BFEA
S315080086A00572080007B500200090034827F034F843
S315080086B003B05DF804FB00BF05720800014827F007
S315080086C075B800BF28720800014826F023BF00BF0E
S315080086D0287208000020094B10B5186032B9084CFA
S315080086E02146BDE81040074827F090B8A1F500518B
S315080086F005488C189AF01BFDF2E700BFE03401200C
S3150800870000E01708217208008055012000232DE992
S31508008710F04F85B080460F462C4803A915460393AB
S3150800872026F050FF002838D1294E039933681BB923
S3150800873028489AF0DDFC80BBD5E900143368039A13
S3150800874002EB030B14F003031BD10A4623465946D2
S3150800875020489AF0D3FC00BB4046316827F056F80B
S31508008760D8B93846696827F051F8B0B932686B68E5
S315080087700020134413F03F021CBF40339B1A33609A
S315080087800BE004F1040AAAEB030A5046019121F012
S31508008790A1FF0199814618B9AC2005B0BDE8F08F54
S315080087A02246C1F06DFEAAEB0402FF2109EB040084
S315080087B0C1F0AAFF53464A46594606489AF09EFC17
S315080087C00446484621F0AAFF2046C4E7217208005D
S315080087D0E03401208055012008B50A4602480349BD
S315080087E0FFF794FF08BD00BF227208002372080035
S315080087F008B50A4602480349FFF788FF08BD00BFC7
S31508008800247208002572080008B50A46024803497A
S31508008810FFF77CFF08BD00BF267208002772080014
S31508008820DFED0B7AB4EEE70AF1EE10FA08B50CD9CB
S31508008830DFED087ADFED080A30EE670A61F0A2FB81
S31508008840DFED067A20EE270A08BD9FED050AFBE74D
S315080088500000844200007042D46608BE70D9A44362
S3150800886000007F439FED107AB4EEC70AF1EE10FAC6
S31508008870F0EE407A08B50AD861F054FB9FED0B7A02
S31508008880DFED0B7AE0EE077AB0EE670A08BD9FEDDA
S31508008890090ADFED090A37EEC00A61F073FBDFED5E
S315080088A0077A20EE270AF1E7000084420DF1C64256
S315080088B09C1E21430000704287A79ABDA30F9043D0
S315080088C0DFED117AB4EEE70AF1EE10FA08B515DA1B
S315080088D0F3EE037AB4EEE70AF1EE10FA11D9F2EEE6
S315080088E0047A30EE670A61F01DFB9FED087ADFED2A
S315080088F0087AE0EE077AB0EE670A08BD9FED050A2A
S31508008900FBE79FED050AF8E7000084428A840A43DC
S31508008910BC85984300007F43000000009FED0C7A59
S31508008920B4EEC70AF1EE10FA08B506D89FED097A33
S3150800893060EE077AB0EE670A08BDDFED070A61F058
S3150800894021FB9FED067ADFED067AE0EE077AF1E77E
S31508008950BD3A473B52B84E415555D53E3D0A873F2D
S31508008960AE4761BDDFED117A20EE270A60EEA70A51
S31508008970BCEEC07A21EE271A86B08DED017ABCEEE0
S31508008980E07AFCEEC17A8DED027A0020CDED037A0D
S315080089909DF8043063F307009DF8083063F30F2051
S315080089A09DF80C3063F3174006B0704700007F430C
S315080089B0DFED3C7A10B5B0EE407A2DED048B20EE53
S315080089C0A70A9FED399ADFED397A20EE899AA7EE44
S315080089D0270ADFED377AA7EE279ADFED367AA1EE7A
S315080089E0279ADFED357A20EEA78ADFED347AA7EEEF
S315080089F0278ADFED337AA1EE278ADFED327A82B055
S31508008A00A1EE270A0446FFF789FF2046F0EE408AC2
S31508008A10B0EE490AFFF782FF2046B0EE409AB0EE64
S31508008A20480AFFF77BFFF5EEC08AF1EE10FAB0EEC2
S31508008A30401A2DD4F7EE007AF4EE678AF1EE10FAB2
S31508008A4077FEA88AB5EEC09AF1EE10FA23D4F7EEAF
S31508008A50007AB4EE679AF1EE10FA37FE899AB5EE07
S31508008A60C01AF1EE10FA19D4F7EE007AB4EE671AC6
S31508008A70F1EE10FA37FE811AF0EE490AB0EE680AEE
S31508008A80204602B0BDEC048BBDE81040FFF76ABF74
S31508008A90DFED0D8AD6E79FED0C9AE0E79FED0A1AFF
S31508008AA0EAE700BF86C9C4BFC520F03F8B6C4F40BC
S31508008AB07E1D78BFC3642A3D60E550BED3BC633DC6
S31508008AC0C74B873F8048FFBE0000000007EE901A9C
S31508008AD09FED267AF8EE677A10B52DED048B87EEB2
S31508008AE0279A82B0B0EE490A0446FFF799FE204657
S31508008AF0F0EE408AB0EE490AFFF7B4FE2046B0EE23
S31508008B00408AB0EE490AFFF7DBFEFCEEE87A17EE7C
S31508008B10903AFCEEC87A8DF8003017EE903AFCEEE3
S31508008B20C07A8DF8013017EE903A8DF80230009928
S31508008B300022FF2320467AF0C1FF8DF80000C0F31B
S31508008B400721034610468DF80110BDF80010C3F33F
S31508008B500743CAB262F30700C1F3072161F30F2086
S31508008B6063F3174002B0BDEC048B10BD00401C46F1
S31508008B7006EE902A07EE103ADFED105A07EE901A25
S31508008B80F8EE666AB8EE477A86EEA56AF8EE677A70
S31508008B90C7EE256AB7EE001A9FED097A31EE461A36
S31508008BA0C7EE870A31EE661A80EEA60A21EE001A8B
S31508008BB020EE060A82B002B0FFF7FABE00FF7F4732
S31508008BC000007E43F7B50C46074615461E467AF062
S31508008BD003FE01460B4826F061F888B123460221B8
S31508008BE0094A1D20CDE9005697F021FF38467AF04C
S31508008BF0F3FD2B46014622460248009626F058F811
S31508008C0003B0F0BD805501202BD00D0807EE901A51
S31508008C102DE9F041F8EEE77A2DED068BDFED67AA30
S31508008C20DFED679A07EE102A67EEAA7AC7EEA98AD9
S31508008C30F8EEC77A84B087EEA99A80467AF0D0FD16
S31508008C40B5EEC09A07EE900AF1EE10FAF8EEE77A5A
S31508008C509FED5CAA87EEA98A11D828EE0A8AFCEE4F
S31508008C60C87ACDED017A9DF804301A461946404671
S31508008C7004B0BDEC068BBDE8F041FFF7A3BFF4EEE8
S31508008C806A8ADFED517AF1EE10FA67FEA88ADFEDFF
S31508008C904F7AC8EEA79AFDEEE9AAF8EEEA7A18EE38
S31508008CA0100A79EEE79A5FF031FA044619EE100ACF
S31508008CB00D465FF02BFA02460B4606460F46002085
S31508008CC043495FF0C3F822462B465FF077FA5FF018
S31508008CD02FFD69EE297A08EE900A17EE900A5FF0E2
S31508008CE015FA02460B46002039495FF0AFF82246CE
S31508008CF02B465FF063FA5FF01BFD09EE100A19EECA
S31508008D00900A5FF003FA02460B46002030495FF0EE
S31508008D109DF832463B465FF051FA02460B46002064
S31508008D202B495FF093F822462B465FF047FA5FF02F
S31508008D30FFFC1AEE902A07EE900A042A36D8DFE8D6
S31508008D4002F0030720252C00B0EE489AB0EE678A99
S31508008D5068EE8A8A28EE0A8AFCEEE87A29EE0A9AEA
S31508008D60CDED017AFCEEC87ACDED027AFCEEC97A31
S31508008D70CDED037A9DF804309DF808209DF80C1077
S31508008D8075E7B0EE689AF0EE678AE1E7F0EE497AA1
S31508008D90B0EE689AF0EE488AD8E7B0EE487AB0EEB8
S31508008DA0679AB0EE688AF0EE478AD1E7F0EE497A1C
S31508008DB0B0EE489AB0EE688AE5E700BF0000B44313
S31508008DC000007E4300007F43000000000000704260
S31508008DD00000F03F37B50D460446FFF777FEC0F3AF
S31508008DE00723C0F307428DF804008DF805308DF887
S31508008DF006202B4602211D20074A97F018FE20461A
S31508008E009DF806309DF805209DF8041003B0BDE8CE
S31508008E103040FFF7D7BE00BF45D00D087FB50446E2
S31508008E200B460D461646022100921D200B4A97F066
S31508008E30FEFD20467AF0D4FC334601462A462046F3
S31508008E40FFF796FEC0F30743C0F30722C1B22046D8
S31508008E5004B0BDE87040FFF7B5BE00BF58D00D0896
S31508008E60014822F077B800BF384C012008B5002227
S31508008E700249034897F072FA002008BDFD800208EF
S31508008E80E43401200A4608B9FFF7F0BF0146014855
S31508008E9097F085BAE434012008B502220549064848
S31508008EA01FF05EFBBDE808400122044904481FF094
S31508008EB057BB00BF1CD10D08E434012010D10D08A2
S31508008EC0F04A01200122024B83F80421704700BFB3
S31508008ED0E43401200021044600B589B01A2201A80D
S31508008EE00091C1F011FC2346074A1E21684660F02E
S31508008EF0E5FD6946054825F083FD68467AF003FED8
S31508008F00CFF076FCC1F0C9FA34D10D084AD10D0864
S31508008F102DE9F04F0446D0E90076384B87B0D3F8F0
S31508008F2028B0D3F82CA0D3F83490D3F83880D0E9F9
S31508008F30025301930369012102934369304A03935B
S31508008F4083690493C369002005932E4B1B6897F029
S31508008F506EFD5B46012100202B4A97F068FD5346BB
S31508008F6001210020294A97F062FD4B460121002085
S31508008F70274A97F05CFD434601210020254A97F0D1
S31508008F8056FD234601210020234A97F050FD00F0A4
S31508008F9023FB3B4601210020204A97F048FD334633
S31508008FA0012100201E4A97F042FD2B460121002090
S31508008FB01C4A97F03CFD01210020019B1A4A97F0B4
S31508008FC036FD01210020029B184A97F030FD012149
S31508008FD00020039B164A97F02AFD01210020049BD6
S31508008FE0144A97F024FD01210020059B124A97F0A8
S31508008FF01EFD00F0F1FAD2F026FFFEE700ED00E0D4
S31508009000ABD10D08B4400120C1D10D08D7D10D0848
S31508009010EDD10D0803D20D0819D20D082FD20D086F
S3150800902045D20D085BD20D0871D20D0887D20D08FE
S315080090309DD20D08B3D20D08C9D20D08024B034ABA
S315080090401A607AF061BD00BFB4400120445241481D
S31508009050024B034A1A607AF057BD00BFB44001209C
S315080090604655504D024B034A1A607AF04DBD00BF73
S31508009070B440012046535542024B034A1A607AF01F
S3150800908043BD00BFB440012054465355024B034A22
S315080090901A607AF039BD00BFB440012054464353E4
S315080090A0024B034A1A607AF02FBD00BFB440012074
S315080090B04E4D4244012108B50020064B064A97F05A
S315080090C0B6FC00F089FAD2F0BEFE044904485FF007
S315080090D001FFFEE7DFD20D0875FC0E087BD10D08EF
S315080090E092D10D0800240D4600B59BB0602221469A
S315080090F002A80194C1F008FB2B466421094A01A87D
S3150800910060F0DCFC01212046074A01AB97F08FFC92
S3150800911000F062FAD2F097FE044905485FF0DAFEDD
S31508009120FEE700BF02D30D0875FC0E087BD10D08BB
S3150800913092D10D08034B0360034B0B604FF4A073E9
S315080091401360704750400120503B0120034B0360D9
S31508009150034B0B604FF4A07313607047EC3A012081
S31508009160EC35012000240D4600B59BB0602221464F
S3150800917002A80194C1F0C8FA2B466421064A01A840
S3150800918060F09CFC01212046044A01AB97F04FFC95
S3150800919000F022FAC1F081F915D30D0875FC0E0806
S315080091A0024B034A1A607AF0AFBC7047B4400120FC
S315080091B0474F44572A2108B5024800F059F9B4F038
S315080091C04BFBFEE725D30D08024B01211868D2F0A8
S315080091D0B1BA00BF804101200D4BD9889A8889B25F
S315080091E092B2914211D0D9889A8889B292B29142A4
S315080091F03DBF9A88D8881B89D8882DBF9B8813FAC3
S3150800920080F0801AC01A80B270470020704700BFED
S31508009210B8400120F8B50E46074608B9C1F03DF931
S31508009220154D2C898C42F9D3FFF7D6FF201A80B248
S3150800923086421BD8EB88E888E41AA4B2A6422B68B3
S3150800924015D92246394613FA80F0C1F019F928686B
S31508009250321B3919C1F014F9EB8816FA83F12B89F8
S31508009260B1FBF3F203FB121189B2E980F8BD32466D
S31508009270394613FA80F0EDE7B840012038B50446C0
S31508009280D2F0DBFF012105460846D1F079F82846D9
S31508009290D2F0CEFF0C480D4B2146B4F800210068E9
S315080092A04EF0F6FF4FF0FF3200210120D2F083FA8C
S315080092B0D2F0C3FF044600210120D1F061F8204610
S315080092C0BDE83840D2F0B4BF280E0220C991000884
S315080092D0002370B5174CC2B0174DADF804318DF8A0
S315080092E006314FF0FF330022206801A9D2F008FDAD
S315080092F00028F6D19DF8066101A8FFF7BFFF4EB119
S3150800930040F60D23ADF80430022301A8ADF8043168
S31508009310FFF7B4FF2A6852B1084901A860F002FCB9
S315080093200023ADF8040101A82B60FFF7A7FF00236F
S315080093301A46D9E714410120184101204FD30D08D8
S315080093402DE9F843DFF850801E46B8F80090154618
S31508009350A3EB09070D4BFFB21C89FFF73DFF241A43
S31508009360A4B2A74207D8394605EB0900FFF752FF12
S315080093700023A8F80030064832462946054B0068FF
S315080093804EF0D4FEBDE8F843FEF73CBDB8400120D8
S31508009390280E02204193000894BB012070B5204E88
S315080093A03468002C3BD14FF482711E4A0A20D2F051
S315080093B033FC1D4D1D4A286021461D48D2F0EDF8A4
S315080093C01C4B1D4A9C801A604FF4807230601A81CB
S315080093D0DC8008B9C1F061F82B68002BFAD0174C6D
S315080093E08022174B174920684EF0A0FE8022144BA6
S315080093F0154920684EF09AFE0B2051F0B3FE0B205B
S3150800940051F06AFE1422114B0521DA640422A3F5F1
S3150800941080531A650E48BDE87040B4F05DB870BD5B
S315080094208041012064D30D081441012084D30D081E
S31508009430D1920008B84001205AE10120280E0220E6
S315080094404193000802F1012082F001200020015B0F
S315080094500000015B08B5FEF7D5FC0421034B03F5B4
S3150800946000521165D164DB6C08BD00BF0000015BCA
S3150800947070B50C460546C2B018B94FF0FF3042B079
S3150800948070BD4B1EFF2BF8D80C4E33680BB9FFF78F
S3150800949085FF00232246294601A88DF80631C0F02B
S315080094A0EFFF4FF0FF331822306801A9ADF80441E9
S315080094B0D2F0F2FB0028E0D120B2E0E71441012007
S315080094C010B50C46C2B00146D0B1631EFF2B17D8A3
S315080094D0224601A8C0F0D4FF01230B488DF80631B7
S315080094E018220023006801A9ADF80441D2F0D4FB84
S315080094F010B920B242B010BD044A13680133136094
S315080095004FF0FF30F6E700BF144101201841012053
S315080095100422F0B52C4B0C46074685B01A65002880
S315080095204FD000294DD0FFF757FEA04219D2D2F0EE
S3150800953097FE05462548264E03AB01A9006802AAF0
S31508009540B3F01BFF338802998B4207D20198C91AD8
S31508009550184489B2FFF75EFE029B33802846D2F094
S315080095607AFE1C4D2E89B44201D9C0F096FFFFF74A
S3150800957033FEA04228BF2046AB8884B2F61AB6B29C
S31508009580A6422B68A98817D2324613FA81F13846C3
S31508009590C0F076FF2968A21BB819C0F071FFAB8826
S315080095A02A8914FA83F3B3FBF2F102FB11339BB257
S315080095B0AB8020B205B0F0BD2246384613FA81F1D9
S315080095C0EBE74FF0FF30F5E70010015B280E0220AD
S315080095D094BB0120B8400120002330B50B4CC3B022
S315080095E00B4DADF804318DF80631002320681A4674
S315080095F001A9D2F085FB08B143B030BDBDF80421FE
S31508009600286801A94EF09EFBEFE700BF1441012030
S31508009610280E02200A46014620B11AB1024B1868E4
S315080096204EF090BB704700BF280E022008B50820F0
S3150800963021F050F818B100234360014B036008BDC0
S31508009640F0D30D0808B5082021F044F818B1002316
S315080096504360014B036008BD0CD40D08436843B949
S31508009660054B0B6005234B604368013343600120BB
S3150800967070470020704700BFA8D30D08042370B5B3
S31508009680144645688AB0ADF802302B680A4601A828
S3150800969005499E687AF0A3FA224628460DF1020388
S315080096A001A9B0470AB070BDAED30D0830B54468FD
S315080096B0134622688BB0156901A80A4603497AF051
S315080096C08EFA204601A9A8470BB030BDBBD30D08BA
S315080096D030B58DB04468019223680A4603A8064946
S315080096E0DD687AF07CFA042320460DEB030203A911
S315080096F0A8470DB030BD00BFAED30D08F0B5A3B076
S31508009700064617A81F460C46154695F03AFE2A2225
S3150800971017A80CA995F048FE0DF10B030193152324
S315080097204FF48072009317A8002396F05AF850BB9E
S3150800973097E80300154B8DE80300D3E9002317A823
S3150800974096F027F9F8B9D7E90201114B8DE803001D
S31508009750D3E9002317A896F01CF9A0B99DF90B10B8
S3150800976017A896F073F870B97668224633680949DF
S31508009770DF6803A82B467AF032FA3046BDF8743013
S315080097800CAA03A9B84723B0F0BD00BF58D40D08EA
S3150800979050D40D08BBD30D0813B5044608460A4B2A
S315080097A01146C4E900300023C4E903330193036872
S315080097B022815B6A01AA984710B9019BC4E9030391
S315080097C0204602B010BD00BFD4D30D082DE9F041E4
S315080097D0D0E90332934204460D469EB003D30020D7
S315080097E01EB0BDE8F0812A2642683B495768ADF8A5
S315080097F002603A68D2F80880028910A87AF0EFF970
S3150800980038460DF1020305AA10A9C0470028E6D17B
S3150800981010A895F0F9F8324605A910A895F037F979
S315080098204FF480720023152110A895F0C9FC002872
S31508009830D5D10DF1010110A895F0FCFA0028CED17A
S31508009840264BCDE90100D3E90023CDE9030010A892
S3150800985095F0A9FC0028C2D101AE314610A895F0B2
S31508009860ACFB0028BBD11E4B10A8D3E9002395F00A
S315080098709AFC0028B3D10DF10C08414610A895F0C2
S315080098809CFB0028ABD110A895F082FC0028A6D135
S315080098909DF9011010A895F027FC00289FD196E89D
S315080098A0060004F1140704F1250638467AF0BDF9D6
S315080098B098E8060030467AF0B8F93846C0F075FEE2
S315080098C0C5E900703046C0F070FEC5E90260E3687D
S315080098D001200133E36083E7BBD30D0858D40D0894
S315080098E050D40D08F8B505460E460024094FAC427B
S315080098F006DB1EF095FF084996F0BAFD0020F8BD74
S315080099001EF08EFF56F82420394696F0B1FD013434
S31508009910EDE700BF1A180F0862D40D08F8B505461A
S315080099200E460024064FAC4201DB0020F8BD56F86F
S3150800993024303A4602211C2097F079F80134F2E7E0
S3150800994075FC0E0810B51EF06BFF044693F04BF835
S3150800995003490246204696F08BFD002010BD00BF45
S3150800996060D40D080322024902481EF0F9BD00BF63
S31508009970B4D40D08F04A01202DE9F0470024064624
S31508009980E0B088464FF4BE72214601A80094C0F0A4
S31508009990BBFEA64228DD6D464FF0200958F824A0E4
S315080099A05046C0F002FE60AB2F189F4202461DD2F9
S315080099B028465146C0F08AFD7D1C60AB9D4204F1E5
S315080099C001042CBF3D4687F80090A642E6D1084818
S315080099D099F03CFA6846CAF076F8054899F038FADC
S315080099E0002060B0BDE8F0872F20FAE71920F8E7D5
S315080099F080B000200122024902481EF0B1BD00BF16
S31508009A0000D50D08F04A01200122024B83F80421F3
S31508009A10704700BF8441012010B50446054B03601A
S31508009A2000F5CF6097F01BFE23690BB1C0F035FD3A
S31508009A30204610BDBC920E0870B504460B4B00F5C7
S31508009A40387503F12C0203604C334260836000F1E1
S31508009A501006B54207D055F8080C283D0028F8D05E
S31508009A602BF0C8FBF5E7204670BD00BF6CCB0E088F
S31508009A70A0F10400E0E7A0F10800DDE710B5094B06
S31508009A8004460360084B8360006948B143680BB914
S31508009A90C0F003FD013B436013B903681B6B98478D
S31508009AA0204610BD00D60D08C0D70E0810B50446CE
S31508009AB0034B40F80C3BFFF7E1FF204610BD00BF03
S31508009AC024D60D080022002310B5C0E90023C0E9FA
S31508009AD00223C0E904230D4B044600218361212299
S31508009AE06030C0F011FE4FF6FF720023A4F8822002
S31508009AF04FF48072204684F88130A4F88420C4F894
S31508009B0088307AF07CF9204610BD00BF58A70E08A9
S31508009B1000F1080373B504460D46036011B91048F1
S31508009B20C0F04CF80846C0F040FD0F2805EB0006CB
S31508009B30019007D90022204601A95DF085FF019B07
S31508009B402060A360324629462068C0F085F80021C7
S31508009B502046019B22686360D15402B070BD00BFE5
S31508009B600CD50D0810B50446044B0360406A7AF01C
S31508009B70CCF8E0687AF0D6F9204610BDB0D50D08C5
S31508009B8070B5164605460C468CB0114668467AF0FE
S31508009B901BF9294630467AF089F8641B0A4BE4100B
S31508009BA05C43694606A87AF00FF92246002106ABFF
S31508009BB028467AF0F7F906A8C0F011F86846C0F00A
S31508009BC00EF80CB070BD00BFABAAAAAA2DE9F04FDB
S31508009BD04FF0180B044617460E468DB000EB0B08DF
S31508009BE0351BB5F5C07F22DD3F4BED105D4367BBE6
S31508009BF04FF01808AF1E7F10684608FB07417AF039
S31508009C00E3F8694606A87AF0DFF820462A46394678
S31508009C1006AB7AF0C7F906A8BFF0E1FF57B9684660
S31508009C20BFF0DDFF331B182BA6F1180607DC0DB0B5
S31508009C30BDE8F08F6846013FBFF0D1FFDCE732464A
S31508009C4031462046FFF79CFFECE76D100BFB0545F8
S31508009C50404629467AF0A1F9A6F11809C2464946AE
S31508009C6060B128467AF099F908B129460BE04946C9
S31508009C7040467AF092F928B1494604E040467AF01F
S31508009C808CF910B341462046C0F026F835465046B2
S31508009C9021467AF082F9D1460AF1180A0028F6D147
S31508009CA0A5F1180A514620467AF077F95546AAF1E1
S31508009CB0180A0028F6D1A9450ED3013F31463A467F
S31508009CC04846FFF783FF4E468AE7494628467AF014
S31508009CD064F90028C9D0CFE729464846BFF0FCFFFB
S31508009CE009F1180AD3E700BFABAAAAAA2DE9F043DF
S31508009CF0884205460E4687B005D0DFF8608000F139
S31508009D001804A64202D107B0BDE8F08329462046CA
S31508009D107AF043F904F11807E0B1214668467AF06B
S31508009D2053F8B946641BE41008FB04F4002C08DC5D
S31508009D302846694679F0BAFF6846BFF050FF3C46A8
S31508009D40DFE7A9F13001A9F11809484679F0AEFF15
S31508009D50013CEBE720467AF089F9F0E7ABAAAAAA14
S31508009D602DE9F041036886B09B6A044698470121AD
S31508009D700346394A242096F05AFE23682146684647
S31508009D80DB6A9847039E002430460DF104084045D7
S31508009D9005D1324B9C4206DD3148BFF012FFBFF0B9
S31508009DA0B3FD0134F3E7182767431CB13846B4F00E
S31508009DB0B2F90446254646452CD1AC4217D0294B64
S31508009DC02E1BF2105A43B2FA82F2C2F11F0229463A
S31508009DD020465200FFF7FAFEB6F5C07F2ADD04F5E5
S31508009DE0C07631462046FFF781FFB5421DD126468B
S31508009DF0DFF87480B54222D12646B54227D11CB178
S31508009E0039462046B4F097F9029879F07EFF06B0F5
S31508009E10BDE8F081284606F1100179F095FF304635
S31508009E20BFF072FD18350646C5E730467AF01EF9CA
S31508009E301836DAE729462046FFF758FFD7E742469D
S31508009E400121242056F8183B96F0F1FDD2E730465A
S31508009E50BFF0C5FE1836D0E73ED50D085555550551
S31508009E606FD50D08ABAAAAAAA0D50D08F8B5002586
S31508009E70474C60199035FFF725FEB5F5347FF8D1C4
S31508009E8000254448FFF71EFE0026C4E9D855C4E954
S31508009E90DA55A4F87053C4F8745384F8785384F8E0
S31508009EA0805384F88253A4F88453002712243A4A2C
S31508009EB03A493748BFF0CAFC394B3A4A1A6002F1A8
S31508009EC02C014C32C3E9022559601033102218467A
S31508009ED00021C0F019FC41F2A4520346013CC0E936
S31508009EE00667057442824561056203F12803EDD1D0
S31508009EF0294A2D492A48BFF0A9FC2C481FF078F8B2
S31508009F00254A2B492948BFF0A1FC2A482CF01AF902
S31508009F10214A29492748BFF099FC2848284B1E4A58
S31508009F202849C0E9014403600473BFF08FFC264842
S31508009F30264B194A036000F10803C0E90433244993
S31508009F4000F12003234DC0E90A330472C46084611A
S31508009F5080F820404462046380F834408463BFF08C
S31508009F6075FC1D4B21462B601C4B102205F1180071
S31508009F70EB60C5E901442C61C0F0C6FB184BEC61E7
S31508009F806B612846BDE8F840034A1649BFF05EBC37
S31508009F9018360020E8380020900802205B3E0808A2
S31508009FA0383300206CCB0E08399A0008882B00201D
S31508009FB0199A0008801A00203D630308F042012020
S31508009FC09CDA0E085D5E0308B4420120B0D50D0880
S31508009FD0659B00088C42012024D60D0800D60D0882
S31508009FE0C0D70E08AD9A000870B5036805460C463A
S31508009FF016460BB1032070BD02210D20074A96F0C4
S3150800A00016FD0CB92F20F6E723682046DB6898472B
S3150800A0100028F0D1C5E90046EDE700BF30D60D08A7
S3150800A0202DE9F04F074600688BB004680D46646C4E
S3150800A03090461E46A0472D2804460ED048B19F4A92
S3150800A0409F4B0221A52808BF13460D209D4A96F06E
S3150800A050EEFC20460BB0BDE8F08F6B78202B01D1C3
S3150800A0600024F6E7984B3868029358B103682A46E5
S3150800A0701B6C02A99847044630B1029803689B688E
S3150800A0809847E6E70324F8E74FF0000A4FF0000B7D
S3150800A0908E4B0393029803A90368DB68984730B18F
S3150800A0A002210D208A4A96F0C2FCA52410E08DF8FC
S3150800A0B0060003980DF106010368DB689847044615
S3150800A0C030B99DF80630402B06D0802B04D00324E7
S3150800A0D003A87AF0DAFAD0E76A789A42DAD1012345
S3150800A0E003988DF8073003680DF107015B699847F7
S3150800A0F004460028ECD19DF80730082B18D8002B09
S3150800A100C8D0013B072BC5D801A252F823F000BFDF
S3150800A11049A100085BA1000895A0000867A10008EE
S3150800A12095A0000895A0000895A0000885A100083C
S3150800A130102BAFD1102E1AD0082EABD84FF48B7334
S3150800A140F340D807A6D512E006F1FF3CDCF1000380
S3150800A15043EB0C03002B9DD009E0731E012B8CBF2B
S3150800A16000230123F6E7042E01D0012E92D1002305
S3150800A17003980493036804A95B6A9847814648B123
S3150800A1804C46A5E7082E85D86FF489733341DC075A
S3150800A190EDD57FE7049B1BBB002303980593036853
S3150800A1A005A99B6B984781460028E9D1059B002B9A
S3150800A1B07FD100248CE74FF0FF31C21C994274EB23
S3150800A1C0020243D39DF80620402A80D14FEA134C59
S3150800A1D005F10C0105F118048C4229D109F1010990
S3150800A1E0049B4B457FF656AFCDE906AB0398494627
S3150800A1F0036806AA9B6A9847044600287FF468AF56
S3150800A200DDE906306FF0010C5A1E40F1FF31944526
S3150800A2106FF010028A41CED39DF80620402A7FF4BB
S3150800A22056AFD5E90212904208BF8B42D6D1B3E7A2
S3150800A23051F8042F002ACFD0BCEB124FCCD198B2DC
S3150800A2400028C9D092B29042C6D8A5E713F5803F38
S3150800A25070F1FF32FFF43BAF9DF80620802ADEE757
S3150800A26000230398069303684946DB6B06AA9847BA
S3150800A270044600287FF42CAF069BD90704D5D8F8E6
S3150800A28000200799914212D19A0705D5BDF82010EA
S3150800A290B8F8042091420AD15B078AD57868B8F8DD
S3150800A2A00420036809999B689847002881D109F119
S3150800A2B00109059B4B45D3D8ECE600BF78D60D08B7
S3150800A2C05F640F084CD60D081409022018090220ED
S3150800A2D069D60D080023F0B58BB0CDE904330546E1
S3150800A2E000688DF80D308DF80E308DF80F30036844
S3150800A2F00DF10D01DB6898470446002840F0C78039
S3150800A30028680DF10E0103681B6998470446002862
S3150800A31040F0BD8028680DF10F0103685B69984716
S3150800A3200446002840F0B380286804A903685B6ADD
S3150800A33098470446002840F0AA80286805A90368BB
S3150800A3409B6B98470446002840F0A1809DF80E3084
S3150800A350002B00F09E809DF80D30402B07D0802BF7
S3150800A36040F09E809DF80F30102B00F09B8026460B
S3150800A370049BB34207D800264B4F059BA3423AD805
S3150800A38001200BB0F0BD28683146036806AA9B6A0F
S3150800A3909847002879D19DF80D30402B16D1DDE974
S3150800A3A006326FF0010C591E42F1FF378C456FF0EB
S3150800A3B01001B94108D24FF0FF310332994270EBD0
S3150800A3C002020CD39BB253B10136D1E7802B06D1DA
S3150800A3D0069B079A13F5803F72F1FF32F1E7334B7C
S3150800A3E00446002856D001210D20314A009496F0E3
S3150800A3F01EFB0020C5E72868069603682146DB6B26
S3150800A40006AA9847002840D1069B03F0020103F0EC
S3150800A4100402DB0710D411B1F2B1264BE0E7002A9B
S3150800A420FBD0099B03EA070212F5003FF5D89BB259
S3150800A430B3F5404FF1D215E009B1002AEDD1079BDB
S3150800A44013F5302F4FEA134CE7D2BCF1000F0BD1AE
S3150800A4501B0410D56046E0E74FF6FF73BDF82020D1
S3150800A4609A42DAD0013488E740F2FE3C03F580636D
S3150800A4709BB26345D1D829B14FF6FF73BDF82010BA
S3150800A4809942CAD0002ACCD1ECE70B4BA8E70A4B75
S3150800A490A9E70A4B01210D20094A96F0C8FAA8E750
S3150800A4A0084BF7E7084BF5E70000FFFF90D60D08C5
S3150800A4B0E8D60D08A0D60D087FD60D08D3D60D0808
S3150800A4C0FED60D08C1D60D08AFD60D082DE9F04306
S3150800A4D00546006887B088461F468DF80F2020B9C4
S3150800A4E00324204607B0BDE8F083DFF86490AB6824
S3150800A4F0CDF81490EBB900262868394603680DF1A3
S3150800A5000F02DB6B9847044678B91EB133684B4592
S3150800A51008BF002602234146CDE9006328463B468C
S3150800A5209DF80F207AF0ECF8002405A87AF0ADF82B
S3150800A530D7E79DF80F3039468DF81330036805AA1A
S3150800A5405C6B0DF11303A0470028D4D105AED3E701
S3150800A55018090220034B1868034B002808BF184641
S3150800A560704700BF044301200843012010B5044684
S3150800A57002210D20024A96F05AFA024B1C6010BDC1
S3150800A58010D70D080443012010B5094C0949224685
S3150800A5900948BFF05BF9224608490948BFF056F951
S3150800A5A02246BDE8104007490748BFF04FB900BF2B
S3150800A5B09008022059460808084301206B460808F7
S3150800A5C0180902206D460808140902200023F7B569
S3150800A5D0CDE900334AB96E4601AB15240E4A013C53
S3150800A5E006D11423036003B0F0BD6B4601AEF4E751
S3150800A5F01578002DF5D055788D4206D1076835684F
S3150800A600AF4207D0019D01350195009D40320135C5
S3150800A6100095E4E71B68E5E7E039002007B50190F7
S3150800A62021B10122097801A8FFF7D0FF0198132864
S3150800A6300AD8064B820103EB80109B5C002B08BFEF
S3150800A640002003B05DF804FB0020FAE7E03900209B
S3150800A6500023152010B51360074B013801D10020DF
S3150800A66010BD1C78002CFAD05C7840338C4202BFAF
S3150800A670146801341460F0E7E039002000231A4614
S3150800A68010B50648B3F5A06F0A6001D1002010BDC9
S3150800A6904033C45C002CF9D00132F3E7A03900201E
S3150800A6A00868114B70B598420E46154603D303F158
S3150800A6B00C02904214D31B79A3B90B4C03689B6810
S3150800A6C098470123002D3460237108BF00234FF0FB
S3150800A6D00000637118BF2B78A06018BFA37170BD06
S3150800A6E00446EBE71920FAE71843012002210D205A
S3150800A6F0014A96F09CB900BF94D70D0838B50221D7
S3150800A7000D20074A96F093F90024064D6019403447
S3150800A710B4F5A86F01D1002038BD7AF095F8F5E7B1
S3150800A720BCD70D08E039002038B50B4B0C469842CB
S3150800A73002D30C33984201D3BFF0AFFE85680FCD24
S3150800A7400FC40FCD0FC40FCD0FC495E80F0084E8D2
S3150800A7500F00002038BD00BF200902202DE9F04176
S3150800A760144C1F460E461523A046013B01D119205D
S3150800A7701EE0217871B14034F7E763783B70B6B1D3
S3150800A780A4EB0804A41134602A4630463978FFF74A
S3150800A7901DFF0CE021461068FFF7C6FF054630B9D5
S3150800A7A0002FEAD11EB1A4EB0804A4113460284690
S3150800A7B0BDE8F081E0390020064B984203D303F147
S3150800A7C00C02904204D39B680248002B18BF002055
S3150800A7D0704700BF2009022010B50868FFF7ECFF94
S3150800A7E080B18268084B0AB19A4206D21B784BB9E7
S3150800A7F0054A7AF070F8002010BD03F14004A24221
S3150800A800F4D2F6E71920F7E7A039002038B5114A3F
S3150800A81083684BB9104B83608468944201D02378CF
S3150800A82033B982600A2038BD9342F5D24033F2E745
S3150800A83043791BB1657883799D42E9D10868FFF7AA
S3150800A840BBFF20B122467AF046F80020EBE7192034
S3150800A850E9E700BFE03E0020E0390020F0B50E4FE2
S3150800A86084680646BC4205D307F140039C4201D2E0
S3150800A8700020F0BD3B7863B9074D0FCC0FC50FCC50
S3150800A8800FC50FCC0FC594E80F0085E80F00B76019
S3150800A890EEE71920EDE700BFA03900202DE9F041C9
S3150800A8A00E4611463046FFF7B9FE0446002842D048
S3150800A8B0224FBB68984202D13846FFF7CFFFDFF830
S3150800A8C08C80444516D204F1400CC4450FD294F846
S3150800A8D0403063B165460FCD0FC40FCD0FC40FCD01
S3150800A8E00FC495E80F0084E80F006446E9E72046A0
S3150800A8F079F0AAFF124CBB6804EB86169E4212D06A
S3150800A90003D2434501D2403BBB600E4A93689E4240
S3150800A91006D8434504D2A3420CBF0023403B9360AC
S3150800A9200020BDE8F0817D68286803689B68984721
S3150800A930054B2B60E9E70A20F3E700BF2009022050
S3150800A940E03900201843012018090220E03E0020C3
S3150800A9508268054B00219A4203D340339A4238BF96
S3150800A96011708160704700BFA039002010B5094CEE
S3150800A970D4E8AF3FDB070BD420469EF074FF38B10E
S3150800A980054A06490648BEF061FF20469EF070FF5C
S3150800A990034810BD14430120900802201F490808E7
S3150800A9A01C09022010B5084C084922460020BEF0B2
S3150800A9B04DFF0020064B074A18711A6006492246C1
S3150800A9C0BDE81040BEF042BF90080220254908089D
S3150800A9D01843012040D80D08CB49080870B5104E19
S3150800A9E0D6E8AF4F14F0010418D130469EF03BFF6D
S3150800A9F0A0B10C4D0C4A2B4607CA43F8044B83E812
S3150800AA0007004FF6FF722A824FF0FF321846C5E953
S3150800AA1005247AF02FF930469EF02AFF014870BDCA
S3150800AA202443012028430120D4D80D0838B505460B
S3150800AA3004300C467AF01EF92A6813461BB9E26000
S3150800AA4001202C600DE09868A16888420ED119791A
S3150800AA5009B1217931B923200121054A95F0E7FF8B
S3150800AA60002038BDD888E1888842F4D0DB68E5E75D
S3150800AA70A0D80D082DE9FF410A9F884616461D46AF
S3150800AA8095F0F8FF044600283FD0D6E900010026D5
S3150800AA90231DD8F80020C4E90133C4E906011D4B7B
S3150800AAA0267323602661226204F1280C95E80F00BC
S3150800AAB08CE80F002B7C04F1480084F838306B8A48
S3150800AAC063876B69E363D5E90623C4E91023124B50
S3150800AAD004F1580519680B689B68984700220023FB
S3150800AAE0C4E9142301AB97E8070083E807000123AC
S3150800AAF085E80700A4F87430084B84F8646084F885
S3150800AB00686084F86C60A6672360204604B0BDE8D8
S3150800AB10F08100BF30D90D08040B022078D90D0842
S3150800AB20094A08B5026002690AB1BFF0B6FC074ACD
S3150800AB30011D026082688A42F7D141680029F4D073
S3150800AB404A604368136008BD30D90D08E8D80D0877
S3150800AB5010B50446024B0360FFF7E2FF204610BD1E
S3150800AB6078D90D08F7B50C46114B0546196868469D
S3150800AB700B689B689847D4E91421009B20469F1AC6
S3150800AB80019B63EB01067AF054FC038920469F4239
S3150800AB9076F1000309D27AF04CFC043003682846A3
S3150800ABA02B6000236B6003B0F0BD7AF042FCF5E73A
S3150800ABB0040B02202DE9F04307460E461546984633
S3150800ABC06FF001096FF010048BB091F0DBFE421EA6
S3150800ABD041F1FF33914574EB0303F6D3002318368E
S3150800ABE0CDE90401029330462B46CDF8008004AA2D
S3150800ABF002A9FFF73FFF044650BB4FF0FF324FF064
S3150800AC00FF33CDE9062306AB03900893304603AB22
S3150800AC101C4A08A9099395F095FF039C2CB90023B3
S3150800AC203B7038460BB0BDE8F083236820461B68A6
S3150800AC3098472146304695F063FF2B463046CDF8B7
S3150800AC40008004AA02A9FFF715FF04460028E6D0EB
S3150800AC5095E80F0004F1280686E80F002B7C2046AD
S3150800AC6084F838306B8A63876B69E363D5E9062312
S3150800AC70C4E9102301233B7023687C60DB6898478E
S3150800AC80CFE700BF99530808084B10B5036018337F
S3150800AC904360044608307AF040FC014620B96069F2
S3150800ACA000F5CF6096F0F1FC204610BDC0D90D081E
S3150800ACB0A0F10400E8E700BF10B504460221074AE0
S3150800ACC00D2095F0B4FEFFF745FC04F1140179F068
S3150800ACD0F2FC2046BDE810408AF02DB9E4D90D08EB
S3150800ACE000B5084B89B00493042305930023039207
S3150800ACF004490422009303A88AF0D7F809B05DF83E
S3150800AD0004FB00BFD4DA0D0838B50C460546022107
S3150800AD100D20084A95F08BFE214628468AF01DF933
S3150800AD20044628B9FFF716FC05F1140179F0B5FCBD
S3150800AD30204638BD03DA0D0800B50D4B8DB0CDE9B8
S3150800AD400631ADF8202000231F22CDE9092301236F
S3150800AD5091F83C208DF82C308DF82D200093024672
S3150800AD6006AB08A902A80CF0B5F80DB05DF804FB0F
S3150800AD70C8DA0D082DE9F04F14460027B9B0064683
S3150800AD801D460397FFF7E6FB2269042A08D8042A1A
S3150800AD9010D8DFE812F013000F00F800210128018F
S3150800ADA04FF6FC739A4200F023814FF6FD739A42E0
S3150800ADB000F0208140F28652326064E0904B05A98B
S3150800ADC00493904B16A805937AF0F9FC01232846BC
S3150800ADD085F844307AF0D0F9044600284BD10BA800
S3150800ADE00A9594F0CEFA88487AF0C5FC074648B129
S3150800ADF0864FB7F8643907F50B6703F00503052B8B
S3150800AE0018BF002700220523DFF80482CDE90823AE
S3150800AE104046CDE906877AF0AEFC10B906A87AF066
S3150800AE20BAFC4FF09009089C052C0AD128467AF0FE
S3150800AE30E8F900244FF6FF7385F84C40A5F84A3028
S3150800AE4019E009FB048494F881A047B138467AF0E2
S3150800AE5092FC20B197F88130534508BF3C4694F8D8
S3150800AE608140FFF777FB00688DF8084088B92846C7
S3150800AE707AF0C7F9032405A879F007FC0498036853
S3150800AE809B689847346000233046337139B0BDE873
S3150800AE90F08F036802AA1B6C04A998470446CCB134
S3150800AEA058E0169B8DF80840186802A903681B69C4
S3150800AEB098479DF80830002B63D00A9B93F84530D5
S3150800AEC0B3B9DDF828A00BA950469AF808B07AF06D
S3150800AED0BFF9E0B9049805A90368DB6898470446F2
S3150800AEE00028DED00A2835D106A87AF054FC9AE75D
S3150800AEF0169B8DF80840186802A903681B699847CD
S3150800AF000A9A9DF80830127A9A42E3D1D9E79AF854
S3150800AF104630DAF800107BB1096C4FF480720023D2
S3150800AF20CDF800B016A88AF0FFFA044601460BAA27
S3150800AF3050467AF0A6F9B2E7DAF840300AF1280264
S3150800AF4002A87AF0D3F8044640B1214650460BAA27
S3150800AF507AF097F928467AF054F98CE7DAF800304F
S3150800AF600222196C16A80023CDF800B08AF0DCFA84
S3150800AF7004460028E9D1DAF8001002A87AF0EEF8BB
S3150800AF80D3E77124E6E70068002836D003689B6992
S3150800AF9003A99847024600287FF40EAF01232968C3
S3150800AFA085F8443005F128022B6C16A8039C7AF024
S3150800AFB09DF8034670B92A68106CCDE90043022251
S3150800AFC0002394F070FB034620B9296816A87AF086
S3150800AFD0C5F80346336056E7006800283FF4ECAE30
S3150800AFE00368DB69D4E703A900687AF0BEFBD1E7FA
S3150800AFF00397D3E702230393D0E70322DCE600BFD7
S3150800B000140902201809022010A0002060970020C9
S3150800B010409D00202DE9F041D0F80C80B2B00546DD
S3150800B020DDE938760C46B8F1000F29D041B3402245
S3150800B03000216846BFF068FB2378012E8DF83C3066
S3150800B04002D18DF8146001E0022EFAD06378402B05
S3150800B05019D1D4E90223CDE9002301238DF808305C
S3150800B060002F3FD0394610A87AF0A9FB10A88AF01D
S3150800B07073F9034680B101210D201C4A95F0D7FCCF
S3150800B08032B0BDE8F081202B01BFA368ADF81030BF
S3150800B09001238DF81230E3E7BDF8443012AAADF863
S3150800B0A0183007AB07CA83E807000AAB15AA07CA10
S3150800B0B083E807009DF860308DF834301BB19DF8A1
S3150800B0C061308DF835309DF8623000228DF83630C3
S3150800B0D001238DF83830EB68DB6869461868FFF796
S3150800B0E02BFECDE73A46D8F80C30F6E726DA0D08F7
S3150800B0F02DE9F84391F8387004460E464FF00008DB
S3150800B1000FB191F83980002504F10809484693F0F3
S3150800B1107BFC31464846256093F08BFC84F84070EA
S3150800B1200FB184F84180074BA4F85050A36484F803
S3150800B130905084F8D05084F8D85084F8DA502046D5
S3150800B140BDE8F883180902202DE9F04190F934305A
S3150800B15006460133A6B003D1002026B0BDE8F0812B
S3150800B1600368002BF8D100F10808404693F0F0FF79
S3150800B170074630600028EFD1204C0146942201A8EA
S3150800B1800094BFF0C1FAB06C04AD03689B68984799
S3150800B1900FCDB46406F15804A6F850700FC40FCD4D
S3150800B1A00FC40FCD0FC495E80F0014AD84E80F0047
S3150800B1B00FCD06F198040FC40FCD0FC40FCD0FC4E1
S3150800B1C095E80F0084E80F00684686F8D87086F878
S3150800B1D0DA7079F05AFA414606F148008AF0B2F870
S3150800B1E030600028B8D196F840302BB1B06C96F88C
S3150800B1F041100368DB6998470120AEE71809022069
S3150800B200F0B5CFB007460E460D7AFFF7A3F90068EA
S3150800B21038B1036829465B6A03AA984718B10446F9
S3150800B2201EE00320FBE7FFF795F904A900687AF00A
S3150800B2309CFA0446A0B9BB7B012B00F2838006A8C2
S3150800B24093F0E2FB2246214606A893F020FC3046FE
S3150800B25006A98DF850407AF0C7FA074618B1044691
S3150800B26020464FB0F0BD9DF94430013321D10590F9
S3150800B27006A916A8FFF73CFF16A8FFF765FF28BB27
S3150800B280169C28A8212C2BD179F0FFF906A916A817
S3150800B290FFF72EFF06F1080416A8FFF755FF20BB97
S3150800B2A0169C212C4CD0002C4AD028A879F0EDF910
S3150800B2B0D6E705A906A893F0B3FF0028AFD1DDE9C4
S3150800B2C004329A42D4D940F28954C9E728A8FFF72C
S3150800B2D001F80028D0D128A879F0D7F92F24BFE79C
S3150800B2E079F0D3F9002CBBD1D0E7039BBB420BD92D
S3150800B2F0FFF730F928AB00932A463B46214679F0FA
S3150800B3005FFA58B10446D0E7FFF724F928AB009353
S3150800B3102A460023214679F00AFAF2E70137BBE705
S3150800B320013B0393FFF716F92A463146039BFFF7BD
S3150800B330CDF80028E6D1039BBB42F1D80024B4E738
S3150800B3400836F8E7042B2FD1039B049A013393425E
S3150800B350B9D8164BADF86000169301233371337ACA
S3150800B3608DF8A0008DF8E0008DF8E8008DF8EA0069
S3150800B37016AFB3B13846316889F0E4FF044670B9B0
S3150800B380169816F8081F0368DB699847FFF7E2F86E
S3150800B39023462A463146009779F0C9F904463846C5
S3150800B3A084E740F27E54FAE76C2459E7180902202C
S3150800B3B0F0B517690E460446194685B0BFB902F1BD
S3150800B3C00800FFF71DFF2F28034613D0D82811D0F1
S3150800B3D00B2819D000228DF80C20039A20460092DB
S3150800B3E031463A4689F0DEFD204605B0F0BD4FF4F9
S3150800B3F0B163EFE7872501210D20044A009595F0F2
S3150800B40016FB45F4A063E5E78925F4E74DDA0D0850
S3150800B410034B53F81C09002818BF1846704700BF8D
S3150800B4206043012008B50C4802680AB1BFF035F838
S3150800B4301F21A0F11C0340E905120849C3E9073298
S3150800B44040F81C1C483140F8182C40F80C2C40F8E1
S3150800B450042C40F8081C08BD604301206CDA0D086E
S3150800B4607FB5094B1F2201934FF00113CDE9032342
S3150800B4700023ADF8080001A902A8ADF8143091F030
S3150800B480C3FA07B05DF804FBFCDA0D0808B50248F4
S3150800B4907AF0E5F908BD00BF44430120024A034992
S3150800B4A00348BEF0D3B900BF90080220895808089F
S3150800B4B04443012000B5084B89B004930323059340
S3150800B4C00023039204490322009303A889F0EDFCA4
S3150800B4D009B05DF804FB00BF64DB0D08104602499D
S3150800B4E0022295F0E5BB00BF54DB0D087FB516694F
S3150800B4F00546022E1C464DD008D826BB36488AF08B
