S02B00002F686F6D652F686164796C69752F53696D706C696369747953747564696F2F76365F776F726B73702F
S31508006000081200200D7D030829920A084590000809
S3150800601083EA0B086D9000088190000895900008A7
S3150800602029920A0829920A0829920A0859770D0816
S31508006030A990000870E50E08FD760D0821B50D0833
S315080060408579030829920A0829920A0829920A08D2
S3150800605029920A0829920A0829920A0829920A08FE
S3150800606029920A0829920A0829920A085D940008C2
S3150800607029920A0829920A0829920A0829920A08DE
S3150800608029920A0829920A0829920A0829920A08CE
S3150800609029920A08B958050829920A0829920A086D
S315080060A029920A08855005086550050829920A08A4
S315080060B029920A08911F0808652808086D6D0D08B9
S315080060C0696D0D08D91F0808836D0D08716D0D08D7
S315080060D035280808756D0D08A52808080D2908082B
S315080060E029920A0829920A08A991000829920A08F9
S315080060F009DF0B0829920A0829920A0829920A0830
S3150800610029920A0829920A0829920A0829920A084D
S3150800611029920A0829920A0829920A0829920A083D
S3150800612029920A0829920A0829920A0829920A082D
S3150800613029920A0829920A0829920A0829920A081D
S3150800614029920A088940060829920A0805C50D08F1
S31508006150C109080829920A084D6D0D08536D0D08E6
S3150800616029920A0829920A0829920A0829920A08ED
S31508006180F0B5114A114C124E00F00105E3695F079C
S3150800619013D40DB9334213D103EA00078F4207D14E
S315080061A00B4A1A40002A0CBF00206FF00100F0BD10
S315080061B0013AEBD16FF00200F9E74FF0FF30F6E74E
S315080061C06FF00100F3E700BF8096980000000350C7
S315080061D00200010070B50B4BD96911F480310DD15D
S315080061E001244FF48072084E084DF46020462C6452
S315080061F01A61FFF7C5FF3464EC6070BD6FF00100EB
S31508006200FBE700BF000003500010035000200350B6
S315080062104FF4803238B50E4B0E4C9A66E56941F656
S31508006220713315400122E3630B4B0021DA60022328
S31508006230606121202361FFF7A3FF10B92120FFF732
S315080062409FFF0122054BDA600DB10023E36338BDD9
S315080062500090005000000350001003500020035027
S3150800626070B5134C6061E3695B071ED40E4656F899
S31508006270043B8D18A361AE420BD1042300212120D3
S315080062802361FFF77DFF58B9BDE870402120FFF76D
S3150800629077BF08210846FFF773FF10B1042323616F
S315080062A070BD56F8043BA361E5E74FF0FF30F7E70A
S315080062B0000003502DE9F84315464FF48032184B79
S315080062C089469A6603F51C33DF690646174041F688
S315080062D07132DA63012203F58053DFF84C80DA6005
S315080062E055B9284601220F4BDA601FB10022A3F5E3
S315080062F00053DA63BDE8F88306F5005404EA080497
S31508006300A41BAC4228BF2C46494622463046FFF716
S31508006310A7FF0028E6D12644A1442D1BE0E700BFCD
S31508006320009000500020035000E0FFFF000000002E
S31508006330000000000000000000000000000000004F
S31508006340013800D0FCE770472DE9F04F2DED028BA0
S315080063501D4613690646052BD5B00BD8013B01220D
S315080063600024042B23D8DFE813F04100290130016B
S315080063703F0152014FF6FC72934212D04FF6FD725E
S3150800638093424FF0010340F0448102200021CDE9F9
S315080063903E0185F8443028463EA97FF0DDFF30608F
S315080063A086E000230022CDE93E230123F1E7CB69ED
S315080063B0284685F844202C937FF068FA0028EED109
S315080063C03FA83E9599F067FB3EA92CA884F0F6FBFA
S315080063D0044628467FF09FFA2046002CDFD14FF668
S315080063E0FF7385F84C40A5F84A30D8E7D1F81C80E9
S315080063F0284685F844207FF049FA0446002856D1F5
S3150800640013A8129599F047FB41460AA882F049FD60
S3150800641005232246414600930EA884F034FB2746FE
S315080064209FED7F8BDFF800A20EA90AA884F042FB35
S31508006430044648B928467FF06EFA4FF6FF7385F88A
S315080064404C40A5F84A3032E00AA882F0FAFC8DEDF5
S31508006450228B8DED248B90F88190CDE92677CDE9B6
S315080064601E77ADF880708DF8A0708DF8AC90D0E9E5
S315080064700023CDE92423B0F8823000F16004ADF89A
S315080064808030D0E9022320212046CDE92223C4F01A
S3150800649087F84946CDE926402CAA4046CDF8B0A053
S315080064A092F09CFE044658B128467FF034FA3460D0
S315080064B000233371304655B0BDEC028BBDE8F08F32
S315080064C02DAB1E9341230DF1080B1F933EABCBF862
S315080064D0003055235A4649464046CBF8043093F0D7
S315080064E00CF804460028DFD1DBF80430B3B19BE88A
S315080064F0030001238DF8103005AB83E8030004A9D7
S3150800650007A884F04EFB9DF81C308DF8A0302BB1FF
S3150800651029AB08AA92E8030083E803009DF8AC308B
S31508006520002B49D0DDF8489099F8452099F808B02D
S315080065300AB19B451AD1484613A97FF013FAA8B1A8
S3150800654099F84630D9F80010A3B1096C4FF4807257
S315080065500023CDF800B01EA8C2F02AFB0446014667
S3150800656013AA48467FF017FA002C9DD10AA884F092
S3150800657076FA59E7D9F8403009F1280207A87FF0DA
S315080065803FF9044628B12146484613AA7FF003FA84
S315080065908AE7D9F800300222196C1EA80023CDF824
S315080065A000B0C2F005FB04460028ECD1D9F800106B
S315080065B007A87FF05DF9D1E7712475E7052000216A
S315080065C085F84420CDE93E01E5E6CB6993F88233A8
S315080065D0CDE93E340123284685F844303EA97FF0AC
S315080065E0BBFE3471306065E7CB69284685F84420E0
S315080065F02C937FF04BF900287FF4D1AE3FA83E9547
S3150800660099F049FA3EA92CA884F0DCFBE0E62B7A3F
S31508006610DEE78622C0E900234CE700BFAFF300801F
S31508006620000000000000000030A70E08000000006F
S315080066302DE9F04F2DED028B083085B00E469146B8
S31508006640DDF850809AF0A0FD0446002800F0A380EB
S315080066506F4600259FED548B4FF0010B41F2A45A6B
S3150800666010AB0FCB87E80F00514BC4E902552360E6
S31508006670C4E90455C4E906552C3363604D4B04F14F
S31508006680500C0FCB84ED108BC4E90E5584F82050BE
S3150800669084F8305084F848508CE80F00464B84F84C
S315080066A060B0A4F862A06566236704F18403C4E9B0
S315080066B02133424B1022C4F89830294684ED1A8BB0
S315080066C0C4E91D55C4E9275584F87C50C4F88C5094
S315080066D0C4F8A45004F1A800C4F06DF884ED308B1A
S315080066E084F8B8B0A4F8BAA0C4F8BC5004F1C8003D
S315080066F09BF0B2FB4AF6C873C82284ED388B84ED4A
S315080067003A8BC4E93C2304F58673C4E94055C4E9C9
S315080067104333A4F8D45084F8D650A4F8D85084F853
S315080067200851C4F814513368A3607368E360B3680A
S315080067302361F36863613369A3617369E361337E37
S3150800674084F8203033B104F1240306F11C0207CA89
S3150800675083E8070096F8283084F830300BB1F36ADE
S31508006760636330467FF063FAA8B9B9F1000F12D017
S31508006770B8F1000F0FD003CF3B78C4F8389084F8EF
S315080067804830012384F80031231D20646164C4F86D
S315080067909080C4F8A430204605B0BDEC028BBDE855
S315080067A0F08F00BFAFF3008000000000000000007B
S315080067B040230E08AC4A012074DA0E0830230E086E
S315080067C02DE9F04F2DED028B00240025CBB099461C
S315080067D0CDE92E450023CDE93045CDE934454FF6C0
S315080067E0FF74DFF898A2064688461746CDE90C33AB
S315080067F08DF8C8303393CDF8D8A04894A2B305468F
S3150800680000F53474A54206D10B2420464BB0BDECE6
S31508006810028BBDE8F08F28467FF037FB08B190352C
S31508006820F0E79FED8F8BBDF85C318DF8C880ADF829
S3150800683020318D4B4FF4C8710E93002309A8CDE97A
S3150800684009330F93CDF870A00B9384F0A0F9099C37
S3150800685014BB0B240BA87FF0BEF80AA87FF0BBF880
S3150800686009A87FF0B8F8D0E792F048FC044608B9C2
S31508006870AC24CAE706F5347528467DF04AFEB4F816
S3150800688082308DF8C880ADF8203121460CA894EDE9
S31508006890028B92F0A0FBCCE74FF4C8710AA884F0EB
S315080068A076F9DDF828A0BAF1000FD2D04FF4C871F6
S315080068B00BA884F06CF90B9A002ACAD04FF4C87357
S315080068C04146CDE91332304610AA1094CDE9113A63
S315080068D0159392F073FC04460028BBD14146304616
S315080068E012AA92F04DFC04460028B3D14146304620
S315080068F014AA92F022FC04460028ABD110A916A8C7
S3150800690084F03BF912A918A884F037F914A91AA833
S3150800691084F033F936AB079330AB05930DF1B80A1B
S3150800692034ABCDE903A30DF1700B0EAB8DED008BE7
S31508006930CDF818B002931AAA18A916A81BF0BAFF20
S315080069400446002886D10BA87FF045F80AA87FF0F0
S3150800695042F809A87FF03FF8B9F1000F13D1D6F82D
S31508006960640300285ED003689B6898470346D6F8F8
S315080069706403002B4ED003685A4641465B69984724
S31508006980044688B141E7D9F8003048465B6998471C
S31508006990594692F0E0FE08B9C52436E79DF8583105
S315080069A0CDF8CC908DF822319DF860315146B3FA76
S315080069B083F328465B098DF8233192F073FE04466B
S315080069C000287FF422AF28460CA992F049FB06F569
S315080069D05D7495F881303FB302211120234A9AF05D
S315080069E0B0FBD5E900122B69CDE9012100936B694B
S315080069F0022111201E4A9AF0A4FB20460F991DF089
S31508006A0071FE034630BB96F88233013386F882332B
S31508006A100024FAE603684146DB6898470028C3D194
S31508006A201024F2E60324F0E6D5E900121120CDE998
S31508006A30002102210F4A9AF084FB20460F991DF087
S31508006A4051FE03460028E3D0012111200A4A9AF094
S31508006A5078FBDDE701211120074A9AF072FBD2E79D
S31508006A60000000000000000020670E08E3650E081D
S31508006A7003660E0846660E087B660E0830A70E08E3
S31508006A802DE9F0478AB00DF10D030193152306464B
S31508006A9000934FF48072002308460C4699F02BFAAF
S31508006AA0E8B996F89630012200932046002399F01B
S31508006AB0A9F9A0B996F89730022200932046002338
S31508006AC099F0A0F958B90DF10E0301931623032284
S31508006AD000932046002399F00EFA054610B10AB035
S31508006AE0BDE8F0874FF0100906F1C8070DF1180840
S31508006AF0102200214046C3F05EFE0DF10F030193FC
S31508006B0015234FF4807200932046002399F0F3F979
S31508006B100028E4D196F89720EBB29A4251D917ED9E
S31508006B200C7BC44637F828ACA7F12603A7F1160E46
S31508006B30624618685968083303C273459446F7D104
S31508006B408DED007B04220023204699F036F90028B3
S31508006B50C5D1052200232046CDF800A099F052F9A8
S31508006B600028BCD14046494606228DE8030000238A
S31508006B702046CDE9048999F091FA0028AFD120463C
S31508006B809DF90F1099F0ECF9013530370028A6D198
S31508006B90032DADD120469DF90E1099F0E1F9002894
S31508006BA09DD1B6F88E30072200932046002399F02F
S31508006BB029F9002893D120469DF90D1099F0D0F9AE
S31508006BC08DE782469FED027BBAE700BFAFF30080F0
S31508006BD00000000000000000A0F1840050E700BF9C
S31508006BE0054B18680368D96901A3D3E90023084748
S31508006BF000E0373B015D03000409022000000000A5
S31508006C0037B5A2F0FFFE044600286ED13A4B1A8823
S31508006C109B78ADF804208DF8063031F00FFF32F07E
S31508006C2023FC32F081FB0546344B036032F00CFE40
S31508006C30284632F015FD00B9FEE72DA3D3E9002357
S31508006C404FF0FF314FF0FF3031F000FF32F070FBAC
S31508006C50214632F0C9FBA2F0D8FE01A832F0C2FCE8
S31508006C60044600B1FEE7264B264A98801860264B54
S31508006C7098801A60254B264A98621A60254A988099
S31508006C806FF06300DA6033F051FD0B2032F09EFBA3
S31508006C9032F0FCFB32F042FB00B9FEE754F0CCFEC2
S31508006CA02046A3F076F808210846A3F079F800B143
S31508006CB0FEE7A3F06CF832F087FAA2F0B7FF1021CE
S31508006CC01548B7F057FF00B9FEE714491248B7F060
S31508006CD063FF00B9FEE710218C20114A54F0C4FA6C
S31508006CE000B1FEE70F48A4F07CFB03B030BD00BF3F
S31508006CF00AE020FFE2030000A9F20E08C59B0A0875
S31508006D0068ED002040FB012038ED002008ED00204A
S31508006D10C0FA0120F8EC0020D48F01204DC10D08DF
S31508006D20C48F0120DEF10E082DE9F04389B0A2F0E8
S31508006D305AFE00B9FEE75C4D2B6803B9FEE701224F
S31508006D409B8811460DF10B008DF80B3032F000FCD4
S31508006D509DF80B102B6802390022186889B232F0A8
S31508006D60F7FB002305930793504B05AE06932B6854
S31508006D7093F82C208DF814201B681C7814F0200436
S31508006D8014D0A3F008F800285CD0A3F004F861F04A
S31508006D9025FD0B46024640A1D1E9000161F0C2FE7D
S31508006DA062F030F8079B18440124079032F014FC6F
S31508006DB09DF80B30002848D0981DC00061F01EFDD4
S31508006DC037A3D3E9002361F083FD8946804632F074
S31508006DD003FC61F003FD0B4602464946404661F056
S31508006DE0A1FE62F00FF8079B18440790A2F002FE76
S31508006DF038B132F057FB0020A2F0F8FD0020A2F0CF
S31508006E00FCFD29684B6963BBA2F010FE10B3079B13
S31508006E10274F03F5FA7307932B681B7EBB7032F076
S31508006E203BFBF870286833463A462146807932F0AB
S31508006E3071FB58B34FF480510020D5F0ACF9A3F09C
S31508006E40D4F823E00798C030AEE70798063300EB7E
S31508006E504310CAE72B6832462146987932F050FB30
S31508006E60E7E70022962004920A691A44114BA2F514
S31508006E709B7298800392887903AA2146009632F07D
S31508006E8057FB0028D6D10120A2F0DBFD09B0BDE8EA
S31508006E90F08300BFAFF300800000000060E36641A6
S31508006EA00000000080842E41C08F012020A1070029
S31508006EB0A80902209C0902202DE9F3411E461C4B15
S31508006EC0044683424FF000038B4115460AD216A3A7
S31508006ED0D3E9002362F056F81649144602462846B6
S31508006EE0A6F0D7FE144B4EF66021B4FBF3F203FB73
S31508006EF01244B4FBF1F34FF47A7801FB1344B4FB64
S31508006F00F8F728460D490097A6F0C3FE46B128466D
S31508006F1008FB17420A4902B0BDE8F041A6F0B9BE1F
S31508006F2002B0BDE8F08100BF005C26050000000045
S31508006F30FF5B260534230F0880EE3600FE6A0E082E
S31508006F403A230F080348044B834202D0034B03B18C
S31508006F5018477047001402200014022000000000A1
S31508006F60064B0749C91A891048BF0131491003D091
S31508006F70044B0BB101481847704700BF00140220A4
S31508006F80001402200000000010B5064C237843B90F
S31508006F90FFF7D8FF044B13B10448AFF30080012371
S31508006FA0237010BD36BE0120000000006CB50F0826
S31508006FB008B5054B1BB105490548AFF30080BDE888
S31508006FC00840FFF7CDBF00BF0000000030310120A8
S31508006FD06CB50F08A3F5803A704700BF174B002B16
S31508006FE008BF134B9D46FFF7F5FF00218B460F465A
S31508006FF01348144A121AC3F0DEFB0E4B002B00D0BE
S3150800700098470D4B002B00D098470020002104001C
S315080070100D000D48002802D00C48C3F068FB62F04A
S31508007020BFFA20002900B7F04AFD02F0C7F800BFF2
S315080070300000080000000000000000000812002000
S315080070400812002080040220EFA60C0800000000A9
S3150800705008B5154B4FF4E47200211846C3F0ABFB94
S3150800706009220346026142611048114A98614FF4A9
S315080070708061DA61002219629A625A62DA62C3F89A
S31508007080F0000C48C3F8F400C3F8F8100A49C3F82E
S315080070900021C3F8FC20C3F8042111F8010D985407
S315080070A00132102AF9D108BD4831012088C80D08D7
S315080070B037C2012037BE0120A1C80D082DE9F84FB7
S315080070C0DFF88880824698F800308946532B1646A2
S315080070D001D0FFF7BDFF182707FB0A87D7F800512D
S315080070E0D7F8FCB05D452FD9D7F8F840D7F8F41093
S315080070F0641BB44228BF3446484629442246C3F096
S3150800710016FAD7F8F8302544AB4208BF0025A14443
S31508007110361BABEB050B5E4528BF5E465EB11823F2
S3150800712003FB0A83D3F8F410324629444846C3F0D1
S31508007130FEF93444354424B1182303FB0A88C8F8F9
S3150800714000512046BDE8F88F0024E2E748310120C7
S31508007150F8B5182700FB0775124B0E461D4407FBAA
S315080071600033DB6A1446012B0AD0022B14D023B94C
S3150800717028467CF021FE844208D900242046F8BD22
S3150800718028467CF019FE844228BF0446224631462A
S3150800719028467CF01AFEF1E72846BDE8F8407CF060
S315080071A02FBE00BF48310120F8B50B4B04461B78AB
S315080071B00D46532B164601D0FFF74AFFEFF311870A
S315080071C04FF0200181F31188324629462046FFF701
S315080071D0BFFF87F31188F8BD483101202DE9F0413A
S315080071E0164C1E4623780546532B8846174601D06B
S315080071F0FFF72EFF082D1DD8EFF3118C4FF0200155
S3150800720081F3118865B1182005FB000344F8038053
S31508007210E2180023576000FB054216629362536228
S31508007220182303FB0544069BE3628CF311880020B0
S31508007230BDE8F0814FF0FF30FAE700BF4831012082
S315080072402DE9F843174E1F4633780546532B8946D2
S31508007250904601D0FFF7FCFE082D1FD8EFF31182E8
S315080072604FF0200181F311886DB11824002304FB27
S315080072700564C4F8F090C4F8F480C4F8F870C4F84B
S315080072800031C4F8FC30182303FB0566089BC6F8D2
S31508007290043182F311880020BDE8F8834FF0FF30EF
S315080072A0FAE700BF48310120024B1B780BB10023D7
S315080072B00373704738C6012002211D20014A99F040
S315080072C040BF00BFA2C80D0802211D20014A99F03F
S315080072D038BF00BFB2C80D0802211D20014A99F027
S315080072E030BF00BFC1C80D0870B5037C0446FE2B2D
S315080072F022D0FF2B30D00B2B37D80B2B35D8DFE815
S3150800730003F00612063434343434343434129AF022
S31508007310E8FD036841F288315D692346164AAC46A2
S31508007320BDE8704060479AF0DCFD036842F21071D0
S315080073305D69114A2346F2E79AF0D3FD03682246AF
S315080073405B6A0D4998479AF0CCFD03684FF47A7149
S315080073505D69094A2346E2E79AF0C3FD03682246B7
S31508007360BDE870405B6A044918470221BDE87040D1
S315080073701D20024A99F0E5BED9720008DBC80D083F
S3150800738048F2040210B5038893420DD006D803F5D7
S31508007390FF437F339BB2012B0AD910BD48F2120274
S315080073A09342FAD10F4A0CE0027A0F4B1A70F4E7AF
S315080073B090F90830012B03D090F90930012BECD154
S315080073C00A4A0221212099F0BCFE9AF08AFD036838
S315080073D040F6B8315C69064AA446BDE81040002369
S315080073E0604700BF18C90D0838C60120F0C80D0847
S315080073F08F3E080808B59CF095F923F0FDFB23F0AD
S315080074002DFC094826F0D2FD00224FF46171074889
S315080074108EF03AFD30B1BDE8084001212120044A2A
S3150800742099F08FBE08BD00BF80B00020A8A3002039
S3150800743054C90D0810B500220C46134813499CF090
S3150800744019FA18210A20124AD4F0FAFB114B1860CF
S3150800745040B921200121104A99F073FE40F20170CB
S315080074607CF0D8FE20460D4A0A49D4F0AAF840B95D
S31508007470212001210A4A99F064FE40F202707CF04C
S31508007480C9FE002010BD00BFB0BF002081730008F0
S31508007490D4CB0D083C34012082C90D08B0CB0D08A9
S315080074A0A5C90D0810B5054B054C187020469BF06C
S315080074B00CFF2046BDE810409BF05FBF38C6012090
S315080074C080B0002008B50C489CF013FA58B10B4858
S315080074D09BF0FBFE09489BF050FF094825F078FA17
S315080074E005489CF00FFA074B186818B1BDE8084024
S315080074F000F0C2B908BD00BFB0BF002080B00020B0
S315080075002855012020330120014608B54FF47A7228
S3150800751000238002890D61F035FD094B0146186884
S31508007520D4F0D4F950B121200121064A99F009FE78
S31508007530BDE8084040F205707CF06CBE08BD00BF8F
S3150800754044340120BFC90D0808B5074A40F6B833C8
S315080075500221212099F0F5FD40F6B830FFF7D4FF57
S315080075600122024B1A7008BDD8C90D0837C601207A
S3150800757008B5094B0A211868D4F0A8F950B121209A
S315080075800121064A99F0DDFDBDE8084040F2057084
S315080075907CF040BE08BD00BF4034012017CA0D0864
S315080075A010B5044686B0094899F0EEFD60B100238F
S315080075B0CDE903330293064B214601930223054A7C
S315080075C00093054B07F00CF806B010BD24330120D4
S315080075D0E9720008B9720008C972000808B5094BB3
S315080075E00146186858B100231822D4F069FB40B147
S315080075F0054A0121BDE80840212099F0A2BD034AA9
S31508007600F7E708BD3C3401202FCA0D085CCA0D08EF
S315080076107FB50223ADF80030044B0190684602930B
S31508007620FFF7DCFF07B05DF804FB00BF5D760008D6
S315080076308B68084603B1184702212120014A99F0B0
S3150800764080BD00BF7DCA0D0800220249024827F006
S3150800765059BD00BF29780008B0BF00200388022B57
S3150800766006D1044B1B780BB9FFF76EBFFFF7ECBFCB
S31508007670704700BF37C6012000220249024827F09A
S3150800768041BD00BFF5730008B0BF002010B5A4B017
S3150800769003AB0193812301AC029363F077FE214685
S315080076A064F080FB28B994E803002DF01BFB24B096
S315080076B010BD01212120024A99F043FDF7E700BFDA
S315080076C0ADCA0D0800230246194610B504462048DF
S315080076D0CFF082FE1F4B186040B9212001211E4AB7
S315080076E099F02FFD40F204707CF094FD00232246A9
S315080076F001211A48CFF070FE194B186040B92120B5
S315080077000121184A99F01DFD40F204707CF082FDB3
S3150800771002212120144B154A99F013FD0221144A1F
S315080077200123212099F00DFD28F0D2F80368DB6FBC
S3150800773098470120FFF7AAFF01F0B2FB0D489BF01E
S315080077400EFE0D4B0D4918700D4891F078FD10BDD1
S315080077501176000844340120C5CA0D08CB3E080836
S3150800776040340120DFCA0D08DA330E08F9CA0D08BD
S315080077701DCB0D0880B0002038C601201433012027
S31508007780409D002038B50546FFF79CFF044638B1F2
S315080077900C4827F039F920467CF03CFD204638BDD8
S315080077A02B6828469B689847044608B10648F0E7C0
S315080077B0064B1A6852F8640C1A581844526C9047CB
S315080077C0ECE700BF3ACB0D084CCB0D0880550120DD
S315080077D0482337B50E4A0F4CA2F118050093111D20
S315080077E00123284699F0BAFC224628460A49C2F0DF
S315080077F084F80023224609480949C0E90233094B9F
S3150800780003603033436003B0BDE83040C2F075B85A
S315080078103C33012090060220A73E080810330120B9
S31508007820893E080868CB0D0810B50121094827F0DC
S315080078305BFA20B163F0AAFD0121C3F0FDF8064802
S3150800784027F0B8FB28F044F8BDE8104003689B6FA2
S31508007850184700BF80550120B0BF002010B5044668
S315080078600178044827F074FAA37883F00103A3701B
S3150800787010BD00BF8055012073B503690446E3B106
S315080078804369D3B10E4B684619680B681B6998475C
S31508007890D4E90423DDE90065A178002918BF134659
S315080078A0D4E902125B1842F10002B342AA4104D29B
S315080078B02046FFF7D3FFC4E9026502B070BD00BFDA
S315080078C00409022038B500230022C0E90433002346
S315080078D004460D46C0E902230278024827F028FA32
S315080078E0A57038BD8055012001489BF039BE00BF00
S315080078F080B0002001489BF035BE00BF80B0002054
S31508007900044A08B583680260243242600BB1C2F0AB
S315080079101BFE08BD20CD0D08A0F10400F0E700BF4E
S3150800792010B50446054B03604433436014F014F95C
S315080079302046FFF7E5FF204610BD00BF882B0E083E
S31508007940A0F10400ECE700BF38B5124B044603F17A
S315080079503802C26003F14C02026103F1600242611F
S3150800796042680360743383613AB183682BB153600C
S3150800797042681A600023C0E9013304F14405284629
S3150800798086F0FCFF28467CF0C8FA201D7CF0C5FA74
S31508007990204638BD68EE0D08A0F11400D4E7A0F122
S315080079A01000D1E7A0F10C00CEE7A0F11800CBE754
S315080079B01F2008B502210C4A99F0C3FB0B4826F094
S315080079C0EFFA78B90121094825F046FF50B9084869
S315080079D081F0FCFF1F200221064A99F0B2FB0348FA
S315080079E09BF0BCFD08BD00BFECCB0D0880B00020A5
S315080079F0581500200ACC0D08F8B51E4C0025264659
S31508007A001D4F1E481E4B3A461E49C0E901550360E4
S31508007A10C560057445610583C1F06FFF1A4B294699
S31508007A2046F8D83B3246234604F1080008F06AF8BF
S31508007A3004F12003C4E93435144B3A46C4F8D83067
S31508007A40134B2046C4E9383604F1F403C4E93B3540
S31508007A5041F20A430F4984F8E85084F8F451A4F82F
S31508007A60DC30C1F04AFF3A46BDE8F8400A490B48FF
S31508007A70C1F043BF58150020900602205434012057
S31508007A8018AA0E08D1CE020830ED0D08FC950E088E
S31508007A90E0950E08713F0808173F0808E40602201B
S31508007AA07FB5044602211F20854A99F04AFB2346E2
S31508007AB002211F20834A99F044FB834D02211F208F
S31508007AC07F4A99F03EFB02211F20804A99F039FB34
S31508007AD02B784BB9284627F0C3FB00280CBF012397
S31508007AE000232B7040F0E5802146794824F06AFF90
S31508007AF063F04CFC0446C2F087FF002840F0D980AA
S31508007B00201D22F023F904F1080022F0ADF82046E2
S31508007B10C2F08FFF6F4A704B0221002818BF134628
S31508007B201F206E4A99F00DFBFFF742FF002840F030
S31508007B30C0806B4B039001936A4B6B4802939BF092
S31508007B40C2FB6A4C039001AB6948236327F034F9FA
S31508007B50002840F0AE8067489BF0C6FE664DD5E823
S31508007B60AF3FDA070BD42846A2F007FA38B1634AC2
S31508007B7063496448C1F0C1FE2846A2F003FA624D83
S31508007B80D5E8AF3FDB070FD42846A2F0F6F958B17F
S31508007B905C495E4814F044F8584A5D495B48C1F0B0
S31508007BA0ACFE2846A2F0EEF95A4D584B28462364F7
S31508007BB025F098F92369A5631BB9574B574A2361E2
S31508007BC05A60E36B53BB564D6B68002B70D105F1B9
S31508007BD0140026697CF0EAF905F11C007CF0E6F948
S31508007BE0EB6803B92B7295F834304E4823F0050339
S31508007BF085F834307CF0DAF94B487CF0D7F995F8FB
S31508007C0034304A4823F0180385F834307CF0CEF92E
S31508007C1000236E602B7285F83430E563236C0BB94C
S31508007C20434B2364434D444B28462169636292F0D3
S31508007C3074FD636A28462B6191F045FF002838D108
S31508007C4022692562002A36D03C4B3D4D5A60636155
S31508007C5002F090FE3B4B0221A0623B4A2120E362E0
S31508007C6099F06FFA2846216916F082FA08BB20694E
S31508007C70A56195F0B0FF354B2169606434482360EF
S31508007C809AF0F4F8324822F051F81849314815F0BC
S31508007C90EBFD044617489BF035FE3CB92E4826F006
S31508007CA0B3FE144827F06EFA044630B1204600E0C9
S31508007CB0032004B070BD2F20FBE700F0AFF8F5E70E
S31508007CC034CC0D0867CC0D08A8BF002073CC0D086E
S31508007CD02855012023CC0D082BCC0D0883CC0D0884
S31508007CE0E9780008F578000880B000209806022098
S31508007CF080550120B0BF00204C3401209006022098
S31508007D00193F08089406022048340120081200206A
S31508007D10217900085434012084070220EAF801205A
S31508007D20184901203C4901204449012024490120E1
S31508007D30C8730020AC46012064070220A44601202F
S31508007D40684601206807022095CC0D0810330120EB
S31508007D50E406022060770020C5CC0D0810B513484C
S31508007D60FFF79EFE08B17CF055FA11489BF0BCFD62
S31508007D7063F00CFB00B10C301AF010FB0C489BF0BA
S31508007D80C1FD1F2002210B4A99F0DBF90A485EF073
S31508007D90B9FC08B17CF03EFA084C2068D3F085FCA3
S31508007DA008B1C2F0D1FB206010BD00BFEACC0D08B7
S31508007DB0B0BF0020F3CC0D089CA701205034012049
S31508007DC010B50A489BF02CFD0021094A0948D3F052
S31508007DD0F8FB094C02212060084A1F2099F0B1F9E6
S31508007DE023680BB9C2F0B0FB10BD00BF8055012057
S31508007DF05CCD0D085D7D00085034012005CD0D08C9
S31508007E00014820F081BC00BFF04A0120024B012145
S31508007E101868D3F0A3BC00BF7034012010B50A4817
S31508007E2020F0C4FB044608B1C2F08EFB01F09EFDAB
S31508007E3001F0E4FD2146054A0548D3F0C2FB054B8F
S31508007E4018600028F0D010BDF04A012088CD0D0832
S31508007E50017E00087034012010B5044601210C206B
S31508007E60064A99F06EF90023E068A36020B1BDE8E0
S31508007E70104003689B68184710BD00BFACCD0D08BD
S31508007E80A0F10400E8E700BF10B50A4CD4E8AF3FFC
S31508007E90DB070DD42046A2F070F848B10648074B18
S31508007EA0074A08490360C1F028FD2046A2F06AF88F
S31508007EB0014810BDD8340120DC340120BC8E0E08E0
S31508007EC090060220DB3F080810B504460B4B0360FA
S31508007ED06433436000F50E702DF0C4FF636A23B166
S31508007EE0002204F11C0062629847236923B100222C
S31508007EF004F1080022619847204610BDE0010E08EB
S31508007F00A0F10400E0E700BF10B50446034B40F8B3
S31508007F10343B7CF078F8204610BD00BFDCFD0D0828
S31508007F2037B5C0680D46144638B901210C200E4AEB
S31508007F3099F007F9002003B030BD1A68214601926E
S31508007F4000221A6001AA0AF0CDF801A87CF05BF8B5
S31508007F50A38823B9E38813B92378402BEAD02B8961
S31508007F6043F040032B81E5E7BFCD0D08A0F10400DF
S31508007F70D6E700BF73B516480AF070FA1549164ACF
S31508007F80D1F8AC34154E164D5360A1F54051334621
S31508007F900F4800950AF03EFB124B336125F07CFA38
S31508007FA0044602460A4930460BF070FA294620462E
S31508007FB025F006F940B10C4826F026FD6D210B4B3D
S31508007FC00B4A0C4861F0E4FF6C6002B070BD00BF5C
S31508007FD03018002060A700200C070220EC060220BB
S31508007FE05017002080510100F2CD0D080ECE0D0865
S31508007FF023CE0D0841CE0D0870B500243248334B08
S31508008000334E03606433436000F10803C0E902336A
S31508008010304BC0E90440836100F11C03C0E9073313
S315080080202D4BC0E90940C0E90B342C4BC0E90D447F
S315080080304364203383640523C0E92044C0E922440D
S31508008040C0E9644480F83C40046480F8744080F8D1
S315080080509841C0F89C4180F8A04180F8B84180F862
S31508008060D04180F8E841C0F81C321D4B32461D4904
S315080080701D4DC0F83832C0E98F4480F80042C0F878
S31508008080184280F8204280F84442C1F036FC324655
S3150800809016491748C1F031FC324616491648C1F050
S315080080A02CFC2846154B6C6040F8103B2C7227F0C8
S315080080B047FCC5E93444C5E9364432462846BDE896
S315080080C070400F49C1F019BC30180020E0010E08B5
S315080080D09006022065300108DD240108C8CE0D0887
S315080080E074DA0E08C97E000850170020EF3F08080A
S315080080F00C070220F13F0808EC060220DCFD0D08FB
S31508008100097F0008012903BF034B00201B78A6201E
S3150800811008BF1370704700BF49DF0120022938B530
S3150800812014461D460FD1202200210848C2F043FB01
S315080081303CB1202D2A46214628BF20220348C2F0FA
S31508008140F6F9002038BDA620FCE700BF29DF01208C
S31508008150104608B56AB163B102290CD1202B28BF95
S3150800816020231A46029B05491A60C2F0E0F900204E
S3150800817008BD2F20FCE7A620FAE700BF29DF01206B
S31508008180012905D102B11278024B00201A707047F6
S31508008190A620704749DF01202DE9F0431D4600233C
S315080081A089B0074608460E461446CDE9053327F03A
S315080081B041F918B9D82009B0BDE8F083304605A9B9
S315080081C027F004FA0028F6D1204627F033F90028CC
S315080081D0F0D0204606A927F0F9F90028EBD1DDE909
S315080081E00586079007A9124827F0F0F90446D8B97A
S315080081F0079B18EB030902D10EB1C2F0A5F900934B
S3150800820002213B461F20CDE901860A4A98F099FFCC
S315080082106B689E420AD8324649462868C2F0B1FAC7
S315080082206B689E42E9D86E602046C4E71924FBE7CE
S315080082302172080038CF0D08014827F017BB00BF88
S3150800824000720800002307B50348019301AB27F025
S3150800825011FA03B05DF804FB00720800014827F024
S31508008260C1BA00BF0C72080010B506480C4627F0C4
S3150800827081F940F20123984202BF4FF6F173238039
S31508008280002010BD0C720800014827F0EFBA00BFA5
S315080082900D72080073B5002601AB0C480C4615464E
S315080082A0019627F0E7F940F20123984208D14CB12C
S315080082B0062D09D920462946054A7BF01AFF30467D
S315080082C002B070BD0B20FBE71920F9E70D72080014
S315080082D056CF0D08014827F085BA00BF0B72080073
S315080082E010B506480C4627F045F940F20123984296
S315080082F002BF48F205032380002010BD0B72080058
S31508008300014827F0B3BA00BF0E72080073B50026FD
S3150800831001AB0C480C461546019627F0ABF940F21E
S315080083200123984208D14CB1062D09D92046294681
S31508008330054A7BF0DEFE304602B070BD0B20FBE737
S315080083401920F9E70E7208005DCF0D08014827F0DD
S315080083508DBA00BF10720800002307B503480193C1
S3150800836001AB27F087F903B05DF804FB107208002B
S31508008370014827F07BBA00BF11720800002307B531
S315080083800348019301AB27F075F903B05DF804FBC8
S3150800839011720800014827F069BA00BF1272080076
S315080083A0002307B50348019301AB27F063F903B02F
S315080083B05DF804FB12720800014827F013BA00BFE3
S315080083C01872080010B506480C4627F0D3F840F294
S315080083D00123984202BF01232380002010BD00BF5D
S315080083E018720800014827F041BA00BF0F7208004A
S315080083F073B5002601AB0C480C461546019627F0C6
S3150800840039F940F20123984208D14CB10C2D09D90B
S3150800841020462946054A7BF06CFE304602B070BD00
S315080084200B20FBE71920F9E70F72080067CF0D0844
S31508008430014827F01BBA00BF04720800014827F05C
S3150800844019B900BF04720800014827F029BA00BF0D
S315080084501F72080007B500200090034827F060F94E
S3150800846003B05DF804FB00BF1F720800014827F03F
S31508008470B9B900BF0772080013B510480C4627F0B3
S3150800848079F840F201229042034604D14FF4706312
S31508008490238000230FE070B92388B3F5805FF8D3F3
S315080084A04FF4C2732F240121CDE90034044A054B49
S315080084B098F047FE2346184602B010BD077208001A
S315080084C094CF0D0874CF0D08014827F0A3B900BF53
S315080084D00872080010B506480C4627F077F840F2EF
S315080084E00123984202BF4FF47A732360002010BD1F
S315080084F008720800014827F0B9B900BF09720800D8
S31508008500014827F0B7B800BF09720800014827F0EC
S31508008510ADB900BF0A720800014827F0ABB800BF22
S315080085200A7208000B4610B5084A0C46084809495D
S31508008530FFF732FED82807D119F0BCFF0368214699
S31508008540BDE810409B68184710BD00BF2772080099
S31508008550A5CF0D08267208000B4610B5084A0C462A
S3150800856008480949FFF718FED82807D119F0A2FFCD
S3150800857003682146BDE810405B69184710BD00BF77
S3150800858025720800C1CF0D08247208000B4610B5E5
S31508008590084A0C4608480949FFF7FEFDD82807D1BE
S315080085A019F088FF03682146BDE810401B69184783
S315080085B010BD00BF23720800E7CF0D08227208001D
S315080085C0022307B501A8D1E90012019362F000FE63
S315080085D018B90199024827F01DF903B05DF804FBA4
S315080085E0207208001FB5022003900698009003A881
S315080085F062F006FE18B90399024827F00BF905B090
S315080086005DF804FB20720800002370B5164886B092
S315080086100D461646049326F00DFFE8B1124804A944
S3150800862026F0D4FFB0B9049B3246002B08BF0223BC
S31508008630294605A8059362F04BFE04460290736826
S315080086401F2001936B6802210093084A049B98F047
S3150800865078FD204606B070BD19F02CFF0368324637
S3150800866029469B699847E8E72072080000D00D085C
S31508008670014827F0CFB800BF21720800014826F04C
S31508008680A5BF00BF21720800014827F0EFB800BF58
S3150800869029720800014826F0EDBF00BF29720800BC
S315080086A0014827F0FDB800BF0572080007B500208D
S315080086B00090034827F034F803B05DF804FB00BFC8
S315080086C005720800014827F075B800BF287208002F
S315080086D0014826F023BF00BF287208000020094B76
S315080086E010B5186032B9084C2146BDE81040074855
S315080086F027F090B8A1F5005105488C189BF0A1F811
S31508008700F2E700BFE034012000E0170821720800F4
S315080087108055012000232DE9F04F85B080460F468D
S315080087202C4803A91546039326F050FF002838D194
S31508008730294E039933681BB928489BF063F880BB18
S31508008740D5E900143368039A02EB030B14F003030C
S315080087501BD10A462346594620489BF059F800BBC8
S315080087604046316827F056F8D8B93846696827F080
S3150800877051F8B0B932686B680020134413F03F0211
S315080087801CBF40339B1A33600BE004F1040AAAEBC2
S31508008790030A5046019121F0A1FF0199814618B9B3
S315080087A0AC2005B0BDE8F08F2246C1F0C0FEAAEBAA
S315080087B00402FF2109EB0400C1F0FDFF53464A46B7
S315080087C0594606489BF024F80446484621F0AAFF75
S315080087D02046C4E721720800E034012080550120B4
S315080087E008B50A4602480349FFF794FF08BD00BFCB
S315080087F0227208002372080008B50A46024803498F
S31508008800FFF788FF08BD00BF24720800257208001C
S3150800881008B50A4602480349FFF77CFF08BD00BFB2
S315080088202672080027720800DFED0B7AB4EEE70A15
S31508008830F1EE10FA08B50CD9DFED087ADFED080A73
S3150800884030EE670A61F028FFDFED067A20EE270A88
S3150800885008BD9FED050AFBE7000084420000704250
S31508008860D46608BE70D9A44300007F439FED107AF2
S31508008870B4EEC70AF1EE10FAF0EE407A08B50AD857
S3150800888061F0DAFE9FED0B7ADFED0B7AE0EE077A00
S31508008890B0EE670A08BD9FED090ADFED090A37EE53
S315080088A0C00A61F0F9FEDFED077A20EE270AF1E744
S315080088B0000084420DF1C6429C1E2143000070420E
S315080088C087A79ABDA30F9043DFED117AB4EEE70AA6
S315080088D0F1EE10FA08B515DAF3EE037AB4EEE70A04
S315080088E0F1EE10FA11D9F2EE047A30EE670A61F069
S315080088F0A3FE9FED087ADFED087AE0EE077AB0EE80
S31508008900670A08BD9FED050AFBE79FED050AF8E72C
S31508008910000084428A840A43BC85984300007F434A
S31508008920000000009FED0C7AB4EEC70AF1EE10FACB
S3150800893008B506D89FED097A60EE077AB0EE670AA1
S3150800894008BDDFED070A61F0A7FE9FED067ADFEDA9
S31508008950067AE0EE077AF1E7BD3A473B52B84E4150
S315080089605555D53E3D0A873FAE4761BDDFED117AC5
S3150800897020EE270A60EEA70ABCEEC07A21EE271A77
S3150800898086B08DED017ABCEEE07AFCEEC17A8DED0B
S31508008990027A0020CDED037A9DF8043063F30700D0
S315080089A09DF8083063F30F209DF80C3063F31740E9
S315080089B006B0704700007F43DFED3C7A10B5B0EE95
S315080089C0407A2DED048B20EEA70A9FED399ADFED4C
S315080089D0397A20EE899AA7EE270ADFED377AA7EECD
S315080089E0279ADFED367AA1EE279ADFED357A20EE63
S315080089F0A78ADFED347AA7EE278ADFED337AA1EE70
S31508008A00278ADFED327A82B0A1EE270A0446FFF7FD
S31508008A1089FF2046F0EE408AB0EE490AFFF782FF4A
S31508008A202046B0EE409AB0EE480AFFF77BFFF5EE17
S31508008A30C08AF1EE10FAB0EE401A2DD4F7EE007A9D
S31508008A40F4EE678AF1EE10FA77FEA88AB5EEC09AB8
S31508008A50F1EE10FA23D4F7EE007AB4EE679AF1EE47
S31508008A6010FA37FE899AB5EEC01AF1EE10FA19D443
S31508008A70F7EE007AB4EE671AF1EE10FA37FE811AAD
S31508008A80F0EE490AB0EE680A204602B0BDEC048B47
S31508008A90BDE81040FFF76ABFDFED0D8AD6E79FED08
S31508008AA00C9AE0E79FED0A1AEAE700BF86C9C4BF39
S31508008AB0C520F03F8B6C4F407E1D78BFC3642A3DAE
S31508008AC060E550BED3BC633DC74B873F8048FFBEB9
S31508008AD00000000007EE901A9FED267AF8EE677AF6
S31508008AE010B52DED048B87EE279A82B0B0EE490AB1
S31508008AF00446FFF799FE2046F0EE408AB0EE490A92
S31508008B00FFF7B4FE2046B0EE408AB0EE490AFFF7FA
S31508008B10DBFEFCEEE87A17EE903AFCEEC87A8DF8A2
S31508008B20003017EE903AFCEEC07A8DF8013017EE59
S31508008B30903A8DF8023000990022FF2320467BF0F8
S31508008B4047FB8DF80000C0F30721034610468DF851
S31508008B500110BDF80010C3F30743CAB262F3070059
S31508008B60C1F3072161F30F2063F3174002B0BDEC90
S31508008B70048B10BD00401C4606EE902A07EE103AFC
S31508008B80DFED105A07EE901AF8EE666AB8EE477AE5
S31508008B9086EEA56AF8EE677AC7EE256AB7EE001A7A
S31508008BA09FED097A31EE461AC7EE870A31EE661A44
S31508008BB080EEA60A21EE001A20EE060A82B002B05E
S31508008BC0FFF7FABE00FF7F4700007E43F7B50C4665
S31508008BD0074615461E467BF089F901460B4826F0DE
S31508008BE061F888B123460221094A1D20CDE90056BD
S31508008BF098F0A7FA38467BF079F92B4601462246C3
S31508008C000248009626F058F803B0F0BD80550120BA
S31508008C104BD00D0807EE901A2DE9F041F8EEE77AE9
S31508008C202DED068BDFED67AADFED679A07EE102AB2
S31508008C3067EEAA7AC7EEA98AF8EEC77A84B087EEF5
S31508008C40A99A80467BF056F9B5EEC09A07EE900AC7
S31508008C50F1EE10FAF8EEE77A9FED5CAA87EEA98A9C
S31508008C6011D828EE0A8AFCEEC87ACDED017A9DF86D
S31508008C7004301A461946404604B0BDEC068BBDE8DA
S31508008C80F041FFF7A3BFF4EE6A8ADFED517AF1EE01
S31508008C9010FA67FEA88ADFED4F7AC8EEA79AFDEEAE
S31508008CA0E9AAF8EEEA7A18EE100A79EEE79A5FF082
S31508008CB0B7FD044619EE100A0D465FF0B1FD0246EF
S31508008CC00B4606460F46002043495FF049FC2246FC
S31508008CD02B465FF0FDFD60F0B5F869EE297A08EEDF
S31508008CE0900A17EE900A5FF09BFD02460B4600209D
S31508008CF039495FF035FC22462B465FF0E9FD60F006
S31508008D00A1F809EE100A19EE900A5FF089FD0246ED
S31508008D100B46002030495FF023FC32463B465FF0A5
S31508008D20D7FD02460B4600202B495FF019FC224668
S31508008D302B465FF0CDFD60F085F81AEE902A07EE17
S31508008D40900A042A36D8DFE802F0030720252C000B
S31508008D50B0EE489AB0EE678A68EE8A8A28EE0A8AE2
S31508008D60FCEEE87A29EE0A9ACDED017AFCEEC87A8D
S31508008D70CDED027AFCEEC97ACDED037A9DF8043082
S31508008D809DF808209DF80C1075E7B0EE689AF0EE8D
S31508008D90678AE1E7F0EE497AB0EE689AF0EE488A1B
S31508008DA0D8E7B0EE487AB0EE679AB0EE688AF0EE89
S31508008DB0478AD1E7F0EE497AB0EE489AB0EE688A6B
S31508008DC0E5E700BF0000B44300007E4300007F4390
S31508008DD000000000000070420000F03F37B50D4665
S31508008DE00446FFF777FEC0F30723C0F307428DF862
S31508008DF004008DF805308DF806202B4602211D202B
S31508008E00074A98F09EF920469DF806309DF80520F9
S31508008E109DF8041003B0BDE83040FFF7D7BE00BF89
S31508008E2065D00D087FB504460B460D461646022149
S31508008E3000921D200B4A98F084F920467BF05AF8D8
S31508008E40334601462A462046FFF796FEC0F30743F7
S31508008E50C0F30722C1B2204604B0BDE87040FFF750
S31508008E60B5BE00BF78D00D08014822F077B800BF1C
S31508008E70384C012008B500220249034897F0F8FD4E
S31508008E80002008BD05810208E43401200A4608B915
S31508008E90FFF7F0BF0146014897F00BBEE434012006
S31508008EA008B50222054906481FF05EFBBDE80840E2
S31508008EB00122044904481FF057BB00BF3CD10D08E6
S31508008EC0E434012030D10D08F04A01200122024B7A
S31508008ED083F80421704700BFE434012000210446CA
S31508008EE000B589B01A2201A80091C1F064FC234696
S31508008EF0074A1E21684661F06BF96946054825F060
S31508008F0083FD68467BF089F9CFF0C8FCC1F01CFBED
S31508008F1054D10D086AD10D082DE9F04F0446D0E961
S31508008F200076384B87B0D3F828B0D3F82CA0D3F8FE
S31508008F303490D3F83880D0E90253019303690121AC
S31508008F4002934369304A039383690493C3690020F3
S31508008F5005932E4B1B6898F0F4F85B460121002018
S31508008F602B4A98F0EEF8534601210020294A98F03A
S31508008F70E8F84B4601210020274A98F0E2F84346D4
S31508008F8001210020254A98F0DCF82346012100201B
S31508008F90234A98F0D6F800F023FB3B46012100202F
S31508008FA0204A98F0CEF83346012100201E4A98F050
S31508008FB0C8F82B46012100201C4A98F0C2F8012166
S31508008FC00020019B1A4A98F0BCF801210020029B58
S31508008FD0184A98F0B6F801210020039B164A98F023
S31508008FE0B0F801210020049B144A98F0AAF8012140
S31508008FF00020059B124A98F0A4F800F0F1FAD2F086
S3150800900036FFFEE700ED00E0CBD10D08B4400120A5
S31508009010E1D10D08F7D10D080DD20D0823D20D08A0
S3150800902039D20D084FD20D0865D20D087BD20D082E
S3150800903091D20D08A7D20D08BDD20D08D3D20D08BE
S31508009040E9D20D08024B034A1A607BF0E7B800BF65
S31508009050B440012044524148024B034A1A607BF04F
S31508009060DDB800BFB44001204655504D024B034AB7
S315080090701A607BF0D3B800BFB4400120465355426E
S31508009080024B034A1A607BF0C9B800BFB4400120FE
S3150800909054465355024B034A1A607BF0BFB800BFCB
S315080090A0B440012054464353024B034A1A607BF0EE
S315080090B0B5B800BFB44001204E4D4244012108B561
S315080090C00020064B064A98F03CF800F089FAD2F0E0
S315080090D0CEFE0449044860F087FAFEE7FFD20D0881
S315080090E059FC0E089BD10D08B2D10D0800240D4677
S315080090F000B59BB06022214602A80194C1F05BFB33
S315080091002B466421094A01A861F062F8012120462C
S31508009110074A01AB98F015F800F062FAD2F0A7FEFC
S315080091200449054860F060FAFEE700BF22D30D083F
S3150800913059FC0E089BD10D08B2D10D08034B0360EC
S31508009140034B0B604FF4A073136070475040012027
S31508009150503B0120034B0360034B0B604FF4A07395
S3150800916013607047EC3A0120EC35012000240D46C7
S3150800917000B59BB06022214602A80194C1F01BFBF2
S315080091802B466421064A01A861F022F801212046EF
S31508009190044A01AB97F0D5FF00F022FAC1F0D4F9E2
S315080091A035D30D0859FC0E08024B034A1A607BF0AA
S315080091B035B87047B4400120474F44572A2108B5AF
S315080091C0024800F059F9B4F0A1FEFEE745D30D08B0
S315080091D0024B01211868D2F0C1BA00BF80410120B4
S315080091E00D4BD9889A8889B292B2914211D0D98802
S315080091F09A8889B292B291423DBF9A88D8881B89CB
S31508009200D8882DBF9B8813FA80F0801AC01A80B2BE
S3150800921070470020704700BFB8400120F8B50E46D9
S31508009220074608B9C1F090F9154D2C898C42F9D337
S31508009230FFF7D6FF201A80B286421BD8EB88E8884B
S31508009240E41AA4B2A6422B6815D92246394613FA5F
S3150800925080F0C1F06CF92868321B3919C1F067F93A
S31508009260EB8816FA83F12B89B1FBF3F203FB121193
S3150800927089B2E980F8BD3246394613FA80F0EDE73F
S31508009280B840012038B50446D2F0EBFF0121054667
S315080092900846D1F0CBF82846D2F0DEFF0C480D4B35
S315080092A02146B4F8002100684EF0E6FF4FF0FF3281
S315080092B000210120D2F093FAD2F0D3FF0446002110
S315080092C00120D1F0B3F82046BDE83840D2F0C4BF3B
S315080092D0280C0220D1910008002370B5174CC2B0A3
S315080092E0174DADF804318DF806314FF0FF330022E3
S315080092F0206801A9D2F018FD0028F6D19DF806616C
S3150800930001A8FFF7BFFF4EB140F60D23ADF80430B4
S31508009310022301A8ADF80431FFF7B4FF2A6852B159
S31508009320084901A860F088FF0023ADF8040101A8E8
S315080093302B60FFF7A7FF00231A46D9E7144101203F
S31508009340184101206FD30D082DE9F843DFF8508046
S315080093501E46B8F800901546A3EB09070D4BFFB259
S315080093601C89FFF73DFF241AA4B2A74207D839463D
S3150800937005EB0900FFF752FF0023A8F8003006485E
S3150800938032462946054B00684EF0C4FEBDE8F84350
S31508009390FEF73CBDB8400120280C0220499300087E
S315080093A088B9012070B5204E3468002C3BD14FF4A3
S315080093B082711E4A0A20D2F043FC1D4D1D4A2860C0
S315080093C021461D48D2F0FDF81C4B1D4A9C801A60A8
S315080093D04FF4807230601A81DC8008B9C1F0B4F8A5
S315080093E02B68002BFAD0174C8022174B1749206898
S315080093F04EF090FE8022144B154920684EF08AFEE6
S315080094000B2051F0A3FE0B2051F05AFE1422114BEB
S315080094100521DA640422A3F580531A650E48BDE8CF
S315080094207040B4F092BB70BD8041012084D30D0812
S3150800943014410120A4D30D08D9920008B840012090
S315080094404ADF0120280C022049930008F2EE012089
S3150800945072EE01200020015B0000015B08B5FEF7F3
S31508009460D5FC0421034B03F500521165D164DB6C6E
S3150800947008BD00BF0000015B70B50C460546C2B0CA
S3150800948018B94FF0FF3042B070BD4B1EFF2BF8D80D
S315080094900C4E33680BB9FFF785FF00232246294691
S315080094A001A88DF80631C1F042F84FF0FF331822B3
S315080094B0306801A9ADF80441D2F002FC0028E0D1D9
S315080094C020B2E0E71441012010B50C46C2B00146AF
S315080094D0D0B1631EFF2B17D8224601A8C1F027F882
S315080094E001230B488DF8063118220023006801A9CC
S315080094F0ADF80441D2F0E4FB10B920B242B010BD79
S31508009500044A1368013313604FF0FF30F6E700BFD3
S3150800951014410120184101200422F0B52C4B0C46B9
S31508009520074685B01A6500284FD000294DD0FFF7A9
S3150800953057FEA04219D2D2F0A7FE05462548264E68
S3150800954003AB01A9006802AAB4F050FA338802995D
S315080095508B4207D20198C91A184489B2FFF75EFEF2
S31508009560029B33802846D2F08AFE1C4D2E89B442CF
S3150800957001D9C0F0E9FFFFF733FEA04228BF204615
S31508009580AB8884B2F61AB6B2A6422B68A98817D257
S31508009590324613FA81F13846C0F0C9FF2968A21B82
S315080095A0B819C0F0C4FFAB882A8914FA83F3B3FB51
S315080095B0F2F102FB11339BB2AB8020B205B0F0BDCD
S315080095C02246384613FA81F1EBE74FF0FF30F5E70C
S315080095D00010015B280C022088B90120B840012040
S315080095E0002330B50B4CC3B00B4DADF804318DF8E4
S315080095F00631002320681A4601A9D2F095FB08B166
S3150800960043B030BDBDF80421286801A94EF08EFB91
S31508009610EFE700BF14410120280C02200A46014644
S3150800962020B11AB1024B18684EF080BB704700BFD4
S31508009630280C022008B5082021F050F818B100239C
S315080096404360014B036008BD10D40D0808B5082017
S3150800965021F044F818B100234360014B036008BDAC
S315080096602CD40D08436843B9054B0B6005234B60A2
S31508009670436801334360012070470020704700BFEC
S31508009680C8D30D08042370B5144645688AB0ADF8EA
S3150800969002302B680A4601A805499E687AF029FE19
S315080096A0224628460DF1020301A9B0470AB070BD4B
S315080096B0CED30D0830B54468134622688BB01569B9
S315080096C001A80A4603497AF014FE204601A9A847CC
S315080096D00BB030BDDBD30D0830B58DB044680192B0
S315080096E023680A4603A80649DD687AF002FE0423C1
S315080096F020460DEB030203A9A8470DB030BD00BFF5
S31508009700CED30D08F0B5A3B0064617A81F460C46DB
S31508009710154696F0C0F92A2217A80CA996F0CEF994
S315080097200DF10B03019315234FF48072009317A8CC
S31508009730002396F0E0FB50BB97E80300154B8DE835
S315080097400300D3E9002317A896F0ADFCF8B9D7E9CA
S315080097500201114B8DE80300D3E9002317A896F000
S31508009760A2FCA0B99DF90B1017A896F0F9FB70B9E1
S315080097707668224633680949DF6803A82B467AF0DB
S31508009780B8FD3046BDF874300CAA03A9B84723B013
S31508009790F0BD00BF78D40D0870D40D08DBD30D08D2
S315080097A013B5044608460A4B1146C4E9003000239F
S315080097B0C4E903330193036822815B6A01AA9847C7
S315080097C010B9019BC4E90303204602B010BD00BFCF
S315080097D0F4D30D082DE9F041D0E90332934204464B
S315080097E00D469EB003D300201EB0BDE8F0812A26A0
S315080097F042683B495768ADF802603A68D2F8088073
S31508009800028910A87AF075FD38460DF1020305AAFB
S3150800981010A9C0470028E6D110A895F07FFC32466B
S3150800982005A910A895F0BDFC4FF4807200231521F8
S3150800983010A896F04FF80028D5D10DF1010110A80F
S3150800984095F082FE0028CED1264BCDE90100D3E95A
S315080098500023CDE9030010A896F02FF80028C2D1FE
S3150800986001AE314610A895F032FF0028BBD11E4B39
S3150800987010A8D3E9002396F020F80028B3D10DF1FB
S315080098800C08414610A895F022FF0028ABD110A875
S3150800989096F008F80028A6D19DF9011010A895F0B1
S315080098A0ADFF00289FD196E8060004F1140704F1DD
S315080098B0250638467AF043FD98E8060030467AF0E1
S315080098C03EFD3846C0F0C8FEC5E900703046C0F017
S315080098D0C3FEC5E90260E36801200133E36083E75C
S315080098E0DBD30D0878D40D0870D40D08F8B50546F5
S315080098F00E460024094FAC4206DB1EF095FF0849C8
S3150800990097F040F90020F8BD1EF08EFF56F8242087
S31508009910394697F037F90134EDE700BF02180F080A
S3150800992082D40D08F8B505460E460024064FAC420B
S3150800993001DB0020F8BD56F824303A4602211C20E7
S3150800994097F0FFFB0134F2E759FC0E0810B51EF03C
S315080099506BFF044693F0D1FB03490246204697F075
S3150800996011F9002010BD00BF80D40D08032202495A
S3150800997002481EF0F9BD00BFD4D40D08F04A0120F4
S315080099802DE9F04700240646E0B088464FF4BE723B
S31508009990214601A80094C0F00EFFA64228DD6D46B8
S315080099A04FF0200958F824A05046C0F055FE60AB89
S315080099B02F189F4202461DD228465146C0F0DDFDAB
S315080099C07D1C60AB9D4204F101042CBF3D4687F81F
S315080099D00090A642E6D1084899F0C2FD6846CAF04A
S315080099E0C9F8054899F0BEFD002060B0BDE8F087CB
S315080099F02F20FAE71920F8E780B000200122024953
S31508009A0002481EF0B1BD00BF20D50D08F04A01205E
S31508009A100122024B83F80421704700BF84410120CC
S31508009A2010B50446054B036000F5CF6098F0A1F920
S31508009A3023690BB1C0F088FD204610BD94920E082C
S31508009A4070B504460B4B00F5387503F12C0203601C
S31508009A504C334260836000F11006B54207D055F8D2
S31508009A60080C283D0028F8D02BF0C8FBF5E720465F
S31508009A7070BD00BF44CB0E08A0F10400E0E7A0F1DA
S31508009A800800DDE710B5094B04460360084B836000
S31508009A90006948B143680BB9C0F056FD013B436005
S31508009AA013B903681B6B9847204610BD20D60D08CE
S31508009AB098D70E0810B50446034B40F80C3BFFF741
S31508009AC0E1FF204610BD00BF44D60D080022002342
S31508009AD010B5C0E90023C0E90223C0E904230D4BF1
S31508009AE004460021836121226030C0F064FE4FF6EF
S31508009AF0FF720023A4F882204FF48072204684F86F
S31508009B008130A4F88420C4F888307AF002FD204613
S31508009B1010BD00BF30A70E0800F1080373B5044650
S31508009B200D46036011B91048C0F09FF80846C0F00A
S31508009B3093FD0F2805EB0006019007D90022204661
S31508009B4001A95EF00BFB019B2060A3603246294603
S31508009B502068C0F0D8F800212046019B226863607F
S31508009B60D15402B070BD00BF2CD50D0810B50446FF
S31508009B70044B0360406A7AF052FCE0687AF05CFDB8
S31508009B80204610BDD0D50D0870B5164605460C46BC
S31508009B908CB0114668467AF0A1FC294630467AF020
S31508009BA00FFC641B0A4BE4105C43694606A87AF06E
S31508009BB095FC2246002106AB28467AF07DFD06A8CC
S31508009BC0C0F064F86846C0F061F80CB070BD00BF1C
S31508009BD0ABAAAAAA2DE9F04F4FF0180B0446174670
S31508009BE00E468DB000EB0B08351BB5F5C07F22DDA0
S31508009BF03F4BED105D4367BB4FF01808AF1E7F1053
S31508009C00684608FB07417AF069FC694606A87AF0B7
S31508009C1065FC20462A46394606AB7AF04DFD06A86D
S31508009C20C0F034F857B96846C0F030F8331B182B23
S31508009C30A6F1180607DC0DB0BDE8F08F6846013FAF
S31508009C40C0F024F8DCE7324631462046FFF79CFF91
S31508009C50ECE76D100BFB0545404629467AF027FDD3
S31508009C60A6F11809C246494660B128467AF01FFD92
S31508009C7008B129460BE0494640467AF018FD28B156
S31508009C80494604E040467AF012FD10B341462046A4
S31508009C90C0F079F83546504621467AF008FDD14697
S31508009CA00AF1180A0028F6D1A5F1180A51462046E5
S31508009CB07AF0FDFC5546AAF1180A0028F6D1A945FE
S31508009CC00ED3013F31463A464846FFF783FF4E46D4
S31508009CD08AE7494628467AF0EAFC0028C9D0CFE741
S31508009CE029464846C0F04FF809F1180AD3E700BFDD
S31508009CF0ABAAAAAA2DE9F043884205460E4687B0C4
S31508009D0005D0DFF8608000F11804A64202D107B03A
S31508009D10BDE8F083294620467AF0C9FC04F1180705
S31508009D20E0B1214668467AF0D9FBB946641BE410CF
S31508009D3008FB04F4002C08DC284669467AF040FB48
S31508009D406846BFF0A3FF3C46DFE7A9F13001A9F159
S31508009D50180948467AF034FB013CEBE720467AF0CE
S31508009D600FFDF0E7ABAAAAAA2DE9F041036886B071
S31508009D709B6A0446984701210346394A242097F0EE
S31508009D80E0F9236821466846DB6A9847039E002463
S31508009D9030460DF10408404505D1324B9C4206DD9C
S31508009DA03148BFF065FFBFF006FE0134F3E7182718
S31508009DB067431CB13846B4F008FD044625464645B7
S31508009DC02CD1AC4217D0294B2E1BF2105A43B2FAAB
S31508009DD082F2C2F11F02294620465200FFF7FAFE18
S31508009DE0B6F5C07F2ADD04F5C07631462046FFF772
S31508009DF081FFB5421DD12646DFF87480B54222D1CF
S31508009E002646B54227D11CB139462046B4F0EDFCAA
S31508009E1002987AF004FB06B0BDE8F081284606F100
S31508009E2010017AF01BFB3046BFF0C5FD1835064613
S31508009E30C5E730467AF0A4FC1836DAE72946204604
S31508009E40FFF758FFD7E742460121242056F8183B6A
S31508009E5097F077F9D2E73046BFF018FF1836D0E703
S31508009E605ED50D08555555058FD50D08ABAAAAAA76
S31508009E70C0D50D08F8B50025474C60199035FFF791
S31508009E8025FEB5F5347FF8D100254448FFF71EFEB8
S31508009E900026C4E9D855C4E9DA55A4F87053C4F8BD
S31508009EA0745384F8785384F8805384F88253A4F85A
S31508009EB08453002712243A4A3A493748BFF01DFD11
S31508009EC0394B3A4A1A6002F12C014C32C3E9022591
S31508009ED059601033102218460021C0F06CFC41F27C
S31508009EE0A4520346013CC0E90667057442824561EF
S31508009EF0056203F12803EDD1294A2D492A48BFF006
S31508009F00FCFC2C481FF078F8254A2B492948BFF055
S31508009F10F4FC2A482CF01AF9214A29492748BFF0A7
S31508009F20ECFC2848284B1E4A2849C0E9014403602E
S31508009F300473BFF0E2FC2648264B194A036000F179
S31508009F400803C0E90433244900F12003234DC0E97E
S31508009F500A330472C460846180F820404462046352
S31508009F6080F834408463BFF0C8FC1D4B21462B6043
S31508009F701C4B102205F11800EB60C5E901442C6161
S31508009F80C0F019FC184BEC616B612846BDE8F84037
S31508009F90034A1649BFF0B1BC18360020E83800203D
S31508009FA0900602206F4508083833002044CB0E0877
S31508009FB0419A0008882B0020219A0008801A002060
S31508009FC045630308F042012074DA0E08655E03084B
S31508009FD0B4420120D0D50D086D9B00088C420120A3
S31508009FE044D60D0820D60D0898D70E08B59A00084D
S31508009FF070B5036805460C4616460BB1032070BDBE
S3150800A00002210D20074A97F09CF80CB92F20F6E795
S3150800A01023682046DB6898470028F0D1C5E9004642
S3150800A020EDE700BF50D60D082DE9F04F074600684A
S3150800A0308BB004680D46646C90461E46A0472D28D2
S3150800A04004460ED048B19F4A9F4B0221A52808BF57
S3150800A05013460D209D4A97F074F820460BB0BDE8CC
S3150800A060F08F6B78202B01D10024F6E7984B3868DF
S3150800A070029358B103682A461B6C02A998470446FE
S3150800A08030B1029803689B689847E6E70324F8E727
S3150800A0904FF0000A4FF0000B8E4B0393029803A96A
S3150800A0A00368DB68984730B102210D208A4A97F089
S3150800A0B048F8A52410E08DF8060003980DF106016E
S3150800A0C00368DB689847044630B99DF80630402B8C
S3150800A0D006D0802B04D0032403A87AF060FED0E7CC
S3150800A0E06A789A42DAD1012303988DF80730036813
S3150800A0F00DF107015B69984704460028ECD19DF8E5
S3150800A1000730082B18D8002BC8D0013B072BC5D819
S3150800A11001A252F823F000BF51A1000863A100086C
S3150800A1209DA000086FA100089DA000089DA000083A
S3150800A1309DA000088DA10008102BAFD1102E1AD0B3
S3150800A140082EABD84FF48B73F340D807A6D512E088
S3150800A15006F1FF3CDCF1000343EB0C03002B9DD01A
S3150800A16009E0731E012B8CBF00230123F6E7042E9A
S3150800A17001D0012E92D1002303980493036804A901
S3150800A1805B6A9847814648B14C46A5E7082E85D8AC
S3150800A1906FF489733341DC07EDD57FE7049B1BBB5E
S3150800A1A0002303980593036805A99B6B9847814686
S3150800A1B00028E9D1059B002B7FD100248CE74FF0BE
S3150800A1C0FF31C21C994274EB020243D39DF8062064
S3150800A1D0402A80D14FEA134C05F10C0105F1180409
S3150800A1E08C4229D109F10109049B4B457FF656AFEC
S3150800A1F0CDE906AB03984946036806AA9B6A9847C1
S3150800A200044600287FF468AFDDE906306FF0010CDC
S3150800A2105A1E40F1FF3194456FF010028A41CED3A1
S3150800A2209DF80620402A7FF456AFD5E902129042DF
S3150800A23008BF8B42D6D1B3E751F8042F002ACFD0F6
S3150800A240BCEB124FCCD198B20028C9D092B290423A
S3150800A250C6D8A5E713F5803F70F1FF32FFF43BAF90
S3150800A2609DF80620802ADEE70023039806930368F4
S3150800A2704946DB6B06AA9847044600287FF42CAFAC
S3150800A280069BD90704D5D8F800200799914212D120
S3150800A2909A0705D5BDF82010B8F8042091420AD1CE
S3150800A2A05B078AD57868B8F80420036809999B681B
S3150800A2B09847002881D109F10109059B4B45D3D858
S3150800A2C0ECE600BF98D60D08A3630F086CD60D08F8
S3150800A2D0140702201807022089D60D080023F0B5B6
S3150800A2E08BB0CDE90433054600688DF80D308DF83E
S3150800A2F00E308DF80F3003680DF10D01DB689847B5
S3150800A3000446002840F0C78028680DF10E0103684E
S3150800A3101B6998470446002840F0BD8028680DF15F
S3150800A3200F0103685B6998470446002840F0B3802C
S3150800A330286804A903685B6A98470446002840F021
S3150800A340AA80286805A903689B6B984704460028D5
S3150800A35040F0A1809DF80E30002B00F09E809DF8FD
S3150800A3600D30402B07D0802B40F09E809DF80F3093
S3150800A370102B00F09B802646049BB34207D8002684
S3150800A3804B4F059BA3423AD801200BB0F0BD286875
S3150800A3903146036806AA9B6A9847002879D19DF832
S3150800A3A00D30402B16D1DDE906326FF0010C591E2F
S3150800A3B042F1FF378C456FF01001B94108D24FF0D2
S3150800A3C0FF310332994270EB02020CD39BB253B1B0
S3150800A3D00136D1E7802B06D1069B079A13F5803FF5
S3150800A3E072F1FF32F1E7334B0446002856D00121BB
S3150800A3F00D20314A009496F0A4FE0020C5E728688F
S3150800A400069603682146DB6B06AA9847002840D1C2
S3150800A410069B03F0020103F00402DB0710D411B116
S3150800A420F2B1264BE0E7002AFBD0099B03EA0702B4
S3150800A43012F5003FF5D89BB2B3F5404FF1D215E0BF
S3150800A44009B1002AEDD1079B13F5302F4FEA134CBB
S3150800A450E7D2BCF1000F0BD11B0410D56046E0E72C
S3150800A4604FF6FF73BDF820209A42DAD0013488E708
S3150800A47040F2FE3C03F580639BB26345D1D829B10F
S3150800A4804FF6FF73BDF820109942CAD0002ACCD1E6
S3150800A490ECE70B4BA8E70A4BA9E70A4B01210D206D
S3150800A4A0094A96F04EFEA8E7084BF7E7084BF5E78A
S3150800A4B00000FFFFB0D60D0808D70D08C0D60D0856
S3150800A4C09FD60D08F3D60D081ED70D08E1D60D0840
S3150800A4D0CFD60D082DE9F0430546006887B08846B3
S3150800A4E01F468DF80F2020B90324204607B0BDE883
S3150800A4F0F083DFF86490AB68CDF81490EBB90026CA
S3150800A5002868394603680DF10F02DB6B9847044645
S3150800A51078B91EB133684B4508BF00260223414669
S3150800A520CDE9006328463B469DF80F207AF072FC79
S3150800A530002405A87AF033FCD7E79DF80F30394692
S3150800A5408DF81330036805AA5C6B0DF11303A04759
S3150800A5500028D4D105AED3E718070220034B1868A4
S3150800A560034B002808BF1846704700BF0443012064
S3150800A5700843012010B5044602210D20024A96F030
S3150800A580E0FD024B1C6010BD30D70D0804430120C6
S3150800A59010B5094C094922460948BFF0AEF92246CA
S3150800A5A008490948BFF0A9F92246BDE810400749FD
S3150800A5B00748BFF0A2B900BF900602206D4D0808F3
S3150800A5C0084301207F4D080818070220814D080816
S3150800A5D0140702200023F7B5CDE900334AB96E46C1
S3150800A5E001AB15240E4A013C06D11423036003B0BF
S3150800A5F0F0BD6B4601AEF4E71578002DF5D0557819
S3150800A6008D4206D107683568AF4207D0019D0135EE
S3150800A6100195009D403201350095E4E71B68E5E7A2
S3150800A620E039002007B5019021B10122097801A877
S3150800A630FFF7D0FF019813280AD8064B820103EBCF
S3150800A64080109B5C002B08BF002003B05DF804FB5C
S3150800A6500020FAE7E03900200023152010B5136022
S3150800A660074B013801D1002010BD1C78002CFAD008
S3150800A6705C7840338C4202BF146801341460F0E7FA
S3150800A680E039002000231A4610B50648B3F5A06F36
S3150800A6900A6001D1002010BD4033C45C002CF9D0FB
S3150800A6A00132F3E7A03900200868114B70B59842CB
S3150800A6B00E46154603D303F10C02904214D31B79B8
S3150800A6C0A3B90B4C03689B6898470123002D346097
S3150800A6D0237108BF00234FF00000637118BF2B7861
S3150800A6E0A06018BFA37170BD0446EBE71920FAE70E
S3150800A6F01843012002210D20014A96F022BD00BF11
S3150800A700B4D70D0838B502210D20074A96F019FD71
S3150800A7100024064D60194034B4F5A86F01D1002015
S3150800A72038BD7AF01BFCF5E7DCD70D08E0390020C8
S3150800A73038B50B4B0C46984202D30C33984201D3DA
S3150800A740BFF002FF85680FCD0FC40FCD0FC40FCD24
S3150800A7500FC495E80F0084E80F00002038BD00BF3D
S3150800A760200702202DE9F041144C1F460E461523FA
S3150800A770A046013B01D119201EE0217871B1403471
S3150800A780F7E763783B70B6B1A4EB0804A41134600C
S3150800A7902A4630463978FFF71DFF0CE02146106837
S3150800A7A0FFF7C6FF054630B9002FEAD11EB1A4EB64
S3150800A7B00804A41134602846BDE8F081E039002079
S3150800A7C0064B984203D303F10C02904204D39B68CC
S3150800A7D00248002B18BF0020704700BF2007022040
S3150800A7E010B50868FFF7ECFF80B18268084B0AB11C
S3150800A7F09A4206D21B784BB9054A7AF0F6FB002036
S3150800A80010BD03F14004A242F4D2F6E71920F7E797
S3150800A810A039002038B5114A83684BB9104B8360BC
S3150800A8208468944201D0237833B982600A2038BDFF
S3150800A8309342F5D24033F2E743791BB165788379C1
S3150800A8409D42E9D10868FFF7BBFF20B122467AF09E
S3150800A850CCFB0020EBE71920E9E700BFE03E00202B
S3150800A860E0390020F0B50E4F84680646BC4205D391
S3150800A87007F140039C4201D20020F0BD3B7863B942
S3150800A880074D0FCC0FC50FCC0FC50FCC0FC594E8DD
S3150800A8900F0085E80F00B760EEE71920EDE700BF67
S3150800A8A0A03900202DE9F0410E4611463046FFF743
S3150800A8B0B9FE0446002842D0224FBB68984202D10E
S3150800A8C03846FFF7CFFFDFF88C80444516D204F1EF
S3150800A8D0400CC4450FD294F8403063B165460FCD9D
S3150800A8E00FC40FCD0FC40FCD0FC495E80F0084E831
S3150800A8F00F006446E9E720467AF030FB124CBB6845
S3150800A90004EB86169E4212D003D2434501D2403B41
S3150800A910BB600E4A93689E4206D8434504D2A342BA
S3150800A9200CBF0023403B93600020BDE8F0817D68A2
S3150800A930286803689B689847054B2B60E9E70A2057
S3150800A940F3E700BF20070220E03900201843012062
S3150800A95018070220E03E00208268054B00219A4233
S3150800A96003D340339A4238BF11708160704700BFE5
S3150800A970A039002010B5094CD4E8AF3FDB070BD44B
S3150800A98020469FF0FAFA38B1054A06490648BEF04D
S3150800A990B4FF20469FF0F6FA034810BD1443012081
S3150800A9A090060220335008081C07022010B5084CF0
S3150800A9B0084922460020BEF0A0FF0020064B074AA1
S3150800A9C018711A6006492246BDE81040BEF095BFC8
S3150800A9D090060220395008081843012060D80D084F
S3150800A9E0DF50080870B5104ED6E8AF4F14F00104D2
S3150800A9F018D130469FF0C1FAA0B10C4D0C4A2B462F
S3150800AA0007CA43F8044B83E807004FF6FF722A8209
S3150800AA104FF0FF321846C5E905247AF0B5FC3046F2
S3150800AA209FF0B0FA014870BD244301202843012055
S3150800AA30F4D80D0838B5054604300C467AF0A4FC5F
S3150800AA402A6813461BB9E26001202C600DE098685D
S3150800AA50A16888420ED1197909B1217931B9232023
S3150800AA600121054A96F06DFB002038BDD888E1889B
S3150800AA708842F4D0DB68E5E7C0D80D082DE9FF4128
S3150800AA800A9F884616461D4696F07EFB0446002811
S3150800AA903FD0D6E900010026231DD8F80020C4E9D6
S3150800AAA00133C4E906011D4B267323602661226221
S3150800AAB004F1280C95E80F008CE80F002B7C04F1B4
S3150800AAC0480084F838306B8A63876B69E363D5E995
S3150800AAD00623C4E91023124B04F1580519680B68BC
S3150800AAE09B68984700220023C4E9142301AB97E822
S3150800AAF0070083E80700012385E80700A4F87430F7
S3150800AB00084B84F8646084F8686084F86C60A6670B
S3150800AB102360204604B0BDE8F08100BF50D90D0877
S3150800AB200409022098D90D08094A08B50260026985
S3150800AB300AB1BFF009FD074A011D026082688A4210
S3150800AB40F7D141680029F4D04A604368136008BD0C
S3150800AB5050D90D0808D90D0810B50446024B0360F4
S3150800AB60FFF7E2FF204610BD98D90D08F7B50C4649
S3150800AB70114B0546196868460B689B689847D4E9DF
S3150800AB801421009B20469F1A019B63EB01067AF06D
S3150800AB90DAFF038920469F4276F1000309D27AF04C
S3150800ABA0D2FF0430036828462B6000236B6003B08D
S3150800ABB0F0BD7AF0C8FFF5E7040902202DE9F04355
S3150800ABC007460E46154698466FF001096FF01004C1
S3150800ABD08BB092F061FA421E41F1FF33914574EB56
S3150800ABE00303F6D300231836CDE904010293304651
S3150800ABF02B46CDF8008004AA02A9FFF73FFF0446BA
S3150800AC0050BB4FF0FF324FF0FF33CDE9062306ABBA
S3150800AC1003900893304603AB1C4A08A9099396F09B
S3150800AC201BFB039C2CB900233B7038460BB0BDE8D0
S3150800AC30F083236820461B6898472146304696F0DD
S3150800AC40E9FA2B463046CDF8008004AA02A9FFF798
S3150800AC5015FF04460028E6D095E80F0004F12806FB
S3150800AC6086E80F002B7C204684F838306B8A638789
S3150800AC706B69E363D5E90623C4E9102301233B7016
S3150800AC8023687C60DB689847CFE700BFAD5A0808A1
S3150800AC90084B10B5036018334360044608307AF051
S3150800ACA0C6FF014620B9606900F5CF6097F077F8CE
S3150800ACB0204610BDE0D90D08A0F10400E8E700BF62
S3150800ACC010B504460221074A0D2096F03AFAFFF716
S3150800ACD045FC04F114017AF078F82046BDE81040E6
S3150800ACE08AF0B3BC04DA0D0800B5084B89B00493A2
S3150800ACF0042305930023039204490422009303A81E
S3150800AD008AF05DFC09B05DF804FB00BFF4DA0D08B3
S3150800AD1038B50C46054602210D20084A96F011FA68
S3150800AD20214628468AF0A3FC044628B9FFF716FCF4
S3150800AD3005F114017AF03BF8204638BD23DA0D08F0
S3150800AD4000B50D4B8DB0CDE90631ADF820200023B6
S3150800AD501F22CDE90923012391F83C208DF82C30D8
S3150800AD608DF82D200093024606AB08A902A80CF020
S3150800AD70B5F80DB05DF804FBE8DA0D082DE9F04FDB
S3150800AD8014460027B9B006461D460397FFF7E6FBAB
S3150800AD902269042A08D8042A10D8DFE812F013001A
S3150800ADA00F00F800210128014FF6FC739A4200F0C3
S3150800ADB023814FF6FD739A4200F0208140F28652B5
S3150800ADC0326064E0904B05A90493904B16A805934E
S3150800ADD07BF07FF80123284685F844307AF056FD43
S3150800ADE0044600284BD10BA80A9594F054FE8848CF
S3150800ADF07BF04BF8074648B1864FB7F8643907F534
S3150800AE000B6703F00503052B18BF0027002205234F
S3150800AE10DFF80482CDE908234046CDE906877BF0B2
S3150800AE2034F810B906A87BF040F84FF09009089C52
S3150800AE30052C0AD128467AF06EFD00244FF6FF73DA
S3150800AE4085F84C40A5F84A3019E009FB048494F8C3
S3150800AE5081A047B138467BF018F820B197F88130C1
S3150800AE60534508BF3C4694F88140FFF777FB0068D6
S3150800AE708DF8084088B928467AF04DFD032405A8C0
S3150800AE8079F08DFF049803689B689847346000231F
S3150800AE903046337139B0BDE8F08F036802AA1B6CDF
S3150800AEA004A998470446CCB158E0169B8DF808408B
S3150800AEB0186802A903681B6998479DF80830002B93
S3150800AEC063D00A9B93F84530B3B9DDF828A00BA9DF
S3150800AED050469AF808B07AF045FDE0B9049805A9F5
S3150800AEE00368DB68984704460028DED00A2835D16F
S3150800AEF006A87AF0DAFF9AE7169B8DF808401868D4
S3150800AF0002A903681B6998470A9A9DF80830127ABD
S3150800AF109A42E3D1D9E79AF84630DAF800107BB1BD
S3150800AF20096C4FF480720023CDF800B016A88AF099
S3150800AF3085FE044601460BAA50467AF02CFDB2E778
S3150800AF40DAF840300AF1280202A87AF059FC0446D9
S3150800AF5040B1214650460BAA7AF01DFD28467AF0E4
S3150800AF60DAFC8CE7DAF800300222196C16A80023FE
S3150800AF70CDF800B08AF062FE04460028E9D1DAF876
S3150800AF80001002A87AF074FCD3E77124E6E700689B
S3150800AF90002836D003689B6903A99847024600280B
S3150800AFA07FF40EAF0123296885F8443005F128029D
S3150800AFB02B6C16A8039C7AF023FC034670B92A6802
S3150800AFC0106CCDE900430222002394F0F6FE0346F6
S3150800AFD020B9296816A87AF04BFC0346336056E771
S3150800AFE0006800283FF4ECAE0368DB69D4E703A9E0
S3150800AFF000687AF044FFD1E70397D3E70223039367
S3150800B000D0E70322DCE600BF140702201807022057
S3150800B01010A0002060970020409D00202DE9F041F7
S3150800B020D0F80C80B2B00546DDE938760C46B8F1A2
S3150800B030000F29D041B3402200216846BFF0BBFB70
S3150800B0402378012E8DF83C3002D18DF8146001E08A
S3150800B050022EFAD06378402B19D1D4E90223CDE920
S3150800B060002301238DF80830002F3FD0394610A859
S3150800B0707AF02FFF10A88AF0F9FC034680B1012167
S3150800B0800D201C4A96F05DF832B0BDE8F081202B01
S3150800B09001BFA368ADF8103001238DF81230E3E73D
S3150800B0A0BDF8443012AAADF8183007AB07CA83E8D2
S3150800B0B007000AAB15AA07CA83E807009DF860309F
S3150800B0C08DF834301BB19DF861308DF835309DF818
S3150800B0D0623000228DF8363001238DF83830EB685F
S3150800B0E0DB6869461868FFF72BFECDE73A46D8F8BD
S3150800B0F00C30F6E746DA0D082DE9F84391F8387072
S3150800B10004460E464FF000080FB191F83980002525
S3150800B11004F10809484694F001F831464846256086
S3150800B12094F011F884F840700FB184F84180074B09
S3150800B130A4F85050A36484F8905084F8D05084F84A
S3150800B140D85084F8DA502046BDE8F883180702205C
S3150800B1502DE9F04190F9343006460133A6B003D103
S3150800B160002026B0BDE8F0810368002BF8D100F175
S3150800B1700808404694F076FB074630600028EFD171
S3150800B180204C0146942201A80094BFF014FBB06C31
S3150800B19004AD03689B6898470FCDB46406F158045C
S3150800B1A0A6F850700FC40FCD0FC40FCD0FC495E885
S3150800B1B00F0014AD84E80F000FCD06F198040FC4F4
S3150800B1C00FCD0FC40FCD0FC495E80F0084E80F000C
S3150800B1D0684686F8D87086F8DA7079F0E0FD414658
S3150800B1E006F148008AF038FC30600028B8D196F895
S3150800B1F040302BB1B06C96F841100368DB6998476C
S3150800B2000120AEE718070220F0B5CFB007460E4674
S3150800B2100D7AFFF7A3F9006838B1036829465B6A17
S3150800B22003AA984718B104461EE00320FBE7FFF778
S3150800B23095F904A900687AF022FE0446A0B9BB7BFA
S3150800B240012B00F2838006A893F068FF2246214668
S3150800B25006A893F0A6FF304606A98DF850407AF066
S3150800B2604DFE074618B1044620464FB0F0BD9DF97D
S3150800B2704430013321D1059006A916A8FFF73CFFF3
S3150800B28016A8FFF765FF28BB169C28A8212C2BD1EA
S3150800B29079F085FD06A916A8FFF72EFF06F1080422
S3150800B2A016A8FFF755FF20BB169C212C4CD0002C66
S3150800B2B04AD028A879F073FDD6E705A906A894F020
S3150800B2C039FB0028AFD1DDE904329A42D4D940F2DD
S3150800B2D08954C9E728A8FFF701F80028D0D128A87B
S3150800B2E079F05DFD2F24BFE779F059FD002CBBD11D
S3150800B2F0D0E7039BBB420BD9FFF730F928AB009385
S3150800B3002A463B46214679F0E5FD58B10446D0E782
S3150800B310FFF724F928AB00932A460023214679F043
S3150800B32090FDF2E70137BBE7013B0393FFF716F9F8
S3150800B3302A463146039BFFF7CDF80028E6D1039B42
S3150800B340BB42F1D80024B4E70836F8E7042B2FD11E
S3150800B350039B049A01339342B9D8164BADF86000A3
S3150800B360169301233371337A8DF8A0008DF8E00027
S3150800B3708DF8E8008DF8EA0016AFB3B138463168A3
S3150800B3808AF06AFB044670B9169816F8081F03680F
S3150800B390DB699847FFF7E2F823462A4631460097C5
S3150800B3A079F04FFD0446384684E740F27E54FAE7C2
S3150800B3B06C2459E718070220F0B517690E460446AB
S3150800B3C0194685B0BFB902F10800FFF71DFF2F28FF
S3150800B3D0034613D0D82811D00B2819D000228DF88F
S3150800B3E00C20039A2046009231463A468AF064F9C0
S3150800B3F0204605B0F0BD4FF4B163EFE7872501217C
S3150800B4000D20044A009595F09CFE45F4A063E5E7F7
S3150800B4108925F4E76DDA0D08034B53F81C09002853
S3150800B42018BF1846704700BF6043012008B50C488E
S3150800B43002680AB1BFF088F81F21A0F11C0340E991
S3150800B44005120849C3E9073240F81C1C483140F880
S3150800B450182C40F80C2C40F8042C40F8081C08BDA1
S3150800B460604301208CDA0D087FB5094B1F22019332
S3150800B4704FF00113CDE903230023ADF8080001A915
S3150800B48002A8ADF8143091F049FE07B05DF804FB48
S3150800B4901CDB0D0808B502487AF06BFD08BD00BF35
S3150800B4A044430120024A03490348BEF026BA00BFB6
S3150800B4B0900602209D5F08084443012000B5084B0A
S3150800B4C089B00493032305930023039204490322B6
S3150800B4D0009303A88AF073F809B05DF804FB00BF6F
S3150800B4E084DB0D0810460249022295F06BBF00BFA7
S3150800B4F074DB0D087FB516690546022E1C464DD02D
