S02B00002F686F6D652F686164796C69752F776F726B53706163652F73696C6162732F4C692D4261745F4D611D
S31508006000081200204D7D0308E1A70A0845900008FC
S31508006010E3000C086D900008819000089590000830
S31508006020E1A70A08E1A70A08E1A70A083D970D08AB
S31508006030A990000898050F08E1960D0805D50D08E2
S31508006040C5790308E1A70A08E1A70A08E1A70A082B
S31508006050E1A70A08E1A70A08E1A70A08E1A70A08CA
S31508006060E1A70A08E1A70A08E1A70A085D9400085B
S31508006070E1A70A08E1A70A08E1A70A08E1A70A08AA
S31508006080E1A70A08E1A70A08E1A70A08E1A70A089A
S31508006090E1A70A08F9580508E1A70A08E1A70A08C6
S315080060A0E1A70A08C5500508A5500508E1A70A088A
S315080060B0E1A70A08C1340808953D08084F8D0D0860
S315080060C04B8D0D0809350808658D0D08538D0D088B
S315080060D0653D0808578D0D08D53D08083D3E08085A
S315080060E0E1A70A08E1A70A08A9910008E1A70A0892
S315080060F069F50B08E1A70A08E1A70A08E1A70A0853
S31508006100E1A70A08E1A70A08E1A70A08E1A70A0819
S31508006110E1A70A08E1A70A08E1A70A08E1A70A0809
S31508006120E1A70A08E1A70A08E1A70A08E1A70A08F9
S31508006130E1A70A08E1A70A08E1A70A08E1A70A08E9
S31508006140E1A70A08C9400608E1A70A08E9E40D0814
S31508006150F11E0808E1A70A082F8D0D08358D0D08D0
S31508006160E1A70A08E1A70A08E1A70A08E1A70A08B9
S31508006180F0B5114A114C124E00F00105E3695F079C
S3150800619013D40DB9334213D103EA00078F4207D14E
S315080061A00B4A1A40002A0CBF00206FF00100F0BD10
S315080061B0013AEBD16FF00200F9E74FF0FF30F6E74E
S315080061C06FF00100F3E700BF8096980000000350C7
S315080061D00200010070B50B4BD96911F480310DD15D
S315080061E001244FF48072084E084DF46020462C6452
S315080061F01A61FFF7C5FF3464EC6070BD6FF00100EB
S31508006200FBE700BF000003500010035000200350B6
S315080062104FF4803238B50E4B0E4C9A66E56941F656
S31508006220713315400122E3630B4B0021DA60022328
S31508006230606121202361FFF7A3FF10B92120FFF732
S315080062409FFF0122054BDA600DB10023E36338BDD9
S315080062500090005000000350001003500020035027
S3150800626070B5134C6061E3695B071ED40E4656F899
S31508006270043B8D18A361AE420BD1042300212120D3
S315080062802361FFF77DFF58B9BDE870402120FFF76D
S3150800629077BF08210846FFF773FF10B1042323616F
S315080062A070BD56F8043BA361E5E74FF0FF30F7E70A
S315080062B0000003502DE9F84315464FF48032184B79
S315080062C089469A6603F51C33DF690646174041F688
S315080062D07132DA63012203F58053DFF84C80DA6005
S315080062E055B9284601220F4BDA601FB10022A3F5E3
S315080062F00053DA63BDE8F88306F5005404EA080497
S31508006300A41BAC4228BF2C46494622463046FFF716
S31508006310A7FF0028E6D12644A1442D1BE0E700BFCD
S31508006320009000500020035000E0FFFF000000002E
S31508006330000000000000000000000000000000004F
S31508006340013800D0FCE770472DE9F04F2DED028BA0
S315080063501D4613690646052BD5B00BD8013B01220D
S315080063600024042B23D8DFE813F04100290130016B
S315080063703F0152014FF6FC72934212D04FF6FD725E
S3150800638093424FF0010340F0448102200021CDE9F9
S315080063903E0185F8443028463EA981F075FA3060FA
S315080063A086E000230022CDE93E230123F1E7CB69ED
S315080063B0284685F844202C9380F000FD0028EED16D
S315080063C03FA83E959AF043FE3EA92CA885F08EFE7E
S315080063D00446284680F037FD2046002CDFD14FF6CC
S315080063E0FF7385F84C40A5F84A30D8E7D1F81C80E9
S315080063F0284685F8442080F0E1FC0446002856D15A
S3150800640013A812959AF023FE41460AA883F0E1FFE5
S3150800641005232246414600930EA885F0CCFD274663
S315080064209FED7F8BDFF800A20EA90AA885F0DAFD9A
S31508006430044648B9284680F006FD4FF6FF7385F8EE
S315080064404C40A5F84A3032E00AA883F092FF8DED59
S31508006450228B8DED248B90F88190CDE92677CDE9B6
S315080064601E77ADF880708DF8A0708DF8AC90D0E9E5
S315080064700023CDE92423B0F8823000F16004ADF89A
S315080064808030D0E9022320212046CDE92223C6F018
S315080064906AF84946CDE926402CAA4046CDF8B0A070
S315080064A094F055F9044658B1284680F0CCFC34607F
S315080064B000233371304655B0BDEC028BBDE8F08F32
S315080064C02DAB1E9341230DF1080B1F933EABCBF862
S315080064D0003055235A4649464046CBF8043094F0D6
S315080064E0C5FA04460028DFD1DBF80430B3B19BE8CF
S315080064F0030001238DF8103005AB83E8030004A9D7
S3150800650007A885F0E6FD9DF81C308DF8A0302BB164
S3150800651029AB08AA92E8030083E803009DF8AC308B
S31508006520002B49D0DDF8489099F8452099F808B02D
S315080065300AB19B451AD1484613A980F0ABFCA8B10D
S3150800654099F84630D9F80010A3B1096C4FF4807257
S315080065500023CDF800B01EA8C3F069FE0446014624
S3150800656013AA484680F0AFFC002C9DD10AA885F0F6
S315080065700EFD59E7D9F8403009F1280207A880F03E
S31508006580D7FB044628B12146484613AA80F09BFC4F
S315080065908AE7D9F800300222196C1EA80023CDF824
S315080065A000B0C3F044FE04460028ECD1D9F8001028
S315080065B007A880F0F5FBD1E7712475E705200021CF
S315080065C085F84420CDE93E01E5E6CB6993F88233A8
S315080065D0CDE93E340123284685F844303EA981F0AA
S315080065E053F93471306065E7CB69284685F844204D
S315080065F02C9380F0E3FB00287FF4D1AE3FA83E95AC
S315080066009AF025FD3EA92CA885F074FEE0E62B7AC3
S31508006610DEE78622C0E900234CE700BFAFF300801F
S31508006620000000000000000058C70E080000000027
S315080066302DE9F04F2DED028B083085B00E469146B8
S31508006640DDF850809CF07CF80446002800F0A38012
S315080066506F4600259FED548B4FF0010B41F2A45A6B
S3150800666010AB0FCB87E80F00514BC4E902552360E6
S31508006670C4E90455C4E906552C3363604D4B04F14F
S31508006680500C0FCB84ED108BC4E90E5584F82050BE
S3150800669084F8305084F848508CE80F00464B84F84C
S315080066A060B0A4F862A06566236704F18403C4E9B0
S315080066B02133424B1022C4F89830294684ED1A8BB0
S315080066C0C4E91D55C4E9275584F87C50C4F88C5094
S315080066D0C4F8A45004F1A800C6F050F884ED308B35
S315080066E084F8B8B0A4F8BAA0C4F8BC5004F1C8003D
S315080066F09CF08EFE4AF6C873C82284ED388B84ED6A
S315080067003A8BC4E93C2304F58673C4E94055C4E9C9
S315080067104333A4F8D45084F8D650A4F8D85084F853
S315080067200851C4F814513368A3607368E360B3680A
S315080067302361F36863613369A3617369E361337E37
S3150800674084F8203033B104F1240306F11C0207CA89
S3150800675083E8070096F8283084F830300BB1F36ADE
S315080067606363304680F0FBFCA8B9B9F1000F12D07C
S31508006770B8F1000F0FD003CF3B78C4F8389084F8EF
S315080067804830012384F80031231D20646164C4F86D
S315080067909080C4F8A430204605B0BDEC028BBDE855
S315080067A0F08F00BFAFF3008000000000000000007B
S315080067B020430E08AC4A01209CFA0E0810430E0826
S315080067C02DE9F04F2DED028B00240025CBB099461C
S315080067D0CDE92E450023CDE93045CDE934454FF6C0
S315080067E0FF74DFF898A2064688461746CDE90C33AB
S315080067F08DF8C8303393CDF8D8A04894A2B305468F
S3150800680000F53474A54206D10B2420464BB0BDECE6
S31508006810028BBDE8F08F284680F0CFFD08B1903591
S31508006820F0E79FED8F8BBDF85C318DF8C880ADF829
S3150800683020318D4B4FF4C8710E93002309A8CDE97A
S3150800684009330F93CDF870A00B9385F038FC099C9B
S3150800685014BB0B240BA880F056FB0AA880F053FB48
S3150800686009A880F050FBD0E793F001FF044608B969
S31508006870AC24CAE706F5347528467FF0E2F8B4F882
S3150800688082308DF8C880ADF8203121460CA894EDE9
S31508006890028B93F059FECCE74FF4C8710AA885F02D
S315080068A00EFCDDF828A0BAF1000FD2D04FF4C8715B
S315080068B00BA885F004FC0B9A002ACAD04FF4C873BB
S315080068C04146CDE91332304610AA1094CDE9113A63
S315080068D0159393F02CFF04460028BBD14146304659
S315080068E012AA93F006FF04460028B3D14146304663
S315080068F014AA93F0DBFE04460028ABD110A916A80B
S3150800690085F0D3FB12A918A885F0CFFB14A91AA8FD
S3150800691085F0CBFB36AB079330AB05930DF1B80A80
S3150800692034ABCDE903A30DF1700B0EAB8DED008BE7
S31508006930CDF818B002931AAA18A916A81BF0DAFF00
S315080069400446002886D10BA880F0DDFA0AA880F054
S31508006950DAFA09A880F0D7FAB9F1000F13D1D6F8F8
S31508006960640300285ED003689B6898470346D6F8F8
S315080069706403002B4ED003685A4641465B69984724
S31508006980044688B141E7D9F8003048465B6998471C
S31508006990594694F0BCF908B9C52436E79DF858312C
S315080069A0CDF8CC908DF822319DF860315146B3FA76
S315080069B083F328465B098DF8233194F04FF9044692
S315080069C000287FF422AF28460CA993F002FE06F5AC
S315080069D05D7495F881303FB302211120234A9BF05C
S315080069E08CFED5E900122B69CDE9012100936B696C
S315080069F0022111201E4A9BF080FE20460F991DF0A9
S31508006A0091FE034630BB96F88233013386F882330B
S31508006A100024FAE603684146DB6898470028C3D194
S31508006A201024F2E60324F0E6D5E900121120CDE998
S31508006A30002102210F4A9BF060FE20460F991DF0A7
S31508006A4071FE03460028E3D0012111200A4A9BF073
S31508006A5054FEDDE701211120074A9BF04EFED2E7DE
S31508006A60000000000000000048870E080B860E088C
S31508006A702B860E086E860E08A3860E0858C70E08C3
S31508006A802DE9F0478AB00DF10D030193152306464B
S31508006A9000934FF48072002308460C469AF007FDCF
S31508006AA0E8B996F8963001220093204600239AF01A
S31508006AB085FCA0B996F89730022200932046002359
S31508006AC09AF07CFC58B90DF10E03019316230322A4
S31508006AD00093204600239AF0EAFC054610B10AB056
S31508006AE0BDE8F0874FF0100906F1C8070DF1180840
S31508006AF0102200214046C5F041FE0DF10F03019317
S31508006B0015234FF480720093204600239AF0CFFC99
S31508006B100028E4D196F89720EBB29A4251D917ED9E
S31508006B200C7BC44637F828ACA7F12603A7F1160E46
S31508006B30624618685968083303C273459446F7D104
S31508006B408DED007B0422002320469AF012FC0028D3
S31508006B50C5D1052200232046CDF800A09AF02EFCC8
S31508006B600028BCD14046494606228DE8030000238A
S31508006B702046CDE904899AF06DFD0028AFD120465C
S31508006B809DF90F109AF0C8FC013530370028A6D1B8
S31508006B90032DADD120469DF90E109AF0BDFC0028B4
S31508006BA09DD1B6F88E3007220093204600239AF02E
S31508006BB005FC002893D120469DF90D109AF0ACFCEF
S31508006BC08DE782469FED027BBAE700BFAFF30080F0
S31508006BD00000000000000000A0F1840050E700BF9C
S31508006BE0054B18680368D96901A3D3E90023084748
S31508006BF000E0373B015D0300040A022000000000A4
S31508006C0037B5A4F0DBF9044600286ED13A4B1A884A
S31508006C109B78ADF804208DF8063031F02FFF32F05E
S31508006C2043FC32F0A1FB0546344B036032F02CFEE0
S31508006C30284632F035FD00B9FEE72DA3D3E9002337
S31508006C404FF0FF314FF0FF3031F020FF32F090FB6C
S31508006C50214632F0E9FBA4F0B4F901A832F0E2FCCF
S31508006C60044600B1FEE7264B264A98801860264B54
S31508006C7098801A60254B264A98621A60254A988099
S31508006C806FF06300DA6033F071FD0B2032F0BEFB63
S31508006C9032F01CFC32F062FB00B9FEE754F0ECFE61
S31508006CA02046A4F052FB08210846A4F055FB00B183
S31508006CB0FEE7A4F048FB32F0A7FAA4F093FA1021F5
S31508006CC01548B9F087FA00B9FEE714491248B9F031
S31508006CD093FA00B9FEE710218C20114A54F0E4FA21
S31508006CE000B1FEE70F48A5F060FE03B030BD00BF57
S31508006CF00AE020FFE2030000D1120F087DB10A085E
S31508006D0068ED002038FC012038ED002008ED002051
S31508006D10B8FB0120F8EC0020D48F012031E10D08E2
S31508006D20C48F012006120F082DE9F04389B0A4F09C
S31508006D3036F900B9FEE75C4D2B6803B9FEE7012278
S31508006D409B8811460DF10B008DF80B3032F020FCB4
S31508006D509DF80B102B6802390022186889B232F0A8
S31508006D6017FC002305930793504B05AE06932B6833
S31508006D7093F82C208DF814201B681C7814F0200436
S31508006D8014D0A4F0E4FA00285CD0A4F0E0FA62F08B
S31508006D90BDFF0B46024640A1D1E9000163F05AF94E
S31508006DA063F0C8FA079B18440124079032F034FCB4
S31508006DB09DF80B30002848D0981DC00062F0B6FF39
S31508006DC037A3D3E9002363F01BF88946804632F0DF
S31508006DD023FC62F09BFF0B4602464946404663F099
S31508006DE039F963F0A7FA079B18440790A4F0DEF870
S31508006DF038B132F077FB0020A4F0D4F80020A4F0D4
S31508006E00D8F829684B6963BBA4F0ECF810B3079B64
S31508006E10274F03F5FA7307932B681B7EBB7032F076
S31508006E205BFBF870286833463A462146807932F08B
S31508006E3091FB58B34FF480510020D7F09EF9A4F087
S31508006E40B0FB23E00798C030AEE70798063300EB9F
S31508006E504310CAE72B6832462146987932F070FB10
S31508006E60E7E70022962004920A691A44114BA2F514
S31508006E709B7298800392887903AA2146009632F07D
S31508006E8077FB0028D6D10120A4F0B7F809B0BDE8F1
S31508006E90F08300BFAFF300800000000060E36641A6
S31508006EA00000000080842E41C08F012020A1070029
S31508006EB0A80A02209C0A02202DE9F3411E461C4B13
S31508006EC0044683424FF000038B4115460AD216A3A7
S31508006ED0D3E9002363F0EEFA16491446024628461B
S31508006EE0A8F0BBF9144B4EF66021B4FBF3F203FB92
S31508006EF01244B4FBF1F34FF47A7801FB1344B4FB64
S31508006F00F8F728460D490097A8F0A7F946B128468C
S31508006F1008FB17420A4902B0BDE8F041A8F09DB93E
S31508006F2002B0BDE8F08100BF005C26050000000045
S31508006F30FF5B260558430F0880EE3600268B0E08A1
S31508006F405E430F080348044B834202D0034B03B148
S31508006F501847704724150220241502200000000057
S31508006F60064B0749C91A891048BF0131491003D091
S31508006F70044B0BB101481847704700BF241502207F
S31508006F80241502200000000010B5064C237843B9EA
S31508006F90FFF7D8FF044B13B10448AFF30080012371
S31508006FA0237010BD22BF0120000000001CDE0F0860
S31508006FB008B5054B1BB105490548AFF30080BDE888
S31508006FC00840FFF7CDBF00BF0000000030310120A8
S31508006FD01CDE0F08A3F5803A704700BF174B002B3D
S31508006FE008BF134B9D46FFF7F5FF00218B460F465A
S31508006FF01348144A121AC5F0C1FB0E4B002B00D0D9
S3150800700098470D4B002B00D098470020002104001C
S315080070100D000D48002802D00C48C5F04BFB63F064
S3150800702057FD20002900B9F07AF802F0C7F800BF2A
S315080070300000080000000000000000000812002000
S315080070400812002080050220B5C60C0800000000C2
S3150800705008B5154B4FF4E47200211846C5F08EFBAF
S3150800706009220346026142611048114A98614FF4A9
S315080070708061DA61002219629A625A62DA62C3F89A
S31508007080F0000C48C3F8F400C3F8F8100A49C3F82E
S315080070900021C3F8FC20C3F8042111F8010D985407
S315080070A00132102AF9D108BD4831012068E80D08D7
S315080070B023C3012023BF012081E80D082DE9F84FDD
S315080070C0DFF88880824698F800308946532B1646A2
S315080070D001D0FFF7BDFF182707FB0A87D7F800512D
S315080070E0D7F8FCB05D452FD9D7F8F840D7F8F41093
S315080070F0641BB44228BF3446484629442246C5F094
S31508007100F9F9D7F8F8302544AB4208BF0025A14461
S31508007110361BABEB050B5E4528BF5E465EB11823F2
S3150800712003FB0A83D3F8F410324629444846C5F0CF
S31508007130E1F93444354424B1182303FB0A88C8F816
S3150800714000512046BDE8F88F0024E2E748310120C7
S31508007150F8B5182700FB0775124B0E461D4407FBAA
S315080071600033DB6A1446012B0AD0022B14D023B94C
S3150800717028467EF0B9F8844208D900242046F8BD8E
S3150800718028467EF0B1F8844228BF04462246314696
S3150800719028467EF0B2F8F1E72846BDE8F8407EF0CA
S315080071A0C7B800BF48310120F8B50B4B04461B7819
S315080071B00D46532B164601D0FFF74AFFEFF311870A
S315080071C04FF0200181F31188324629462046FFF701
S315080071D0BFFF87F31188F8BD483101202DE9F0413A
S315080071E0164C1E4623780546532B8846174601D06B
S315080071F0FFF72EFF082D1DD8EFF3118C4FF0200155
S3150800720081F3118865B1182005FB000344F8038053
S31508007210E2180023576000FB054216629362536228
S31508007220182303FB0544069BE3628CF311880020B0
S31508007230BDE8F0814FF0FF30FAE700BF4831012082
S315080072402DE9F843174E1F4633780546532B8946D2
S31508007250904601D0FFF7FCFE082D1FD8EFF31182E8
S315080072604FF0200181F311886DB11824002304FB27
S315080072700564C4F8F090C4F8F480C4F8F870C4F84B
S315080072800031C4F8FC30182303FB0566089BC6F8D2
S31508007290043182F311880020BDE8F8834FF0FF30EF
S315080072A0FAE700BF48310120024B1B780BB10023D7
S315080072B00373704724C7012002211D20014A9BF051
S315080072C01CBA00BF82E80D0802211D20014A9BF066
S315080072D014BA00BF92E80D0802211D20014A9BF04E
S315080072E00CBA00BFA1E80D0870B5037C0446FE2B56
S315080072F022D0FF2B30D00B2B37D80B2B35D8DFE815
S3150800730003F00612063434343434343434129CF020
S31508007310C4F8036841F288315D692346164AAC46CB
S31508007320BDE8704060479CF0B8F8036842F21071F7
S315080073305D69114A2346F2E79CF0AFF803682246D6
S315080073405B6A0D4998479CF0A8F803684FF47A7170
S315080073505D69094A2346E2E79CF09FF803682246DE
S31508007360BDE870405B6A044918470221BDE87040D1
S315080073701D20024A9BF0C1B9D9720008BBE80D0866
S3150800738048F2040210B5038893420DD006D803F5D7
S31508007390FF437F339BB2012B0AD910BD48F2120274
S315080073A09342FAD10F4A0CE0027A0F4B1A70F4E7AF
S315080073B090F90830012B03D090F90930012BECD154
S315080073C00A4A022121209BF098F99CF066F8036886
S315080073D040F6B8315C69064AA446BDE81040002369
S315080073E0604700BFF8E80D0824C70120D0E80D085B
S315080073F0BF53080808B59DF071FC23F01DFC23F067
S315080074004DFC094826F0F2FD00224FF46171074849
S315080074108FF0F3FF30B1BDE8084001212120044A6E
S315080074209BF06BB908BD00BF80B00020A8A3002060
S3150800743034E90D0810B500220C46134813499DF08F
S31508007440F5FC18210A20124AD6F0ECFB114B1860FD
S3150800745040B921200121104A9BF04FF940F20170F2
S315080074607EF070F920460D4A0A49D6F09CF840B9D4
S31508007470212001210A4A9BF040F940F202707EF071
S3150800748061F9002010BD00BFB0BF0020817300085D
S31508007490B4EB0D083C34012062E90D0890EB0D08A9
S315080074A085E90D0810B5054B054C187020469DF06A
S315080074B0E8F92046BDE810409DF03BBA24C70120F4
S315080074C080B0002008B50C489DF0EFFC58B10B4879
S315080074D09DF0D7F909489DF02CFA094825F098FA45
S315080074E005489DF0EBFC074B186818B1BDE8084045
S315080074F000F0C2B908BD00BFB0BF002080B00020B0
S315080075002855012020330120014608B54FF47A7228
S3150800751000238002890D62F0CDFF094B01461868E9
S31508007520D6F0C6F950B121200121064A9BF0E5F8AC
S31508007530BDE8084040F205707EF004B908BD00BFFA
S31508007540443401209FE90D0808B5074A40F6B833C8
S31508007550022121209BF0D1F840F6B830FFF7D4FF7E
S315080075600122024B1A7008BDB8E90D0823C701208D
S3150800757008B5094B0A211868D6F09AF950B12120A6
S315080075800121064A9BF0B9F8BDE8084040F20570AB
S315080075907EF0D8B808BD00BF40340120F7E90D08D1
S315080075A010B5044686B009489BF0CAF860B10023B6
S315080075B0CDE903330293064B214601930223054A7C
S315080075C00093054B07F00CF806B010BD24330120D4
S315080075D0E9720008B9720008C972000808B5094BB3
S315080075E00146186858B100231822D6F05BFB40B153
S315080075F0054A0121BDE8084021209BF07EB8034AD0
S31508007600F7E708BD3C3401200FEA0D083CEA0D08EF
S315080076107FB50223ADF80030044B0190684602930B
S31508007620FFF7DCFF07B05DF804FB00BF5D760008D6
S315080076308B68084603B1184702212120014A9BF0AE
S315080076405CB800BF5DEA0D0800220249024827F02F
S3150800765079BD00BF29780008B0BF00200388022B37
S3150800766006D1044B1B780BB9FFF76EBFFFF7ECBFCB
S31508007670704700BF23C7012000220249024827F0AD
S3150800768061BD00BFF5730008B0BF002010B5A4B0F7
S3150800769003AB0193812301AC029365F00FF92146F0
S315080076A065F018FE28B994E803002DF03BFB24B0DA
S315080076B010BD01212120024A9BF01FF8F7E700BF01
S315080076C08DEA0D0800230246194610B504462048DF
S315080076D0D1F074FE1F4B186040B9212001211E4AC3
S315080076E09BF00BF840F204707EF02CF8002322463B
S315080076F001211A48D1F062FE194B186040B92120C1
S315080077000121184A9AF0F9FF40F204707EF01AF83F
S3150800771002212120144B154A9AF0EFFF0221144A40
S31508007720012321209AF0E9FF28F0F2F80368DB6FBD
S3150800773098470120FFF7AAFF01F0B2FB0D489DF01C
S31508007740EAF80D4B0D4918700D4893F031F810BD45
S315080077501176000844340120A5EA0D08FB530808F1
S3150800776040340120BFEA0D08BA530E08D9EA0D08BD
S31508007770FDEA0D0880B0002024C70120143301203B
S31508007780409D002038B50546FFF79CFF044638B1F2
S315080077900C4827F059F920467DF0D4FF204638BD1D
S315080077A02B6828469B689847044608B10648F0E7C0
S315080077B0064B1A6852F8640C1A581844526C9047CB
S315080077C0ECE700BF1AEB0D082CEB0D0880550120DD
S315080077D0482337B50E4A0F4CA2F118050093111D20
S315080077E0012328469AF096FF224628460A49C4F0FD
S315080077F067F80023224609480949C0E90233094BBC
S3150800780003603033436003B0BDE83040C4F058B875
S315080078103C33012090070220D75308081033012073
S31508007820B953080848EB0D0810B50121094827F097
S315080078307BFA20B165F042F80121C5F0E0F8064868
S3150800784027F0D8FB28F064F8BDE8104003689B6F62
S31508007850184700BF80550120B0BF002010B5044668
S315080078600178044827F094FAA37883F00103A370FB
S3150800787010BD00BF8055012073B503690446E3B106
S315080078804369D3B10E4B684619680B681B6998475C
S31508007890D4E90423DDE90065A178002918BF134659
S315080078A0D4E902125B1842F10002B342AA4104D29B
S315080078B02046FFF7D3FFC4E9026502B070BD00BFDA
S315080078C0040A022038B500230022C0E90433002345
S315080078D004460D46C0E902230278024827F048FA12
S315080078E0A57038BD8055012001489DF015B900BF27
S315080078F080B0002001489DF011B900BF80B000207B
S31508007900044A08B583680260243242600BB1C4F0A9
S31508007910FEFD08BD00ED0D08A0F10400F0E700BF6C
S3150800792010B50446054B03604433436014F034F93C
S315080079302046FFF7E5FF204610BD00BF684B0E083E
S31508007940A0F10400ECE700BF38B5124B044603F17A
S315080079503802C26003F14C02026103F1600242611F
S3150800796042680360743383613AB183682BB153600C
S3150800797042681A600023C0E9013304F14405284629
S3150800798088F094FA28467DF060FD201D7DF05DFDA7
S31508007990204638BD480E0E08A0F11400D4E7A0F121
S315080079A01000D1E7A0F10C00CEE7A0F11800CBE754
S315080079B01F2008B502210C4A9AF09FFE0B4826F0B4
S315080079C00FFB78B90121094825F066FF50B9084828
S315080079D083F094FA1F200221064A9AF08EFE034885
S315080079E09DF098F808BD00BFCCEB0D0880B00020CC
S315080079F058150020EAEB0D08F8B51E4C002526465A
S31508007A001D4F1E481E4B3A461E49C0E901550360E4
S31508007A10C560057445610583C3F052FF1A4B2946B4
S31508007A2046F8D83B3246234604F1080008F08AF89F
S31508007A3004F12003C4E93435144B3A46C4F8D83067
S31508007A40134B2046C4E9383604F1F403C4E93B3540
S31508007A5041F20A430F4984F8E85084F8F451A4F82F
S31508007A60DC30C3F02DFF3A46BDE8F8400A490B481A
S31508007A70C3F026BF58150020900702205434012071
S31508007A8040CA0E0811CF0208100D0E0824B60E08BB
S31508007A9008B60E08A154080847540808E407022047
S31508007AA07FB5044602211F20854A9AF026FE234602
S31508007AB002211F20834A9AF020FE834D02211F20AF
S31508007AC07F4A9AF01AFE02211F20804A9AF015FE74
S31508007AD02B784BB9284627F0E3FB00280CBF012377
S31508007AE000232B7040F0E5802146794824F08AFF70
S31508007AF064F0E4FE0446C4F06AFF002840F0D9802A
S31508007B00201D22F043F904F1080022F0CDF82046A2
S31508007B10C4F072FF6F4A704B0221002818BF134643
S31508007B201F206E4A9AF0E9FDFFF742FF002840F051
S31508007B30C0806B4B039001936A4B6B4802939CF091
S31508007B409EFE6A4C039001AB6948236327F054F9FB
S31508007B50002840F0AE8067489DF0A2F9664DD5E84A
S31508007B60AF3FDA070BD42846A3F0E3FC38B1634AE3
S31508007B7063496448C3F0A4FE2846A3F0DFFC624DBF
S31508007B80D5E8AF3FDB070FD42846A3F0D2FC58B19F
S31508007B905C495E4814F064F8584A5D495B48C3F08E
S31508007BA08FFE2846A3F0CAFC5A4D584B2846236434
S31508007BB025F0B8F92369A5631BB9574B574A2361C2
S31508007BC05A60E36B53BB564D6B68002B70D105F1B9
S31508007BD0140026697DF082FC05F11C007DF07EFC10
S31508007BE0EB6803B92B7295F834304E4823F0050339
S31508007BF085F834307DF072FC4B487DF06FFC95F8C3
S31508007C0034304A4823F0180385F834307DF066FC92
S31508007C1000236E602B7285F83430E563236C0BB94C
S31508007C20434B2364434D444B28462169636294F0D1
S31508007C3050F8636A28462B6193F021FA002838D158
S31508007C4022692562002A36D03C4B3D4D5A60636155
S31508007C5002F090FE3B4B0221A0623B4A2120E362E0
S31508007C609AF04BFD2846216916F0A2FA08BB20694E
S31508007C70A56197F08CFA354B216960643448236016
S31508007C809BF0D0FB324822F071F81849314815F0BC
S31508007C900BFE044617489DF011F93CB92E4826F00C
S31508007CA0D3FE144827F08EFA044630B1204600E089
S31508007CB0032004B070BD2F20FBE700F0AFF8F5E70E
S31508007CC014EC0D0847EC0D08A8BF002053EC0D086E
S31508007CD02855012003EC0D080BEC0D0863EC0D0884
S31508007CE0E9780008F578000880B000209807022097
S31508007CF080550120B0BF00204C3401209007022097
S31508007D004954080894070220483401200812002024
S31508007D10217900085434012084080220E2F9012060
S31508007D20184901203C4901204449012024490120E1
S31508007D30C8730020AC46012064080220A44601202E
S31508007D40684601206808022075EC0D0810330120EA
S31508007D50E407022060770020A5EC0D0810B513484B
S31508007D60FFF79EFE08B17DF0EDFC11489DF098F8EE
S31508007D7064F0A4FD00B10C301AF030FB0C489DF0FD
S31508007D809DF81F2002210B4A9AF0B7FC0A485EF0BC
S31508007D90F1FC08B17DF0D6FC084C2068D5F077FCDC
S31508007DA008B1C4F0B4FB206010BD00BFCAEC0D08D2
S31508007DB0B0BF0020D3EC0D089CA701205034012049
S31508007DC010B50A489DF008F80021094A0948D5F077
S31508007DD0EAFB094C02212060084A1F209AF08DFC14
S31508007DE023680BB9C4F093FB10BD00BF8055012072
S31508007DF03CED0D085D7D000850340120E5EC0D08CA
S31508007E00014820F0A1BC00BFF04A0120024B012125
S31508007E101868D5F095BC00BF7034012010B50A4823
S31508007E2020F0E4FB044608B1C4F071FB01F09EFDA6
S31508007E3001F0E4FD2146054A0548D5F0B4FB054B9B
S31508007E4018600028F0D010BDF04A012068ED0D0832
S31508007E50017E00087034012010B5044601210C206B
S31508007E60064A9AF04AFC0023E068A36020B1BDE800
S31508007E70104003689B68184710BD00BF8CED0D08BD
S31508007E80A0F10400E8E700BF10B50A4CD4E8AF3FFC
S31508007E90DB070DD42046A3F04CFB48B10648074B38
S31508007EA0074A08490360C3F00BFD2046A3F046FBCA
S31508007EB0014810BDD8340120DC340120E4AE0E0898
S31508007EC0900702200B55080810B504460B4B0360B3
S31508007ED06433436000F50E702DF0E4FF636A23B146
S31508007EE0002204F11C0062629847236923B100222C
S31508007EF004F1080022619847204610BDC0210E08EB
S31508007F00A0F10400E0E700BF10B50446034B40F8B3
S31508007F10343B7DF010FB204610BD00BFBC1D0E088B
S31508007F2037B5C0680D46144638B901210C200E4AEB
S31508007F309AF0E3FB002003B030BD1A68214601928F
S31508007F4000221A6001AA0AF0EDF801A87DF0F3FAFA
S31508007F50A38823B9E38813B92378402BEAD02B8961
S31508007F6043F040032B81E5E79FED0D08A0F10400DF
S31508007F70D6E700BF73B516480AF090FA1549164AAF
S31508007F80D1F8AC34154E164D5360A1F54051334621
S31508007F900F4800950AF05EFB124B336125F09CFAF8
S31508007FA0044602460A4930460BF090FA294620460E
S31508007FB025F026F940B10C4826F046FD6D210B4BFD
S31508007FC00B4A0C4863F07CFA6C6002B070BD00BFC7
S31508007FD03018002060A700200C080220EC070220B9
S31508007FE05017002080510100D2ED0D08EEED0D0866
S31508007FF003EE0D0821EE0D0870B500243248334B08
S31508008000334E03606433436000F10803C0E902336A
S31508008010304BC0E90440836100F11C03C0E9073313
S315080080202D4BC0E90940C0E90B342C4BC0E90D447F
S315080080304364203383640523C0E92044C0E922440D
S31508008040C0E9644480F83C40046480F8744080F8D1
S315080080509841C0F89C4180F8A04180F8B84180F862
S31508008060D04180F8E841C0F81C321D4B32461D4904
S315080080701D4DC0F83832C0E98F4480F80042C0F878
S31508008080184280F8204280F84442C3F019FC324670
S3150800809016491748C3F014FC324616491648C3F069
S315080080A00FFC2846154B6C6040F8103B2C7227F0E5
S315080080B067FCC5E93444C5E9364432462846BDE876
S315080080C070400F49C3F0FCBB30180020C0210E08D1
S315080080D090070220A53001081D250108A8EE0D0805
S315080080E09CFA0E08C97E0008501700201F5508087C
S315080080F00C08022021550808EC070220BC1D0E08B2
S31508008100097F0008012903BF034B00201B78A6201E
S3150800811008BF1370704700BF35E00120022938B543
S3150800812014461D460FD1202200210848C4F026FB1C
S315080081303CB1202D2A46214628BF20220348C4F0F8
S31508008140D9F9002038BDA620FCE700BF15E00120BC
S31508008150104608B56AB163B102290CD1202B28BF95
S3150800816020231A46029B05491A60C4F0C3F9002069
S3150800817008BD2F20FCE7A620FAE700BF15E001207E
S31508008180012905D102B11278024B00201A707047F6
S31508008190A620704735E001202DE9F0431D4600234F
S315080081A089B0074608460E461446CDE9053327F03A
S315080081B061F918B9D82009B0BDE8F083304605A999
S315080081C027F024FA0028F6D1204627F053F900288C
S315080081D0F0D0204606A927F019FA0028EBD1DDE9E8
S315080081E00586079007A9124827F010FA0446D8B959
S315080081F0079B18EB030902D10EB1C4F088F9009366
S3150800820002213B461F20CDE901860A4A9AF075FAF3
S315080082106B689E420AD8324649462868C4F094FAE2
S315080082206B689E42E9D86E602046C4E71924FBE7CE
S315080082302172080018EF0D08014827F037BB00BF68
S3150800824000720800002307B50348019301AB27F025
S3150800825031FA03B05DF804FB00720800014827F004
S31508008260E1BA00BF0C72080010B506480C4627F0A4
S31508008270A1F940F20123984202BF4FF6F173238019
S31508008280002010BD0C720800014827F00FBB00BF84
S315080082900D72080073B5002601AB0C480C4615464E
S315080082A0019627F007FA40F20123984208D14CB10B
S315080082B0062D09D920462946054A7DF0B2F93046E9
S315080082C002B070BD0B20FBE71920F9E70D72080014
S315080082D036EF0D08014827F0A5BA00BF0B72080053
S315080082E010B506480C4627F065F940F20123984276
S315080082F002BF48F205032380002010BD0B72080058
S31508008300014827F0D3BA00BF0E72080073B50026DD
S3150800831001AB0C480C461546019627F0CBF940F2FE
S315080083200123984208D14CB1062D09D92046294681
S31508008330054A7DF076F9304602B070BD0B20FBE7A2
S315080083401920F9E70E7208003DEF0D08014827F0DD
S31508008350ADBA00BF10720800002307B503480193A1
S3150800836001AB27F0A7F903B05DF804FB107208000B
S31508008370014827F09BBA00BF11720800002307B511
S315080083800348019301AB27F095F903B05DF804FBA8
S3150800839011720800014827F089BA00BF1272080056
S315080083A0002307B50348019301AB27F083F903B00F
S315080083B05DF804FB12720800014827F033BA00BFC3
S315080083C01872080010B506480C4627F0F3F840F274
S315080083D00123984202BF01232380002010BD00BF5D
S315080083E018720800014827F061BA00BF0F7208002A
S315080083F073B5002601AB0C480C461546019627F0C6
S3150800840059F940F20123984208D14CB10C2D09D9EB
S3150800841020462946054A7DF004F9304602B070BD6B
S315080084200B20FBE71920F9E70F72080047EF0D0844
S31508008430014827F03BBA00BF04720800014827F03C
S3150800844039B900BF04720800014827F049BA00BFCD
S315080084501F72080007B500200090034827F080F92E
S3150800846003B05DF804FB00BF1F720800014827F03F
S31508008470D9B900BF0772080013B510480C4627F093
S3150800848099F840F201229042034604D14FF47063F2
S31508008490238000230FE070B92388B3F5805FF8D3F3
S315080084A04FF4C2732F240121CDE90034044A054B49
S315080084B09AF023F92346184602B010BD0772080041
S315080084C074EF0D0854EF0D08014827F0C3B900BF33
S315080084D00872080010B506480C4627F097F840F2CF
S315080084E00123984202BF4FF47A732360002010BD1F
S315080084F008720800014827F0D9B900BF09720800B8
S31508008500014827F0D7B800BF09720800014827F0CC
S31508008510CDB900BF0A720800014827F0CBB800BFE2
S315080085200A7208000B4610B5084A0C46084809495D
S31508008530FFF732FED82807D119F0DCFF0368214679
S31508008540BDE810409B68184710BD00BF2772080099
S3150800855085EF0D08267208000B4610B5084A0C462A
S3150800856008480949FFF718FED82807D119F0C2FFAD
S3150800857003682146BDE810405B69184710BD00BF77
S3150800858025720800A1EF0D08247208000B4610B5E5
S31508008590084A0C4608480949FFF7FEFDD82807D1BE
S315080085A019F0A8FF03682146BDE810401B69184763
S315080085B010BD00BF23720800C7EF0D08227208001D
S315080085C0022307B501A8D1E90012019364F098F8CF
S315080085D018B90199024827F03DF903B05DF804FB84
S315080085E0207208001FB5022003900698009003A881
S315080085F064F09EF818B90399024827F02BF905B0DC
S315080086005DF804FB20720800002370B5164886B092
S315080086100D461646049326F02DFFE8B1124804A924
S3150800862026F0F4FFB0B9049B3246002B08BF02239C
S31508008630294605A8059364F0E3F804460290736892
S315080086401F2001936B6802210093084A049B9AF045
S3150800865054F8204606B070BD19F04CFF0368324640
S3150800866029469B699847E8E720720800E0EF0D085D
S31508008670014827F0EFB800BF21720800014826F02C
S31508008680C5BF00BF21720800014827F00FB900BF17
S3150800869029720800014827F00DB800BF29720800A2
S315080086A0014827F01DB900BF0572080007B500206C
S315080086B00090034827F054F803B05DF804FB00BFA8
S315080086C005720800014827F095B800BF287208000F
S315080086D0014826F043BF00BF287208000020094B56
S315080086E010B5186032B9084C2146BDE81040074855
S315080086F027F0B0B8A1F5005105488C189CF07DFB11
S31508008700F2E700BFE034012000E0170821720800F4
S315080087108055012000232DE9F04F85B080460F468D
S315080087202C4803A91546039326F070FF002838D174
S31508008730294E039933681BB928489CF03FFB80BB38
S31508008740D5E900143368039A02EB030B14F003030C
S315080087501BD10A462346594620489CF035FB00BBE8
S315080087604046316827F076F8D8B93846696827F060
S3150800877071F8B0B932686B680020134413F03F02F1
S315080087801CBF40339B1A33600BE004F1040AAAEBC2
S31508008790030A5046019121F0C1FF0199814618B993
S315080087A0AC2005B0BDE8F08F2246C3F0A3FEAAEBC5
S315080087B00402FF2109EB0400C3F0E0FF53464A46D2
S315080087C0594606489CF000FB0446484621F0CAFF75
S315080087D02046C4E721720800E034012080550120B4
S315080087E008B50A4602480349FFF794FF08BD00BFCB
S315080087F0227208002372080008B50A46024803498F
S31508008800FFF788FF08BD00BF24720800257208001C
S3150800881008B50A4602480349FFF77CFF08BD00BFB2
S315080088202672080027720800DFED0B7AB4EEE70A15
S31508008830F1EE10FA08B50CD9DFED087ADFED080A73
S3150800884030EE670A63F0C0F9DFED067A20EE270AF4
S3150800885008BD9FED050AFBE7000084420000704250
S31508008860D46608BE70D9A44300007F439FED107AF2
S31508008870B4EEC70AF1EE10FAF0EE407A08B50AD857
S3150800888063F072F99FED0B7ADFED0B7AE0EE077A6B
S31508008890B0EE670A08BD9FED090ADFED090A37EE53
S315080088A0C00A63F091F9DFED077A20EE270AF1E7AF
S315080088B0000084420DF1C6429C1E2143000070420E
S315080088C087A79ABDA30F9043DFED117AB4EEE70AA6
S315080088D0F1EE10FA08B515DAF3EE037AB4EEE70A04
S315080088E0F1EE10FA11D9F2EE047A30EE670A63F067
S315080088F03BF99FED087ADFED087AE0EE077AB0EEED
S31508008900670A08BD9FED050AFBE79FED050AF8E72C
S31508008910000084428A840A43BC85984300007F434A
S31508008920000000009FED0C7AB4EEC70AF1EE10FACB
S3150800893008B506D89FED097A60EE077AB0EE670AA1
S3150800894008BDDFED070A63F03FF99FED067ADFED14
S31508008950067AE0EE077AF1E7BD3A473B52B84E4150
S315080089605555D53E3D0A873FAE4761BDDFED117AC5
S3150800897020EE270A60EEA70ABCEEC07A21EE271A77
S3150800898086B08DED017ABCEEE07AFCEEC17A8DED0B
S31508008990027A0020CDED037A9DF8043063F30700D0
S315080089A09DF8083063F30F209DF80C3063F31740E9
S315080089B006B0704700007F43DFED3C7A10B5B0EE95
S315080089C0407A2DED048B20EEA70A9FED399ADFED4C
S315080089D0397A20EE899AA7EE270ADFED377AA7EECD
S315080089E0279ADFED367AA1EE279ADFED357A20EE63
S315080089F0A78ADFED347AA7EE278ADFED337AA1EE70
S31508008A00278ADFED327A82B0A1EE270A0446FFF7FD
S31508008A1089FF2046F0EE408AB0EE490AFFF782FF4A
S31508008A202046B0EE409AB0EE480AFFF77BFFF5EE17
S31508008A30C08AF1EE10FAB0EE401A2DD4F7EE007A9D
S31508008A40F4EE678AF1EE10FA77FEA88AB5EEC09AB8
S31508008A50F1EE10FA23D4F7EE007AB4EE679AF1EE47
S31508008A6010FA37FE899AB5EEC01AF1EE10FA19D443
S31508008A70F7EE007AB4EE671AF1EE10FA37FE811AAD
S31508008A80F0EE490AB0EE680A204602B0BDEC048B47
S31508008A90BDE81040FFF76ABFDFED0D8AD6E79FED08
S31508008AA00C9AE0E79FED0A1AEAE700BF86C9C4BF39
S31508008AB0C520F03F8B6C4F407E1D78BFC3642A3DAE
S31508008AC060E550BED3BC633DC74B873F8048FFBEB9
S31508008AD00000000007EE901A9FED267AF8EE677AF6
S31508008AE010B52DED048B87EE279A82B0B0EE490AB1
S31508008AF00446FFF799FE2046F0EE408AB0EE490A92
S31508008B00FFF7B4FE2046B0EE408AB0EE490AFFF7FA
S31508008B10DBFEFCEEE87A17EE903AFCEEC87A8DF8A2
S31508008B20003017EE903AFCEEC07A8DF8013017EE59
S31508008B30903A8DF8023000990022FF2320467CF0F7
S31508008B40DFFD8DF80000C0F30721034610468DF8B7
S31508008B500110BDF80010C3F30743CAB262F3070059
S31508008B60C1F3072161F30F2063F3174002B0BDEC90
S31508008B70048B10BD00401C4606EE902A07EE103AFC
S31508008B80DFED105A07EE901AF8EE666AB8EE477AE5
S31508008B9086EEA56AF8EE677AC7EE256AB7EE001A7A
S31508008BA09FED097A31EE461AC7EE870A31EE661A44
S31508008BB080EEA60A21EE001A20EE060A82B002B05E
S31508008BC0FFF7FABE00FF7F4700007E43F7B50C4665
S31508008BD0074615461E467CF021FC01460B4826F042
S31508008BE081F888B123460221094A1D20CDE900569D
S31508008BF099F083FD38467CF011FC2B460146224647
S31508008C000248009626F078F803B0F0BD805501209A
S31508008C102BF00D0807EE901A2DE9F041F8EEE77AE9
S31508008C202DED068BDFED67AADFED679A07EE102AB2
S31508008C3067EEAA7AC7EEA98AF8EEC77A84B087EEF5
S31508008C40A99A80467CF0EEFBB5EEC09A07EE900A2C
S31508008C50F1EE10FAF8EEE77A9FED5CAA87EEA98A9C
S31508008C6011D828EE0A8AFCEEC87ACDED017A9DF86D
S31508008C7004301A461946404604B0BDEC068BBDE8DA
S31508008C80F041FFF7A3BFF4EE6A8ADFED517AF1EE01
S31508008C9010FA67FEA88ADFED4F7AC8EEA79AFDEEAE
S31508008CA0E9AAF8EEEA7A18EE100A79EEE79A61F080
S31508008CB04FF8044619EE100A0D4661F049F80246C7
S31508008CC00B4606460F460020434960F0E1FE224661
S31508008CD02B4661F095F861F04DFB69EE297A08EEAE
S31508008CE0900A17EE900A61F033F802460B46002008
S31508008CF0394960F0CDFE22462B4661F081F861F0D5
S31508008D0039FB09EE100A19EE900A61F021F80246BD
S31508008D100B460020304960F0BBFE32463B4661F008
S31508008D206FF802460B4600202B4960F0B1FE22463A
S31508008D302B4661F065F861F01DFB1AEE902A07EEE6
S31508008D40900A042A36D8DFE802F0030720252C000B
S31508008D50B0EE489AB0EE678A68EE8A8A28EE0A8AE2
S31508008D60FCEEE87A29EE0A9ACDED017AFCEEC87A8D
S31508008D70CDED027AFCEEC97ACDED037A9DF8043082
S31508008D809DF808209DF80C1075E7B0EE689AF0EE8D
S31508008D90678AE1E7F0EE497AB0EE689AF0EE488A1B
S31508008DA0D8E7B0EE487AB0EE679AB0EE688AF0EE89
S31508008DB0478AD1E7F0EE497AB0EE489AB0EE688A6B
S31508008DC0E5E700BF0000B44300007E4300007F4390
S31508008DD000000000000070420000F03F37B50D4665
S31508008DE00446FFF777FEC0F30723C0F307428DF862
S31508008DF004008DF805308DF806202B4602211D202B
S31508008E00074A99F07AFC20469DF806309DF8052019
S31508008E109DF8041003B0BDE83040FFF7D7BE00BF89
S31508008E2045F00D087FB504460B460D461646022149
S31508008E3000921D200B4A99F060FC20467CF0F2FA5D
S31508008E40334601462A462046FFF796FEC0F30743F7
S31508008E50C0F30722C1B2204604B0BDE87040FFF750
S31508008E60B5BE00BF58F00D08014822F097B800BFFC
S31508008E70384C012008B500220249034899F0D4F875
S31508008E80002008BD45810208E43401200A4608B9D5
S31508008E90FFF7F0BF0146014899F0E7B8E43401202E
S31508008EA008B50222054906481FF07EFBBDE80840C2
S31508008EB00122044904481FF077BB00BF1CF10D08C6
S31508008EC0E434012010F10D08F04A01200122024B7A
S31508008ED083F80421704700BFE434012000210446CA
S31508008EE000B589B01A2201A80091C3F047FC2346B1
S31508008EF0074A1E21684662F003FC6946054825F0C4
S31508008F00A3FD68467CF021FCD1F0BAFCC3F0FFFA59
S31508008F1034F10D084AF10D082DE9F04F0446D0E961
S31508008F200076384B87B0D3F828B0D3F82CA0D3F8FE
S31508008F303490D3F83880D0E90253019303690121AC
S31508008F4002934369304A039383690493C3690020F3
S31508008F5005932E4B1B6899F0D0FB5B460121002038
S31508008F602B4A99F0CAFB534601210020294A99F059
S31508008F70C4FB4B4601210020274A99F0BEFB434615
S31508008F8001210020254A99F0B8FB2346012100203B
S31508008F90234A99F0B2FB00F023FB3B46012100204F
S31508008FA0204A99F0AAFB3346012100201E4A99F06F
S31508008FB0A4FB2B46012100201C4A99F09EFB0121A7
S31508008FC00020019B1A4A99F098FB01210020029B78
S31508008FD0184A99F092FB01210020039B164A99F042
S31508008FE08CFB01210020049B144A99F086FB012181
S31508008FF00020059B124A99F080FB00F0F1FAD4F0A4
S3150800900028FFFEE700ED00E0ABF10D08B4400120B3
S31508009010C1F10D08D7F10D08EDF10D0803F20D08A1
S3150800902019F20D082FF20D0845F20D085BF20D082E
S3150800903071F20D0887F20D089DF20D08B3F20D08BE
S31508009040C9F20D08024B034A1A607CF07FBB00BFC9
S31508009050B440012044524148024B034A1A607CF04E
S3150800906075BB00BFB44001204655504D024B034A1C
S315080090701A607CF06BBB00BFB440012046535542D2
S31508009080024B034A1A607CF061BB00BFB440012062
S3150800909054465355024B034A1A607CF057BB00BF2F
S315080090A0B440012054464353024B034A1A607CF0ED
S315080090B04DBB00BFB44001204E4D4244012108B5C6
S315080090C00020064B064A99F018FB00F089FAD4F0FE
S315080090D0C0FE0449044861F01FFDFEE7DFF20D08F3
S315080090E0811C0F087BF10D0892F10D0800240D462E
S315080090F000B59BB06022214602A80194C3F03EFB4E
S315080091002B466421094A01A862F0FAFA0121204691
S31508009110074A01AB99F0F1FA00F062FAD4F099FE29
S315080091200449054861F0F8FCFEE700BF02F30D08A4
S31508009130811C0F087BF10D0892F10D08034B0360A3
S31508009140034B0B604FF4A073136070475040012027
S31508009150503B0120034B0360034B0B604FF4A07395
S3150800916013607047EC3A0120EC35012000240D46C7
S3150800917000B59BB06022214602A80194C3F0FEFA0E
S315080091802B466421064A01A862F0BAFA0121204654
S31508009190044A01AB99F0B1FA00F022FAC3F0B7F924
S315080091A015F30D08811C0F08024B034A1A607CF060
S315080091B0CDBA7047B4400120474F44572A2108B515
S315080091C0024800F059F9B6F0D1F9FEE725F30D0883
S315080091D0024B01211868D4F0B3BA00BF80410120C0
S315080091E00D4BD9889A8889B292B2914211D0D98802
S315080091F09A8889B292B291423DBF9A88D8881B89CB
S31508009200D8882DBF9B8813FA80F0801AC01A80B2BE
S3150800921070470020704700BFB8400120F8B50E46D9
S31508009220074608B9C3F073F9154D2C898C42F9D352
S31508009230FFF7D6FF201A80B286421BD8EB88E8884B
S31508009240E41AA4B2A6422B6815D92246394613FA5F
S3150800925080F0C3F04FF92868321B3919C3F04AF970
S31508009260EB8816FA83F12B89B1FBF3F203FB121193
S3150800927089B2E980F8BD3246394613FA80F0EDE73F
S31508009280B840012038B50446D4F0DDFF0121054673
S315080092900846D3F0BDF82846D4F0D0FF0C480D4B4D
S315080092A02146B4F8002100684FF006F84FF0FF3267
S315080092B000210120D4F085FAD4F0C5FF0446002128
S315080092C00120D3F0A5F82046BDE83840D4F0B6BF53
S315080092D0280D0220D1910008002370B5174CC2B0A2
S315080092E0174DADF804318DF806314FF0FF330022E3
S315080092F0206801A9D4F00AFD0028F6D19DF8066178
S3150800930001A8FFF7BFFF4EB140F60D23ADF80430B4
S31508009310022301A8ADF80431FFF7B4FF2A6852B159
S31508009320084901A862F020FA0023ADF8040101A853
S315080093302B60FFF7A7FF00231A46D9E7144101203F
S31508009340184101204FF30D082DE9F843DFF8508046
S315080093501E46B8F800901546A3EB09070D4BFFB259
S315080093601C89FFF73DFF241AA4B2A74207D839463D
S3150800937005EB0900FFF752FF0023A8F8003006485E
S3150800938032462946054B00684EF0E4FEBDE8F84330
S31508009390FEF73CBDB8400120280D0220499300087D
S315080093A04CBA012070B5204E3468002C3BD14FF4DE
S315080093B082711E4A0A20D4F035FC1D4D1D4A2860CC
S315080093C021461D48D4F0EFF81C4B1D4A9C801A60B4
S315080093D04FF4807230601A81DC8008B9C3F097F8C0
S315080093E02B68002BFAD0174C8022174B1749206898
S315080093F04EF0B0FE8022144B154920684EF0AAFEA6
S315080094000B2051F0C3FE0B2051F07AFE1422114BAB
S315080094100521DA640422A3F580531A650E48BDE8CF
S315080094207040B5F0C2BE70BD8041012064F30D08DE
S315080094301441012084F30D08D9920008B840012090
S3150800944036E00120280D022049930008DEEF0120AE
S315080094505EEF01200020015B0000015B08B5FEF706
S31508009460D5FC0421034B03F500521165D164DB6C6E
S3150800947008BD00BF0000015B70B50C460546C2B0CA
S3150800948018B94FF0FF3042B070BD4B1EFF2BF8D80D
S315080094900C4E33680BB9FFF785FF00232246294691
S315080094A001A88DF80631C3F025F84FF0FF331822CE
S315080094B0306801A9ADF80441D4F0F4FB0028E0D1E6
S315080094C020B2E0E71441012010B50C46C2B00146AF
S315080094D0D0B1631EFF2B17D8224601A8C3F00AF89D
S315080094E001230B488DF8063118220023006801A9CC
S315080094F0ADF80441D4F0D6FB10B920B242B010BD85
S31508009500044A1368013313604FF0FF30F6E700BFD3
S3150800951014410120184101200422F0B52C4B0C46B9
S31508009520074685B01A6500284FD000294DD0FFF7A9
S3150800953057FEA04219D2D4F099FE05462548264E74
S3150800954003AB01A9006802AAB5F080FD3388029929
S315080095508B4207D20198C91A184489B2FFF75EFEF2
S31508009560029B33802846D4F07CFE1C4D2E89B442DB
S3150800957001D9C2F0CCFFFFF733FEA04228BF204630
S31508009580AB8884B2F61AB6B2A6422B68A98817D257
S31508009590324613FA81F13846C2F0ACFF2968A21B9D
S315080095A0B819C2F0A7FFAB882A8914FA83F3B3FB6C
S315080095B0F2F102FB11339BB2AB8020B205B0F0BDCD
S315080095C02246384613FA81F1EBE74FF0FF30F5E70C
S315080095D00010015B280D02204CBA0120B84001207A
S315080095E0002330B50B4CC3B00B4DADF804318DF8E4
S315080095F00631002320681A4601A9D4F087FB08B172
S3150800960043B030BDBDF80421286801A94EF0AEFB71
S31508009610EFE700BF14410120280D02200A46014643
S3150800962020B11AB1024B18684EF0A0BB704700BFB4
S31508009630280D022008B5082021F070F818B100237B
S315080096404360014B036008BDF0F30D0808B5082018
S3150800965021F064F818B100234360014B036008BD8C
S315080096600CF40D08436843B9054B0B6005234B60A2
S31508009670436801334360012070470020704700BFEC
S31508009680A8F30D08042370B5144645688AB0ADF8EA
S3150800969002302B680A4601A805499E687CF0C1F885
S315080096A0224628460DF1020301A9B0470AB070BD4B
S315080096B0AEF30D0830B54468134622688BB01569B9
S315080096C001A80A4603497CF0ACF8204601A9A84738
S315080096D00BB030BDBBF30D0830B58DB044680192B0
S315080096E023680A4603A80649DD687CF09AF804232D
S315080096F020460DEB030203A9A8470DB030BD00BFF5
S31508009700AEF30D08F0B5A3B0064617A81F460C46DB
S31508009710154697F09CFC2A2217A80CA997F0AAFCD4
S315080097200DF10B03019315234FF48072009317A8CC
S31508009730002397F0BCFE50BB97E80300154B8DE855
S315080097400300D3E9002317A897F089FFF8B9D7E9EA
S315080097500201114B8DE80300D3E9002317A897F0FF
S315080097607EFFA0B99DF90B1017A897F0D5FE70B922
S315080097707668224633680949DF6803A82B467CF0D9
S3150800978050F83046BDF874300CAA03A9B84723B080
S31508009790F0BD00BF58F40D0850F40D08BBF30D08D2
S315080097A013B5044608460A4B1146C4E9003000239F
S315080097B0C4E903330193036822815B6A01AA9847C7
S315080097C010B9019BC4E90303204602B010BD00BFCF
S315080097D0D4F30D082DE9F041D0E90332934204464B
S315080097E00D469EB003D300201EB0BDE8F0812A26A0
S315080097F042683B495768ADF802603A68D2F8088073
S31508009800028910A87CF00DF838460DF1020305AA66
S3150800981010A9C0470028E6D110A896F05BFF32468B
S3150800982005A910A896F099FF4FF480720023152118
S3150800983010A897F02BFB0028D5D10DF1010110A82F
S3150800984097F05EF90028CED1264BCDE90100D3E981
S315080098500023CDE9030010A897F00BFB0028C2D11E
S3150800986001AE314610A897F00EFA0028BBD11E4B60
S3150800987010A8D3E9002397F0FCFA0028B3D10DF11C
S315080098800C08414610A897F0FEF90028ABD110A89D
S3150800989097F0E4FA0028A6D19DF9011010A897F0D0
S315080098A089FA00289FD196E8060004F1140704F106
S315080098B0250638467BF0DBFF98E8060030467BF045
S315080098C0D6FF3846C2F0ABFEC5E900703046C2F096
S315080098D0A6FEC5E90260E36801200133E36083E779
S315080098E0BBF30D0858F40D0850F40D08F8B50546F5
S315080098F00E460024094FAC4206DB1EF0B5FF0849A8
S3150800990098F01CFC0020F8BD1EF0AEFF56F8242087
S31508009910394698F013FC0134EDE700BF26380F08E6
S3150800992062F40D08F8B505460E460024064FAC420B
S3150800993001DB0020F8BD56F824303A4602211C20E7
S3150800994098F0DBFE0134F2E7811C0F0810B51EF013
S315080099508BFF044694F0ADFE03490246204698F074
S31508009960EDFB002010BD00BF60F40D08032202497C
S3150800997002481EF019BE00BFB4F40D08F04A0120D3
S315080099802DE9F04700240646E0B088464FF4BE723B
S31508009990214601A80094C2F0F1FEA64228DD6D46D4
S315080099A04FF0200958F824A05046C2F038FE60ABA4
S315080099B02F189F4202461DD228465146C2F0C0FDC6
S315080099C07D1C60AB9D4204F101042CBF3D4687F81F
S315080099D00090A642E6D108489BF09EF86846CCF06F
S315080099E0ACF805489BF09AF8002060B0BDE8F0870F
S315080099F02F20FAE71920F8E780B000200122024953
S31508009A0002481EF0D1BD00BF00F50D08F04A01203E
S31508009A100122024B83F80421704700BF84410120CC
S31508009A2010B50446054B036000F5CF6099F07DFC40
S31508009A3023690BB1C2F06BFD204610BDBCB20E08FF
S31508009A4070B504460B4B00F5387503F12C0203601C
S31508009A504C334260836000F11006B54207D055F8D2
S31508009A60080C283D0028F8D02BF0E8FBF5E720463F
S31508009A7070BD00BF6CEB0E08A0F10400E0E7A0F192
S31508009A800800DDE710B5094B04460360084B836000
S31508009A90006948B143680BB9C2F039FD013B436020
S31508009AA013B903681B6B9847204610BD00F60D08CE
S31508009AB0C0F70E0810B50446034B40F80C3BFFF7F9
S31508009AC0E1FF204610BD00BF24F60D080022002342
S31508009AD010B5C0E90023C0E90223C0E904230D4BF1
S31508009AE004460021836121226030C2F047FE4FF60A
S31508009AF0FF720023A4F882204FF48072204684F86F
S31508009B008130A4F88420C4F888307BF09AFF204678
S31508009B1010BD00BF58C70E0800F1080373B5044608
S31508009B200D46036011B91048C2F082F80846C2F023
S31508009B3076FD0F2805EB0006019007D9002220467E
S31508009B4001A95FF0A3FD019B2060A3603246294668
S31508009B502068C2F0BBF800212046019B226863609A
S31508009B60D15402B070BD00BF0CF50D0810B50446FF
S31508009B70044B0360406A7BF0EAFEE0687BF0F4FF82
S31508009B80204610BDB0F50D0870B5164605460C46BC
S31508009B908CB0114668467BF039FF294630467BF083
S31508009BA0A7FE641B0A4BE4105C43694606A87BF0D3
S31508009BB02DFF2246002106AB28467CF015F806A89C
S31508009BC0C2F047F86846C2F044F80CB070BD00BF52
S31508009BD0ABAAAAAA2DE9F04F4FF0180B0446174670
S31508009BE00E468DB000EB0B08351BB5F5C07F22DDA0
S31508009BF03F4BED105D4367BB4FF01808AF1E7F1053
S31508009C00684608FB07417BF001FF694606A87BF01A
S31508009C10FDFE20462A46394606AB7BF0E5FF06A838
S31508009C20C2F017F857B96846C2F013F8331B182B59
S31508009C30A6F1180607DC0DB0BDE8F08F6846013FAF
S31508009C40C2F007F8DCE7324631462046FFF79CFFAC
S31508009C50ECE76D100BFB0545404629467BF0BFFF38
S31508009C60A6F11809C246494660B128467BF0B7FFF7
S31508009C7008B129460BE0494640467BF0B0FF28B1BB
S31508009C80494604E040467BF0AAFF10B34146204609
S31508009C90C2F05CF83546504621467BF0A0FFD14617
S31508009CA00AF1180A0028F6D1A5F1180A51462046E5
S31508009CB07BF095FF5546AAF1180A0028F6D1A94562
S31508009CC00ED3013F31463A464846FFF783FF4E46D4
S31508009CD08AE7494628467BF082FF0028C9D0CFE7A5
S31508009CE029464846C2F032F809F1180AD3E700BFF8
S31508009CF0ABAAAAAA2DE9F043884205460E4687B0C4
S31508009D0005D0DFF8608000F11804A64202D107B03A
S31508009D10BDE8F083294620467BF061FF04F1180769
S31508009D20E0B1214668467BF071FEB946641BE41033
S31508009D3008FB04F4002C08DC284669467BF0D8FDAD
S31508009D406846C1F086FF3C46DFE7A9F13001A9F174
S31508009D50180948467BF0CCFD013CEBE720467BF032
S31508009D60A7FFF0E7ABAAAAAA2DE9F041036886B0D7
S31508009D709B6A0446984701210346394A242098F0ED
S31508009D80BCFC236821466846DB6A9847039E002484
S31508009D9030460DF10408404505D1324B9C4206DD9C
S31508009DA03148C1F048FFC1F0E9FD0134F3E718274F
S31508009DB067431CB13846B6F038F80446254646458A
S31508009DC02CD1AC4217D0294B2E1BF2105A43B2FAAB
S31508009DD082F2C2F11F02294620465200FFF7FAFE18
S31508009DE0B6F5C07F2ADD04F5C07631462046FFF772
S31508009DF081FFB5421DD12646DFF87480B54222D1CF
S31508009E002646B54227D11CB139462046B6F01DF87C
S31508009E1002987BF09CFD06B0BDE8F081284606F165
S31508009E2010017BF0B3FD3046C1F0A8FD1835064693
S31508009E30C5E730467BF03CFF1836DAE72946204668
S31508009E40FFF758FFD7E742460121242056F8183B6A
S31508009E5098F053FCD2E73046C1F0FBFE1836D0E73F
S31508009E603EF50D08555555056FF50D08ABAAAAAA76
S31508009E70A0F50D08F8B50025474C60199035FFF791
S31508009E8025FEB5F5347FF8D100254448FFF71EFEB8
S31508009E900026C4E9D855C4E9DA55A4F87053C4F8BD
S31508009EA0745384F8785384F8805384F88253A4F85A
S31508009EB08453002712243A4A3A493748C1F000FD2C
S31508009EC0394B3A4A1A6002F12C014C32C3E9022591
S31508009ED059601033102218460021C2F04FFC41F297
S31508009EE0A4520346013CC0E90667057442824561EF
S31508009EF0056203F12803EDD1294A2D492A48C1F004
S31508009F00DFFC2C481FF098F8254A2B492948C1F050
S31508009F10D7FC2A482CF03AF9214A29492748C1F0A2
S31508009F20CFFC2848284B1E4A2849C0E9014403604B
S31508009F300473C1F0C5FC2648264B194A036000F194
S31508009F400803C0E90433244900F12003234DC0E97E
S31508009F500A330472C460846180F820404462046352
S31508009F6080F834408463C1F0ABFC1D4B21462B605E
S31508009F701C4B102205F11800EB60C5E901442C6161
S31508009F80C2F0FCFB184BEC616B612846BDE8F84053
S31508009F90034A1649C1F094BC18360020E838002058
S31508009FA0900702209F5A0808383300206CEB0E08E9
S31508009FB0419A0008882B0020219A0008801A002060
S31508009FC085630308F04201209CFA0E08A55E030883
S31508009FD0B4420120B0F50D086D9B00088C420120A3
S31508009FE024F60D0800F60D08C0F70E08B59A000805
S31508009FF070B5036805460C4616460BB1032070BDBE
S3150800A00002210D20074A98F078FB0CB92F20F6E7B5
S3150800A01023682046DB6898470028F0D1C5E9004642
S3150800A020EDE700BF30F60D082DE9F04F074600684A
S3150800A0308BB004680D46646C90461E46A0472D28D2
S3150800A04004460ED048B19F4A9F4B0221A52808BF57
S3150800A05013460D209D4A98F050FB20460BB0BDE8EC
S3150800A060F08F6B78202B01D10024F6E7984B3868DF
S3150800A070029358B103682A461B6C02A998470446FE
S3150800A08030B1029803689B689847E6E70324F8E727
S3150800A0904FF0000A4FF0000B8E4B0393029803A96A
S3150800A0A00368DB68984730B102210D208A4A98F088
S3150800A0B024FBA52410E08DF8060003980DF106018F
S3150800A0C00368DB689847044630B99DF80630402B8C
S3150800A0D006D0802B04D0032403A87CF0F8F8D0E738
S3150800A0E06A789A42DAD1012303988DF80730036813
S3150800A0F00DF107015B69984704460028ECD19DF8E5
S3150800A1000730082B18D8002BC8D0013B072BC5D819
S3150800A11001A252F823F000BF51A1000863A100086C
S3150800A1209DA000086FA100089DA000089DA000083A
S3150800A1309DA000088DA10008102BAFD1102E1AD0B3
S3150800A140082EABD84FF48B73F340D807A6D512E088
S3150800A15006F1FF3CDCF1000343EB0C03002B9DD01A
S3150800A16009E0731E012B8CBF00230123F6E7042E9A
S3150800A17001D0012E92D1002303980493036804A901
S3150800A1805B6A9847814648B14C46A5E7082E85D8AC
S3150800A1906FF489733341DC07EDD57FE7049B1BBB5E
S3150800A1A0002303980593036805A99B6B9847814686
S3150800A1B00028E9D1059B002B7FD100248CE74FF0BE
S3150800A1C0FF31C21C994274EB020243D39DF8062064
S3150800A1D0402A80D14FEA134C05F10C0105F1180409
S3150800A1E08C4229D109F10109049B4B457FF656AFEC
S3150800A1F0CDE906AB03984946036806AA9B6A9847C1
S3150800A200044600287FF468AFDDE906306FF0010CDC
S3150800A2105A1E40F1FF3194456FF010028A41CED3A1
S3150800A2209DF80620402A7FF456AFD5E902129042DF
S3150800A23008BF8B42D6D1B3E751F8042F002ACFD0F6
S3150800A240BCEB124FCCD198B20028C9D092B290423A
S3150800A250C6D8A5E713F5803F70F1FF32FFF43BAF90
S3150800A2609DF80620802ADEE70023039806930368F4
S3150800A2704946DB6B06AA9847044600287FF42CAFAC
S3150800A280069BD90704D5D8F800200799914212D120
S3150800A2909A0705D5BDF82010B8F8042091420AD1CE
S3150800A2A05B078AD57868B8F80420036809999B681B
S3150800A2B09847002881D109F10109059B4B45D3D858
S3150800A2C0ECE600BF78F60D08538C0F084CF60D081F
S3150800A2D0140802201808022069F60D080023F0B5B4
S3150800A2E08BB0CDE90433054600688DF80D308DF83E
S3150800A2F00E308DF80F3003680DF10D01DB689847B5
S3150800A3000446002840F0C78028680DF10E0103684E
S3150800A3101B6998470446002840F0BD8028680DF15F
S3150800A3200F0103685B6998470446002840F0B3802C
S3150800A330286804A903685B6A98470446002840F021
S3150800A340AA80286805A903689B6B984704460028D5
S3150800A35040F0A1809DF80E30002B00F09E809DF8FD
S3150800A3600D30402B07D0802B40F09E809DF80F3093
S3150800A370102B00F09B802646049BB34207D8002684
S3150800A3804B4F059BA3423AD801200BB0F0BD286875
S3150800A3903146036806AA9B6A9847002879D19DF832
S3150800A3A00D30402B16D1DDE906326FF0010C591E2F
S3150800A3B042F1FF378C456FF01001B94108D24FF0D2
S3150800A3C0FF310332994270EB02020CD39BB253B1B0
S3150800A3D00136D1E7802B06D1069B079A13F5803FF5
S3150800A3E072F1FF32F1E7334B0446002856D00121BB
S3150800A3F00D20314A009498F080F90020C5E72868B6
S3150800A400069603682146DB6B06AA9847002840D1C2
S3150800A410069B03F0020103F00402DB0710D411B116
S3150800A420F2B1264BE0E7002AFBD0099B03EA0702B4
S3150800A43012F5003FF5D89BB2B3F5404FF1D215E0BF
S3150800A44009B1002AEDD1079B13F5302F4FEA134CBB
S3150800A450E7D2BCF1000F0BD11B0410D56046E0E72C
S3150800A4604FF6FF73BDF820209A42DAD0013488E708
S3150800A47040F2FE3C03F580639BB26345D1D829B10F
S3150800A4804FF6FF73BDF820109942CAD0002ACCD1E6
S3150800A490ECE70B4BA8E70A4BA9E70A4B01210D206D
S3150800A4A0094A98F02AF9A8E7084BF7E7084BF5E7B1
S3150800A4B00000FFFF90F60D08E8F60D08A0F60D0857
S3150800A4C07FF60D08D3F60D08FEF60D08C1F60D0841
S3150800A4D0AFF60D082DE9F0430546006887B08846B3
S3150800A4E01F468DF80F2020B90324204607B0BDE883
S3150800A4F0F083DFF86490AB68CDF81490EBB90026CA
S3150800A5002868394603680DF10F02DB6B9847044645
S3150800A51078B91EB133684B4508BF00260223414669
S3150800A520CDE9006328463B469DF80F207BF00AFFDD
S3150800A530002405A87BF0CBFED7E79DF80F303946F7
S3150800A5408DF81330036805AA5C6B0DF11303A04759
S3150800A5500028D4D105AED3E718080220034B1868A3
S3150800A560034B002808BF1846704700BF0443012064
S3150800A5700843012010B5044602210D20024A98F02E
S3150800A580BCF8024B1C6010BD10F70D0804430120EF
S3150800A59010B5094C094922460948C1F091F92246E5
S3150800A5A008490948C1F08CF92246BDE81040074918
S3150800A5B00748C1F085B900BF900702209D620808C8
S3150800A5C008430120AF62080818080220B16208088B
S3150800A5D0140802200023F7B5CDE900334AB96E46C0
S3150800A5E001AB15240E4A013C06D11423036003B0BF
S3150800A5F0F0BD6B4601AEF4E71578002DF5D0557819
S3150800A6008D4206D107683568AF4207D0019D0135EE
S3150800A6100195009D403201350095E4E71B68E5E7A2
S3150800A620E039002007B5019021B10122097801A877
S3150800A630FFF7D0FF019813280AD8064B820103EBCF
S3150800A64080109B5C002B08BF002003B05DF804FB5C
S3150800A6500020FAE7E03900200023152010B5136022
S3150800A660074B013801D1002010BD1C78002CFAD008
S3150800A6705C7840338C4202BF146801341460F0E7FA
S3150800A680E039002000231A4610B50648B3F5A06F36
S3150800A6900A6001D1002010BD4033C45C002CF9D0FB
S3150800A6A00132F3E7A03900200868114B70B59842CB
S3150800A6B00E46154603D303F10C02904214D31B79B8
S3150800A6C0A3B90B4C03689B6898470123002D346097
S3150800A6D0237108BF00234FF00000637118BF2B7861
S3150800A6E0A06018BFA37170BD0446EBE71920FAE70E
S3150800A6F01843012002210D20014A97F0FEBF00BF32
S3150800A70094F70D0838B502210D20074A97F0F5FF92
S3150800A7100024064D60194034B4F5A86F01D1002015
S3150800A72038BD7BF0B3FEF5E7BCF70D08E03900202D
S3150800A73038B50B4B0C46984202D30C33984201D3DA
S3150800A740C1F0E5FE85680FCD0FC40FCD0FC40FCD40
S3150800A7500FC495E80F0084E80F00002038BD00BF3D
S3150800A760200802202DE9F041144C1F460E461523F9
S3150800A770A046013B01D119201EE0217871B1403471
S3150800A780F7E763783B70B6B1A4EB0804A41134600C
S3150800A7902A4630463978FFF71DFF0CE02146106837
S3150800A7A0FFF7C6FF054630B9002FEAD11EB1A4EB64
S3150800A7B00804A41134602846BDE8F081E039002079
S3150800A7C0064B984203D303F10C02904204D39B68CC
S3150800A7D00248002B18BF0020704700BF200802203F
S3150800A7E010B50868FFF7ECFF80B18268084B0AB11C
S3150800A7F09A4206D21B784BB9054A7BF08EFE00209A
S3150800A80010BD03F14004A242F4D2F6E71920F7E797
S3150800A810A039002038B5114A83684BB9104B8360BC
S3150800A8208468944201D0237833B982600A2038BDFF
S3150800A8309342F5D24033F2E743791BB165788379C1
S3150800A8409D42E9D10868FFF7BBFF20B122467BF09D
S3150800A85064FE0020EBE71920E9E700BFE03E002090
S3150800A860E0390020F0B50E4F84680646BC4205D391
S3150800A87007F140039C4201D20020F0BD3B7863B942
S3150800A880074D0FCC0FC50FCC0FC50FCC0FC594E8DD
S3150800A8900F0085E80F00B760EEE71920EDE700BF67
S3150800A8A0A03900202DE9F0410E4611463046FFF743
S3150800A8B0B9FE0446002842D0224FBB68984202D10E
S3150800A8C03846FFF7CFFFDFF88C80444516D204F1EF
S3150800A8D0400CC4450FD294F8403063B165460FCD9D
S3150800A8E00FC40FCD0FC40FCD0FC495E80F0084E831
S3150800A8F00F006446E9E720467BF0C8FD124CBB68AA
S3150800A90004EB86169E4212D003D2434501D2403B41
S3150800A910BB600E4A93689E4206D8434504D2A342BA
S3150800A9200CBF0023403B93600020BDE8F0817D68A2
S3150800A930286803689B689847054B2B60E9E70A2057
S3150800A940F3E700BF20080220E03900201843012061
S3150800A95018080220E03E00208268054B00219A4232
S3150800A96003D340339A4238BF11708160704700BFE5
S3150800A970A039002010B5094CD4E8AF3FDB070BD44B
S3150800A9802046A0F0D6FD38B1054A06490648C0F06B
S3150800A99097FF2046A0F0D2FD034810BD14430120BE
S3150800A9A090070220636508081C08022010B5084CA9
S3150800A9B0084922460020C0F083FF0020064B074ABC
S3150800A9C018711A6006492246BDE81040C0F078BFE3
S3150800A9D090070220696508081843012040F80D0809
S3150800A9E00F66080870B5104ED6E8AF4F14F001048C
S3150800A9F018D13046A0F09DFDA0B10C4D0C4A2B464F
S3150800AA0007CA43F8044B83E807004FF6FF722A8209
S3150800AA104FF0FF321846C5E905247BF04DFF304656
S3150800AA20A0F08CFD014870BD244301202843012075
S3150800AA30D4F80D0838B5054604300C467BF03CFFC3
S3150800AA402A6813461BB9E26001202C600DE098685D
S3150800AA50A16888420ED1197909B1217931B9232023
S3150800AA600121054A97F049FE002038BDD888E188BB
S3150800AA708842F4D0DB68E5E7A0F80D082DE9FF4128
S3150800AA800A9F884616461D4697F05AFE0446002831
S3150800AA903FD0D6E900010026231DD8F80020C4E9D6
S3150800AAA00133C4E906011D4B267323602661226221
S3150800AAB004F1280C95E80F008CE80F002B7C04F1B4
S3150800AAC0480084F838306B8A63876B69E363D5E995
S3150800AAD00623C4E91023124B04F1580519680B68BC
S3150800AAE09B68984700220023C4E9142301AB97E822
S3150800AAF0070083E80700012385E80700A4F87430F7
S3150800AB00084B84F8646084F8686084F86C60A6670B
S3150800AB102360204604B0BDE8F08100BF30F90D0877
S3150800AB20040A022078F90D08094A08B50260026984
S3150800AB300AB1C1F0ECFC074A011D026082688A422C
S3150800AB40F7D141680029F4D04A604368136008BD0C
S3150800AB5030F90D08E8F80D0810B50446024B0360F5
S3150800AB60FFF7E2FF204610BD78F90D08F7B50C4649
S3150800AB70114B0546196868460B689B689847D4E9DF
S3150800AB801421009B20469F1A019B63EB01067CF06B
S3150800AB9072FA038920469F4276F1000309D27CF0B7
S3150800ABA06AFA0430036828462B6000236B6003B0FA
S3150800ABB0F0BD7CF060FAF5E7040A02202DE9F043BF
S3150800ABC007460E46154698466FF001096FF01004C1
S3150800ABD08BB093F03DFD421E41F1FF33914574EB76
S3150800ABE00303F6D300231836CDE904010293304651
S3150800ABF02B46CDF8008004AA02A9FFF73FFF0446BA
S3150800AC0050BB4FF0FF324FF0FF33CDE9062306ABBA
S3150800AC1003900893304603AB1C4A08A9099397F09A
S3150800AC20F7FD039C2CB900233B7038460BB0BDE8F2
S3150800AC30F083236820461B6898472146304697F0DC
S3150800AC40C5FD2B463046CDF8008004AA02A9FFF7B9
S3150800AC5015FF04460028E6D095E80F0004F12806FB
S3150800AC6086E80F002B7C204684F838306B8A638789
S3150800AC706B69E363D5E90623C4E9102301233B7016
S3150800AC8023687C60DB689847CFE700BFDD6F08085C
S3150800AC90084B10B5036018334360044608307CF04F
S3150800ACA05EFA014620B9606900F5CF6098F053FB5B
S3150800ACB0204610BDC0F90D08A0F10400E8E700BF62
S3150800ACC010B504460221074A0D2097F016FDFFF736
S3150800ACD045FC04F114017BF010FB2046BDE810404A
S3150800ACE08BF04BBFE4F90D0800B5084B89B0049307
S3150800ACF0042305930023039204490422009303A81E
S3150800AD008BF0F5FE09B05DF804FB00BFD4FA0D0818
S3150800AD1038B50C46054602210D20084A97F0EDFC89
S3150800AD20214628468BF03BFF044628B9FFF716FC58
S3150800AD3005F114017BF0D3FA204638BD03FA0D0855
S3150800AD4000B50D4B8DB0CDE90631ADF820200023B6
S3150800AD501F22CDE90923012391F83C208DF82C30D8
S3150800AD608DF82D200093024606AB08A902A80CF020
S3150800AD70D5F80DB05DF804FBC8FA0D082DE9F04FBB
S3150800AD8014460027B9B006461D460397FFF7E6FBAB
S3150800AD902269042A08D8042A10D8DFE812F013001A
S3150800ADA00F00F800210128014FF6FC739A4200F0C3
S3150800ADB023814FF6FD739A4200F0208140F28652B5
S3150800ADC0326064E0904B05A90493904B16A805934E
S3150800ADD07CF017FB0123284685F844307BF0EEFF0C
S3150800ADE0044600284BD10BA80A9596F030F98848F6
S3150800ADF07CF0E3FA074648B1864FB7F8643907F599
S3150800AE000B6703F00503052B18BF0027002205234F
S3150800AE10DFF80482CDE908234046CDE906877CF0B1
S3150800AE20CCFA10B906A87CF0D8FA4FF09009089C1D
S3150800AE30052C0AD128467CF006F800244FF6FF7345
S3150800AE4085F84C40A5F84A3019E009FB048494F8C3
S3150800AE5081A047B138467CF0B0FA20B197F8813026
S3150800AE60534508BF3C4694F88140FFF777FB0068D6
S3150800AE708DF8084088B928467BF0E5FF032405A825
S3150800AE807BF025FA049803689B689847346000238A
S3150800AE903046337139B0BDE8F08F036802AA1B6CDF
S3150800AEA004A998470446CCB158E0169B8DF808408B
S3150800AEB0186802A903681B6998479DF80830002B93
S3150800AEC063D00A9B93F84530B3B9DDF828A00BA9DF
S3150800AED050469AF808B07BF0DDFFE0B9049805A95A
S3150800AEE00368DB68984704460028DED00A2835D16F
S3150800AEF006A87CF072FA9AE7169B8DF8084018683F
S3150800AF0002A903681B6998470A9A9DF80830127ABD
S3150800AF109A42E3D1D9E79AF84630DAF800107BB1BD
S3150800AF20096C4FF480720023CDF800B016A88CF097
S3150800AF303EF9044601460BAA50467BF0C4FFB2E729
S3150800AF40DAF840300AF1280202A87BF0F1FE04463E
S3150800AF5040B1214650460BAA7BF0B5FF28467BF048
S3150800AF6072FF8CE7DAF800300222196C16A8002363
S3150800AF70CDF800B08CF01BF904460028E9D1DAF8C0
S3150800AF80001002A87BF00CFFD3E77124E6E70068FF
S3150800AF90002836D003689B6903A99847024600280B
S3150800AFA07FF40EAF0123296885F8443005F128029D
S3150800AFB02B6C16A8039C7BF0BBFE034670B92A6867
S3150800AFC0106CCDE900430222002396F0D2F903461D
S3150800AFD020B9296816A87BF0E3FE0346336056E7D6
S3150800AFE0006800283FF4ECAE0368DB69D4E703A9E0
S3150800AFF000687CF0DCF9D1E70397D3E702230393D3
S3150800B000D0E70322DCE600BF140802201808022055
S3150800B01010A0002060970020409D00202DE9F041F7
S3150800B020D0F80C80B2B00546DDE938760C46B8F1A2
S3150800B030000F29D041B3402200216846C1F09EFB8B
S3150800B0402378012E8DF83C3002D18DF8146001E08A
S3150800B050022EFAD06378402B19D1D4E90223CDE920
S3150800B060002301238DF80830002F3FD0394610A859
S3150800B0707CF0C7F910A88BF0B2FF034680B1012116
S3150800B0800D201C4A97F039FB32B0BDE8F081202B21
S3150800B09001BFA368ADF8103001238DF81230E3E73D
S3150800B0A0BDF8443012AAADF8183007AB07CA83E8D2
S3150800B0B007000AAB15AA07CA83E807009DF860309F
S3150800B0C08DF834301BB19DF861308DF835309DF818
S3150800B0D0623000228DF8363001238DF83830EB685F
S3150800B0E0DB6869461868FFF72BFECDE73A46D8F8BD
S3150800B0F00C30F6E726FA0D082DE9F84391F8387072
S3150800B10004460E464FF000080FB191F83980002525
S3150800B11004F10809484695F0DDFA314648462560A7
S3150800B12095F0EDFA84F840700FB184F84180074B2A
S3150800B130A4F85050A36484F8905084F8D05084F84A
S3150800B140D85084F8DA502046BDE8F883180802205B
S3150800B1502DE9F04190F9343006460133A6B003D103
S3150800B160002026B0BDE8F0810368002BF8D100F175
S3150800B1700808404695F052FE074630600028EFD191
S3150800B180204C0146942201A80094C1F0F7FAB06C4D
S3150800B19004AD03689B6898470FCDB46406F158045C
S3150800B1A0A6F850700FC40FCD0FC40FCD0FC495E885
S3150800B1B00F0014AD84E80F000FCD06F198040FC4F4
S3150800B1C00FCD0FC40FCD0FC495E80F0084E80F000C
S3150800B1D0684686F8D87086F8DA707BF078F84146C3
S3150800B1E006F148008BF0F1FE30600028B8D196F8D9
S3150800B1F040302BB1B06C96F841100368DB6998476C
S3150800B2000120AEE718080220F0B5CFB007460E4673
S3150800B2100D7AFFF7A3F9006838B1036829465B6A17
S3150800B22003AA984718B104461EE00320FBE7FFF778
S3150800B23095F904A900687CF0BAF80446A0B9BB7B66
S3150800B240012B00F2838006A895F044FA224621468F
S3150800B25006A895F082FA304606A98DF850407CF08B
S3150800B260E5F8074618B1044620464FB0F0BD9DF9EB
S3150800B2704430013321D1059006A916A8FFF73CFFF3
S3150800B28016A8FFF765FF28BB169C28A8212C2BD1EA
S3150800B2907BF01DF806A916A8FFF72EFF06F108048D
S3150800B2A016A8FFF755FF20BB169C212C4CD0002C66
S3150800B2B04AD028A87BF00BF8D6E705A906A895F08A
S3150800B2C015FE0028AFD1DDE904329A42D4D940F2FE
S3150800B2D08954C9E728A8FFF701F80028D0D128A87B
S3150800B2E07AF0F5FF2F24BFE77AF0F1FF002CBBD1E7
S3150800B2F0D0E7039BBB420BD9FFF730F928AB009385
S3150800B3002A463B4621467BF07DF858B10446D0E7ED
S3150800B310FFF724F928AB00932A46002321467BF041
S3150800B32028F8F2E70137BBE7013B0393FFF716F965
S3150800B3302A463146039BFFF7CDF80028E6D1039B42
S3150800B340BB42F1D80024B4E70836F8E7042B2FD11E
S3150800B350039B049A01339342B9D8164BADF86000A3
S3150800B360169301233371337A8DF8A0008DF8E00027
S3150800B3708DF8E8008DF8EA0016AFB3B138463168A3
S3150800B3808BF023FE044670B9169816F8081F036852
S3150800B390DB699847FFF7E2F823462A4631460097C5
S3150800B3A07AF0E7FF0446384684E740F27E54FAE727
S3150800B3B06C2459E718080220F0B517690E460446AA
S3150800B3C0194685B0BFB902F10800FFF71DFF2F28FF
S3150800B3D0034613D0D82811D00B2819D000228DF88F
S3150800B3E00C20039A2046009231463A468BF0FCFB25
S3150800B3F0204605B0F0BD4FF4B163EFE7872501217C
S3150800B4000D20044A009597F078F945F4A063E5E71E
S3150800B4108925F4E74DFA0D08034B53F81C09002853
S3150800B42018BF1846704700BF6043012008B50C488E
S3150800B43002680AB1C1F06BF81F21A0F11C0340E9AC
S3150800B44005120849C3E9073240F81C1C483140F880
S3150800B450182C40F80C2C40F8042C40F8081C08BDA1
S3150800B460604301206CFA0D087FB5094B1F22019332
S3150800B4704FF00113CDE903230023ADF8080001A915
S3150800B48002A8ADF8143093F025F907B05DF804FB6F
S3150800B490FCFA0D0808B502487CF003F808BD00BFA1
S3150800B4A044430120024A03490348C0F009BA00BFD1
S3150800B4B090070220CD7408084443012000B5084BC4
S3150800B4C089B00493032305930023039204490322B6
S3150800B4D0009303A88BF00BFB09B05DF804FB00BFD3
S3150800B4E064FB0D0810460249022297F047BA00BFCE
S3150800B4F054FB0D087FB516690546022E1C464DD02D
