S02B00002F686F6D652F686164796C69752F776F726B53706163652F73696C6162732F4C692D4261745F4D611D
S31508006000081200204185030839180A08F990000883
S315080060106F360B0821910008359100084991000850
S3150800602039180A0839180A0839180A0859C00C080C
S315080060305D91000850310E08FDBF0C0821FE0C08C2
S31508006040B981030839180A0839180A0839180A08D4
S3150800605039180A0839180A0839180A0839180A08A6
S3150800606039180A0839180A0839180A08119500084B
S3150800607039180A0839180A0839180A0839180A0886
S3150800608039180A0839180A0839180A0839180A0876
S3150800609039180A08B9C9040839180A0839180A083B
S315080060A039180A0885C1040865C1040839180A0898
S315080060B039180A08E5A20708B9AB07086BB60C0831
S315080060C067B60C082DA3070881B60C086FB60C082E
S315080060D089AB070873B60C08F9AB070861AC070863
S315080060E039180A0839180A085D92000839180A0882
S315080060F0F52A0B0839180A0839180A0839180A0837
S3150800610039180A0839180A0839180A0839180A08F5
S3150800611039180A0839180A0839180A0839180A08E5
S3150800612039180A0839180A0839180A0839180A08D5
S3150800613039180A0839180A0839180A0839180A08C5
S3150800614039180A0889B1050839180A08050E0D080C
S31508006150158D070839180A084BB60C0851B60C08ED
S3150800616039180A0839180A0839180A0839180A0895
S31508006180F0B5114A114C124E00F00105E3695F079C
S3150800619013D40DB9334213D103EA00078F4207D14E
S315080061A00B4A1A40002A0CBF00206FF00100F0BD10
S315080061B0013AEBD16FF00200F9E74FF0FF30F6E74E
S315080061C06FF00100F3E700BF8096980000000350C7
S315080061D00200010070B50B4BD96911F480310DD15D
S315080061E001244FF48072084E084DF46020462C6452
S315080061F01A61FFF7C5FF3464EC6070BD6FF00100EB
S31508006200FBE700BF000003500010035000200350B6
S315080062104FF4803238B50E4B0E4C9A66E56941F656
S31508006220713315400122E3630B4B0021DA60022328
S31508006230606121202361FFF7A3FF10B92120FFF732
S315080062409FFF0122054BDA600DB10023E36338BDD9
S315080062500090005000000350001003500020035027
S3150800626070B5134C6061E3695B071ED40E4656F899
S31508006270043B8D18A361AE420BD1042300212120D3
S315080062802361FFF77DFF58B9BDE870402120FFF76D
S3150800629077BF08210846FFF773FF10B1042323616F
S315080062A070BD56F8043BA361E5E74FF0FF30F7E70A
S315080062B0000003502DE9F84315464FF48032184B79
S315080062C089469A6603F51C33DF690646174041F688
S315080062D07132DA63012203F58053DFF84C80DA6005
S315080062E055B9284601220F4BDA601FB10022A3F5E3
S315080062F00053DA63BDE8F88306F5005404EA080497
S31508006300A41BAC4228BF2C46494622463046FFF716
S31508006310A7FF0028E6D12644A1442D1BE0E700BFCD
S31508006320009000500020035000E0FFFF000000002E
S31508006330000000000000000000000000000000004F
S31508006340013800D0FCE770472DE9F04F2DED028BA0
S315080063501D4613690646052BD5B00BD8013B01220D
S315080063600024042B23D8DFE813F04100290130016B
S315080063703F0152014FF6FC72934212D04FF6FD725E
S3150800638093424FF0010340F0448102200021CDE9F9
S315080063903E0185F8443028463EA978F087F93060F2
S315080063A086E000230022CDE93E230123F1E7CB69ED
S315080063B0284685F844202C9377F012FC0028EED165
S315080063C03FA83E9591F078FE3EA92CA87CF026FEC3
S315080063D00446284677F049FC2046002CDFD14FF6C4
S315080063E0FF7385F84C40A5F84A30D8E7D1F81C80E9
S315080063F0284685F8442077F0F3FB0446002856D152
S3150800640013A8129591F058FE41460AA87AF0F3FEB1
S3150800641005232246414600930EA87CF064FD2746D4
S315080064209FED7F8BDFF800A20EA90AA87CF072FD0B
S31508006430044648B9284677F018FC4FF6FF7385F8E6
S315080064404C40A5F84A3032E00AA87AF0A4FE8DED51
S31508006450228B8DED248B90F88190CDE92677CDE9B6
S315080064601E77ADF880708DF8A0708DF8AC90D0E9E5
S315080064700023CDE92423B0F8823000F16004ADF89A
S315080064808030D0E9022320212046CDE92223B8F026
S3150800649098FF4946CDE926402CAA4046CDF8B0A03B
S315080064A08BF0B5F9044658B1284677F0DEFB346020
S315080064B000233371304655B0BDEC028BBDE8F08F32
S315080064C02DAB1E9341230DF1080B1F933EABCBF862
S315080064D0003055235A4649464046CBF804308BF0DF
S315080064E025FB04460028DFD1DBF80430B3B19BE86E
S315080064F0030001238DF8103005AB83E8030004A9D7
S3150800650007A87CF07EFD9DF81C308DF8A0302BB1D5
S3150800651029AB08AA92E8030083E803009DF8AC308B
S31508006520002B49D0DDF8489099F8452099F808B02D
S315080065300AB19B451AD1484613A977F0BDFBA8B105
S3150800654099F84630D9F80010A3B1096C4FF4807257
S315080065500023CDF800B01EA8B7F012F9044601468C
S3150800656013AA484677F0C1FB002C9DD10AA87CF0F7
S31508006570A6FC59E7D9F8403009F1280207A877F0B0
S31508006580E9FA044628B12146484613AA77F0ADFB36
S315080065908AE7D9F800300222196C1EA80023CDF824
S315080065A000B0B7F0EDF804460028ECD1D9F8001091
S315080065B007A877F007FBD1E7712475E705200021C6
S315080065C085F84420CDE93E01E5E6CB6993F88233A8
S315080065D0CDE93E340123284685F844303EA978F0B3
S315080065E065F83471306065E7CB69284685F844203C
S315080065F02C9377F0F5FA00287FF4D1AE3FA83E95A4
S3150800660091F05AFD3EA92CA87CF00CFEE0E62B7A08
S31508006610DEE78622C0E900234CE700BFAFF300801F
S315080066200000000000000000F8F20D08000000005D
S315080066302DE9F04F2DED028B083085B00E469146B8
S31508006640DDF8508093F0B1F80446002800F0A380E6
S315080066506F4600259FED548B4FF0010B41F2A45A6B
S3150800666010AB0FCB87E80F00514BC4E902552360E6
S31508006670C4E90455C4E906552C3363604D4B04F14F
S31508006680500C0FCB84ED108BC4E90E5584F82050BE
S3150800669084F8305084F848508CE80F00464B84F84C
S315080066A060B0A4F862A06566236704F18403C4E9B0
S315080066B02133424B1022C4F89830294684ED1A8BB0
S315080066C0C4E91D55C4E9275584F87C50C4F88C5094
S315080066D0C4F8A45004F1A800B8F07EFF84ED308B0E
S315080066E084F8B8B0A4F8BAA0C4F8BC5004F1C8003D
S315080066F093F0C3FE4AF6C873C82284ED388B84ED3E
S315080067003A8BC4E93C2304F58673C4E94055C4E9C9
S315080067104333A4F8D45084F8D650A4F8D85084F853
S315080067200851C4F814513368A3607368E360B3680A
S315080067302361F36863613369A3617369E361337E37
S3150800674084F8203033B104F1240306F11C0207CA89
S3150800675083E8070096F8283084F830300BB1F36ADE
S315080067606363304677F00DFCA8B9B9F1000F12D073
S31508006770B8F1000F0FD003CF3B78C4F8389084F8EF
S315080067804830012384F80031231D20646164C4F86D
S315080067909080C4F8A430204605B0BDEC028BBDE855
S315080067A0F08F00BFAFF3008000000000000000007B
S315080067B06C6E0D08E436012054260E085C6E0D0832
S315080067C02DE9F04F2DED028B00240025CBB099461C
S315080067D0CDE92E450023CDE93045CDE934454FF6C0
S315080067E0FF74DFF898A2064688461746CDE90C33AB
S315080067F08DF8C8303393CDF8D8A04894A2B305468F
S3150800680000F53474A54206D10B2420464BB0BDECE6
S31508006810028BBDE8F08F284677F0E1FC08B1903589
S31508006820F0E79FED8F8BBDF85C318DF8C880ADF829
S3150800683020318D4B4FF4C8710E93002309A8CDE97A
S3150800684009330F93CDF870A00B937CF0D0FB099C0D
S3150800685014BB0B240BA877F068FA0AA877F065FA38
S3150800686009A877F062FAD0E78AF061FF044608B90A
S31508006870AC24CAE706F53475284675F0F4FFB4F873
S3150800688082308DF8C880ADF8203121460CA894EDE9
S31508006890028B8AF0B9FECCE74FF4C8710AA87CF0DF
S315080068A0A6FBDDF828A0BAF1000FD2D04FF4C871C4
S315080068B00BA87CF09CFB0B9A002ACAD04FF4C8732D
S315080068C04146CDE91332304610AA1094CDE9113A63
S315080068D015938AF08CFF04460028BBD14146304602
S315080068E012AA8AF066FF04460028B3D1414630460C
S315080068F014AA8AF03BFF04460028ABD110A916A8B3
S315080069007CF06BFB12A918A87CF067FB14A91AA8DF
S315080069107CF063FB36AB079330AB05930DF1B80AF1
S3150800692034ABCDE903A30DF1700B0EAB8DED008BE7
S31508006930CDF818B002931AAA18A916A81CF058FB85
S315080069400446002886D10BA877F0EFF90AA877F055
S31508006950ECF909A877F0E9F9B9F1000F13D1D6F8DF
S31508006960640300285ED003689B6898470346D6F8F8
S315080069706403002B4ED003685A4641465B69984724
S31508006980044688B141E7D9F8003048465B6998471C
S3150800699059468BF0F9F908B9C52436E79DF85831F8
S315080069A0CDF8CC908DF822319DF860315146B3FA76
S315080069B083F328465B098DF823318BF08CF904465E
S315080069C000287FF422AF28460CA98AF062FE06F555
S315080069D05D7495F881303FB302211120234A92F065
S315080069E0C1FED5E900122B69CDE9012100936B6937
S315080069F0022111201E4A92F0B5FE20460F991EF07C
S31508006A000FFA034630BB96F88233013386F8823391
S31508006A100024FAE603684146DB6898470028C3D194
S31508006A201024F2E60324F0E6D5E900121120CDE998
S31508006A30002102210F4A92F095FE20460F991EF07A
S31508006A40EFF903460028E3D0012111200A4A92F003
S31508006A5089FEDDE701211120074A92F083FED2E77D
S31508006A600000000000000000E8B20D08ABB10D08F8
S31508006A70CBB10D080EB20D0843B20D08F8F20D0899
S31508006A802DE9F0478AB00DF10D030193152306464B
S31508006A9000934FF48072002308460C4691F03CFDA3
S31508006AA0E8B996F89630012200932046002391F023
S31508006AB0BAFCA0B996F89730022200932046002324
S31508006AC091F0B1FC58B90DF10E0301931623032278
S31508006AD000932046002391F01FFD054610B10AB029
S31508006AE0BDE8F0874FF0100906F1C8070DF1180840
S31508006AF0102200214046B8F06FFD0DF10F030193F7
S31508006B0015234FF4807200932046002391F004FD6C
S31508006B100028E4D196F89720EBB29A4251D917ED9E
S31508006B200C7BC44637F828ACA7F12603A7F1160E46
S31508006B30624618685968083303C273459446F7D104
S31508006B408DED007B04220023204691F047FC0028A7
S31508006B50C5D1052200232046CDF800A091F063FC9C
S31508006B600028BCD14046494606228DE8030000238A
S31508006B702046CDE9048991F0A2FD0028AFD1204630
S31508006B809DF90F1091F0FDFC013530370028A6D18C
S31508006B90032DADD120469DF90E1091F0F2FC002888
S31508006BA09DD1B6F88E30072200932046002391F037
S31508006BB03AFC002893D120469DF90D1091F0E1FC8E
S31508006BC08DE782469FED027BBAE700BFAFF30080F0
S31508006BD00000000000000000A0F1840050E700BF9C
S31508006BE0054B18680368D96901A3D3E90023084748
S31508006BF000E0373B015D030024F601200000000099
S31508006C0037B59BF0FDF9044600286ED13A4B1A8831
S31508006C109B78ADF804208DF8063032F0A1FA32F0F0
S31508006C20B5FF32F013FF0546344B036033F094F991
S31508006C30284633F0A7F800B9FEE72DA3D3E90023C9
S31508006C404FF0FF314FF0FF3032F092FA32F002FF88
S31508006C50214632F05BFF9BF0D6F901A833F054F8D1
S31508006C60044600B1FEE7264B264A98801860264B54
S31508006C7098801A60254B264A98621A60254A988099
S31508006C806FF06300DA6033F0CDFF0B2032F030FF8F
S31508006C9032F08EFF32F0D4FE00B9FEE74BF04CFF1F
S31508006CA020469BF074FB082108469BF077FB00B151
S31508006CB0FEE79BF06AFB32F019FE9BF0B5FA10214D
S31508006CC01548ACF04DFD00B9FEE714491248ACF082
S31508006CD059FD00B9FEE710218C20114A4BF044FB00
S31508006CE000B1FEE70F489CF0FFFD03B030BD00BFC2
S31508006CF00AE020FFE2030000893E0E08C1210A08C7
S31508006D00A8ED002054E8012078ED002048ED002089
S31508006D10D4E7012038ED00200C7C01204D0A0D082F
S31508006D20FC7B0120BE3D0E082DE9F04389B09BF09F
S31508006D3058F900B9FEE75C4D2B6803B9FEE7012256
S31508006D409B8811460DF10B008DF80B3032F092FF3F
S31508006D509DF80B102B6802390022186889B232F0A8
S31508006D6089FF002305930793504B05AE06932B68BE
S31508006D7093F82C208DF814201B681C7814F0200436
S31508006D8014D09BF006FB00285CD09BF002FB59F060
S31508006D90CFFE0B46024640A1D1E900015AF06CF835
S31508006DA05AF0DAF9079B18440124079032F0A6FF37
S31508006DB09DF80B30002848D0981DC00059F0C8FE31
S31508006DC037A3D3E9002359F02DFF8946804632F0D0
S31508006DD095FF59F0ADFE0B460246494640465AF025
S31508006DE04BF85AF0B9F9079B184407909BF000F93D
S31508006DF038B132F0E9FE00209BF0F6F800209BF04F
S31508006E00FAF829684B6963BB9BF00EF910B3079B28
S31508006E10274F03F5FA7307932B681B7EBB7032F076
S31508006E20CDFEF870286833463A462146807932F016
S31508006E3003FF58B34FF480510020C9F02CFE9BF095
S31508006E40D2FB23E00798C030AEE70798063300EB7D
S31508006E504310CAE72B6832462146987932F0E2FE9B
S31508006E60E7E70022962004920A691A44114BA2F514
S31508006E709B7298800392887903AA2146009632F07D
S31508006E80E9FE0028D6D101209BF0D9F809B0BDE863
S31508006E90F08300BFAFF300800000000060E36641A6
S31508006EA00000000080842E41F87B012020A1070005
S31508006EB0C8F60120BCF601202DE9F3411E461C4BFD
S31508006EC0044683424FF000038B4115460AD216A3A7
S31508006ED0D3E900235AF000FA164914460246284612
S31508006EE09EF0C3FF144B4EF66021B4FBF3F203FB8E
S31508006EF01244B4FBF1F34FF47A7801FB1344B4FB64
S31508006F00F8F728460D4900979EF0AFFF46B1284688
S31508006F1008FB17420A4902B0BDE8F0419EF0A5BF3A
S31508006F2002B0BDE8F08100BF005C26050000000045
S31508006F30FF5B26051C670E0880EE3600C6B60D08F0
S31508006F4022670E080348044B834202D0034B03B161
S31508006F501847704748010220480102200000000037
S31508006F60064B0749C91A891048BF0131491003D091
S31508006F70044B0BB101481847704700BF480102206F
S31508006F80480102200000000010B5064C237843B9DA
S31508006F90FFF7D8FF044B13B10448AFF30080012371
S31508006FA0237010BD3EAB012000000000D8010F0879
S31508006FB008B5054B1BB105490548AFF30080BDE888
S31508006FC00840FFF7CDBF00BF00000000D81B012016
S31508006FD0D8010F08A3F5803A704700BF174B002B5E
S31508006FE008BF134B9D46FFF7F5FF00218B460F465A
S31508006FF01348144A121AB8F0EFFA0E4B002B00D0B9
S3150800700098470D4B002B00D098470020002104001C
S315080070100D000D48002802D00C48B8F079FA5AF04D
S3150800702069FC20002900ACF040FB02F021F900BF02
S315080070300000080000000000000000000812002000
S3150800704008120020A0F1012011F50B08000000002D
S3150800705008B5154B4FF4E47200211846B8F0BCFA8F
S3150800706009220346026142611048114A98614FF4A9
S315080070708061DA61002219629A625A62DA62C3F89A
S31508007080F0000C48C3F8F400C3F8F8100A49C3F82E
S315080070900021C3F8FC20C3F8042111F8010D985407
S315080070A00132102AF9D108BDF01B012088110D08FC
S315080070B03FAF01203FAB0120A1110D082DE9F84F84
S315080070C0DFF88880824698F800308946532B1646A2
S315080070D001D0FFF7BDFF182707FB0A87D7F800512D
S315080070E0D7F8FCB05D452FD9D7F8F840D7F8F41093
S315080070F0641BB44228BF3446484629442246B8F0A1
S3150800710027F9D7F8F8302544AB4208BF0025A14433
S31508007110361BABEB050B5E4528BF5E465EB11823F2
S3150800712003FB0A83D3F8F410324629444846B8F0DC
S315080071300FF93444354424B1182303FB0A88C8F8E8
S3150800714000512046BDE8F88F0024E2E7F01B012035
S31508007150F8B5182700FB0775124B0E461D4407FBAA
S315080071600033DB6A1446012B0AD0022B14D023B94C
S31508007170284674F0CBFF844208D900242046F8BD7F
S31508007180284674F0C3FF844228BF04462246314687
S31508007190284674F0C4FFF1E72846BDE8F84074F0C5
S315080071A0D9BF00BFF01B0120F8B50B4B04461B786E
S315080071B00D46532B164601D0FFF74AFFEFF311870A
S315080071C04FF0200181F31188324629462046FFF701
S315080071D0BFFF87F31188F8BDF01B01202DE9F041A8
S315080071E0164C1E4623780546532B8846174601D06B
S315080071F0FFF72EFF082D1DD8EFF3118C4FF0200155
S3150800720081F3118865B1182005FB000344F8038053
S31508007210E2180023576000FB054216629362536228
S31508007220182303FB0544069BE3628CF311880020B0
S31508007230BDE8F0814FF0FF30FAE700BFF01B0120F0
S315080072402DE9F843174E1F4633780546532B8946D2
S31508007250904601D0FFF7FCFE082D1FD8EFF31182E8
S315080072604FF0200181F311886DB11824002304FB27
S315080072700564C4F8F090C4F8F480C4F8F870C4F84B
S315080072800031C4F8FC30182303FB0566089BC6F8D2
S31508007290043182F311880020BDE8F8834FF0FF30EF
S315080072A0FAE700BFF01B0120024B1B780BB1002345
S315080072B00373704740B3012048F2040210B50388EF
S315080072C093420DD006D803F5FF437F339BB2012BBB
S315080072D00AD910BD48F212029342FAD10F4A0CE0BD
S315080072E0027A0F4B1A70F4E790F90830012B03D095
S315080072F090F90930012BECD10A4A0221212092F09B
S3150800730031FA93F0FFF8036840F6B8315C69064A2B
S31508007310A446BDE810400023604700BFCA110D0807
S3150800732040B30120A2110D08E3C1070808B594F07F
S315080073300AFD24F047F824F077F8094827F050FAB0
S3150800734000224FF46171074887F0B5F830B1BDE8FF
S31508007350084001212120044A92F004BA08BD00BF62
S31508007360C0B00020A8A3002006120D0810B5002200
S315080073700C461348134994F08EFD18210A20124A28
S31508007380C9F0DEF8114B186040B921200121104AD6
S3150800739092F0E8F940F2017075F0E6F820460D4AD9
S315080073A00A49C8F08EFD40B9212001210A4A92F007
S315080073B0D9F940F2027075F0D7F8002010BD00BF69
S315080073C0F0BF0020B9720008D4140D08E41E01208D
S315080073D034120D08B0140D0857120D0810B5054BD8
S315080073E0054C1870204694F081FA2046BDE81040F6
S315080073F094F0D4BA40B30120C0B00020024B1868FC
S3150800740008B100F05FBA7047C81D0120014608B5EB
S315080074104FF47A7200238002890D59F05DFF094BFB
S3150800742001461868C8F0D2FE50B121200121064A4B
S3150800743092F098F9BDE8084040F2057075F094B8E6
S3150800744008BD00BFEC1E012071120D0808B5094BD6
S315080074500A211868C8F0BAFE50B121200121064A4F
S3150800746092F080F9BDE8084040F2057075F07CB8E6
S3150800747008BD00BFE81E01208A120D0808B5094A92
S3150800748040F6B8330221212092F06CF940F6B83064
S31508007490FFF7BCFF0122044B1A70BDE80840FFF74E
S315080074A0D5BF00BFA2120D083FB3012008B50221BF
S315080074B01D20034A92F056F9BDE80840FFF7C6BFFB
S315080074C0E1120D0870B5274D037C04462B70FFF7B3
S315080074D0BDFF2B78FE2B22D0FF2B30D00B2B37D8B5
S315080074E00B2B35D8DFE803F006120634343434346F
S315080074F03434341293F006F8036841F288315D6932
S315080075002346194AAC46BDE87040604792F0FAFF38
S31508007510036842F210715D69134A2346F2E792F056
S31508007520F1FF036822465B6A0F49984792F0EAFF23
S3150800753003684FF47A715D690B4A2346E2E792F0D5
S31508007540E1FF03682246BDE870405B6A06491847B2
S31508007550FF232B700221BDE870401D20034A92F0DC
S3150800756001B900BFFEFF0120B9750008F1120D0828
S3150800757008B5094B1868C8F045FE01300AD1212024
S315080075800121064A92F0EEF8BDE8084040F206707E
S3150800759074F0EABF08BD00BFE81E01208A120D0874
S315080075A008B502211D20034A92F0DCF8BDE8084020
S315080075B0FFF7DEBF06130D0808B5064A02211D208F
S315080075C092F0D0F8FF22044B1A70BDE80840FFF786
S315080075D0CFBF00BF15130D08FEFF012010B50446E6
S315080075E086B0094892F0E1F860B10023CDE903338B
S315080075F00293064B214601930223054A0093054B45
S3150800760007F076F806B010BDCC1D0120C574000839
S31508007610AD740008A175000808B5094B014618683D
S3150800762058B100231822C8F0CBFF40B1054A012102
S31508007630BDE80840212092F095B8034AF7E708BD4F
S31508007640E41E01202F130D085C130D087FB50223D5
S31508007650ADF80030044B019068460293FFF7DCFF53
S3150800766007B05DF804FB00BF997600088B680846EA
S3150800767003B1184702212120014A92F073B800BFCE
S315080076807D130D0800220249024828F055B900BFAB
S3150800769075780008F0BF002008B50388022B0CD1C6
S315080076A0064B1B781BB9BDE80840FFF7E7BEFFF796
S315080076B05FFFBDE80840FFF7E5BF08BD3FB30120FF
S315080076C000220249024828F037B900BF2D73000886
S315080076D0F0BF002010B5A4B003AB0193812301AC21
S315080076E002935BF0FDFF21465CF006FD28B994E89D
S315080076F003002DF011FF24B010BD01212120024AFC
S3150800770092F030F8F7E700BFAD130D0800230246E4
S31508007710194610B504462148C4F0DEFA204B186015
S3150800772040B9212001211F4A92F01CF840F204704A
S3150800773074F01AFF0023224601211B48C4F0CCFA34
S315080077401A4B186040B921200121194A92F00AF80B
S3150800775040F2047074F008FF02212120154B164AE6
S3150800776092F000F80221154A0123212091F0FAFF30
S3150800777028F0C8FC0368DB6F98470120FFF7AAFFCB
S3150800778001F0E8FB01F0B2FB0D4894F0F9F80D4B57
S315080077900D4918700D488AF06BF810BD4D76000833
S315080077A0EC1E0120C5130D081FC20708E81E01209C
S315080077B0DF130D085E7F0D08F9130D081D140D085B
S315080077C0C0B0002040B30120BC1D0120409D002010
S315080077D038B50546FFF79AFF044638B10C4827F036
S315080077E02DFD204674F0C0FE204638BD2B6828467D
S315080077F09B689847044608B10648F0E7064B1A689E
S3150800780052F8640C1A581844526C9047ECE700BFBB
S315080078103A140D084C140D08B8410120482337B511
S315080078200E4A0F4CA2F118050093111D0123284694
S3150800783091F0A5FF224628460A49B6F06FFF0023B5
S31508007840224609480949C0E90233094B0360303327
S31508007850436003B0BDE83040B6F060BFE41D0120C8
S31508007860B0F30120FBC10708B81D0120DDC10708D8
S3150800787068140D0810B50121094827F04FFE20B1FC
S315080078805BF02EFF0121B7F0E8FF064827F0ACFFB2
S3150800789028F038FCBDE8104003689B6F184700BF06
S315080078A0B8410120F0BF002010B50446017804480D
S315080078B027F068FEA37883F00103A37010BD00BF0C
S315080078C0B841012073B503690446E3B14369D3B1EE
S315080078D00E4B684619680B681B699847D4E9042358
S315080078E0DDE90065A178002918BF1346D4E902121C
S315080078F05B1842F10002B342AA4104D22046FFF7C0
S31508007900D3FFC4E9026502B070BD00BF24F60120AA
S3150800791038B500230022C0E90433002304460D4687
S31508007920C0E902230278024827F01CFEA57038BD7C
S31508007930B8410120014894F024B900BFC0B0002026
S31508007940014894F020B900BFC0B00020044A08B529
S3150800795083680260243242600BB1B7F006FD08BDA9
S3150800796020160D08A0F10400F0E700BF10B5044684
S31508007970054B03604433436014F0D0FB2046FFF701
S31508007980E5FF204610BD00BFB4760D08A0F104003F
S31508007990ECE700BF38B5124B044603F13802C26063
S315080079A003F14C02026103F160024261426803601E
S315080079B0743383613AB183682BB1536042681A60A5
S315080079C00023C0E9013304F1440528467FF0F0F9A5
S315080079D0284674F04CFC201D74F049FC204638BD3E
S315080079E008380D08A0F11400D4E7A0F11000D1E77B
S315080079F0A0F10C00CEE7A0F11800CBE71F2008B5D0
S31508007A0002210C4A91F0AEFE0B4826F0E3FE78B947
S31508007A100421094826F000FB50B908487AF006FA0E
S31508007A201F200221064A91F09DFE034894F0A7F80C
S31508007A3008BD00BFEC140D08C0B000205815002082
S31508007A400A150D08F8B51E4C002526461D4F1E487A
S31508007A501E4B3A461E49C0E901550360C5600574C8
S31508007A6045610583B6F05AFE1A4B294646F8D83BB7
S31508007A703246234604F1080008F0ECF804F1200326
S31508007A80C4E93435144B3A46C4F8D830134B20466B
S31508007A90C4E9383604F1F403C4E93B3541F20A4334
S31508007AA00F4984F8E85084F8F451A4F8DC30B6F0AD
S31508007AB035FE3A46BDE8F8400A490B48B6F02EBEF0
S31508007AC058150020B0F30120FC1E0120E0F50D0832
S31508007AD091D60208D0360D08C4E10D08A8E10D08B4
S31508007AE0C5C207086BC2070804F401207FB504461F
S31508007AF002211F20854A91F035FE234602211F20C8
S31508007B00834A91F02FFE834D02211F207F4A91F070
S31508007B1029FE02211F20804A91F024FE2B784BB9BA
S31508007B20284627F0B7FF00280CBF012300232B7037
S31508007B3040F0E5802146794825F02AFB5BF0D0FD28
S31508007B400446B7F072FE002840F0D980201D22F0C6
S31508007B50E3FC04F1080022F06DFC2046B7F07AFE3B
S31508007B606F4A704B0221002818BF13461F206E4A21
S31508007B7091F0F8FDFFF742FF002840F0C0806B4BFC
S31508007B80039001936A4B6B48029393F0ADFE6A4CDF
S31508007B90039001AB6948236327F028FD002840F0CD
S31508007BA0AE80674894F0B1F9664DD5E8AF3FDA077D
S31508007BB00BD428469AF0DFFC38B1634A6349644817
S31508007BC0B6F0ACFD28469AF0DBFC624DD5E8AF3F2F
S31508007BD0DB070FD428469AF0CEFC58B15C495E48BC
S31508007BE014F000FB584A5D495B48B6F097FD2846F5
S31508007BF09AF0C6FC5A4D584B2846236425F052FD88
S31508007C002369A5631BB9574B574A23615A60E36B2F
S31508007C1053BB564D6B68002B70D105F114002669CD
S31508007C2074F06EFB05F11C0074F06AFBEB6803B98F
S31508007C302B7295F834304E4823F0050385F8343016
S31508007C4074F05EFB4B4874F05BFB95F834304A4899
S31508007C5023F0180385F8343074F052FB00236E6065
S31508007C602B7285F83430E563236C0BB9434B2364D8
S31508007C70434D444B2846216963628BF05FF8636A7B
S31508007C8028462B618AF038FA002838D122692562FD
S31508007C90002A36D03C4B3D4D5A60636102F0C4FE63
S31508007CA03B4B0221A0623B4A2120E36291F05AFD38
S31508007CB02846216916F0FAFD08BB2069A5618EF0F1
S31508007CC09BFA354B216960643448236092F0DFFBE8
S31508007CD0324822F011FC1849314816F021F90446B9
S31508007CE0174894F017F93CB92E4827F0A7FA144814
S31508007CF027F062FE044630B1204600E0032004B0B7
S31508007D0070BD2F20FBE700F0AFF8F5E734150D0836
S31508007D1067150D08E8BF002073150D08604101209E
S31508007D2023150D082B150D0883150D083579000840
S31508007D3041790008C0B00020B8F30120B8410120FD
S31508007D40F0BF0020F41E0120B0F301206DC2070821
S31508007D50B4F30120F01E0120081200206D790008F6
S31508007D60FC1E0120A4F40120FEE501205035012067
S31508007D70743501207C3501205C350120C87300204C
S31508007D80E432012084F40120DC320120A0320120F3
S31508007D9088F4012095150D08B81D012004F401206A
S31508007DA060770020C5150D0810B51348FFF79EFE2D
S31508007DB008B174F0D9FB114894F0A7F85BF090FC71
S31508007DC000B10C301AF088FE0C4894F0A3F81F2076
S31508007DD002210B4A91F0C6FC0A4855F029FD08B164
S31508007DE074F0C2FB084C2068C8F0DFF808B1B7F099
S31508007DF0BCFA206010BD00BFEA150D08F0BF0020D0
S31508007E00F3150D08D4930120F81E012010B50A4871
S31508007E1094F017F80021094A0948C8F052F8094CA5
S31508007E2002212060084A1F2091F09CFC23680BB9A8
S31508007E30B7F09BFA10BD00BFB84101205C160D08CB
S31508007E40A97D0008F81E012005160D08014821F035
S31508007E5001B800BF28370120024B01211868C8F075
S31508007E60FDB800BF181F012010B50A4820F044FFCE
S31508007E70044608B1B7F079FA01F0D2FD01F018FE10
S31508007E802146054A0548C8F01CF8054B1860002825
S31508007E90F0D010BD2837012088160D084D7E000841
S31508007EA0181F012010B5044601210C20064A91F03E
S31508007EB059FC0023E068A36020B1BDE810400368C0
S31508007EC09B68184710BD00BFAC160D08A0F104004A
S31508007ED0E8E700BF10B50A4CD4E8AF3FDB070DD47E
S31508007EE020469AF048FB48B10648074B074A084916
S31508007EF00360B6F013FC20469AF042FB014810BD19
S31508007F00801F0120841F012084DA0D08B0F30120A8
S31508007F102FC3070810B504460B4B03606433436050
S31508007F2000F50E702EF0B8FB636A23B1002204F147
S31508007F301C0062629847236923B1002204F10800F5
S31508007F4022619847204610BD804B0D08A0F1040019
S31508007F50E0E700BF10B50446034B40F8343B74F025
S31508007F60FCF9204610BD00BF7C470D0837B5C06830
S31508007F700D46144638B901210C200E4A91F0F2FB41
S31508007F80002003B030BD1A682146019200221A600B
S31508007F9001AA0AF04FF901A874F0DFF9A38823B9FA
S31508007FA0E38813B92378402BEAD02B8943F04003A2
S31508007FB02B81E5E7BF160D08A0F10400D6E700BF40
S31508007FC073B516480AF0F2FA1549164AD1F8AC34D0
S31508007FD0154E164D5360A1F5405133460F4800958E
S31508007FE00AF0C0FB124B336125F036FE0446024602
S31508007FF00A4930460BF0F2FA2946204625F0C0FC1D
S3150800800040B10C4827F01AF96D210B4B0B4A0C4866
S315080080105AF068F96C6002B070BD00BF30180020D5
S3150800802060A700202CF401200CF401205017002032
S3150800803080510100F2160D080E170D0823170D08BA
S3150800804041170D0870B500243248334B334E036090
S315080080506433436000F10803C0E90233304BC0E9DA
S315080080600440836100F11C03C0E907332D4BC0E9C6
S315080080700940C0E90B342C4BC0E90D444364203356
S3150800808083640523C0E92044C0E92244C0E9644466
S3150800809080F83C40046480F8744080F89841C0F841
S315080080A09C4180F8A04180F8B84180F8D04180F81A
S315080080B0E841C0F81C321D4B32461D491D4DC0F81B
S315080080C03832C0E98F4480F80042C0F8184280F878
S315080080D0204280F84442B6F021FB3246164917483A
S315080080E0B6F01CFB324616491648B6F017FB28466A
S315080080F0154B6C6040F8103B2C7228F03BF8C5E92C
S315080081003444C5E9364432462846BDE870400F492E
S31508008110B6F004BB30180020804B0D08B0F30120E0
S31508008120B53101082D260108C8170D0854260E0872
S31508008130157F00085017002043C307082CF40120B8
S3150800814045C307080CF401207C470D08557F000835
S31508008150012903BF034B00201B78A62008BF137014
S31508008160704700BF51CC0120022938B514461D4678
S315080081700FD1202200210848B7F02EFA3CB1202D55
S315080081802A46214628BF20220348B7F0E1F80020F6
S3150800819038BDA620FCE700BF31CC0120104608B543
S315080081A06AB163B102290CD1202B28BF20231A46B5
S315080081B0029B05491A60B7F0CBF8002008BD2F20AE
S315080081C0FCE7A620FAE700BF31CC0120012905D13A
S315080081D002B11278024B00201A707047A620704729
S315080081E051CC01202DE9F0431D46002389B00746EE
S315080081F008460E461446CDE9053327F035FD18B96D
S31508008200D82009B0BDE8F083304605A927F0F8FD67
S315080082100028F6D1204627F027FD0028F0D0204672
S3150800822006A927F0EDFD0028EBD1DDE905860790C4
S3150800823007A9124827F0E4FD0446D8B9079B18EBAE
S31508008240030902D10EB1B7F090F8009302213B461C
S315080082501F20CDE901860A4A91F084FA6B689E428E
S315080082600AD8324649462868B7F09CF96B689E4298
S31508008270E9D86E602046C4E71924FBE72172080096
S3150800828038180D08014827F00BBF00BF0072080018
S31508008290002307B50348019301AB27F005FE03B099
S315080082A05DF804FB00720800014827F0B5BE00BF60
S315080082B00C72080010B506480C4627F075FD40F20A
S315080082C00123984202BF4FF6F1732380002010BDA8
S315080082D00C720800014827F0E3BE00BF0D720800C3
S315080082E073B5002601AB0C480C461546019627F0D7
S315080082F0DBFD40F20123984208D14CB1062D09D97D
S3150800830020462946054A74F09EF8304602B070BDEC
S315080083100B20FBE71920F9E70D72080056180D081F
S31508008320014827F079BE00BF0B72080010B5064851
S315080083300C4627F039FD40F20123984202BF48F265
S3150800834005032380002010BD0B720800014827F0A2
S31508008350A7BE00BF0E72080073B5002601AB0C4815
S315080083600C461546019627F09FFD40F201239842D8
S3150800837008D14CB1062D09D920462946054A74F07C
S3150800838062F8304602B070BD0B20FBE71920F9E70A
S315080083900E7208005D180D08014827F081BE00BF5F
S315080083A010720800002307B50348019301AB27F0B4
S315080083B07BFD03B05DF804FB10720800014827F046
S315080083C06FBE00BF11720800002307B5034801936A
S315080083D001AB27F069FD03B05DF804FB11720800D4
S315080083E0014827F05DBE00BF12720800002307B5DA
S315080083F00348019301AB27F057FD03B05DF804FB72
S3150800840012720800014827F007BE00BF187208005C
S3150800841010B506480C4627F0C7FC40F201239842DF
S3150800842002BF01232380002010BD00BF1872080078
S31508008430014827F035BE00BF0F72080073B5002645
S3150800844001AB0C480C461546019627F02DFD40F267
S315080084500123984208D14CB10C2D09D9204629464A
S31508008460054A73F0F0FF304602B070BD0B20FBE7FB
S315080084701920F9E70F72080067180D08014827F058
S315080084800FBE00BF04720800014827F00DBD00BFEB
S3150800849004720800014827F01DBE00BF1F720800BD
S315080084A007B500200090034827F054FD03B05DF897
S315080084B004FB00BF1F720800014827F0ADBD00BFCE
S315080084C00772080013B510480C4627F06DFC40F2F9
S315080084D001229042034604D14FF47063238000239F
S315080084E00FE070B92388B3F5805FF8D34FF4C273F1
S315080084F02F240121CDE90034044A054B91F032F9C5
S315080085002346184602B010BD0772080094180D08D5
S3150800851074180D08014827F097BD00BF08720800B7
S3150800852010B506480C4627F06BFC40F2012398422A
S3150800853002BF4FF47A732360002010BD087208004A
S31508008540014827F0ADBD00BF09720800014827F0B1
S31508008550ABBC00BF09720800014827F0A1BD00BFE7
S315080085600A720800014827F09FBC00BF0A7208007B
S315080085700B4610B5084A0C4608480949FFF732FE6B
S31508008580D82807D11AF034FB03682146BDE8104005
S315080085909B68184710BD00BF27720800A5180D086C
S315080085A0267208000B4610B5084A0C4608480949C1
S315080085B0FFF718FED82807D11AF01AFB03682146D8
S315080085C0BDE810405B69184710BD00BF257208005A
S315080085D0C1180D08247208000B4610B5084A0C4647
S315080085E008480949FFF7FEFDD82807D11AF000FB0D
S315080085F003682146BDE810401B69184710BD00BF37
S3150800860023720800E7180D0822720800022307B52E
S3150800861001A8D1E9001201935AF084FF18B901990B
S31508008620024827F011FD03B05DF804FB207208002C
S315080086301FB5022003900698009003A85AF08AFFF7
S3150800864018B90399024827F0FFFC05B05DF804FB4A
S3150800865020720800002370B5164886B00D461646E7
S31508008660049327F001FBE8B1124804A927F0C8FBD8
S31508008670B0B9049B3246002B08BF0223294605A839
S3150800868005935AF0CFFF0446029073681F200193A2
S315080086906B6802210093084A049B91F063F8204610
S315080086A006B070BD1AF0A4FA0368324629469B69DB
S315080086B09847E8E72072080000190D08014827F0D6
S315080086C0C3BC00BF21720800014827F099BB00BF50
S315080086D021720800014827F0E3BC00BF2972080090
S315080086E0014827F0E1BB00BF29720800014827F0BE
S315080086F0F1BC00BF0572080007B5002000900348CA
S3150800870027F028FC03B05DF804FB00BF05720800DB
S31508008710014827F069BC00BF28720800014827F005
S3150800872017BB00BF287208000020094B10B5186057
S3150800873032B9084C2146BDE81040074827F084BCEA
S31508008740A1F5005105488C1893F08CFBF2E700BFA1
S31508008750881F012000E0170821720800B84101208F
S3150800876000232DE9F04F85B080460F462C4803A913
S315080087701546039327F044FB002838D1294E039960
S3150800878033681BB9284893F04EFB80BBD5E9001423
S315080087903368039A02EB030B14F003031BD10A4652
S315080087A023465946204893F044FB00BB40463168AF
S315080087B027F04AFCD8B93846696827F045FCB0B9AD
S315080087C032686B680020134413F03F021CBF403325
S315080087D09B1A33600BE004F1040AAAEB030A50461D
S315080087E0019122F061FB0199814618B9AC2005B0C8
S315080087F0BDE8F08F2246B6F0ABFDAAEB0402FF21D6
S3150800880009EB0400B6F0E8FE53464A4659460648C0
S3150800881093F00FFB0446484622F06AFB2046C4E75D
S3150800882021720800881F0120B841012008B50A46B0
S3150800883002480349FFF794FF08BD00BF22720800EB
S315080088402372080008B50A4602480349FFF788FF5D
S3150800885008BD00BF247208002572080008B50A463C
S3150800886002480349FFF77CFF08BD00BF26720800CF
S3150800887027720800DFED0B7AB4EEE70AF1EE10FA7C
S3150800888008B50CD9DFED087ADFED080A30EE670A7D
S315080088905AF0ACF8DFED067A20EE270A08BD9FED00
S315080088A0050AFBE70000844200007042D46608BE51
S315080088B070D9A44300007F439FED107AB4EEC70A2F
S315080088C0F1EE10FAF0EE407A08B50AD85AF05EF8DA
S315080088D09FED0B7ADFED0B7AE0EE077AB0EE670ACA
S315080088E008BD9FED090ADFED090A37EEC00A5AF0FE
S315080088F07DF8DFED077A20EE270AF1E700008442CB
S315080089000DF1C6429C1E21430000704287A79ABDFE
S31508008910A30F9043DFED117AB4EEE70AF1EE10FAF1
S3150800892008B515DAF3EE037AB4EEE70AF1EE10FAB3
S3150800893011D9F2EE047A30EE670A5AF027F89FED5D
S31508008940087ADFED087AE0EE077AB0EE670A08BD26
S315080089509FED050AFBE79FED050AF8E7000084424C
S315080089608A840A43BC85984300007F4300000000C0
S315080089709FED0C7AB4EEC70AF1EE10FA08B506D8E0
S315080089809FED097A60EE077AB0EE670A08BDDFED5B
S31508008990070A5AF02BF89FED067ADFED067AE0EE25
S315080089A0077AF1E7BD3A473B52B84E415555D53E91
S315080089B03D0A873FAE4761BDDFED117A20EE270AF3
S315080089C060EEA70ABCEEC07A21EE271A86B08DEDB6
S315080089D0017ABCEEE07AFCEEC17A8DED027A0020CF
S315080089E0CDED037A9DF8043063F307009DF808304F
S315080089F063F30F209DF80C3063F3174006B07047F9
S31508008A0000007F43DFED3C7A10B5B0EE407A2DEDDD
S31508008A10048B20EEA70A9FED399ADFED397A20EE0E
S31508008A20899AA7EE270ADFED377AA7EE279ADFEDB0
S31508008A30367AA1EE279ADFED357A20EEA78ADFEDA2
S31508008A40347AA7EE278ADFED337AA1EE278ADFED9F
S31508008A50327A82B0A1EE270A0446FFF789FF20463C
S31508008A60F0EE408AB0EE490AFFF782FF2046B0EEE4
S31508008A70409AB0EE480AFFF77BFFF5EEC08AF1EEA2
S31508008A8010FAB0EE401A2DD4F7EE007AF4EE678AA3
S31508008A90F1EE10FA77FEA88AB5EEC09AF1EE10FA52
S31508008AA023D4F7EE007AB4EE679AF1EE10FA37FEA1
S31508008AB0899AB5EEC01AF1EE10FA19D4F7EE007AD3
S31508008AC0B4EE671AF1EE10FA37FE811AF0EE490A8B
S31508008AD0B0EE680A204602B0BDEC048BBDE8104033
S31508008AE0FFF76ABFDFED0D8AD6E79FED0C9AE0E740
S31508008AF09FED0A1AEAE700BF86C9C4BFC520F03F42
S31508008B008B6C4F407E1D78BFC3642A3D60E550BE1E
S31508008B10D3BC633DC74B873F8048FFBE00000000BB
S31508008B2007EE901A9FED267AF8EE677A10B52DEDC6
S31508008B30048B87EE279A82B0B0EE490A0446FFF7FF
S31508008B4099FE2046F0EE408AB0EE490AFFF7B4FED9
S31508008B502046B0EE408AB0EE490AFFF7DBFEFCEE8F
S31508008B60E87A17EE903AFCEEC87A8DF8003017EEE0
S31508008B70903AFCEEC07A8DF8013017EE903A8DF8EF
S31508008B80023000990022FF23204673F0CBFC8DF8B3
S31508008B900000C0F30721034610468DF80110BDF802
S31508008BA00010C3F30743CAB262F30700C1F30721F3
S31508008BB061F30F2063F3174002B0BDEC048B10BDC0
S31508008BC000401C4606EE902A07EE103ADFED105AD2
S31508008BD007EE901AF8EE666AB8EE477A86EEA56A48
S31508008BE0F8EE677AC7EE256AB7EE001A9FED097A9E
S31508008BF031EE461AC7EE870A31EE661A80EEA60AE5
S31508008C0021EE001A20EE060A82B002B0FFF7FABE7D
S31508008C1000FF7F4700007E43F7B50C46074615461A
S31508008C201E4673F00DFB01460B4826F055FC88B12D
S31508008C3023460221094A1D20CDE9005690F092FDEF
S31508008C40384673F0FDFA2B4601462246024800963E
S31508008C5026F04CFC03B0F0BDB84101204B190D08B5
S31508008C6007EE901A2DE9F041F8EEE77A2DED068B1E
S31508008C70DFED67AADFED679A07EE102A67EEAA7A94
S31508008C80C7EEA98AF8EEC77A84B087EEA99A804615
S31508008C9073F0DAFAB5EEC09A07EE900AF1EE10FA1A
S31508008CA0F8EEE77A9FED5CAA87EEA98A11D828EE36
S31508008CB00A8AFCEEC87ACDED017A9DF804301A4688
S31508008CC01946404604B0BDEC068BBDE8F041FFF7F7
S31508008CD0A3BFF4EE6A8ADFED517AF1EE10FA67FE69
S31508008CE0A88ADFED4F7AC8EEA79AFDEEE9AAF8EE54
S31508008CF0EA7A18EE100A79EEE79A57F03BFF04462F
S31508008D0019EE100A0D4657F035FF02460B46064681
S31508008D100F460020434957F0CDFD22462B4657F013
S31508008D2081FF58F039FA69EE297A08EE900A17EEAB
S31508008D30900A57F01FFF02460B460020394957F0A4
S31508008D40B9FD22462B4657F06DFF58F025FA09EE75
S31508008D50100A19EE900A57F00DFF02460B4600203E
S31508008D60304957F0A7FD32463B4657F05BFF0246AF
S31508008D700B4600202B4957F09DFD22462B4657F0FF
S31508008D8051FF58F009FA1AEE902A07EE900A042ABB
S31508008D9036D8DFE802F0030720252C00B0EE489A03
S31508008DA0B0EE678A68EE8A8A28EE0A8AFCEEE87AC6
S31508008DB029EE0A9ACDED017AFCEEC87ACDED027A53
S31508008DC0FCEEC97ACDED037A9DF804309DF80820AB
S31508008DD09DF80C1075E7B0EE689AF0EE678AE1E741
S31508008DE0F0EE497AB0EE689AF0EE488AD8E7B0EE27
S31508008DF0487AB0EE679AB0EE688AF0EE478AD1E70D
S31508008E00F0EE497AB0EE489AB0EE688AE5E700BF18
S31508008E100000B44300007E4300007F4300000000CA
S31508008E20000070420000F03F37B50D460446FFF7D4
S31508008E3077FEC0F30723C0F307428DF804008DF8C8
S31508008E4005308DF806202B4602211D20074A90F092
S31508008E5089FC20469DF806309DF805209DF80410EB
S31508008E6003B0BDE83040FFF7D7BE00BF65190D084F
S31508008E707FB504460B460D461646022100921D2074
S31508008E800B4A90F06FFC204673F0DEF93346014634
S31508008E902A462046FFF796FEC0F30743C0F307228B
S31508008EA0C1B2204604B0BDE87040FFF7B5BE00BFAA
S31508008EB078190D08014822F037BC00BF7038012028
S31508008EC008B500220249034890F0E3F8002008BDDF
S31508008ED0518802088C1F01200A4608B9FFF7F0BF1F
S31508008EE00146014890F0F6B88C1F012008B5022209
S31508008EF0054906481FF0DEFEBDE808400122044980
S31508008F0004481FF0D7BE00BF3C1A0D088C1F01206D
S31508008F10301A0D08283701200122024B83F8042154
S31508008F20704700BF8C1F012008B50022024903487C
S31508008F3090F0AFF8002008BD51880208942001205F
S31508008F400A4608B9FFF7F0BF0146014890F0C2B8D3
S31508008F509420012008B50122054906481FF0AAFEFB
S31508008F60BDE808400122044904481FF0A3BE00BF1B
S31508008F708C1A0D0894200120801A0D082837012024
S31508008F800122024B83F80421704700BF9420012078
S31508008F900021044600B589B01A2201A80091B6F04E
S31508008FA01BFB2346074A1E21684659F0BBFA694649
S31508008FB0054826F043F9684673F0D9FAC4F0EEF886
S31508008FC0B6F0D3F9981A0D08AE1A0D082DE9F04F28
S31508008FD00446D0E90076384B87B0D3F828B0D3F8E2
S31508008FE02CA0D3F83490D3F83880D0E902530193F3
S31508008FF00369012102934369304A03938369049301
S31508009000C369002005932E4B1B6890F0ABFB5B46AB
S31508009010012100202B4A90F0A5FB53460121002090
S31508009020294A90F09FFB4B4601210020274A90F0E1
S3150800903099FB434601210020254A90F093FB2346DD
S3150800904001210020234A90F08DFB00F023FB3B46CC
S3150800905001210020204A90F085FB3346012100209B
S315080090601E4A90F07FFB2B46012100201C4A90F0F7
S3150800907079FB01210020019B1A4A90F073FB01211C
S315080090800020029B184A90F06DFB01210020039BEB
S31508009090164A90F067FB01210020049B144A90F0C1
S315080090A061FB01210020059B124A90F05BFB00F052
S315080090B0F1FAC7F05CFBFEE700ED00E00F1B0D08B8
S315080090C0642C0120251B0D083B1B0D08511B0D08A0
S315080090D0671B0D087D1B0D08931B0D08A91B0D08A2
S315080090E0BF1B0D08D51B0D08EB1B0D08011C0D0831
S315080090F0171C0D082D1C0D08024B034A1A6073F045
S3150800910037BA00BF642C012044524148024B034A37
S315080091101A6073F02DBA00BF642C01204655504DD5
S31508009120024B034A1A6073F023BA00BF642C01206D
S3150800913046535542024B034A1A6073F019BA00BFE8
S31508009140642C012054465355024B034A1A6073F0A7
S315080091500FBA00BF642C012054464353024B034AFE
S315080091601A6073F005BA00BF642C01204E4D4244C4
S31508009170012108B50020064B064A90F0F3FA00F0E4
S3150800918089FAC7F0F4FA0449044858F0D7FBFEE711
S31508009190431C0D08C5460E08DF1A0D08F61A0D08F9
S315080091A000240D4600B59BB06022214602A8019412
S315080091B0B6F012FA2B466421094A01A859F0B2F909
S315080091C001212046074A01AB90F0CCFA00F062FA7A
S315080091D0C7F0CDFA0449054858F0B0FBFEE700BFD2
S315080091E0661C0D08C5460E08DF1A0D08F61A0D0886
S315080091F0034B0360034B0B604FF4A0731360704777
S31508009200002C012000270120034B0360034B0B6051
S315080092104FF4A073136070479C2601209C210120FF
S3150800922000240D4600B59BB06022214602A8019491
S31508009230B6F0D2F92B466421064A01A859F072F90C
S3150800924001212046044A01AB90F08CFA00F022FA7C
S31508009250B6F08BF8791C0D08C5460E08024B034A72
S315080092601A6073F085B97047642C0120474F44573C
S315080092702A2108B5024800F059F9A9F03DFCFEE795
S31508009280891C0D08024B01211868C6F0E7BE00BF0D
S31508009290302D01200D4BD9889A8889B292B2914215
S315080092A011D0D9889A8889B292B291423DBF9A88DC
S315080092B0D8881B89D8882DBF9B8813FA80F0801A16
S315080092C0C01A80B270470020704700BF682C012082
S315080092D0F8B50E46074608B9B6F047F8154D2C8975
S315080092E08C42F9D3FFF7D6FF201A80B286421BD8E4
S315080092F0EB88E888E41AA4B2A6422B6815D9224658
S31508009300394613FA80F0B6F023F82868321B391963
S31508009310B6F01EF8EB8816FA83F12B89B1FBF3F247
S3150800932003FB121189B2E980F8BD3246394613FAB1
S3150800933080F0EDE7682C012038B50446C7F011FC2B
S31508009340012105460846C5F0F1FC2846C7F004FC8D
S315080093500C480D4B2146B4F80021006846F00CF87D
S315080093604FF0FF3200210120C6F0B9FEC7F0F9FB25
S31508009370044600210120C5F0D9FC2046BDE8384046
S31508009380C7F0EABB48F9012085920008002370B5AA
S31508009390174CC2B0174DADF804318DF806314FF0B1
S315080093A0FF330022206801A9C7F03EF90028F6D14C
S315080093B09DF8066101A8FFF7BFFF4EB140F60D23E1
S315080093C0ADF80430022301A8ADF80431FFF7B4FF65
S315080093D02A6852B1084901A859F0D8F80023ADF80F
S315080093E0040101A82B60FFF7A7FF00231A46D9E757
S315080093F0C42C0120C82C0120B31C0D082DE9F84304
S31508009400DFF850801E46B8F800901546A3EB09070A
S315080094100D4BFFB21C89FFF73DFF241AA4B2A742E1
S3150800942007D8394605EB0900FFF752FF0023A8F8CD
S315080094300030064832462946054B006845F0EAFEE4
S31508009440BDE8F843FEF708BD682C012048F901205D
S31508009450FD93000824A6012070B5204E3468002C20
S315080094603BD14FF482711E4A0A20C7F069F81D4D98
S315080094701D4A286021461D48C6F023FD1C4B1D4A7F
S315080094809C801A604FF4807230601A81DC8008B9BB
S31508009490B5F06BFF2B68002BFAD0174C8022174BC0
S315080094A01749206845F0B6FE8022144B15492068F6
S315080094B045F0B0FE0B2048F0C9FE0B2048F080FEB0
S315080094C01422114B0521DA640422A3F580531A6588
S315080094D00E48BDE87040A9F02EB970BD302D0120A8
S315080094E0C81C0D08C42C0120E81C0D088D93000823
S315080094F0682C012052CC012048F90120FD93000870
S31508009500FADB01207ADB01200020015B0000015B09
S3150800951008B5FEF7A1FC0421034B03F500521165BB
S31508009520D164DB6C08BD00BF0000015B70B50C465A
S315080095300546C2B018B94FF0FF3042B070BD4B1E99
S31508009540FF2BF8D80C4E33680BB9FFF785FF0023BD
S315080095502246294601A88DF80631B5F0F9FE4FF0E6
S31508009560FF331822306801A9ADF80441C7F028F87E
S315080095700028E0D120B2E0E7C42C012010B50C4643
S31508009580C2B00146D0B1631EFF2B17D8224601A8E8
S31508009590B5F0DEFE01230B488DF8063118220023AC
S315080095A0006801A9ADF80441C7F00AF810B920B25D
S315080095B042B010BD044A1368013313604FF0FF3000
S315080095C0F6E700BFC42C0120C82C01200422F0B500
S315080095D02C4B0C46074685B01A6500284FD0002943
S315080095E04DD0FFF757FEA04219D2C7F0CDFA05466F
S315080095F02548264E03AB01A9006802AAA8F0ECFF8D
S31508009600338802998B4207D20198C91A184489B23D
S31508009610FFF75EFE029B33802846C7F0B0FA1C4D62
S315080096202E89B44201D9B5F0A0FEFFF733FEA04259
S3150800963028BF2046AB8884B2F61AB6B2A6422B6873
S31508009640A98817D2324613FA81F13846B5F080FE5A
S315080096502968A21BB819B5F07BFEAB882A8914FACB
S3150800966083F3B3FBF2F102FB11339BB2AB8020B25A
S3150800967005B0F0BD2246384613FA81F1EBE74FF004
S31508009680FF30F5E70010015B48F9012024A6012008
S31508009690682C0120002330B50B4CC3B00B4DADF838
S315080096A004318DF80631002320681A4601A9C6F050
S315080096B0BBFF08B143B030BDBDF80421286801A935
S315080096C045F0B4FBEFE700BFC42C012048F90120A0
S315080096D00A46014620B11AB1024B186845F0A6BBE6
S315080096E0704700BF48F9012008B5082021F0DCFBC7
S315080096F018B100234360014B036008BD541D0D08D3
S3150800970008B5082021F0D0FB18B100234360014BAF
S31508009710036008BD701D0D08436843B9054B0B600F
S3150800972005234B60436801334360012070470020DE
S31508009730704700BF0C1D0D08042370B51446456814
S315080097408AB0ADF802302B680A4601A805499E681A
S3150800975072F079FF224628460DF1020301A9B047A7
S315080097600AB070BD121D0D0830B54468134622684C
S315080097708BB0156901A80A46034972F064FF2046B2
S3150800978001A9A8470BB030BD1F1D0D0830B58DB017
S315080097904468019223680A4603A80649DD6872F000
S315080097A052FF042320460DEB030203A9A8470DB078
S315080097B030BD00BF121D0D08F0B5A3B0064617A8A8
S315080097C01F460C4615468EF077FC2A2217A80CA9C8
S315080097D08EF085FC0DF10B03019315234FF480726F
S315080097E0009317A800238EF097FE50BB97E8030056
S315080097F0154B8DE80300D3E9002317A88EF064FF04
S31508009800F8B9D7E90201114B8DE80300D3E9002323
S3150800981017A88EF059FFA0B99DF90B1017A88EF05E
S31508009820B0FE70B97668224633680949DF6803A82E
S315080098302B4672F008FF3046BDF874300CAA03A90F
S31508009840B84723B0F0BD00BFC01D0D08B81D0D08F0
S315080098501F1D0D0813B5044608460A4B1146C4E9F0
S3150800986000300023C4E903330193036822815B6A4D
S3150800987001AA984710B9019BC4E90303204602B020
S3150800988010BD00BF381D0D082DE9F041D0E903329F
S31508009890934204460D469EB003D300201EB0BDE891
S315080098A0F0812A2642683B495768ADF802603A6853
S315080098B0D2F80880028910A872F0C5FE38460DF164
S315080098C0020305AA10A9C0470028E6D110A88DF002
S315080098D036FF324605A910A88DF074FF4FF4807242
S315080098E00023152110A88EF006FB0028D5D10DF10E
S315080098F0010110A88EF039F90028CED1264BCDE902
S315080099000100D3E90023CDE9030010A88EF0E6FA9A
S315080099100028C2D101AE314610A88EF0E9F9002818
S31508009920BBD11E4B10A8D3E900238EF0D7FA002826
S31508009930B3D10DF10C08414610A88EF0D9F90028CC
S31508009940ABD110A88EF0BFFA0028A6D19DF9011058
S3150800995010A88EF064FA00289FD196E8060004F154
S31508009960140704F12506384672F093FE98E80600B7
S31508009970304672F08EFE3846B5F07FFDC5E90070B8
S315080099803046B5F07AFDC5E90260E3680120013387
S31508009990E36083E71F1D0D08C01D0D08B81D0D08DF
S315080099A0F8B505460E460024094FAC4206DB1FF003
S315080099B0E1FA08498FF0F7FB0020F8BD1FF0DAFA44
S315080099C056F8242039468FF0EEFB0134EDE700BF48
S315080099D0EA5B0E08CA1D0D08F8B505460E460024B2
S315080099E0064FAC4201DB0020F8BD56F824303A4653
S315080099F002211C208FF0B6FE0134F2E7C5460E0898
S31508009A0010B51FF0B7FA04468BF088FE03490246E4
S31508009A1020468FF0C8FB002010BD00BFC81D0D08EA
S31508009A200322024902481FF045B900BF1C1E0D0853
S31508009A30283701202DE9F04700240646E0B088467D
S31508009A404FF4BE72214601A80094B5F0C5FDA642A2
S31508009A5028DD6D464FF0200958F824A05046B5F089
S31508009A600CFD60AB2F189F4202461DD22846514670
S31508009A70B5F094FC7D1C60AB9D4204F101042CBF3B
S31508009A803D4687F80090A642E6D1084892F079F854
S31508009A906846BEF080FF054892F075F8002060B071
S31508009AA0BDE8F0872F20FAE71920F8E7C0B00020B4
S31508009AB00122024902481FF0FDB800BF681E0D08C2
S31508009AC0283701200122024B83F80421704700BF82
S31508009AD0342D012010B50446054B036000F5CF6010
S31508009AE090F058FC23690BB1B5F03FFC204610BD39
S31508009AF05CDE0D0870B504460B4B00F5387503F1AE
S31508009B002C0203604C334260836000F11006B542B4
S31508009B1007D055F8080C283D0028F8D02BF088FF08
S31508009B20F5E7204670BD00BF24170E08A0F1040013
S31508009B30E0E7A0F10800DDE710B5094B044603602D
S31508009B40084B8360006948B143680BB9B5F00DFC52
S31508009B50013B436013B903681B6B9847204610BD49
S31508009B60681F0D0878230E0810B50446034B40F805
S31508009B700C3BFFF7E1FF204610BD00BF8C1F0D0808
S31508009B800022002310B5C0E90023C0E90223C0E97A
S31508009B9004230D4B04460021836121226030B5F071
S31508009BA01BFD4FF6FF720023A4F882204FF4807243
S31508009BB0204684F88130A4F88420C4F8883072F0EE
S31508009BC052FE204610BD00BFF8F20D0800F108034A
S31508009BD073B504460D46036011B91048B4F056FF34
S31508009BE00846B5F04AFC0F2805EB0006019007D990
S31508009BF00022204601A956F05BFC019B2060A36069
S31508009C00324629462068B4F08FFF00212046019B82
S31508009C1022686360D15402B070BD00BF741E0D087F
S31508009C2010B50446044B0360406A72F0A2FDE06872
S31508009C3072F0ACFE204610BD181F0D0870B516460A
S31508009C4005460C468CB01146684672F0F1FD294669
S31508009C50304672F05FFD641B0A4BE4105C436946AC
S31508009C6006A872F0E5FD2246002106AB284672F0EA
S31508009C70CDFE06A8B4F01BFF6846B4F018FF0CB07A
S31508009C8070BD00BFABAAAAAA2DE9F04F4FF0180B7A
S31508009C90044617460E468DB000EB0B08351BB5F586
S31508009CA0C07F22DD3F4BED105D4367BB4FF01808C0
S31508009CB0AF1E7F10684608FB074172F0B9FD69467A
S31508009CC006A872F0B5FD20462A46394606AB72F05C
S31508009CD09DFE06A8B4F0EBFE57B96846B4F0E7FE59
S31508009CE0331B182BA6F1180607DC0DB0BDE8F08F5C
S31508009CF06846013FB4F0DBFEDCE7324631462046D3
S31508009D00FFF79CFFECE76D100BFB0545404629461F
S31508009D1072F077FEA6F11809C246494660B1284690
S31508009D2072F06FFE08B129460BE04946404672F0CC
S31508009D3068FE28B1494604E0404672F062FE10B358
S31508009D4041462046B4F030FF35465046214672F06B
S31508009D5058FED1460AF1180A0028F6D1A5F1180AC4
S31508009D605146204672F04DFE5546AAF1180A0028BB
S31508009D70F6D1A9450ED3013F31463A464846FFF784
S31508009D8083FF4E468AE74946284672F03AFE00287F
S31508009D90C9D0CFE729464846B4F006FF09F1180AA4
S31508009DA0D3E700BFABAAAAAA2DE9F0438842054625
S31508009DB00E4687B005D0DFF8608000F11804A64289
S31508009DC002D107B0BDE8F0832946204672F019FE95
S31508009DD004F11807E0B12146684672F029FDB94634
S31508009DE0641BE41008FB04F4002C08DC28466946CA
S31508009DF072F090FC6846B4F05AFE3C46DFE7A9F1DB
S31508009E003001A9F11809484672F084FC013CEBE7D9
S31508009E10204672F05FFEF0E7ABAAAAAA2DE9F04148
S31508009E20036886B09B6A0446984701210346394A67
S31508009E3024208FF097FC236821466846DB6A9847FA
S31508009E40039E002430460DF10408404505D1324BE7
S31508009E509C4206DD3148B4F01CFEB4F0BDFC01346A
S31508009E60F3E7182767431CB13846A9F0A4FA044655
S31508009E70254646452CD1AC4217D0294B2E1BF2104D
S31508009E805A43B2FA82F2C2F11F022946204652000C
S31508009E90FFF7FAFEB6F5C07F2ADD04F5C07631462F
S31508009EA02046FFF781FFB5421DD12646DFF87480AC
S31508009EB0B54222D12646B54227D11CB1394620469D
S31508009EC0A9F089FA029872F054FC06B0BDE8F08150
S31508009ED0284606F1100172F06BFC3046B4F07CFCA3
S31508009EE018350646C5E7304672F0F4FD1836DAE747
S31508009EF029462046FFF758FFD7E742460121242086
S31508009F0056F8183B8FF02EFCD2E73046B4F0CFFD5A
S31508009F101836D0E7A61E0D0855555505D71E0D0847
S31508009F20ABAAAAAA081F0D08F8B50025474C601960
S31508009F309035FFF725FEB5F5347FF8D1002544485E
S31508009F40FFF71EFE0026C4E9D855C4E9DA55A4F879
S31508009F507053C4F8745384F8785384F8805384F89B
S31508009F608253A4F88453002712243A4A3A493748B8
S31508009F70B4F0D4FB394B3A4A1A6002F12C014C3240
S31508009F80C3E9022559601033102218460021B5F09E
S31508009F9023FB41F2A4520346013CC0E90667057457
S31508009FA042824561056203F12803EDD1294A2D490C
S31508009FB02A48B4F0B3FB2C481FF0E0FB254A2B498E
S31508009FC02948B4F0ABFB2A482CF0DAFC214A294987
S31508009FD02748B4F0A3FB2848284B1E4A2849C0E95D
S31508009FE0014403600473B4F099FB2648264B194ACA
S31508009FF0036000F10803C0E90433244900F1200393
S3150800A000234DC0E90A330472C460846180F8204095
S3150800A0104462046380F834408463B4F07FFB1D4BCC
S3150800A02021462B601C4B102205F11800EB60C5E990
S3150800A03001442C61B5F0D0FA184BEC616B612846E7
S3150800A040BDE8F840034A1649B4F068BB1836002044
S3150800A050E8380020B0F30120C3C8070838330020C9
S3150800A06024170E08F59A0008882B0020D59A0008B0
S3150800A070801A0020796B0308A02E012054260E08AA
S3150800A08099660308642E0120181F0D08219C0008F4
S3150800A0903C2E01208C1F0D08681F0D0878230E081A
S3150800A0A0699B000870B5036805460C4616460BB151
S3150800A0B0032070BD02210D20074A8FF053FB0CB90F
S3150800A0C02F20F6E723682046DB6898470028F0D15A
S3150800A0D0C5E90046EDE700BF981F0D082DE9F04FCA
S3150800A0E0074600688BB004680D46646C90461E46A9
S3150800A0F0A0472D2804460ED048B19F4A9F4B0221FF
S3150800A100A52808BF13460D209D4A8FF02BFB204635
S3150800A1100BB0BDE8F08F6B78202B01D10024F6E751
S3150800A120984B3868029358B103682A461B6C02A9F3
S3150800A1309847044630B1029803689B689847E6E753
S3150800A1400324F8E74FF0000A4FF0000B8E4B0393F9
S3150800A150029803A90368DB68984730B102210D20ED
S3150800A1608A4A8FF0FFFAA52410E08DF806000398B6
S3150800A1700DF106010368DB689847044630B99DF877
S3150800A1800630402B06D0802B04D0032403A872F097
S3150800A190B0FFD0E76A789A42DAD1012303988DF89E
S3150800A1A0073003680DF107015B69984704460028E4
S3150800A1B0ECD19DF80730082B18D8002BC8D0013BE6
S3150800A1C0072BC5D801A252F823F000BF05A2000844
S3150800A1D017A2000851A1000823A2000851A10008EF
S3150800A1E051A1000851A1000841A20008102BAFD1C7
S3150800A1F0102E1AD0082EABD84FF48B73F340D8071D
S3150800A200A6D512E006F1FF3CDCF1000343EB0C0394
S3150800A210002B9DD009E0731E012B8CBF0023012360
S3150800A220F6E7042E01D0012E92D100230398049359
S3150800A230036804A95B6A9847814648B14C46A5E776
S3150800A240082E85D86FF489733341DC07EDD57FE78F
S3150800A250049B1BBB002303980593036805A99B6B06
S3150800A260984781460028E9D1059B002B7FD1002419
S3150800A2708CE74FF0FF31C21C994274EB020243D3BC
S3150800A2809DF80620402A80D14FEA134C05F10C01AF
S3150800A29005F118048C4229D109F10109049B4B45A3
S3150800A2A07FF656AFCDE906AB03984946036806AA7A
S3150800A2B09B6A9847044600287FF468AFDDE90630B4
S3150800A2C06FF0010C5A1E40F1FF3194456FF01002F1
S3150800A2D08A41CED39DF80620402A7FF456AFD5E9A9
S3150800A2E00212904208BF8B42D6D1B3E751F8042F29
S3150800A2F0002ACFD0BCEB124FCCD198B20028C9D0D7
S3150800A30092B29042C6D8A5E713F5803F70F1FF32A6
S3150800A310FFF43BAF9DF80620802ADEE7002303986A
S3150800A320069303684946DB6B06AA98470446002845
S3150800A3307FF42CAF069BD90704D5D8F800200799D7
S3150800A340914212D19A0705D5BDF82010B8F8042015
S3150800A35091420AD15B078AD57868B8F80420036861
S3150800A36009999B689847002881D109F10109059B3D
S3150800A3704B45D3D8ECE600BFE01F0D080FB00E081A
S3150800A380B41F0D0834F4012038F40120D11F0D083C
S3150800A3900023F0B58BB0CDE90433054600688DF887
S3150800A3A00D308DF80E308DF80F3003680DF10D0164
S3150800A3B0DB6898470446002840F0C78028680DF1F6
S3150800A3C00E0103681B6998470446002840F0BD80C3
S3150800A3D028680DF10F0103685B6998470446002851
S3150800A3E040F0B380286804A903685B6A9847044666
S3150800A3F0002840F0AA80286805A903689B6B98473F
S3150800A4000446002840F0A1809DF80E30002B00F08D
S3150800A4109E809DF80D30402B07D0802B40F09E8003
S3150800A4209DF80F30102B00F09B802646049BB34204
S3150800A43007D800264B4F059BA3423AD801200BB0FC
S3150800A440F0BD28683146036806AA9B6A9847002823
S3150800A45079D19DF80D30402B16D1DDE906326FF023
S3150800A460010C591E42F1FF378C456FF01001B941B6
S3150800A47008D24FF0FF310332994270EB02020CD337
S3150800A4809BB253B10136D1E7802B06D1069B079ABA
S3150800A49013F5803F72F1FF32F1E7334B044600288B
S3150800A4A056D001210D20314A00948FF05BF9002027
S3150800A4B0C5E72868069603682146DB6B06AA98470F
S3150800A4C0002840D1069B03F0020103F00402DB07D3
S3150800A4D010D411B1F2B1264BE0E7002AFBD0099B54
S3150800A4E003EA070212F5003FF5D89BB2B3F5404FD1
S3150800A4F0F1D215E009B1002AEDD1079B13F5302FEB
S3150800A5004FEA134CE7D2BCF1000F0BD11B0410D550
S3150800A5106046E0E74FF6FF73BDF820209A42DAD08E
S3150800A520013488E740F2FE3C03F580639BB263453D
S3150800A530D1D829B14FF6FF73BDF820109942CAD079
S3150800A540002ACCD1ECE70B4BA8E70A4BA9E70A4B44
S3150800A55001210D20094A8FF005F9A8E7084BF7E70E
S3150800A560084BF5E70000FFFFF81F0D0850200D08FF
S3150800A57008200D08E71F0D083B200D0866200D086A
S3150800A58029200D0817200D082DE9F0430546006817
S3150800A59087B088461F468DF80F2020B90324204629
S3150800A5A007B0BDE8F083DFF86490AB68CDF8149087
S3150800A5B0EBB900262868394603680DF10F02DB6BF4
S3150800A5C09847044678B91EB133684B4508BF00263C
S3150800A5D002234146CDE9006328463B469DF80F20F5
S3150800A5E072F0C2FD002405A872F083FDD7E79DF836
S3150800A5F00F3039468DF81330036805AA5C6B0DF1E8
S3150800A6001303A0470028D4D105AED3E738F40120B8
S3150800A610034B1868034B002808BF1846704700BF4D
S3150800A620B42E0120B82E012010B5044602210D20B3
S3150800A630024A8FF097F8024B1C6010BD78200D086F
S3150800A640B42E012010B5094C094922460948B4F030
S3150800A65065F8224608490948B4F060F82246BDE87C
S3150800A660104007490748B4F059B800BFB0F30120B5
S3150800A670C1D00708B82E0120D3D0070838F4012026
S3150800A680D5D0070834F401200023F7B5CDE9003307
S3150800A6904AB96E4601AB15240E4A013C06D114236D
S3150800A6A0036003B0F0BD6B4601AEF4E71578002DE4
S3150800A6B0F5D055788D4206D107683568AF4207D080
S3150800A6C0019D01350195009D403201350095E4E76D
S3150800A6D01B68E5E7E039002007B5019021B10122A2
S3150800A6E0097801A8FFF7D0FF019813280AD8064B66
S3150800A6F0820103EB80109B5C002B08BF002003B08F
S3150800A7005DF804FB0020FAE7E03900200023152055
S3150800A71010B51360074B013801D1002010BD1C7815
S3150800A720002CFAD05C7840338C4202BF146801349E
S3150800A7301460F0E7E039002000231A4610B50648F1
S3150800A740B3F5A06F0A6001D1002010BD4033C45C88
S3150800A750002CF9D00132F3E7A03900200868114B24
S3150800A76070B598420E46154603D303F10C02904283
S3150800A77014D31B79A3B90B4C03689B68984701232C
S3150800A780002D3460237108BF00234FF00000637169
S3150800A79018BF2B78A06018BFA37170BD0446EBE7FD
S3150800A7A01920FAE7C82E012002210D20014A8EF051
S3150800A7B0D9BF00BFFC200D0838B502210D20074A75
S3150800A7C08EF0D0FF0024064D60194034B4F5A86F0A
S3150800A7D001D1002038BD72F06BFDF5E724210D0884
S3150800A7E0E039002038B50B4B0C46984202D30C339F
S3150800A7F0984201D3B4F0B9FD85680FCD0FC40FCDCB
S3150800A8000FC40FCD0FC495E80F0084E80F00002091
S3150800A81038BD00BF40F401202DE9F041144C1F4615
S3150800A8200E461523A046013B01D119201EE02178CA
S3150800A83071B14034F7E763783B70B6B1A4EB08040E
S3150800A840A41134602A4630463978FFF71DFF0CE01C
S3150800A85021461068FFF7C6FF054630B9002FEAD132
S3150800A8601EB1A4EB0804A41134602846BDE8F081A3
S3150800A870E0390020064B984203D303F10C029042BC
S3150800A88004D39B680248002B18BF0020704700BFFE
S3150800A89040F4012010B50868FFF7ECFF80B1826824
S3150800A8A0084B0AB19A4206D21B784BB9054A72F090
S3150800A8B046FD002010BD03F14004A242F4D2F6E79B
S3150800A8C01920F7E7A039002038B5114A83684BB933
S3150800A8D0104B83608468944201D0237833B9826030
S3150800A8E00A2038BD9342F5D24033F2E743791BB1CB
S3150800A8F0657883799D42E9D10868FFF7BBFF20B1E7
S3150800A900224672F01CFD0020EBE71920E9E700BF9C
S3150800A910E03E0020E0390020F0B50E4F8468064678
S3150800A920BC4205D307F140039C4201D20020F0BD8A
S3150800A9303B7863B9074D0FCC0FC50FCC0FC50FCCAD
S3150800A9400FC594E80F0085E80F00B760EEE71920F9
S3150800A950EDE700BFA03900202DE9F0410E4611466B
S3150800A9603046FFF7B9FE0446002842D0224FBB689E
S3150800A970984202D13846FFF7CFFFDFF88C8044456E
S3150800A98016D204F1400CC4450FD294F8403063B196
S3150800A99065460FCD0FC40FCD0FC40FCD0FC495E874
S3150800A9A00F0084E80F006446E9E7204672F080FC51
S3150800A9B0124CBB6804EB86169E4212D003D243455E
S3150800A9C001D2403BBB600E4A93689E4206D8434577
S3150800A9D004D2A3420CBF0023403B93600020BDE88D
S3150800A9E0F0817D68286803689B689847054B2B604B
S3150800A9F0E9E70A20F3E700BF40F40120E039002028
S3150800AA00C82E012038F40120E03E00208268054B5C
S3150800AA1000219A4203D340339A4238BF11708160AD
S3150800AA20704700BFA039002010B5094CD4E8AF3FE5
S3150800AA30DB070BD4204697F09EFD38B1054A064938
S3150800AA400648B3F06BFE204697F09AFD034810BD02
S3150800AA50C42E0120B0F3012087D307083CF4012057
S3150800AA6010B5084C084922460020B3F057FE0020CE
S3150800AA70064B074A18711A6006492246BDE8104077
S3150800AA80B3F04CBEB0F301208DD30708C82E0120C1
S3150800AA90A8210D0833D4070870B5104ED6E8AF4F75
S3150800AAA014F0010418D1304697F065FDA0B10C4D9D
S3150800AAB00C4A2B4607CA43F8044B83E807004FF6AF
S3150800AAC0FF722A824FF0FF321846C5E9052472F054
S3150800AAD005FE304697F054FD014870BDD42E01207E
S3150800AAE0D82E01203C220D0838B5054604300C4600
S3150800AAF072F0F4FD2A6813461BB9E26001202C6047
S3150800AB000DE09868A16888420ED1197909B12179B2
S3150800AB1031B923200121054A8EF024FE002038BDD4
S3150800AB20D888E1888842F4D0DB68E5E708220D0872
S3150800AB302DE9FF410A9F884616461D468EF035FECA
S3150800AB40044600283FD0D6E900010026231DD8F880
S3150800AB500020C4E90133C4E906011D4B26732360AE
S3150800AB602661226204F1280C95E80F008CE80F0094
S3150800AB702B7C04F1480084F838306B8A63876B694C
S3150800AB80E363D5E90623C4E91023124B04F15805FB
S3150800AB9019680B689B68984700220023C4E91423A8
S3150800ABA001AB97E8070083E80700012385E807005B
S3150800ABB0A4F87430084B84F8646084F8686084F8F4
S3150800ABC06C60A6672360204604B0BDE8F08100BF2C
S3150800ABD098220D0824F60120E0220D08094A08B536
S3150800ABE0026002690AB1B4F0C0FB074A011D02609F
S3150800ABF082688A42F7D141680029F4D04A604368DE
S3150800AC00136008BD98220D0850220D0810B5044699
S3150800AC10024B0360FFF7E2FF204610BDE0220D0855
S3150800AC20F7B50C46114B0546196868460B689B68CC
S3150800AC309847D4E91421009B20469F1A019B63EB91
S3150800AC40010673F02AF9038920469F4276F100032C
S3150800AC5009D273F022F90430036828462B600023D2
S3150800AC606B6003B0F0BD73F018F9F5E724F6012020
S3150800AC702DE9F04307460E46154698466FF001093A
S3150800AC806FF010048BB08AF018FD421E41F1FF33B5
S3150800AC90914574EB0303F6D300231836CDE9040176
S3150800ACA0029330462B46CDF8008004AA02A9FFF786
S3150800ACB03FFF044650BB4FF0FF324FF0FF33CDE95C
S3150800ACC0062306AB03900893304603AB1C4A08A933
S3150800ACD009938EF0D2FD039C2CB900233B703846AD
S3150800ACE00BB0BDE8F083236820461B6898472146C9
S3150800ACF030468EF0A0FD2B463046CDF8008004AADB
S3150800AD0002A9FFF715FF04460028E6D095E80F00CC
S3150800AD1004F1280686E80F002B7C204684F8383094
S3150800AD206B8A63876B69E363D5E90623C4E9102355
S3150800AD3001233B7023687C60DB689847CFE700BF38
S3150800AD4001DE0708084B10B5036018334360044654
S3150800AD50083073F016F9014620B9606900F5CF602E
S3150800AD608FF02EFB204610BD28230D08A0F1040005
S3150800AD70E8E700BF10B504460221074A0D208EF009
S3150800AD80F1FCFFF745FC04F1140172F0C8F92046FE
S3150800AD90BDE8104082F060BF4C230D0800B5084B93
S3150800ADA089B00493042305930023039204490422DB
S3150800ADB0009303A882F00AFF09B05DF804FB00BF00
S3150800ADC03C240D0838B50C46054602210D20084AD4
S3150800ADD08EF0C8FC2146284682F050FF044628B962
S3150800ADE0FFF716FC05F1140172F08BF9204638BD01
S3150800ADF06B230D0800B50D4B8DB0CDE90631ADF8C6
S3150800AE00202000231F22CDE90923012391F83C20A5
S3150800AE108DF82C308DF82D200093024606AB08A934
S3150800AE2002A80CF0FFF80DB05DF804FB30240D08FD
S3150800AE302DE9F04F14460027B9B006461D4603977C
S3150800AE40FFF7E6FB2269042A08D8042A10D8DFE8A7
S3150800AE5012F013000F00F800210128014FF6FC73C9
S3150800AE609A4200F023814FF6FD739A4200F0208142
S3150800AE7040F28652326064E0904B05A90493904BE9
S3150800AE8016A8059373F0CFF90123284685F84430B0
S3150800AE9072F0A6FE044600284BD10BA80A958DF041
S3150800AEA00BF9884873F09BF9074648B1864FB7F8FF
S3150800AEB0643907F50B6703F00503052B18BF002750
S3150800AEC000220523DFF80482CDE908234046CDE9B0
S3150800AED0068773F084F910B906A873F090F94FF055
S3150800AEE09009089C052C0AD1284672F0BEFE00245B
S3150800AEF04FF6FF7385F84C40A5F84A3019E009FB70
S3150800AF00048494F881A047B1384673F068F920B1F3
S3150800AF1097F88130534508BF3C4694F88140FFF7BF
S3150800AF2077FB00688DF8084088B9284672F09DFEC0
S3150800AF30032405A872F0DDF8049803689B6898470F
S3150800AF40346000233046337139B0BDE8F08F0368AA
S3150800AF5002AA1B6C04A998470446CCB158E0169B74
S3150800AF608DF80840186802A903681B6998479DF878
S3150800AF700830002B63D00A9B93F84530B3B9DDF847
S3150800AF8028A00BA950469AF808B072F095FEE0B9C9
S3150800AF90049805A90368DB68984704460028DED0AC
S3150800AFA00A2835D106A873F02AF99AE7169B8DF870
S3150800AFB00840186802A903681B6998470A9A9DF809
S3150800AFC00830127A9A42E3D1D9E79AF84630DAF885
S3150800AFD000107BB1096C4FF480720023CDF800B0E5
S3150800AFE016A883F053F9044601460BAA504672F098
S3150800AFF07CFEB2E7DAF840300AF1280202A872F0BD
S3150800B000A9FD044640B1214650460BAA72F06DFED2
S3150800B010284672F02AFE8CE7DAF800300222196C0C
S3150800B02016A80023CDF800B083F030F904460028AE
S3150800B030E9D1DAF8001002A872F0C4FDD3E771244A
S3150800B040E6E70068002836D003689B6903A9984795
S3150800B050024600287FF40EAF0123296885F844309C
S3150800B06005F128022B6C16A8039C72F073FD0346A3
S3150800B07070B92A68106CCDE90043022200238DF0CE
S3150800B080ADF9034620B9296816A872F09BFD034658
S3150800B090336056E7006800283FF4ECAE0368DB69C6
S3150800B0A0D4E703A9006873F094F8D1E70397D3E7C8
S3150800B0B002230393D0E70322DCE600BF34F4012021
S3150800B0C038F4012010A0002060970020409D002041
S3150800B0D02DE9F041D0F80C80B2B00546DDE93876A6
S3150800B0E00C46B8F1000F29D041B34022002168462A
S3150800B0F0B4F072FA2378012E8DF83C3002D18DF81F
S3150800B100146001E0022EFAD06378402B19D1D4E9F5
S3150800B1100223CDE9002301238DF80830002F3FD004
S3150800B120394610A873F07FF810A882F0C7FF0346C7
S3150800B13080B101210D201C4A8EF014FB32B0BDE807
S3150800B140F081202B01BFA368ADF8103001238DF8DC
S3150800B1501230E3E7BDF8443012AAADF8183007AB51
S3150800B16007CA83E807000AAB15AA07CA83E80700D7
S3150800B1709DF860308DF834301BB19DF861308DF83C
S3150800B18035309DF8623000228DF8363001238DF86F
S3150800B1903830EB68DB6869461868FFF72BFECDE7A1
S3150800B1A03A46D8F80C30F6E78E230D082DE9F84311
S3150800B1B091F8387004460E464FF000080FB191F822
S3150800B1C03980002504F1080948468CF0B8FA31465A
S3150800B1D0484625608CF0C8FA84F840700FB184F8A8
S3150800B1E04180074BA4F85050A36484F8905084F823
S3150800B1F0D05084F8D85084F8DA502046BDE8F88351
S3150800B20038F401202DE9F04190F93430064601332F
S3150800B210A6B003D1002026B0BDE8F0810368002B54
S3150800B220F8D100F1080840468CF02DFE074630603C
S3150800B2300028EFD1204C0146942201A80094B4F0CE
S3150800B240CBF9B06C04AD03689B6898470FCDB4641E
S3150800B25006F15804A6F850700FC40FCD0FC40FCDD1
S3150800B2600FC495E80F0014AD84E80F000FCD06F162
S3150800B27098040FC40FCD0FC40FCD0FC495E80F0067
S3150800B28084E80F00684686F8D87086F8DA7071F098
S3150800B29030FF414606F1480082F006FF306000287C
S3150800B2A0B8D196F840302BB1B06C96F841100368C7
S3150800B2B0DB6998470120AEE738F40120F0B5CFB036
S3150800B2C007460E460D7AFFF7A3F9006838B10368FA
S3150800B2D029465B6A03AA984718B104461EE003206C
S3150800B2E0FBE7FFF795F904A9006872F072FF0446B8
S3150800B2F0A0B9BB7B012B00F2838006A88CF01FFA4D
S3150800B3002246214606A88CF05DFA304606A98DF835
S3150800B310504072F09DFF074618B1044620464FB0CC
S3150800B320F0BD9DF94430013321D1059006A916A830
S3150800B330FFF73CFF16A8FFF765FF28BB169C28A851
S3150800B340212C2BD171F0D5FE06A916A8FFF72EFFE2
S3150800B35006F1080416A8FFF755FF20BB169C212CFA
S3150800B3604CD0002C4AD028A871F0C3FED6E705A910
S3150800B37006A88CF0F0FD0028AFD1DDE904329A4228
S3150800B380D4D940F28954C9E728A8FFF701F800285C
S3150800B390D0D128A871F0ADFE2F24BFE771F0A9FE21
S3150800B3A0002CBBD1D0E7039BBB420BD9FFF730F982
S3150800B3B028AB00932A463B46214671F035FF58B123
S3150800B3C00446D0E7FFF724F928AB00932A46002362
S3150800B3D0214671F0E0FEF2E70137BBE7013B039334
S3150800B3E0FFF716F92A463146039BFFF7CDF80028E2
S3150800B3F0E6D1039BBB42F1D80024B4E70836F8E748
S3150800B400042B2FD1039B049A01339342B9D8164BC8
S3150800B410ADF86000169301233371337A8DF8A000D6
S3150800B4208DF8E0008DF8E8008DF8EA0016AFB3B1A4
S3150800B4303846316882F038FE044670B9169816F810
S3150800B440081F0368DB699847FFF7E2F823462A4690
S3150800B4503146009771F09FFE0446384684E740F26D
S3150800B4607E54FAE76C2459E738F40120F0B51769D9
S3150800B4700E460446194685B0BFB902F10800FFF723
S3150800B4801DFF2F28034613D0D82811D00B2819D012
S3150800B49000228DF80C20039A2046009231463A463F
S3150800B4A082F011FC204605B0F0BD4FF4B163EFE71A
S3150800B4B0872501210D20044A00958EF053F945F49D
S3150800B4C0A063E5E78925F4E7B5230D08034B53F890
S3150800B4D01C09002818BF1846704700BF102F012006
S3150800B4E008B50C4802680AB1B3F03FFF1F21A0F166
S3150800B4F01C0340E905120849C3E9073240F81C1C39
