S02B00002F686F6D652F686164796C69752F53696D706C696369747953747564696F2F76365F776F726B73702F
S31508006000081200208D7603086D620A08FD890008CB
S31508006010B5B80B08258A0008398A00084D8A000891
S315080060206D620A086D620A086D620A085D440D0809
S31508006030618A000818B20E0801440D0821820D086D
S31508006040057303086D620A086D620A086D620A081C
S315080060506D620A086D620A086D620A086D620A08AE
S315080060606D620A086D620A086D620A08158E0008D4
S315080060706D620A086D620A086D620A086D620A088E
S315080060806D620A086D620A086D620A086D620A087E
S315080060906D620A08895105086D620A086D620A0868
S315080060A06D620A08054A0508E54905086D620A0889
S315080060B06D620A0821F00708F5F807085B3A0D082B
S315080060C0573A0D0869F00708713A0D085F3A0D0846
S315080060D0C5F80708633A0D0835F907089DF9070852
S315080060E06D620A086D620A08618B00086D620A080B
S315080060F03BAD0B086D620A086D620A086D620A08F4
S315080061006D620A086D620A086D620A086D620A08FD
S315080061106D620A086D620A086D620A086D620A08ED
S315080061206D620A086D620A086D620A086D620A08DD
S315080061306D620A086D620A086D620A086D620A08CD
S315080061406D620A08F13006086D620A08FB910D08AF
S3150800615051DA07086D620A083B3A0D08413A0D08FC
S315080061606D620A086D620A086D620A086D620A089D
S31508006180F0B5114A114C124E00F00105E3695F079C
S3150800619013D40DB9334213D103EA00078F4207D14E
S315080061A00B4A1A40002A0CBF00206FF00100F0BD10
S315080061B0013AEBD16FF00200F9E74FF0FF30F6E74E
S315080061C06FF00100F3E700BF8096980000000350C7
S315080061D00200010070B50B4BD96911F480310DD15D
S315080061E001244FF48072084E084DF46020462C6452
S315080061F01A61FFF7C5FF3464EC6070BD6FF00100EB
S31508006200FBE700BF000003500010035000200350B6
S315080062104FF4803238B50E4B0E4C9A66E56941F656
S31508006220713315400122E3630B4B0021DA60022328
S31508006230606121202361FFF7A3FF10B92120FFF732
S315080062409FFF0122054BDA600DB10023E36338BDD9
S315080062500090005000000350001003500020035027
S3150800626070B5134C6061E3695B071ED40E4656F899
S31508006270043B8D18A361AE420BD1042300212120D3
S315080062802361FFF77DFF58B9BDE870402120FFF76D
S3150800629077BF08210846FFF773FF10B1042323616F
S315080062A070BD56F8043BA361E5E74FF0FF30F7E70A
S315080062B0000003502DE9F84315464FF48032184B79
S315080062C089469A6603F51C33DF690646174041F688
S315080062D07132DA63012203F58053DFF84C80DA6005
S315080062E055B9284601220F4BDA601FB10022A3F5E3
S315080062F00053DA63BDE8F88306F5005404EA080497
S31508006300A41BAC4228BF2C46494622463046FFF716
S31508006310A7FF0028E6D12644A1442D1BE0E700BFCD
S31508006320009000500020035000E0FFFF000000002E
S31508006330000000000000000000000000000000004F
S315080063402DE9F04F2DED028B1D4613690646052BE8
S31508006350D5B00BD8013B01220024042B23D8DFE853
S3150800636013F04100290130013F0152014FF6FC723A
S31508006370934212D04FF6FD7293424FF0010340F05C
S31508006380448102200021CDE93E0185F844302846A3
S315080063903EA97DF003F8306086E000230022CDE9AF
S315080063A03E230123F1E7CB69284685F844202C9340
S315080063B07CF08EFA0028EED13FA83E9596F08DFB2C
S315080063C03EA92CA881F01CFC044628467CF0C5FA98
S315080063D02046002CDFD14FF6FF7385F84C40A5F810
S315080063E04A30D8E7D1F81C80284685F844207CF046
S315080063F06FFA0446002856D113A8129596F06DFB3D
S3150800640041460AA87FF06FFD0523224641460093C0
S315080064100EA881F05AFB27469FED7F8BDFF800A276
S315080064200EA90AA881F068FB044648B928467CF0FC
S3150800643094FA4FF6FF7385F84C40A5F84A3032E0D7
S315080064400AA87FF020FD8DED228B8DED248B90F828
S315080064508190CDE92677CDE91E77ADF880708DF865
S31508006460A0708DF8AC90D0E90023CDE92423B0F8CC
S31508006470823000F16004ADF88030D0E90223202193
S315080064802046CDE92223C0F002FF4946CDE9264041
S315080064902CAA4046CDF8B0A08FF0C2FE044658B1EB
S315080064A028467CF05AFA346000233371304655B0DA
S315080064B0BDEC028BBDE8F08F2DAB1E9341230DF189
S315080064C0080B1F933EABCBF8003055235A46494676
S315080064D04046CBF8043090F032F804460028DFD165
S315080064E0DBF80430B3B19BE8030001238DF81030C4
S315080064F005AB83E8030004A907A881F074FB9DF89F
S315080065001C308DF8A0302BB129AB08AA92E80300FD
S3150800651083E803009DF8AC30002B49D0DDF848909D
S3150800652099F8452099F808B00AB19B451AD148460A
S3150800653013A97CF039FAA8B199F84630D9F80010B1
S31508006540A3B1096C4FF480720023CDF800B01EA8E1
S31508006550BFF03FFA0446014613AA48467CF03DFAC6
S31508006560002C9DD10AA881F09CFA59E7D9F8403049
S3150800657009F1280207A87CF065F9044628B12146E6
S31508006580484613AA7CF029FA8AE7D9F8003002228D
S31508006590196C1EA80023CDF800B0BFF01AFA0446FD
S315080065A00028ECD1D9F8001007A87CF083F9D1E7C8
S315080065B0712475E70520002185F84420CDE93E01C0
S315080065C0E5E6CB6993F88233CDE93E3401232846C4
S315080065D085F844303EA97CF0E1FE3471306065E709
S315080065E0CB69284685F844202C937CF071F900285D
S315080065F07FF4D1AE3FA83E9596F06FFA3EA92CA837
S3150800660081F002FCE0E62B7ADEE78622C0E9002369
S315080066104CE700BFAFF30080000000000000000058
S31508006620F0730E08000000002DE9F04F2DED028BE7
S31508006630083085B00E469146DDF8508097F0C6FDC5
S315080066400446002800F0A3806F4600259FED548B72
S315080066504FF0010B41F2A45A10AB0FCB87E80F009D
S31508006660514BC4E902552360C4E90455C4E90655EB
S315080066702C3363604D4B04F1500C0FCB84ED108B1B
S31508006680C4E90E5584F8205084F8305084F84850F0
S315080066908CE80F00464B84F860B0A4F862A06566E3
S315080066A0236704F18403C4E92133424B1022C4F85A
S315080066B09830294684ED1A8BC4E91D55C4E9275537
S315080066C084F87C50C4F88C50C4F8A45004F1A8008F
S315080066D0C0F0E8FE84ED308B84F8B8B0A4F8BAA010
S315080066E0C4F8BC5004F1C80098F0D8FB4AF6C87341
S315080066F0C82284ED388B84ED3A8BC4E93C2304F533
S315080067008673C4E94055C4E94333A4F8D45084F8E1
S31508006710D650A4F8D85084F80851C4F814513368F0
S31508006720A3607368E360B3682361F36863613369E0
S31508006730A3617369E361337E84F8203033B104F1D1
S31508006740240306F11C0207CA83E8070096F82830D6
S3150800675084F830300BB1F36A636330467CF089FA0B
S31508006760A8B9B9F1000F12D0B8F1000F0FD003CFB6
S315080067703B78C4F8389084F84830012384F800310F
S31508006780231D20646164C4F89080C4F8A4302046B0
S3150800679005B0BDEC028BBDE8F08F00BFAFF30080FB
S315080067A0000000000000000000F00D08AC4A0120BF
S315080067B01CA70E08F0EF0D082DE9F04F2DED028B02
S315080067C000240025CBB09946CDE92E450023CDE916
S315080067D03045CDE934454FF6FF74DFF898A20646F2
S315080067E088461746CDE90C338DF8C8303393CDF873
S315080067F0D8A04894A2B3054600F53474A54206D13C
S315080068000B2420464BB0BDEC028BBDE8F08F284622
S315080068107CF05DFB08B19035F0E79FED8F8BBDF8F6
S315080068205C318DF8C880ADF820318D4B4FF4C871B6
S315080068300E93002309A8CDE909330F93CDF870A06C
S315080068400B9381F0C6F9099C14BB0B240BA87CF0AA
S31508006850E4F80AA87CF0E1F809A87CF0DEF8D0E7AD
S315080068608FF06EFC044608B9AC24CAE706F5347501
S3150800687028467AF070FEB4F882308DF8C880ADF8F4
S31508006880203121460CA894ED028B8FF0C6FBCCE78D
S315080068904FF4C8710AA881F09CF9DDF828A0BAF16E
S315080068A0000FD2D04FF4C8710BA881F092F90B9A59
S315080068B0002ACAD04FF4C8734146CDE91332304690
S315080068C010AA1094CDE9113A15938FF099FC044655
S315080068D00028BBD14146304612AA8FF073FC044605
S315080068E00028B3D14146304614AA8FF048FC044626
S315080068F00028ABD110A916A881F061F912A918A829
S3150800690081F05DF914A91AA881F059F936AB0793F5
S3150800691030AB05930DF1B80A34ABCDE903A30DF1FD
S31508006920700B0EAB8DED008BCDF818B002931AAA3A
S3150800693018A916A81BF09AFC0446002886D10BA8AD
S315080069407CF06BF80AA87CF068F809A87CF065F872
S31508006950B9F1000F13D1D6F8640300285ED0036896
S315080069609B6898470346D6F86403002B4ED0036805
S315080069705A4641465B699847044688B141E7D9F8C3
S31508006980003048465B69984759468FF006FF08B9B4
S31508006990C52436E79DF85831CDF8CC908DF82231CC
S315080069A09DF860315146B3FA83F328465B098DF8A2
S315080069B023318FF099FE044600287FF422AF28463B
S315080069C00CA98FF06FFB06F55D7495F881303FB31F
S315080069D002211120234A97F0D6FBD5E900122B692C
S315080069E0CDE9012100936B69022111201E4A97F017
S315080069F0CAFB20460F991DF051FB034630BB96F89B
S31508006A008233013386F882330024FAE60368414666
S31508006A10DB6898470028C3D11024F2E60324F0E681
S31508006A20D5E900121120CDE9002102210F4A97F07D
S31508006A30AAFB20460F991DF031FB03460028E3D038
S31508006A40012111200A4A97F09EFBDDE7012111205A
S31508006A50074A97F098FBD2E7000000000000000004
S31508006A60E0330E08A3320E08C3320E0806330E08AA
S31508006A703B330E08F0730E082DE9F0478AB00DF186
S31508006A800D0301931523064600934FF480720023E5
S31508006A9008460C4696F051FAE8B996F8963001225F
S31508006AA000932046002396F0CFF9A0B996F89730C0
S31508006AB0022200932046002396F0C6F958B90DF134
S31508006AC00E0301931623032200932046002396F013
S31508006AD034FA054610B10AB0BDE8F0874FF0100940
S31508006AE006F1C8070DF11808102200214046C0F02B
S31508006AF0D9FC0DF10F03019315234FF4807200930F
S31508006B002046002396F019FA0028E4D196F8972033
S31508006B10EBB29A4251D917ED0C7BC44637F828AC2C
S31508006B20A7F12603A7F1160E6246186859680833B6
S31508006B3003C273459446F7D18DED007B04220023EA
S31508006B40204696F05CF90028C5D105220023204688
S31508006B50CDF800A096F078F90028BCD14046494601
S31508006B6006228DE8030000232046CDE9048996F025
S31508006B70B7FA0028AFD120469DF90F1096F012FA01
S31508006B80013530370028A6D1032DADD120469DF911
S31508006B900E1096F007FA00289DD1B6F88E30072217
S31508006BA000932046002396F04FF9002893D12046FB
S31508006BB09DF90D1096F0F6F98DE782469FED027B5A
S31508006BC0BAE700BFAFF30080000000000000000035
S31508006BD0A0F1840050E700BF054B18680368D9691F
S31508006BE001A3D3E90023084700E0373B015D030012
S31508006BF0840702200000000037B59FF025FF0446F1
S31508006C0000286ED13A4B1A889B78ADF804208DF887
S31508006C10063031F0D3FB32F0E7F832F045F8054696
S31508006C20344B036032F0D0FA284632F0D9F900B96D
S31508006C30FEE72DA3D3E900234FF0FF314FF0FF30D5
S31508006C4031F0C4FB32F034F8214632F08DF89FF06B
S31508006C50FEFE01A832F086F9044600B1FEE7264B8F
S31508006C60264A98801860264B98801A60254B264A33
S31508006C7098621A60254A98806FF06300DA6033F0EC
S31508006C8015FA0B2032F062F832F0C0F832F006F846
S31508006C9000B9FEE753F004FF2046A0F09CF808214F
S31508006CA00846A0F09FF800B1FEE7A0F092F831F090
S31508006CB04BFF9FF0DDFF10211548B4F06CFE00B9BC
S31508006CC0FEE714491248B4F078FE00B9FEE7102131
S31508006CD08C20114A53F01EFB00B1FEE70F48A1F0C5
S31508006CE0A2FB03B030BD00BF0AE020FFE2030000AC
S31508006CF051BF0E08096C0A0868ED00209EFA0120AB
S31508006D0038ED002008ED00201EFA0120F8EC0020DE
S31508006D10D48F01204D8E0D08C48F012086BE0E0823
S31508006D202DE9F04389B09FF080FE00B9FEE75C4D7F
S31508006D302B6803B9FEE701229B8811460DF10B006B
S31508006D408DF80B3032F0C4F89DF80B102B68023919
S31508006D500022186889B232F0BBF80023059307931E
S31508006D60504B05AE06932B6893F82C208DF814200B
S31508006D701B681C7814F0200414D0A0F02EF8002804
S31508006D805CD0A0F02AF85FF03BFB0B46024640A118
S31508006D90D1E900015FF0D8FC5FF046FE079B184476
S31508006DA00124079032F0D8F89DF80B30002848D017
S31508006DB0981DC0005FF034FB37A3D3E900235FF0CA
S31508006DC099FB8946804632F0C7F85FF019FB0B46F7
S31508006DD00246494640465FF0B7FC5FF025FE079B32
S31508006DE0184407909FF028FE38B132F01BF80020AF
S31508006DF09FF01EFE00209FF022FE29684B6963BBA8
S31508006E009FF036FE10B3079B274F03F5FA730793D7
S31508006E102B681B7EBB7031F0FFFFF870286833467D
S31508006E203A462146807932F035F858B34FF4805106
S31508006E300020D2F030F8A0F0FAF823E00798C03026
S31508006E40AEE70798063300EB4310CAE72B683246CD
S31508006E502146987932F014F8E7E700229620049242
S31508006E600A691A44114BA2F59B7298800392887995
S31508006E7003AA2146009632F01BF80028D6D1012035
S31508006E809FF001FE09B0BDE8F08300BFAFF30080B4
S31508006E900000000060E366410000000080842E4187
S31508006EA0C08F012020A10700280802201C08022004
S31508006EB02DE9F3411E461C4B044683424FF000035E
S31508006EC08B4115460AD216A3D3E900235FF01CFEB0
S31508006ED01649144602462846A3F0FDFE144B4EF604
S31508006EE06021B4FBF3F203FB1244B4FBF1F34FF455
S31508006EF07A7801FB1344B4FBF8F728460D49009746
S31508006F00A3F0E9FE46B1284608FB17420A4902B033
S31508006F10BDE8F041A3F0DFBE02B0BDE8F08100BFD6
S31508006F20005C260500000000FF5B2605DCEF0E0866
S31508006F3080EE3600BE370E08E2EF0E080348044B13
S31508006F40834202D0034B03B11847704780120220D0
S31508006F508012022000000000064B0749C91A891052
S31508006F6048BF0131491003D0044B0BB101481847FB
S31508006F70704700BF80120220801202200000000025
S31508006F8010B5064C237843B9FFF7D8FF044B13B165
S31508006F900448AFF300800123237010BD94BD01207F
S31508006FA000000000E07D0F0808B5054B1BB1054938
S31508006FB00548AFF30080BDE80840FFF7CDBF00BF26
S31508006FC00000000030310120E07D0F08A3F5803A6B
S31508006FD0704700BF174B002B08BF134B9D46FFF7A2
S31508006FE0F5FF00218B460F461348144A121AC0F0C3
S31508006FF059FA0E4B002B00D098470D4B002B00D0AA
S3150800700098470020002104000D000D48002802D0F2
S315080070100C48C0F0E3F960F085F820002900B4F0C8
S3150800702067FC01F0A7FD00BF000008000000000093
S3150800703000000000081200200812002000030220A9
S31508007040DD730C080000000008B5154B4FF4E47218
S3150800705000211846C0F026FA092203460261426159
S315080070601048114A98614FF48061DA61002219626A
S315080070709A625A62DA62C3F8F0000C48C3F8F40060
S31508007080C3F8F8100A49C3F80021C3F8FC20C3F86E
S31508007090042111F8010D98540132102AF9D108BDBE
S315080070A04831012088950D0895C1012095BD01201C
S315080070B0A1950D082DE9F84FDFF88880824698F8E3
S315080070C000308946532B164601D0FFF7BDFF182717
S315080070D007FB0A87D7F80051D7F8FCB05D452FD9CA
S315080070E0D7F8F840D7F8F410641BB44228BF3446E2
S315080070F0484629442246C0F091F8D7F8F830254486
S31508007100AB4208BF0025A144361BABEB050B5E4519
S3150800711028BF5E465EB1182303FB0A83D3F8F41032
S31508007120324629444846C0F079F83444354424B1F7
S31508007130182303FB0A88C8F800512046BDE8F88FD3
S315080071400024E2E748310120F8B5182700FB077547
S31508007150124B0E461D4407FB0033DB6A1446012B0F
S315080071600AD0022B14D023B9284679F06DFE844242
S3150800717008D900242046F8BD284679F065FE8442E1
S3150800718028BF044622463146284679F066FEF1E7CE
S315080071902846BDE8F84079F07BBE00BF483101209B
S315080071A0F8B50B4B04461B780D46532B164601D0F3
S315080071B0FFF74AFFEFF311874FF0200181F311889B
S315080071C0324629462046FFF7BFFF87F31188F8BDE8
S315080071D0483101202DE9F041164C1E462378054614
S315080071E0532B8846174601D0FFF72EFF082D1DD8CA
S315080071F0EFF3118C4FF0200181F3118865B1182047
S3150800720005FB000344F80380E2180023576000FBDF
S315080072100542166293625362182303FB0544069BD4
S31508007220E3628CF311880020BDE8F0814FF0FF304F
S31508007230FAE700BF483101202DE9F843174E1F46EB
S3150800724033780546532B8946904601D0FFF7FCFE56
S31508007250082D1FD8EFF311824FF0200181F3118812
S315080072606DB11824002304FB0564C4F8F090C4F833
S31508007270F480C4F8F870C4F80031C4F8FC30182358
S3150800728003FB0566089BC6F8043182F311880020C3
S31508007290BDE8F8834FF0FF30FAE700BF4831012018
S315080072A0024B1B780BB100230373704796C5012068
S315080072B002211D20014A96F066BF00BFA2950D085F
S315080072C002211D20014A96F05EBF00BFB2950D0847
S315080072D002211D20014A96F056BF00BFC1950D0830
S315080072E070B5037C0446FE2B22D0FF2B30D00B2B27
S315080072F037D80B2B35D8DFE803F0061206343434BA
S3150800730034343434341297F00EFE036841F288316F
S315080073105D692346164AAC46BDE87040604797F05B
S3150800732002FE036842F210715D69114A2346F2E7CC
S3150800733097F0F9FD036822465B6A0D49984797F06E
S31508007340F2FD03684FF47A715D69094A2346E2E75C
S3150800735097F0E9FD03682246BDE870405B6A044978
S3150800736018470221BDE870401D20024A96F00BBF5F
S31508007370D1720008DB950D0848F2040210B503889F
S3150800738093420DD006D803F5FF437F339BB2012BFA
S315080073900AD910BD48F212029342FAD10F4A0CE0FC
S315080073A0027A0F4B1A70F4E790F90830012B03D0D4
S315080073B090F90930012BECD10A4A0221212096F0D6
S315080073C0E2FE97F0B0FD036840F6B8315C69064AFC
S315080073D0A446BDE810400023604700BF18960D0874
S315080073E096C50120F0950D081F0F080808B599F0F5
S315080073F0BBF923F0DDF823F00DF9094826F0B2FAB7
S3150800740000224FF4617107488BF060FD30B1BDE88A
S31508007410084001212120044A96F0B5BE08BD00BFE8
S3150800742080B00020A8A3002054960D0810B50022AD
S315080074300C461348134999F03FFA18210A20124AB4
S31508007440D1F07EFA114B186040B921200121104A6B
S3150800745096F099FE40F2017079F0FEFE20460D4A3C
S315080074600A49D0F02EFF40B9212001210A4A96F098
S315080074708AFE40F2027079F0EFFE002010BD00BFD0
S31508007480B0BF002079730008D4980D083C34012059
S3150800749082960D08B0980D08A5960D0810B5054BEF
S315080074A0054C1870204698F032FF2046BDE810407B
S315080074B098F085BF96C5012080B0002008B50C4815
S315080074C099F039FA58B10B4898F021FF094898F015
S315080074D076FF094824F058FF054899F035FA074B16
S315080074E0186818B1BDE8084000F0C2B908BD00BF69
S315080074F0B0BF002080B0002028550120203301208D
S31508007500014608B54FF47A7200238002890D5FF0B0
S31508007510FBFA094B01461868D1F058F850B12120FA
S315080075200121064A96F02FFEBDE8084040F2057094
S3150800753079F092BE08BD00BF44340120BF960D08FD
S3150800754008B5074A40F6B8330221212096F01BFEFB
S3150800755040F6B830FFF7D4FF0122024B1A7008BD77
S31508007560D8960D0895C5012008B5094B0A21186853
S31508007570D1F02CF850B121200121064A96F003FEDD
S31508007580BDE8084040F2057079F066BE08BD00BF48
S315080075904034012017970D0810B5044686B00948EF
S315080075A096F014FE60B10023CDE903330293064B2F
S315080075B0214601930223054A0093054B06F0ECFC8D
S315080075C006B010BD24330120E1720008B17200082C
S315080075D0C172000808B5094B0146186858B100235E
S315080075E01822D1F0EDF940B1054A0121BDE808405D
S315080075F0212096F0C8BD034AF7E708BD3C340120B0
S315080076002F970D085C970D087FB50223ADF800305B
S31508007610044B019068460293FFF7DCFF07B05DF85C
S3150800762004FB00BF557600088B68084603B1184767
S3150800763002212120014A96F0A6BD00BF7D970D08BC
S3150800764000220249024827F01DBA00BF2178000827
S31508007650B0BF00200388022B06D1044B1B780BB958
S31508007660FFF76EBFFFF7ECBF704700BF95C5012057
S3150800767000220249024827F005BA00BFED73000848
S31508007680B0BF002010B5A4B003AB0193812301ACB1
S31508007690029360F0C3FE214661F0CCFB28B994E85A
S315080076A003002CF0DFFF24B010BD01212120024A7F
S315080076B096F069FDF7E700BFAD970D08002302466F
S315080076C0194610B504462048CCF008FD1F4B186033
S315080076D040B9212001211E4A96F055FD40F204705A
S315080076E079F0BAFD0023224601211A48CCF0F6FCAF
S315080076F0194B186040B921200121184A96F043FD1C
S3150800770040F2047079F0A8FD02212120144B154A95
S3150800771096F039FD0221144A0123212096F033FD03
S3150800772027F096FD0368DB6F98470120FFF7AAFF4D
S3150800773001F092F80D4898F034FE0D4B0D4918707B
S315080077400D488EF09EFD10BD0976000844340120D0
S31508007750C5970D085B0F080840340120DF970D0810
S315080077609A000E08F9970D081D980D0880B000209C
S3150800777096C5012014330120409D002038B50546E2
S31508007780FFF79CFF044638B10C4826F019FE204640
S3150800779079F062FD204638BD2B6828469B689847D5
S315080077A0044608B10648F0E7064B1A6852F8580C22
S315080077B01A581844926B9047ECE700BF3A980D08A0
S315080077C04C980D0880550120482337B50E4A0F4CB2
S315080077D0A2F118050093111D0123284696F0E0FC36
S315080077E0224628460A49BEF0FFFE002322460948DB
S315080077F00949C0E90233094B03603033436003B0DB
S31508007800BDE83040BEF0F0BE3C3301201005022032
S31508007810370F080810330120190F080868980D0853
S3150800782010B50121094826F019FF20B160F0F6FDD0
S315080078300121BFF078FF064827F07CF827F008FDFD
S31508007840BDE8104003689B6F184700BF80550120AC
S31508007850B0BF002010B504460178044826F036FF6C
S31508007860A37883F00103A37010BD00BF80550120E3
S3150800787073B503690446E3B14369D3B10E4B684651
S3150800788019680B681B699847D4E90423DDE9006584
S31508007890A178002918BF1346D4E902125B1842F1F1
S315080078A00002B342AA4104D22046FFF7D3FFC4E937
S315080078B0026502B070BD00BF8407022038B50023F8
S315080078C00022C0E90433002304460D46C0E902231A
S315080078D00278024826F0E8FEA57038BD80550120DA
S315080078E0014898F05FBE00BF80B00020014898F0BC
S315080078F05BBE00BF80B00020044A08B583680260FA
S31508007900243242600BB1BFF096FC08BD209A0D08E0
S31508007910A0F10400F0E700BF10B50446054B03606C
S315080079204433436013F0F4FD2046FFF7E5FF204695
S3150800793010BD00BF48F80D08A0F10400ECE700BF31
S3150800794038B5124B044603F13802C26003F14C0203
S31508007950026103F160024261426803607433836125
S315080079603AB183682BB1536042681A600023C0E9B4
S31508007970013304F14405284684F022F8284679F0B4
S3150800798010FB201D79F00DFB204638BD28BB0D08DD
S31508007990A0F11400D4E7A0F11000D1E7A0F10C0083
S315080079A0CEE7A0F11800CBE71F2008B502210C4A44
S315080079B096F0E9FB0B4825F0CFFF78B90121094875
S315080079C025F026FC50B908487FF022F81F2002212E
S315080079D0064A96F0D8FB034898F0E2FD08BD00BFBA
S315080079E0EC980D0880B00020581500200A990D085B
S315080079F0F8B51E4C002526461D4F1E481E4B3A4616
S31508007A001E49C0E901550360C560057445610583D3
S31508007A10BEF0EAFD1A4B294646F8D83B32462346BD
S31508007A2004F1080007F04AFD04F12003C4E93435DF
S31508007A30144B3A46C4F8D830134B2046C4E93836B6
S31508007A4004F1F403C4E93B3541F20A430F4984F8CB
S31508007A50E85084F8F451A4F8DC30BEF0C5FD3A4687
S31508007A60BDE8F8400A490B48BEF0BEBD58150020CF
S31508007A701005022054340120D8760E0889C8020859
S31508007A80F0B90D08BC620E08A0620E08F90F0808C6
S31508007A909F0F0808640502207FB5044602211F20AF
S31508007AA0854A96F070FB234602211F20834A96F0EA
S31508007AB06AFB834D02211F207F4A96F064FB022150
S31508007AC01F20804A96F05FFB2B784BB9284627F093
S31508007AD087F800280CBF012300232B7040F0E580AF
S31508007AE02146794824F04AFC60F098FC0446BFF029
S31508007AF002FE002840F0D980201D21F003FE04F183
S31508007B00080021F08DFD2046BFF00AFE6F4A704B33
S31508007B100221002818BF13461F206E4A96F033FB31
S31508007B20FFF742FF002840F0C0806B4B039001939B
S31508007B306A4B6B48029398F0E8FB6A4C039001ABDA
S31508007B406948236326F0F8FD002840F0AE806748B0
S31508007B5098F0ECFE664DD5E8AF3FDA070BD4284619
S31508007B609FF02DFA38B1634A63496448BEF03CFD7C
S31508007B7028469FF029FA624DD5E8AF3FDB070FD4B8
S31508007B8028469FF01CFA58B15C495E4813F024FD5C
S31508007B90584A5D495B48BEF027FD28469FF014FA0F
S31508007BA05A4D584B2846236424F078FE2369A5636A
S31508007BB01BB9574B574A23615A60E36B53BB564D63
S31508007BC06B68002B70D105F11400266979F032FA3A
S31508007BD005F11C0079F02EFAEB6803B92B7295F8BB
S31508007BE034304E4823F0050385F8343079F022FA0C
S31508007BF04B4879F01FFA95F834304A4823F01803B1
S31508007C0085F8343079F016FA00236E602B7285F801
S31508007C103430E563236C0BB9434B2364434D444B23
S31508007C202846216963628FF09AFD636A28462B61AC
S31508007C308EF06BFF002838D122692562002A36D0DB
S31508007C403C4B3D4D5A60636102F070FB3B4B022191
S31508007C50A0623B4A2120E36296F095FA28462169FC
S31508007C6015F062FF08BB2069A56192F0D6FF354B77
S31508007C70216960643448236097F01AF9324821F084
S31508007C8031FD1849314815F0CBFA0446174898F0E3
S31508007C905BFE3CB92E4826F093FB144826F032FFCB
S31508007CA0044630B1204600E0032004B070BD2F2002
S31508007CB0FBE700F0AFF8F5E734990D0867990D086A
S31508007CC0A8BF002073990D082855012023990D088F
S31508007CD02B990D0883990D08E1780008ED780008BE
S31508007CE080B000201805022080550120B0BF002072
S31508007CF04C34012010050220A10F080814050220A3
S31508007D00483401200812002019790008543401204B
S31508007D100406022048F80120184901203C490120A0
S31508007D204449012024490120C8730020AC4601209B
S31508007D30E4050220A446012068460120E805022041
S31508007D4095990D08103301206405022060770020FC
S31508007D50C5990D0810B51348FFF79EFE08B179F0CE
S31508007D607BFA114898F0E2FD60F058FB00B10C3040
S31508007D7019F0F0FF0C4898F0E7FD1F2002210B4A86
S31508007D8096F001FA0A485DF057FC08B179F064FAF2
S31508007D90084C2068D0F009FB08B1BFF04CFA206007
S31508007DA010BD00BFEA990D08B0BF0020F3990D0871
S31508007DB09CA701205034012010B50A4898F052FDBE
S31508007DC00021094A0948D0F07CFA094C02212060B2
S31508007DD0084A1F2096F0D7F923680BB9BFF02BFA8B
S31508007DE010BD00BF805501205C9A0D08557D00081E
S31508007DF050340120059A0D08014820F061B900BFEA
S31508007E00F04A0120024B01211868D0F027BB00BFB9
S31508007E107034012010B50A4820F0A4F8044608B1C9
S31508007E20BFF009FA01F07EFA01F0C4FA2146054AC4
S31508007E300548D0F046FA054B18600028F0D010BD6A
S31508007E40F04A0120889A0D08F97D0008703401204F
S31508007E5010B5044601210C20064A96F094F9002331
S31508007E60E068A36020B1BDE8104003689B68184726
S31508007E7010BD00BFAC9A0D08A0F10400E8E700BFEA
S31508007E8010B50A4CD4E8AF3FDB070DD420469FF067
S31508007E9096F848B10648074B074A08490360BEF0FA
S31508007EA0A3FB20469FF090F8014810BDD834012066
S31508007EB0DC3401207C5B0E081005022063100808DC
S31508007EC010B504460B4B03606433436000F50E702F
S31508007ED02DF088FC636A23B1002204F11C0062625B
S31508007EE09847236923B1002204F1080022619847C4
S31508007EF0204610BDA0CE0D08A0F10400E0E700BFA3
S31508007F0010B50446034B40F8343B79F0C0F82046D8
S31508007F1010BD00BF9CCA0D0837B5C0680D4614468B
S31508007F2038B901210C200E4A96F02DF9002003B02D
S31508007F3030BD1A682146019200221A6001AA09F08A
S31508007F40ADFD01A879F0A3F8A38823B9E38813B98E
S31508007F502378402BEAD02B8943F040032B81E5E7B1
S31508007F60BF9A0D08A0F10400D6E700BF73B51648FE
S31508007F7009F050FF1549164AD1F8AC34154E164D7E
S31508007F805360A1F5405133460F4800950AF01EF894
S31508007F90124B336124F05CFF044602460A49304618
S31508007FA00AF050FF2946204624F0E6FD40B10C4869
S31508007FB026F006FA6D210B4B0B4A0C485FF0AAFD1A
S31508007FC06C6002B070BD00BF3018002060A70020AA
S31508007FD08C0502206C0502205017002080510100F4
S31508007FE0F29A0D080E9B0D08239B0D08419B0D0860
S31508007FF070B500243248334B334E03606433436014
S3150800800000F10803C0E90233304BC0E9044083613C
S3150800801000F11C03C0E907332D4BC0E90940C0E94C
S315080080200B342C4BC0E90D44436420338364052389
S31508008030C0E92044C0E92244C0E9644480F83C40D1
S31508008040046480F8744080F89841C0F89C4180F830
S31508008050A04180F8B84180F8D04180F8E841C0F8DE
S315080080601C321D4B32461D491D4DC0F83832C0E939
S315080080708F4480F80042C0F8184280F8204280F801
S315080080804442BEF0B1FA324616491748BEF0ACFA79
S31508008090324616491648BEF0A7FA2846154B6C60B4
S315080080A040F8103B2C7227F00BF9C5E93444C5E9B2
S315080080B0364432462846BDE870400F49BEF094BAA9
S315080080C030180020A0CE0D08100502201D2A010830
S315080080D0951E0108C89B0D081CA70E08C17E00083E
S315080080E050170020771008088C0502207910080818
S315080080F06C0502209CCA0D08017F0008012903BFF0
S31508008100034B00201B78A62008BF1370704700BFDA
S31508008110A7DE0120022938B514461D460FD12022B4
S3150800812000210848BFF0BEF93CB1202D2A46214659
S3150800813028BF20220348BFF071F8002038BDA620CA
S31508008140FCE700BF87DE0120104608B56AB163B1B7
S3150800815002290CD1202B28BF20231A46029B054949
S315080081601A60BFF05BF8002008BD2F20FCE7A620A8
S31508008170FAE700BF87DE0120012905D102B112788E
S31508008180024B00201A707047A6207047A7DE012010
S315080081902DE9F0431D46002389B0074608460E46DA
S315080081A01446CDE9053326F005FE18B9D82009B0DE
S315080081B0BDE8F083304605A926F0C8FE0028F6D1AA
S315080081C0204626F0F7FD0028F0D0204606A926F01E
S315080081D0BDFE0028EBD1DDE90586079007A9124800
S315080081E026F0B4FE0446D8B9079B18EB030902D15A
S315080081F00EB1BFF020F8009302213B461F20CDE9BF
S3150800820001860A4A95F0BFFF6B689E420AD8324635
S3150800821049462868BFF02CF96B689E42E9D86E601B
S315080082202046C4E71924FBE721720800389C0D088C
S31508008230014826F0DBBF00BF00720800002307B51F
S315080082400348019301AB26F0D5FE03B05DF804FBA5
S3150800825000720800014826F085BF00BF0C720800AE
S3150800826010B506480C4626F045FE40F20123984212
S3150800827002BF4FF6F1732380002010BD0C72080070
S31508008280014826F0B3BF00BF0D72080073B500267B
S3150800829001AB0C480C461546019626F0ABFE40F29B
S315080082A00123984208D14CB1062D09D92046294602
S315080082B0054A78F062FF304602B070BD0B20FBE736
S315080082C01920F9E70D720800569C0D08014826F09A
S315080082D049BF00BF0B72080010B506480C4626F0C9
S315080082E009FE40F20123984202BF48F205032380A3
S315080082F0002010BD0B720800014826F077BF00BFAA
S315080083000E72080073B5002601AB0C480C461546DC
S31508008310019626F06FFE40F20123984208D14CB12F
S31508008320062D09D920462946054A78F026FF304603
S3150800833002B070BD0B20FBE71920F9E70E720800A2
S315080083405D9C0D08014826F051BF00BF1072080059
S31508008350002307B50348019301AB26F04BFE03B093
S315080083605DF804FB10720800014826F03FBF00BF05
S3150800837011720800002307B50348019301AB26F0E4
S3150800838039FE03B05DF804FB11720800014826F0B7
S315080083902DBF00BF12720800002307B503480193DA
S315080083A001AB26F027FE03B05DF804FB1272080045
S315080083B0014826F0D7BE00BF1872080010B5064857
S315080083C00C4626F097FD40F20123984202BF01238E
S315080083D02380002010BD00BF18720800014826F04F
S315080083E005BF00BF0F72080073B5002601AB0C4825
S315080083F00C461546019626F0FDFD40F201239842EB
S3150800840008D14CB10C2D09D920462946054A78F0E1
S31508008410B4FE304602B070BD0B20FBE71920F9E721
S315080084200F720800679C0D08014826F0DFBE00BFE2
S3150800843004720800014826F0DDBD00BF047208007A
S31508008440014826F0EDBE00BF1F72080007B50020E0
S315080084500090034826F024FE03B05DF804FB00BF35
S315080084601F720800014826F07DBE00BF077208008B
S3150800847013B510480C4626F03DFD40F20122904205
S31508008480034604D14FF47063238000230FE070B9CC
S315080084902388B3F5805FF8D34FF4C2732F240121E4
S315080084A0CDE90034044A054B95F06DFE234618467F
S315080084B002B010BD07720800949C0D08749C0D0844
S315080084C0014826F067BE00BF0872080010B50648C6
S315080084D00C4626F03BFD40F20123984202BF4FF4BA
S315080084E07A732360002010BD08720800014826F040
S315080084F07DBE00BF09720800014826F07BBD00BF9B
S3150800850009720800014826F071BE00BF0A72080009
S31508008510014826F06FBD00BF0A7208000B4610B569
S31508008520084A0C4608480949FFF732FED82807D1F9
S3150800853019F09CFC03682146BDE810409B68184763
S3150800854010BD00BF27720800A59C0D0826720800FA
S315080085500B4610B5084A0C4608480949FFF718FEA5
S31508008560D82807D119F082FC03682146BDE81040D7
S315080085705B69184710BD00BF25720800C19C0D082D
S31508008580247208000B4610B5084A0C4608480949E3
S31508008590FFF7FEFDD82807D119F068FC03682146C5
S315080085A0BDE810401B69184710BD00BF23720800BC
S315080085B0E79C0D0822720800022307B501A8D1E935
S315080085C0001201935FF04CFE18B90199024826F093
S315080085D0E1FD03B05DF804FB207208001FB5022018
S315080085E003900698009003A85FF052FE18B9039905
S315080085F0024826F0CFFD05B05DF804FB207208009E
S31508008600002370B5164886B00D461646049326F024
S31508008610D1FBE8B1124804A926F098FCB0B9049B2E
S315080086203246002B08BF0223294605A805935FF0AA
S3150800863097FE0446029073681F2001936B68022117
S315080086400093084A049B95F09EFD204606B070BD2F
S3150800865019F00CFC0368324629469B699847E8E7F7
S3150800866020720800009D0D08014826F093BD00BF42
S3150800867021720800014826F069BC00BF2172080073
S31508008680014826F0B3BD00BF29720800014826F04C
S31508008690B1BC00BF29720800014826F0C1BD00BF61
S315080086A00572080007B500200090034826F0F8FC7C
S315080086B003B05DF804FB00BF05720800014826F008
S315080086C039BD00BF28720800014826F0E7BB00BF85
S315080086D0287208000020094B10B5186032B9084CFA
S315080086E02146BDE81040074826F054BDA1F50051C3
S315080086F005488C1898F0C7F8F2E700BFE034012067
S3150800870000E01708217208008055012000232DE992
S31508008710F04F85B080460F462C4803A915460393AB
S3150800872026F014FC002838D1294E039933681BB962
S31508008730284898F089F880BBD5E900143368039A6D
S3150800874002EB030B14F003031BD10A4623465946D2
S31508008750204898F07FF800BB4046316826F01AFD9D
S31508008760D8B93846696826F015FDB0B932686B681D
S315080087700020134413F03F021CBF40339B1A33609A
S315080087800BE004F1040AAAEB030A5046019121F012
S3150800879081FC0199814618B9AC2005B0BDE8F08F77
S315080087A02246BEF03BFDAAEB0402FF2109EB0400BA
S315080087B0BEF078FE53464A465946064898F04AF8A7
S315080087C00446484621F08AFC2046C4E72172080080
S315080087D0E03401208055012008B50A4602480349BD
S315080087E0FFF794FF08BD00BF227208002372080035
S315080087F008B50A4602480349FFF788FF08BD00BFC7
S31508008800247208002572080008B50A46024803497A
S31508008810FFF77CFF08BD00BF267208002772080014
S31508008820014822F077B800BF384C012008B500226D
S315080088300249034895F03EF9002008BDBD7A0208B2
S31508008840E43401200A4608B9FFF7F0BF014601489B
S3150800885095F051B9E434012008B5022205490648C5
S315080088601FF05EFBBDE808400122044904481FF0DA
S3150800887057BB00BFF89D0D08E4340120EC9D0D0898
S31508008880F04A01200122024B83F80421704700BFF9
S31508008890E43401200021044600B589B01A2201A853
S315080088A00091BEF0FFFD2346074A1E2168465FF089
S315080088B051FA6946054825F083FD684678F0CFFCED
S315080088C0CCF06EFEBEF0B7FC109E0D08269E0D0875
S315080088D02DE9F04F0446D0E90076384B87B0D3F837
S315080088E028B0D3F82CA0D3F83490D3F83880D0E940
S315080088F0025301930369012102934369304A0393A2
S3150800890083690493C369002005932E4B1B6895F071
S315080089103AFC5B46012100202B4A95F034FC53466D
S3150800892001210020294A95F02EFC4B460121002002
S31508008930274A95F028FC434601210020254A95F050
S3150800894022FC234601210020234A95F01CFC00F056
S3150800895023FB3B4601210020204A95F014FC3346B0
S31508008960012100201E4A95F00EFC2B46012100200D
S315080089701C4A95F008FC01210020019B1A4A95F033
S3150800898002FC01210020029B184A95F0FCFB0121FC
S315080089900020039B164A95F0F6FB01210020049B54
S315080089A0144A95F0F0FB01210020059B124A95F028
S315080089B0EAFB00F0F1FAD0F0DAF8FEE700ED00E0A5
S315080089C0879E0D08B44001209D9E0D08B39E0D0894
S315080089D0C99E0D08DF9E0D08F59E0D080B9F0D0814
S315080089E0219F0D08379F0D084D9F0D08639F0D08A1
S315080089F0799F0D088F9F0D08A59F0D08024B034A06
S31508008A001A6078F02DBC00BFB4400120445241489A
S31508008A10024B034A1A6078F023BC00BFB440012019
S31508008A204655504D024B034A1A6078F019BC00BFF0
S31508008A30B440012046535542024B034A1A6078F067
S31508008A400FBC00BFB440012054465355024B034A9D
S31508008A501A6078F005BC00BFB44001205446435361
S31508008A60024B034A1A6078F0FBBB00BFB4400120F2
S31508008A704E4D4244012108B50020064B064A95F0A2
S31508008A8082FB00F089FAD0F072F8044904485EF0D7
S31508008A906DFBFEE7BB9F0D0801C90E08579E0D0822
S31508008AA06E9E0D0800240D4600B59BB06022214637
S31508008AB002A80194BEF0F6FC2B466421094A01A8D7
S31508008AC05FF048F901212046074A01AB95F05BFBA8
S31508008AD000F062FAD0F04BF8044905485EF046FB10
S31508008AE0FEE700BFDE9F0D0801C90E08579E0D0858
S31508008AF06E9E0D08034B0360034B0B604FF4A07387
S31508008B001360704750400120503B0120034B03601F
S31508008B10034B0B604FF4A07313607047EC3A0120C7
S31508008B20EC35012000240D4600B59BB06022214695
S31508008B3002A80194BEF0B6FC2B466421064A01A899
S31508008B405FF008F901212046044A01AB95F01BFBAA
S31508008B5000F022FABEF06FFBF19F0D0801C90E085E
S31508008B60024B034A1A6078F07BBB7047B440012079
S31508008B70474F44572A2108B5024800F059F9B2F080
S31508008B80DEF8FEE701A00D08024B01211868CFF0B8
S31508008B9065BC00BF804101200D4BD9889A8889B2EF
S31508008BA092B2914211D0D9889A8889B292B29142EA
S31508008BB03DBF9A88D8881B89D8882DBF9B8813FA09
S31508008BC080F0801AC01A80B270470020704700BF34
S31508008BD0B8400120F8B50E46074608B9BEF02BFB8B
S31508008BE0154D2C898C42F9D3FFF7D6FF201A80B28F
S31508008BF086421BD8EB88E888E41AA4B2A6422B68FA
S31508008C0015D92246394613FA80F0BEF007FB2868C4
S31508008C10321B3919BEF002FBEB8816FA83F12B8951
S31508008C20B1FBF3F203FB121189B2E980F8BD3246B3
S31508008C30394613FA80F0EDE7B840012038B5044606
S31508008C40D0F08FF9012105460846CEF071FA28467C
S31508008C50D0F082F90C480D4B2146B4F80021006883
S31508008C604EF0C6FE4FF0FF3200210120CFF037FC50
S31508008C70D0F077F9044600210120CEF059FA2046B3
S31508008C80BDE83840D0F068B9AC0A0220898B0008E4
S31508008C90002370B5174CC2B0174DADF804318DF8E6
S31508008CA006314FF0FF330022206801A9CFF0BCFE41
S31508008CB00028F6D19DF8066101A8FFF7BFFF4EB15F
S31508008CC040F60D23ADF80430022301A8ADF80431AF
S31508008CD0FFF7B4FF2A6852B1084901A85FF06EF899
S31508008CE00023ADF8040101A82B60FFF7A7FF0023B6
S31508008CF01A46D9E714410120184101202BA00D0876
S31508008D002DE9F843DFF850801E46B8F8009015465E
S31508008D10A3EB09070D4BFFB21C89FFF73DFF241A89
S31508008D20A4B2A74207D8394605EB0900FFF752FF58
S31508008D300023A8F80030064832462946054B006845
S31508008D404EF0A4FDBDE8F843FFF75CB8B840012033
S31508008D50AC0A0220018D0008F8B8012070B5204E33
S31508008D603468002C3BD14FF482711E4A0A20CFF09A
S31508008D70E7FD1D4D1D4A286021461D48CFF0A1FA82
S31508008D801C4B1D4A9C801A604FF4807230601A8111
S31508008D90DC8008B9BEF04FFA2B68002BFAD0174CC6
S31508008DA08022174B174920684EF070FD8022144B1D
S31508008DB0154920684EF06AFD0B2051F01DFA0B206C
S31508008DC051F0D4F91422114B0521DA640422A3F5D3
S31508008DD080531A650E48BDE87040B1F051BE70BDAB
S31508008DE08041012040A00D081441012060A00D0813
S31508008DF0918C0008B8400120A8DE0120AC0A0220A8
S31508008E00018D000850EE0120D0ED01200020015B05
S31508008E100000015B08B5FEF7F5FF0421034B03F5D7
S31508008E2000521165D164DB6C08BD00BF0000015B10
S31508008E3070B50C460546C2B018B94FF0FF3042B0BF
S31508008E4070BD4B1EFF2BF8D80C4E33680BB9FFF7D5
S31508008E5085FF00232246294601A88DF80631BEF073
S31508008E60DDF94FF0FF331822306801A9ADF8044147
S31508008E70CFF0A6FD0028E0D120B2E0E7144101209A
S31508008E8010B50C46C2B00146D0B1631EFF2B17D8E9
S31508008E90224601A8BEF0C2F901230B488DF8063117
S31508008EA018220023006801A9ADF80441CFF088FD17
S31508008EB010B920B242B010BD044A136801331360DA
S31508008EC04FF0FF30F6E700BF14410120184101209A
S31508008ED00422F0B52C4B0C46074685B01A650028C7
S31508008EE04FD000294DD0FFF757FEA04219D2D0F037
S31508008EF04BF805462548264E03AB01A9006802AA89
S31508008F00B1F00FFD338802998B4207D20198C91A2E
S31508008F10184489B2FFF75EFE029B33802846D0F0DC
S31508008F202EF81C4D2E89B44201D9BEF084F9FFF7FC
S31508008F3033FEA04228BF2046AB8884B2F61AB6B2E2
S31508008F40A6422B68A98817D2324613FA81F1384609
S31508008F50BEF064F92968A21BB819BEF05FF9AB88A0
S31508008F602A8914FA83F3B3FBF2F102FB11339BB29D
S31508008F70AB8020B205B0F0BD2246384613FA81F11F
S31508008F80EBE74FF0FF30F5E70010015BAC0A022073
S31508008F90F8B80120B8400120002330B50B4CC3B007
S31508008FA00B4DADF804318DF80631002320681A46BA
S31508008FB001A9CFF039FD08B143B030BDBDF8042191
S31508008FC0286801A94EF086FAEFE700BF1441012090
S31508008FD0AC0A02200A46014620B11AB1024B1868AB
S31508008FE04EF078BA704700BFAC0A022008B50820D0
S31508008FF021F050F818B100234360014B036008BD07
S31508009000CCA00D0808B5082021F044F818B10023B3
S315080090104360014B036008BDE8A00D08436843B9E7
S31508009020054B0B6005234B60436801334360012001
S3150800903070470020704700BF84A00D08042370B550
S31508009040144645688AB0ADF802302B680A4601A86E
S3150800905005499E6878F06FF9224628460DF1020305
S3150800906001A9B0470AB070BD8AA00D0830B544689A
S31508009070134622688BB0156901A80A46034978F099
S315080090805AF9204601A9A8470BB030BD97A00D088C
S3150800909030B58DB04468019223680A4603A806498C
S315080090A0DD6878F048F9042320460DEB030203A98E
S315080090B0A8470DB030BD00BF8AA00D08F0B5A3B013
S315080090C0064617A81F460C46154693F006FD2A22A3
S315080090D017A80CA993F014FD0DF10B0301931523A2
S315080090E04FF48072009317A8002393F026FF50BB15
S315080090F097E80300154B8DE80300D3E9002317A86A
S3150800910093F0F3FFF8B9D7E90201114B8DE8030094
S31508009110D3E9002317A893F0E8FFA0B99DF90B102F
S3150800912017A893F03FFF70B9766822463368094955
S31508009130DF6803A82B4678F0FEF83046BDF8743091
S315080091400CAA03A9B84723B0F0BD00BF38A10D0883
S3150800915030A10D0897A00D0813B5044608460A4B1A
S315080091601146C4E900300023C4E9033301930368B8
S3150800917022815B6A01AA984710B9019BC4E90303D7
S31508009180204602B010BD00BFB0A00D082DE9F04181
S31508009190D0E90332934204460D469EB003D300201D
S315080091A01EB0BDE8F0812A2642683B495768ADF8EB
S315080091B002603A68D2F80880028910A878F0BBF8ED
S315080091C038460DF1020305AA10A9C0470028E6D1C2
S315080091D010A892F0C5FF324605A910A893F003F827
S315080091E04FF480720023152110A893F095FB0028F0
S315080091F0D5D10DF1010110A893F0C8F90028CED1F8
S31508009200264BCDE90100D3E90023CDE9030010A8D8
S3150800921093F075FB0028C2D101AE314610A893F031
S3150800922078FA0028BBD11E4B10A8D3E9002393F087
S3150800923066FB0028B3D10DF10C08414610A893F03F
S3150800924068FA0028ABD110A893F04EFB0028A6D1E7
S315080092509DF9011010A893F0F3FA00289FD196E81B
S31508009260060004F1140704F12506384678F089F853
S3150800927098E80600304678F084F83846BEF063F879
S31508009280C5E900703046BEF05EF8C5E90260E368DD
S3150800929001200133E36083E797A00D0838A10D0884
S315080092A030A10D08F8B505460E460024094FAC4214
S315080092B006DB1EF095FF084994F086FC0020F8BDF1
S315080092C01EF08EFF56F82420394694F07DFC0134B2
S315080092D0EDE700BFAAE40E0842A10D08F8B5054659
S315080092E00E460024064FAC4201DB0020F8BD56F8B6
S315080092F024303A4602211C2094F045FF0134F2E757
S3150800930001C90E0810B51EF06BFF044690F017FF52
S3150800931003490246204694F057FC002010BD00BFC2
S3150800932040A10D080322024902481EF0F9BD00BFFC
S3150800933094A10D08F04A01202DE9F04700240646BD
S31508009340E0B088464FF4BE72214601A80094BEF0EC
S31508009350A9F8A64228DD6D464FF0200958F824A042
S315080093605046BDF0F0FF60AB2F189F4202461DD253
S3150800937028465146BDF078FF7D1C60AB9D4204F13E
S3150800938001042CBF3D4687F80090A642E6D108485E
S3150800939097F008F96846C7F064FA054897F004F9A3
S315080093A0002060B0BDE8F0872F20FAE71920F8E71B
S315080093B080B000200122024902481EF0B1BD00BF5C
S315080093C0E0A10D08F04A01200122024B83F804218E
S315080093D0704700BF8441012010B50446054B036061
S315080093E000F5CF6095F0E7FC23690BB1BDF023FFCC
S315080093F0204610BD545F0E0870B504460B4B00F5A9
S31508009400387503F12C0203604C334260836000F127
S315080094101006B54207D055F8080C283D0028F8D0A4
S315080094202BF0ACFBF5E7204670BD00BFEC970E08A5
S31508009430A0F10400E0E7A0F10800DDE710B5094B4C
S3150800944004460360084B8360006948B143680BB95A
S31508009450BDF0F1FE013B436013B903681B6B9847E7
S31508009460204610BDE0A20D0840A40E0810B504461B
S31508009470034B40F80C3BFFF7E1FF204610BD00BF49
S3150800948004A30D080022002310B5C0E90023C0E993
S315080094900223C0E904230D4B0446002183612122DF
S315080094A06030BDF0FFFF4FF6FF720023A4F882205C
S315080094B04FF48072204684F88130A4F88420C4F8DA
S315080094C0883078F048F8204610BD00BFF0730E08C3
S315080094D000F1080373B504460D46036011B9104838
S315080094E0BDF03AFA0846BDF02EFF0F2805EB000638
S315080094F0019007D90022204601A95CF041FC019B96
S315080095002060A360324629462068BDF073FA002120
S315080095102046019B22686360D15402B070BD00BF2B
S31508009520ECA10D0810B50446044B0360406A77F0B9
S3150800953098FFE06878F0A2F8204610BD90A20D08C2
S3150800954070B5164605460C468CB01146684677F047
S31508009550E7FF2946304677F055FF641B0A4BE410AF
S315080095605C43694606A877F0DBFF2246002106AB76
S31508009570284678F0C3F806A8BDF0FFF96846BDF09E
S31508009580FCF90CB070BD00BFABAAAAAA2DE9F04F32
S315080095904FF0180B044617460E468DB000EB0B0825
S315080095A0351BB5F5C07F22DD3F4BED105D4367BB2C
S315080095B04FF01808AF1E7F10684608FB074177F082
S315080095C0AFFF694606A877F0ABFF20462A4639461C
S315080095D006AB78F093F806A8BDF0CFF957B96846F8
S315080095E0BDF0CBF9331B182BA6F1180607DC0DB016
S315080095F0BDE8F08F6846013FBDF0BFF9DCE73246AB
S3150800960031462046FFF79CFFECE76D100BFB05453E
S315080096104046294678F06DF8A6F11809C24649462B
S3150800962060B1284678F065F808B129460BE0494646
S31508009630404678F05EF828B1494604E0404678F09E
S3150800964058F810B341462046BDF014FA3546504640
S31508009650214678F04EF8D1460AF1180A0028F6D1C4
S31508009660A5F1180A5146204678F043F85546AAF15E
S31508009670180A0028F6D1A9450ED3013F31463A46C5
S315080096804846FFF783FF4E468AE74946284678F05C
S3150800969030F80028C9D0CFE729464846BDF0EAF990
S315080096A009F1180AD3E700BFABAAAAAA2DE9F04325
S315080096B0884205460E4687B005D0DFF8608000F17F
S315080096C01804A64202D107B0BDE8F0832946204611
S315080096D078F00FF804F11807E0B12146684677F0EC
S315080096E01FFFB946641BE41008FB04F4002C08DCD1
S315080096F02846694677F086FE6846BDF03EF93C4640
S31508009700DFE7A9F13001A9F11809484677F07AFE92
S31508009710013CEBE7204678F055F8F0E7ABAAAAAA91
S315080097202DE9F041036886B09B6A044698470121F3
S315080097300346394A242094F026FD236821466846C4
S31508009740DB6A9847039E002430460DF1040840451D
S3150800975005D1324B9C4206DD3148BDF000F9BCF01C
S31508009760A1FF0134F3E7182767431CB13846B1F067
S3150800977045FF0446254646452CD1AC4217D0294B11
S315080097802E1BF2105A43B2FA82F2C2F11F02294680
S3150800979020465200FFF7FAFEB6F5C07F2ADD04F52B
S315080097A0C07631462046FFF781FFB5421DD12646D1
S315080097B0DFF87480B54222D12646B54227D11CB1BE
S315080097C039462046B1F02AFF029877F04AFE06B0DD
S315080097D0BDE8F081284606F1100177F061FE3046B3
S315080097E0BCF060FF18350646C5E7304677F0EAFF55
S315080097F01836DAE729462046FFF758FFD7E74246E4
S315080098000121242056F8183B94F0BDFCD2E73046D7
S31508009810BDF0B3F81836D0E71EA20D085555550504
S315080098204FA20D08ABAAAAAA80A20D08F8B5002572
S31508009830474C60199035FFF725FEB5F5347FF8D10A
S3150800984000254448FFF71EFE0026C4E9D855C4E99A
S31508009850DA55A4F87053C4F8745384F8785384F826
S31508009860805384F88253A4F88453002712243A4A72
S315080098703A493748BCF0B8FE394B3A4A1A6002F101
S315080098802C014C32C3E902255960103310221846C0
S315080098900021BDF007FE41F2A4520346013CC0E98F
S315080098A00667057442824561056203F12803EDD116
S315080098B0294A2D492A48BCF097FE2C481FF078F80B
S315080098C0254A2B492948BCF08FFE2A482CF0FEF879
S315080098D0214A29492748BCF087FE2848284B1E4AB2
S315080098E02849C0E9014403600473BCF07DFE26489C
S315080098F0264B194A036000F10803C0E904332449DA
S3150800990000F12003234DC0E90A330472C460846160
S3150800991080F820404462046380F834408463BCF0D5
S3150800992063FE1D4B21462B601C4B102205F11800C7
S31508009930EB60C5E901442C61BDF0B4FD184BEC6140
S315080099406B612846BDE8F840034A1649BCF04CBE90
S3150800995018360020E838002010050220B31508083C
S3150800996038330020EC970E08F9930008882B00205E
S31508009970D9930008801A0020C55C0308F04201202C
S315080099801CA70E08E5570308B442012090A20D084B
S31508009990259500088C42012004A30D08E0A20D08B5
S315080099A040A40E086D94000870B5036805460C4679
S315080099B016460BB1032070BD02210D20074A94F00C
S315080099C0E2FB0CB92F20F6E723682046DB689847A8
S315080099D00028F0D1C5E90046EDE700BF10A30D0841
S315080099E02DE9F04F074600688BB004680D46646C95
S315080099F090461E46A0472D2804460ED048B19F4AD9
S31508009A009F4B0221A52808BF13460D209D4A94F0B6
S31508009A10BAFB20460BB0BDE8F08F6B78202B01D13E
S31508009A200024F6E7984B3868029358B103682A462B
S31508009A301B6C02A99847044630B1029803689B68D4
S31508009A409847E6E70324F8E74FF0000A4FF0000BC3
S31508009A508E4B0393029803A90368DB68984730B1D5
S31508009A6002210D208A4A94F08EFBA52410E08DF879
S31508009A70060003980DF106010368DB68984704465B
S31508009A8030B99DF80630402B06D0802B04D003242D
S31508009A9003A878F0A6F9D0E76A789A42DAD10123C2
S31508009AA003988DF8073003680DF107015B6998473D
S31508009AB004460028ECD19DF80730082B18D8002B4F
S31508009AC0C8D0013B072BC5D801A252F823F000BF26
S31508009AD0099B00081B9B0008559A0008279B00084D
S31508009AE0559A0008559A0008559A0008459B00089B
S31508009AF0102BAFD1102E1AD0082EABD84FF48B737B
S31508009B00F340D807A6D512E006F1FF3CDCF10003C6
S31508009B1043EB0C03002B9DD009E0731E012B8CBF71
S31508009B2000230123F6E7042E01D0012E92D100234B
S31508009B3003980493036804A95B6A9847814648B169
S31508009B404C46A5E7082E85D86FF489733341DC07A0
S31508009B50EDD57FE7049B1BBB002303980593036899
S31508009B6005A99B6B984781460028E9D1059B002BE0
S31508009B707FD100248CE74FF0FF31C21C994274EB69
S31508009B80020243D39DF80620402A80D14FEA134C9F
S31508009B9005F10C0105F118048C4229D109F10109D6
S31508009BA0049B4B457FF656AFCDE906AB039849466D
S31508009BB0036806AA9B6A9847044600287FF468AF9C
S31508009BC0DDE906306FF0010C5A1E40F1FF3194456D
S31508009BD06FF010028A41CED39DF80620402A7FF402
S31508009BE056AFD5E90212904208BF8B42D6D1B3E7E9
S31508009BF051F8042F002ACFD0BCEB124FCCD198B223
S31508009C000028C9D092B29042C6D8A5E713F5803F7E
S31508009C1070F1FF32FFF43BAF9DF80620802ADEE79D
S31508009C2000230398069303684946DB6B06AA984700
S31508009C30044600287FF42CAF069BD90704D5D8F82C
S31508009C4000200799914212D19A0705D5BDF8201030
S31508009C50B8F8042091420AD15B078AD57868B8F823
S31508009C600420036809999B689847002881D109F15F
S31508009C700109059B4B45D3D8ECE600BF58A30D0850
S31508009C801B2C0F082CA30D0894050220980502200A
S31508009C9049A30D080023F0B58BB0CDE9043305467A
S31508009CA000688DF80D308DF80E308DF80F3003688A
S31508009CB00DF10D01DB6898470446002840F0C7807F
S31508009CC028680DF10E0103681B69984704460028A9
S31508009CD040F0BD8028680DF10F0103685B6998475D
S31508009CE00446002840F0B380286804A903685B6A24
S31508009CF098470446002840F0AA80286805A9036802
S31508009D009B6B98470446002840F0A1809DF80E30CA
S31508009D10002B00F09E809DF80D30402B07D0802B3D
S31508009D2040F09E809DF80F30102B00F09B80264651
S31508009D30049BB34207D800264B4F059BA3423AD84B
S31508009D4001200BB0F0BD28683146036806AA9B6A55
S31508009D509847002879D19DF80D30402B16D1DDE9BA
S31508009D6006326FF0010C591E42F1FF378C456FF031
S31508009D701001B94108D24FF0FF310332994270EB16
S31508009D8002020CD39BB253B10136D1E7802B06D120
S31508009D90069B079A13F5803F72F1FF32F1E7334BC2
S31508009DA00446002856D001210D20314A009494F02B
S31508009DB0EAF90020C5E72868069603682146DB6BA2
S31508009DC006AA9847002840D1069B03F0020103F033
S31508009DD00402DB0710D411B1F2B1264BE0E7002AE2
S31508009DE0FBD0099B03EA070212F5003FF5D89BB2A0
S31508009DF0B3F5404FF1D215E009B1002AEDD1079B22
S31508009E0013F5302F4FEA134CE7D2BCF1000F0BD1F4
S31508009E101B0410D56046E0E74FF6FF73BDF8202017
S31508009E209A42DAD0013488E740F2FE3C03F58063B3
S31508009E309BB26345D1D829B14FF6FF73BDF8201000
S31508009E409942CAD0002ACCD1ECE70B4BA8E70A4BBB
S31508009E50A9E70A4B01210D20094A94F094F9A8E7CD
S31508009E60084BF7E7084BF5E70000FFFF70A30D085E
S31508009E70C8A30D0880A30D085FA30D08B3A30D089A
S31508009E80DEA30D08A1A30D088FA30D082DE9F04345
S31508009E900546006887B088461F468DF80F2020B90A
S31508009EA00324204607B0BDE8F083DFF86490AB686A
S31508009EB0CDF81490EBB900262868394603680DF1E9
S31508009EC00F02DB6B9847044678B91EB133684B45D9
S31508009ED008BF002602234146CDE9006328463B46D3
S31508009EE09DF80F2077F0B8FF002405A877F079FFD2
S31508009EF0D7E79DF80F3039468DF81330036805AA61
S31508009F005C6B0DF11303A0470028D4D105AED3E747
S31508009F1098050220034B1868034B002808BF18460B
S31508009F20704700BF044301200843012010B50446CA
S31508009F3002210D20024A94F026F9024B1C6010BD3E
S31508009F40F0A30D080443012010B5094C094922461F
S31508009F500948BCF049FB224608490948BCF044FBBD
S31508009F602246BDE8104007490748BCF03DBB00BF84
S31508009F7010050220B11D080808430120C31D080862
S31508009F8098050220C51D0808940502200023F7B588
S31508009F90CDE900334AB96E4601AB15240E4A013C99
S31508009FA006D11423036003B0F0BD6B4601AEF4E797
S31508009FB01578002DF5D055788D4206D10768356895
S31508009FC0AF4207D0019D01350195009D403201350C
S31508009FD00095E4E71B68E5E7E039002007B501903E
S31508009FE021B10122097801A8FFF7D0FF01981328AB
S31508009FF00AD8064B820103EB80109B5C002B08BF36
S3150800A000002003B05DF804FB0020FAE7E0390020E1
S3150800A0100023152010B51360074B013801D1002025
S3150800A02010BD1C78002CFAD05C7840338C4202BFF5
S3150800A030146801341460F0E7E039002000231A465A
S3150800A04010B50648B3F5A06F0A6001D1002010BD0F
S3150800A0504033C45C002CF9D00132F3E7A039002064
S3150800A0600868114B70B598420E46154603D303F19E
S3150800A0700C02904214D31B79A3B90B4C03689B6856
S3150800A08098470123002D3460237108BF00234FF041
S3150800A0900000637118BF2B78A06018BFA37170BD4C
S3150800A0A00446EBE71920FAE71843012002210D20A0
S3150800A0B0014A94F068B800BF74A40D0838B50221A7
S3150800A0C00D20074A94F05FF80024064D60194034C5
S3150800A0D0B4F5A86F01D1002038BD77F061FFF5E728
S3150800A0E09CA40D08E039002038B50B4B0C46984265
S3150800A0F002D30C33984201D3BDF09DF885680FCD85
S3150800A1000FC40FCD0FC40FCD0FC495E80F0084E818
S3150800A1100F00002038BD00BFA00502202DE9F04140
S3150800A120144C1F460E461523A046013B01D11920A3
S3150800A1301EE0217871B14034F7E763783B70B6B119
S3150800A140A4EB0804A41134602A4630463978FFF790
S3150800A1501DFF0CE021461068FFF7C6FF054630B91B
S3150800A160002FEAD11EB1A4EB0804A41134602846D6
S3150800A170BDE8F081E0390020064B984203D303F18D
S3150800A1800C02904204D39B680248002B18BF00209B
S3150800A190704700BFA005022010B50868FFF7ECFF5E
S3150800A1A080B18268084B0AB19A4206D21B784BB92D
S3150800A1B0054A77F03CFF002010BD03F14004A24297
S3150800A1C0F4D2F6E71920F7E7A039002038B5114A86
S3150800A1D083684BB9104B83608468944201D0237816
S3150800A1E033B982600A2038BD9342F5D24033F2E78C
S3150800A1F043791BB1657883799D42E9D10868FFF7F1
S3150800A200BBFF20B1224677F012FF0020EBE71920AA
S3150800A210E9E700BFE03E0020E0390020F0B50E4F28
S3150800A22084680646BC4205D307F140039C4201D226
S3150800A2300020F0BD3B7863B9074D0FCC0FC50FCC96
S3150800A2400FC50FCC0FC594E80F0085E80F00B7605F
S3150800A250EEE71920EDE700BFA03900202DE9F0410F
S3150800A2600E4611463046FFF7B9FE0446002842D08E
S3150800A270224FBB68984202D13846FFF7CFFFDFF876
S3150800A2808C80444516D204F1400CC4450FD294F88C
S3150800A290403063B165460FCD0FC40FCD0FC40FCD47
S3150800A2A00FC495E80F0084E80F006446E9E72046E6
S3150800A2B077F076FE124CBB6804EB86169E4212D0E7
S3150800A2C003D2434501D2403BBB600E4A93689E4287
S3150800A2D006D8434504D2A3420CBF0023403B9360F3
S3150800A2E00020BDE8F0817D68286803689B68984768
S3150800A2F0054B2B60E9E70A20F3E700BFA00502201B
S3150800A300E03900201843012098050220E03E00208D
S3150800A3108268054B00219A4203D340339A4238BFDC
S3150800A32011708160704700BFA039002010B5094C34
S3150800A330D4E8AF3FDB070BD420469CF040FE38B18B
S3150800A340054A06490648BCF04FF920469CF03CFEF3
S3150800A350034810BD14430120100502207720080881
S3150800A3609C05022010B5084C084922460020BCF07E
S3150800A3703BF90020064B074A18711A60064922461F
S3150800A380BDE81040BCF030B9100502207D20080851
S3150800A3901843012020A50D082321080870B5104E82
S3150800A3A0D6E8AF4F14F0010418D130469CF007FEEA
S3150800A3B0A0B10C4D0C4A2B4607CA43F8044B83E858
S3150800A3C007004FF6FF722A824FF0FF321846C5E99A
S3150800A3D0052477F0FBFF30469CF0F6FD014870BD7A
S3150800A3E02443012028430120B4A50D0838B50546A5
S3150800A3F004300C4677F0EAFF2A6813461BB9E26078
S3150800A40001202C600DE09868A16888420ED1197960
S3150800A41009B1217931B923200121054A93F0B3FE08
S3150800A420002038BDD888E1888842F4D0DB68E5E7A3
S3150800A43080A50D082DE9FF410A9F884616461D4648
S3150800A44093F0C4FE044600283FD0D6E90001002652
S3150800A450231DD8F80020C4E90133C4E906011D4BC1
S3150800A460267323602661226204F1280C95E80F0002
S3150800A4708CE80F002B7C04F1480084F838306B8A8E
S3150800A48063876B69E363D5E90623C4E91023124B96
S3150800A49004F1580519680B689B6898470022002341
S3150800A4A0C4E9142301AB97E8070083E807000123F2
S3150800A4B085E80700A4F87430084B84F8646084F8CB
S3150800A4C0686084F86C60A6672360204604B0BDE81F
S3150800A4D0F08100BF10A60D088407022058A60D08B3
S3150800A4E0094A08B5026002690AB1BCF0A4FE074A27
S3150800A4F0011D026082688A42F7D141680029F4D0BA
S3150800A5004A604368136008BD10A60D08C8A50D0863
S3150800A51010B50446024B0360FFF7E2FF204610BD64
S3150800A52058A60D08F7B50C46114B05461968684636
S3150800A5300B689B689847D4E91421009B20469F1A0C
S3150800A540019B63EB010678F020FB038920469F42B6
S3150800A55076F1000309D278F018FB04300368284620
S3150800A5602B6000236B6003B0F0BD78F00EFBF5E7B7
S3150800A570840702202DE9F04307460E4615469846FD
S3150800A5806FF001096FF010048BB08FF0A7FD421E23
S3150800A59041F1FF33914574EB0303F6D300231836D4
S3150800A5A0CDE90401029330462B46CDF8008004AA73
S3150800A5B002A9FFF73FFF044650BB4FF0FF324FF0AA
S3150800A5C0FF33CDE9062306AB03900893304603AB69
S3150800A5D01C4A08A9099393F061FE039C2CB9002331
S3150800A5E03B7038460BB0BDE8F083236820461B68ED
S3150800A5F098472146304693F02FFE2B463046CDF835
S3150800A600008004AA02A9FFF715FF04460028E6D031
S3150800A61095E80F0004F1280686E80F002B7C2046F3
S3150800A62084F838306B8A63876B69E363D5E9062358
S3150800A630C4E9102301233B7023687C60DB689847D4
S3150800A640CFE700BFF12A0808084B10B50360183396
S3150800A65043600446083078F00CFB014620B960696F
S3150800A66000F5CF6094F0BDFB204610BDA0A60D08EE
S3150800A670A0F10400E8E700BF10B504460221074A26
S3150800A6800D2093F080FDFFF745FC04F1140177F0E7
S3150800A690BEFB2046BDE8104087F0F9BFC4A60D08EA
S3150800A6A000B5084B89B0049304230593002303924D
S3150800A6B004490422009303A887F0A3FF09B05DF8B4
S3150800A6C004FB00BFB4A70D0838B50C4605460221A1
S3150800A6D00D20084A93F057FD2146284687F0E9FFE2
S3150800A6E0044628B9FFF716FC05F1140177F081FB3B
S3150800A6F0204638BDE3A60D0800B50D4B8DB0CDE953
S3150800A7000631ADF8202000231F22CDE909230123B5
S3150800A71091F83C208DF82C308DF82D2000930246B8
S3150800A72006AB08A902A80CF0B5F80DB05DF804FB55
S3150800A730A8A70D082DE9F04F14460027B9B006461C
S3150800A7401D460397FFF7E6FB2269042A08D8042A60
S3150800A75010D8DFE812F013000F00F80021012801D5
S3150800A7604FF6FC739A4200F023814FF6FD739A4226
S3150800A77000F0208140F28652326064E0904B05A9D1
S3150800A7800493904B16A8059378F0C5FB0123284639
S3150800A79085F8443078F09CF8044600284BD10BA87D
S3150800A7A00A9592F09AF9884878F091FB074648B1DD
S3150800A7B0864FB7F8643907F50B6703F00503052BD1
S3150800A7C018BF002700220523DFF80482CDE90823F5
S3150800A7D04046CDE9068778F07AFB10B906A878F0E6
S3150800A7E086FB4FF09009089C052C0AD1284678F07C
S3150800A7F0B4F800244FF6FF7385F84C40A5F84A30A4
S3150800A80019E009FB048494F881A047B1384678F02A
S3150800A8105EFB20B197F88130534508BF3C4694F853
S3150800A8208140FFF777FB00688DF8084088B928460D
S3150800A83078F093F8032405A877F0D3FA0498036808
S3150800A8409B689847346000233046337139B0BDE8B9
S3150800A850F08F036802AA1B6C04A998470446CCB17A
S3150800A86058E0169B8DF80840186802A903681B690A
S3150800A87098479DF80830002B63D00A9B93F845301B
S3150800A880B3B9DDF828A00BA950469AF808B078F0B5
S3150800A8908BF8E0B9049805A90368DB68984704466D
S3150800A8A00028DED00A2835D106A878F020FB9AE7DA
S3150800A8B0169B8DF80840186802A903681B69984713
S3150800A8C00A9A9DF80830127A9A42E3D1D9E79AF89B
S3150800A8D04630DAF800107BB1096C4FF48072002319
S3150800A8E0CDF800B016A888F0CBF9044601460BAAA5
S3150800A8F0504678F072F8B2E7DAF840300AF12802E2
S3150800A90002A877F09FFF044640B1214650460BAA9D
S3150800A91078F063F8284678F020F88CE7DAF8003003
S3150800A9200222196C16A80023CDF800B088F0A8F901
S3150800A93004460028E9D1DAF8001002A877F0BAFF31
S3150800A940D3E77124E6E70068002836D003689B69D8
S3150800A95003A99847024600287FF40EAF0123296809
S3150800A96085F8443005F128022B6C16A8039C77F06D
S3150800A97069FF034670B92A68106CCDE900430222C4
S3150800A980002392F03CFA034620B9296816A877F006
S3150800A99091FF0346336056E7006800283FF4ECAEA3
S3150800A9A00368DB69D4E703A9006878F08AFAD1E777
S3150800A9B00397D3E702230393D0E70322DCE600BF1D
S3150800A9C0940502209805022010A000206097002018
S3150800A9D0409D00202DE9F041D0F80C80B2B0054624
S3150800A9E0DDE938760C46B8F1000F29D041B340228C
S3150800A9F000216846BCF056FD2378012E8DF83C30C0
S3150800AA0002D18DF8146001E0022EFAD06378402B4B
S3150800AA1019D1D4E90223CDE9002301238DF80830A2
S3150800AA20002F3FD0394610A878F075FA10A888F09C
S3150800AA303FF8034680B101210D201C4A93F0A3FB81
S3150800AA4032B0BDE8F081202B01BFA368ADF8103005
S3150800AA5001238DF81230E3E7BDF8443012AAADF8A9
S3150800AA60183007AB07CA83E807000AAB15AA07CA56
S3150800AA7083E807009DF860308DF834301BB19DF8E7
S3150800AA8061308DF835309DF8623000228DF8363009
S3150800AA9001238DF83830EB68DB6869461868FFF7DC
S3150800AAA02BFECDE73A46D8F80C30F6E706A70D0890
S3150800AAB02DE9F84391F8387004460E464FF0000821
S3150800AAC00FB191F83980002504F10809484691F03C
S3150800AAD047FB31464846256091F057FB84F840709D
S3150800AAE00FB184F84180074BA4F85050A36484F84A
S3150800AAF0905084F8D05084F8D85084F8DA5020461C
S3150800AB00BDE8F883980502202DE9F04190F9343024
S3150800AB1006460133A6B003D1002026B0BDE8F08171
S3150800AB200368002BF8D100F10808404691F0BCFEF6
S3150800AB30074630600028EFD1204C0146942201A830
S3150800AB400094BCF0AFFCB06C04AD03689B689847F2
S3150800AB500FCDB46406F15804A6F850700FC40FCD93
S3150800AB600FC40FCD0FC495E80F0014AD84E80F008D
S3150800AB700FCD06F198040FC40FCD0FC40FCD0FC427
S3150800AB8095E80F0084E80F00684686F8D87086F8BE
S3150800AB90DA7077F026F9414606F1480087F07EFF1D
S3150800ABA030600028B8D196F840302BB1B06C96F8D2
S3150800ABB041100368DB6998470120AEE79805022033
S3150800ABC0F0B5CFB007460E460D7AFFF7A3F9006831
S3150800ABD038B1036829465B6A03AA984718B1044640
S3150800ABE01EE00320FBE7FFF795F904A9006878F053
S3150800ABF068F90446A0B9BB7B012B00F2838006A83E
S3150800AC0091F0AEFA2246214606A891F0ECFA3046B3
S3150800AC1006A98DF8504078F093F9074618B104460E
S3150800AC2020464FB0F0BD9DF94430013321D105903F
S3150800AC3006A916A8FFF73CFF16A8FFF765FF28BB6D
S3150800AC40169C28A8212C2BD177F0CBF806A916A894
S3150800AC50FFF72EFF06F1080416A8FFF755FF20BBDD
S3150800AC60169C212C4CD0002C4AD028A877F0B9F88D
S3150800AC70D6E705A906A891F07FFE0028AFD1DDE941
S3150800AC8004329A42D4D940F28954C9E728A8FFF772
S3150800AC9001F80028D0D128A877F0A3F82F24BFE719
S3150800ACA077F09FF8002CBBD1D0E7039BBB420BD9AA
S3150800ACB0FFF730F928AB00932A463B46214677F042
S3150800ACC02BF958B10446D0E7FFF724F928AB0093CF
S3150800ACD02A460023214677F0D6F8F2E70137BBE784
S3150800ACE0013B0393FFF716F92A463146039BFFF704
S3150800ACF0CDF80028E6D1039BBB42F1D80024B4E77F
S3150800AD000836F8E7042B2FD1039B049A01339342A4
S3150800AD10B9D8164BADF86000169301233371337A10
S3150800AD208DF8A0008DF8E0008DF8E8008DF8EA00AF
S3150800AD3016AFB3B13846316887F0B0FE044670B92D
S3150800AD40169816F8081F0368DB699847FFF7E2F8B4
S3150800AD5023462A463146009777F095F80446384642
S3150800AD6084E740F27E54FAE76C2459E798050220F6
S3150800AD70F0B517690E460446194685B0BFB902F103
S3150800AD800800FFF71DFF2F28034613D0D82811D037
S3150800AD900B2819D000228DF80C20039A2046009221
S3150800ADA031463A4687F0AAFC204605B0F0BD4FF476
S3150800ADB0B163EFE7872501210D20044A009593F03A
S3150800ADC0E2F945F4A063E5E78925F4E72DA70D0820
S3150800ADD0034B53F81C09002818BF1846704700BFD4
S3150800ADE06043012008B50C4802680AB1BCF023FA92
S3150800ADF01F21A0F11C0340E905120849C3E90732DF
S3150800AE0040F81C1C483140F8182C40F80C2C40F827
S3150800AE10042C40F8081C08BD604301204CA70D0807
S3150800AE207FB5094B1F2201934FF00113CDE9032388
S3150800AE300023ADF8080001A902A8ADF814308FF078
S3150800AE408FF907B05DF804FBDCA70D0808B50248C2
S3150800AE5078F0B1F808BD00BF44430120024A03490F
S3150800AE600348BBF0C1BB00BF10050220E12F08084C
S3150800AE704443012000B5084B89B004930323059386
S3150800AE800023039204490322009303A887F0B9FB21
S3150800AE9009B05DF804FB00BF44A80D081046024936
S3150800AEA0022293F0B1BA00BF34A80D087FB516691F
S3150800AEB00546022E1C464DD008D826BB364887F0D4
S3150800AEC04FFF032865D0CDE9020610E04FF6FC7364
S3150800AED09E4208D04FF6FD739E4212D08622012369
S3150800AEE0C0E900230AE000220023CDE90223204618
S3150800AEF002A978F0D0F8002328602B71284604B000
S3150800AF0070BD0122F0E70123216884F8443004F17A
S3150800AF102802236C02A877F095FC0028EBD1236859
S3150800AF20186C1E4B93F8A12422B90222002391F033
S3150800AF30FAFF08E093F8A034FF2B2AD000930222E8
S3150800AF40002391F076FF0028D5D1216802A877F072
S3150800AF50B1FCD0E70123216884F8443004F12802C3
S3150800AF60236C02A877F06EFC0028C4D12368186CFD
S3150800AF700A4B93F89E24002AD7D04FF6FF72B3F8EF
S3150800AF809C34934205D000930222002391F05CFF83
S3150800AF90D9E740F28750AEE7A8A3002060A70020B3
S3150800AFA02DE9F04317460221314AA1B004461D2077
S3150800AFB01D46B3F8009093F0E6F839462D488BF015
S3150800AFC0BFF8804608B92C4B20E02C4E96F8FC3486
S3150800AFD0DBB996F8FD34C3B9A6F56E7087F0C6FEE0
S3150800AFE098B92B69B3F57A7FEDD3254A9342EAD807
S3150800AFF0AB690F2BE7D9202BE5D8A6F56E7087F03D
S3150800B000ACFE814509D9852300E01E4B2360012348
S3150800B0102046636021B0BDE8F083A6F56E7078F02F
S3150800B0205AF88145EFD3AB89B3F5805FEBD2291D7A
S3150800B03007A88EF097FB0028C5D1B8F88230CDE96D
S3150800B040037301ABD5E9050183E803002B6949467B
S3150800B0500093AA890C4807AB87F056FF05460028D7
S3150800B060B1D102211D20094A93F08DF82560CEE75B
S3150800B0705CA80D08409D00200103010060A7002080
S3150800B080A086010001020100A8A300208AA80D08D5
S3150800B09010B50221104A04461D2093F074F80F4893
S3150800B0A00CF0CCF80E4887F061FE50B901211D203E
S3150800B0B00C4A93F068F80C4B236001236360204622
S3150800B0C010BD074810F018FE02211D20074A93F00C
S3150800B0D05AF80023F0E700BFABA80D085CAC0020C7
S3150800B0E0A8A30020DAA80D080104010005A90D0887
S3150800B0F0034B53F81809002818BF1846704700BFB5
S3150800B1008043012008B50B4802680AB1BCF093F8E1
S3150800B11020F8141C3C21A0F1180340E90412C3E9E5
S3150800B1200632054900F8122C40F8082C40F8181C7D
S3150800B13008BD00BF80430120F8A70D087FB578B980
S3150800B140094B3C2201934FF00113CDE90323012358
S3150800B150ADF8080001A902A8ADF814308FF000F880
S3150800B16007B05DF804FB00BF30A90D0808B5024812
S3150800B17077F0C2FF08BD00BF68430120024A0349B1
S3150800B1800348BBF031BA00BF100502202331080876
S3150800B1906843012030B59BB0044615460A49482243
S3150800B1A008A8BCF03BF8094B0E2204930E2305931E
S3150800B1B0A36906490193092303A8009308AB0395DD
S3150800B1C087F0CEF91BB030BD50AA0D08E0A90D08CE
S3150800B1D0044B00F114025968914204BF00225A60D8
S3150800B1E087F055BAA8BF002030B5C3688FB0E3B161
S3150800B1F0DB6800251C680E4B0AA9089307AB099360
S3150800B2002823CDE90A5301230C93022302A8ADF89B
S3150800B2103430224608AB00950BF03CFB23682046E9
S3150800B2209B68ADF828500A9998470FB030BD00BF03
S3150800B230D4A90D0800B5C3688FB0A3B1DB68079120
S3150800B2401A680A4B2821089307AB09930023CDE90E
S3150800B2500A3102210C93ADF8341000930AA908AB01
S3150800B26002A80BF017FB0FB05DF804FBC0A90D0888
S3150800B27070B588B005460C4687F01BFA20BB134B01
S3150800B280A268596811B905F114015960002405230B
S3150800B2902826049205A905F11C0204A80793CDE9FE
S3150800B2A005460DF075FF10230793012305F14402A7
S3150800B2B0009305A90DF10F0304A8CDE905468DF8FD
S3150800B2C00F4085F08CFC204608B070BDA8BF002052
S3150800B2D000487047884301202DE9F043A1B0914604
S3150800B2E01D46884604461EF003FA064623F0B0FFBC
S3150800B2F0D9F810300746182B1CD8182B22D8DFE8A7
S3150800B30013F05F0080008D009A00A4003C006400E2
S3150800B310AA00B000BA00C500DC000E0117011F0123
S3150800B32027015900B3012F014C016E01AA01AC0196
S3150800B3302100AE014FF6FC72934208D04FF6FD721B
S3150800B340934209D086220123C4E900230FE0002195
S3150800B350284678F04DF8DEE0D8F8186016F480260E
S3150800B36009D10321284678F043F826712060204643
S3150800B37021B0BDE8F0830521EAE7D8F81C3098F833
S3150800B380202023B90AB1BBF056FF1378FFDE13F865
S3150800B390011B013AFF29D2B20F9302D10023109361
S3150800B3A003E08A4294BF109210910FA9284677F0BD
S3150800B3B084FFB0E008F14401284677F0D1FFAAE0FF
S3150800B3C01321284678F007F8A5E0AA4B0BAEB3F888
S3150800B3D048300322ADF82C3000238DF82E300D931B
S3150800B3E003683146D3F824800DABC04738B90D9AA7
S3150800B3F0A14B022A18BF1E4602230F96CFE79E4E80
S3150800B400FAE701234FF008090122CDE90393082141
S3150800B41000230095304677F074FF7CE00023ADF8F2
S3150800B4203C303368DB6830460FA99847002872D14C
S3150800B430BDF83C10C5E701234FF010080122CDE9FD
S3150800B4400583102100230095E4E70023ADF83C307E
S3150800B45033685B69E7E70023ADF83C303368DB6A9D
S3150800B460E1E701234FF0300E0122CDE907E3302151
S3150800B47000230095CEE700230F9303681B6938461F
S3150800B4800FA99847002846D10F9961E700213D2268
S3150800B49010A80F91BCF006F83B680FAE4122314662
S3150800B4A03846DB689847002835D140213046BBF03E
S3150800B4B0EEFE0DA9CDE90D6078E700210D2210A852
S3150800B4C00F91BBF0EFFF336830469F6A07AA09ABB6
S3150800B4D00BA9B84740F20123984201D06C2818D12D
S3150800B4E040F2E473ADF82C3001238DF81C308DF84A
S3150800B4F024309DF824300FAE01939DF81C3011219D
