S03500004C692D4261745F4D61747465724C696768745F45465233324D473234423031304631353336494D34302D66756C6C2E733337A5
S315080000000810002071010008E73D00086127000874
S31508000010E73D0008E73D0008E73D0008E73D000822
S31508000020E73D0008E73D00089C400008E73D00085A
S31508000030E73D00084C400008E73D0008E73D00089A
S31508000040E73D0008E73D0008E73D0008E73D0008F2
S31508000050E73D0008E73D0008E73D0008E73D0008E2
S31508000060E73D0008E73D0008E73D0008E73D0008D2
S31508000070E73D0008E73D0008E73D0008E73D0008C2
S31508000080E73D0008E73D0008E73D0008E73D0008B2
S31508000090E73D0008E73D0008E73D0008E73D0008A2
S315080000A0E73D0008E73D0008E73D0008E73D000892
S315080000B0E73D0008E73D0008E73D0008E73D000882
S315080000C0E73D0008E73D0008E73D0008E73D000872
S315080000D0E73D0008E73D0008E73D0008E73D000862
S315080000E0E73D0008E73D0008E73D0008E73D000852
S315080000F0E73D0008E73D0008E73D0008E73D000842
S31508000100E73D0008E73D0008E73D0008E73D000831
S31508000110E73D0008E73D0008E73D0008E73D000821
S31508000120E73D0008E73D0008E73D0008E73D000811
S31508000130E73D0008E73D0008E73D0008E73D000801
S31508000140E73D0008E73D0008E73D0008E73D0008F1
S31508000150E73D0008E73D0008E73D0008E73D0008E1
S31508000160E73D0008E73D0008E73D0008E73D0008D1
S3150800017008B50D4B83F30A880C4B09A1D1E9000198
S31508000180C3E9000101F0B2FF01F0A2FF00F0F0F9A7
S3150800019001F078FF01F08AFF02F0E6FAAFF300807B
S315080001A0A5EDF5FEA5EDF5FE0800002008100020D7
S315080001B00348044B834202D0034B03B118477047E8
S315080001C0DC5D0020DC5D002000000000064B0749CE
S315080001D0C91A891048BF0131491003D0044B0BB125
S315080001E001481847704700BFDC5D0020DC5D002031
S315080001F00000000010B5064C237843B9FFF7D8FF76
S31508000200044B13B10448AFF300800123237010BDDB
S31508000210C85D0020000000008842000808B5054BAC
S315080002201BB105490548AFF30080BDE80840FFF754
S31508000230CDBF00BF00000000101000208842000853
S3150800024070B44FF00065AD6A03462E69864209D838
S315080002506C6913449C4205D3034CA34202D870BC74
S3150800026002F024BA70BC704700A00E08B0F5BB1F98
S3150800027070B50E46144619D2C0F5BB1300F10065D9
S31508000280934205F5004511D348B94FF000639B6AC0
S31508000290074A5969914202D9186900F02FFA22468D
S315080002A031462846BDE8704002F000BA70BD00BF6E
S315080002B0008000087FB56FF0006200F17841914236
S315080002C0034619D26D460D4A02F110062C461068EF
S315080002D05168083203C4B2422546F7D15A1E04A90A
S315080002E00F3311F8014D12F8010F844204D19A42D6
S315080002F0F7D1012004B070BD0020FBE738400008A4
S31508000300F0B50368044603F16043B3F5802F9FB048
S3150800031031D84FF00067BB6A42681E6996422AD8F0
S315080003202E4B9A4227D8456B06F14002AA4252D86C
S315080003309D4250D82846FFF7BDFF00284BD02846D7
S3150800034002F0D6F980B16B6973B1022B0ED1AB6995
S31508000350C4F1040119444FF0FF32204601F082F936
S315080003601F4BC31A584258411FB0F0BD7F6B384621
S31508000370FFF7A0FF08B90020F6E7A6F150039F4251
S31508000380F9D8284603A902F0BAF90028F3D0039D44
S31508000390AE42F0D8AC42EED8124B9D42EBD804A838
S315080003A001F024FA21462A1B04A803F011FC04A82C
S315080003B003F010FC01F02AFA044601F045FA234638
S315080003C00090294605F1200204A801F08FF9B0FA39
S315080003D080F04009C8E70120C6E700BF00001808FA
S315080003E0E320BBDE00A00E0870B54FF0FF3292B0D6
S315080003F005460C4601F036F91C4B984232D14FF4AB
S3150800040080621B4B00219A6601A8202203F059FD41
S31508000410184B29466846043C009303F0C6FD21465E
S31508000420684603F0C2FD684603F0C8FD03F086FD82
S315080004300646B8B940F2022000F00CF920223146EF
S315080004400AA803F03EFD0C4B294609A8099303F0B8
S31508000450ACFD09A8214603F0A8FD09A803F0AEFDE6
S3150800046003F06CFD002012B070BD00BFE320BBDEB8
S315080004700090004001000543010006434FF48062E6
S3150800048030B50446154B93B09A660021202201A880
S3150800049003F017FD124B21466846009303F085FDCD
S315080004A0684603F08BFD03F049FD054698B940F20E
S315080004B0022000F0CFF8202229460AA803F001FD01
S315080004C0084B09A82146099303F06FFD09A803F014
S315080004D075FD03F033FD002013B030BD00900040D9
S315080004E000000243000003434FF4806210B50F4B2F
S315080004F08CB004469A660021202204A803F0E1FC89
S315080005000B4B00940393012301930A4B694603A8F6
S31508000510029303F070FD03A803F050FD03F00EFDEF
S31508000520B0FA80F040090CB010BD00BF0090004042
S3150800053000000843040000200048704700800008B7
S3150800054038B50C46054680B179B100230B60074BD8
S31508000550036003F0F8FB01301EBF2B6843F4C04369
S315080005602B60236843F40023236038BD0C1200086F
S31508000570012307B58DF806308DF807304FF0402374
S31508000580D3F894305A060FD500F0A2F8A0F202204C
S3150800059080B2072808D8C923C340DB0742BF002317
S315080005A08DF806308DF80730154B5B68013308D196
S315080005B04FF4027000F04EF800238DF806308DF8DF
S315080005C007309DF807305BB10D48FFF799FE8DF8A7
S315080005D006009DF806301BB94FF4027000F03AF891
S315080005E09DF806304BB100F027F808B100F01CF86A
S315080005F00348044B986002F0A9F803B05DF804FBC1
S315080006000060000800ED00E04CF23C32014B5A80D5
S31508000610704700BF000000204AF6C032014B5A80DE
S31508000620704700BF000000204FF20F02014B5A80AE
S31508000630704700BF000000204AF6C030044B5B88B4
S3150800064023F00F039BB21B1A58425841704700BF4C
S3150800065000000020044A08B51080FFF7EDFF10B926
S315080006604FF20F03538008BD0000002008B5FFF7BE
S31508000670E3FF18B1024B588800F00F0008BD00BF11
S315080006800000002008B5FFF7D7FF48B1054A538890
S3150800069003F00F010F2914BF013323F00F03538012
S315080006A008BD00BF0000002008B5FFF7D3FFBFF361
S315080006B04F8F0549054BCA6802F4E0621343CB60C5
S315080006C0BFF34F8F00BFFDE700ED00E00400FA0519
S315080006D04FF20F01084B5A888A4201D11888704791
S315080006E03AB91B8840F20220012B18BF4FF400705C
S315080006F070474FF400707047000000204FF48032B6
S3150800070008B5044B9A6601F06DFDB0FA80F0400911
S3150800071008BD00BF00900040072BF8B506460F46F7
S3150800072014461D4601D90020F8BD0121202001F0FC
S31508000730EBFC0121212001F0E7FC8CB144EA060319
S315080007409B07F0D14FF48032064B31469A6628460D
S3150800075023463A4601F0AAFDB0FA80F04009E3E7DD
S315080007600120E1E700900040134610B562B103434B
S315080007709B070BD14FF48034054B9C6601F05AFD5C
S31508000780B0FA80F0400910BD0120FCE70020FAE726
S31508000790009000402DE9F04FDFF80C910646D9F895
S315080007A0044088468442924691B072D2D9F80C30F9
S315080007B01F6E4FF000632744041B944228BF14465B
S315080007C09B6A3D1A03A8D3F810B001F09FFBD9F82D
S315080007D00C30D3F88C20304B9A42224654D19DF8DF
S315080007E01430002B50D14146284603F0AFFA331B8C
S315080007F000930BF104012B198B421AD30BF11C0B36
S31508000800AB4516D98D422A4638BF0A46F01BC1F1B8
S3150800081068011044114401939B4594BFC2EB0B0237
S31508000820C2EB0302D9F80C304044194403F012FB1A
S31508000830019B1A4A934216D919498D4213D201329D
S31508000840AA4238BF2A46174DF01BD9F80C60104447
S31508000850154440448B4294BFC2EB0302C2EB01022B
S31508000860711903F0F7FA009E544509D2D9F8041015
S31508000870AAEB0402891B494408EB040003F0EAFAD0
S31508000880002011B0BDE8F08F2946404603F0E2FA91
S31508000890ADE70024E8E700BFF80B0BF80380000873
S315080008A0088000087C80FFF7281000202DE9F04317
S315080008B0284C074665680E4689B07DB1C5F104081F
S315080008C0884528BF884601464246601903F0C2FAA1
S315080008D062684244042A626026D04546A6EB0508AB
S315080008E038F003081CD020220021684603F0E9FAF4
S315080008F0B8F1200FC14628BF4FF0200979194A469A
S31508000900684603F0A7FA4A4669462369E06800F094
S3150800091083FA4D44A8EB090878B9B8F1000FE7D176
S31508000920B5420DD3002008E023692146E06800F0AF
S3150800093073FA002363600028CFD009B0BDE8F083BE
S315080009400023761B324603487919236003F082FA9E
S315080009506660E7E728100020084B10B524220446F5
S315080009600021184603F0ADFA0122C4600272044958
S315080009701430BDE8104001F0A2BF00BF28100020C7
S315080009809507000870B404465868A8B10B4D287A34
S3150800099050B10B48D4F88C6086424FF0000001BF76
S315080009A028720868206604202B61121A0144054B38
S315080009B0054870BC01F091BF70BC70472810002034
S315080009C0FD0505FDAD0800083C100020436D3BB948
S315080009D0D0F88C00034B984214BF04200C207047B3
S315080009E001207047F80B0BF84B6810B50BB90020BF
S315080009F010BD0B4C606868B1C0F10402FF212044A9
S31508000A0003F05FFA236904222146E06800F004FA3D
S31508000A1000236360A37F1E2BE9D041F20230E7E78B
S31508000A20281000200A4B186830B9B1F5205F0DD898
S31508000A30012208481A607047012806D1B1F5005FFF
S31508000A4003D8022204481A6070470020704700BF86
S31508000A504C100020C8350020C815002031B1044AC2
S31508000A601368002BC4BF03F1FF331360704700BF40
S31508000A704C10002002232DE9F04F88461646002721
S31508000A808BB0DFF8C490DFF8C4A005908DF81F304E
S31508000A909DF81F20022A07D0002E48D041F20231C5
S31508000AA0012A18BF0F4642E0D9F80010234DC1F5B8
S31508000AB040730893DAF80030214809930DF11F03B3
S31508000AC002930023019309AB009308AA1D4B2944FE
S31508000AD002F021FF9DF81F3038BB63B3089BD9F895
S31508000AE0004029461C4424F0030B43465A46059801
S31508000AF000F092F914F00304074605D0224628466A
S31508000B0005EB0B0103F0C3F9DAF800200999C9F8D7
S31508000B1000408A42A2EB010404D90A48224601444D
S31508000B2003F0B5F9CAF80040B2E741F20337384690
S31508000B300BB0BDE8F08F41F20237F8E7C410002089
S31508000B4050100020C8130020C0100020C413002035
S31508000B5008B570220021064803F0B3F901220020E7
S31508000B60044B1A70044B1860044B186008BD00BF8C
S31508000B7050100020C95D0020C0100020C4130020BA
S31508000B802DE9F84399465B6806468846144643B3FA
S31508000B901E4B1D78A5B100221A7051F8043B052298
S31508000BA003661B4B1B4800F077F860BB194802F038
S31508000BB09FFDD6F88C50184B9D4214BF1125192558
S31508000BC0164F641B3B68C3F50073A3420CD33E68FB
S31508000BD013482246304408EB0501264403F03AF947
S31508000BE03E600020BDE8F883002249463046FFF7FC
S31508000BF041FF0028F6D13B68C3F50073A342E6D24D
S31508000C0041F20430EEE741F20530EBE7C95D00201A
S31508000C10CC5D002050100020F80C0CF8C4130020FE
S31508000C20C8130020436D3BB9D0F88C00034B98429B
S31508000C3014BF11201920704701207047F80C0CF8D2
S31508000C404B6870B505460C46E3B10122FFF712FF63
S31508000C50C8B90D4B186888B10C4E0428C0F10402B7
S31508000C604FF0FF0188BF0022304403F02AF92346DB
S31508000C7004223146284600F0CFF820B90449054831
S31508000C8002F0C5FE002070BDC0100020C410002070
S31508000C90CC5D0020501000202DE9FF41E8460446AF
S31508000CA040461E4602F0BFFE054660BB3246414638
S31508000CB0204602F08BFE054628BB039AB2F1804F08
S31508000CC025D240F6FF731649B2F5800F28BF0B46AA
S31508000CD09F1827EA03076169974238BF174611B17B
S31508000CE0A36ABB4215D03046736898470023394635
S31508000CF06361304633689847606150B9314620468B
S31508000D0002F05BFE0225284604B0BDE8F081054BDB
S31508000D10DEE798E80F00A76284E80F00F3E700BF54
S31508000D20FFFF0F00FFFF3F000068064B984207D001
S31508000D3003F5003303F50073C31A58425841704748
S31508000D4001207047FD0505FD094B98420BD003F5B8
S31508000D50003303F50073984207D10123142205488E
S31508000D6002FB030070470023F8E70020704700BF26
S31508000D70FD0505FDE440000830B5024600230C25B4
S31508000D80054905FB03F460180C59944203D0013356
S31508000D900E2BF6D1002030BD0C410008F0B500231B
S31508000DA0082787B0CDE9013315463B46009704AAC4
S31508000DB0044602F07BFE41F203039842064623D11D
S31508000DC094F8433053B13A46E06C04A902F000FFA8
S31508000DD004AA3B461146A06C02F0E9FE059A049B5C
S31508000DE06A6094F843202B6052B9094A934207D0A7
S31508000DF0084A934204D00822E06C04A902F0E8FEEF
S31508000E006B68236500236365304607B0F0BD00BFF5
S31508000E10F70A0AF7FC0404FC2DE9F04799465B68D3
S31508000E2004460F469046002B3FD08B0740D14FF023
S31508000E3000639B6A006E1B6981181D1DA9421BD39E
S31508000E401C33984218D2A842024638BF2A4699420D
S31508000E5094BFC2EB010AC2EB030A101A3E18C5F189
S31508000E606800104431465246204402F0F3FF5246C9
S31508000E70FF21304603F025F8226E0F4B9A420BD815
S31508000E800E4902EB0800884206D39B1AFA58C4F8A2
S31508000E9080204FF0FF32FA50D9E9003542463946EC
S31508000EA0206EA847236E434423660020BDE8F087DA
S31508000EB041F20200FAE700BF048000080880000833
S31508000EC02DE9F04100254FF0FF37044688461646BF
S31508000ED003F0200380F842301822FF21C0E9185594
S31508000EE0A0F8405080F84350A0F8445080F8465087
S31508000EF0C0F88870683002F0E4FF88222946C4E901
S31508000F001286C4F88070C4F8847004F1900002F068
S31508000F10D8FF074BC4F82071C4E946350123A4F865
S31508000F20243116B1304600F061FC0020BDE8F0819E
S31508000F30000101012DE9F04F9DB0CDE90923059384
S31508000F40002304460E464FF00109269D0B930B9A83
S31508000F50059B9A4201D3002023E194F84630142BCE
S31508000F60F6D8DFE813F0B800FD00F7009100780026
S31508000F706D01C9017800C101780037007800C10108
S31508000F800803780315006301B902B9024C02760317
S31508000F900027636D0F2B00F2E18010232046009393
S31508000FA0CDE9019740230CAA09A902F07FFD41F279
S31508000FB00303984240F0A380D4F8488000F062FC0E
S31508000FC080230221CDE900030DAA0123404600F043
S31508000FD061FBDEE7DFF8C4A3636D072B00F23D81F2
S31508000FE038234FF008080DEB03022046CDE9019996
S31508000FF0CDF8008009A902F059FD41F20303984291
S315080010007DD1337843F0040333700F9BB362737852
S315080010105B071CD50020236DCDF830A0C4F88430BA
S3150800102094F84530606643F0020384F84530EF686B
S315080010306FB104222B680CA9B847606E2B6842462C
S31508001040EF680EA94044B847636E103363660B23F6
S3150800105084F84630C0E74FF00108D4E914739F427C
S315080010607CD9FF1ADDE90A329B1A94F84020032F2F
S31508001070134440F24581032B00F27581204609A9E5
S3150800108002F0F3FC00203AE00127636D072B00F21B
S31508001090E480082320460093CDE9017740230CAA73
S315080010A009A902F003FD41F20303984227D13378D8
S315080010B043F0020333700C9B7360236D083B736225
S315080010C00D9BB3F1006F00F0EF80142384F84630CF
S315080010D041F2010013E020460CAA09A9FFF75EFEBB
S315080010E041F2030398420AD10D9B0C9A236500230B
S315080010F06365A84B9A42E8D1022384F8463041F248
S3150800110003030790079A9A423FF421AF48E0082361
S3150800111020460093CDE9019740230CAA09A902F0BD
S31508001120C5FC41F203039842E9D10C9B03F07F43C7
S31508001130B3F1407F05D0142341F2090084F8463004
S31508001140DDE70D9BD90706D594F8423043F0010335
S3150800115084F842300027636D072BD8D90123C8E0ED
S3150800116020460CAA09A9FFF719FE41F20303984283
S31508001170804609D10C98FFF7FFFD0746A0B914234E
S3150800118041F2080884F8463041F20303CDF81C8082
S31508001190079A9A423FF4DBAE079B0BB10023F37024
S315080011A007981DB0BDE8F08F437994F825219A4237
S315080011B005D9142341F20E0884F84630E4E701689D
S315080011C0754A914205D00289D20748BF013384F88F
S315080011D0253194F84230D8070DD53A8994F843302A
S315080011E0910706D53BB1142384F8463041F201082D
S315080011F0CAE7002BF7D00CA8FFF796FD18B93B797C
S3150800120084F84630C0E70C98C4F88C00FFF79CFDBC
S3150800121094F842309A06F2D50028F0D04368002B9D
S31508001220EDD0204698470028E9D0DFE7226D012354
S31508001230A265002284F84330E26584F8463086E6E3
S3150800124000213C220DA80C91012702F03AFED4E9B0
S315080012501432934204D884F8467041F203004EE7EC
S31508001260009320464023CDE901770CAA09A902F08C
S315080012701DFC41F2030398427FF441AF0DF1300C97
S3150800128006F108030DF1480E624603CA7245186056
S315080012905960944603F10803F6D11068186033784C
S315080012A043F001033370D2E7042384F8463094F8F8
S315080012B0453043F0010384F8453000236366E4E6CD
S315080012C0042320460093CDE9017740230CAA09A9F7
S315080012D002F0ECFB41F2030398427FF410AF226D53
S315080012E00C9B042A01D923660127636D032BE7D9D2
S315080012F0092384F84630B0E70023636607239CE792
S315080013009F423FF6BBAE9F4228BF1F46402320465A
S31508001310CDE9018800970CAA09A902F0C7FB41F29A
S31508001320030398427FF4EBAE94F846B0BBF1070F7F
S3150800133022D0042FC7F1040A88BF4FF0000A0CAB6D
S315080013405246FF21D81902F0BCFDBBF1090FBA4479
S3150800135026D12B46524620460CA9FFF75DFD0028EC
S315080013603FF47BAECBE6402F28BF40279F4228BFDD
S315080013701F4627F00307C9E7D5F808A0BAF1000FFA
S31508001380D7D02B683A46606E0CA9D047636E3B44AB
S31508001390636662E6EB17A603F90707F9EB17A65E7D
S315080013A0BBF1040F1FD173789F077FF556AEEB6824
S315080013B0002B3FF452AE626E042A0BD80AEB0203E6
S315080013C0062B07D90DAB9B1A1A68C4F884204FF070
S315080013D0FF321A60EF682B685246606E0CA9B84750
S315080013E0636E5344D4E7BBF10B0F7FF436AE7378C4
S315080013F058077FF532AEEF68002FECD12DE694F84A
S31508001400427017F0200707D0D4F88C00FFF79CFC31
S31508001410074600283FF45CAE4FF0010A41E0002B76
S3150800142058D0002F56D03B69002B53D020469847FA
S31508001430DDE90A329B1A94F8402013448342FFF4EC
S315080014401DAED4E91421A2EB0108B8F1400F28BF5C
S315080014504FF04008984528BF984620464023CDE9D6
S3150800146001AACDF800800CAA09A902F01FFB41F2D7
S31508001470030398427FF443AE94F84230990610D598
S31508001480002F3FF425AED7F808B0BBF1000F3FF4A4
S315080014901FAE2B46424620460CA9D84700287FF4A3
S315080014A02EAED4E9142194F84230914203F0200379
S315080014B0B5D3002B3FF452AE002F3FF44FAEFB6876
S315080014C0002B3FF44BAE29462046984700283FF4A8
S315080014D045AE14E60120ABE74FF000618A6A496B16
S315080014E01269503A91423FF6F3AD112B0AD194F89E
S315080014F01831002B7FF432AE142341F2060084F82B
S315080015004630FCE594F84430002B7FF427AECDE94D
S3150800151001334023204600930CAA09A902F0C6FA13
S3150800152041F2030398427FF4EAADE06C02F052FB05
S3150800153094F818316BB104F1B4030093E06C04F12C
S31508001540940314AA0CA900F0D1F878B10023F3701B
S31508001550D2E7D4F84C8000F059F9074600F074F940
S315080015603B46009014AA40460CA9ECE70123F37009
S3150800157084F84430F2E500234FF00408CDE901333E
S3150800158020464023CDF800800CAA09A902F08EFA5D
S3150800159041F20303984209D1D4F888202F4B9A4286
S315080015A006D0142341F2050084F846300790F7E583
S315080015B00123F37094F84530DA0707D5EF682FB1A1
S315080015C0424640462B6804F18401B84794F84530F2
S315080015D09B0707D5EF682FB104222B68104604F144
S315080015E08401B847236E6BB36F685FB34FF0FF3360
S315080015F004F180080422414608A8089302F037FC43
S3150800160020B1042241462B681548B84704F16809F9
S315080016100422494608A802F02AFC98B14FF0006354
S315080016209B6A1422D3F8108004F16C0108F10800B3
S31508001630D5E90037B847D5E900370422494608EB0B
S315080016400200B8470123B3700E23002084F8463001
S31508001650ACE70023F37041F20700A2E5E320BBDE06
S315080016600480000830B50824094B00255C6601246F
S3150800167003F5FE235C6001449D601A61DC608842C4
S3150800168001D1586A30BD10F8012B1A62F7E700BF7E
S31508001690009000402DE9F04116464FF480621D4641
S315080016A0114B00F1200804469A6640460F4602F0A0
S315080016B0A8FBDDE90612404602F0A7FB002384F8E2
S315080016C0587063643368C4F859307368C4F85D3079
S315080016D0B368C4F861302B0C6DBA84F86530A4F889
S315080016E06650BDE8F08100BF009000402DE9F04348
S315080016F015464FF480621C46364B9BB0DDF8889041
S315080017000E4607469A66002861D000295FD0002D4C
S315080017105DD0002C58D0304B304AB9F1000F14BFB9
S31508001720984690462022002112A802F0CAFB2C4BAC
S31508001730414611A8119302F038FC202111A802F0A5
S3150800174034FC0122274B029403920493CDF814909B
S315080017500692079354B1B9F1000F07D002A911A850
S3150800176002F06EFB05A911A802F06AFB089701278B
S315080017701C4C08A911A809970A9402F061FB0BA949
S3150800178011A80B960C970D940E950F97109402F0CE
S3150800179057FB0EA911A802F053FB11A802F00EFC84
S315080017A0114B01934FF098435A6CD202FCD55B6DEE
S315080017B040F2046003F470230193019B002B08BFD9
S315080017C000201BB0BDE8F083DFF81080AAE740F2DE
S315080017D00160F6E7009000401F2400801F24FC8467
S315080017E00000010620000020785634124FF480626B
S315080017F010B50446044B9A6602F0EFF92046BDE898
S315080018001040002102F0EDB9009000404FF48062CC
S3150800181000B50B4B9BB09A6600212822684602F059
S3150800182050FB4023002168460AAA00F007FF20F073
S3150800183010000128034818BF00201BB05DF804FB00
S31508001840009000404CE317084FF4806200B50B4B3C
S315080018509BB09A6600212822684602F032FB402394
S31508001860002168460AAA00F0E9FE20F010000128C7
S31508001870034818BF00201BB05DF804FB0090004029
S315080018806CE317080048704786E217082DE9F34706
S315080018901446DDE90A920D461F4600284DD14CB381
S315080018A013683F2B2AD8516851B32549002F14BF16
S315080018B0B846884603F03F061B19136022BF5368D3
S315080018C001335360FEB93F2C0ED9A3092A4600936B
S315080018D041463B46002000F083F824F03F031D44B0
S315080018E004F03F0434B100262246294609EB0600D7
S315080018F002F0B0FA002002B0BDE8F087B846D9E792
S31508001900DFF83C80D6E7C6F1400A5445ECD32946B1
S31508001910524609EB060002F09DFA0123264400937D
S315080019204A463B4641460020A6F1400400F058F8D6
S315080019303F2C5544D6D9B846C7E70248DBE700BF6F
S31508001940F441000880AFFFFF2DE9F04117461468FF
S3150800195086B01E46E3008DF80F3063098DF80E3009
S31508001960630B8DF80D30630D8DF80C305368054602
S31508001970DA0002EB54728DF80B2004F03F045A0982
S31508001980372C8DF80A204FEA53324FEA53538DF815
S315080019900920884694BFC4F13802C4F17802CDE91B
S315080019A000178DF808300D4903460020FFF76EFF33
S315080019B008222B460020CDE900870DEB0201FFF730
S315080019C065FF284605F1200350F8042B984246F88F
S315080019D0042BF9D1002006B0BDE8F081B441000817
S315080019E0F0B517464FF480621D46264B93B09A66AB
S315080019F024220E46044600210DEB020002F061FA8D
S31508001A0001204FF00052009701900292039604902D
S31508001A100592069507900892002C2FD1189C1A4B10
S31508001A20A401214609A8099302F0BFFA029B03A95B
S31508001A301C430294059B09A843F020030593089BC1
S31508001A4043F02003089302F0FBF9694609A802F05F
S31508001A50F7F906A909A802F0CEFA09A802F0AEFA23
S31508001A604FF098435A6CD202FCD55B6D13F4702F75
S31508001A7014BF6FF06F00002013B0F0BD6FF0710057
S31508001A80FAE700BF00900040000401032DE9F04189
S31508001A90A2B0502204460D460EA8002102F011FA03
S31508001AA03422002101A802F00CFA01A800F02EFA4F
S31508001AB0049B012B11D8002320466A1E9D424FEA3B
S31508001AC082024FF0FF0108BF1A4640F8043B02F0B5
S31508001AD0F8F9002022B0BDE8F081AB425DD300F0F2
S31508001AE01FF9059B0C220EA90646DF6802F02EF99F
S31508001AF00028EFD1DFF8AC800E9B434515D1109A2C
S31508001B000EA9304602F022F94FF0FF3210990EA8BE
S31508001B10FFF7A8FD224B98422ED0FF212046AA00A7
S31508001B2002F0CFF940F20650D4E737440C22384683
S31508001B300EA902F00BF90028CCD10E9B434507D01D
S31508001B40FF212046AA0002F0BCF940F20550C1E781
S31508001B500EA93846109A02F0F9F8059B3046D9685E
S31508001B6002F021F90028B5D13046109A0EA902F0E4
S31508001B70FDF80028C3D0ADE7109E11A9103EB6089F
S31508001B80AE4228BF2E46B7003A46204602F062F912
S31508001B90AA1BFF219200E01999E740F2045099E741
S31508001BA0E320BBDE39528FE144222DE9F043A3B08E
S31508001BB00C46814600210DEB020002F082F9012352
S31508001BC050262E4A0021CDE90E2301A8342210966C
S31508001BD002F077F901A800F099F9049BA34249D3CA
S31508001BE0012B0AD8D9F8003040F204500133022BF1
S31508001BF038BF002023B0BDE8F08300F091F8102C20
S31508001C0028BF1024059B4FEA8408DF6842464946E8
S31508001C100744054611A802F01DF9C4F110040EABDD
S31508001C2008F10C001844FF21A20002F04AF94C21E1
S31508001C304FF0FF320EA8FFF715FDC043059B219014
S31508001C40D968384602F0AFF80028D3D1324638466C
S31508001C500EA902F08BF80028CCD1059B2846D96836
S31508001C6002F0A1F80028C5D1324628460EA902F08E
S31508001C707DF8BFE740F20450BCE700BF39528FE158
S31508001C8010B5ADF50E7D4FF40E726946002002F0D0
S31508001C902BF840F201240021684601F0FCFFA0421F
S31508001CA0F9D040F20323984204D040F205400DF5DE
S31508001CB00E7D10BD9DF8003059070ED49DF80030F2
S31508001CC09A071AD4DB07F0D5002203998A9800F000
S31508001CD081F90028E9D00020E9E70A9800F022FDFA
S31508001CE00028EBD08A9800F033F90028E6D00B4894
S31508001CF0FEF7C4FB0028E1D1D7E74FF00062926AED
S31508001D00019992689142DDD98A9800F03FF9002836
S31508001D10CBD009990148FEF767FBC6E700800008A3
S31508001D200048704700A00E0831B10A4B5A68824233
S31508001D3005D80023C1E9003340F20140704701305D
S31508001D4053F8302003EBC0035B6800200A604B6041
S31508001D50704700BF7842000870B40C4611461A4610
S31508001D600D4B5D68854210D9013003EBC0056D68DF
S31508001D70A618AE420DD8A5420BD3954209D353F8FF
S31508001D803000204470BC01F0E1BF40F2014070BC55
S31508001D90704740F20240FAE77842000830B5CA6850
S31508001DA01B4B04469A420D46A3B019D1FEF7C4FB55
S31508001DB0D4F82832174A013352F83330D4F830228F
S31508001DC01344984208D38033984209D241F20D034E
S31508001DD0C4F8343223B030BD00F5C0309842F5D887
S31508001DE08023D4F8301202AAD4F82802FFF7B4FFE9
S31508001DF080232146009502AA04F12C00FFF79AF8E1
S31508001E00D4F83032C4F834028033C4F83032E1E70B
S31508001E106D0200087842000870B50D46002186B0AC
S31508001E200DF1070302931E4B044616461160284619
S31508001E301C22CDE903338DF80710059302F041F80B
S31508001E409DF8072052B994F87230132B06D0D4F8AF
S31508001E5034321BB9D4E98B31994219D323789907BF
S31508001E6044BF61683160DB0709D504F1080304F152
S31508001E70240153F8040B8B4245F8040BF9D162B9D7
S31508001E80237840F20640002B18BF002006B070BD2C
S31508001E90204602A9FFF782FFD2E70020F6E700BF37
S31508001EA0913C000870B40C4611461A460D4B5D6805
S31508001EB0854210D9013003EBC0056D68A618AE42FD
S31508001EC00DD8A5420BD3954209D353F830002044C8
S31508001ED070BC01F04BBF40F2014070BC704740F245
S31508001EE00240FAE778420008074B5A68824207D947
S31508001EF0013003EBC002516853F8300001F053BFBC
S31508001F0040F20140704700BF7842000870B50546A8
S31508001F1088B0C0B14FF4403200236C46C0E90023B4
S31508001F200A4B05F114061A785B680272C3606846A4
S31508001F3000F06EF80FCC0FC694E80F0086E80F0085
S31508001F4005F114032B6108B070BD00BF7842000884
S31508001F5000B5ADF5137D4FF40E7204A901F0C4FE69
S31508001F6078B904238DF81130074BCDE900000290AB
S31508001F70694604A8039301F0CBFE0DF5137D5DF8C1
S31508001F8004FB0020F9E700BF6D0200084FF000636C
S31508001F9000B59B6AADF5137D9B688B4204D3002080
S31508001FA00DF5137D5DF804FB4FF40E7204A901F0DC
S31508001FB09BFE0028F3D102238DF81130044BCDE99E
S31508001FC000000290694604A8039301F0A1FEE7E722
S31508001FD06D02000810B5ADF5127D04AC4FF40E7213
S31508001FE0214601F081FE70B901238DF81130074BA7
S31508001FF00390CDE9013069462046009401F088FE39
S315080020000DF5127D10BD0020FAE700BF4102000859
S3150800201070B504460646044D0FCD0FC495E80F006B
S3150800202084E80F00304670BD584200084FF48032ED
S31508002030014B00209A66704700900040024BD86911
S3150800204000F00100704700BF000003404FF48032E3
S31508002050014B00209A66704700A00040B1F5C01FEA
S315080020600BD800F17843B3F5C01F06D8044B0844D3
S3150800207098428CBF0020012070470020704700BF9F
S3150800208000001808064B0748DA1C121AC11E22F06F
S315080020900302994288BF0022034901F0DBBE00BF54
S315080020A0DC5D0020CC5D002094420008064B074802
S315080020B0DA1C121AC11E22F00302994288BF0022B6
S315080020C0002101F0FEBE00BFCC5D002010100020EC
S315080020D00348044A0449121A921001F085BE00BF4B
S315080020E07001000870010008CC5D0020044B054A09
S315080020F09A60D3F8882042F47002C3F888207047A3
S3150800210000ED00E000000008430905D0012B0CD0C3
S31508002110022B084B18BF002300F01F0039B103F546
S315080021208053012282401A607047034BF4E703F597
S315080021300053F6E76880004064800040F0B5114A15
S31508002140114C124E00F00105E3695F0713D40DB96F
S31508002150334213D103EA00078F4207D10B4A1A40CC
S31508002160002A0CBF00206FF00100F0BD013AEBD148
S315080021706FF00200F9E74FF0FF30F6E76FF0010065
S31508002180F3E700BF809698000000034002000100B4
S3150800219070B5134C6061E3695B071ED40E4656F8AA
S315080021A0043B8D18A361AE420BD1042300212120E4
S315080021B02361FFF7C3FF58B9BDE870402120FFF738
S315080021C0BDBF08210846FFF7B9FF10B104232361F4
S315080021D070BD56F8043BA361E5E74FF0FF30F7E71B
S315080021E0000003404FF4803238B50E4B0E4C9A6609
S315080021F0E56941F6713315400122E3630B4B002173
S31508002200DA600223606121202361FFF797FF10B986
S315080022102120FFF793FF0122054BDA600DB1002359
S31508002220E36338BD009000400000034000100340FF
S31508002230002003402DE9F84315464FF48032184B29
S3150800224089469A6603F51C33DF690646174041F648
S315080022507132DA63012203F58053DFF84C80DA60C5
S3150800226055B9284601220F4BDA601FB10022A3F5A3
S315080022700053DA63BDE8F88306F5005404EA080457
S31508002280A41BAC4228BF2C46494622463046FFF7D7
S315080022907FFF0028E6D12644A1442D1BE0E700BFB6
S315080022A0009000400020034000E0FFFF2DE9F04FBA
S315080022B001264FF430258400DFF8C4C004F1402419
S315080022C004F58024CCF804606560302500244FF4BA
S315080022D08037DFF8B0E0DFF8B09005FB00E5EC6585
S315080022E02C662C67214CDFF8A4A0A76641F671344A
S315080022F01F4F06FA00F0D7F81C80FC631D4CE660F9
S3150800230043B901211C4A18F4803FD16029D1002025
S31508002310BDE8F08F01F5005404EA0904641A9C42EA
S3150800232028BF1C467961D7F81CB0A6081BF0040F15
S3150800233019D1013E360146F060566E66AA66C5F8A2
S315080023406CA0CCF82400DEF834603042FBD00B4E8B
S31508002350214470630426CCF8280022443E611B1BE6
S31508002360CEE7FB63D3E74FF0FF30D1E7009000409C
S3150800237000000340001003400020034000200440F2
S31508002380001004400000044000E0FFFF180003406E
S315080023902DE9F043012905460E46914698469DB01B
S315080023A05BD8046824F04003802B02D0B4F5807F04
S315080023B056D12022002114A801F083FD2B4A2C4B6C
S315080023C0E408012E08BF134613932B1D0A93012315
S315080023D044F000540B930C94264C01AF0AAA07CA82
S315080023E004AE87E80700CDF834900DAA0E930F9433
S315080023F007CA86E80700CDF84080119310AB1294FF
S3150800240007AC93E8070084E80700394613A801F0EB
S3150800241017FD314613A801F013FD214613A801F054
S31508002420EAFD296813A8C90801F0BFFD102113A801
S3150800243001F0BBFD01F04EFDA8B913A801F0BEFDE1
S315080024404FF098435A6CD202FCD55C6D01F04CFDF6
S3150800245004F470201DB0BDE8F0836FF02000F9E7A2
S315080024606FF07100F6E74FF0FF30F3E70001000464
S3150800247000010104100000202DE9F04F07468B46A5
S3150800248098461646A9B082B115683B6823F0400203
S31508002490802A03D0B3F5807F40F0C98000245C45CC
S315080024A005D306B1356000209EE01546EDE75DB11F
S315080024B0339B329A1B5D525D01355340349A05F0C1
S315080024C00F0513550134EAE7ABEB0409B9F10F0F11
S315080024D00CD8339B03EB0409349B1C44339B03EB56
S315080024E00B0AD14540F083805C46D8E7202229466E
S315080024F020A801F0E6FC4F4B3A681F933B1D10934A
S315080025000123D20842F0005211930DF1040C1292E5
S3150800251010AA07CA8CE80700474ACDF84C800DF187
S31508002520100E1493159213AA07CA8EE80700424A9A
S31508002530CDF858800DF11C0E1793189216AA07CAE3
S315080025408EE80700339A29F00F09224449F0005E05
S3150800255019920DF1280A19AA1A93CDF86CE007CA40
S315080025608AE80700349A22441C921D931CAACDF8C7
S3150800257078E00DAB07CA83E8070061461FA801F09B
S315080025805FFC04A91FA801F05BFC51461FA801F0D7
S3150800259057FC0DAB19461FA801F02DFD07A91FA86A
S315080025A001F029FD39681FA8C90801F0FEFC494653
S315080025B01FA801F0FAFC01F08DFC98B91FA801F0DC
S315080025C0FDFC4FF098435A6CD202FCD5586D4C442A
S315080025D000F4702A01F088FCBAF1000F3FF479AFD5
S315080025E0504601E04FF0FF3029B0BDE8F08F55B1F5
S315080025F0329A19F8013B525D0135534004F8013B04
S3150800260005F00F056DE7424601213846329BFFF774
S31508002610BFFE0028E8D108F1100212F8013D013387
S31508002620DBB21370002BE3D19045F6D1E0E76FF0EB
S315080026301F00D9E703030004100000201FB5044655
S3150800264060B35AB3402B29D1930727D1042925D83B
S31508002650DFE801F0031A24221E004FF480731049A4
S315080026600B4323600023C4E901332362012301924B
S3150800267002930C4B204601A9039301F0BCFC2046AB
S3150800268001F03AFC04B010BD4FF400730449E7E7C3
S3150800269005494FF48063E3E70149FAE72120F1E7AA
S315080026A0010008FF40000020000008FFC0F30C03EB
S315080026B02DE9F04105460F4616460BB9FEF71EF8FA
S315080026C005F5005424F4FF5424F01F0405EB06080E
S315080026D0A04507D8324639462846BDE8F0410223C8
S315080026E0FEF71AB82046FEF709F804F50054EFE796
S315080026F0036913F0FE0F0CBF01200020704738B5A0
S3150800270004460D46FDF7D6FD38B16369012B07D19E
S315080027102046FFF7EDFF10B1A46901202C6038BDF3
S315080027200020FCE74FF0FF3313B5044601A80193D8
S31508002730FDF7DAFE20B1019BA3422CBF0020012041
S3150800274002B010BDFFF772BCFFF780BC03461846FF
S31508002750016881F3088881F3098840688746FEE79F
S315080027604FF40170FDF7A0BF4FF04023D3F8842043
S3150800277010B5110606D44FF400621A67D3F8842000
S31508002780D206FBD4FFF7DEFFFDF756FF08B9FDF7C3
S315080027903BFF01F07BFA044658B9FDF74DFF08B137
S315080027A0FDF742FF40F20120FDF77EFF4FF401706E
S315080027B013E0FDF741FF08B9FDF72EFFFDF756FFB9
S315080027C0012802D9FDF720FFFEE7FDF75BFF40F27F
S315080027D005439C42EAD140F20320FDF765FF00203D
S315080027E010BDB1F50E7F10B504460FD34FF40E7227
S315080027F0002101F066FB04F5E07204F5AC7104F102
S315080028002C000023BDE81040FEF75ABB40F2052015
S3150800281010BD13B50446009101462C30FEF78AFB1D
S31508002820C4F8340218B141F20703984204D1A378D8
S3150800283023B1E07800F2022002B010BD40F2012078
S31508002840FAE72DE9F04387B00DF1080904460E466C
S3150800285017460021102248461D46DDF8388001F04B
S3150800286030FB00211C22C8F80010284601F029FB7D
S3150800287032463B462146CDF8009004F12C00FEF77F
S3150800288059FB23789A0744BF6268C8F80020DB071B
S3150800289009D504F1080304F1240253F8041B9342F2
S315080028A045F8041BF9D1237840F20640002B18BFDF
S315080028B0002007B0BDE8F0834FF40E70704738B5B6
S315080028C00D46044630B11022002101F0FAFA002024
S315080028D0E56038BD41F20130FBE72DE9F0430446D7
S315080028E00E4690469946002589B0454501D30020F5
S315080028F00AE0A37A1E2B4CD009D80A2B2CD0142B0D
S3150800290033D0B3B141F2023009B0BDE8F083232BCE
S3150800291043D0282BF6D1725D636813446360735DF8
S31508002920FF2B14D03223A372A37A322B0FD10020A7
S3150800293051E0725D12092260715D0F2A01F00F01E4
S3150800294001F104016160238103D10A23A3720135D1
S31508002950CBE742B91E23F9E7725D23681344236067
S31508002960735DFF2BF3D01423F0E72368A8EB050764
S315080029709F4228BF1F4670193946C8472368013D3C
S31508002980DB1B23603D4493B91E23A3720028DED0C7
S31508002990BAE7735D23812323D8E7725D238943EA67
S315080029A0022323816368132BBCD12823CEE7002892
S315080029B0BAD0A9E7202F28BF20272089E3688742B5
S315080029C028BF074669463A46984739466846C8477B
S315080029D06368DB1B6360676827B10028EAD00023B9
S315080029E0A37291E7A772D1E7826CF0B5531EB3F5CF
S315080029F0887F18D8D0E9093CD0E90B47C91A914213
S31508002A0028BF11464569866B2FB9C768A7EB040E20
S31508002A108E4598BF07630C44521AC46282641944EF
S31508002A208B4201D14362F0BDB34234BF64460024F1
S31508002A309A1B2A44125DEA540133F1E72DE9F04F57
S31508002A4095B008910D92036B416A0793C36A019387
S31508002A50079B002B40F0AA80019AC3689B1A089A24
S31508002A60521A9A4240F2A2800B444FF0FF37D0E93F
S31508002A700DBA8568099307FA05F5ED430E9545687D
S31508002A80C36BAF40FD430F9500250293036C0469A1
S31508002A900393436C0B950493036804F668250C931B
S31508002AA0119504F26465436912950C9D0593C5F169
S31508002AB00805836A026A13950693D0E906360E9DC1
S31508002AC0019FB6F1807F05EA070808EB0B1C3CBF9F
S31508002AD013F8015B360234F81C7038BF45EA022247
S31508002AE0F50A7D4395424FEA0B1E40F2C380C7F5AF
S31508002AF0006607EB561624F81C60019F079E04F62D
S31508002B006C6C3E4312D03E460F9F37400C9E07FA28
S31508002B1006FE00294CD1069E013E059FBE5D139F09
S31508002B203E414FF4C067764407FB06CC019EBBF1D5
S31508002B30060F06F10106019647D80126BBF1030FD9
S31508002B4094BFABEB0B0BABF1030B0096009EB5F1F4
S31508002B50807F38BF13F801EB4FEA460638BF2D02CF
S31508002B603CF8067038BF4EEA02224FEAD52E07FB1C
S31508002B700EFE964500960CEB06081BD9C7F50065B0
S31508002B8007EB5515AFB27546009EA8F80070FF2EE4
S31508002B90DCD9059E009F77542E460131099D8D424A
S31508002BA040F236830D9D9D4289D831E3089B5CE748
S31508002BB04E1EB2E7009EA7EB57170136A5EB0E058A
S31508002BC0A2EB0E02BFB20096DEE7069FA1EB0A064D
S31508002BD0514528BF0027BE46059FBBF10A0F3E4454
S31508002BE016F80E9034BF03260626ABEB060B012615
S31508002BF04FF4807800964FEA4909009E09EA0807CB
S31508002C000A9708EB06070A9EB5F1807F38BF13F8C6
S31508002C1001EB37440CEB470638BF2D023CF817701A
S31508002C2038BF4EEA02224FEAD52E07FB0EFE109653
S31508002C30009E96454FEA460600960ED9C7F50065EA
S31508002C4007EB5515AFB20A9D28EA05087546109E8A
S31508002C503780009EFF2ECED99BE7009EA7EB57171D
S31508002C600136DDF82880A5EB0E05A2EB0E02BFB2F1
S31508002C700096ECE7761BA7EB5717B6F1807F24F88A
S31508002C801C70A2EB05020BF1C0093CBF13F8015BEF
S31508002C90360234F8197038BF45EA0222F50A7D4330
S31508002CA095424FEA490C40F20581C7F5006607EBE5
S31508002CB0561624F81960049E129F0A96039E0BF175
S31508002CC00C0B0496029ECDE902A6B5F1807F3CBFA7
S31508002CD013F8016B2D02B7F800C038BF46EA022286
S31508002CE0EE0A0CFB06F6964240F2A3814FF0000E60
S31508002CF0CCF500650CEB55153D8007EB0817043736
S31508002D004FF008094FF0010CB6F1807F38BF13F871
S31508002D10018B4FEA4C0C38BF360237F80C5038BFD7
S31508002D2048EA02224FEAD62805FB08F8904507EB41
S31508002D300C0A40F2AE81C5F5006605EB5616B5B22B
S31508002D404646CC45AAF80050DED3AEEB090E0EEB8C
S31508002D500C05BBF10B0F009540F2B382032D94BF0F
S31508002D604FEAC51E4FF49C6E4FF0010598BF0EF54D
S31508002D70587EB6F1807F4FEA450538BF13F801CB78
S31508002D8005EB0E0838BF360234F8087038BF4CEA2F
S31508002D9002224FEAD62C07FB0CFC944540F28381AD
S31508002DA0C7F5006607EB5616B7B266463F2D24F8F8
S31508002DB00870DED9403D032D3FD905F0010C0D2DD5
S31508002DC04FEA55074CF0020C00F283814FF00108D8
S31508002DD0013FC5F1004E0CFA07FC0EF2AF2EE64491
S31508002DE04FEA4E050B95C24665460A970B9FB6F104
S31508002DF0807F4FEA480838BF13F8019B07EB080E97
S31508002E0038BF360234F80EC038BF49EA02224FEA04
S31508002E10D6290CFB09F9914540F24E81CCF500669E
S31508002E200CEB56161FFA86FC4E460A9F24F80EC06F
S31508002E30013F4FEA4A0A0A97D8D1079F05F1010AC6
S31508002E40002F40F03C82019FAF4240F25782BBF10F
S31508002E50130F34BF4FF0070B4FF00A0B009F099D65
S31508002E600237B5EB010CB84600F04882BC4528BFCE
S31508002E70BC46069FA1EB0A05514528BF00273D44DD
S31508002E80019F67440197A8EB0C070B97069F7F1BCA
S31508002E90BC45059F0F4400F21C82A5EB0108059D61
S31508002EA0614405EB010C17F808E007F801EBBC458F
S31508002EB0F9D173E6A7EB5717761B521B24F819703E
S31508002EC0079D019F3D4303D1012015B0BDE8F08F52
S31508002ED0B6F1807F38BF13F8015B0CF1180938BFCB
S31508002EE0360234F8097038BF45EA0222F50A7D43EE
S31508002EF0954250D9C7F5006607EB5616B5F1807F9F
S31508002F0024F809600EF1F00E38BF13F8016BC644B9
S31508002F1038BF2D0234F81E7038BF46EA0222EE0A80
S31508002F207E4396421FD9C7F5006507EB5515069FE0
S31508002F3024F81E50514528BF0027BC46059FA1EB23
S31508002F400A053D4415F80C50BBF1060F7D54019D4A
S31508002F5088BF4FF00B0B05F1010598BF4FF0090B21
S31508002F60013101951AE6AD1B921B029ECDF808A009
S31508002F70B246A7EB571724F81E70049EBBF1060F3E
S31508002F800A96039E8CBF4FF00B0B4FF0080BCDE94A
S31508002F9003A6119F99E6761BA7EB5717B6F1807F14
S31508002FA024F80970A2EB05020CF1300E3CBF13F8A9
S31508002FB0015B360234F80E7038BF45EA0222F50A7C
S31508002FC07D43954206D9C7F5006607EB561624F8E1
S31508002FD00E60D2E7761BA7EB5717B6F1807F24F869
S31508002FE00E70A2EB05020CF1480C3CBF13F8015B0E
S31508002FF0360234F80C7038BF45EA0222F50A7D43DA
S3150800300095420AD9C7F5006607EB561624F80C60F0
S31508003010DDE9026702970396AFE7A7EB571724F88F
S315080030200C70049F521B751B029E0297039F049700
S31508003030F1E7AD1BACEB5C1CB5F1807FA7F800C0CF
S31508003040A2EB06023CBF13F8016B2D02B7F802C0CB
S3150800305038BF46EA0222EE0A0CFB06F696420BD960
S31508003060CCF500650CEB551507EB08187D804FF07D
S31508003070080E08F5827743E6ACEB5C1C921BA7F8B2
S3150800308002C04FF0100E4FF4807907F50177AE1B9A
S3150800309038E6A5EB5515A6EB0806A2EB0802ADB275
S315080030A00CF1010C4DE6A7EB5717A6EB0C06A2EBA5
S315080030B00C02BFB2013579E6ACEB5C1CA6EB09063F
S315080030C0A2EB09021FFA8CFC08F1010845EA0A0579
S315080030D0ABE6053FB6F1807F3EBF13F8015B3602CB
S315080030E045EA02227608921BD51705F1010E013F23
S315080030F005EA06050EEB4C0C2A44EBD1B6F1807FA7
S315080031003CBF13F8017B36024FEA0C15B4F846C6E5
S3150800311038BF47EA0222F70A0CFB07F7974204F280
S31508003120446E40F2AC80CCF500660CEB56161FFADE
S3150800313086FC0226B7F1807FA4F846C63EF816A09C
S315080031404FEA460C0EEB46093EBF13F8016B3F02E9
S3150800315046EA0222FE0A0AFB06F6964240F29980E1
S31508003160CAF500680AEB58181FFA88F8A9F800800B
S31508003170B6F1807F3CBF13F8017B36023EF81CA0EF
S3150800318038BF47EA0222F70A0AFB07F797424FEACF
S315080031904C080EEB4C0940F28780CAF5006C0AEB26
S315080031A05C1C1FFA8CFCB7F1807FA9F800C038BFF9
S315080031B013F8016B3EF818903CBF3F0246EA02221C
S315080031C0FE0A09FB06F696424FEA480C87BFC9F580
S315080031D0006809EB5818A9EB591845F008058FBF80
S315080031E01FFA88F8921B1FFA88F8BE1B6F1C2EF868
S315080031F00C807FF422AE009CABF10C0B04F58974AD
S315080032000B94DDE902A40294049C03940A9C04949A
S31508003210B6F1807F3CBF13F8014B3602C0E906368B
S315080032200B9B38BF44EA02228364019B0262C36295
S31508003230029B4162C363039BC0F838A00364049BE6
S31508003240C0F834B04364036B23B9C368019A934248
S3150800325098BF03630899FFF7C7FB436A089A934226
S31508003260836C07D282690D998A4203D2B3F5897FA6
S31508003270FFF4E9ABB3F5897F3CD8002025E6ACEB33
S315080032805C1CD21B1FFA8CFCF71B45F001050326B4
S3150800329050E7AAEB5A18921B1FFA88F80CF1010C92
S315080032A045F00205BE1B61E7AAEB5A1CD21B1FFAA2
S315080032B08CFC08F1010845F00405F71B73E7079F26
S315080032C0C2E5DDE902A50295049D03950A9D0495CC
S315080032D0C4E5B9460CEB070E059F17F80580069F4F
S315080032E009F8018B0135AF4208BF0025CE45F3D159
S315080032F0614453E44FF489738364BEE74162E3E5AE
S315080033002DE9F047D0E9075301278468D0F82C80C7
S31508003310A740D0F834C0013F066907EA080707EB5B
S315080033200C1EB5F1807F36F81E900A4407D29142EA
S3150800333080F0DC8111F8014B2D0244EA0323EC0AE4
S3150800334009FB04F4A34278D2056B06F66C6658EAC4
S31508003350050519D0D0E900E70125BD40013D05EA7C
S31508003360080505FA0EF7456AD0F8148005B9856A86
S31508003370013D18F80550CEF1080E45FA0EF53D4404
S315080033804FF4C06707FB0566BCF1060F20D801207D
S315080033904000B4F1807F375A07D2914280F0A68167
S315080033A011F8015B240245EA0323E50A7D43AB4293
S315080033B029BF01302C46641B5B1BFF28E8D9012076
S315080033C0B4F1807F80F02281914228BF00201DE160
S315080033D0876BD0F824C04569BC45ACEB070E2CBFFB
S315080033E00027876A05EB0E0010F807C001204FF486
S315080033F080774FEA4C0C07EA0C0E3D187544B4F179
S31508003400807F36F8158007D2914280F06F8111F8D7
S31508003410015B240245EA0323E50A08FB05F540009B
S31508003420AB422BBF01302C46774627EA0E0724BF4E
S31508003430641B5B1BFF28DCD9C1E7281B0CF1C00CF9
S31508003440B0F1807FA3EB04034FEA4C0436F81CC0A6
S3150800345007D2914280F04A8111F8015B000245EAE1
S315080034600323C50A0CFB05F5AB4280F0A0800220B9
S315080034704FF0000E06F2646CB5F1807FBCF8008050
S3150800348007D2914280F0328111F8014B2D0244EAAD
S315080034900323EC0A08FB04F4A34280F0EB800CEB50
S315080034A0071C00270CF1040C4FF008094FF001081F
S315080034B04FEA4808B4F1807F3CF808A007D2914249
S315080034C080F0148111F8015B240245EA0323E50A1A
S315080034D00AFB05F5AB4229BF08F101082C46641B17
S315080034E05B1BC845E4D3BEF1030F3FF669AFA7EBF4
S315080034F009074744032F88BF4FF49C674FF001051F
S315080035009CBFFF0107F558776D0006EB050CB4F173
S31508003510807F3CF807E007D2914280F0E78011F8F7
S3150800352001CB24024CEA03234FEAD42C0EFB0CFCF5
S31508003530634529BF01356446A4EB0C04A3EB0C03D1
S315080035403F2DE1D9403D032D7FF63AAF0D2D4FEAC9
S31508003550550700F2B18005F0010C013F4CF0020C52
S31508003560C5F100450CFA07FC05F2AF25654406EBE4
S3150800357045064FF0010C4FEA4C0CB4F1807F36F843
S315080035800CE007D2914280F0B18011F8015B240269
S3150800359045EA0323E50A0EFB05F5AB4231BF2C4687
S315080035A0641B5B1B0CF1010C013FE4D108E7401BCF
S315080035B03444B0F1807FB4F818C0A3EB050307D2F2
S315080035C0914280F0938011F8015B000245EA0323DB
S315080035D0C50A0CFB05F5AB4222D20EF1F00EB5F189
S315080035E0807F36F81E4006D291427FD211F8010B31
S315080035F02D0240EA0323E80A6043834208D2B0F169
S31508003600807F71D2914234BF03200020BDE8F08745
S315080036102D1A1B1A03204FF00C0E06F6682C2BE702
S31508003620401BB0F1807FB4F830C0A3EB050306D287
S3150800363091425BD211F8015B000245EA0323C50AF1
S315080036400CFB05F5AB42E5D3401BB0F1807FB4F81F
S315080036504840A3EB050306D2914247D211F8015B15
S31508003660000245EA0323C50A6543AB4224BF5B1B38
S31508003670451BCFE72D1BB5F1807FBCF80280A3EB75
S31508003680040306D2914231D211F8014B2D0244EAC5
S315080036900323EC0A08FB04F4A34205D20CEB071734
S315080036A007F5827C0827FFE61B1B10274FF4807955
S315080036B00CF5017C2C1BF9E6053FB4F1807F06D298
S315080036C0914213D211F8015B240245EA03236408E8
S315080036D01D1BED0F013D2540013FA3EB0503ECD172
S315080036E0042706F2446644E703208FE700208DE7A7
S315080036F000230122C0E90B33C0E912324362836515
S31508003700026570472DE9F74F9846002704469DF84D
S315080037103030D8F80060C8F8007000938B4615461C
S31508003720FFF762F90D9B1F70A36CB3F5897F09D16A
S31508003730236A13B901230D9A1370206A003818BF3B
S3150800374001201EE0E36C8BB1A36D5EB3042B1BD97D
S3150800375094F85C30002B40F0D780D4F85D20E36401
S3150800376012BA22624FF0FF32A365E261636A5B45D3
S3150800377055D3A36CD3B9236AF3B9042300200D9A51
S31508003780137003B0BDE8F08F5A1CA26515F8012B1B
S31508003790234483F85C20D8F80030013E0133C8F88A
S315080037A00030D1E7042BD3D80323E7E7009B002B8F
S315080037B040F0A7800223E1E7009B002BFAD0012303
S315080037C0226D9AB1D4E9002111444FF440728A401F
S315080037D00021206902F236728A4222D80122C4E9FF
S315080037E01022C4E90E22002262632265A76D002F0B
S315080037F068D1132E1BD943B3324629462046FFF714
S315080038007FFDF0B93246294604F15C0000F022FB40
S31508003810A665D8F800303344C8F80030C4E700235A
S31508003820CEE74FF4806720F811700131D4E73246AD
S31508003830294620460193FFF763FD019B0028E1D046
S315080038400BB102285DD12A4602E0A6F114022A44E9
S3150800385059462046A561FFF7F1F8002854D1A36917
S31508003860D8F800205D1B2A44C8F80020761B1D46A0
S315080038705AE715F809100137D15509F10109132F2F
S3150800388025D9A76504F15C0A93BB524659462046DA
S31508003890C4F818A0FFF7D2F8B0BBA369A3EB0A03D4
S315080038A09F4236D3FA1A914533D3D8F8001009EB5C
S315080038B00302D31B19443744C8F800102B44BE1A18
S315080038C0A065D4E74FF0000904F15B02D7E7B145DC
S315080038D0CFD104F15C0A3A4651462046A7650193C2
S315080038E0FFF70EFD019B88B9D8F800304B4493E7E3
S315080038F03A4651462046FFF703FD0028F4D0022831
S31508003900C3D002230D9A137001203AE7002BBCD0CE
S31508003910F5E70B2035E72DE9F04F89B0DDF848804B
S315080039209A469DF84C3004460493D8F800308B46E6
S3150800393002930023164617681360C8F80030029BE6
S31508003940149A0793D4E909318B4204BF00236362B2
S31508003950656A20464B1BBB4232BF0023049B79197C
S31508003960CDE90032524607ABFFF7CCFE079A029B19
S3150800397061699B1A0293D8F8003003901344C8F87B
S315080039800030636A5846A3EB0509294492444A461F
S31508003990059300F05FFA059BCB44ED1A33682F4474
S315080039A04B443360039B23B9B9F1000F01D0002FB4
S315080039B0C5D1039809B0BDE8F08F10B504464B6829
S315080039C00846216998470023236110BD70B54FF456
S315080039D040751646D1E9003213449D4003690446F2
S315080039E005F2367513B1436DAB420ED0314620460B
S315080039F0FFF7E3FF30463368690098472061B0FA5D
S31508003A0080F040096565400070BD0020FCE738B5C8
S31508003A1004460D46FFF7D1FF6B682846616998474B
S31508003A200023636138BD042A01D804207047D1F801
S31508003A300130B3F5805F38BF4FF48053C3600A780E
S31508003A40E02AF2D80923B2FBF3F303EBC301521AB7
S31508003A50D2B202600522B3FBF2F2826002EB820266
S31508003A609B1ADBB243600020704770B5D1E901525A
S31508003A70AA4205D290F840302B449B1A402B10D905
S31508003A80002012E00A6890F84040D65C90F8412081
S31508003A900133224402F03F02013486548B6080F8D9
S31508003AA040408B689D42EDD8012070BD2DE9F84352
S31508003AB090F840C017469E46D1E90123089DD21AC0
S31508003AC06244954204460E469DF824909DF8288047
S31508003AD00AD9FFF7CAFF002867D1142341F202006A
S31508003AE084F84630BDE8F883754555D8002394F820
S31508003AF040200AB19D4235D1D6E90121914201D231
S31508003B009D4241D89D424DD129463846D4F8882051
S31508003B10FDF7A8FDC4F88800B9F1000F04D02A46BD
S31508003B203946E06C00F054F894F84330B8F1000FC9
S31508003B3006D08BB12B463A463946A06C00F037F8CA
S31508003B4094F8433043B1E36DA26D2B449342E36589
S31508003B5024BF002384F84330636D41F203002B44ED
S31508003B606365BFE794F84120A25CFA5494F84120B3
S31508003B700133013202F03F0284F8412094F84020D4
S31508003B80013A84F84020B2E73268525CFA54B268C7
S31508003B9001330132B260AFE741F20100142384F821
S31508003BA046309FE741F20200F8E700209AE71FB582
S31508003BB00C46194600F14803CDE90142009300F18D
S31508003BC0440200F158032030FEF756FC04B010BD3D
S31508003BD000F00CB8014600F016B86822002100F083
S31508003BE070B903460020C3E90000704707B500F125
S31508003BF028030190009300F108030020FDF746FE14
S31508003C0003B05DF804FB02460B4600F128010830B4
S31508003C10FDF79ABE3C2230B59FB0002105460DEB54
S31508003C20020000F04EF94FF0FF333422002101A8BC
S31508003C300E9300F046F901A8FEF768F9049C012CDA
S31508003C401ED921460EA8FDF721FF18B140F20553EB
S31508003C5098420ED100230EAA52F8041B481C0AD11A
S31508003C601EAA02EB830321460EA843F8405CFDF723
S31508003C709BFF1FB030BDA94205D001339C42EBD152
S31508003C8040F20250F5E740F20350F2E7FDF7F8BFBD
S31508003C9001221A7070471FB50023CDE90033CDE91C
S31508003CA00213D0F83432044693B9D0E98B329A42DB
S31508003CB00ED26946FEF772F8D4F8340270B141F2B2
S31508003CC0070240F20123904208BF184604B010BD0F
S31508003CD0A37833B1E07800F20220F7E740F201203A
S31508003CE0F4E740F20220F1E737B50C4605461146DF
S31508003CF02046FEF776FD48B969462846FEF714F8C9
S31508003D0020B9019BC4F82852C4F82C3203B030BD40
S31508003D1038B500F5E07204460D46202300F5AC716F
S31508003D202C30FDF7CDF8D4F834321BB9D4E98B32F0
S31508003D309A4203D3A07800B1E07838BD29462046D8
S31508003D40FEF72CF8EFE74FF0FF30704738B50C4612
S31508003D5011460546FEF782F928B12946204600F0A5
S31508003D6079F8002038BD40F20240FBE738B50D4629
S31508003D7011460446FEF772F980B940F2024038BD92
S31508003D80E15801310CD104339A42F9D82946204624
S31508003D90FCF7EAFC0028F0D00020F0E70023F3E760
S31508003DA040F20340EBE738B541EA0003C3F30C03DE
S31508003DB004460D46A3B9FEF751F910B940F2024080
S31508003DC038BD2544204604F50054FCF797FCA54267
S31508003DD002D00028F6D1F1E70028EFD00020EFE75F
S31508003DE040F20440ECE7FEE700239A4200D1704710
S31508003DF010B550F8234041F8234001339A42F8D1D0
S31508003E0010BD2422002100F05CB870B515460E4698
S31508003E1024220021044600F054F825F04003802BA4
S31508003E2002D0B5F5807F08D12046314640F8045BBC
S31508003E30EA0800F00FF8002070BD6FF01F00FBE7DE
S31508003E40436813B9416070475B685A68012AFBD119
S31508003E50596070470A44431E914200D1704710B515
S31508003E6011F8014B914203F8014FF9D110BD013900
S31508003E70024410B5904201D1002005E0037811F8FC
S31508003E80014FA34201D0181B10BD0130F2E788424A
S31508003E9010B501EB020402D98442234607D8431E13
S31508003EA0A14208D011F8012B03F8012FF8E70244C4
S31508003EB001468A4200D110BD13F8014D02F8014DA2
S31508003EC0F7E702440346934200D1704703F8011B03
S31508003ED0F9E700004FF48062024B9A66BFF34F8FF2
S31508003EE000207047009000404FF48062014B00208C
S31508003EF09A66704700A0004008B5C0B14FF48062CA
S31508003F000C4B9A66BFF34F8F00F058F84FF0984362
S31508003F105A6CD202FCD54FF48062586D064B10F4E9
S31508003F2070209A6604D0BDE8084000F010B8212039
S31508003F3008BD00BF0090004000A000404FF0984325
S31508003F405A6CD202FCD5586D00F470207047B0F553
S31508003F50802F22D010D8B0F5003F20D007D818B34C
S31508003F60B0F5803F08BF482018BF01207047B0F55C
S31508003F70403F08BF2C20F7E7B0F5302F11D007D8FF
S31508003F80B0F5E02F0FD0B0F5202F08BF1020EBE7D3
S31508003F90B0F57F0F08BF0620E6E74B2070472A20BA
S31508003FA070471120704721207047036A042B9FBF72
S31508003FB000EB83020133D16003627047036A052B65
S31508003FC014D84FF09842116CC902FCD504339B00F3
S31508003FD013650168103B11604168116050F8081FAD
S31508003FE011604FF098420344984200D1704750F848
S31508003FF0041F1160F8E7836813B9816070475B682E
S315080040005A68012AFBD15960704700000000000079
S315080040100000000000000000000000000000000092
S31508004020F8B500BFF8BC08BC9E467047F8B500BF97
S31508004030F8BC08BC9E467047B814B6F1E0CFF3AD9D
S31508004040B7DD25C9FA79B7130000000013B779FA66
S31508004050C925DDB7ADF3CFE0F1B614B8010200000B
S3150800406002000000A442000840000000010002030C
S315080040700000000000000000000000000000000032
S315080040800000000000000000000000000000000022
S3150800409000000000000000000000000007B0CD5E30
S315080040A00200000001000203A842000000600008A8
S315080040B000001808F00401004527000849270008F1
S315080040C001030008E3270008132800081442000823
S315080040D043280008B9280008000000004105000828
S315080040E039050008FD0505FD590900088509000878
S315080040F0E9090008CD090008FD0707FD510B00086E
S31508004100810B0008410C0008250C0008EB17A603D4
S315080041100201000003000000FA0606FA0F04000078
S3150800412003000000F40A0AF4050500000100000077
S31508004130EB17A65E0A06000001000000F50909F55E
S315080041400307000001000000F60808F6060800004C
S3150800415000000000FE0101FE080800000000000043
S31508004160FD0303FD0C08000000000000FD0505FD29
S315080041701308000000000000FD0707FD13080000F3
S3150800418000000000F90707F9100900000200000006
S31508004190F30B0BF3110A000003000000F70A0AF7F5
S315080041A0120B000003000000FC0404FC0D0C0000C8
S315080041B0030000008000000000000000000000006E
S315080041C000000000000000000000000000000000E1
S315080041D000000000000000000000000000000000D1
S315080041E000000000000000000000000000000000C1
S315080041F0000000006A09E667BB67AE853C6EF3728D
S31508004200A54FF53A510E527F9B05688C1F83D9AB93
S315080042105BE0CD19000100000D1F0008291D0008EC
S31508004220591D0008A51E0008E91E0008A91B00085C
S315080042308D1A0008153C0008E93C0008973C000860
S31508004240191E00083D2000084D3D00086D3D000878
S31508004250A73D0008473D000810020300280000009B
S3150800426028000000002000000000180000000000E0
S3150800427004000000000000400100000001000000EA
S3150800428000A00E080080080094420008CC5D0020BB
S3150800429004000000250A00085D0A00081D0200083F
S30D080042A0F50100085663E0541D
S31508006000081200204D7D030803A50A0845900008DC
S31508006010D3FD0B086D900008819000089590000844
S3150800602003A50A0803A50A0803A50A08FD8C0D0896
S31508006030A990000858FB0E08A18C0D08C5CA0D08C2
S31508006040C579030803A50A0803A50A0803A50A08CB
S3150800605003A50A0803A50A0803A50A0803A50A084A
S3150800606003A50A0803A50A0803A50A085D940008FB
S3150800607003A50A0803A50A0803A50A0803A50A082A
S3150800608003A50A0803A50A0803A50A0803A50A081A
S3150800609003A50A08F958050803A50A0803A50A0866
S315080060A003A50A08C5500508A550050803A50A084A
S315080060B003A50A0829320808FD3A08080F830D08BF
S315080060C00B830D087132080825830D0813830D0804
S315080060D0CD3A080817830D083D3B0808A53B080874
S315080060E003A50A0803A50A08A991000803A50A0832
S315080060F059F20B0803A50A0803A50A0803A50A0806
S3150800610003A50A0803A50A0803A50A0803A50A0899
S3150800611003A50A0803A50A0803A50A0803A50A0889
S3150800612003A50A0803A50A0803A50A0803A50A0879
S3150800613003A50A0803A50A0803A50A0803A50A0869
S3150800614003A50A08C940060803A50A08A9DA0D081E
S31508006150591C080803A50A08EF820D08F5820D08E0
S3150800616003A50A0803A50A0803A50A0803A50A0839
S31508006180F0B5114A114C124E00F00105E3695F079C
S3150800619013D40DB9334213D103EA00078F4207D14E
S315080061A00B4A1A40002A0CBF00206FF00100F0BD10
S315080061B0013AEBD16FF00200F9E74FF0FF30F6E74E
S315080061C06FF00100F3E700BF8096980000000350C7
S315080061D00200010070B50B4BD96911F480310DD15D
S315080061E001244FF48072084E084DF46020462C6452
S315080061F01A61FFF7C5FF3464EC6070BD6FF00100EB
S31508006200FBE700BF000003500010035000200350B6
S315080062104FF4803238B50E4B0E4C9A66E56941F656
S31508006220713315400122E3630B4B0021DA60022328
S31508006230606121202361FFF7A3FF10B92120FFF732
S315080062409FFF0122054BDA600DB10023E36338BDD9
S315080062500090005000000350001003500020035027
S3150800626070B5134C6061E3695B071ED40E4656F899
S31508006270043B8D18A361AE420BD1042300212120D3
S315080062802361FFF77DFF58B9BDE870402120FFF76D
S3150800629077BF08210846FFF773FF10B1042323616F
S315080062A070BD56F8043BA361E5E74FF0FF30F7E70A
S315080062B0000003502DE9F84315464FF48032184B79
S315080062C089469A6603F51C33DF690646174041F688
S315080062D07132DA63012203F58053DFF84C80DA6005
S315080062E055B9284601220F4BDA601FB10022A3F5E3
S315080062F00053DA63BDE8F88306F5005404EA080497
S31508006300A41BAC4228BF2C46494622463046FFF716
S31508006310A7FF0028E6D12644A1442D1BE0E700BFCD
S31508006320009000500020035000E0FFFF000000002E
S31508006330000000000000000000000000000000004F
S31508006340013800D0FCE770472DE9F04F2DED028BA0
S315080063501D4613690646052BD5B00BD8013B01220D
S315080063600024042B23D8DFE813F04100290130016B
S315080063703F0152014FF6FC72934212D04FF6FD725E
S3150800638093424FF0010340F0448102200021CDE9F9
S315080063903E0185F8443028463EA981F029F9306047
S315080063A086E000230022CDE93E230123F1E7CB69ED
S315080063B0284685F844202C9380F0B4FB0028EED1BB
S315080063C03FA83E959AF0D4FC3EA92CA885F042FD3C
S315080063D00446284680F0EBFB2046002CDFD14FF61A
S315080063E0FF7385F84C40A5F84A30D8E7D1F81C80E9
S315080063F0284685F8442080F095FB0446002856D1A7
S3150800640013A812959AF0B4FC41460AA883F095FEA3
S3150800641005232246414600930EA885F080FC2746B0
S315080064209FED7F8BDFF800A20EA90AA885F08EFCE7
S31508006430044648B9284680F0BAFB4FF6FF7385F83C
S315080064404C40A5F84A3032E00AA883F046FE8DEDA6
S31508006450228B8DED248B90F88190CDE92677CDE9B6
S315080064601E77ADF880708DF8A0708DF8AC90D0E9E5
S315080064700023CDE92423B0F8823000F16004ADF89A
S315080064808030D0E9022320212046CDE92223C5F019
S3150800649058FB4946CDE926402CAA4046CDF8B0A07F
S315080064A094F009F8044658B1284680F080FB346019
S315080064B000233371304655B0BDEC028BBDE8F08F32
S315080064C02DAB1E9341230DF1080B1F933EABCBF862
S315080064D0003055235A4649464046CBF8043094F0D6
S315080064E079F904460028DFD1DBF80430B3B19BE81C
S315080064F0030001238DF8103005AB83E8030004A9D7
S3150800650007A885F09AFC9DF81C308DF8A0302BB1B1
S3150800651029AB08AA92E8030083E803009DF8AC308B
S31508006520002B49D0DDF8489099F8452099F808B02D
S315080065300AB19B451AD1484613A980F05FFBA8B15A
S3150800654099F84630D9F80010A3B1096C4FF4807257
S315080065500023CDF800B01EA8C3F0D2FC04460146BD
S3150800656013AA484680F063FB002C9DD10AA885F043
S31508006570C2FB59E7D9F8403009F1280207A880F08C
S315080065808BFA044628B12146484613AA80F04FFBE9
S315080065908AE7D9F800300222196C1EA80023CDF824
S315080065A000B0C3F0ADFC04460028ECD1D9F80010C1
S315080065B007A880F0A9FAD1E7712475E7052000211C
S315080065C085F84420CDE93E01E5E6CB6993F88233A8
S315080065D0CDE93E340123284685F844303EA981F0AA
S315080065E007F83471306065E7CB69284685F844209A
S315080065F02C9380F097FA00287FF4D1AE3FA83E95F9
S315080066009AF0B6FB3EA92CA885F028FDE0E62B7A81
S31508006610DEE78622C0E900234CE700BFAFF300801F
S31508006620000000000000000018BD0E080000000071
S315080066302DE9F04F2DED028B083085B00E469146B8
S31508006640DDF850809BF00DFF0446002800F0A3807B
S315080066506F4600259FED548B4FF0010B41F2A45A6B
S3150800666010AB0FCB87E80F00514BC4E902552360E6
S31508006670C4E90455C4E906552C3363604D4B04F14F
S31508006680500C0FCB84ED108BC4E90E5584F82050BE
S3150800669084F8305084F848508CE80F00464B84F84C
S315080066A060B0A4F862A06566236704F18403C4E9B0
S315080066B02133424B1022C4F89830294684ED1A8BB0
S315080066C0C4E91D55C4E9275584F87C50C4F88C5094
S315080066D0C4F8A45004F1A800C5F03EFB84ED308B45
S315080066E084F8B8B0A4F8BAA0C4F8BC5004F1C8003D
S315080066F09CF01FFD4AF6C873C82284ED388B84EDDA
S315080067003A8BC4E93C2304F58673C4E94055C4E9C9
S315080067104333A4F8D45084F8D650A4F8D85084F853
S315080067200851C4F814513368A3607368E360B3680A
S315080067302361F36863613369A3617369E361337E37
S3150800674084F8203033B104F1240306F11C0207CA89
S3150800675083E8070096F8283084F830300BB1F36ADE
S315080067606363304680F0AFFBA8B9B9F1000F12D0C9
S31508006770B8F1000F0FD003CF3B78C4F8389084F8EF
S315080067804830012384F80031231D20646164C4F86D
S315080067909080C4F8A430204605B0BDEC028BBDE855
S315080067A0F08F00BFAFF3008000000000000000007B
S315080067B0E0380E08AC4A01205CF00E08D0380E0806
S315080067C02DE9F04F2DED028B00240025CBB099461C
S315080067D0CDE92E450023CDE93045CDE934454FF6C0
S315080067E0FF74DFF898A2064688461746CDE90C33AB
S315080067F08DF8C8303393CDF8D8A04894A2B305468F
S3150800680000F53474A54206D10B2420464BB0BDECE6
S31508006810028BBDE8F08F284680F083FC08B19035DE
S31508006820F0E79FED8F8BBDF85C318DF8C880ADF829
S3150800683020318D4B4FF4C8710E93002309A8CDE97A
S3150800684009330F93CDF870A00B9385F0ECFA099CE9
S3150800685014BB0B240BA880F00AFA0AA880F007FAE2
S3150800686009A880F004FAD0E793F0B5FD044608B904
S31508006870AC24CAE706F5347528467EF096FFB4F8C8
S3150800688082308DF8C880ADF8203121460CA894EDE9
S31508006890028B93F00DFDCCE74FF4C8710AA885F07A
S315080068A0C2FADDF828A0BAF1000FD2D04FF4C871A9
S315080068B00BA885F0B8FA0B9A002ACAD04FF4C87309
S315080068C04146CDE91332304610AA1094CDE9113A63
S315080068D0159393F0E0FD04460028BBD141463046A7
S315080068E012AA93F0BAFD04460028B3D141463046B1
S315080068F014AA93F08FFD04460028ABD110A916A858
S3150800690085F087FA12A918A885F083FA14A91AA897
S3150800691085F07FFA36AB079330AB05930DF1B80ACD
S3150800692034ABCDE903A30DF1700B0EAB8DED008BE7
S31508006930CDF818B002931AAA18A916A81BF0DAFF00
S315080069400446002886D10BA880F091F90AA880F0A1
S315080069508EF909A880F08BF9B9F1000F13D1D6F892
S31508006960640300285ED003689B6898470346D6F8F8
S315080069706403002B4ED003685A4641465B69984724
S31508006980044688B141E7D9F8003048465B6998471C
S31508006990594694F04DF808B9C52436E79DF858319C
S315080069A0CDF8CC908DF822319DF860315146B3FA76
S315080069B083F328465B098DF8233193F0E0FF0446FC
S315080069C000287FF422AF28460CA993F0B6FC06F5FA
S315080069D05D7495F881303FB302211120234A9BF05C
S315080069E01DFDD5E900122B69CDE9012100936B69DC
S315080069F0022111201E4A9BF011FD20460F991DF019
S31508006A0091FE034630BB96F88233013386F882330B
S31508006A100024FAE603684146DB6898470028C3D194
S31508006A201024F2E60324F0E6D5E900121120CDE998
S31508006A30002102210F4A9BF0F1FC20460F991DF018
S31508006A4071FE03460028E3D0012111200A4A9BF073
S31508006A50E5FCDDE701211120074A9BF0DFFCD2E7C0
S31508006A600000000000000000087D0E08CB7B0E0821
S31508006A70EB7B0E082E7C0E08637C0E0818BD0E08EC
S31508006A802DE9F0478AB00DF10D030193152306464B
S31508006A9000934FF48072002308460C469AF098FB40
S31508006AA0E8B996F8963001220093204600239AF01A
S31508006AB016FBA0B996F897300222009320460023C9
S31508006AC09AF00DFB58B90DF10E0301931623032214
S31508006AD00093204600239AF07BFB054610B10AB0C6
S31508006AE0BDE8F0874FF0100906F1C8070DF1180840
S31508006AF0102200214046C5F02FF90DF10F0301932E
S31508006B0015234FF480720093204600239AF060FB09
S31508006B100028E4D196F89720EBB29A4251D917ED9E
S31508006B200C7BC44637F828ACA7F12603A7F1160E46
S31508006B30624618685968083303C273459446F7D104
S31508006B408DED007B0422002320469AF0A3FA002844
S31508006B50C5D1052200232046CDF800A09AF0BFFA39
S31508006B600028BCD14046494606228DE8030000238A
S31508006B702046CDE904899AF0FEFB0028AFD12046CD
S31508006B809DF90F109AF059FB013530370028A6D128
S31508006B90032DADD120469DF90E109AF04EFB002824
S31508006BA09DD1B6F88E3007220093204600239AF02E
S31508006BB096FA002893D120469DF90D109AF03DFBD0
S31508006BC08DE782469FED027BBAE700BFAFF30080F0
S31508006BD00000000000000000A0F1840050E700BF9C
S31508006BE0054B18680368D96901A3D3E90023084748
S31508006BF000E0373B015D0300E409022000000000C5
S31508006C0037B5A4F06CF8044600286ED13A4B1A88BA
S31508006C109B78ADF804208DF8063031F02FFF32F05E
S31508006C2043FC32F0A1FB0546344B036032F02CFEE0
S31508006C30284632F035FD00B9FEE72DA3D3E9002337
S31508006C404FF0FF314FF0FF3031F020FF32F090FB6C
S31508006C50214632F0E9FBA4F045F801A832F0E2FC3F
S31508006C60044600B1FEE7264B264A98801860264B54
S31508006C7098801A60254B264A98621A60254A988099
S31508006C806FF06300DA6033F071FD0B2032F0BEFB63
S31508006C9032F01CFC32F062FB00B9FEE754F0ECFE61
S31508006CA02046A4F0E3F908210846A4F0E6F900B165
S31508006CB0FEE7A4F0D9F932F0A7FAA4F024F91021D6
S31508006CC01548B9F0FFF800B9FEE714491248B9F0BB
S31508006CD00BF900B9FEE710218C20114A54F0E4FAAA
S31508006CE000B1FEE70F48A5F0E9FC03B030BD00BFD0
S31508006CF00AE020FFE203000091080F089FAE0A0889
S31508006D0068ED00201CFC012038ED002008ED00206D
S31508006D109CFB0120F8EC0020D48F0120F1D60D0849
S31508006D20C48F0120C6070F082DE9F04389B0A3F0E8
S31508006D30C7FF00B9FEE75C4D2B6803B9FEE70122E1
S31508006D409B8811460DF10B008DF80B3032F020FCB4
S31508006D509DF80B102B6802390022186889B232F0A8
S31508006D6017FC002305930793504B05AE06932B6833
S31508006D7093F82C208DF814201B681C7814F0200436
S31508006D8014D0A4F075F900285CD0A4F071F962F06B
S31508006D9071FE0B46024640A1D1E9000163F00EF8E8
S31508006DA063F07CF9079B18440124079032F034FC01
S31508006DB09DF80B30002848D0981DC00062F06AFE86
S31508006DC037A3D3E9002362F0CFFE8946804632F026
S31508006DD023FC62F04FFE0B4602464946404662F0E7
S31508006DE0EDFF63F05BF9079B18440790A3F06FFF6C
S31508006DF038B132F077FB0020A3F065FF0020A3F03E
S31508006E0069FF29684B6963BBA3F07DFF10B3079B35
S31508006E10274F03F5FA7307932B681B7EBB7032F076
S31508006E205BFBF870286833463A462146807932F08B
S31508006E3091FB58B34FF480510020D6F07EFCA4F0A5
S31508006E4041FA23E00798C030AEE70798063300EB0F
S31508006E504310CAE72B6832462146987932F070FB10
S31508006E60E7E70022962004920A691A44114BA2F514
S31508006E709B7298800392887903AA2146009632F07D
S31508006E8077FB0028D6D10120A3F048FF09B0BDE85A
S31508006E90F08300BFAFF300800000000060E36641A6
S31508006EA00000000080842E41C08F012020A1070029
S31508006EB0880A02207C0A02202DE9F3411E461C4B53
S31508006EC0044683424FF000038B4115460AD216A3A7
S31508006ED0D3E9002363F0A2F9164914460246284668
S31508006EE0A8F044F8144B4EF66021B4FBF3F203FB0A
S31508006EF01244B4FBF1F34FF47A7801FB1344B4FB64
S31508006F00F8F728460D490097A8F030F846B1284604
S31508006F1008FB17420A4902B0BDE8F041A8F026B8B6
S31508006F2002B0BDE8F08100BF005C26050000000045
S31508006F30FF5B26051C390F0880EE3600E6800E0832
S31508006F4022390F080348044B834202D0034B03B18E
S31508006F5018477047F4140220F414022000000000B9
S31508006F60064B0749C91A891048BF0131491003D091
S31508006F70044B0BB101481847704700BFF4140220B0
S31508006F80F41402200000000010B5064C237843B91B
S31508006F90FFF7D8FF044B13B10448AFF30080012371
S31508006FA0237010BD06BF012000000000F4D30F08AF
S31508006FB008B5054B1BB105490548AFF30080BDE888
S31508006FC00840FFF7CDBF00BF0000000030310120A8
S31508006FD0F4D30F08A3F5803A704700BF174B002B70
S31508006FE008BF134B9D46FFF7F5FF00218B460F465A
S31508006FF01348144A121AC4F0AFFE0E4B002B00D0E9
S3150800700098470D4B002B00D098470020002104001C
S315080070100D000D48002802D00C48C4F039FE63F074
S315080070200BFC20002900B8F0F2FE02F0C7F800BFFA
S315080070300000080000000000000000000812002000
S31508007040081200206005022091BC0C080000000010
S3150800705008B5154B4FF4E47200211846C4F07CFEBF
S3150800706009220346026142611048114A98614FF4A9
S315080070708061DA61002219629A625A62DA62C3F89A
S31508007080F0000C48C3F8F400C3F8F8100A49C3F82E
S315080070900021C3F8FC20C3F8042111F8010D985407
S315080070A00132102AF9D108BD4831012028DE0D0821
S315080070B007C3012007BF012041DE0D082DE9F84F5F
S315080070C0DFF88880824698F800308946532B1646A2
S315080070D001D0FFF7BDFF182707FB0A87D7F800512D
S315080070E0D7F8FCB05D452FD9D7F8F840D7F8F41093
S315080070F0641BB44228BF3446484629442246C4F095
S31508007100E7FCD7F8F8302544AB4208BF0025A14470
S31508007110361BABEB050B5E4528BF5E465EB11823F2
S3150800712003FB0A83D3F8F410324629444846C4F0D0
S31508007130CFFC3444354424B1182303FB0A88C8F825
S3150800714000512046BDE8F88F0024E2E748310120C7
S31508007150F8B5182700FB0775124B0E461D4407FBAA
S315080071600033DB6A1446012B0AD0022B14D023B94C
S3150800717028467DF06DFF844208D900242046F8BDD4
S3150800718028467DF065FF844228BF044622463146DC
S3150800719028467DF066FFF1E72846BDE8F8407DF011
S315080071A07BBF00BF48310120F8B50B4B04461B785E
S315080071B00D46532B164601D0FFF74AFFEFF311870A
S315080071C04FF0200181F31188324629462046FFF701
S315080071D0BFFF87F31188F8BD483101202DE9F0413A
S315080071E0164C1E4623780546532B8846174601D06B
S315080071F0FFF72EFF082D1DD8EFF3118C4FF0200155
S3150800720081F3118865B1182005FB000344F8038053
S31508007210E2180023576000FB054216629362536228
S31508007220182303FB0544069BE3628CF311880020B0
S31508007230BDE8F0814FF0FF30FAE700BF4831012082
S315080072402DE9F843174E1F4633780546532B8946D2
