S02B00002F686F6D652F686164796C69752F53696D706C696369747953747564696F2F76365F776F726B73702F
S31508006000081200206177030819620A08D18A000875
S3150800601061B80B08F98A00080D8B0008218B000867
S3150800602019620A0819620A0819620A0809440D0859
S31508006030358B000828B20E08AD430D08CD810D0832
S31508006040D973030819620A0819620A0819620A0844
S3150800605019620A0819620A0819620A0819620A08FE
S3150800606019620A0819620A0819620A08E98E0008FC
S3150800607019620A0819620A0819620A0819620A08DE
S3150800608019620A0819620A0819620A0819620A08CE
S3150800609019620A085D52050819620A0819620A088F
S315080060A019620A08D94A0508B94A050819620A0888
S315080060B019620A08CDEF0708A1F80708073A0D087C
S315080060C0033A0D0815F007081D3A0D080B3A0D0896
S315080060D071F807080F3A0D08E1F8070849F90708A3
S315080060E019620A0819620A08358C000819620A0832
S315080060F0E7AC0B0819620A0819620A0819620A0845
S3150800610019620A0819620A0819620A0819620A084D
S3150800611019620A0819620A0819620A0819620A083D
S3150800612019620A0819620A0819620A0819620A082D
S3150800613019620A0819620A0819620A0819620A081D
S3150800614019620A08BD31060819620A08A7910D08DE
S31508006150FDD9070819620A08E7390D08ED390D084F
S3150800616019620A0819620A0819620A0819620A08ED
S31508006180F0B5114A114C124E00F00105E3695F079C
S3150800619013D40DB9334213D103EA00078F4207D14E
S315080061A00B4A1A40002A0CBF00206FF00100F0BD10
S315080061B0013AEBD16FF00200F9E74FF0FF30F6E74E
S315080061C06FF00100F3E700BF8096980000000350C7
S315080061D00200010070B50B4BD96911F480310DD15D
S315080061E001244FF48072084E084DF46020462C6452
S315080061F01A61FFF7C5FF3464EC6070BD6FF00100EB
S31508006200FBE700BF000003500010035000200350B6
S315080062104FF4803238B50E4B0E4C9A66E56941F656
S31508006220713315400122E3630B4B0021DA60022328
S31508006230606121202361FFF7A3FF10B92120FFF732
S315080062409FFF0122054BDA600DB10023E36338BDD9
S315080062500090005000000350001003500020035027
S3150800626070B5134C6061E3695B071ED40E4656F899
S31508006270043B8D18A361AE420BD1042300212120D3
S315080062802361FFF77DFF58B9BDE870402120FFF76D
S3150800629077BF08210846FFF773FF10B1042323616F
S315080062A070BD56F8043BA361E5E74FF0FF30F7E70A
S315080062B0000003502DE9F84315464FF48032184B79
S315080062C089469A6603F51C33DF690646174041F688
S315080062D07132DA63012203F58053DFF84C80DA6005
S315080062E055B9284601220F4BDA601FB10022A3F5E3
S315080062F00053DA63BDE8F88306F5005404EA080497
S31508006300A41BAC4228BF2C46494622463046FFF716
S31508006310A7FF0028E6D12644A1442D1BE0E700BFCD
S31508006320009000500020035000E0FFFF000000002E
S31508006330000000000000000000000000000000004F
S315080063402DE9F04F2DED028B1D4613690646052BE8
S31508006350D5B00BD8013B01220024042B23D8DFE853
S3150800636013F04100290130013F0152014FF6FC723A
S31508006370934212D04FF6FD7293424FF0010340F05C
S31508006380448102200021CDE93E0185F844302846A3
S315080063903EA97CF0D9FF306086E000230022CDE9D3
S315080063A03E230123F1E7CB69284685F844202C9340
S315080063B07CF064FA0028EED13FA83E9596F063FB80
S315080063C03EA92CA881F0F2FB044628467CF09BFAED
S315080063D02046002CDFD14FF6FF7385F84C40A5F810
S315080063E04A30D8E7D1F81C80284685F844207CF046
S315080063F045FA0446002856D113A8129596F043FB91
S3150800640041460AA87FF045FD0523224641460093EA
S315080064100EA881F030FB27469FED7F8BDFF800A2A0
S315080064200EA90AA881F03EFB044648B928467CF026
S315080064306AFA4FF6FF7385F84C40A5F84A3032E001
S315080064400AA87FF0F6FC8DED228B8DED248B90F853
S315080064508190CDE92677CDE91E77ADF880708DF865
S31508006460A0708DF8AC90D0E90023CDE92423B0F8CC
S31508006470823000F16004ADF88030D0E90223202193
S315080064802046CDE92223C0F0D8FE4946CDE926406C
S315080064902CAA4046CDF8B0A08FF098FE044658B115
S315080064A028467CF030FA346000233371304655B004
S315080064B0BDEC028BBDE8F08F2DAB1E9341230DF189
S315080064C0080B1F933EABCBF8003055235A46494676
S315080064D04046CBF8043090F008F804460028DFD18F
S315080064E0DBF80430B3B19BE8030001238DF81030C4
S315080064F005AB83E8030004A907A881F04AFB9DF8C9
S315080065001C308DF8A0302BB129AB08AA92E80300FD
S3150800651083E803009DF8AC30002B49D0DDF848909D
S3150800652099F8452099F808B00AB19B451AD148460A
S3150800653013A97CF00FFAA8B199F84630D9F80010DB
S31508006540A3B1096C4FF480720023CDF800B01EA8E1
S31508006550BFF015FA0446014613AA48467CF013FA1A
S31508006560002C9DD10AA881F072FA59E7D9F8403073
S3150800657009F1280207A87CF03BF9044628B1214610
S31508006580484613AA7CF0FFF98AE7D9F800300222B8
S31508006590196C1EA80023CDF800B0BFF0F0F9044628
S315080065A00028ECD1D9F8001007A87CF059F9D1E7F2
S315080065B0712475E70520002185F84420CDE93E01C0
S315080065C0E5E6CB6993F88233CDE93E3401232846C4
S315080065D085F844303EA97CF0B7FE3471306065E733
S315080065E0CB69284685F844202C937CF047F9002887
S315080065F07FF4D1AE3FA83E9596F045FA3EA92CA861
S3150800660081F0D8FBE0E62B7ADEE78622C0E9002394
S315080066104CE700BFAFF30080000000000000000058
S3150800662000740E08000000002DE9F04F2DED028BD6
S31508006630083085B00E469146DDF8508097F09CFDEF
S315080066400446002800F0A3806F4600259FED548B72
S315080066504FF0010B41F2A45A10AB0FCB87E80F009D
S31508006660514BC4E902552360C4E90455C4E90655EB
S315080066702C3363604D4B04F1500C0FCB84ED108B1B
S31508006680C4E90E5584F8205084F8305084F84850F0
S315080066908CE80F00464B84F860B0A4F862A06566E3
S315080066A0236704F18403C4E92133424B1022C4F85A
S315080066B09830294684ED1A8BC4E91D55C4E9275537
S315080066C084F87C50C4F88C50C4F8A45004F1A8008F
S315080066D0C0F0BEFE84ED308B84F8B8B0A4F8BAA03A
S315080066E0C4F8BC5004F1C80098F0AEFB4AF6C8736B
S315080066F0C82284ED388B84ED3A8BC4E93C2304F533
S315080067008673C4E94055C4E94333A4F8D45084F8E1
S31508006710D650A4F8D85084F80851C4F814513368F0
S31508006720A3607368E360B3682361F36863613369E0
S31508006730A3617369E361337E84F8203033B104F1D1
S31508006740240306F11C0207CA83E8070096F82830D6
S3150800675084F830300BB1F36A636330467CF05FFA35
S31508006760A8B9B9F1000F12D0B8F1000F0FD003CFB6
S315080067703B78C4F8389084F84830012384F800310F
S31508006780231D20646164C4F89080C4F8A4302046B0
S3150800679005B0BDEC028BBDE8F08F00BFAFF30080FB
S315080067A0000000000000000010F00D08AC4A0120AF
S315080067B02CA70E0800F00D082DE9F04F2DED028BE1
S315080067C000240025CBB09946CDE92E450023CDE916
S315080067D03045CDE934454FF6FF74DFF898A20646F2
S315080067E088461746CDE90C338DF8C8303393CDF873
S315080067F0D8A04894A2B3054600F53474A54206D13C
S315080068000B2420464BB0BDEC028BBDE8F08F284622
S315080068107CF033FB08B19035F0E79FED8F8BBDF820
S315080068205C318DF8C880ADF820318D4B4FF4C871B6
S315080068300E93002309A8CDE909330F93CDF870A06C
S315080068400B9381F09CF9099C14BB0B240BA87CF0D4
S31508006850BAF80AA87CF0B7F809A87CF0B4F8D0E72B
S315080068608FF044FC044608B9AC24CAE706F534752B
S3150800687028467AF046FEB4F882308DF8C880ADF81E
S31508006880203121460CA894ED028B8FF09CFBCCE7B7
S315080068904FF4C8710AA881F072F9DDF828A0BAF198
S315080068A0000FD2D04FF4C8710BA881F068F90B9A83
S315080068B0002ACAD04FF4C8734146CDE91332304690
S315080068C010AA1094CDE9113A15938FF06FFC04467F
S315080068D00028BBD14146304612AA8FF049FC04462F
S315080068E00028B3D14146304614AA8FF01EFC044650
S315080068F00028ABD110A916A881F037F912A918A853
S3150800690081F033F914A91AA881F02FF936AB079349
S3150800691030AB05930DF1B80A34ABCDE903A30DF1FD
S31508006920700B0EAB8DED008BCDF818B002931AAA3A
S3150800693018A916A81BF004FD0446002886D10BA842
S315080069407CF041F80AA87CF03EF809A87CF03BF8F0
S31508006950B9F1000F13D1D6F8640300285ED0036896
S315080069609B6898470346D6F86403002B4ED0036805
S315080069705A4641465B699847044688B141E7D9F8C3
S31508006980003048465B69984759468FF0DCFE08B9DF
S31508006990C52436E79DF85831CDF8CC908DF82231CC
S315080069A09DF860315146B3FA83F328465B098DF8A2
S315080069B023318FF06FFE044600287FF422AF284665
S315080069C00CA98FF045FB06F55D7495F881303FB349
S315080069D002211120234A97F0ACFBD5E900122B6956
S315080069E0CDE9012100936B69022111201E4A97F017
S315080069F0A0FB20460F991DF0BBFB034630BB96F85B
S31508006A008233013386F882330024FAE60368414666
S31508006A10DB6898470028C3D11024F2E60324F0E681
S31508006A20D5E900121120CDE9002102210F4A97F07D
S31508006A3080FB20460F991DF09BFB03460028E3D0F8
S31508006A40012111200A4A97F074FBDDE70121112084
S31508006A50074A97F06EFBD2E700000000000000002E
S31508006A60F0330E08B3320E08D3320E0816330E086A
S31508006A704B330E0800740E082DE9F0478AB00DF165
S31508006A800D0301931523064600934FF480720023E5
S31508006A9008460C4696F027FAE8B996F89630012289
S31508006AA000932046002396F0A5F9A0B996F89730EA
S31508006AB0022200932046002396F09CF958B90DF15E
S31508006AC00E0301931623032200932046002396F013
S31508006AD00AFA054610B10AB0BDE8F0874FF010096A
S31508006AE006F1C8070DF11808102200214046C0F02B
S31508006AF0AFFC0DF10F03019315234FF48072009339
S31508006B002046002396F0EFF90028E4D196F897205E
S31508006B10EBB29A4251D917ED0C7BC44637F828AC2C
S31508006B20A7F12603A7F1160E6246186859680833B6
S31508006B3003C273459446F7D18DED007B04220023EA
S31508006B40204696F032F90028C5D1052200232046B2
S31508006B50CDF800A096F04EF90028BCD1404649462B
S31508006B6006228DE8030000232046CDE9048996F025
S31508006B708DFA0028AFD120469DF90F1096F0E8F956
S31508006B80013530370028A6D1032DADD120469DF911
S31508006B900E1096F0DDF900289DD1B6F88E30072242
S31508006BA000932046002396F025F9002893D1204625
S31508006BB09DF90D1096F0CCF98DE782469FED027B84
S31508006BC0BAE700BFAFF30080000000000000000035
S31508006BD0A0F1840050E700BF054B18680368D9691F
S31508006BE001A3D3E90023084700E0373B015D030012
S31508006BF0840702200000000037B59FF0FBFE04461C
S31508006C0000286ED13A4B1A889B78ADF804208DF887
S31508006C10063031F03DFC32F051F932F0AFF8054656
S31508006C20344B036032F03AFB284632F043FA00B997
S31508006C30FEE72DA3D3E900234FF0FF314FF0FF30D5
S31508006C4031F02EFC32F09EF8214632F0F7F89FF02C
S31508006C50D4FE01A832F0F0F9044600B1FEE7264B4F
S31508006C60264A98801860264B98801A60254B264A33
S31508006C7098621A60254A98806FF06300DA6033F0EC
S31508006C807FFA0B2032F0CCF832F02AF932F070F89D
S31508006C9000B9FEE753F06AFF2046A0F072F8082113
S31508006CA00846A0F075F800B1FEE7A0F068F831F0E4
S31508006CB0B5FF9FF0B3FF10211548B4F042FE00B9A6
S31508006CC0FEE714491248B4F04EFE00B9FEE710215B
S31508006CD08C20114A53F084FB00B1FEE70F48A1F05F
S31508006CE078FB03B030BD00BF0AE020FFE2030000D6
S31508006CF061BF0E08B56B0A0868ED002096FA0120F8
S31508006D0038ED002008ED002016FA0120F8EC0020E6
S31508006D10D48F0120F98D0D08C48F012096BE0E0868
S31508006D202DE9F04389B09FF056FE00B9FEE75C4DA9
S31508006D302B6803B9FEE701229B8811460DF10B006B
S31508006D408DF80B3032F02EF99DF80B102B680239AE
S31508006D500022186889B232F025F9002305930793B3
S31508006D60504B05AE06932B6893F82C208DF814200B
S31508006D701B681C7814F0200414D0A0F004F800282E
S31508006D805CD0A0F000F85FF011FB0B46024640A16C
S31508006D90D1E900015FF0AEFC5FF01CFE079B1844CA
S31508006DA00124079032F042F99DF80B30002848D0AC
S31508006DB0981DC0005FF00AFB37A3D3E900235FF0F4
S31508006DC06FFB8946804632F031F95FF0EFFA0B46E1
S31508006DD00246494640465FF08DFC5FF0FBFD079B87
S31508006DE0184407909FF0FEFD38B132F085F8002070
S31508006DF09FF0F4FD00209FF0F8FD29684B6963BBFE
S31508006E009FF00CFE10B3079B274F03F5FA73079301
S31508006E102B681B7EBB7032F069F8F8702868334619
S31508006E203A462146807932F09FF858B34FF480519C
S31508006E300020D2F006F8A0F0D0F823E00798C0307A
S31508006E40AEE70798063300EB4310CAE72B683246CD
S31508006E502146987932F07EF8E7E7002296200492D8
S31508006E600A691A44114BA2F59B7298800392887995
S31508006E7003AA2146009632F085F80028D6D10120CB
S31508006E809FF0D7FD09B0BDE8F08300BFAFF30080DF
S31508006E900000000060E366410000000080842E4187
S31508006EA0C08F012020A10700280802201C08022004
S31508006EB02DE9F3411E461C4B044683424FF000035E
S31508006EC08B4115460AD216A3D3E900235FF0F2FDDB
S31508006ED01649144602462846A3F0D3FE144B4EF62E
S31508006EE06021B4FBF3F203FB1244B4FBF1F34FF455
S31508006EF07A7801FB1344B4FBF8F728460D49009746
S31508006F00A3F0BFFE46B1284608FB17420A4902B05D
S31508006F10BDE8F041A3F0B5BE02B0BDE8F08100BF00
S31508006F20005C260500000000FF5B2605ECEF0E0856
S31508006F3080EE3600CE370E08F2EF0E080348044BF3
S31508006F40834202D0034B03B11847704780120220D0
S31508006F508012022000000000064B0749C91A891052
S31508006F6048BF0131491003D0044B0BB101481847FB
S31508006F70704700BF80120220801202200000000025
S31508006F8010B5064C237843B9FFF7D8FF044B13B165
S31508006F900448AFF300800123237010BD8CBD012087
S31508006FA000000000DC7C0F0808B5054B1BB105493D
S31508006FB00548AFF30080BDE80840FFF7CDBF00BF26
S31508006FC00000000030310120DC7C0F08A3F5803A70
S31508006FD0704700BF174B002B08BF134B9D46FFF7A2
S31508006FE0F5FF00218B460F461348144A121AC0F0C3
S31508006FF02FFA0E4B002B00D098470D4B002B00D0D4
S3150800700098470020002104000D000D48002802D0F2
S315080070100C48C0F0B9F960F05BF820002900B4F01C
S315080070203DFC01F011FE00BF000008000000000052
S3150800703000000000081200200812002000030220A9
S3150800704089730C080000000008B5154B4FF4E4726C
S3150800705000211846C0F0FCF9092203460261426184
S315080070601048114A98614FF48061DA61002219626A
S315080070709A625A62DA62C3F8F0000C48C3F8F40060
S31508007080C3F8F8100A49C3F80021C3F8FC20C3F86E
S31508007090042111F8010D98540132102AF9D108BDBE
S315080070A04831012028950D088DC101208DBD01208C
S315080070B041950D082DE9F84FDFF88880824698F843
S315080070C000308946532B164601D0FFF7BDFF182717
S315080070D007FB0A87D7F80051D7F8FCB05D452FD9CA
S315080070E0D7F8F840D7F8F410641BB44228BF3446E2
S315080070F0484629442246C0F067F8D7F8F8302544B0
S31508007100AB4208BF0025A144361BABEB050B5E4519
S3150800711028BF5E465EB1182303FB0A83D3F8F41032
S31508007120324629444846C0F04FF83444354424B121
S31508007130182303FB0A88C8F800512046BDE8F88FD3
S315080071400024E2E748310120F8B5182700FB077547
S31508007150124B0E461D4407FB0033DB6A1446012B0F
S315080071600AD0022B14D023B9284679F043FE84426C
S3150800717008D900242046F8BD284679F03BFE84420B
S3150800718028BF044622463146284679F03CFEF1E7F8
S315080071902846BDE8F84079F051BE00BF48310120C5
S315080071A0F8B50B4B04461B780D46532B164601D0F3
S315080071B0FFF74AFFEFF311874FF0200181F311889B
S315080071C0324629462046FFF7BFFF87F31188F8BDE8
S315080071D0483101202DE9F041164C1E462378054614
S315080071E0532B8846174601D0FFF72EFF082D1DD8CA
S315080071F0EFF3118C4FF0200181F3118865B1182047
S3150800720005FB000344F80380E2180023576000FBDF
S315080072100542166293625362182303FB0544069BD4
S31508007220E3628CF311880020BDE8F0814FF0FF304F
S31508007230FAE700BF483101202DE9F843174E1F46EB
S3150800724033780546532B8946904601D0FFF7FCFE56
S31508007250082D1FD8EFF311824FF0200181F3118812
S315080072606DB11824002304FB0564C4F8F090C4F833
S31508007270F480C4F8F870C4F80031C4F8FC30182358
S3150800728003FB0566089BC6F8043182F311880020C3
S31508007290BDE8F8834FF0FF30FAE700BF4831012018
S315080072A0024B1B780BB10023037370478EC5012070
S315080072B002211D20014A96F03CBF00BF42950D08E9
S315080072C002211D20014A96F034BF00BF52950D08D1
S315080072D002211D20014A96F02CBF00BF61950D08BA
S315080072E070B5037C0446FE2B22D0FF2B30D00B2B27
S315080072F037D80B2B35D8DFE803F0061206343434BA
S3150800730034343434341297F0E4FD036841F288319A
S315080073105D692346164AAC46BDE87040604797F05B
S31508007320D8FD036842F210715D69114A2346F2E7F7
S3150800733097F0CFFD036822465B6A0D49984797F098
S31508007340C8FD03684FF47A715D69094A2346E2E786
S3150800735097F0BFFD03682246BDE870405B6A0449A2
S3150800736018470221BDE870401D20024A96F0E1BE8A
S31508007370D17200087B950D0848F2040210B50388FF
S3150800738093420DD006D803F5FF437F339BB2012BFA
S315080073900AD910BD48F212029342FAD10F4A0CE0FC
S315080073A0027A0F4B1A70F4E790F90830012B03D0D4
S315080073B090F90930012BECD10A4A0221212096F0D6
S315080073C0B8FE97F086FD036840F6B8315C69064A50
S315080073D0A446BDE810400023604700BFB8950D08D5
S315080073E08EC5012090950D08CB0E080808B599F0B2
S315080073F091F923F047F923F077F9094826F01CFBA1
S3150800740000224FF4617107488BF036FD30B1BDE8B4
S31508007410084001212120044A96F08BBE08BD00BF12
S3150800742080B00020A8A30020F4950D0810B500220E
S315080074300C461348134999F015FA18210A20124ADE
S31508007440D1F054FA114B186040B921200121104A95
S3150800745096F06FFE40F2017079F0D4FE20460D4A90
S315080074600A49D0F004FF40B9212001210A4A96F0C2
S3150800747060FE40F2027079F0C5FE002010BD00BF24
S31508007480B0BF002079730008E8980D083C34012045
S3150800749022960D08C4980D0845960D0810B5054B9B
S315080074A0054C1870204698F008FF2046BDE81040A5
S315080074B098F05BBF8EC5012080B0002008B50C4847
S315080074C099F00FFA58B10B4898F0F7FE094898F06A
S315080074D04CFF094824F0C2FF054899F00BFA074B00
S315080074E0186818B1BDE8084000F02CBA08BD00BFFE
S315080074F0B0BF002080B0002028550120203301208D
S3150800750008B5094B1868D1F053F801300AD1212083
S315080075100121064A96F00DFEBDE8084040F20670C5
S3150800752079F070BE08BD00BF443401205F960D088F
S31508007530014608B54FF47A7200238002890D5FF080
S31508007540B9FA094B01461868D1F016F850B121204E
S315080075500121064A96F0EDFDBDE8084040F20570A7
S3150800756079F050BE08BD00BF4434012077960D0857
S3150800757008B5074A40F6B8330221212096F0D9FD0E
S3150800758040F6B830FFF7D4FF0122024B1A7008BD47
S3150800759090960D088DC5012008B5FFF7B1FF064B7B
S315080075A01A7842B100221A700221BDE8084021204B
S315080075B0024A96F0BEBD08BD8DC50120CF960D08BE
S315080075C008B5094B0A211868D0F0D6FF50B121201A
S315080075D00121064A96F0ADFDBDE8084040F2057067
S315080075E079F010BE08BD00BF40340120F0960D08A2
S315080075F010B5044686B0094896F0BEFD60B1002372
S31508007600CDE903330293064B214601930223054A2B
S315080076100093054B06F02AFD06B010BD2433012061
S31508007620E1720008B1720008C172000808B5094B7A
S315080076300146186858B100231822D1F097F940B1CD
S31508007640054A0121BDE80840212096F072BD034A8B
S31508007650F7E708BD3C34012008970D0835970D0853
S315080076607FB50223ADF80030044B019068460293BB
S31508007670FFF7DCFF07B05DF804FB00BFAD76000836
S315080076808B68084603B1184702212120014A96F063
S3150800769050BD00BF56970D0800220249024827F040
S315080076A05BBA00BFF5780008B0BF00200388022B3C
S315080076B006D1044B1B780BB9FFF75ABFFFF7ECBF8F
S315080076C0704700BF8DC5012000220249024827F0F5
S315080076D043BA00BFED730008B0BF002010B5A4B0D0
S315080076E003AB0193812301AC029360F06DFE214642
S315080076F061F076FB28B994E803002DF01DF824B054
S3150800770010BD01212120024A96F013FDF7E700BFBC
S3150800771086970D0800230246194610B504462048E8
S31508007720CCF0B2FC1F4B186040B9212001211E4A3B
S3150800773096F0FFFC40F2047079F064FD00232246BF
S3150800774001211A48CCF0A0FC194B186040B9212039
S315080077500121184A96F0EDFC40F2047079F052FDCA
S3150800776002212120144B154A96F0E3FC0221144A03
S315080077700123212096F0DDFC27F0D4FD0368DB6F9A
S3150800778098470120FFF7AAFF01F0D0F80D4898F0B6
S31508007790DEFD0D4B0D4918700D488EF048FD10BDE5
S315080077A061760008443401209E970D08070F0808E3
S315080077B040340120B8970D08AA000E08D2970D0884
S315080077C0F6970D0880B000208EC5012014330120DD
S315080077D0409D002038B50546FFF79CFF044638B1A2
S315080077E00C4826F057FE204679F00CFD204638BD99
S315080077F02B6828469B689847044608B10648F0E770
S31508007800064B1A6852F8580C1A581844926B904747
S31508007810ECE700BF13980D0825980D088055012040
S3150800782010B50379012B05D1BDE8104040F6B830F4
S31508007830FFF77EBE134B1B781BB1BDE81040FFF760
S31508007840ABBEFFF75DFE104B1C78BCB90F4899F02C
S3150800785043F822464FF461710D488BF00DFB044640
S315080078600A4899F047F824B101210A4A212096F0DE
S3150800787060FCBDE810400020FFF730BF0221064A31
S31508007880F4E700BF8DC501208EC50120B0BF0020DA
S31508007890A8A30020F4950D0836980D08482337B597
S315080078A00E4A0F4CA2F118050093111D0123284614
S315080078B096F04CFC224628460A49BEF06BFE002389
S315080078C0224609480949C0E90233094B03603033A7
S315080078D0436003B0BDE83040BEF05CBE3C330120D7
S315080078E010050220E30E080810330120C50E08080B
S315080078F07C980D0810B50121094826F019FF20B11A
S3150800790060F062FD0121BFF0E4FE064827F07CF82E
S3150800791027F008FDBDE8104003689B6F184700BFB5
S3150800792080550120B0BF002010B5044601780448F0
S3150800793026F036FFA37883F00103A37010BD00BFBD
S315080079408055012073B503690446E3B14369D3B191
S315080079500E4B684619680B681B699847D4E90423D7
S31508007960DDE90065A178002918BF1346D4E902129B
S315080079705B1842F10002B342AA4104D22046FFF73F
S31508007980D3FFC4E9026502B070BD00BF84070220B8
S3150800799038B500230022C0E90433002304460D4607
S315080079A0C0E902230278024826F0E8FEA57038BD31
S315080079B080550120014898F0CBBD00BF80B000205B
S315080079C0014898F0C7BD00BF80B00020044A08B53A
S315080079D083680260243242600BB1BFF002FC08BD26
S315080079E0349A0D08A0F10400F0E700BF10B504466C
S315080079F0054B03604433436013F0F4FD2046FFF75C
S31508007A00E5FF204610BD00BF58F80D08A0F1040098
S31508007A10ECE700BF38B5124B044603F13802C260E2
S31508007A2003F14C02026103F160024261426803609D
S31508007A30743383613AB183682BB1536042681A6024
S31508007A400023C0E9013304F14405284683F08EFF7C
S31508007A50284679F07CFA201D79F079FA204638BD57
S31508007A6038BB0D08A0F11400D4E7A0F11000D1E747
S31508007A70A0F10C00CEE7A0F11800CBE71F2008B54F
S31508007A8002210C4A96F055FB0B4825F0CFFF78B932
S31508007A900121094825F026FC50B908487EF08EFFDA
S31508007AA01F200221064A96F044FB034898F04EFD33
S31508007AB008BD00BF00990D0880B0002058150020A9
S31508007AC01E990D08F8B51E4C002526461D4F1E4862
S31508007AD01E4B3A461E49C0E901550360C560057448
S31508007AE045610583BEF056FD1A4B294646F8D83B34
S31508007AF03246234604F1080007F04AFD04F1200344
S31508007B00C4E93435144B3A46C4F8D830134B2046EA
S31508007B10C4E9383604F1F403C4E93B3541F20A43B3
S31508007B200F4984F8E85084F8F451A4F8DC30BEF024
S31508007B3031FD3A46BDE8F8400A490B48BEF02ABD71
S31508007B40581500201005022054340120E8760E0846
S31508007B505DC9020800BA0D08CC620E08B0620E08AC
S31508007B60A50F08084B0F0808640502207FB50446D0
S31508007B7002211F20854A96F0DCFA234602211F209F
S31508007B80834A96F0D6FA834D02211F207F4A96F043
S31508007B90D0FA02211F20804A96F0CBFA2B784BB9EF
S31508007BA0284627F087F800280CBF012300232B70EE
S31508007BB040F0E5802146794824F04AFC60F004FC50
S31508007BC00446BFF06EFD002840F0D980201D21F044
S31508007BD003FE04F1080021F08DFD2046BFF076FD76
S31508007BE06F4A704B0221002818BF13461F206E4AA1
S31508007BF096F09FFAFFF742FF002840F0C0806B4BD3
S31508007C00039001936A4B6B48029398F054FB6A4CB5
S31508007C10039001AB6948236326F0F8FD002840F07D
S31508007C20AE80674898F058FE664DD5E8AF3FDA074C
S31508007C300BD428469FF099F938B1634A63496448DA
S31508007C40BEF0A8FC28469FF095F9624DD5E8AF3FEF
S31508007C50DB070FD428469FF088F958B15C495E487F
S31508007C6013F024FD584A5D495B48BEF093FC28464C
S31508007C709FF080F95A4D584B2846236424F078FE25
S31508007C802369A5631BB9574B574A23615A60E36BAF
S31508007C9053BB564D6B68002B70D105F1140026694D
S31508007CA079F09EF905F11C0079F09AF9EB6803B9A9
S31508007CB02B7295F834304E4823F0050385F8343096
S31508007CC079F08EF94B4879F08BF995F834304A48B3
S31508007CD023F0180385F8343079F082F900236E60B2
S31508007CE02B7285F83430E563236C0BB9434B236458
S31508007CF0434D444B2846216963628FF006FD636A4B
S31508007D0028462B618EF0D7FE002838D122692562D5
S31508007D10002A36D03C4B3D4D5A60636102F070FB39
S31508007D203B4B0221A0623B4A2120E36296F001FA0E
S31508007D302846216915F062FF08BB2069A56192F003
S31508007D4042FF354B216960643448236097F086F812
S31508007D50324821F031FD1849314815F0CBFA04466E
S31508007D60174898F0C7FD3CB92E4826F093FB1448EF
S31508007D7026F032FF044630B1204600E0032004B066
S31508007D8070BD2F20FBE700F0AFF8F5E748990D081E
S31508007D907B990D08A8BF002087990D082855012052
S31508007DA037990D083F990D0897990D08B579000878
S31508007DB0C179000880B000201805022080550120EE
S31508007DC0B0BF00204C340120100502204D0F0808D2
S31508007DD0140502204834012008120020ED79000815
S31508007DE0543401200406022040F8012018490120D5
S31508007DF03C4901204449012024490120C873002038
S31508007E00AC460120E4050220A4460120684601206C
S31508007E10E8050220A9990D081033012064050220FF
S31508007E2060770020D9990D0810B51348FFF79EFE14
S31508007E3008B179F0E7F9114898F04EFD60F0C4FAF8
S31508007E4000B10C3019F0F0FF0C4898F053FD1F20D4
S31508007E5002210B4A96F06DF90A485DF08DFC08B1CF
S31508007E6079F0D0F9084C2068D0F075FA08B1BFF05F
S31508007E70B8F9206010BD00BFFE990D08B0BF0020FC
S31508007E80079A0D089CA701205034012010B50A480E
S31508007E9098F0BEFC0021094A0948D0F0E8F9094CD7
S31508007EA002212060084A1F2096F043F923680BB97F
S31508007EB0BFF097F910BD00BF80550120709A0D08D4
S31508007EC0297E000850340120199A0D08014820F02F
S31508007ED061B900BFF04A0120024B01211868D0F0B1
S31508007EE093BA00BF7034012010B50A4820F0A4F8F0
S31508007EF0044608B1BFF075F901F07EFA01F0C4FA3C
S31508007F002146054A0548D0F0B2F9054B1860002805
S31508007F10F0D010BDF04A01209C9A0D08CD7E0008CD
S31508007F207034012010B5044601210C20064A96F04B
S31508007F3000F90023E068A36020B1BDE8104003689B
S31508007F409B68184710BD00BFC09A0D08A0F1040031
S31508007F50E8E700BF10B50A4CD4E8AF3FDB070DD4FD
S31508007F6020469FF002F848B10648074B074A0849D9
S31508007F700360BEF00FFB20469EF0FCFF014810BDD3
S31508007F80D8340120DC3401208C5B0E081005022051
S31508007F900F10080810B504460B4B036064334360A2
S31508007FA000F50E702DF088FC636A23B1002204F1F7
S31508007FB01C0062629847236923B1002204F1080075
S31508007FC022619847204610BDB0CE0D08A0F10400E6
S31508007FD0E0E700BF10B50446034B40F8343B79F0A0
S31508007FE02CF8204610BD00BFACCA0D0837B5C068CE
S31508007FF00D46144638B901210C200E4A96F099F818
S31508008000002003B030BD1A682146019200221A608A
S3150800801001AA09F0ADFD01A879F00FF8A38823B9E4
S31508008020E38813B92378402BEAD02B8943F0400321
S315080080302B81E5E7D39A0D08A0F10400D6E700BF27
S3150800804073B5164809F050FF1549164AD1F8AC34ED
S31508008050154E164D5360A1F5405133460F4800950D
S315080080600AF01EF8124B336124F05CFF0446024600
S315080080700A4930460AF050FF2946204624F0E6FD14
S3150800808040B10C4826F006FA6D210B4B0B4A0C48FA
S315080080905FF016FD6C6002B070BD00BF301800209E
S315080080A060A700208C0502206C05022050170020CE
S315080080B080510100069B0D08229B0D08379B0D0871
S315080080C0559B0D0870B500243248334B334E036078
S315080080D06433436000F10803C0E90233304BC0E95A
S315080080E00440836100F11C03C0E907332D4BC0E946
S315080080F00940C0E90B342C4BC0E90D4443642033D6
S3150800810083640523C0E92044C0E92244C0E96444E5
S3150800811080F83C40046480F8744080F89841C0F8C0
S315080081209C4180F8A04180F8B84180F8D04180F899
S31508008130E841C0F81C321D4B32461D491D4DC0F89A
S315080081403832C0E98F4480F80042C0F8184280F8F7
S31508008150204280F84442BEF01DFA324616491748B6
S31508008160BEF018FA324616491648BEF013FA2846E3
S31508008170154B6C6040F8103B2C7227F00BF9C5E9DB
S315080081803444C5E9364432462846BDE870400F49AE
S31508008190BEF000BA30180020B0CE0D081005022037
S315080081A0F12A0108691F0108DC9B0D082CA70E0897
S315080081B0957F000850170020231008088C05022018
S315080081C0251008086C050220ACCA0D08D57F0008E2
S315080081D0012903BF034B00201B78A62008BF137094
S315080081E0704700BF9FDE0120022938B514461D4698
S315080081F00FD1202200210848BFF02AF93CB1202DD2
S315080082002A46214628BF20220348BEF0DDFF00206B
S3150800821038BDA620FCE700BF7FDE0120104608B562
S315080082206AB163B102290CD1202B28BF20231A4634
S31508008230029B05491A60BEF0C7FF002008BD2F2023
S31508008240FCE7A620FAE700BF7FDE0120012905D159
S3150800825002B11278024B00201A707047A6207047A8
S315080082609FDE01202DE9F0431D46002389B007460D
S3150800827008460E461446CDE9053326F005FE18B91C
S31508008280D82009B0BDE8F083304605A926F0C8FE17
S315080082900028F6D1204626F0F7FD0028F0D0204623
S315080082A006A926F0BDFE0028EBD1DDE90586079074
S315080082B007A9124826F0B4FE0446D8B9079B18EB5E
S315080082C0030902D10EB1BEF08CFF009302213B4692
S315080082D01F20CDE901860A4A95F02BFF6B689E425E
S315080082E00AD8324649462868BFF098F86B689E4215
S315080082F0E9D86E602046C4E71924FBE72172080016
S315080083004C9C0D08014826F0DBBF00BF0072080030
S31508008310002307B50348019301AB26F0D5FE03B049
S315080083205DF804FB00720800014826F085BF00BF0F
S315080083300C72080010B506480C4626F045FE40F2B9
S315080083400123984202BF4FF6F1732380002010BD27
S315080083500C720800014826F0B3BF00BF0D72080072
S3150800836073B5002601AB0C480C461546019626F057
S31508008370ABFE40F20123984208D14CB1062D09D92B
S3150800838020462946054A78F0CEFE304602B070BD32
S315080083900B20FBE71920F9E70D7208006A9C0D0807
S315080083A0014826F049BF00BF0B72080010B5064801
S315080083B00C4626F009FE40F20123984202BF48F215
S315080083C005032380002010BD0B720800014826F023
S315080083D077BF00BF0E72080073B5002601AB0C48C4
S315080083E00C461546019626F06FFE40F20123984288
S315080083F008D14CB1062D09D920462946054A78F0F8
S3150800840092FE304602B070BD0B20FBE71920F9E753
S315080084100E720800719C0D08014826F051BF00BF76
S3150800842010720800002307B50348019301AB26F034
S315080084304BFE03B05DF804FB10720800014826F0F5
S315080084403FBF00BF11720800002307B50348019318
S3150800845001AB26F039FE03B05DF804FB1172080083
S31508008460014826F02DBF00BF12720800002307B589
S315080084700348019301AB26F027FE03B05DF804FB21
S3150800848012720800014826F0D7BE00BF187208000D
S3150800849010B506480C4626F097FD40F2012398428F
S315080084A002BF01232380002010BD00BF18720800F8
S315080084B0014826F005BF00BF0F72080073B50026F5
S315080084C001AB0C480C461546019626F0FDFD40F218
S315080084D00123984208D14CB10C2D09D920462946CA
S315080084E0054A78F020FE304602B070BD0B20FBE747
S315080084F01920F9E70F7208007B9C0D08014826F041
S31508008500DFBE00BF04720800014826F0DDBD00BFCB
S3150800851004720800014826F0EDBE00BF1F7208006D
S3150800852007B500200090034826F024FE03B05DF846
S3150800853004FB00BF1F720800014826F07DBE00BF7D
S315080085400772080013B510480C4626F03DFD40F2A8
S3150800855001229042034604D14FF47063238000231E
S315080085600FE070B92388B3F5805FF8D34FF4C27370
S315080085702F240121CDE90034044A054B95F0D9FD95
S315080085802346184602B010BD07720800A89C0D08BD
S31508008590889C0D08014826F067BE00BF08720800CF
S315080085A010B506480C4626F03BFD40F201239842DA
S315080085B002BF4FF47A732360002010BD08720800CA
S315080085C0014826F07DBE00BF09720800014826F062
S315080085D07BBD00BF09720800014826F071BE00BFC6
S315080085E00A720800014826F06FBD00BF0A7208002B
S315080085F00B4610B5084A0C4608480949FFF732FEEB
S31508008600D82807D119F09CFC03682146BDE810401C
S315080086109B68184710BD00BF27720800B99C0D0853
S31508008620267208000B4610B5084A0C460848094940
S31508008630FFF718FED82807D119F082FC03682146EF
S31508008640BDE810405B69184710BD00BF25720800D9
S31508008650D59C0D08247208000B4610B5084A0C462E
S3150800866008480949FFF7FEFDD82807D119F068FC24
S3150800867003682146BDE810401B69184710BD00BFB6
S3150800868023720800FB9C0D0822720800022307B516
S3150800869001A8D1E9001201935FF0B8FD18B9019954
S315080086A0024826F0E1FD03B05DF804FB20720800DD
S315080086B01FB5022003900698009003A85FF0BEFD40
S315080086C018B90399024826F0CFFD05B05DF804FBFA
S315080086D020720800002370B5164886B00D46164667
S315080086E0049326F0D1FBE8B1124804A926F098FCB9
S315080086F0B0B9049B3246002B08BF0223294605A8B9
S3150800870005935FF003FE0446029073681F200193E9
S315080087106B6802210093084A049B95F00AFD2046DF
S3150800872006B070BD19F00CFC0368324629469B69F1
S315080087309847E8E720720800149D0D08014826F0BE
S3150800874093BD00BF21720800014826F069BC00BF2E
S3150800875021720800014826F0B3BD00BF297208003F
S31508008760014826F0B1BC00BF29720800014826F06E
S31508008770C1BD00BF0572080007B500200090034878
S3150800878026F0F8FC03B05DF804FB00BF057208008C
S31508008790014826F039BD00BF28720800014826F0B6
S315080087A0E7BB00BF287208000020094B10B5186007
S315080087B032B9084C2146BDE81040074826F054BD9A
S315080087C0A1F5005105488C1898F033F8F2E700BF78
S315080087D0E034012000E017082172080080550120C6
S315080087E000232DE9F04F85B080460F462C4803A993
S315080087F01546039326F014FC002838D1294E039910
S3150800880033681BB9284897F0F5FF80BBD5E90014F3
S315080088103368039A02EB030B14F003031BD10A46D1
S3150800882023465946204897F0EBFF00BB404631687F
S3150800883026F01AFDD8B93846696826F015FDB0B98C
S3150800884032686B680020134413F03F021CBF4033A4
S315080088509B1A33600BE004F1040AAAEB030A50469C
S31508008860019121F081FC0199814618B9AC2005B027
S31508008870BDE8F08F2246BEF0A7FCAAEB0402FF2152
S3150800888009EB0400BEF0E4FD53464A46594606483D
S3150800889097F0B6FF0446484621F08AFC2046C4E70E
S315080088A021720800E03401208055012008B50A46E7
S315080088B002480349FFF794FF08BD00BF227208006B
S315080088C02372080008B50A4602480349FFF788FFDD
S315080088D008BD00BF247208002572080008B50A46BC
S315080088E002480349FFF77CFF08BD00BF267208004F
S315080088F027720800014822F077B800BF384C0120DB
S3150800890008B500220249034895F0AAF8002008BDD8
S31508008910917B0208E43401200A4608B9FFF7F0BF44
S315080089200146014895F0BDB8E434012008B5022295
S31508008930054906481FF05EFBBDE8084001220449C8
S3150800894004481FF057BB00BF0C9E0D08E4340120F5
S31508008950009E0D08F04A01200122024B83F80421EB
S31508008960704700BFE43401200021044600B589B0F1
S315080089701A2201A80091BEF06BFD2346074A1E2164
S3150800898068465FF0BDF96946054825F083FD6846E7
S3150800899078F03BFCCCF0DAFDBEF023FC249E0D08F3
S315080089A03A9E0D082DE9F04F0446D0E90076384B7B
S315080089B087B0D3F828B0D3F82CA0D3F83490D3F8DE
S315080089C03880D0E902530193036901210293436970
S315080089D0304A039383690493C369002005932E4B99
S315080089E01B6895F0A6FB5B46012100202B4A95F0F3
S315080089F0A0FB534601210020294A95F09AFB4B46D5
S31508008A0001210020274A95F094FB434601210020C6
S31508008A10254A95F08EFB234601210020234A95F02E
S31508008A2088FB00F023FB3B4601210020204A95F0F5
S31508008A3080FB3346012100201E4A95F07AFB2B461F
S31508008A40012100201C4A95F074FB01210020019B9E
S31508008A501A4A95F06EFB01210020029B184A95F0F0
S31508008A6068FB01210020039B164A95F062FB012151
S31508008A700020049B144A95F05CFB01210020059B0D
S31508008A80124A95F056FB00F0F1FAD0F046F8FEE7E8
S31508008A9000ED00E09B9E0D08B4400120B19E0D0834
S31508008AA0C79E0D08DD9E0D08F39E0D08099F0D084B
S31508008AB01F9F0D08359F0D084B9F0D08619F0D08D8
S31508008AC0779F0D088D9F0D08A39F0D08B99F0D0868
S31508008AD0024B034A1A6078F099BB00BFB4400120E4
S31508008AE044524148024B034A1A6078F08FBB00BFD4
S31508008AF0B44001204655504D024B034A1A6078F09F
S31508008B0085BB00BFB440012046535542024B034A79
S31508008B101A6078F07BBB00BFB44001205446535519
S31508008B20024B034A1A6078F071BB00BFB4400120BB
S31508008B3054464353024B034A1A6078F067BB00BF9A
S31508008B40B44001204E4D4244012108B50020064B91
S31508008B50064A95F0EEFA00F089FACFF0DEFF0449EE
S31508008B6004485EF0D9FAFEE7CF9F0D0811C90E0832
S31508008B706B9E0D08829E0D0800240D4600B59BB01D
S31508008B806022214602A80194BEF062FC2B466421AD
S31508008B90094A01A85FF0B4F801212046074A01AB4B
S31508008BA095F0C7FA00F062FACFF0B7FF0449054816
S31508008BB05EF0B2FAFEE700BFF29F0D0811C90E0873
S31508008BC06B9E0D08829E0D08034B0360034B0B60DA
S31508008BD04FF4A0731360704750400120503B0120AA
S31508008BE0034B0360034B0B604FF4A073136070478D
S31508008BF0EC3A0120EC35012000240D4600B59BB067
S31508008C006022214602A80194BEF022FC2B4664216C
S31508008C10064A01A85FF074F801212046044A01AB10
S31508008C2095F087FA00F022FABEF0DBFA05A00D08E7
S31508008C3011C90E08024B034A1A6078F0E7BA704762
S31508008C40B4400120474F44572A2108B5024800F08E
S31508008C5059F9B2F04AF8FEE715A00D08024B0121B2
S31508008C601868CFF0D1BB00BF804101200D4BD988D1
S31508008C709A8889B292B2914211D0D9889A8889B2D3
S31508008C8092B291423DBF9A88D8881B89D8882DBF51
S31508008C909B8813FA80F0801AC01A80B270470020A9
S31508008CA0704700BFB8400120F8B50E46074608B918
S31508008CB0BEF097FA154D2C898C42F9D3FFF7D6FFEB
S31508008CC0201A80B286421BD8EB88E888E41AA4B238
S31508008CD0A6422B6815D92246394613FA80F0BEF00B
S31508008CE073FA2868321B3919BEF06EFAEB8816FA41
S31508008CF083F12B89B1FBF3F203FB121189B2E980E8
S31508008D00F8BD3246394613FA80F0EDE7B84001203F
S31508008D1038B50446D0F0FBF8012105460846CEF0E2
S31508008D20DDF92846D0F0EEF80C480D4B2146B4F88C
S31508008D30002100684EF0C6FE4FF0FF3200210120E8
S31508008D40CFF0A3FBD0F0E3F8044600210120CEF0D3
S31508008D50C5F92046BDE83840D0F0D4B8AC0A0220A0
S31508008D605D8C0008002370B5174CC2B0174DADF8DE
S31508008D7004318DF806314FF0FF330022206801A92F
S31508008D80CFF028FE0028F6D19DF8066101A8FFF766
S31508008D90BFFF4EB140F60D23ADF80430022301A8FB
S31508008DA0ADF80431FFF7B4FF2A6852B1084901A8A3
S31508008DB05EF0DAFF0023ADF8040101A82B60FFF787
S31508008DC0A7FF00231A46D9E71441012018410120BC
S31508008DD03FA00D082DE9F843DFF850801E46B8F885
S31508008DE000901546A3EB09070D4BFFB21C89FFF748
S31508008DF03DFF241AA4B2A74207D8394605EB090055
S31508008E00FFF752FF0023A8F80030064832462946E5
S31508008E10054B00684EF0A4FDBDE8F843FFF75CB8C3
S31508008E20B8400120AC0A0220D58D0008F0B8012010
S31508008E3070B5204E3468002C3BD14FF482711E4A1F
S31508008E400A20CFF053FD1D4D1D4A286021461D48B6
S31508008E50CFF00DFA1C4B1D4A9C801A604FF48072A5
S31508008E6030601A81DC8008B9BEF0BBF92B68002B8C
S31508008E70FAD0174C8022174B174920684EF070FD20
S31508008E808022144B154920684EF06AFD0B2051F0DC
S31508008E9019FA0B2051F0D0F91422114B0521DA6486
S31508008EA00422A3F580531A650E48BDE87040B1F058
S31508008EB0BDBD70BD8041012054A00D08144101209C
S31508008EC074A00D08658D0008B8400120A0DE0120B9
S31508008ED0AC0A0220D58D000848EE0120C8ED012015
S31508008EE00020015B0000015B08B5FEF7F5FF0421D1
S31508008EF0034B03F500521165D164DB6C08BD00BF56
S31508008F000000015B70B50C460546C2B018B94FF0B3
S31508008F10FF3042B070BD4B1EFF2BF8D80C4E33689D
S31508008F200BB9FFF785FF00232246294601A88DF8CD
S31508008F300631BEF049F94FF0FF331822306801A90F
S31508008F40ADF80441CFF012FD0028E0D120B2E0E7E9
S31508008F501441012010B50C46C2B00146D0B1631EBB
S31508008F60FF2B17D8224601A8BEF02EF901230B487D
S31508008F708DF8063118220023006801A9ADF80441CE
S31508008F80CFF0F4FC10B920B242B010BD044A136801
S31508008F90013313604FF0FF30F6E700BF144101209C
S31508008FA0184101200422F0B52C4B0C46074685B023
S31508008FB01A6500284FD000294DD0FFF757FEA0426A
S31508008FC019D2CFF0B7FF05462548264E03AB01A9AF
S31508008FD0006802AAB1F07BFC338802998B4207D25B
S31508008FE00198C91A184489B2FFF75EFE029B3380BE
S31508008FF02846CFF09AFF1C4D2E89B44201D9BEF0FF
S31508009000F0F8FFF733FEA04228BF2046AB8884B2AB
S31508009010F61AB6B2A6422B68A98817D2324613FAB0
S3150800902081F13846BEF0D0F82968A21BB819BEF0FF
S31508009030CBF8AB882A8914FA83F3B3FBF2F102FB67
S3150800904011339BB2AB8020B205B0F0BD224638463C
S3150800905013FA81F1EBE74FF0FF30F5E70010015BFB
S31508009060AC0A0220F0B80120B8400120002330B530
S315080090700B4CC3B00B4DADF804318DF80631002307
S3150800908020681A4601A9CFF0A5FC08B143B030BD47
S31508009090BDF80421286801A94EF086FAEFE700BF5B
S315080090A014410120AC0A02200A46014620B11AB131
S315080090B0024B18684EF078BA704700BFAC0A022017
S315080090C008B5082021F050F818B100234360014B79
S315080090D0036008BDE0A00D0808B5082021F044F893
S315080090E018B100234360014B036008BDFCA00D08BE
S315080090F0436843B9054B0B6005234B60436801334E
S315080091004360012070470020704700BF98A00D08F3
S31508009110042370B5144645688AB0ADF802302B684A
S315080091200A4601A805499E6878F0DBF822462846D3
S315080091300DF1020301A9B0470AB070BD9EA00D0843
S3150800914030B54468134622688BB0156901A80A46EB
S31508009150034978F0C6F8204601A9A8470BB030BDE8
S31508009160ABA00D0830B58DB04468019223680A4655
S3150800917003A80649DD6878F0B4F8042320460DEB09
S31508009180030203A9A8470DB030BD00BF9EA00D0875
S31508009190F0B5A3B0064617A81F460C46154693F029
S315080091A072FC2A2217A80CA993F080FC0DF10B0378
S315080091B0019315234FF48072009317A8002393F0A8
S315080091C092FE50BB97E80300154B8DE80300D3E9E0
S315080091D0002317A893F05FFFF8B9D7E90201114BEE
S315080091E08DE80300D3E9002317A893F054FFA0B92C
S315080091F09DF90B1017A893F0ABFE70B97668224656
S3150800920033680949DF6803A82B4678F06AF83046C0
S31508009210BDF874300CAA03A9B84723B0F0BD00BF47
S3150800922048A10D0840A10D08ABA00D0813B50446CA
S3150800923008460A4B1146C4E900300023C4E9033343
S315080092400193036822815B6A01AA984710B9019BBA
S31508009250C4E90303204602B010BD00BFC4A00D0830
S315080092602DE9F041D0E90332934204460D469EB0FB
S3150800927003D300201EB0BDE8F0812A2642683B4988
S315080092805768ADF802603A68D2F80880028910A8D3
S3150800929078F027F838460DF1020305AA10A9C04749
S315080092A00028E6D110A892F031FF324605A910A889
S315080092B092F06FFF4FF480720023152110A893F0E7
S315080092C001FB0028D5D10DF1010110A893F034F95E
S315080092D00028CED1264BCDE90100D3E90023CDE9FC
S315080092E0030010A893F0E1FA0028C2D101AE314676
S315080092F010A893F0E4F90028BBD11E4B10A8D3E9B7
S31508009300002393F0D2FA0028B3D10DF10C08414698
S3150800931010A893F0D4F90028ABD110A893F0BAFAA4
S315080093200028A6D19DF9011010A893F05FFA00282D
S315080093309FD196E8060004F1140704F1250638467D
S3150800934077F0F5FF98E80600304677F0F0FF3846E4
S31508009350BDF0CFFFC5E900703046BDF0CAFFC5E9CC
S315080093600260E36801200133E36083E7ABA00D08E0
S3150800937048A10D0840A10D08F8B505460E4600247B
S31508009380094FAC4206DB1EF095FF084994F0F2FB44
S315080093900020F8BD1EF08EFF56F82420394694F0BA
S315080093A0E9FB0134EDE700BFBAE40E0852A10D0847
S315080093B0F8B505460E460024064FAC4201DB0020F0
S315080093C0F8BD56F824303A4602211C2094F0B1FE26
S315080093D00134F2E711C90E0810B51EF06BFF0446FA
S315080093E090F083FE03490246204694F0C3FB002012
S315080093F010BD00BF50A10D080322024902481EF005
S31508009400F9BD00BFA4A10D08F04A01202DE9F047D7
S3150800941000240646E0B088464FF4BE72214601A8ED
S315080094200094BEF015F8A64228DD6D464FF02009D7
S3150800943058F824A05046BDF05CFF60AB2F189F4239
S3150800944002461DD228465146BDF0E4FE7D1C60AB9F
S315080094509D4204F101042CBF3D4687F80090A642C0
S31508009460E6D1084897F074F86846C7F0D0F9054879
S3150800947097F070F8002060B0BDE8F0872F20FAE773
S315080094801920F8E780B000200122024902481EF0A0
S31508009490B1BD00BFF0A10D08F04A01200122024B20
S315080094A083F80421704700BF8441012010B50446A3
S315080094B0054B036000F5CF6095F053FC23690BB1AB
S315080094C0BDF08FFE204610BD645F0E0870B50446D9
S315080094D00B4B00F5387503F12C0203604C334260E0
S315080094E0836000F11006B54207D055F8080C283DF0
S315080094F00028F8D02BF0ACFBF5E7204670BD00BF7E
S31508009500FC970E08A0F10400E0E7A0F10800DDE7EB
S3150800951010B5094B04460360084B8360006948B1DF
S3150800952043680BB9BDF05DFE013B436013B90368A0
S315080095301B6B9847204610BDF0A20D0850A40E08D4
S3150800954010B50446034B40F80C3BFFF7E1FF2046F5
S3150800955010BD00BF14A30D080022002310B5C0E9F2
S315080095600023C0E90223C0E904230D4B0446002169
S31508009570836121226030BDF06BFF4FF6FF72002336
S31508009580A4F882204FF48072204684F88130A4F82B
S315080095908420C4F8883077F0B4FF204610BD00BF99
S315080095A000740E0800F1080373B504460D460360FF
S315080095B011B91048BDF0A6F90846BDF09AFE0F2865
S315080095C005EB0006019007D90022204601A95CF0A8
S315080095D0ADFB019B2060A360324629462068BDF09A
S315080095E0DFF900212046019B22686360D15402B04E
S315080095F070BD00BFFCA10D0810B50446044B0360FE
S31508009600406A77F004FFE06878F00EF8204610BD4F
S31508009610A0A20D0870B5164605460C468CB0114634
S31508009620684677F053FF2946304677F0C1FE641B3B
S315080096300A4BE4105C43694606A877F047FF2246C2
S31508009640002106AB284678F02FF806A8BDF06BF97E
S315080096506846BDF068F90CB070BD00BFABAAAAAAEF
S315080096602DE9F04F4FF0180B044617460E468DB0FD
S3150800967000EB0B08351BB5F5C07F22DD3F4BED101F
S315080096805D4367BB4FF01808AF1E7F10684608FB9E
S31508009690074177F01BFF694606A877F017FF2046B3
S315080096A02A46394606AB77F0FFFF06A8BDF03BF918
S315080096B057B96846BDF037F9331B182BA6F11806BB
S315080096C007DC0DB0BDE8F08F6846013FBDF02BF909
S315080096D0DCE7324631462046FFF79CFFECE76D1083
S315080096E00BFB05454046294677F0D9FFA6F1180930
S315080096F0C246494660B1284677F0D1FF08B12946E7
S315080097000BE04946404677F0CAFF28B1494604E0CF
S31508009710404677F0C4FF10B341462046BDF080F9B5
S3150800972035465046214677F0BAFFD1460AF1180A5F
S315080097300028F6D1A5F1180A5146204677F0AFFF62
S315080097405546AAF1180A0028F6D1A9450ED3013FB5
S3150800975031463A464846FFF783FF4E468AE749466A
S31508009760284677F09CFF0028C9D0CFE72946484607
S31508009770BDF056F909F1180AD3E700BFABAAAAAAA1
S315080097802DE9F043884205460E4687B005D0DFF836
S31508009790608000F11804A64202D107B0BDE8F08344
S315080097A02946204677F07BFF04F11807E0B12146E9
S315080097B0684677F08BFEB946641BE41008FB04F490
S315080097C0002C08DC2846694677F0F2FD6846BDF0AD
S315080097D0AAF83C46DFE7A9F13001A9F1180948467D
S315080097E077F0E6FD013CEBE7204677F0C1FFF0E7AE
S315080097F0ABAAAAAA2DE9F041036886B09B6A04467B
S31508009800984701210346394A242094F092FC23689C
S3150800981021466846DB6A9847039E002430460DF1C8
S315080098200408404505D1324B9C4206DD3148BDF05F
S315080098306CF8BCF00DFF0134F3E7182767431CB139
S315080098403846B1F0B1FE0446254646452CD1AC4211
S3150800985017D0294B2E1BF2105A43B2FA82F2C2F1E4
S315080098601F02294620465200FFF7FAFEB6F5C07FCA
S315080098702ADD04F5C07631462046FFF781FFB5425A
S315080098801DD12646DFF87480B54222D12646B54258
S3150800989027D11CB139462046B1F096FE029877F0DA
S315080098A0B6FD06B0BDE8F081284606F1100177F04E
S315080098B0CDFD3046BCF0CCFE18350646C5E7304629
S315080098C077F056FF1836DAE729462046FFF758FF9D
S315080098D0D7E742460121242056F8183B94F029FC84
S315080098E0D2E73046BDF01FF81836D0E72EA20D088D
S315080098F0555555055FA20D08ABAAAAAA90A20D0850
S31508009900F8B50025474C60199035FFF725FEB5F5E3
S31508009910347FF8D100254448FFF71EFE0026C4E927
S31508009920D855C4E9DA55A4F87053C4F8745384F8C2
S31508009930785384F8805384F88253A4F88453002714
S3150800994012243A4A3A493748BCF024FE394B3A4A77
S315080099501A6002F12C014C32C3E902255960103312
S31508009960102218460021BDF073FD41F2A4520346A9
S31508009970013CC0E90667057442824561056203F148
S315080099802803EDD1294A2D492A48BCF003FE2C4864
S315080099901FF078F8254A2B492948BCF0FBFD2A48D0
S315080099A02CF0FEF8214A29492748BCF0F3FD28483F
S315080099B0284B1E4A2849C0E9014403600473BCF0D9
S315080099C0E9FD2648264B194A036000F10803C0E959
S315080099D00433244900F12003234DC0E90A330472F5
S315080099E0C460846180F820404462046380F834408F
S315080099F08463BCF0CFFD1D4B21462B601C4B102207
S31508009A0005F11800EB60C5E901442C61BDF020FDA5
S31508009A10184BEC616B612846BDE8F840034A1649C5
S31508009A20BCF0B8BD18360020E83800201005022022
S31508009A305F15080838330020FC970E08CD940008F7
S31508009A40882B0020AD940008801A0020995D030831
S31508009A50F04201202CA70E08B9580308B442012089
S31508009A60A0A20D08F99500088C42012014A30D0840
S31508009A70F0A20D0850A40E084195000870B50368B9
S31508009A8005460C4616460BB1032070BD02210D2073
S31508009A90074A94F04EFB0CB92F20F6E723682046B8
S31508009AA0DB6898470028F0D1C5E90046EDE700BF16
S31508009AB020A30D082DE9F04F074600688BB004680F
S31508009AC00D46646C90461E46A0472D2804460ED0C7
S31508009AD048B19F4A9F4B0221A52808BF13460D206F
S31508009AE09D4A94F026FB20460BB0BDE8F08F6B78B4
S31508009AF0202B01D10024F6E7984B3868029358B119
S31508009B0003682A461B6C02A99847044630B1029896
S31508009B1003689B689847E6E70324F8E74FF0000ACE
S31508009B204FF0000B8E4B0393029803A90368DB687A
S31508009B30984730B102210D208A4A94F0FAFAA524F2
S31508009B4010E08DF8060003980DF106010368DB683E
S31508009B509847044630B99DF80630402B06D0802B2E
S31508009B6004D0032403A878F012F9D0E76A789A4259
S31508009B70DAD1012303988DF8073003680DF1070140
S31508009B805B69984704460028ECD19DF80730082BF6
S31508009B9018D8002BC8D0013B072BC5D801A252F80C
S31508009BA023F000BFDD9B0008EF9B0008299B0008F7
S31508009BB0FB9B0008299B0008299B0008299B000895
S31508009BC0199C0008102BAFD1102E1AD0082EABD82E
S31508009BD04FF48B73F340D807A6D512E006F1FF3C85
S31508009BE0DCF1000343EB0C03002B9DD009E0731E48
S31508009BF0012B8CBF00230123F6E7042E01D0012E8A
S31508009C0092D1002303980493036804A95B6A9847D2
S31508009C10814648B14C46A5E7082E85D86FF4897366
S31508009C203341DC07EDD57FE7049B1BBB0023039874
S31508009C300593036805A99B6B984781460028E9D1D7
S31508009C40059B002B7FD100248CE74FF0FF31C21C07
S31508009C50994274EB020243D39DF80620402A80D12C
S31508009C604FEA134C05F10C0105F118048C4229D171
S31508009C7009F10109049B4B457FF656AFCDE906ABC2
S31508009C8003984946036806AA9B6A9847044600282B
S31508009C907FF468AFDDE906306FF0010C5A1E40F11B
S31508009CA0FF3194456FF010028A41CED39DF8062005
S31508009CB0402A7FF456AFD5E90212904208BF8B427C
S31508009CC0D6D1B3E751F8042F002ACFD0BCEB124FF8
S31508009CD0CCD198B20028C9D092B29042C6D8A5E78E
S31508009CE013F5803F70F1FF32FFF43BAF9DF8062075
S31508009CF0802ADEE700230398069303684946DB6B50
S31508009D0006AA9847044600287FF42CAF069BD90775
S31508009D1004D5D8F800200799914212D19A0705D59B
S31508009D20BDF82010B8F8042091420AD15B078AD5FD
S31508009D307868B8F80420036809999B68984700284A
S31508009D4081D109F10109059B4B45D3D8ECE600BF43
S31508009D5068A30D08172B0F083CA30D0894050220CD
S31508009D609805022059A30D080023F0B58BB0CDE95C
S31508009D700433054600688DF80D308DF80E308DF8E1
S31508009D800F3003680DF10D01DB689847044600287B
S31508009D9040F0C78028680DF10E0103681B699847D3
S31508009DA00446002840F0BD8028680DF10F010368BD
S31508009DB05B6998470446002840F0B380286804A9E0
S31508009DC003685B6A98470446002840F0AA8028681A
S31508009DD005A903689B6B98470446002840F0A180B4
S31508009DE09DF80E30002B00F09E809DF80D30402B1C
S31508009DF007D0802B40F09E809DF80F30102B00F086
S31508009E009B802646049BB34207D800264B4F059BEA
S31508009E10A3423AD801200BB0F0BD28683146036842
S31508009E2006AA9B6A9847002879D19DF80D30402BE1
S31508009E3016D1DDE906326FF0010C591E42F1FF37E3
S31508009E408C456FF01001B94108D24FF0FF3103324B
S31508009E50994270EB02020CD39BB253B10136D1E79B
S31508009E60802B06D1069B079A13F5803F72F1FF32C5
S31508009E70F1E7334B0446002856D001210D20314A1C
S31508009E80009494F056F90020C5E7286806960368FA
S31508009E902146DB6B06AA9847002840D1069B03F0AB
S31508009EA0020103F00402DB0710D411B1F2B1264B0C
S31508009EB0E0E7002AFBD0099B03EA070212F5003FF8
S31508009EC0F5D89BB2B3F5404FF1D215E009B1002A97
S31508009ED0EDD1079B13F5302F4FEA134CE7D2BCF1AF
S31508009EE0000F0BD11B0410D56046E0E74FF6FF7351
S31508009EF0BDF820209A42DAD0013488E740F2FE3CC9
S31508009F0003F580639BB26345D1D829B14FF6FF7339
S31508009F10BDF820109942CAD0002ACCD1ECE70B4BE9
S31508009F20A8E70A4BA9E70A4B01210D20094A94F034
S31508009F3000F9A8E7084BF7E7084BF5E70000FFFF2D
S31508009F4080A30D08D8A30D0890A30D086FA30D08CC
S31508009F50C3A30D08EEA30D08B1A30D089FA30D0812
S31508009F602DE9F0430546006887B088461F468DF8F8
S31508009F700F2020B90324204607B0BDE8F083DFF898
S31508009F806490AB68CDF81490EBB90026286839467A
S31508009F9003680DF10F02DB6B9847044678B91EB1CA
S31508009FA033684B4508BF002602234146CDE90063C6
S31508009FB028463B469DF80F2077F024FF002405A885
S31508009FC077F0E5FED7E79DF80F3039468DF8133060
S31508009FD0036805AA5C6B0DF11303A0470028D4D1CA
S31508009FE005AED3E798050220034B1868034B0028F3
S31508009FF008BF1846704700BF0443012008430120E4
S3150800A00010B5044602210D20024A94F092F8024B3C
S3150800A0101C6010BD00A40D080443012010B5094CAE
S3150800A020094922460948BCF0B5FA224608490948B2
S3150800A030BCF0B0FA2246BDE8104007490748BCF014
S3150800A040A9BA00BF100502205D1D080808430120B3
S3150800A0506F1D080898050220711D0808940502203E
S3150800A0600023F7B5CDE900334AB96E4601AB15248E
S3150800A0700E4A013C06D11423036003B0F0BD6B46BB
S3150800A08001AEF4E71578002DF5D055788D4206D146
S3150800A09007683568AF4207D0019D01350195009DD7
S3150800A0A0403201350095E4E71B68E5E7E039002012
S3150800A0B007B5019021B10122097801A8FFF7D0FF61
S3150800A0C0019813280AD8064B820103EB80109B5C83
S3150800A0D0002B08BF002003B05DF804FB0020FAE758
S3150800A0E0E03900200023152010B51360074B01380E
S3150800A0F001D1002010BD1C78002CFAD05C784033C2
S3150800A1008C4202BF146801341460F0E7E03900207D
S3150800A11000231A4610B50648B3F5A06F0A6001D1A8
S3150800A120002010BD4033C45C002CF9D00132F3E79F
S3150800A130A03900200868114B70B598420E4615469E
S3150800A14003D303F10C02904214D31B79A3B90B4C29
S3150800A15003689B6898470123002D3460237108BF64
S3150800A16000234FF00000637118BF2B78A06018BF5A
S3150800A170A37170BD0446EBE71920FAE718430120DE
S3150800A18002210D20014A93F0D4BF00BF84A40D0814
S3150800A19038B502210D20074A93F0CBFF0024064D5F
S3150800A1A060194034B4F5A86F01D1002038BD77F0A6
S3150800A1B0CDFEF5E7ACA40D08E039002038B50B4B09
S3150800A1C00C46984202D30C33984201D3BDF009F8E5
S3150800A1D085680FCD0FC40FCD0FC40FCD0FC495E8FA
S3150800A1E00F0084E80F00002038BD00BFA00502203C
S3150800A1F02DE9F041144C1F460E461523A046013B97
S3150800A20001D119201EE0217871B14034F7E763784F
S3150800A2103B70B6B1A4EB0804A41134602A46304654
S3150800A2203978FFF71DFF0CE021461068FFF7C6FFD7
S3150800A230054630B9002FEAD11EB1A4EB0804A411D3
S3150800A24034602846BDE8F081E0390020064B984284
S3150800A25003D303F10C02904204D39B680248002BF7
S3150800A26018BF0020704700BFA005022010B5086877
S3150800A270FFF7ECFF80B18268084B0AB19A4206D212
S3150800A2801B784BB9054A77F0A8FE002010BD03F1EC
S3150800A2904004A242F4D2F6E71920F7E7A0390020D5
S3150800A2A038B5114A83684BB9104B83608468944269
S3150800A2B001D0237833B982600A2038BD9342F5D29B
S3150800A2C04033F2E743791BB1657883799D42E9D13A
S3150800A2D00868FFF7BBFF20B1224677F07EFE002014
S3150800A2E0EBE71920E9E700BFE03E0020E03900204F
S3150800A2F0F0B50E4F84680646BC4205D307F1400305
S3150800A3009C4201D20020F0BD3B7863B9074D0FCCC3
S3150800A3100FC50FCC0FC50FCC0FC594E80F0085E805
S3150800A3200F00B760EEE71920EDE700BFA03900205F
S3150800A3302DE9F0410E4611463046FFF7B9FE0446B0
S3150800A340002842D0224FBB68984202D13846FFF710
S3150800A350CFFFDFF88C80444516D204F1400CC44583
S3150800A3600FD294F8403063B165460FCD0FC40FCDB8
S3150800A3700FC40FCD0FC495E80F0084E80F0064469C
S3150800A380E9E7204677F0E2FD124CBB6804EB861637
S3150800A3909E4212D003D2434501D2403BBB600E4ACF
S3150800A3A093689E4206D8434504D2A3420CBF0023B5
S3150800A3B0403B93600020BDE8F0817D68286803680B
S3150800A3C09B689847054B2B60E9E70A20F3E700BF2F
S3150800A3D0A0050220E0390020184301209805022034
S3150800A3E0E03E00208268054B00219A4203D34033A1
S3150800A3F09A4238BF11708160704700BFA0390020AB
S3150800A40010B5094CD4E8AF3FDB070BD420469CF0C7
S3150800A410ACFD38B1054A06490648BCF0BBF82046EB
S3150800A4209CF0A8FD034810BD144301201005022026
S3150800A430232008089C05022010B5084C0849224626
S3150800A4400020BCF0A7F80020064B074A18711A60CE
S3150800A45006492246BDE81040BCF09CB8100502200B
S3150800A460292008081843012030A50D08CF20080820
S3150800A47070B5104ED6E8AF4F14F0010418D1304627
S3150800A4809CF073FDA0B10C4D0C4A2B4607CA43F845
S3150800A490044B83E807004FF6FF722A824FF0FF321B
S3150800A4A01846C5E9052477F067FF30469CF062FD3B
S3150800A4B0014870BD2443012028430120C4A50D0886
S3150800A4C038B5054604300C4677F056FF2A68134619
S3150800A4D01BB9E26001202C600DE09868A1688842EB
S3150800A4E00ED1197909B1217931B923200121054AFB
S3150800A4F093F01FFE002038BDD888E1888842F4D042
S3150800A500DB68E5E790A50D082DE9FF410A9F884617
S3150800A51016461D4693F030FE044600283FD0D6E97D
S3150800A52000010026231DD8F80020C4E90133C4E938
S3150800A53006011D4B267323602661226204F1280C4E
S3150800A54095E80F008CE80F002B7C04F1480084F88E
S3150800A55038306B8A63876B69E363D5E90623C4E9F8
S3150800A5601023124B04F1580519680B689B68984725
S3150800A57000220023C4E9142301AB97E8070083E807
S3150800A5800700012385E80700A4F87430084B84F80F
S3150800A590646084F8686084F86C60A6672360204667
S3150800A5A004B0BDE8F08100BF20A60D08840702208C
S3150800A5B068A60D08094A08B5026002690AB1BCF026
S3150800A5C010FE074A011D026082688A42F7D1416877
S3150800A5D00029F4D04A604368136008BD20A60D0818
S3150800A5E0D8A50D0810B50446024B0360FFF7E2FF35
S3150800A5F0204610BD68A60D08F7B50C46114B054652
S3150800A600196868460B689B689847D4E91421009B2B
S3150800A61020469F1A019B63EB010678F08CFA0389A2
S3150800A62020469F4276F1000309D278F084FA043076
S3150800A630036828462B6000236B6003B0F0BD78F0F2
S3150800A6407AFAF5E7840702202DE9F04307460E4615
S3150800A650154698466FF001096FF010048BB08FF01D
S3150800A66013FD421E41F1FF33914574EB0303F6D304
S3150800A67000231836CDE90401029330462B46CDF85F
S3150800A680008004AA02A9FFF73FFF044650BB4FF01B
S3150800A690FF324FF0FF33CDE9062306AB039008934C
S3150800A6A0304603AB1C4A08A9099393F0CDFD039CD9
S3150800A6B02CB900233B7038460BB0BDE8F0832368FD
S3150800A6C020461B6898472146304693F09BFD2B464B
S3150800A6D03046CDF8008004AA02A9FFF715FF044604
S3150800A6E00028E6D095E80F0004F1280686E80F0052
S3150800A6F02B7C204684F838306B8A63876B69E36362
S3150800A700D5E90623C4E9102301233B7023687C603E
S3150800A710DB689847CFE700BF9D2A0808084B10B5A5
S3150800A7200360183343600446083078F078FA014627
S3150800A73020B9606900F5CF6094F029FB204610BD6A
S3150800A740B0A60D08A0F10400E8E700BF10B504465E
S3150800A7500221074A0D2093F0ECFCFFF745FC04F1B3
S3150800A760140177F02AFB2046BDE8104087F065BF44
S3150800A770D4A60D0800B5084B89B0049304230593A5
S3150800A7800023039204490422009303A887F00FFFCD
S3150800A79009B05DF804FB00BFC4A70D0838B50C4620
S3150800A7A0054602210D20084A93F0C3FC2146284697
S3150800A7B087F055FF044628B9FFF716FC05F1140182
S3150800A7C077F0EDFA204638BDF3A60D0800B50D4B17
S3150800A7D08DB0CDE90631ADF8202000231F22CDE942
S3150800A7E00923012391F83C208DF82C308DF82D2073
S3150800A7F00093024606AB08A902A80CF0B5F80DB0FE
S3150800A8005DF804FBB8A70D082DE9F04F144600279C
S3150800A810B9B006461D460397FFF7E6FB2269042AE8
S3150800A82008D8042A10D8DFE812F013000F00F80041
S3150800A830210128014FF6FC739A4200F023814FF656
S3150800A840FD739A4200F0208140F28652326064E03D
S3150800A850904B05A90493904B16A8059378F031FB05
S3150800A8600123284685F8443078F008F8044600287D
S3150800A8704BD10BA80A9592F006F9884878F0FDFAAC
S3150800A880074648B1864FB7F8643907F50B6703F0F2
S3150800A8900503052B18BF002700220523DFF80482CD
S3150800A8A0CDE908234046CDE9068778F0E6FA10B9DF
S3150800A8B006A878F0F2FA4FF09009089C052C0AD100
S3150800A8C0284678F020F800244FF6FF7385F84C40A8
S3150800A8D0A5F84A3019E009FB048494F881A047B129
S3150800A8E0384678F0CAFA20B197F88130534508BF40
S3150800A8F03C4694F88140FFF777FB00688DF80840DE
S3150800A90088B9284677F0FFFF032405A877F03FFAB1
S3150800A910049803689B68984734600023304633716F
S3150800A92039B0BDE8F08F036802AA1B6C04A99847E2
S3150800A9300446CCB158E0169B8DF80840186802A961
S3150800A94003681B6998479DF80830002B63D00A9B5B
S3150800A95093F84530B3B9DDF828A00BA950469AF804
S3150800A96008B077F0F7FFE0B9049805A90368DB6833
S3150800A970984704460028DED00A2835D106A878F07C
S3150800A9808CFA9AE7169B8DF80840186802A903689E
S3150800A9901B6998470A9A9DF80830127A9A42E3D1B9
S3150800A9A0D9E79AF84630DAF800107BB1096C4FF40B
S3150800A9B080720023CDF800B016A888F037F904464F
S3150800A9C001460BAA504677F0DEFFB2E7DAF84030C8
S3150800A9D00AF1280202A877F00BFF044640B1214687
S3150800A9E050460BAA77F0CFFF284677F08CFF8CE706
S3150800A9F0DAF800300222196C16A80023CDF800B048
S3150800AA0088F014F904460028E9D1DAF8001002A8FB
S3150800AA1077F026FFD3E77124E6E70068002836D0EA
S3150800AA2003689B6903A99847024600287FF40EAF7E
S3150800AA300123296885F8443005F128022B6C16A8ED
S3150800AA40039C77F0D5FE034670B92A68106CCDE9E9
S3150800AA5000430222002392F0A8F9034620B9296888
S3150800AA6016A877F0FDFE0346336056E7006800280F
S3150800AA703FF4ECAE0368DB69D4E703A9006878F015
S3150800AA80F6F9D1E70397D3E702230393D0E7032226
S3150800AA90DCE600BF940502209805022010A00020DD
S3150800AAA060970020409D00202DE9F041D0F80C80E9
S3150800AAB0B2B00546DDE938760C46B8F1000F29D064
S3150800AAC041B3402200216846BCF0C2FC2378012E1F
S3150800AAD08DF83C3002D18DF8146001E0022EFAD0D0
S3150800AAE06378402B19D1D4E90223CDE90023012349
S3150800AAF08DF80830002F3FD0394610A878F0E1F9D4
S3150800AB0010A887F0ABFF034680B101210D201C4A2F
S3150800AB1093F00FFB32B0BDE8F081202B01BFA3688C
S3150800AB20ADF8103001238DF81230E3E7BDF8443054
S3150800AB3012AAADF8183007AB07CA83E807000AABB4
S3150800AB4015AA07CA83E807009DF860308DF83430E7
S3150800AB501BB19DF861308DF835309DF862300022C2
S3150800AB608DF8363001238DF83830EB68DB68694696
S3150800AB701868FFF72BFECDE73A46D8F80C30F6E70B
S3150800AB8016A70D082DE9F84391F8387004460E46C5
S3150800AB904FF000080FB191F83980002504F1080933
S3150800ABA0484691F0B3FA31464846256091F0C3FA13
S3150800ABB084F840700FB184F84180074BA4F85050D0
S3150800ABC0A36484F8905084F8D05084F8D85084F858
S3150800ABD0DA502046BDE8F883980502202DE9F041B1
S3150800ABE090F9343006460133A6B003D1002026B0CA
S3150800ABF0BDE8F0810368002BF8D100F1080840464B
S3150800AC0091F028FE074630600028EFD1204C014617
S3150800AC10942201A80094BCF01BFCB06C04AD036838
S3150800AC209B6898470FCDB46406F15804A6F850708F
S3150800AC300FC40FCD0FC40FCD0FC495E80F0014AD88
S3150800AC4084E80F000FCD06F198040FC40FCD0FC48A
S3150800AC500FCD0FC495E80F0084E80F00684686F804
S3150800AC60D87086F8DA7077F092F8414606F148000F
S3150800AC7087F0EAFE30600028B8D196F840302BB14C
S3150800AC80B06C96F841100368DB6998470120AEE777
S3150800AC9098050220F0B5CFB007460E460D7AFFF7A5
S3150800ACA0A3F9006838B1036829465B6A03AA98477E
S3150800ACB018B104461EE00320FBE7FFF795F904A93F
S3150800ACC0006878F0D4F80446A0B9BB7B012B00F2E3
S3150800ACD0838006A891F01AFA2246214606A891F022
S3150800ACE058FA304606A98DF8504078F0FFF807461E
S3150800ACF018B1044620464FB0F0BD9DF944300133E3
S3150800AD0021D1059006A916A8FFF73CFF16A8FFF75C
S3150800AD1065FF28BB169C28A8212C2BD177F037F87D
S3150800AD2006A916A8FFF72EFF06F1080416A8FFF7CE
S3150800AD3055FF20BB169C212C4CD0002C4AD028A8A5
S3150800AD4077F025F8D6E705A906A891F0EBFD0028C7
S3150800AD50AFD1DDE904329A42D4D940F28954C9E721
S3150800AD6028A8FFF701F80028D0D128A877F00FF80F
S3150800AD702F24BFE777F00BF8002CBBD1D0E7039B55
S3150800AD80BB420BD9FFF730F928AB00932A463B465E
S3150800AD90214677F097F858B10446D0E7FFF724F92B
S3150800ADA028AB00932A460023214677F042F8F2E7BB
S3150800ADB00137BBE7013B0393FFF716F92A463146ED
S3150800ADC0039BFFF7CDF80028E6D1039BBB42F1D8D9
S3150800ADD00024B4E70836F8E7042B2FD1039B049A1E
S3150800ADE001339342B9D8164BADF860001693012388
S3150800ADF03371337A8DF8A0008DF8E0008DF8E800FD
S3150800AE008DF8EA0016AFB3B13846316887F01CFEF4
S3150800AE10044670B9169816F8081F0368DB69984740
S3150800AE20FFF7E2F823462A463146009777F001F8FD
S3150800AE300446384684E740F27E54FAE76C2459E71C
S3150800AE4098050220F0B517690E460446194685B0DE
S3150800AE50BFB902F10800FFF71DFF2F28034613D0DC
S3150800AE60D82811D00B2819D000228DF80C20039A67
S3150800AE702046009231463A4687F016FC204605B031
S3150800AE80F0BD4FF4B163EFE7872501210D20044A91
S3150800AE90009593F04EF945F4A063E5E78925F4E7B4
S3150800AEA03DA70D08034B53F81C09002818BF184680
S3150800AEB0704700BF6043012008B50C4802680AB114
S3150800AEC0BCF08FF91F21A0F11C0340E905120849BF
S3150800AED0C3E9073240F81C1C483140F8182C40F8E2
S3150800AEE00C2C40F8042C40F8081C08BD60430120CF
S3150800AEF05CA70D087FB5094B1F2201934FF001137C
S3150800AF00CDE903230023ADF8080001A902A8ADF88E
S3150800AF1014308FF0FBF807B05DF804FBECA70D08BA
S3150800AF2008B5024878F01DF808BD00BF4443012063
S3150800AF30024A03490348BBF02DBB00BF1005022097
S3150800AF408D2F08084443012000B5084B89B00493A7
S3150800AF50032305930023039204490322009303A8BD
S3150800AF6087F025FB09B05DF804FB00BF54A80D085F
S3150800AF7010460249022293F01DBA00BF44A80D08E4
S3150800AF807FB516690546022E1C464DD008D826BB45
S3150800AF90364887F0BBFE032865D0CDE9020610E0E7
S3150800AFA04FF6FC739E4208D04FF6FD739E4212D0B0
S3150800AFB086220123C0E900230AE000220023CDE906
S3150800AFC00223204602A978F03CF8002328602B715A
S3150800AFD0284604B070BD0122F0E70123216884F8F1
S3150800AFE0443004F12802236C02A877F001FC0028FB
S3150800AFF0EBD12368186C1E4B93F8A12422B90222C0
S3150800B000002391F066FF08E093F8A034FF2B2AD0BE
S3150800B01000930222002391F0E2FE0028D5D1216890
S3150800B02002A877F01DFCD0E70123216884F8443094
S3150800B03004F12802236C02A877F0DAFB0028C4D1B1
S3150800B0402368186C0A4B93F89E24002AD7D04FF62B
S3150800B050FF72B3F89C34934205D000930222002372
S3150800B06091F0C8FED9E740F28750AEE7A8A30020C2
S3150800B07060A700202DE9F04317460221314AA1B006
S3150800B08004461D201D46B3F8009093F052F8394641
S3150800B0902D488BF02BF8804608B92C4B20E02C4E17
S3150800B0A096F8FC34DBB996F8FD34C3B9A6F56E708C
S3150800B0B087F032FE98B92B69B3F57A7FEDD3254A26
S3150800B0C09342EAD8AB690F2BE7D9202BE5D8A6F52A
S3150800B0D06E7087F018FE814509D9852300E01E4B5E
S3150800B0E0236001232046636021B0BDE8F083A6F5FE
S3150800B0F06E7077F0C6FF8145EFD3AB89B3F5805FF5
S3150800B100EBD2291D07A88EF003FB0028C5D1B8F895
S3150800B1108230CDE9037301ABD5E9050183E8030065
S3150800B1202B6949460093AA890C4807AB87F0C2FEEB
S3150800B13005460028B1D102211D20094A92F0F9FFDF
S3150800B1402560CEE76CA80D08409D0020010301008C
S3150800B15060A70020A086010001020100A8A3002024
S3150800B1609AA80D0810B50221104A04461D2092F02F
S3150800B170E0FF0F480CF0CCF80E4887F0CDFD50B92B
S3150800B18001211D200C4A92F0D4FF0C4B23600123A9
S3150800B1906360204610BD074810F018FE02211D20E6
S3150800B1A0074A92F0C6FF0023F0E700BFBBA80D08C8
S3150800B1B05CAC0020A8A30020EAA80D080104010041
S3150800B1C015A90D08034B53F81809002818BF184687
S3150800B1D0704700BF8043012008B50B4802680AB1D2
S3150800B1E0BBF0FFFF20F8141C3C21A0F1180340E92E
S3150800B1F00412C3E90632054900F8122C40F8082C57
S3150800B20040F8181C08BD00BF8043012008A80D0897
S3150800B2107FB578B9094B3C2201934FF00113CDE96C
S3150800B22003230123ADF8080001A902A8ADF81430DC
S3150800B2308EF06CFF07B05DF804FB00BF40A90D084F
S3150800B24008B5024877F02EFF08BD00BF6843012005
S3150800B250024A03490348BBF09DB900BF1005022006
S3150800B260CF3008086843012030B59BB00446154620
S3150800B2700A49482208A8BBF0A7FF094B0E220493E7
S3150800B2800E230593A36906490193092303A800938E
S3150800B29008AB039587F03AF91BB030BD60AA0D08D4
S3150800B2A0F0A90D08044B00F114025968914204BF35
S3150800B2B000225A6087F0C1B9A8BF002030B5C3681C
S3150800B2C08FB0E3B1DB6800251C680E4B0AA908930A
S3150800B2D007AB09932823CDE90A5301230C930223CC
S3150800B2E002A8ADF83430224608AB00950BF03CFBBB
S3150800B2F0236820469B68ADF828500A9998470FB0EE
S3150800B30030BD00BFE4A90D0800B5C3688FB0A3B16E
S3150800B310DB6807911A680A4B2821089307AB09933B
S3150800B3200023CDE90A3102210C93ADF834100093BD
S3150800B3300AA908AB02A80BF017FB0FB05DF804FBCF
S3150800B340D0A90D0870B588B005460C4687F087F970
S3150800B35020BB134BA268596811B905F1140159604D
S3150800B360002405232826049205A905F11C0204A831
S3150800B3700793CDE905460DF075FF102307930123C2
S3150800B38005F14402009305A90DF10F0304A8CDE9C0
S3150800B39005468DF80F4085F0F8FB204608B070BDCD
S3150800B3A0A8BF002000487047884301202DE9F043D4
S3150800B3B0A1B091461D46884604461EF003FA064685
S3150800B3C023F0B0FFD9F810300746182B1CD8182BD5
S3150800B3D022D8DFE813F05F0080008D009A00A400F1
S3150800B3E03C006400AA00B000BA00C500DC000E01EB
S3150800B3F017011F0127015900B3012F014C016E01E6
S3150800B400AA01AC012100AE014FF6FC72934208D0A6
S3150800B4104FF6FD72934209D086220123C4E9002320
S3150800B4200FE00021284677F0B9FFDEE0D8F818606B
S3150800B43016F4802609D10321284677F0AFFF267136
S3150800B4402060204621B0BDE8F0830521EAE7D8F858
S3150800B4501C3098F8202023B90AB1BBF0C2FE137835
S3150800B460FFDE13F8011B013AFF29D2B20F9302D16E
S3150800B4700023109303E08A4294BF109210910FA9FB
S3150800B480284677F0F0FEB0E008F14401284677F048
S3150800B4903DFFAAE01321284677F073FFA5E0AA4BE3
S3150800B4A00BAEB3F848300322ADF82C3000238DF8E4
S3150800B4B02E300D9303683146D3F824800DABC04770
S3150800B4C038B90D9AA14B022A18BF1E4602230F96B9
S3150800B4D0CFE79E4EFAE701234FF008090122CDE98E
S3150800B4E00393082100230095304677F0E0FE7CE0C0
S3150800B4F00023ADF83C303368DB6830460FA998471F
